:100000000C94CD000C94EA000C94EA000C94EA00E5
:100010000C94EA000C94EA000C94EA000C94EA00B8
:100020000C94EA000C94EA000C94FA170C94CF1884
:100030000C94BA0E0C94EA000C94EA000C94EA00BA
:100040000C94EA000C94EA000C94EA000C94EA0088
:100050000C94EA000C94D5250C94EA000C94EA0068
:100060000C94EA000C94510E0C94EA000C94EA00F3
:100070000C94EA000C94EA000C94EA000C94EA0058
:100080000C94EA000C94EA000C94EA000C94EA0048
:100090000C94EA000C94EA000C94EA000C94EA0038
:1000A0000C94EA000C94EA000C94EA0081068B069A
:1000B0008B0694069406A706A706BB06BB06D00CC3
:1000C000D90CDB0CDD0CDF0CDF0CE30CE30CE70CD4
:1000D000E90CE90CE90CEC0CEC0CEF0CEF0CEF0C60
:1000E000EF0CF20CF20CF20CF20CF50CF50C3819CA
:1000F0005B191B1A5B191B1AA019C3191B1AE519E6
:10010000F819291C291C771C771CF91C421D491F52
:10011000491F691D491FCF1CCF1C211F491F491FA3
:10012000361F141A0815171C180C12132A04160768
:10013000090A0B0D0E0F34281D1B06190511103668
:10014000523738787A65802C807B50514F7C000084
:100150000000000000000000010102030405060881
:100160000A0C0F1114181C2024292E33393F464C39
:10017000535B626A7179818A929AA2AAB2B9C1C8A4
:10018000CFD5DCE1E7EBF0F4F7FAFCFDFEFF6262AD
:100190000028008315087432000011241FBECFEF21
:1001A000DAE0DEBFCDBF15E0A0E0B1E0E6EEF7E5B6
:1001B00002C005900D92AA35B107D9F729E0AAE54A
:1001C000B5E001C01D92AC33B207E1F70E94F01315
:1001D0000C94F12B0C940000E82FF0E08BE0989F3A
:1001E000E00DF11D1124EE5DFE4F849108950F93F3
:1001F0001F93CF93DF938C01D62FC42F0E942E25FF
:10020000F8019281D13029F0F8F0D43009F456C0C9
:1002100060C0992309F44FC09C2F9270C0FD90627A
:10022000982321F080FD02C085E307C09C2F9470C5
:10023000892311F08DE301C089E280935C058091F0
:100240005C050E94181B43C0C230D9F048F4CC238F
:1002500089F0C13031F524E320935A0528E21FC00C
:10026000C430C9F098F0C530E1F421E320935A0579
:100270002AE215C029E220935B0525E320935A0565
:1002800010C028E320935A0527E309C028E32093F0
:100290005A0522E504C023E320935A052FE020935A
:1002A0005B05992341F085FF03C080915A05C5CFB6
:1002B00080915B05C2CF80915C0507C0992321F036
:1002C000827239F48CE2BDCF8CE20E94461B0E9400
:1002D0006825F8018281882309F485C0DA3029F184
:1002E000B8F4D230D1F0D33009F07DC090919C05A4
:1002F00081E0892780939C059091160888E88927DA
:1003000080931608DF91CF911F910F910C94800478
:10031000DB3091F0DC30B9F066C085E090E0DF9131
:10032000CF911F910F910C9416138C2FDF91CF91C9
:100330001F910F910C945A068C2FDF91CF911F9132
:100340000F910C94BC130E94351A8D51914009F005
:100350004AC00FB6F894A895809160008861809398
:100360006000109260000FBE87E10E94731B80E462
:100370000E94731B87E50E947A1BC0E0D0E0FE015B
:10038000F695E795F05A859194919E012370332755
:10039000232B31F48130910519F4239615E00CC01C
:1003A000C0FD02C020E001C022E002C09695879502
:1003B0002A95E2F7182F1373812F0E94731B86EE84
:1003C00090E00E94721F812F0E947A1B2196C11516
:1003D00080E1D807A0F20E948C0EDF91CF911F918F
:1003E0000F910C94931BDF91CF911F910F91089562
:1003F00080E090E00895E82FF0E0EE0FFF1FEF5B44
:10040000FE4FA081B0E090969C918181892311F4E8
:1004100080E8089580E00895E9E3F1E090E0A081AC
:10042000B0E091963C9191972181891711F08F3F0F
:1004300011F4232B02C02095232391962C939F5FC8
:100440003296943061F7833009F42A9808955198D0
:10045000599A23982B9A81E00E94A5251B9B109204
:100460001C0180913C0990913D098A3A9B4BB9F45B
:1004700010923D0910923C0980911C01882379F06B
:10048000519A5998559A5D988FEF91E12AE78150DA
:1004900090402040E1F700C000000C947B0E0895CE
:1004A0000E940F060E94B1258FEC97E00197F1F7AB
:1004B00000C00000A1E4B1E0EC91F0E091A1119640
:1004C0002C911197822F8095982391A382A1822B42
:1004D00082A3129691E0A735B90771F708952F927C
:1004E0003F924F925F926F927F928F929F92AF92C4
:1004F000BF92CF92DF92EF92FF920F931F93CF9311
:10050000DF93CDB7DEB728970FB6F894DEBF0FBEE6
:10051000CDBF0E94BA252091890530918A058217A6
:10052000930709F4AAC090938A05809389059BE8F4
:10053000E92E95E0F92E212C312CA12CB12C2DE5A2
:10054000822E25E0922E44244394512C4CE0642EBC
:10055000712C822D0E940C0280E18A95F1F78401B2
:10056000C12CD12CF886EF82CE828C2D0E94FB010B
:10057000F80190819695892B80838038D1F43320BF
:1005800019F03394108215C085E0B82EF0E1FA9589
:10059000F1F78E810E94FB01F80190819695982BCE
:1005A0009083882319F0BA94B110F0CF5801332406
:1005B0003394F70120813181C2010C2C02C0880FD5
:1005C000991F0A94E2F7F80141918F014B3F18F00F
:1005D000822B932B06C0433038F48095909582236C
:1005E0009323F70191838083F701808191812817FC
:1005F0003907C9F0809116018430A8F4FE81F9838F
:100600002A8281E04B3F08F480E08B830E94BA2568
:1006100081609D838C83CE0101960E94EB1ACE01EE
:1006200001960E94180D8FEFC81AD80AEBE0CE167B
:10063000D10409F099CFFBE08F0E911C82E0E80E07
:10064000F11CEF81F88580819181892B69F080917F
:10065000090182FD05C0709265076092640704C0BD
:1006600010926507109264072394F4E02F1271CF63
:1006700086E0831510F4F501108281E028960FB60C
:10068000F894DEBF0FBECDBFDF91CF911F910F91C8
:10069000FF90EF90DF90CF90BF90AF909F908F90A2
:1006A0007F906F905F904F903F902F900895CF93E1
:1006B000809116018A3030F10E946F02EDE5F5E07D
:1006C00080E090E02191222339F08E3011F08131C9
:1006D00011F49C5901C09F5F8F5F8C3299F7809114
:1006E0001C01983C41F4811104C08AE190E00E9411
:1006F000161381E017C0811103C081E0911112C06F
:1007000080E010C08FEF0E940C0280E18A95F1F723
:10071000C0E08C2F0E94FB018111EBCFCF5FCB306B
:10072000C1F7EECFCF910895CF93DF93CEE9D5E017
:1007300082E090E6A3E9B5E020E030E0F901E05086
:10074000FE49E491E993FC01449111964C93119771
:100750003196E491EC93FC013296E4911296EC937D
:10076000129733959E5F13962115F3E03F0731F7FB
:10077000DF91CF910895482F50E023E330E0241B10
:10078000350BF901EE0FFF1F2E0F3F1FF901ED583A
:10079000F74FDA01AA0FBB1F4A0F5B1FDA01AD56F4
:1007A000BA4F2D913D914C9120833183428321E0BA
:1007B00030E0A90102C0440F551F8A95E2F7CA0133
:1007C00090919D05892B80939D052E980895E3E3D4
:1007D000F0E0E81BF1099F01220F331FE20FF31F26
:1007E000ED58F74F11821082128221E030E0A9010A
:1007F00002C0440F551F8A95E2F7CA018095909177
:100800009D05892380939D059091090192FD03C068
:10081000811101C02E9A0895EF92FF920F931F93BA
:10082000CF93DF93D82F0EE915E0C0E0E62EF12C30
:10083000DD2331F0F80180818D1B883088F401C000
:100840008C2F970102C0359527958A95E2F720FFF6
:1008500004C08C2F0E94BB0303C08C2F0E94E703AF
:10086000CF5F0F5F1F4FC33019F7DF91CF911F91FB
:100870000F91FF90EF90089560919D0580E00C949A
:100880000C04CF92DF92FF920F931F93CF93DF93CD
:10089000F82E0EE915E0C0E0D0E0CC24C394D12CB2
:1008A000F80181918F018F110DC020919D05C60126
:1008B0000C2E01C0880F0A94EAF7822780939D05C9
:1008C0000E943C042196C330D10551F7DF91CF91AE
:1008D0001F910F91FF90DF90CF900895669581E072
:1008E0000E940C04809109018C7F843221F42E989F
:1008F00081E08093B8050895669589E00C940C0416
:1009000060919C0585E10C940C04682F80E10E94A5
:100910000C040C9480042BB1362F309523233BB16B
:10092000632B3FB7F894FC018DE98150E1F0919180
:1009300048E06BB997FF2BB9990F000000C02BB9A5
:10094000000000C000C000C000C000C000C000C067
:1009500000C000C000C000C000C000C000C000C097
:100960004A9539F7E2CF3FBF0895509A61E00C9461
:100970008B04EF92FF920F931F93CF93DF9300D0DE
:1009800000D01F92CDB7DEB7F901453008F445E03D
:1009900070E0869F9001879F300D1124232F33270D
:1009A000042F10E0209FD001219FB00D309FB00D8B
:1009B000112420E031E07901E61AF70AE09E900167
:1009C000E19E300DF09E300D11243C833983832F3E
:1009D0008B0F8D838A834B1B4B83892F90E063E0C1
:1009E00070E00E94D927DE01A80FB91F12963C9132
:1009F000DE01A80FB91F11962C91DE01A80FB91FB7
:100A000013968C918183308322830F900F900F90E7
:100A10000F900F90DF91CF911F910F91FF90EF906A
:100A20000895CF93DF9300D000D01F92CDB7DEB7EB
:100A3000FA0193E0899F90011124232F330F330B88
:100A40001C821982982F990F890F8150869FC001AF
:100A500011249D839A83691B6B83DE01A20FB31F50
:100A600013968C918183DE01A20FB31F12968C9195
:100A70008083DE01A20FB31F11968C9182830F90A9
:100A80000F900F900F900F90DF91CF9108958AE013
:100A900090E00C94232BAB01BC018AE090E00C9415
:100AA0003B2B83E9E3E7F8E0DF011D928A95E9F744
:100AB0000895E3E7F8E0808123E0829FC0011124DC
:100AC0009595879595958795819389E0E630F80708
:100AD00091F783E798E00C94B5042091090122FF77
:100AE00015C02FE039E00E94B904E3E7F8E08091F7
:100AF0000F0990911009A091110981939193A193ED
:100B000089E0E630F80799F70C94590508950F939A
:100B10001F93CF93DF932091090122FF24C0D42F8C
:100B2000162FC92F082F287F283011F40E946D0539
:100B300000930801C370909109019C7FC92BC09359
:100B4000090110930A01D0930B0160910801709183
:100B5000090180910A0190910B01DF91CF911F91C2
:100B60000F910C944B05DF91CF911F910F91089538
:100B7000CF93C82F8091090182FF4FC0CC2321F071
:100B8000C93118F0C1E001C0C8E180910901877046
:100B90009C2F990F990F990F892B809309016091D0
:100BA00008017091090180910A0190910B010E9446
:100BB0004B0590910901892F86958695869509F0B8
:100BC0002E98C13061F440910B0160910A0180912F
:100BD000080193700E948705CF910C945905C2308B
:100BE00051F48AE2ECEFF5E0DF011D928A95E9F716
:100BF000CF910C945105C43059F460910008709164
:100C000001088091020890910308CF910C946E0422
:100C1000C950C23010F41092B905CF9108950E94C6
:100C20004705609308017093090180930A0190932E
:100C30000B0180910B01811103C08FE780930B01A1
:100C4000269A8091090182FF05C086958695869532
:100C50000C94B8050E9459052E9A089580910901B7
:100C600082FB222720F991E0922790FB82F9809362
:100C70000901609108017091090180910A01909128
:100C80000B010E944B058091090182FF05C08695EA
:100C9000869586950C94B8050E9451050E945905C9
:100CA00080913309843029F080919D05811101C024
:100CB0002E9A0895CF92DF92EF92FF920F931F9397
:100CC000CF93DF93C82ED0900801D0910901D37043
:100CD000E0900A0140910B01042F80FF02C0CFEF8A
:100CE00001C0C1E00E942E2581FDC1954C2D50E030
:100CF0004930510508F052C0FA01EA5AFF4F0C94EE
:100D00000128DF91CF911F910F91FF90EF90DF901D
:100D1000CF900C942E068091090186958695869534
:100D20008C0F0E94B8053AC08091080120910901FA
:100D3000922F93709D5F24E1C202800D911D1124BA
:100D400060E073E00E94ED27D82ED92F2AC0809151
:100D50000A0191E1C90270011124E80EF11C2FEF84
:100D6000E216F10409F01CF4F7FC29C01AC0EE24C5
:100D7000EA94F12C16C080910B0191E1C902A00107
:100D800011248A01080F111D0F3F110509F01CF4F1
:100D900017FD18C006C00FEF10E003C022E02C15AD
:100DA000A0F4402F6E2D8D2D9D2FDF91CF911F919F
:100DB0000F91FF90EF90DF90CF900C948705E12C7E
:100DC000F12CEFCF00E010E0ECCFDF91CF911F913D
:100DD0000F91FF90EF90DF90CF900895E3E7F8E058
:100DE000818360834283339699E0E630F907C1F747
:100DF0000C945905FC0190919B078081883149F53D
:100E000081818B3B21F4CF0103960C9475109330B4
:100E100019F482810C94B805943021F443816281E5
:100E20000C94EE069530A9F4843368F4A82FB0E052
:100E300084819381228111962C9311979C93129611
:100E40008C930C9459058F3F21F4828193810C94EB
:100E5000721F0895CF93C82FE091B705F0E0E25BD1
:100E6000FE4F44919091090160910A01809108011F
:100E700093700E946D05309107012091B7053C9F4A
:100E8000200D11242093B7052C1730F08C2F90E003
:100E9000820F911DCF971CF0319530930701CF91B0
:100EA0000895CF92DF92EF92FF920F931F93CF930B
:100EB000DF93CCEFD5E031EDE32E35E0F32E03E701
:100EC00018E080E0E881EE2369F0F0E0E25BFE4F9D
:100ED0006491A801F70180810E94110588818150E9
:100EE000888381E02196FFEFEF1AFF0A0D5F1F4F05
:100EF00096E0C632D90731F79AECE92E95E0F92E43
:100F000023ECC22E25E0D22E00E010E0F701C081D4
:100F1000CC2381F0EC2FF0E0E25BFE4F6491A8015E
:100F20004F50574FF60180810E941105C150F701C3
:100F3000C08381E0FFEFEF1AFF0A9FEFC91AD90AB9
:100F40000D5F1F4F0531110509F7811112C0809106
:100F50000901887F803169F480913309843049F038
:100F600080919D05811105C080911A01811101C0F8
:100F70002E9ADF91CF911F910F91FF90EF90DF900C
:100F8000CF900C9459056F927F928F92EF92FF92BF
:100F90000F931F93CF93DF938091B6051092B60500
:100FA0008F3F09F4BCC00E94510571EDE72E75E03A
:100FB000F72ECFEBD5E00BEB15E04FE059E06FEFEC
:100FC000F70181917F010E94110528812E3FCCF10C
:100FD00027FD35C0422F022E000C550BDA01AE5909
:100FE000BE4F34E08C9190E0FC01EE0FFF1F8E0F9E
:100FF0009F1FFC01ED58F74F60900F09709010098A
:101000008090110960827182828231501B96311169
:10101000E9CFFA01E95AFE4F808190E0FC01EE0F22
:10102000FF1F8E0F9F1FFC01ED58F74F80910F0996
:1010300090911009A091110980839183A28321507E
:101040002883F80120812D30D4F52B30ACF5422FC8
:10105000022E000C550BDA01AE59BE4F34E08C91D4
:1010600090E0FC01EE0FFF1F8E0F9F1FFC01ED585B
:10107000F74F60900F0970901009809011096082FD
:101080007182828231501B963111E9CFFA01E95AFF
:10109000FE4F808190E0FC01EE0FFF1F8E0F9F1F1F
:1010A000FC01ED58F74F80910F0990911009A09124
:1010B000110980839183A2832F5FF80120832196F9
:1010C0000F5F1F4FF5E0C33CDF0709F076CF80913B
:1010D000BA0590E0FC01E154FA4F20812E3FA4F4C0
:1010E000FC01E554FA4F80818D3074F08091330912
:1010F000843051F080919D05811106C080911A01C4
:10110000811102C02E9A0BC0DF91CF911F910F91D8
:10111000FF90EF908F907F906F900C945905DF9126
:10112000CF911F910F91FF90EF908F907F906F90D4
:101130000895CF92DF92EF92FF920F931F93CF9378
:10114000DF930E9451058091B805882309F483C07C
:101150001092B80540910008509101086091020872
:101160007091030887E090E0082F6A017B01082E48
:1011700004C0F694E794D794C7940A94D2F7CD2884
:10118000CE28CF2819F4019779F75EC0873041F453
:1011900086EB8093100980930F09809311090CC08E
:1011A00001972FE039E04FEF6FEF9695982F882742
:1011B000979587950E94B90432E6E32E31E0F32E2D
:1011C00010E0C0E0D0E06C2F712F802F0E94FB2533
:1011D0000297B0F0F701EC0FFD1F808190E0FC0159
:1011E000EE0FFF1F8E0F9F1FFC01ED58F74F8091F0
:1011F0000F0990911009A091110980839183A28316
:101200002196CB30D105F9F61F5F8BE0E80EF11C7B
:101210001430B9F6E1EFF8E086E099E020910F098B
:1012200030911009409111092193319341938E1708
:101230009F07A1F7DF91CF911F910F91FF90EF9042
:10124000DF90CF900C9459050E9459058091330985
:10125000843009F02E9ADF91CF911F910F91FF906A
:10126000EF90DF90CF9008950F931F93CF93DF936C
:101270002091B5052F5F422F50E090E0880F991F15
:10128000841795071CF02093B50537C01092B5055B
:101290000E945328EC010E9453286BE070E00E94EA
:1012A000ED279C013327CE0164E070E00E94ED271A
:1012B000F9019BE0899FE00DF11D1124EE59FE4FCD
:1012C000008110E0F801E450FA4F80818230A8F4E8
:1012D0008FE38083F901E95AFE4FC081D0E0AA97DD
:1012E000FE01E653FA4F80830E945328F801EF5223
:1012F000FA4F8083CD53DA4F8883DF91CF911F91CE
:101300000F910C945107BF92CF92DF92EF92FF9210
:101310000F931F93CF93DF939091B4059F5F9093AA
:10132000B405891708F071C00E9451050E94532826
:101330006BE070E00E94ED27EC01DD27FE01E45038
:10134000FA4F8081811109C086E080830E94532872
:10135000CF52DA4F88831092B405CCEFD5E057E531
:10136000C52E51E0D52E61EDE62E65E0F62E00E0AB
:1013700010E07BE0B72E8881882381F14FE059E0AF
:101380006FEFF70180810E94110535E02881832FDE
:10139000821B843040F4F801B89EE00DF11D112449
:1013A000EE59FE4F03C08430A1F4F601808190E035
:1013B000FC01EE0FFF1F8E0F9F1FFC01ED58F74F32
:1013C00080910F0990911009A09111098083918358
:1013D000A2833F5F3730D1F6215028830F5F1F4F24
:1013E0002196FFEFCF1ADF0A8FEFE81AF80A0B30C9
:1013F000110509F6DF91CF911F910F91FF90EF90AA
:10140000DF90CF90BF900C945905DF91CF911F9141
:101410000F91FF90EF90DF90CF90BF9008954F9283
:101420005F926F927F928F929F92AF92BF92CF9274
:10143000DF92EF92FF920F931F93CF93DF938EE78C
:10144000E3E7F8E0DF011D928A95E9F78091B9059D
:10145000882341F08091B305882331F18150809336
:10146000B305D3C084E08093B90584E18093B305CC
:10147000CCEFD5E001ED15E03DE0C32E43E7E42ECF
:1014800048E0F42E5CE9D52EC9920E945328F80159
:1014900081938F01D701ED2D1D92EA95E9F7F6E0D2
:1014A000C030DF0789F7D6CFCCEFD5E001ED15E0EE
:1014B000812C912CBBE05B2E84E0E82EF12C98E18E
:1014C000692E712C21E3C22ED12C482C88818E30BC
:1014D00018F01092B90599C0882309F479C04FE03B
:1014E00059E06FEFD8018C910E9411054BE0589C98
:1014F0009001599C300D11242E593E4F8881B42FF4
:10150000B81BBB30B0F4F901EB0FF11D808190E006
:10151000FC01EE0FFF1F8E0F9F1FFC01ED58F74FD0
:1015200080910F0990911009A091110980839183F6
:10153000A2834F5F4E3011F70E9453285C010E9436
:1015400053289C01C501B7010E94ED27481609F4F4
:101550003FC0C901B7010E94ED274816C9F1888133
:1015600081508883811134C08091B9058150809366
:10157000B905882369F190E09301281B390B220FEC
:10158000331FF901EE0FFF1F2E0F3F1FF901ED581A
:10159000F74F20910F0930911009409111092083D4
:1015A00031834283880F991FF601E81BF90BCF01A5
:1015B000EE0FFF1F8E0F9F1FFC01ED58F74F80911C
:1015C0000F0990911009A091110980839183A28342
:1015D000FFEF8F1A9F0A21960F5F1F4F24E082169C
:1015E000910409F072CFDF91CF911F910F91FF907D
:1015F000EF90DF90CF90BF90AF909F908F907F90B3
:101600006F905F904F900C945905DF91CF911F918F
:101610000F91FF90EF90DF90CF90BF90AF909F9091
:101620008F907F906F905F904F900895CF93C82FC9
:10163000E8E0F1E0438162818091B1059091B205CB
:101640000E946D058091B1059091B20523E0C29F83
:10165000800D911D112460E073E00E94D9279093C2
:10166000B2058093B105CF9108956F927F928F92CA
:10167000AF92BF92CF92DF92EF92FF920F931F93A0
:10168000CF93DF93A82EB82EB69457E5E52E51E000
:10169000F52E02E611E0C0E0D0E0C12C63E0D62ECA
:1016A0008091AF059091B0058C0F9D1FB6010E94EF
:1016B000D9272FE039E040910B0160910A010E9487
:1016C000B904F70181917F0190E0FC01EE0FFF1F4B
:1016D0008E0F9F1FFC01ED58F74F80910F099091DD
:1016E0001009A091110980839183A283D80120E081
:1016F0008C9190E0FC01EE0FFF1F8E0F9F1FFC01ED
:10170000ED58F74F60900F09709010098090110903
:101710006082718282822F5F1B96243049F7E096A7
:101720000F5F1F4FC031F2E0DF0709F0B9CF0E9411
:10173000590580E1B89EA0011124A0FC03C06FEF01
:101740007FEF02C061E070E08091AF059091B0053D
:101750009D5F649F9001659F300D749F300D112433
:10176000820F931F60E073E00E94D9279093B00529
:101770008093AF05DF91CF911F910F91FF90EF9074
:10178000DF90CF90BF90AF908F907F906F90089533
:10179000CF92DF92EF92FF920F931F93CF93DF933D
:1017A0009091AE059F5F282F2695291758F09093AA
:1017B000AE05DF91CF911F910F91FF90EF90DF90D9
:1017C000CF900895C82F1092AE050E945105C0FF1A
:1017D00002C01FEF01C011E056E0D52E00E061E32A
:1017E000E62EF12CC0E0D3E0C09006011003C0014A
:1017F00011248C0D911DC7FC9A95C196B7010E94CA
:10180000ED279C01220F331F820F931F9C012D583F
:10181000374F8091080140910901942F937042E362
:10182000049F800D911D1124BE010E94ED2740915F
:101830000B0160910A010E94B9040F5FDA94D11084
:10184000D3CF1C0D12331CF01092060108C017FDF7
:1018500003C01093060103C081E380930601DF916A
:10186000CF911F910F91FF90EF90DF90CF900C944C
:101870005905CF92DF92EF929091AD059F5F891746
:1018800018F09093AD0573C01092AD050E945105FC
:1018900040E050E090E0809105019A01280F311D51
:1018A00087FD3A952B303105A0F5840F90E0DC01DF
:1018B000AE59BE4F64E02C9130E0F901EE0FFF1FEE
:1018C0002E0F3F1FF901ED58F74FC0900F09D09030
:1018D0001009E0901109C082D182E28261501B960A
:1018E0006111E9CFFC01E95AFE4F808190E0FC01D3
:1018F000EE0FFF1F8E0F9F1FFC01ED58F74F8091D9
:101900000F0990911009A091110980839183A283FE
:1019100091E04F5F5F4F4630510509F0BCCF911108
:101920000E9459059091040180910501890F8093CF
:1019300005018B5F8031D8F09195909304018091DF
:10194000AB059091AC05889660E073E00E94D927C2
:101950009093AC058093AB052FE039E040910B01EB
:1019600060910A01EF90DF90CF900C94B904EF9052
:10197000DF90CF9008959091090192FF39C02E9980
:1019800037C0892F869586958695482F50E0FA01B5
:101990003197E831F105C8F5E15AFF4F0C94012861
:1019A00040910B0160910A018091080193700C94A1
:1019B0006D050C9451070C94C3070C94990890E0A2
:1019C00004970C94340990E006970C9483090C94C6
:1019D0000F0A89500C942A078B500C94160B8D50CB
:1019E0000C94350B83510C94C80B87510C94390C13
:1019F00080919D05811104C080911A01882321F0F6
:101A000083E798E00C94B5042E9A08952E9A0895D1
:101A100080915F07811102C00E940F060E943C0462
:101A200080911601843018F081E080931A010895A6
:101A3000EF92FF920F931F93CF93DF93FC012281CC
:101A4000222309F46BC02091090122FF67C0C081E5
:101A5000287F203141F581812E992E98EC2EF12C92
:101A6000F7019BE0899FE00DF11D1124EE59FE4F17
:101A7000008110E0F801E450FA4FDFE3D0830E94C8
:101A80005328F801EF52FA4F8083F701E95AFE4FCD
:101A900020812A5230E0F901E653FA4FD083F90150
:101AA000ED53FA4F808380910901887F8831B1F529
:101AB0002E9B05C080915F07811101C02E98209157
:101AC000BA05822F90E0019683709927FC01E154BA
:101AD000FA4F30813E3F7CF4FC01E554FA4F80819F
:101AE0008D304CF081E0820F843018F48093BA0579
:101AF00002C01092BA058091BA0590E0FC01E5544D
:101B0000FA4FC083FC01E154FA4FC0830E9453286E
:101B1000E091BA05F0E0EF52FA4F8083DF91CF9168
:101B20001F910F91FF90EF9008952E9914C080910E
:101B3000A9059091AA050E94C625899760F00E9488
:101B4000BA259093AA058093A90580915F0781111A
:101B500002C00C94BB0C08958091A7059091A80534
:101B60000E94C6258739910508F47FC00E94BA25D6
:101B70009093A8058093A7058091A6058F5F809319
:101B8000A60590915F07992361F1843008F46DC038
:101B9000913011F080E001C083E08093A605809130
:101BA00033098430D1F00E94510584E680930709FF
:101BB000109206091092080980930A0910920909E7
:101BC00010920B0980930D0910920C0910920E09C6
:101BD00095B180E4892785B9089510925F070C9428
:101BE000080D80911A01882309F43FC02E98809136
:101BF000A605309162078130A9F41092070910926E
:101C000006091092080910920A0910920909109207
:101C10000B0910920D0910920C0910920E09311146
:101C200020C01CC08330D9F7311103C020E090E8F8
:101C300002C020E890E010920709209306099093D3
:101C4000080910920A092093090990930B09109230
:101C50000D0920930C0990930E09E1CF853018F4FB
:101C600008958B3010F01092A60508952091270654
:101C700080912806821759F030E0F901E75DF94FAD
:101C800080812F5F3F4F2093270690E008958FEFCC
:101C90009FEF08959091C80095FFFCCF8093CE00F0
:101CA00008951F920F920FB60F9211242F933F9316
:101CB0004F938F939F93EF93FF938091280690E02B
:101CC0009C012F5F3F4F40912706421741F0309112
:101CD000CE00FC01E75DF94F308320932806FF9189
:101CE000EF919F918F914F913F912F910F900FBE48
:101CF0000F901F9018950E94931B809116018230BF
:101D000050F48FE19EE40197F1F700C000000E94BB
:101D100081170E948C0EFFCF9EE088E10FB6F894E9
:101D2000A895809360000FBE909360000895809105
:101D300033098430E1F081E08093290729E488E1C8
:101D400090E00FB6F894A895809360000FBE2093A2
:101D500060000E94060D83B7817F846083BF83B7D4
:101D6000816083BF7894889583B78E7F83BF089501
:101D70000C94080D1F920F920FB60F9211248F939F
:101D80009F93AF93BF9380912907813099F48091FD
:101D90001A0890911B08A0911C08B0911D0880960C
:101DA000A11DB11D80931A0890931B08A0931C08D5
:101DB000B0931D08BF91AF919F918F910F900FBE6F
:101DC0000F901F90189580914407089508950F93E0
:101DD0001F93CF930E94BA258C01C0E0C8010E94D6
:101DE000C6254E9708F50E94360E8F3F2FEF9207BB
:101DF000C9F0AC0155274D305105A1F02C2F30E032
:101E00004A30510551F4C23030F0F901E75DF84F26
:101E100080818F3449F08FE590E0F901E55DF84F5E
:101E20008083CF5FC731D0F2EC2FF0E0E55DF84F53
:101E300010828BE297E0CF911F910F910895CF937D
:101E4000CAE10E94360E019611F0C150D1F7CF9130
:101E500008950F931F93CF93DF935D990AC08C0170
:101E60000E941F0FE8018991882319F00E944A0EF1
:101E7000FACFDF91CF911F910F9108959C012F56BA
:101E800031092230310528F02A5731092230310535
:101E900060F420914707211103C02FEF20934707DB
:101EA000909346078093450702C010924707209100
:101EB0004807211116C09F938F938EE891E09F935E
:101EC0008F9382E199E09F938F930E9470280F90E7
:101ED0000F900F900F900F900F9082E199E00C946B
:101EE000290F0895CF93DF93EC018091480781116A
:101EF00032C08C81282F082E000C330B3F938F9318
:101F00008B81282F082E000C330B3F938F938A81EF
:101F1000282F082E000C330B3F938F938981282F95
:101F2000082E000C330B3F938F9386EA91E09F932A
:101F30008F9382E199E09F938F930E94702882E1B2
:101F400099E00E94290F8DB79EB70C960FB6F894B2
:101F50009EBF0FBE8DBF8091480781111FC0888131
:101F6000909143078917D1F0809343071F928F9375
:101F700086EC91E09F938F9380E299E09F938F93FB
:101F80000E9470280F900F900F900F900F900F905D
:101F900082E199E0DF91CF910C94290FDF91CF91ED
:101FA00008950E94290F0C94E70ECF93DF93EC0164
:101FB00086E90E94A525CE01DF91CF910C94D10F27
:101FC00080914907882321F0109249070C946825D5
:101FD0000895CF93DF9320914907211152C020919A
:101FE000480721114EC0EC0181ED91E00E94290FBC
:101FF000209731F485EE91E0DF91CF910C94290F79
:102000008F811F928F938E811F928F938D811F924C
:102010008F938C811F928F938B811F928F938A81D4
:102020001F928F9388811F928F938CEE91E09F93E4
:102030008F9382E199E09F938F930E94702882E1B1
:1020400099E00E94290F80E58A95F1F78DB79EB738
:1020500042960FB6F8949EBF0FBE8DBF8881811146
:1020600010C08A81833531F0893331F0873449F4E7
:1020700082E103C080E101C081E1DF91CF910C9446
:102080004104DF91CF91089580E090E00C94E90F36
:10209000809147078823D9F0823020F081508093C7
:1020A0004707089520912A072F5F20932A078091E0
:1020B00045079091460730E048E051E0481B590B36
:1020C0002417350720F010922A070C943E0F08952C
:1020D00083E192E00C94D50F803319F484E292E00E
:1020E00002C083E392E00C94D50FCF93DF93EC0111
:1020F00082E492E00E94290FCE010E94290F8AEE0D
:1021000091E0DF91CF910C94D50F81E592E00C9492
:1021100075108DE592E00E94D10FFC018081089539
:102120008CE692E00C94D50F559A5D980E94B125EB
:10213000F89487E68093CC001092CD008091C9007E
:1021400080698093C9008091C90088608093C9002C
:102150008091CA008093CA008091C80082608093F9
:10216000C80078948CE792E00E94D50F8CE792E04B
:102170000E94D10FFC018081813421F4818184355A
:1021800071F505C08F3459F581818B3441F50E947A
:1021900068108CE792E00E94D50F80E892E00E94E0
:1021A000D50F0E94851083E392E00E94D50F87E847
:1021B00092E00E94D50F0E94901087E992E00E9461
:1021C000D50F84EB92E00E94D50F80EF92E00E9441
:1021D000D50F10923D0910923C090E947B0EF89495
:1021E0008CE08093CC0078948CE792E00C94D50F2F
:1021F000CF932E9903C0882309F4A0C0C82F83E091
:1022000093E00E94D10FFC01628180ED860F8A303D
:1022100008F05EC0408150E04053510984E6849F3D
:10222000D001859FB00D1124818190E0C0974AE0D4
:10223000489F9001499F300D11242A0F3B1F260F04
:10224000311D43E0220F331F4A95E1F72A543240F3
:102250002C3C40E1340788F48091180190911901D9
:1022600083374EE0940709F4C901280F391F3695CA
:10227000279530931901209318014C990DC081E0E6
:1022800080935E078091180190911901889790932F
:1022900019018093180102C010925E072091180165
:1022A0003091190184E0369527958A95E1F72054FD
:1022B00020936107223A18F010925F0709C0253970
:1022C00010F481E003C02D3918F485E080935F0796
:1022D000C130A1F590916107E1E8F3E08AE5219131
:1022E000921718F48A50D9F78CE220915F072111D8
:1022F000822F20915E07820F211103C0923C08F0CB
:1023000084E6809317011F928F938FE093E09F9351
:102310008F9382E199E09F938F930E94702882E1CE
:1023200099E00E94D10F0F900F900F900F900F9097
:102330000F9082E199E0CF910C94D10FCF91089545
:1023400054985C9A81E00C94F810CF9390913309E3
:1023500081E0943009F080E080931B018091270197
:1023600087FF1CC00E94351A8C50914059F08CE0B8
:1023700091E00E94301A80919C058D7F80939C058E
:102380000E94800480916307811129C080911B0104
:10239000882329F1809127018F7707C0943061F05D
:1023A00090911C01992321F080688093270117C028
:1023B0008CE08093160113C00E94351A8D51914014
:1023C00071F08DE191E00E94301A80919C0582604D
:1023D00080939C050E94800481E080936307809134
:1023E0001C01882309F420C15D9915C10E941F0FAB
:1023F00080911601823031F481E00E94F81083E070
:1024000080931601C0915D07CC2309F446C00E9459
:102410008910813309F041C081E293E00E94D10F1D
:10242000FC0101900020E9F79F012551310928178F
:10243000390799F5C13081F422E020935D07C093FC
:102440001A011092620721E1FC01AAE4B7E00190B1
:102450000D922A95E1F721C041E150E06AE477E06E
:102460000E946328892B59F080915D078F5F85302A
:1024700090F010925D0781E0809362070EC084E3C4
:1024800093E00E94D10F80911A018F3018F01092C2
:102490005D0703C082E080935D0780916907811129
:1024A00099C080916607909167070E94C625893E72
:1024B000934008F48FC00E94BA25909367078093D9
:1024C000660780916207811105C080915D078111C7
:1024D0002FC008C080915C078F5F80935C0783707A
:1024E000A1F33DC00E948910813321F481E08093E3
:1024F00062071CC08033E1F4109262078091680784
:102500008F5F8093680790911B01911111C090918A
:102510001601992369F08A3558F05D9A8091C900B7
:10252000877F8093C90084E080931601109268072A
:1025300080911A01882399F0843629F410921A01A7
:102540000E943C040CC08F5F80931A01843120F4F8
:1025500080916207882319F084E680931A018091A4
:102560005B078F5F80935B07877021F480915E0724
:102570000E94F81080911B0181112CC080911A01DA
:10258000811128C08091640790916507019690930E
:1025900065078093640720911601213039F40F9765
:1025A00028F00E94441082E0809316018091160169
:1025B000833081F48091640790916507883293425B
:1025C00048F084E0809316015D9A8091C900877F6E
:1025D0008093C900809160078823D9F08C3099F0EE
:1025E000823119F481E693E010C0853181F40E94B4
:1025F000901080E30E946C1081E30E946C108CE7C5
:1026000093E00E94D10F86E493E00E94D10F1092D4
:1026100060070E94481080911601823028F40E94C1
:10262000E00FCF910C94AC0DCF910895CF93DF9331
:10263000C82F0E942E25D82F0E94931BC53191F1DF
:1026400098F4CC3061F118F4C530F1F18FC0C2318B
:1026500031F1C33109F08AC09091160181E08927D8
:102660008093160160E069C0C93109F44CC028F4B8
:10267000C63101F1C83141F079C0CC3B09F460C0EA
:10268000C03C09F461C072C080911C01882309F428
:102690006FC0909127019058909327016AC0C09312
:1026A000600766C0D0FF62C0C093600781E080937E
:1026B0001A015FC080911A01811102C081E001C03E
:1026C00084E680931A0154C08D2F837251F0DD7D12
:1026D000D13031F48BE29CEF909301088093000895
:1026E000FFCFDC3039F48AEA9BEB90933D0980936D
:1026F0003C09FFCF82E39FE00E94721F82E39FE1CB
:102700000E94721F35C08091170160E090E00E9426
:102710007E1FD0FF0BC08DE290E00E94721F60E030
:1027200080911801909119010E947E1F8DE290E026
:102730000E94721F60E0809162070E94D11B18C046
:1027400081E080935D0715C080911B01811110C04D
:102750005D9A8091C900877F8093C9008AE0809349
:102760001601109262070E94BD2302C080E001C0E2
:1027700081E0DF91CF910895CF93DF93CDB7DEB79E
:1027800029970FB6F894DEBF0FBECDBF96E0E0E309
:10279000F1E0DE01119601900D929A95E1F72091FA
:1027A000360130913701409138012F8338874987AE
:1027B000282F30E08B3018F0ECEFFFEF02C0E1E0A3
:1027C000F0E0EC0FFD1FE20FF31F808129960FB69A
:1027D000F894DEBF0FBECDBFDF91CF910C941613DE
:1027E000CF9390E080E80FB6F894809361009093C7
:1027F00061000FBE0E9427020E94DC177894CFEF81
:1028000080913309843049F080911C01811103C00B
:1028100088E00E94A525C15099F780911C0188236A
:1028200021F00E9494100E94A0110E94881A0E9418
:102830008C0EC1E080911601843038F4A895823066
:1028400010F40E948E1A0E94A51180911601823008
:1028500040F480911C018111EDCF809133098430C7
:1028600049F30E94970E0E948C0E0E945703882302
:1028700009F310926507109264070E94080DC09337
:10288000160180911C01882341F0C09349075D988F
:102890008091C90088608093C90080916307882374
:1028A00049F280913309853029F60E945D16C2CF26
:1028B00080917B0708958FEF9091E800815095FDFE
:1028C00006C09AE69A95F1F700C08111F5CF809184
:1028D000E80085FB882780F991E089270895CF9348
:1028E000DF9300D01F92CDB7DEB72091330924309B
:1028F000B9F423E029839B838A832093E9000E9413
:102900005B1481110DC040E050E063E070E0CE0147
:1029100001960E9472168091E8008E778093E800FD
:102920000F900F900F90DF91CF910895CF93DF9389
:1029300000D01F92CDB7DEB7209133092430C1F407
:1029400022E029839B838A8383E08093E9000E94AD
:102950005B1481110DC040E050E063E070E0CE01F7
:1029600001960E9472168091E8008E778093E800AD
:102970000F900F900F90DF91CF910895CF93DF9339
:10298000209133092430A1F4EC0182E08093E90026
:102990000E945B1481110CC040E050E065E070E0E3
:1029A000CE010E9472168091E8008E778093E80035
:1029B000DF91CF910895CF93DF93EC01909133098C
:1029C0009430B9F58091270181718131B9F49093E8
:1029D000E9008FEF9091E800815095FD06C095E1E8
:1029E0009A95F1F700008111F5CF8091E80085FFFD
:1029F00020C040E050E060E170E00BC081E08093D7
:102A0000E9000E945B14811114C040E050E068E0CE
:102A100070E0CE010E9472168091E8008E7780935C
:102A2000E80080E1FE01ABE6B7E001900D928A95E7
:102A3000E1F7DF91CF91089580913209811109C0AA
:102A40000E9481170E94DC178091E20084608093CD
:102A5000E2000895109232090895089542E061EC71
:102A600081E00E941B1742E061EC82E00E941B178C
:102A700042E061EC83E00E941B1742E161EC84E0DC
:102A80000C941B1780913509833009F455C030F43C
:102A9000813071F0823009F48EC008958A3009F4D3
:102AA0007AC08B3009F460C0893009F09CC020C026
:102AB00080913409813A09F096C08091E800877FBF
:102AC0008093E8008091380990913909892B21F48D
:102AD00060E18BE697E003C060E080E090E070E0AA
:102AE0000E94BD168091E8008B778093E8000895DE
:102AF00080913409813209F076C080913809909133
:102B00003909009719F0039709F06DC08091E8002A
:102B1000877F8093E8008091E80082FD05C0809166
:102B200033098111F8CF5FC08091F10080937B075A
:102B30008091E8008B7753C080913409813A09F085
:102B400052C08091380990913909892B09F04BC006
:102B50008091E800877F8093E8008091E80080FF03
:102B6000FCCF8091270136C0809134098132D9F59C
:102B70008091380990913909892BA9F58091E80055
:102B8000877F8093E8000E942F17809136098093F9
:102B900027010C94931B80913409813221F5809197
:102BA000E800877F8093E8000E942F178091370903
:102BB00080937C07089580913409813AA1F4809133
:102BC000E800877F8093E8008091E80080FFFCCFD9
:102BD00080917C078093F1008091E8008E7780934C
:102BE000E8000C942F17089580917B0780936A0763
:102BF00010927B0780E00E9485040E94EA1A0C94E0
:102C0000931B0C94F4150E94B80E80916A07809370
:102C10007B0708950C940316292F332723303105A1
:102C2000C1F058F42130310579F022303105E9F551
:102C30008DE690E02FED33E03CC021323105C1F04C
:102C40002232310511F131C082E190E02CE434E010
:102C500030C099278330910540F5FC01EE0FFF1F2E
:102C6000EF55FC4F20813181FC01E256FC4F1AC028
:102C70006430D8F4E62FF0E0EE0FFF1FEA56FC4F69
:102C80002081318189E090E014C0643070F470E0FC
:102C9000FB01EE0FFF1FE257FC4F20813181FB014A
:102CA000E657FC4F808190E004C080E090E020E097
:102CB00030E0FA0131832083089519BC82E089BD98
:102CC00009B400FEFDCF8091D8008F7D8093D8009D
:102CD0008091E00082608093E0008091E00081FDBF
:102CE000FCCF0895CF92DF92EF92FF920F931F9344
:102CF000CF93DF93EC018B017A010E944E17811173
:102D000033C0E114F10439F0F70180819181081B8F
:102D1000190BC80FD91FC12CD12C0115110519F1A0
:102D20008091E80085FD16C08091E8008E77809341
:102D3000E800E114F10449F0F70180819181C80EA7
:102D4000D91ED182C08285E00FC00E944E17882311
:102D500021F30AC089918093F10001501109FFEF1E
:102D6000CF1ADF0ADACF80E0DF91CF911F910F9168
:102D7000FF90EF90DF90CF90089520913A09309125
:102D80003B092617370748F06115710539F4209182
:102D9000E8002E772093E80001C0B901FC0120E093
:102DA0006115710579F1809133098823F1F185303E
:102DB000F1F18091E80083FD3CC08091E80082FD44
:102DC0002EC08091E80080FFEBCF2091F30080912E
:102DD000F20090E0922B6115710551F08830910559
:102DE00038F421912093F100615071090196F3CFDD
:102DF00021E0089709F020E08091E8008E77809329
:102E0000E800CECF2111CFCF0AC0809133098823AB
:102E100061F0853061F08091E80083FD0AC0809107
:102E2000E80082FFF2CF80E0089582E0089583E019
:102E3000089581E008958F708093E900EBEEF0E053
:102E4000808181608083EDEEF0E010826093EC0081
:102E500040838091EE00881F8827881F0895809105
:102E6000340987FF11C08091E80082FD05C0809180
:102E700033098111F8CF11C08091E8008B770BC026
:102E800080913309882349F08091E80080FFF8CFD2
:102E90008091E8008E778093E80008952091E40007
:102EA0003091E50095E64091EC00842F817040FF61
:102EB00023C08091E80080FD1DC0809133098823E4
:102EC00099F0853099F08091EB0085FD11C040911B
:102ED000E4005091E5002417350729F3915011F0D3
:102EE0009A01E1CF84E0089582E0089583E0089597
:102EF00081E0089580E008954091E80042FFDDCF31
:102F000008950E94ED170E94F517E0EEF0E0808131
:102F100081608083E8EDF0E080818F77808319BC49
:102F2000A7EDB0E08C918E7F8C9380818F7E808323
:102F30001092320908950F931F93CF93DF930E944D
:102F4000ED170E94F517C8EDD0E088818F77888350
:102F500088818068888388818F7D888319BC1092DE
:102F60003309109230091092310900EE10E0F80197
:102F700080818B7F808388818160888342E060E0EC
:102F800080E00E941B17E1EEF0E080818E7F80835D
:102F9000E2EEF0E0808181608083808188608083C0
:102FA000F80180818E7F8083888180618883DF91B2
:102FB000CF911F910F910895E8EDF0E080818F7E11
:102FC0008083E7EDF0E080818160808384E082BFD0
:102FD00081E0809332090C949B17E8EDF0E080814A
:102FE0008E7F80831092E20008951092DA00109292
:102FF000E10008951F920F920FB60F9211242F93A4
:103000003F934F935F936F937F938F939F93AF9370
:10301000BF93EF93FF938091E10082FF0BC08091FB
:10302000E20082FF07C08091E1008B7F8093E10086
:103030000E942F1A8091DA0080FF1DC08091D80075
:1030400080FF19C08091DA008E7F8093DA00809132
:10305000D90019BC80FF0BC082E089BD09B400FE15
:10306000FDCF81E0809333090E941C1504C01092AB
:1030700033090E942A158091E10080FF19C08091D8
:10308000E20080FF15C08091E2008E7F8093E20015
:103090008091E20080618093E2008091D80080629C
:1030A0008093D80019BC85E0809333090E940116F3
:1030B0008091E10084FF35C08091E20084FF31C03F
:1030C00080911B01823010F40E947B0E19BC82E0BB
:1030D00089BD09B400FEFDCF8091D8008F7D80931B
:1030E000D8008091E1008F7E8093E1008091E20022
:1030F0008F7E8093E2008091E20081608093E20005
:1031000080913009882311F084E007C08091E300AA
:1031100087FD02C081E001C083E0809333090E94F3
:103120000A168091E10083FF29C08091E20083FFAD
:1031300025C08091E100877F8093E10082E0809349
:103140003309109230098091E1008E7F8093E10075
:103150008091E2008E7F8093E2008091E2008061A6
:103160008093E20042E060E080E00E941B178091C3
:10317000F00088608093F0000E942D15FF91EF9180
:10318000BF91AF919F918F917F916F915F914F917F
:103190003F912F910F900FBE0F901F9018951F9287
:1031A0000F920FB60F9211242F933F934F935F937B
:1031B0006F937F938F939F93AF93BF93CF93DF933F
:1031C000EF93FF93C091E900CF708091EC00D82F6E
:1031D000D17080FDD0E81092E9008091F000877FE7
:1031E0008093F00078940E9413191092E900809166
:1031F000F00088608093F000CD2BCF70C093E90081
:10320000FF91EF91DF91CF91BF91AF919F918F91FE
:103210007F916F915F914F913F912F910F900FBED2
:103220000F901F9018951F93CF93DF9300D0CDB7C9
:10323000DEB7E4E3F9E08CE399E02091F10021931B
:103240008E179F07D1F70E9442158091E80083FFF7
:10325000F2C08091340990913509492F50E04A30ED
:10326000510508F0E8C0FA01E958FF4F0C94012815
:10327000803881F0823809F0DEC0809138098F7083
:103280008093E9008091EB0085FB882780F91092FC
:10329000E90007C080913109882311F082E001C064
:1032A00080E09091E800977F9093E8008093F10090
:1032B0001092F10095C0282F2D7F09F0BCC0882303
:1032C00019F0823061F0B7C080913609813009F081
:1032D000B2C0933009F080E0809331092BC0809117
:1032E0003609811127C0809138098F7009F4A3C075
:1032F0008093E9002091EB0020FF1CC0933021F463
:103300008091EB00806214C09091EB0090619093EB
:10331000EB0021E030E0A90102C0440F551F8A955F
:10332000E2F74093EA001092EA008091EB00886097
:103330008093EB001092E9008091E800877F53C0F2
:10334000811179C0109136091F778091E300807850
:10335000812B8093E3008091E800877F8093E800D1
:103360000E942F178091E80080FFFCCF8091E3003E
:1033700080688093E300111102C082E001C083E005
:103380008093330958C08058823008F054C0AE0191
:103390004F5F5F4F609138098091360990913709EE
:1033A0000E940C16BC01892B09F445C09091E800DD
:1033B000977F9093E80089819A810E94BD16809141
:1033C000E8008B778093E80036C08038A1F58091C3
:1033D000E800877F8093E800809130098093F100B6
:1033E0008091E8008E778093E8000E942F1723C019
:1033F000811121C080913609909137099927029750
:10340000D4F48091E800877F8093E80080913609AA
:10341000809330090E942F1780913009811106C0D6
:103420008091E30087FD02C081E001C084E08093C9
:1034300033090E942E158091E80083FF0AC0809115
:10344000E800877F8093E8008091EB0080628093A2
:10345000EB000F900F90DF91CF911F910895089589
:1034600090938207809381070895809181079091BE
:1034700082070895E0918107F0918207309721F04B
:103480000190F081E02D099480E00895E09181079A
:10349000F0918207309721F00280F381E02D0994AA
:1034A0000895E0918107F0918207309721F0048020
:1034B000F581E02D0994089520917F0730918007D0
:1034C0002817390771F09093800780937F07E09168
:1034D0008107F0918207309721F00680F781E02D77
:1034E0000994089520917D0730917E0728173907A8
:1034F00071F090937E0780937D07E0918107F091B2
:103500008207309721F00084F185E02D0994089519
:103510000E94B1250E9450020C9494030E946F02F5
:1035200080E090E00E94EB1A0E94950D0E94D32645
:1035300080919B07882389F08091990790919A0741
:103540000E94C6258C34910540F01092980784E8BB
:1035500097E00E94FA0610929B070E943A1A9091F7
:1035600083078917A1F10E943A1A8093830784FF89
:103570002CC0E0919B07F0E0EC57F84F9081990F39
:10358000990F8370892B80830E94BA2590939A07A4
:1035900080939907809198078F5F80939807843074
:1035A000B0F080918407883141F480919B0782308C
:1035B00020F487E490E00E94721F10929807809197
:1035C0009B078F5F80939B0708950C94A225089515
:1035D0000C9485040895CF93DF9300D000D000D0E1
:1035E000CDB7DEB7FC01892B39F40E94BA25816082
:1035F00060E05FEF4FEF05C04081518162818381C0
:103600009481FE01319626E0DF011D922A95E9F7AB
:10361000782F9D838C838D819E810E943C222696EB
:103620000FB6F894DEBF0FBECDBFDF91CF910895E6
:10363000CF93882349F1803B29F48EE891E0CF9124
:103640000C94EA22C82F8CEF8C0F813A20F080E591
:103650008C0F8E3250F48C2F0E949B27811114C046
:1036600061E08C2F0E94E3240CC080E28C0F883034
:1036700058F4C77081E001C0880FCA95EAF70E942C
:103680003125CF910C946825CF910895882351F16D
:103690009CEF980F913A20F090E5980F9E3220F41D
:1036A00060E00E94E3240DC090E2980F983058F437
:1036B000877091E001C0990F8A95EAF7892F0E94DF
:1036C00037250C9468259BE5980F933020F480E013
:1036D00090E00C945C1A885A873120F480E090E0E6
:1036E0000C94721A0895882321F00E9431250C94BD
:1036F00068250895882321F00E9437250C946825B9
:1037000008950E944E250E9424250E9468250E944B
:103710008F270E94C82680E090E00E945C1A80E01B
:1037200090E00C94721A0E943E250C94811BCF935A
:10373000DF9300D000D01F92CDB7DEB70E94752472
:10374000292F22952F702C3030F42A30A0F42250EB
:10375000223030F01DC02C30A9F02F3099F018C065
:10376000853A28F4843090F4823028F40FC090E237
:10377000980F983058F0843058F0853A38F0803FF0
:1037800039F404C093FB882780F903C081E001C0AD
:1037900080E00F900F900F900F900F90DF91CF91DE
:1037A0000895811101C08AE0662311F0885A01C092
:1037B000835E90E00C94721FCF92DF92EF92FF92A3
:1037C0000F931F93CF93DF9300D000D01F92CDB7FC
:1037D000DEB76C0185E0F601DE01119601900D92D5
:1037E0008A95E1F7F6012381348189819A81211537
:1037F000310531F09F3F31F491E08F3F19F403C060
:1038000091E001C090E090FD44C3F601F280E580B4
:10381000E2948FE0E8222230310559F0722F3D8387
:103820002C8349815A816F2D8D810E9475248C01D2
:1038300002C009811A810E9474240E946E23E12F24
:10384000E295EF708E2F90E0FC01EF57FF4F0C9444
:103850000128812F807F1F70882311F01295107F1F
:10386000FF2021F10E942E25812390911708892B9A
:1038700080931708112351F0002319F081E0809301
:103880001508812F0E9441250E946825802F0F90E6
:103890000F900F900F900F90DF91CF911F910F918C
:1038A000FF90EF90DF90CF900C94181B9091170829
:1038B000812F809589238093170810921508802FF7
:1038C0000E94461B112309F4E4C2812F0E94472560
:1038D0000F900F900F900F900F90DF91CF911F914D
:1038E0000F91FF90EF90DF90CF900C946825812F7F
:1038F000807F1F70803211F01295107F002319F025
:10390000013009F12BC0FF20A9F0EE2061F1F1E0B8
:10391000812FEF1229C00F900F900F900F900F90F2
:10392000DF91CF911F910F91FF90EF90DF90CF909B
:103930000C945125EE2021F021E0E21609F4A9C2F1
:103940000E94542554C0FF20F1F082E08E1508F447
:10395000A0C20E942E25812331F049C0FF2009F426
:1039600044C0E11015C0812F0F900F900F900F9061
:103970000F90DF91CF911F910F91FF90EF90DF900B
:10398000CF900C94731BE1E0EE1508F482C22FC0B7
:10399000F601858180FF13C08F708583E4CF003FDF
:1039A00009F4A5C108F080C1003E08F085C1FF20E0
:1039B00009F413C2EE2009F402C213FDFCC1802FEA
:1039C0000E94181B093309F064C282E30F900F9024
:1039D0000F900F900F90DF91CF911F910F91FF905B
:1039E000EF90DF90CF900C94A525E110FEC1812FC0
:1039F0006FC1812F86958695837019F08130B9F05B
:103A000048C2FF2019F0C801937002C080E090E026
:103A10000F900F900F900F900F90DF91CF911F910B
:103A20000F91FF90EF90DF90CF900C94721AFF20CF
:103A3000C1F0C80193708115F3E09F07A4F083E9FA
:103A400091E00E94EA2260E0802F82958F700E94B0
:103A5000D11B60E0802F8F700E94D11B81E991E023
:103A6000F6C180E090E00F900F900F900F900F90B4
:103A7000DF91CF911F910F91FF90EF90DF90CF904A
:103A80000C945C1A802FFF2081F00E9413260E9464
:103A9000C826063408F0FDC1E02FF0E0EC5DF74FDA
:103AA00081E0808380932308F4C10E9461260E94F4
:103AB000C826063408F0EDC1202F30E0F901EC5D96
:103AC000F74F1082002311F0C901ABC184EF90E5DC
:103AD000A8C1812F837009F070C0F110DAC1202FC6
:103AE000229526952770220F220F602F6F70862F48
:103AF00090E0A0E0B0E06C017D01022E04C0CC0C8F
:103B0000DD1CEE1CFF1C0A94D2F704FF12C08FE0EC
:103B100090E0A0E0B0E004C0880F991FAA1FBB1F6F
:103B20002A95D2F7BC01CD0160957095809590954E
:103B300003C060E070E0CB0116951695137012304B
:103B4000B1F040F56C297D298E299F29113031F182
:103B50000F900F900F900F900F90DF91CF911F91CA
:103B60000F91FF90EF90DF90CF900C9489236C29F8
:103B70007D298E299F290F900F900F900F900F9005
:103B8000DF91CF911F910F91FF90EF90DF90CF9039
:103B90000C94A3230E948923C701B6010F900F90B4
:103BA0000F900F900F90DF91CF911F910F91FF9089
:103BB000EF90DF90CF900C946F23FF2019F0812FAE
:103BC000817001C08695882309F463C1202F229556
:103BD00026952770220F220F602F6F70862F90E09E
:103BE000A0E0B0E06C017D01022E04C0CC0CDD1C15
:103BF000EE1CFF1C0A94D2F704FF12C08FE090E085
:103C0000A0E0B0E004C0880F991FAA1FBB1F2A952F
:103C1000D2F7BC01CD01609570958095909503C059
:103C200060E070E0CB011695169513701230B1F07C
:103C300040F56C297D298E299F29113031F10F9093
:103C40000F900F900F900F90DF91CF911F910F91D8
:103C5000FF90EF90DF90CF900C9450246C297D2939
:103C60008E299F290F900F900F900F900F90DF914A
:103C7000CF911F910F91FF90EF90DF90CF900C9418
:103C800062240E945024C701B6010F900F900F903C
:103C90000F900F90DF91CF911F910F91FF90EF90B8
:103CA000DF90CF900C943E24023F09F44FC0D8F12E
:103CB000033F09F45EC07BCE0F70812F8F71FF2010
:103CC00021F00E94D723802F4FCE0E94F823802F0F
:103CD0000F900F900F900F900F90DF91CF911F9149
:103CE0000F91FF90EF90DF90CF900C947A1BFF2004
:103CF000A9F021E02E1508F4CCC0812F8F710F9010
:103D00000F900F900F900F90DF91CF911F910F9117
:103D1000FF90EF90DF90CF900C941D2482E08E15E1
:103D200008F4B7C0EACFFF2099F0812F8F710F9070
:103D30000F900F900F900F90DF91CF911F910F91E7
:103D4000FF90EF90DF90CF900C94D723FF2069F382
:103D5000812F8F710F900F900F900F900F90DF9128
:103D6000CF911F910F91FF90EF90DF90CF900C9427
:103D7000F823FF2089F0812F8F710F900F900F9003
:103D80000F900F90DF91CF911F910F91FF90EF90C7
:103D9000DF90CF900C94C2230F900F900F900F9054
:103DA0000F90DF91CF911F910F91FF90EF90DF90D7
:103DB000CF900C94BD23F601858180FF00CE012FAA
:103DC0000770802F0E94D72314FF63C069817A8116
:103DD000802F0E94FB2561E025C0EE20B1F013FF8B
:103DE00004C0F601858180FD10C0802F0F900F90D8
:103DF0000F900F900F90DF91CF911F910F91FF9037
:103E0000EF90DF90CF900C94461B012F0770802F0E
:103E10000E94F82314FF3DC069817A81802F0E949F
:103E2000FB2560E00F900F900F900F900F90DF91A7
:103E3000CF911F910F91FF90EF90DF90CF900C9456
:103E4000571F412F4F70602FC6010E94F8010F903D
:103E50000F900F900F900F90DF91CF911F910F91C6
:103E6000FF90EF90DF90CF900C94EA22412F4F709B
:103E7000602FC6010F900F900F900F900F90DF9161
:103E8000CF911F910F91FF90EF90DF90CF900C9406
:103E9000F7000F900F900F900F900F90DF91CF9140
:103EA0001F910F91FF90EF90DF90CF900895CF93E7
:103EB000DF9300D000D000D0CDB7DEB789839A83DE
:103EC0006B8382E090E09D838C83CE0101960E94FB
:103ED000DC1B26960FB6F894DEBF0FBECDBFDF9178
:103EE000CF910895CF93DF93EC0161E00E94571FBB
:103EF00060E0CE01DF91CF910C94571FBF92CF921B
:103F0000DF92EF92FF920F931F93CF93DF936C0199
:103F1000B62EC5E0D0E000E117E28AE0E82EF12CF1
:103F2000C601B8010E94D927CB01009731F0B70133
:103F30000E94D9276B2D0E94D11BC801B7010E9496
:103F4000D9278B01219761F7DF91CF911F910F91B5
:103F5000FF90EF90DF90CF90BF900895CF93DF93C5
:103F600000D000D01F92CDB7DEB70F900F900F900A
:103F70000F900F90DF91CF910895CF93DF9300D0F2
:103F800000D000D0CDB7DEB726960FB6F894DEBFCE
:103F90000FBECDBFDF91CF9108951F93CF93DF93D5
:103FA000C0919C0716E080919D07C81799F0D0E05A
:103FB0001C9FF0011D9FF00D1124E256F84F408127
:103FC000518162817381848195810E94BD1F2196F8
:103FD000C770E9CFDF91CF911F9108954091CE072F
:103FE0005091CF076091D0077091D1078091D2078F
:103FF0009091D3070C94BD1F0F931F93CF93DF9322
:104000008091D30782958F7009F05DC08091D007B1
:10401000882309F458C080919C0710919D076091F6
:10402000CE077091CF07C091D107D091D20791E010
:104030006F3F09F090E0292F06E0811709F443C093
:10404000209721F07F3F21F030E003C031E001C034
:10405000322F90E030FD34C0089FF001099FF00D31
:104060001124DF01A256B84F11963C9111973713D6
:1040700027C03C91361324C012963C9112973111FF
:104080001FC013964D915C9114974C1B5D0B483CDF
:104090005105B0F48091D3078F7080618093D3076E
:1040A000ED55F84F80818F70806180838EEC97E0B2
:1040B0000E94DC1BDF91CF911F910F910C94CD1FBB
:1040C00001968770BACFDF91CF911F910F9108951C
:1040D0009F92AF92BF92CF92DF92EF92FF920F9397
:1040E0001F93CF93DF93CDB7DEB761970FB6F894E8
:1040F000DEBF0FBECDBF8C0185E0F801DE011D964D
:1041000001900D928A95E1F7F80140815181F2808A
:10411000C380D4809091CE076091CF072091D107C2
:104120003091D2072115310531F06F3F31F481E034
:104130009F3F19F403C081E001C080E0F82FF170C7
:104140009F2E80FD52C18EECA82E87E0B82EE09005
:10415000D007F601E21BF30BEE2009F4E8C08091D2
:10416000D307E83CF10508F0A4C0282F207F09F010
:1041700053C0561313C0491311C0EF2CF1100EC0D9
:104180008F7080618093D3070E94EE1FC5010E944B
:10419000DC1B8091D307F80185835BC1C114D10476
:1041A00031F05F3F31F481E04F3F19F403C081E00B
:1041B00001C080E080FD03C081E08F2502C080E067
:1041C00090E0F82FF170EF2E80FF1CC080919C07CB
:1041D00020919D0736E0821709F418C190E0389FBE
:1041E000F001399FF00D1124E256F84F618156130A
:1041F00006C06081461303C06281F61203C00196B7
:104200008770E9CFEF2CFF2009F423C18091D307F9
:1042100081608093D30762C0561306C0491304C05F
:10422000F11002C0F801A7C04D875E87FF867C2D84
:10423000D98AC88A6F2D89890E94971B882399F192
:10424000FF2089F12091D307822F82958F7090E013
:10425000029774F08091CE079091CF0798878F8353
:104260001986DB86CA862C87CE0107960E94DC1B46
:1042700086E0F801AEECB7E001900D928A95E1F787
:104280000E94FC1F0E94EE1F11C0561749F14D8776
:104290005E87FF867C2DD98AC88A6F2D89890E9406
:1042A000971B81112CC0C8010E94DC1BEE24E394F3
:1042B000D0C0282F207F49F77C2DD98AC88A6F2D3E
:1042C00089890E94AE1F8EEC97E00E94DC1B86E07D
:1042D000F50111928A95E9F70E94EE1FE12CB9C011
:1042E0004913D5CFF110D3CFF8018583C8010E94BF
:1042F000DC1B86E0F50111928A95E9F7AAC0FF2040
:1043000091F22091D307822F82958F7090E00297CF
:104310000CF4AECF8091CE079091CF079A8389831A
:104320001B82DD82CC822E83CE0101969FCFE83C9A
:10433000F10508F04BC0EF2CFF2009F4B4CF561361
:1043400030C049132EC02091D30720FD21C0822FF9
:1043500082958F70482F50E041155105C9F0F80142
:1043600025834F30510541F08F5F982F9295907FB4
:10437000822F8F70892B8583C8010E94DC1B86E009
:10438000F801AEECB7E001900D928A95E1F72AC0F2
:1043900086E0F801AEECB7E001900D928A95E1F766
:1043A00058C04D875E87FF867C2DD98AC88A6F2DBD
:1043B00089890E94971B81115BCF8091D30781600F
:1043C0008093D307C8010E94DC1B43C07C2DD98A8F
:1043D000C88A6F2D89890E94AE1F86E0F50111926F
:1043E0008A95E9F70E94EE1F34C0FF2009F45BCFE5
:1043F0004D875E87FF867C2DD98AC88A6F2D898973
:104400000E94971B882309F44ECF32CF7C2DD98A86
:10441000C88A6F2D89890E947524292F22952F70B3
:10442000223028F49F7039F0811105C00BC0243070
:1044300028F49F7049F4805E883020F0C8010E9403
:10444000DC1B9E2CE92C05C0F8019581907F99F723
:10445000F9CF8E2D61960FB6F894DEBF0FBECDBF9B
:10446000DF91CF911F910F91FF90EF90DF90CF9050
:10447000BF90AF909F9008951F93CF93DF93CDB7D8
:10448000DEB72C970FB6F894DEBF0FBECDBF4F83BB
:10449000588769877A878B879C87CE0107960E9409
:1044A00068208823D1F09F8188852A853B85232B2E
:1044B00031F08F3F31F481E09F3F19F403C081E078
:1044C00001C080E080FD47C04F81588569857A85AD
:1044D0008B859C850E94BD1F3EC086E0FE013796FD
:1044E000DE01119601900D928A95E1F7FF81E88532
:1044F0006A857B856115710531F0EF3F31F481E00C
:10450000FF3F19F403C081E001C080E080FD23C0BB
:1045100020919D0730E0C90101968770992740914D
:104520009C0750E084179507F1F1F983EA837D83B6
:104530006C8396E0929FD001939FB00D1124A256F8
:10454000B84FFE01319601900D929A95E1F7809354
:104550009D070E94CD1F16E080919C0790919D07BA
:10456000891771F1189FC00111248256984F0E943B
:104570006820882329F1E0919C071E9FF0011124F7
:10458000E256F84F40815181628173818481958127
:104590000E94BD1F80919C0790E00196877099272B
:1045A00080939C07D9CF0E94931B10929D07109275
:1045B0009C07EEECF7E086E0DF011D928A95E9F7B3
:1045C0002C960FB6F894DEBF0FBECDBFDF91CF9112
:1045D0001F910895CF92DF92EF92FF921F93CF9396
:1045E000DF937C010E94E00FE114F10409F464C040
:1045F000E7012196F7011491193709F43EC0B8F488
:10460000143740F4143008F052C08FEF810F82301D
:10461000F8F052C0143709F04FC0F2E0EF0EF11C71
:10462000FE0184910E94A525E7017E01E1CF1338A8
:1046300028F4113868F4103801F13EC01338B9F08D
:10464000143F08F039C01F77812F90E0926031C08D
:10465000FE0185919491612F6170E701133018F488
:104660002296992701C023960E94571FDECFFE0194
:1046700085919491E70123961CC0FE01C590D490CA
:10468000E701239684E00E94731B103841F461E037
:1046900081E00E94D11BF0EACF1AF6E8DF0A61E060
:1046A000C6010E947E1F84E00E947A1BBECF812F2C
:1046B00090E00E94721FB9CFDF91CF911F91FF90C0
:1046C000EF90DF90CF9008956093000870930108F9
:1046D00080930208909303080C946E0408950F933E
:1046E0001F93009128011091290120912A013091F6
:1046F0002B01602B712B822B932B609328017093DD
:10470000290180932A0190932B011F910F910C9402
:104710007C040F931F93009128011091290120918F
:104720002A0130912B01602371238223932360930C
:1047300028017093290180932A0190932B011F91E6
:104740000F910C947C040F931F93009128011091FA
:10475000290120912A0130912B016027712782279E
:104760009327609328017093290180932A019093E5
:104770002B011F910F910C947C0460E070E0CB0141
:104780000C9464230F931F9341E050E060E070E0CD
:104790008A019B0104C0000F111F221F331F8A953D
:1047A000D2F7C901B8011F910F910C9464230F93A4
:1047B0001F9341E050E060E070E004C0440F551FDB
:1047C000661F771F8A95D2F78091000890910108A3
:1047D000A0910208B09103088A019B01082B192BB4
:1047E0002A2B3B2BC901B8011F910F910C94642314
:1047F0000F931F9341E050E060E070E004C0440F6D
:10480000551F661F771F8A95D2F740955095609582
:1048100070958091000890910108A0910208B091D4
:1048200003088A019B01082319232A233B23C9017A
:10483000B8011F910F910C9464230F931F9341E0D3
:1048400050E060E070E004C0440F551F661F771F02
:104850008A95D2F78091000890910108A0910208F2
:10486000B09103088A019B01082719272A273B27B3
:10487000C901B8011F910F910C9464230F931F93EA
:10488000009100081091010820910208309103085E
:10489000602B712B822B932B1F910F910C9464230F
:1048A0000F931F93009100081091010820910208B6
:1048B0003091030860237123822393231F910F916A
:1048C0000C9464230F931F9300910008109101082A
:1048D00020910208309103086027712782279327CF
:1048E0001F910F910C94642308958F929F92AF9221
:1048F000BF92DF92EF92FF920F931F93CF93DF93BC
:1049000000D000D01F92CDB7DEB78A016623D1F167
:104910008090000890900108A0900208B0900308D1
:104920008091280190912901A0912A01B0912B0139
:10493000882A992AAA2ABB2A8FE1E82EF12CD501D0
:10494000C4010E2C04C0B695A795979587950A9437
:10495000D2F780FD06C081E0E81AF10880F7D12C7B
:1049600007C0DE2CB8018E2D0E94FB25019799F31C
:104970008BE0189FF0011124EC52F84FE00FF11D6D
:10498000D08209C08BE0189FF0011124EC52F84F3F
:10499000E40FF11DD08009831A8369817A818D2DFE
:1049A0000E94FB250F900F900F900F900F90DF91BA
:1049B000CF911F910F91FF90EF90DF90BF90AF903C
:1049C0009F908F9008959091270191799131F1F402
:1049D000382F3695369536953F30A8F5E0912C0165
:1049E000F0912D01282F277081E090E001C0880F01
:1049F0002A95EAF7E30FF11D662319F09181892BBF
:104A000003C08095918189238183089520912C0191
:104A100030912D01F90171964FEF9EE0529155238F
:104A200031F0851305C061110EC0108201C0492FFD
:104A30009150A0F7662339F0F901E40FF11D47FD0D
:104A4000FA95828308950895E0912C01F0912D014B
:104A500080E1DF011D928A95E9F708958091190898
:104A6000089590911908892B8093190808958095CD
:104A700090911908892380931908089510921908B4
:104A8000089590911808892B8093180808958095AF
:104A90009091180889238093180808951092180897
:104AA0000895809304080895109204080895809151
:104AB0002C0190912D01FC0131969C01205F3F4F0C
:104AC00080E0919191118F5FE217F307D1F708957C
:104AD000E0912C01F0912D01809119088083E091E3
:104AE0002C01F0912D01908180911808892B8083F1
:104AF000E0912C01F0912D01809117088095908113
:104B000089238083E0912C01F0912D01809116087A
:104B1000809590818923808380910408882361F0A7
:104B2000E0912C01F0912D019081892B80830E94CE
:104B3000572581111092040880912C0190912D012C
:104B40000C94461A0C94E81A0895882341F0EFE972
:104B5000FFE03197F1F700C000008150F6CFA89533
:104B6000089582E084BD93E095BD9DE797BD809355
:104B70006E0008952FB7F89480911A0890911B0841
:104B8000A0911C08B0911D082FBF08959C014FB73C
:104B9000F89480911A0890911B08A0911C08B0917C
:104BA0001D084FBF821B930B089578941F920F929C
:104BB0000FB60F9211248F939F93AF93BF93809161
:104BC0001A0890911B08A0911C08B0911D0801962D
:104BD000A11DB11D80931A0890931B08A0931C0877
:104BE000B0931D08BF91AF919F918F910F900FBE11
:104BF0000F901F901895CF93C82FCB010E94EC0007
:104C0000803819F480E090E00CC0EC2FF0E0FE2F2B
:104C1000EE27E050F04AE80FF11DE80FF11D8591F5
:104C20009491CF910895803F08F44AC0803F11F4D9
:104C30009FEF03C0813F21F491E090936F083BC048
:104C4000823F11F49FEF03C0833F21F491E09093E2
:104C50006E0831C0893F70F421E030E09CE0980F8D
:104C600001C0220F9A95EAF790916D08292B2093A5
:104C70006D0821C0893F11F491E003C08A3F21F4FF
:104C80009FEF9093700817C08B3F11F49FEF03C004
:104C90008C3F21F491E0909371080DC021E030E049
:104CA00093E0980F01C0220F9A95EAF790916A0855
:104CB000292B20936A08895F843010F410926B08C6
:104CC0000895803F08F463C0803F39F480916F08F5
:104CD00087FF5DC010926F080895813F29F480918D
:104CE0006F081816BCF30895823F39F480916E085E
:104CF00087FF4DC010926E080895833F29F480917C
:104D00006E081816BCF30895893F88F4845F21E08B
:104D100030E0A90102C0440F551F8A95E2F7CA018D
:104D2000809590916D08892380936D080895893F3F
:104D300039F480917008181654F51092700808958F
:104D40008A3F29F48091700887FF21C0F6CF8B3FFE
:104D500039F48091710887FF1AC010927108089584
:104D60008C3F29F4809171081816BCF308958D5F6B
:104D700021E030E0A90102C0440F551F8A95E2F7F7
:104D8000CA01809590916A08892380936A080895E2
:104D90008DE698E00E94511A0E94BA25909320084F
:104DA00080931F0808950F931F93CF93DF938091F3
:104DB00023088823D9F180912108909122080E942C
:104DC000C62520912F0130E02817390778F50E9479
:104DD00053288F70825E80932F0104E218E0C0E0B8
:104DE000D0E090E0F80181918F01882369F0CC2315
:104DF00019F08C2F9D2F02C084EF90E560912E0159
:104E000070E00E94571F91E02196C634D10551F7FA
:104E100020912E0181E0822780932E019093230818
:104E20000E94BA25909322088093210880911F0840
:104E3000909120080E94C625AC0190916C08923098
:104E400019F028E230E002C025E030E042175307B5
:104E500008F460C0D0917008C091710820916E086C
:104E600080916F08822B8D2B8C2B19F410926C087B
:104E700051C0923020F49F5F90936C084BC080919A
:104E80006B088F5F80936B088F7021F01092700811
:104E9000109271080E94C826D0937008C0937108C0
:104EA00080911E088F5F80931E088D3098F180914D
:104EB000270187FD02C080E001C085E080931E08C5
:104EC00090916A08292F220F220F290FEDE6F8E0B2
:104ED0003CEE44E181818823C1F0992349F0181602
:104EE00014F08FEF01C081E0829F802D11240AC051
:104EF00018162CF48F5F85312CF0418306C0815049
:104F00008C3E14F0818301C03183319688E0E13713
:104F1000F80701F7DF91CF911F910F910895EDE60A
:104F2000F8E085E0DF011D928A95E9F710926A08A2
:104F3000089580E00895CF9390911508911135C0A0
:104F4000C82F80917208882319F0813051F02AC04F
:104F5000E0912C01F0912D0180818252823030F558
:104F600008C0E0912C01F0912D01808182528230A5
:104F7000A0F48C2F0E94161381110AC0C13151F484
:104F80000E94A4259091270180E189278093270121
:104F900091E001C090E0917009C08C2F0E94992788
:104FA00091E004C01092720801C090E0892FCF9167
:104FB0000895AA1BBB1B51E107C0AA1FBB1FA61760
:104FC000B70710F0A61BB70B881F991F5A95A9F7B2
:104FD00080959095BC01CD01089597FB072E16F49E
:104FE000009407D077FD09D00E94D92707FC05D08F
:104FF0003EF4909581959F4F0895709561957F4FF0
:105000000895EE0FFF1F0590F491E02D09948F9203
:105010009F92AF92BF92CF92DF92EF92FF92CF9387
:10502000DF93EC01688179818A819B81611571052B
:105030008105910521F464E279ED8BE597E02DE19E
:1050400033EF41E050E00E94572B49015A019B0188
:10505000AC01A7EAB1E40E94762B6B017C01ACEEB7
:10506000B4EFA50194010E94842BDC01CB018C0DCF
:105070009D1DAE1DBF1DB7FF03C00197A109B0481C
:1050800088839983AA83BB839F77DF91CF91FF9019
:10509000EF90DF90CF90BF90AF909F908F9008954A
:1050A0000E940728089580E091E00E940728089553
:1050B000A0E0B0E08093000190930101A093020171
:1050C000B09303010895FB01DC0104C08D910190B0
:1050D000801921F441505040C8F7881B990B08955E
:1050E000AEE0B0E0E6E7F8E20C94972B0D891E895C
:1050F00086E08C831A8309838FEF9FE79E838D83DD
:10510000AE01475E5F4F6F89788DCE0101960E9498
:105110009228EF81F885E00FF11F10822E96E4E0CF
:105120000C94B32BABE0B0E0E8E9F8E20C94892BE7
:105130006C017B018A01FC0117821682838181FF49
:10514000CCC1CE0101963C01F6019381F70193FD9C
:10515000859193FF81917F01882309F4BAC185323B
:1051600039F493FD859193FF81917F01853229F474
:10517000B60190E00E94892AE7CF912C212C312C96
:10518000FFE1F315D8F08B3279F038F4803279F002
:105190008332A1F4232D20611DC08D3261F0803354
:1051A00069F4232D216016C0832D8260382EE32DF3
:1051B000E4603E2E2AC0F32DF8601DC037FC2DC0E0
:1051C00020ED280F2A3040F08E32B9F436FC81C130
:1051D000232D2064322E19C036FE06C08AE0989E28
:1051E000200D1124922E11C0EAE02E9E200D1124D4
:1051F000222EF32DF0623F2E08C08C3621F4832D31
:105200008068382E02C0883641F4F70193FD8591FD
:1052100093FF81917F018111B3CF982F9F7D95548A
:10522000933028F40C5F1F4F9FE399830DC08336A2
:1052300031F0833771F0833509F059C021C0F8018E
:10524000808189830E5F1F4F88248394912C5301A2
:1052500013C02801F2E04F0E511CF801A080B1806C
:1052600036FE03C0692D70E002C06FEF7FEFC5010D
:105270000E947E2A4C018201F32DFF773F2E16C03B
:10528000280122E0420E511CF801A080B18036FEB8
:1052900003C0692D70E002C06FEF7FEFC5010E946F
:1052A000732A4C01F32DF0683F2E820133FC1BC0A2
:1052B000822D90E088169906B0F4B60180E290E065
:1052C0000E94892A2A94F4CFF50137FC859137FE94
:1052D00081915F01B60190E00E94892A21102A94F1
:1052E00021E0821A91088114910471F7E8C0843694
:1052F00011F0893641F5F80137FE07C060817181F0
:10530000828193810C5F1F4F08C060817181072EDD
:10531000000C880B990B0E5F1F4FF32DFF763F2E6D
:1053200097FF09C090958095709561957F4F8F4F3D
:105330009F4FF0683F2E2AE030E0A3010E94C52A6B
:10534000882E861845C0853731F4232D2F7EB22E46
:105350002AE030E025C0932D997FB92E8F36C1F019
:1053600018F4883579F0B5C0803719F0883721F006
:10537000B0C0E92FE061BE2EB4FE0DC0FB2DF4607D
:10538000BF2E09C034FE0AC0292F2660B22E06C0E7
:1053900028E030E005C020E130E002C020E132E04A
:1053A000F801B7FE07C060817181828193810C5F33
:1053B0001F4F06C06081718180E090E00E5F1F4F3B
:1053C000A3010E94C52A882E8618FB2DFF773F2E49
:1053D00036FE0DC0232D2E7FA22E891458F434FEE4
:1053E0000BC032FC09C0832D8E7EA82E05C0B82CC0
:1053F000A32C03C0B82C01C0B92CA4FE0FC0FE0121
:10540000E80DF11D8081803321F49A2D997EA92E1B
:1054100009C0A2FE06C0B394B39404C08A2D867856
:1054200009F0B394A3FC11C0A0FE06C0B21488F426
:10543000280C922C9B180EC0B21460F4B60180E2C6
:1054400090E00E94892AB394F7CFB21418F42B1875
:1054500002C0982C212CA4FE10C0B60180E390E07D
:105460000E94892AA2FE17C0A1FC03C088E790E031
:1054700002C088E590E0B6010CC08A2D867859F00C
:10548000A1FE02C08BE201C080E2A7FC8DE2B60162
:1054900090E00E94892A891438F4B60180E390E0F4
:1054A0000E94892A9A94F7CF8A94F301E80DF11D9E
:1054B0008081B60190E00E94892A8110F5CF2220D8
:1054C00009F442CEB60180E290E00E94892A2A9433
:1054D000F6CFF6018681978102C08FEF9FEF2B9662
:1054E000E2E10C94A52BFC01059061507040011085
:1054F000D8F7809590958E0F9F1F0895FC016150FD
:10550000704001900110D8F7809590958E0F9F1FE5
:1055100008950F931F93CF93DF93FB01238121FD08
:1055200003C08FEF9FEF2CC022FF16C0468157812A
:10553000248135814217530744F4A081B1819D0134
:105540002F5F3F4F318320838C93268137812F5FDC
:105550003F4F3783268314C08B01EC01FB0100848D
:10556000F185E02D0995892BE1F6D80116968D91EC
:105570009C911797019617969C938E931697CE0140
:10558000DF91CF911F910F910895FA01AA2728303A
:1055900051F1203181F1E8946F936E7F6E5F7F4F00
:1055A0008F4F9F4FAF4FB1E03ED0B4E03CD0670F7C
:1055B000781F891F9A1FA11D680F791F8A1F911DCF
:1055C000A11D6A0F711D811D911DA11D20D009F41F
:1055D00068943F912AE0269F11243019305D319361
:1055E000DEF6CF010895462F4770405D4193B3E04A
:1055F0000FD0C9F7F6CF462F4F70405D4A3318F0F1
:10560000495D31FD4052419302D0A9F7EACFB4E0A1
:10561000A6959795879577956795BA95C9F7009759
:105620006105710508959B01AC010A2E06945795FA
:10563000479537952795BA95C9F7620F731F841F51
:10564000951FA01D0895A6E1B0E044E050E00C9441
:10565000492B262FF999FECF92BD81BDF89A01976B
:1056600000B4021639F01FBA20BD0FB6F894FA9AAA
:10567000F99A0FBE08950396272F0E942A2B0E94A5
:10568000292B252F0E942A2B242F0C942A2BDC0156
:10569000CB01FC01F999FECF06C0F2BDE1BDF89A3D
:1056A000319600B40D9241505040B8F70895052E40
:1056B00097FB1EF400940E946E2B57FD07D00E94AA
:1056C000C02B07FC03D04EF40C946E2B50954095E4
:1056D000309521953F4F4F4F5F4F0895909580959E
:1056E000709561957F4F8F4F9F4F08950E94E22BD9
:1056F000A59F900DB49F900DA49F800D911D112426
:105700000895B7FF0C94762B0E94762B821B930B87
:1057100008952F923F924F925F926F927F928F9255
:105720009F92AF92BF92CF92DF92EF92FF920F9330
:105730001F93CF93DF93CDB7DEB7CA1BDB0B0FB63A
:10574000F894DEBF0FBECDBF09942A8839884888F7
:105750005F846E847D848C849B84AA84B984C8848D
:10576000DF80EE80FD800C811B81AA81B981CE0F84
:10577000D11D0FB6F894DEBF0FBECDBFED01089569
:10578000A1E21A2EAA1BBB1BFD010DC0AA1FBB1F45
:10579000EE1FFF1FA217B307E407F50720F0A21BB7
:1057A000B30BE40BF50B661F771F881F991F1A9424
:1057B00069F760957095809590959B01AC01BD014E
:1057C000CF010895A29FB001B39FC001A39F700DA8
:1057D000811D1124911DB29F700D811D1124911DF9
:0657E0000895F894FFCFCC
:1057E60001000000010AFA018046FFFFE30EE90FFF
:1057F600720FE60E3E0F010C730E0104015814DB06
:1058060014BE1496146F1401010000000508011E51
:105816001813120C15BC19C01A0320064006800383
:10582600040940098003100F800C4003010F010F8B
:10583600020F100F200F402A2A2B2B2C2D2D2E2F36
:105846003030000102030405060708090A1514137F
:105856001211100F0E0D0C0B161718191A1B1C1D02
:105866001E1F20292827342634252423222141548B
:105876002B424C45484944434F4E54524F4C4B459E
:10588600593D25640A0041542B424C454849444D34
:105896004F5553454D4F56453D25642C25642C25C3
:1058A600642C25640A00425554544F4E3D25640A23
:1058B6000041542B424C454B4559424F41524443BB
:1058C6004F44453D0030302D30300A0025303258E7
:1058D6002D30302D253032582D253032582D25309B
:1058E60032582D253032582D253032582D2530325C
:1058F600580A0041542B464143544F52595245537E
:1059060045540A0041542B424C45484944454E3DB6
:10591600300A0041542B424C45484944454E3D31DE
:105926000A0041542B4741504445564E414D453D92
:10593600003138303051415A20424C450041542BF9
:10594600474150474554434F4E4E0A0041542B475A
:10595600415044454C424F4E44530A0041540A00BC
:105966004154453D300A0041542B47415053544160
:1059760052544144560A0041542B47415454414421
:1059860044534552564943453D555549443D3631A4
:1059960035390A0041542B47415454414444434845
:1059A60041523D555549443D3078324131392C50AC
:1059B600524F504552544945533D31362C4D494E70
:1059C6005F4C454E3D312C56414C55453D390A00FC
:1059D60041542B42415544524154453D37363830A7
:1059E600300A0041542B48574144433D360A004192
:1059F600542B47415454434841523D312C25640AA7
:105A06000041542B424C454745545045455241446C
:105A160044520A0041542B474150444953434F4E88
:105A26004E4543540A0041542B4741505345544177
:105A36004456444154413D30322D30312D30360AE2
:105A46000041542B47415053455441445644415418
:105A5600413D30322D30312D30340A0041545A0A3E
:105A660000BDB6B3ADAAA7A4A19D404D36391A050F
:105A7600CD0497045E04F1030A0423043C04040ADB
:105A860026DB03CF03A7032603310038003000309E
:105A960000510041005A00200028005500530042E2
:105AA600005F0044004D0036003800290000000A5F
:105AB60003590044004B0042000000040309040996
:105AC600026D00040100A0FA0904000001030101AF
:105AD6000009211101000122400007058103080089
