:100000000C94EC000C9409010C9409010C94090166
:100010000C9409010C9409010C9409010C94090138
:100020000C9409010C9409010C94EC0F0C94BF1072
:100030000C94611E0C9409010C9409010C940901A3
:100040000C9409010C9409010C9409010C94090108
:100050000C9409010C942A1E0C9409010C940901BA
:100060000C9409010C94DE050C9409010C9409010F
:100070000C9409010C9409010C9409010C940901D8
:100080000C9409010C9409010C9409010C940901C8
:100090000C9409010C9409010C9409010C940901B8
:1000A0000C9409010C9409010C940901950B970B10
:1000B000990B9B0B9D0B9F0BC50BC50BC50BC50B64
:1000C000C50BBE0BC00BC20B27114A1105124A11FA
:1000D00005128F11B2110512D411E711AB14AB1434
:1000E000EC14EC1447159915AB17AB17B915AB17F2
:1000F000B616B6168117AB17AB179717507C7E80D4
:1001000051634F621B7B35198029102C7F3780800B
:1001100059585A5B1D7A78060E801105343836809E
:100120005C575D5E070479090D3A0B0A7D330F3089
:1001300052808080161439150C3C181780808080FE
:100140008080808080808080808080802E2D2731FC
:10015000532A5455201F8021263B24232F13122875
:100160005F5660611A1E2B08253D1C224443424500
:100170004C4E494B80808080413E403F141A082BF2
:100180001518171C12132F0C3080314C1E1F2029FC
:100190002124222326272D252E802A49807B7A7828
:1001A0008080802C7E807C807F51504F801D1B7909
:1001B00006111905363738107D528080041607392C
:1001C000090D0A0B0F33340E8080288062620028EC
:1001D000008315087432000011241FBECFEFDAE04F
:1001E000DEBFCDBF14E0A0E0B1E0E8E9F8E402C072
:1001F00005900D92A83EB107D9F728E0A8EEB4E02B
:1002000001C01D92A330B207E1F70E94C60B0C9407
:100210004A240C9400004091EF04E82FF0E0292FCD
:1002200030E084E0220F331F8A95E1F7E20FF31FDD
:10023000442319F0E450FF4F02C0E458FE4F84916C
:100240000895EF92FF921F93CF93DF937C01D62FF7
:10025000142F0E948C1DC82FF7019281D130D9F044
:1002600028F0D43039F1D53069F139C09923A9F09B
:10027000912F9870990F990F212F2270922B98230C
:1002800021F080FD02C085E310C0912F94709C2363
:1002900049F489E20AC0911103C08091E8041BC0AF
:1002A00082FF02C08DE301C081E28093E804809167
:1002B000E8040DC0992321F0827289F48CE207C012
:1002C0008CE209C0992331F085FD09C082E50E94C6
:1002D000951303C082E50E94C2130E94C61DF70158
:1002E0008281882309F46FC0D33089F1DB3009F4AF
:1002F00041C0D23009F067C00E940E14C13039F4F9
:100300008BE29CEF9093010880930008FFCFCC30E4
:1003100069F48091EE04882339F06AEA7BEB8EEF72
:1003200093E00E94FD23FFCF0E94D10783E30E9448
:10033000EE1383E30E94F5138CEC0E94EE138CEC19
:10034000DF91CF911F91FF90EF900C94F513909156
:10035000160581E08927809316059091710788E83A
:10036000892780937107DF91CF911F91FF90EF90C4
:100370000C94AD051C30F9F48091F9078430D9F064
:100380008091EF04882369F085B1806685B95F9A12
:1003900088EC0E94FA1D2D9886E90E94FA1D2E987D
:1003A00007C085B18F7985B988EC0E94FA1D2E9A15
:1003B00086E90E94FA1D812FDF91CF911F91FF9056
:1003C000EF900C948C0BDF91CF911F91FF90EF90E9
:1003D0000895611107C0FC018281882319F080E033
:1003E0009FE5089580E090E0089584B1807E84B90F
:1003F00085B18F6185B93F98479A8091EF04882332
:1004000031F08AB18F798AB98BB1806605C08AB123
:100410008F708AB98BB1806F8BB9879A8F9A089544
:1004200084B18F6184B93F9A8091EF04882319F0D9
:100430008AB1806702C08AB1806F8AB9879A8F9823
:1004400087EE93E00197F1F700C0000008958091D6
:10045000EF04882311F05C9A08955F9A08958698B6
:100460008E9A81E00E94FA1D8FB186FB992790F940
:1004700081E089278093EF04882311F0579A5F98D1
:10048000EFE1F8E6E491EF3C81F581E08093EE0442
:1004900027982F9A8EEF93E00E94E5238A3A9B4B90
:1004A00021F56CEC7DED8EEF93E00E94FD23279A01
:1004B0002F986E9A5D9884B1806684B98091EF041C
:1004C000882329F0579A5F9A85B1806602C085B16A
:1004D0008F7985B98FEF91E12AE7815090402040D4
:1004E000E1F700C000000C94501E08958091EF04C5
:1004F000882319F082E291E002C08BE291E00C9433
:10050000E4070E9410023E98469A0E9427024798EC
:10051000E2E0F5E01192119285E0E231F807D1F7BF
:10052000E2EFF4E01192119285E0E230F807D1F7A2
:1005300082E095E0909315058093140582EF94E096
:1005400090931305809312058091EF04882311F096
:1005500088E001C085E08093F1040895AF92BF92D6
:10056000CF92DF92EF92FF920F931F93CF938091E0
:1005700012059091130520911405309115053093C3
:100580001305209312059093150580931405C0E080
:10059000EE24E394F12C3091F104C31708F0E5C088
:1005A0008091EF04882381F0C0FF02C05D9A01C0F2
:1005B0005D98C1FF02C05E9A01C05E98C2FF02C092
:1005C000289A0EC028980CC08BB18F70282F2068F5
:1005D0009C2F977030E1939FC0011124822B8BB91F
:1005E0000C2F10E05801AA0CBB1C34E0000F111FA7
:1005F0003A95E1F7C12CD12C8091EF04F601E00F80
:10060000F11F882369F0E450FF4FE491E03809F4CA
:10061000A2C085B19601220F331F2E71817E11C0B9
:10062000E458FE4FE491E03809F495C085B1982F65
:10063000907EC3FE02C020E101C028E08C2D8770AF
:10064000892B822B85B985E08A95F1F70000C701D7
:100650000C2C02C0880F991F0A94E2F7E091120552
:10066000F0911305EA0DFB1D2081318128233923E8
:10067000232B09F0479A2AE12A95F1F700C026B505
:100680003091EF04332311F05C9801C05F9835E09E
:100690003A95F1F70000E0911405F0911505DF019E
:1006A000AA0DBB1D369B08C0809590954D915C911D
:1006B00011978423952305C04D915C911197842B4C
:1006C000952B8D939C9386B5821B833068F0A09107
:1006D0001205B0911305AA0DBB1D8D919C91DF01F0
:1006E000AA0DBB1D8D939C93EA0DFB1D808191810A
:1006F000892B61F48DE08A95F1F7000047980E94FC
:10070000270280910A018230B0F422C080910A0150
:10071000823028F4109258061092570603C08A308F
:1007200008F459C0809110018111E4CF8091F9073C
:10073000853001F750C022E42A95F1F700C0C3309C
:1007400051F48091F004882331F01092F00445C0F8
:1007500030E53A95F1F78FEFC81AD80A20E1C216B2
:10076000D10409F049CFCF5F16CF90910A019A309A
:1007700041F080911001811130C08091F9078430DF
:1007800061F1E0911405F09115052091EF04DF016E
:1007900080E0831769F04D915D91452B39F022235C
:1007A00019F0823019F019C08430B9F48F5FF1CF9D
:1007B000222331F0248135812115384171F405C09F
:1007C000208531852033310541F49A3021F08AE1CA
:1007D00090E00E94100B84E601C081E0CF911F9150
:1007E0000F91FF90EF90DF90CF90BF90AF90089562
:1007F0002091140590911505E22FF92FE80FF11DB6
:10080000E80FF11D80819181089580910A01843063
:1008100088F08091EC049091ED040196803591056B
:100820002CF49093ED048093EC0427C01092ED0417
:100830001092EC040E94100281E08093F0040E9468
:10084000AE020E94AE028436B1F480910A01843077
:10085000B0F08091EF04882321F05F9A85B1806623
:1008600002C085B18F7985B988EC0E94FA1D81E0BC
:1008700080930E0108950E94F50180E0089581E0C3
:1008800008950E94F5018091EF04882321F05F987C
:1008900085B18F7902C085B1806685B908950C94C1
:1008A00069058091EA049091EB040E941B1E873930
:1008B000910508F462C00E940F1E9093EB04809390
:1008C000EA048091E9048F5F8093E90490915106D6
:1008D000992321F1843008F450C0913011F080E068
:1008E00001C083E08093E904629B14C02E9B09C081
:1008F00085B18F7985B98091EF048823F1F15F98F4
:10090000089585B1806685B98091EF048823A9F1A7
:100910005F9A0895109251060C94690590910E010A
:10092000992359F1813051F48091EF04882319F013
:1009300085B18F7902C085B1806685B98091E9045F
:10094000833071F48091EF04882339F02D9A8091DF
:100950005506882329F02E9A03C085B18F7985B971
:10096000909155068091E904911105C0853018F0E9
:100970001092E90408958B30D8F70895811102C0D0
:1009800086E001C080E060E00C94531484B180667E
:1009900084B98091EF04882331F085B18F7985B9CE
:1009A000579A5F9803C085B1806685B9E0E0F2E6AA
:1009B000E491E0931805E0E0F3E6E491E093190593
:1009C000E0E0F4E6E491E0931A050895813061F0E7
:1009D00018F0823089F014C09091EF04992311F03F
:1009E0005F9A0EC02E980CC09091EF04992311F0DD
:1009F0002E9A06C02D9804C09091EF0491112D9A63
:100A000021E030E0A90102C0440F551F8A95E2F7AA
:100A1000CA0190911705892B80931705089581309D
:100A200061F018F0823089F014C09091EF0499239E
:100A300011F05F980EC02E9A0CC09091EF0499238C
:100A400011F02E9806C02D9A04C09091EF049111D8
:100A50002D9821E030E0A90102C0440F551F8A956E
:100A6000E2F7CA01809590911705892380931705B5
:100A70000895EF92FF920F931F93CF93DF93D82F98
:100A800008E115E0C0E0E62EF12CDD2331F0F8019D
:100A900090819D1B983088F401C09C2F970102C063
:100AA000359527959A95E2F720FF04C08C2F0E9478
:100AB000E60403C08C2F0E940F05CF5F0F5F1F4F0E
:100AC000C33019F7DF91CF911F910F91FF90EF90F5
:100AD00008956091170580E00C943905CF92DF925C
:100AE000EF92FF920F931F93CF93DF931F92CDB797
:100AF000DEB708E115E0C12CD12CEE24E394F12CF3
:100B0000F80191918F0198130FC0909117059701EB
:100B10000C2C01C0220F0A94EAF72927209317050D
:100B200089830E9469058981FFEFCF1ADF0A43E0BC
:100B3000C416D10429F70F90DF91CF911F910F9127
:100B4000FF90EF90DF90CF900895669581E00C9430
:100B50003905669589E00C9439056091160585E1A3
:100B60000C943905682F80E10E9439050C94AD057D
:100B7000FC0120812B3C31F421812B3B19F403969D
:100B80000C94E407089520911B0580911C058217A1
:100B900059F030E0F901E35EFA4F80812F5F3F4F5B
:100BA00020931B0590E008958FEF9FEF089590919B
:100BB000C80095FFFCCF8093CE0008951F920F923E
:100BC0000FB60F9211242F933F934F938F939F93C0
:100BD000EF93FF9380911C0590E09C012F5F3F4FA6
:100BE00040911B05421741F03091CE00FC01E35EBD
:100BF000FA4F308320931C05FF91EF919F918F91C5
:100C00004F913F912F910F900FBE0F901F9018950D
:100C100080913706089508950FB6F894A8958091AD
:100C20006000886180936000109260000FBE08959C
:100C30000E940C069EE088E10FB6F894A895809378
:100C400060000FBE909360000895EF92FF920F93A3
:100C50001F93CF93082F0E940F1E7C01C0E010E06D
:100C6000C7010E941B1E80179107F0F40E94C30564
:100C70009C012F3F8FEF3807A9F02D3099F04C2FB2
:100C800050E02A3051F4C23030F0FA01E45EF94FFE
:100C900080818F3449F02FE530E0FA01E25EF94FB0
:100CA0002083CF5FC731E0F2EC2FF0E0E25EF94F36
:100CB00010828EE196E0CF911F910F91FF90EF90FF
:100CC0000895CF93DF93EC018991882319F00E9456
:100CD000D705FACFDF91CF9108950E94610684E68F
:100CE0000C9425069C012F5631092230310528F03D
:100CF0002A5731092230310588F420913A06309183
:100D00003B06232B31F422E330E030933B06209363
:100D10003A06909339068093380604C010923B0639
:100D200010923A0620913C06211124C09F938F9384
:100D300084E391E09F938F9388ED97E09F938F9347
:100D40000E943C2188ED97E00E946D0642E050E051
:100D500062E172E00E942F210F900F900F900F9090
:100D60000F900F90892B19F410923C06089581E0A2
:100D700080933C060895CF93DF93EC0180913C066D
:100D8000811141C08C81282F082E000C330B3F931A
:100D90008F938B81282F082E000C330B3F938F935A
:100DA0008A81282F082E000C330B3F938F93898163
:100DB000282F082E000C330B3F938F938CE491E087
:100DC0009F938F9388ED97E09F938F930E943C2190
:100DD00088ED97E00E946D0642E050E062E172E02B
:100DE0000E942F212DB73EB7245F3F4F0FB6F894D6
:100DF0003EBF0FBE2DBF892B19F410923C0603C0D5
:100E000081E080933C0680913C0681112BC0888153
:100E100090913606891731F1809336061F928F9391
:100E20008CE691E09F938F9386EE97E09F938F934C
:100E30000E943C2188ED97E00E946D0642E050E060
:100E400062E172E00E942F210F900F900F900F909F
:100E50000F900F90892B19F410923C0603C081E08B
:100E600080933C06DF91CF910895CF93DF93EC01FF
:100E700086E90E94FA1DCE01DF91CF910C946D0698
:100E8000CF93DF9320915506222309F45EC0209171
:100E90003C0621115AC0EC0187E791E00E946106EF
:100EA000209731F48BE891E0DF91CF910C946D069F
:100EB0008F811F928F938E811F928F938D811F92AE
:100EC0008F938C811F928F938B811F928F938A8136
:100ED0001F928F9388811F928F9382E991E09F9355
:100EE0008F9388ED97E09F938F930E943C2188ED2C
:100EF00097E00E946D0645E050E069EB71E00E94CA
:100F00002F212DB73EB72E5E3F4F0FB6F8943EBF50
:100F10000FBE2DBF892B21F481E080933C0602C0D7
:100F200010923C068A81988191110FC0833531F06F
:100F3000893331F0873449F482E103C080E101C094
:100F400081E1DF91CF910C946E05DF91CF910895EF
:100F500080E090E00C94400780913A0690913B0627
:100F60000097F1F08230910530F0019790933B06A5
:100F700080933A06089520911D062F5F20931D0649
:100F8000809138069091390630E043EF50E0481BDD
:100F9000590B2417350720F010921D060C94720689
:100FA00008958FEB91E00C943507CF93C82F80ED17
:100FB00091E00E94610680E38C0F0E94D70580E9D2
:100FC00091E0CF910C943507CF93DF93EC018DED39
:100FD00091E00E946106CE010E94610680E991E0E5
:100FE000DF91CF910C9435078CEE91E00E946D0655
:100FF000FC01808108958BEF91E00C943507CF932D
:10100000DF936E9A5D980E94061EF89487E680939F
:10101000CC001092CD008091C90080698093C900F6
:101020008091C90088608093C9008091CA00809334
:10103000CA008091C80082608093C80078948BE0D9
:1010400092E00E9435078BE092E00E946D06EC0171
:1010500042E050E06FE072E00E942F21892B49F0BE
:1010600042E050E062E172E0CE010E942F21892B24
:10107000D9F40E94D1078BE092E00E94350785E108
:1010800092E00E9435070E94760281E00E94D50717
:101090008CE192E00E9435070E94FB078CE292E00F
:1010A0000E9435070E94501EF8948CE08093CC007B
:1010B00078948BE092E00E94350782E30E94FA1D4B
:1010C0008FE392E00E946D0645E050E069EB71E02D
:1010D0000E942F21892B71F48EE492E00E94350743
:1010E0008BE692E00E94350787EA92E0DF91CF918C
:1010F0000C943507DF91CF910895CF93C82F8CEAD8
:1011000092E00E9461061F92CF9388E691E09F9340
:101110008F9388ED97E09F938F930E943C210F90CF
:101120000F900F900F900F900F9088ED97E0CF9158
:101130000C946D06CF93C82F8BEB92E00E946D0646
:10114000FC01418180ED840F8A3020F081E08093A2
:101150005C064FC062816A3308F04BC0808190E02A
:10116000C09724E6289FF001299FF00D112450E03C
:10117000405351098AE0849F9001859F300D1124CE
:101180002E0F3F1F260F311D83E0220F331F8A953C
:10119000E1F72A54324030930D0120930C012C3595
:1011A0008DE0380710F481E005C02E3D9DE0390741
:1011B00020F485E08093510606C021318EE0380787
:1011C00010F010925106629907C0285231093093ED
:1011D0000D0120930C010DC08091D90080FF09C042
:1011E00080915006882329F01092500684E60E94D0
:1011F0007D08C230B9F520910C0130910D012337E3
:101200009EE03907E9F0233D8FE03807D8F42F3608
:101210009FE03907C8F42D338FE03807B8F42F3D2D
:101220009DE0390750F048ED5EE08CE32417350768
:1012300070F48A5042535109F9CF8091510607C08A
:101240008CE205C08AE503C080E501C086E4629BAC
:101250008F5F2535304108F084E680930B01CF91F4
:101260000C947D08CF9108956A98729A82E00C944C
:101270009A080895CF93DF9380910F01811122C0C6
:101280000E941E128050914079F00E940E148091AD
:101290001B01826080931B0180E091E00E94191283
:1012A000809116058D7F26C08091560681112FC032
:1012B0008091F907843059F581E080930F01809384
:1012C000560625C00E941E1281519140C1F081E056
:1012D0008093560680930F010E940E1480911B018B
:1012E0008D7F80931B0181E191E00E941912809112
:1012F00016058260809316050E94AD0508C0809196
:10130000F907843021F010920F0110925606809157
:101310001001882309F481C1769977C180913C0638
:101320008823A1F08BE092E00E946D0642E050E03D
:1013300062E172E00E942F21892B29F410923C0671
:101340000E94A80703C081E080935C0680915C0640
:101350008823B9F084E60E942506EC0142E050E0C3
:1013600062E172E00E942F21892B59F045E050E0A4
:1013700069EB71E0CE010E942F21892B11F01092B0
:101380005C0680910A01823039F40E949A080E941A
:10139000390983E080930A0180913E06882331F168
:1013A0000E94F407813311F587EC92E00E946D06EC
:1013B000FC0122812A33D1F441E150E06FE376E071
:1013C0000E942F21892B31F010923E0681E08093FC
:1013D00055060CC08AED92E00E946D06809153067E
:1013E000909154060F9714F010923E0680915C067F
:1013F0008111D6C08091590690915A060E941B1EF9
:10140000893E934008F4CCC00E940F1E90935A0668
:101410008093590680915506811107C010923D06B0
:1014200080913E06811144C008C080913D068F5FC7
:1014300080933D06833090F760C00E94F4078133AB
:1014400051F480915506811118C081E080935506B2
:1014500010925B0612C0803369F480915506882390
:1014600019F01092550609C080915B068F5F80933A
:101470005B0603C081E080935C0680910F018111BF
:1014800017C080910A01882399F080915B068A3504
:1014900078F08091F907843049F0769A8091C900FC
:1014A000877F8093C90084E080930A0110925B06D5
:1014B00080910E01882309F1809153069091540682
:1014C0008436910549F410925406109253061092F6
:1014D0000E010E94690511C00196909354068093F5
:1014E0005306449724F480915506813031F484E604
:1014F00090E09093540680935306629914C081E063
:1015000080935006809157069091580601969093CB
:101510005806809357066FE070E00E9415210A97E5
:1015200059F482E007C01092500680910A0182307F
:1015300018F481E00E949A0880915006811130C011
:101540008091560681112CC080910E01811128C016
:101550008091570690915806019690935806809373
:10156000570620910A01213039F4039728F00E9490
:10157000A80782E080930A0180910A01833081F4F8
:1015800080915706909158068832934248F084E043
:1015900080930A01769A8091C900877F8093C90061
:1015A00080915206882379F10E940C0680915206A0
:1015B0008C3011F08231B1F48CEE92E00E94610621
:1015C00080915206823129F485E093E00E946D06F5
:1015D00004C084EC92E00E943507109252060E94EB
:1015E000180611C0853179F40E94FB0780E00E9443
:1015F000D50781E00E94D50787EA92E00E9435076F
:101600008CE0809352060E94AC0780910A018230E0
:1016100020F4DF91CF910C945104DF91CF91089584
:10162000CF93DF93C82F0E948C1DD82F0E940E14D9
:10163000C53169F1A0F4CC3039F120F4C53009F49A
:1016400040C066C0C23101F1C33109F061C0909160
:101650000A0181E0892780930A0160E043C0C93113
:1016600091F168F4C631D9F0C83109F051C09091B8
:101670000F0180911001892780930F0147C0CA3163
:10168000B9F0C03C91F144C0C09352063FC0D0FFB6
:101690003FC0C093520681E080930E013AC0909102
:1016A0000E0181E0892780930E010E9469052EC0FA
:1016B000D0FD02C061E001C06DEB80E290E00E94CD
:1016C000EB230E94501E80910B0160E090E00E948D
:1016D000E117D232D9F48DE290E00E94D51760E094
:1016E000809155060E94531411C0809156068111B5
:1016F0000DC0769A8091C900877F8093C9008AE0E7
:1017000080930A01109255060E94E41B81E001C0FB
:1017100080E0DF91CF91089590E08E309105A8F59B
:10172000FC01EA5AFF4F0C94292188E12CC083E187
:101730002AC082E128C08CE026C085E124C08091C7
:101740005506882311F181E080933E0680930E01B7
:1017500010925406109253061092550687EC92E0B0
:101760000E946D06FC0182818A3379F491E1AFE336
:10177000B6E001900D929A95E1F7089589E103C0D2
:1017800080EC01C08AE10C94100B0895CF9390E097
:1017900080E80FB6F89480936100909361000FBECB
:1017A0000E942F020E94C30F789480E290E00E9472
:1017B000DD238D3B11F410921001CFEF8091F907DA
:1017C000843059F080911001811102C088E001C07D
:1017D00084E00E94FA1DC15089F78091100188238E
:1017E00021F00E94FF070E9434090E9471120E949A
:1017F0001806C1E080910A01823008F10E94C61EDD
:101800000E9405048823D9F01092580610925706BA
:101810000E9418060E94CC1E76988091C9008860AC
:101820008093C900C0930A010AC08091F9078430EF
:1018300091F00E94C61E0E940504811105C080918E
:101840001001882391F307C08091F9078530B9F71B
:101850000E94400EF4CF80910A01843058F6A8957A
:10186000823010F40E9477120E943A09C3CF80910F
:101870006E0608958FEF9091E800815095FD06C0A7
:101880009AE69A95F1F700C08111F5CF8091E800B2
:1018900085FB882780F991E089270895CF93DF930E
:1018A00000D01F92CDB7DEB72091F9072430B9F4EC
:1018B00023E029839B838A832093E9000E943A0CCA
:1018C00081110DC040E050E063E070E0CE01019670
:1018D0000E94550E8091E8008E778093E8000F906B
:1018E0000F900F90DF91CF910895CF93DF9300D0A9
:1018F0001F92CDB7DEB72091F9072430C1F422E062
:1019000029839B838A8383E08093E9000E943A0CB9
:1019100081110DC040E050E063E070E0CE0101961F
:101920000E94550E8091E8008E778093E8000F901A
:101930000F900F90DF91CF910895CF93DF93209177
:10194000F9072430A1F4EC0182E08093E9000E94C1
:101950003A0C81110CC040E050E065E070E0CE012F
:101960000E94550E8091E8008E778093E800DF9109
:10197000CF910895CF93DF93EC019091F9079430C4
:10198000D1F580911B018823D9F0809176068823B8
:10199000B9F09093E9008FEF9091E800815095FDA8
:1019A00006C095E19A95F1F700008111F5CF80917D
:1019B000E80085FF20C040E050E060E170E00BC02F
:1019C00081E08093E9000E943A0C811114C040E04C
:1019D00050E068E070E0CE010E94550E8091E80072
:1019E0008E778093E80080E1FE01AEE5B6E00190DD
:1019F0000D928A95E1F7DF91CF9108958091F807D4
:101A0000811109C00E94680F0E94C30F8091E200FB
:101A100084608093E20008951092F8070895089575
:101A2000089542E061EC81E00E94030F42E061EC26
:101A300082E00E94030F42E061EC83E00E94030F0A
:101A400042E161EC84E00C94030F8091FB0783304A
:101A500009F455C030F4813071F0823009F48EC041
:101A600008958A3009F47AC08B3009F460C0893057
:101A700009F09CC020C08091FA07813A09F096C015
:101A80008091E800877F8093E8008091FE07909125
:101A9000FF07892B21F460E18EE596E003C060E04A
:101AA00080E090E070E00E94A00E8091E8008B77CB
:101AB0008093E80008958091FA07813209F076C09A
:101AC0008091FE079091FF07009719F0039709F0A6
:101AD0006DC08091E800877F8093E8008091E800E6
:101AE00082FD05C08091F9078111F8CF5FC0809118
:101AF000F10080936E068091E8008B7753C080914F
:101B0000FA07813A09F052C08091FE079091FF07D1
:101B1000892B09F04BC08091E800877F8093E80013
:101B20008091E80080FFFCCF80911B0136C080913E
:101B3000FA078132D9F58091FE079091FF07892B32
:101B4000A9F58091E800877F8093E8000E94170F35
:101B50008091FC0780931B010C940E148091FA076E
:101B6000813221F58091E800877F8093E8000E9410
:101B7000170F8091FD0780936F0608958091FA07F3
:101B8000813AA1F48091E800877F8093E8008091FA
:101B9000E80080FFFCCF80916F068093F100809178
:101BA000E8008E778093E8000C94170F08958091D9
:101BB0006E0680935D0610926E0680E00E94B2056C
:101BC0000E9466130C940E140C94D70D0E94CC1E28
:101BD00080915D0680936E0608950C94E60D292F82
:101BE000332723303105C1F05CF42130310579F021
:101BF00022303105E9F58DE690E02DE633E03CC07A
:101C000021323105C1F02232310511F131C082E1BA
:101C100090E02AED33E030C099278330910540F5FC
:101C2000FC01EE0FFF1FE15EFC4F20813181FC01C2
:101C3000E45EFC4F1AC06430D8F4E62FF0E0EE0FFB
:101C4000FF1FEC5EFC4F2081318189E090E014C0E1
:101C5000643070F470E0FB01EE0FFF1FE45FFC4F97
:101C600020813181FB01E85FFC4F808190E004C05E
:101C700080E090E020E030E0FA0131832083089595
:101C800019BC82E089BD09B400FEFDCF8091D80067
:101C90008F7D8093D8008091E00082608093E00087
:101CA0008091E00081FDFCCF0895CF92DF92EF920A
:101CB000FF920F931F93CF93DF93EC018B016A0187
:101CC0000E94360F811133C0C114D10439F0F601DE
:101CD00080819181081B190BC80FD91FE12CF12CB1
:101CE0000115110519F18091E80085FD16C080915C
:101CF000E8008E778093E800C114D10449F0F60122
:101D000080819181E80EF91EF182E08285E00FC0AA
:101D10000E94360F882321F30AC089918093F10035
:101D200001501109FFEFEF1AFF0ADACF80E0DF91CF
:101D3000CF911F910F91FF90EF90DF90CF9008957A
:101D400020910008309101082617370748F06115E7
:101D5000710539F42091E8002E772093E80001C046
:101D6000B90140E061157105A9F12091F90722231D
:101D700009F443C0253009F442C02091E80023FD56
:101D800040C02091E80022FD32C02091E80020FFF1
:101D9000E9CF4091F3002091F20030E0342BFC01B8
:101DA000CF016115710559F02830310540F481915A
:101DB0008093F100615071092F5F3F4FF1CF41E0F7
:101DC0002830310509F040E02091E8002E7720937B
:101DD000E800C8CF4111C9CF0AC08091F907882314
:101DE00061F0853061F08091E80083FD0AC0809148
:101DF000E80082FFF2CF80E0089582E0089583E05A
:101E0000089581E008958F708093E900EBEEF0E093
:101E1000808181608083EDEEF0E010826093EC00C1
:101E200040838091EE00881F8827881F0895809145
:101E3000FA0787FF11C08091E80082FD05C08091FC
:101E4000F9078111F8CF11C08091E8008B770BC0A2
:101E50008091F907882349F08091E80080FFF8CF4E
:101E60008091E8008E778093E80008952091E40047
:101E70003091E50095E64091EC00842F817040FFA1
:101E800022C08091E80080FD1CC08091F907882362
:101E900091F0853091F08091EB0085FD10C040916C
:101EA000E4005091E5004217530729F39A0191503D
:101EB00011F784E0089582E0089583E0089581E0B9
:101EC000089580E008954091E80042FFDECF089534
:101ED0000E94DF0F0E94E70FE0EEF0E0808181605A
:101EE0008083E8EDF0E080818F77808319BCA7EDD7
:101EF000B0E08C918E7F8C9380818F7E8083109256
:101F0000F80708950F931F93CF93DF930E94DF0F7D
:101F10000E94E70FC8EDD0E088818F7788838881A1
:101F20008068888388818F7D888319BC1092F90727
:101F30001092F6071092F70700EE10E0F80180818A
:101F40008B7F808388818160888342E060E080E0CD
:101F50000E94030FE1EEF0E080818E7F8083E2EE4D
:101F6000F0E0808181608083808188608083F801D7
:101F700080818E7F8083888180618883DF91CF918B
:101F80001F910F910895E8EDF0E080818F7E8083AE
:101F9000E7EDF0E080818160808384E082BF81E0B2
:101FA0008093F8070C94820F80910F01823030F4F7
:101FB00080915606811102C00C94501E0895E8EDE0
:101FC000F0E080818E7F80831092E200089510926D
:101FD000DA001092E10008951F920F920FB60F924F
:101FE00011242F933F934F935F936F937F938F931E
:101FF0009F93AF93BF93EF93FF938091E10082FF94
:102000000BC08091E20082FF07C08091E1008B7FCE
:102010008093E1000E94100D8091DA0080FF1FC0C4
:102020008091D80080FF1BC00E94D40F8091DA00FD
:102030008E7F8093DA008091D90019BC80FF0BC09D
:1020400082E089BD09B400FEFDCF81E08093F907ED
:102050000E94FE0C04C01092F9070E940C0D8091A2
:10206000E10080FF19C08091E20080FF15C08091DF
:10207000E2008E7F8093E2008091E2008061809395
:10208000E2008091D80080628093D80019BC85E07E
:102090008093F9070E94E40D8091E10084FF31C034
:1020A0008091E20084FF2DC00E94D40F19BC82E011
:1020B00089BD09B400FEFDCF8091D8008F7D80934B
:1020C000D8008091E1008F7E8093E1008091E20052
:1020D0008F7E8093E2008091E20081608093E20035
:1020E0008091F607882311F084E007C08091E30017
:1020F00087FD02C081E001C083E08093F9070E9460
:10210000ED0D8091E10083FF29C08091E20083FF03
:1021100025C08091E100877F8093E10082E0809379
:10212000F9071092F6078091E1008E7F8093E1001D
:102130008091E2008E7F8093E2008091E2008061D6
:102140008093E20042E060E080E00E94030F809113
:10215000F00088608093F0000E940F0DFF91EF91D6
:10216000BF91AF919F918F917F916F915F914F91AF
:102170003F912F910F900FBE0F901F9018951F92B7
:102180000F920FB60F9211242F933F934F935F93AB
:102190006F937F938F939F93AF93BF93CF93DF936F
:1021A000EF93FF93C091E900CF708091EC00D82F9E
:1021B000D17080FDD0E81092E9008091F000877F17
:1021C0008093F00078940E9403111092E9008091AE
:1021D000F00088608093F000CD2BCF70C093E900B1
:1021E000FF91EF91DF91CF91BF91AF919F918F912F
:1021F0007F916F915F914F913F912F910F900FBE03
:102200000F901F9018951F93CF93DF9300D0CDB7F9
:10221000DEB7EAEFF7E088E08E0F9091F10091933E
:102220008E13FBCF0E94250D8091E80083FFEDC047
:102230008091FA079091FB07492F50E04A305105F1
:1022400008F0E3C0FA01EC59FF4F0C9429218038C3
:1022500081F0823809F0D9C08091FE078F70809399
:10226000E9008091EB0085FB882780F91092E90056
:1022700007C08091F707882311F082E001C080E059
:102280009091E800977F9093E8008093F10010927E
:10229000F10095C0282F2D7F09F0B7C0882319F0D1
:1022A000823061F0B2C08091FC07813009F0ADC08E
:1022B000933009F080E08093F7072BC08091FC07F2
:1022C000811127C08091FE078F7009F49EC0809312
:1022D000E9002091EB0020FF1CC0933021F4809195
:1022E000EB00806214C09091EB0090619093EB0042
:1022F00021E030E0A90102C0440F551F8A95E2F7A2
:102300004093EA001092EA008091EB00886080938D
:10231000EB001092E9008091E800877F53C08111A3
:1023200074C01091FC071F778091E3008078812BA7
:102330008093E3008091E800877F8093E8000E940B
:10234000170F8091E80080FFFCCF8091E300806848
:102350008093E300111102C082E001C083E080930A
:10236000F90753C08058823008F04FC0AE014F5F6C
:102370005F4F6091FE078091FC079091FD070E94DE
:10238000EF0DBC01892B09F440C09091E800977FC4
:102390009093E80089819A810E94A00E8091E800C4
:1023A0008B778093E80031C0803879F58091E80020
:1023B000877F8093E8008091F6078093F1008091F9
:1023C000E8008E778093E8000E94170F1EC08111ED
:1023D0001CC09091FC079230C0F48091E800877F88
:1023E0008093E8009093F6070E94170F8091F607FC
:1023F000811106C08091E30087FD02C081E001C029
:1024000084E08093F9070E94110D8091E80083FF1A
:102410000AC08091E800877F8093E8008091EB00FC
:1024200080628093EB000F900F90DF91CF911F910E
:1024300008959093750680937406089580917406AC
:10244000909175060895E0917406F09175063097A5
:1024500021F00190F081E02D099480E00895E09151
:102460007406F0917506309721F00280F381E02D1B
:1024700009940895E0917406F0917506309721F063
:102480000480F581E02D0994089520917206309121
:1024900073068217930771F0909373068093720608
:1024A000E0917406F0917506309721F00680F7816F
:1024B000E02D0994089520917006309171068217DD
:1024C000930771F09093710680937006E091740603
:1024D000F0917506309721F00084F185E02D099484
:1024E00008950E94061E0E9481020C94C6048F92D9
:1024F0009F92AF92BF92CF92DF92EF92FF920F9393
:102500001F93CF93DF9300D000D01F92CDB7DEB7DB
:102510000E94AE0204E916E0F12C8F2D0E94F80310
:102520004C01F801A080B180A826B926A114B104FD
:1025300039F4F3940E5F1F4FF8E0FF12EECF33C073
:102540008091740781FD0E946713E12CCC24C39411
:10255000D12CC6018A219B21892BF1F0E982FA82D4
:1025600021E0C60188219921892B09F420E02B83E1
:102570000E940F1E81609D838C83CE0101960E9474
:102580006813CE0101960E94F71DF80180819181A8
:102590008C259D2591838083E394CC0CDD1CF0E198
:1025A000EF12D7CFC6CF80E090E00E9468130E9460
:1025B000F61D0E94CF1F80919306882379F08091A9
:1025C0009106909192060E941B1E8C34910530F06A
:1025D000109293068DE796E00E94B80510917C0654
:1025E0000E942312181709F45DC00E9423128093E1
:1025F0007C0684FF55C080919106909192060E94BE
:102600001B1E8C34910520F010927B06109202085C
:1026100040917B0650E0FA01E958F94F80917C0621
:10262000837023E030E0241B350B220F331F01C0E1
:10263000880F2A95EAF780830E940F1E90939206D6
:102640008093910680917B068F5F80937B06843018
:1026500048F120910208E22FF0E0E358F94F909101
:10266000780680917706892B90917906892B909135
:102670007A06892B808380917D068B3C31F4223051
:1026800020F487E490E00E94D51710927B06809199
:1026900002088F5F8093020881E08093930602C056
:1026A0000E94F81D0F900F900F900F900F90DF91E8
:1026B000CF911F910F91FF90EF90DF90CF90BF903F
:1026C000AF909F908F9008950C94B205089508954F
:1026D000CF93DF9300D000D000D0CDB7DEB7FC01A0
:1026E000892B39F40E940F1E816060E05FEF4FEF8D
:1026F00005C040815181628183819481FE013196C0
:1027000026E0DF011D922A95E9F7782F9D838C83BF
:102710008D819E810E94731A26960FB6F894DEBFB3
:102720000FBECDBFDF91CF910895CF93882341F1A4
:10273000803B29F48CEC91E0CF910C94171BC82FAF
:102740008CEF8C0F813A20F080E58C0F8E3248F4AC
:102750008C2F0E94E420811113C08C2F0E94091D30
:102760000CC080E28C0F883058F4C77081E001C043
:10277000880FCA95EAF70E948F1DCF910C94C61D51
:10278000CF910895882349F19CEF980F913A20F05A
:1027900090E5980F9E3218F40E944B1D0DC090E2F8
:1027A000980F983058F4877091E001C0990F8A957E
:1027B000EAF7892F0E94951D0C94C61D9BE5980F82
:1027C000933020F480E090E00C944512885A8731D1
:1027D00020F480E090E00C945B120895882321F0AF
:1027E0000E948F1D0C94C61D0895882321F00E941D
:1027F000951D0C94C61D08950E94AC1D0E94811D5C
:102800000E94C61D0E94C8200E94C41F80E090E064
:102810000E94451280E090E00C945B120E949C1D87
:102820000C94FC13CF93DF9300D000D01F92CDB750
:10283000DEB70E949C1C292F22952F7030E02C308F
:1028400031054CF42A303105C4F4225031092230CC
:10285000310540F01FC02C303105B1F02F3031056B
:1028600099F018C0853A28F4843090F4823028F426
:102870000FC090E2980F983058F0843058F0853AA5
:1028800038F0803F39F404C093FB882780F903C0F7
:1028900081E001C080E00F900F900F900F900F909B
:1028A000DF91CF910895811101C08AE0662311F074
:1028B000885A01C0835E90E00C94D517CF92DF92C6
:1028C000EF92FF920F931F93CF93DF93CDB7DEB7B5
:1028D00027970FB6F894DEBF0FBECDBF25E0FC01F1
:1028E000DE01119601900D922A95E1F7FC0102811B
:1028F00043815481258122952F7039816A81411548
:10290000510509F428C36F3F19F43F3F09F423C36D
:102910006C014230510569F0742F5D834C8349810D
:102920005A81602F8D812F830E949C1C182F2F812C
:1029300002C019819A812F839E830E949B1C0E9452
:10294000951B9E81E92FE295EF70F0E0E259FF4F71
:102950002F810C942921892F807F9F70F92E882345
:1029600019F0F29490EFF9220023C1F00E948C1D1F
:10297000827259F08F2D827241F0809171078262CC
:1029800080937107FF2DFD7DFF2EFF2009F46BC2A0
:102990008F2D0E949F1D0E94C61D65C280917107E8
:1029A0008D7D80937107812F0E94C213FF2009F44F
:1029B000D2C28F2D0E94A51D27960FB6F894DEBFB8
:1029C0000FBECDBFDF91CF911F910F91FF90EF9080
:1029D000DF90CF900C94C61D892F807F9F70F92EB9
:1029E000803219F0F29480EFF822112319F011309F
:1029F00001F129C00023A9F08F2D222349F12130B4
:102A000039F527960FB6F894DEBF0FBECDBFDF9124
:102A1000CF911F910F91FF90EF90DF90CF900C948A
:102A2000AF1D222319F0213009F495C20E94B21D76
:102A30002CC00023E9F0233008F08DC20E948C1DC9
:102A40008F2129F022C00023F1F0211115C08F2D14
:102A500027960FB6F894DEBF0FBECDBFDF91CF91A2
:102A60001F910F91FF90EF90DF90CF900C94EE1399
:102A7000223008F070C209C0F601858180FFF3C1E1
:102A80008F708583E4CF211119C28F2D89C1292F21
:102A900026952695237030E02115310521F021304F
:102AA0003105C1F058C2002319F0812F937002C084
:102AB00080E090E027960FB6F894DEBF0FBECDBF42
:102AC000DF91CF911F910F91FF90EF90DF90CF900A
:102AD0000C945B120023D9F0212F392F337021156C
:102AE000F3E03F0794F081ED91E00E94171B60E056
:102AF000812F82958F700E94531460E0812F8F7018
:102B00000E9453148FEC91E002C2C90102C080E020
:102B100090E027960FB6F894DEBF0FBECDBFDF91D1
:102B2000CF911F910F91FF90EF90DF90CF900C9479
:102B30004512812F002381F00E94FD1E0E94C41FB8
:102B4000163408F008C2E12FF0E0E058F84F81E0B9
:102B5000808380937F07FFC10E944D1F0E94C41F86
:102B6000163408F0F8C1E12FF0E0E058F84F108279
:102B7000F2C1892F837009F079C00111ECC1812F56
:102B8000829586958770880F880F212F2F70C22E0F
:102B9000D12CE12CF12C082E04C0CC0CDD1CEE1C39
:102BA000FF1C0A94D2F714FF12C04FE050E060E01F
:102BB00070E004C0440F551F661F771F8A95D2F737
:102BC0008A019B01009510952095309503C000E087
:102BD00010E09801969596959370492F50E0C901A1
:102BE000B80142305105D1F04330510559F16C29FB
:102BF0007D298E299F294130510541F127960FB635
:102C0000F894DEBF0FBECDBFDF91CF911F910F9122
:102C1000FF90EF90DF90CF900C94B01B6C297D2932
:102C20008E299F2927960FB6F894DEBF0FBECDBF21
:102C3000DF91CF911F910F91FF90EF90DF90CF9098
:102C40000C94CA1B0E94B01BC701B60127960FB691
:102C5000F894DEBF0FBECDBFDF91CF911F910F91D2
:102C6000FF90EF90DF90CF900C94961B002319F00B
:102C7000892F817001C08695882309F46CC1812F4A
:102C8000829586958770880F880F212F2F70C22E0E
:102C9000D12CE12CF12C082E04C0CC0CDD1CEE1C38
:102CA000FF1C0A94D2F714FF12C04FE050E060E01E
:102CB00070E004C0440F551F661F771F8A95D2F736
:102CC0008A019B01009510952095309503C000E086
:102CD00010E09801969596959370492F50E0C901A0
:102CE000B80142305105D1F04330510559F16C29FA
:102CF0007D298E299F294130510541F127960FB634
:102D0000F894DEBF0FBECDBFDF91CF911F910F9121
:102D1000FF90EF90DF90CF900C94771C6C297D2969
:102D20008E299F2927960FB6F894DEBF0FBECDBF20
:102D3000DF91CF911F910F91FF90EF90DF90CF9097
:102D40000C94891C0E94771CC701B60127960FB608
:102D5000F894DEBF0FBECDBFDF91CF911F910F91D1
:102D6000FF90EF90DF90CF900C94651C103F41F1E5
:102D700018F4103E48F46DC0123F09F441C0D8F178
:102D8000133F09F442C065C01F70892F8F71002363
:102D900021F00E94FE1B812F5BCE0E941F1C812F01
:102DA00027960FB6F894DEBF0FBECDBFDF91CF914F
:102DB0001F910F91FF90EF90DF90CF900C94F5133F
:102DC0000023A9F0223008F0C6C0892F8F71279602
:102DD0000FB6F894DEBF0FBECDBFDF91CF911F912C
:102DE0000F91FF90EF90DF90CF900C94441C233014
:102DF00008F0B1C0EACF002329F0892F8F7146C0B7
:102E00000023D9F3892F8F716CC0002391F0892F93
:102E10008F7127960FB6F894DEBF0FBECDBFDF913E
:102E2000CF911F910F91FF90EF90DF90CF900C9476
:102E3000E91B27960FB6F894DEBF0FBECDBFDF911A
:102E4000CF911F910F91FF90EF90DF90CF900C9456
:102E5000E41B002359F12223B9F093FF04C0F601CB
:102E6000858180FD11C0812F27960FB6F894DEBFB3
:102E70000FBECDBFDF91CF911F910F91FF90EF90CB
:102E8000DF90CF900C949513892F877027960FB6FB
:102E9000F894DEBF0FBECDBFDF91CF911F910F9190
:102EA000FF90EF90DF90CF900C94FE1B2223B9F09F
:102EB00093FF04C0F601858180FD11C0812F279604
:102EC0000FB6F894DEBF0FBECDBFDF91CF911F913B
:102ED0000F91FF90EF90DF90CF900C94C213892F49
:102EE000877027960FB6F894DEBF0FBECDBFDF9177
:102EF000CF911F910F91FF90EF90DF90CF900C94A6
:102F00001F1C492F4F70612FC6010E94E9012796AF
:102F10000FB6F894DEBF0FBECDBFDF91CF911F91EA
:102F20000F91FF90EF90DF90CF900C94171B492FDB
:102F30004F70612FC60127960FB6F894DEBF0FBE03
:102F4000CDBFDF91CF911F910F91FF90EF90DF9058
:102F5000CF900C94210127960FB6F894DEBF0FBED8
:102F6000CDBFDF91CF911F910F91FF90EF90DF9038
:102F7000CF900895CF93DF9300D000D000D0CDB78D
:102F8000DEB789839A836B8382E090E09D838C8394
:102F9000CE0101960E945E1426960FB6F894DEBF0D
:102FA0000FBECDBFDF91CF910895CF93DF93EC019A
:102FB00061E00E94BA1760E0CE01DF91CF910C94DE
:102FC000BA17BF92CF92DF92EF92FF920F931F93A7
:102FD000CF93DF936C01B62EC5E0D0E000E117E29D
:102FE0008AE0E82EF12CC601B8010E941521CB0120
:102FF000009731F0B7010E9415216B2D0E945314E8
:10300000C801B7010E9415218B01219761F7DF915B
:10301000CF911F910F91FF90EF90DF90CF90BF90D5
:103020000895CF93DF9300D000D01F92CDB7DEB7C5
:103030000F900F900F900F900F90DF91CF91089508
:10304000CF93DF9300D000D000D0CDB7DEB7269667
:103050000FB6F894DEBF0FBECDBFDF91CF910895BC
:103060001F93CF93DF93C091A40616E08091A5062D
:10307000C81799F0D0E01C9FF0011D9FF00D11249E
:10308000EA55F94F40815181628173818481958134
:103090000E9420182196C770E9CFDF91CF911F9130
:1030A00008954091D6065091D7066091D806709148
:1030B000D9068091DA069091DB060C942018CF9304
:1030C000DF938091DB0682958F7009F051C080916B
:1030D000D806882309F44CC08091A406C091A506A7
:1030E0004091D6065091D7066091D9067091DA06C4
:1030F000D6E08C17E9F190E061157105B1F15F3F01
:1031000011F44F3F91F1D89FF001D99FF00D112498
:10311000DF01AA55B94F11962C911197521325C072
:103120002C91421322C012962C91129721111DC08E
:1031300013962D913C911497261B370B283C310593
:10314000A0F48091DB068F7080618093DB06E555EB
:10315000F94F80818F708061808386ED96E00E94B8
:103160005E14DF91CF910C94301801968770C1CF17
:10317000DF91CF910895AF92BF92CF92DF92EF92FD
:10318000FF920F931F93CF93DF93CDB7DEB7619775
:103190000FB6F894DEBF0FBECDBF8C0185E0F801FD
:1031A000DE011D9601900D928A95E1F7F8014081AC
:1031B0005181F280C380D4809091D6062091D706A9
:1031C0006091D9067091DA066115710509F442C162
:1031D0002F3F19F49F3F09F43DC186EDA82E86E0EC
:1031E000B82EE090D806F601E61BF70BEE2009F4A6
:1031F000D8C08091DB06382F307FE83CF10508F01D
:1032000094C0311145C0251312C0941310C0F110A1
:103210000EC08F7080618093DB060E945118C5013B
:103220000E945E148091DB06F80185832FC0C114D3
:10323000D10419F15F3F11F44F3FF9F0BF2CF110A9
:103240001CC08091A4062091A50636E0821709F4DF
:1032500012C190E0389FF001399FF00D1124EA551A
:10326000F94F6181561306C06081461303C0628125
:10327000611103C001968770E9CFEF2CFF2009F49C
:1032800020C18091DB0681608093DB06E12C19C1AF
:10329000251306C0941304C0F11002C0F801A0C0A9
:1032A0004D875E87FF867C2DD98AC88A6F2D8989D4
:1032B0000E941214882399F1FF2089F12091DB06E6
:1032C000822F82958F7090E0029774F08091D606DD
:1032D0009091D70698878F831986DB86CA862C87BC
:1032E000CE0107960E945E1486E0F801A6EDB6E0D6
:1032F00001900D928A95E1F70E945F180E94511883
:1033000011C0251739F14D875E87FF867C2DD98A3C
:10331000C88A6F2D89890E94121481112AC0C801A0
:103320000E945E14EE24E394CCC03111EACF7C2DD0
:10333000D98AC88A6F2D89890E94111886ED96E076
:103340000E945E1486E0F50111928A95E9F70E94C9
:1033500051189CCF9413D7CFF110D5CFF8018583A6
:10336000C8010E945E1486E0F50111928A95E9F782
:10337000A8C0FF20A1F22091DB06822F82958F70DA
:1033800090E002970CF4B0CF8091D6069091D706CA
:103390009A8389831B82DD82CC822E83CE010196A3
:1033A000A1CFE83CF10508F046C0EF2CFF2009F45E
:1033B000B6CF25132BC0941329C02091DB0620FD26
:1033C0001CC0822F82958F70C1F0F80125838F3049
:1033D00041F08F5F982F9295907F822F8F70892B6D
:1033E0008583C8010E945E1486E0F801A6EDB6E070
:1033F00001900D928A95E1F72AC086E0F801A6EDCA
:10340000B6E001900D928A95E1F75BC04D875E872B
:10341000FF867C2DD98AC88A6F2D89890E94121453
:10342000811162CF8091DB0681608093DB06C80149
:103430000E945E1446C07C2DD98AC88A6F2D898966
:103440000E94111886E0F50111928A95E9F70E9411
:10345000511837C0FF2009F462CF4D875E87FF8681
:103460007C2DD98AC88A6F2D89890E9412148823DD
:1034700009F455CF39CF7C2DD98AC88A60E0898973
:103480000E949C1C292F22952F7030E0223031059C
:103490002CF49F7041F0811106C00CC0243031051E
:1034A0002CF49F7049F4805E883020F0C8010E949F
:1034B0005E14BE2CEB2C05C0F8019581907F99F726
:1034C000F9CF8E2D61960FB6F894DEBF0FBECDBF3B
:1034D000DF91CF911F910F91FF90EF90DF90CF90F0
:1034E000BF90AF9008951F93CF93DF93CDB7DEB712
:1034F0002C970FB6F894DEBF0FBECDBF4F83588711
:1035000069877A878B879C87CE0107960E94BB18B4
:10351000882369F08F8198852A853B85232BF1F1DB
:103520009F3F09F063C08F3F09F060C037C086E05D
:10353000FE013796DE01119601900D928A95E1F712
:103540006F817885EA85FB85309741F17F3F11F4E3
:103550006F3F21F12091A50630E0C90101968770E7
:1035600099274091A40650E08417950709F447C0B5
:1035700069837A83FD83EC8396E0929FD001939FC9
:10358000B00D1124AA55B94FFE01319601900D924C
:103590009A95E1F78093A5060E94301816E0809175
:1035A000A4069091A5068917C1F1189FC0011124A6
:1035B0008A55994F0E94BB18882379F1E091A4069F
:1035C0001E9FF0011124EA55F94F4081518162811B
:1035D0007381848195810E9420188091A40690E0D7
:1035E0000196877099278093A406D9CF4F8158857B
:1035F00069857A858B859C850E942018CFCF0E9493
:103600000E141092A5061092A406E6EDF6E086E0F0
:10361000DF011D928A95E9F7C1CF2C960FB6F89479
:10362000DEBF0FBECDBFDF91CF911F910895EF9206
:10363000FF921F93CF93DF939C01892B09F465C000
:10364000E9012196F9011491193709F43FC0C0F43A
:10365000143740F4143008F053C08FEF810F8230DC
:1036600000F153C0143709F050C07901F2E0EF0EB9
:10367000F11CFE0184910E94FA1DE7019E01E0CF3A
:10368000133828F4113868F4103801F13EC01338AB
:10369000B9F0143F08F039C01F77812F90E0926095
:1036A00031C0FE0185919491612F6170E901133061
:1036B00018F42296992701C023960E94BA17DECFEC
:1036C000FE0185919491E90123961CC0FE01E590CD
:1036D000F490E901239684E00E94EE13103841F43F
:1036E00061E081E00E945314F0EAEF1AF6E8FF0A65
:1036F00061E0C7010E94E11784E00E94F513BECF8C
:10370000812F90E00E94D517B9CFDF91CF911F9103
:10371000FF90EF90089560935C0770935D0780932E
:103720005E0790935F070C94A50508950F931F9370
:1037300000911C0110911D0120911E0130911F016B
:10374000602B712B822B932B60931C0170931D01B6
:1037500080931E0190931F011F910F910C94A90556
:103760000F931F9300911C0110911D0120911E01C8
:1037700030911F01602371238223932360931C01E6
:1037800070931D0180931E0190931F011F910F9153
:103790000C94A9050F931F9300911C0110911D011A
:1037A00020911E0130911F016027712782279327E6
:1037B00060931C0170931D0180931E0190931F0163
:1037C0001F910F910C94A90560E070E0CB010C945F
:1037D0008B1B0F931F9341E050E060E070E08A0183
:1037E0009B0104C0000F111F221F331F8A95D2F7BF
:1037F000C901B8011F910F910C948B1B0F931F935C
:1038000041E050E060E070E004C0440F551F661FC7
:10381000771F8A95D2F780915C0790915D07A09100
:103820005E07B0915F078A019B01082B192B2A2B99
:103830003B2BC901B8011F910F910C948B1B0F9367
:103840001F9341E050E060E070E004C0440F551F5A
:10385000661F771F8A95D2F74095509560957095B1
:1038600080915C0790915D07A0915E07B0915F0722
:103870008A019B01082319232A233B23C901B8018C
:103880001F910F910C948B1B0F931F9341E050E0FD
:1038900060E070E004C0440F551F661F771F8A95D3
:1038A000D2F780915C0790915D07A0915E07B0917F
:1038B0005F078A019B01082719272A273B27C9018F
:1038C000B8011F910F910C948B1B0F931F930091C4
:1038D0005C0710915D0720915E0730915F07602BB8
:1038E000712B822B932B1F910F910C948B1B0F9399
:1038F0001F9300915C0710915D0720915E07309146
:103900005F0760237123822393231F910F910C94EF
:103910008B1B0F931F9300915C0710915D07209103
:103920005E0730915F0760277127822793271F91D9
:103930000F910C948B1B08958F929F92AF92BF9220
:10394000DF92EF92FF920F931F93CF93DF9300D0FC
:1039500000D01F92CDB7DEB78A016623C9F18090EF
:103960001C0190901D01A0901E01B0901F0180913C
:103970005C0790915D07A0915E07B0915F07882A70
:10398000992AAA2ABB2A8FE1E82EF12CD501C4017D
:103990000E2C04C0B695A795979587950A94D2F7F3
:1039A00080FF07C0DE2CB8018E2D0E94CE1E01972D
:1039B00029F481E0E81AF10848F7D12C80E1189F3A
:1039C000F0011124E00FF11DE452F94FD08209C03B
:1039D00080E1189FF0011124E40FF11DE452F94F2A
:1039E000D08009831A8369817A818D2D0E94CE1E31
:1039F0000F900F900F900F900F90DF91CF911F912C
:103A00000F91FF90EF90DF90BF90AF909F908F90BD
:103A1000089590911B01913021F4909176069111B7
:103A200009C02091200130912101F90132969FEFC8
:103A300040E01FC0982F9695969596959F3050F52B
:103A4000E0912001F0912101E90FF11D877021E043
:103A500030E0A90102C0440F551F8A95E2F7CA0160
:103A60009181892B818308959F3F39F04F5F4E30BC
:103A700041F051915813F8CF0DC05111F7CF942F49
:103A8000F5CF9F3F39F0F901E90FF11D97FDFA9548
:103A900082830895089590911B01913021F49091B3
:103AA0007606911109C02091200130912101F90180
:103AB0003296205F3F4F1FC0982F9695969596950A
:103AC0009F30F0F4E0912001F0912101E90FF11D08
:103AD000877021E030E0A90102C0440F551F8A958C
:103AE000E2F7CA01809591818923818308953196F7
:103AF000E217F30729F090819813F9CF1082F7CFDE
:103B00000895E0912001F091210131968FE0DF01CD
:103B10001D928A95E9F70895809173070895909111
:103B20007307892B8093730708958095909173078D
:103B300089238093730708951092730708959091D5
:103B40007207892B80937207089580959091720770
:103B500089238093720708951092720708958093C5
:103B60006007089510926007089580912001909158
:103B70002101FC0131969C01205F3F4F80E0919133
:103B800091118F5FE217F307D1F70895E0912001BB
:103B9000F0912101809173078083E0912001F091E1
:103BA0002101908180917207892B8083E09120010F
:103BB000F091210180917107809590818923808304
:103BC00080916007882361F0E0912001F09121014C
:103BD0009081892B80830E94B51D8111109260070E
:103BE00080912001909121010C942F120895089545
:103BF0000C946413882341F0EFE9FFE03197F1F76B
:103C000000C000008150F6CFA895089582E084BDE1
:103C100093E095BD9DE797BD80936E0008952FB703
:103C2000F8948091750790917607A0917707B091ED
:103C300078072FBF08959C014FB7F89480917507BE
:103C400090917607A0917707B09178074FBF821BBC
:103C5000930B089578941F920F920FB60F92112430
:103C60008F939F93AF93BF93809175079091760741
:103C7000A0917707B09178070196A11DB11D80939F
:103C8000750790937607A0937707B0937807BF9155
:103C9000AF919F918F910F900FBE0F901F9018952D
:103CA00080910A01823050F40E940E148FE19EE44C
:103CB0000197F1F700C000000E94680F0E941806EB
:103CC000FFCF1F920F920FB60F9211248F939F93E5
:103CD000AF93BF9380917907882371F08130F9F415
:103CE0008091750790917607A0917707B09178073A
:103CF0008096A11DB11D0BC080917507909176072C
:103D0000A0917707B09178074196A11DB11D8093CE
:103D1000750790937607A0937707B0937807BF91C4
:103D2000AF919F918F910F900FBE0F901F9018959C
:103D3000CF939091F907943039F1C82F0E940C0667
:103D4000C0937907C3FD02C080E401C080E6C7705C
:103D5000C82B88E190E00FB6F894A8958093600096
:103D60000FBEC09360000E94410483B7817F8460CE
:103D700083BF83B7816083BF7894889583B78E7F34
:103D800083BFCF910C940C06CF91089581E00E94DF
:103D9000981E80E00C94981E0C944F04CF93C82F6B
:103DA000CB010E940B01803819F480E090E00CC038
:103DB000EC2FF0E0FE2FEE27E050F04AE80FF11D67
:103DC000E80FF11D85919491CF9108959091C607C8
:103DD000992329F0892F880F880F890F02C0843119
:103DE00040F4662311F086958695811105C081E027
:103DF000089584E16111F7CF0895803F08F44CC025
:103E0000803F11F49FEF03C0813F21F491E0909334
:103E1000D4073BC0823F11F49FEF03C0833F21F4DE
:103E200091E09093D30731C0893F70F421E030E0F6
:103E30009CE0980F01C0220F9A95EAF79091D20763
:103E4000292B2093D20721C0893F11F491E003C0B0
:103E50008A3F21F49FEF9093D50717C08B3F11F451
:103E60009FEF03C08C3F21F491E09093D6070DC0E3
:103E700021E030E093E0980F01C0220F9A95EAF715
:103E80009091C607292B2093C607895F843020F4C0
:103E90001092C8071092C7070895803F08F473C0B6
:103EA000803F49F41092CC078091D40787FF6BC004
:103EB0001092D4070895813F39F41092CD07809174
:103EC000D4071816ACF30895823F49F41092CA073C
:103ED0008091D30787FF57C01092D3070895833F7F
:103EE00039F41092CB078091D3071816ACF30895DC
:103EF000893F88F4845F21E030E0A90102C0440FCB
:103F0000551F8A95E2F7CA0180959091D2078923BF
:103F10008093D2070895893F49F41092D007809189
:103F2000D507181684F51092D50708958A3F39F4FD
:103F30001092D1078091D50787FF25C0F4CF8B3F22
:103F400049F41092CE078091D60787FF1CC01092CB
:103F5000D60708958C3F39F41092CF078091D60789
:103F60001816ACF308958D5F21E030E0A90102C07E
:103F7000440F551F8A95E2F7CA0180959091C607B4
:103F800089238093C607089582ED97E00E943A1234
:103F90000E940F1E90937C0780937B0708950F93D8
:103FA0001F93CF93DF9380917F07882339F180910E
:103FB0007D0790917E070E941B1E4597F8F000E850
:103FC00017E0C0E0D0E080E0F80191918F019923E3
:103FD00049F0209719F484EF90E501C0CE010E94CA
:103FE000D51781E02196C634D10571F780937F07FC
:103FF0000E940F1E90937E0780937D0780917B0720
:1040000090917C070E941B1EAC019091C9079230D1
:1040100019F028E230E002C025E030E042175307F3
:1040200008F4B1C02091D3071091D407D091D507DF
:10403000C091D607812F822B8D2B8C2B19F41092D7
:10404000C907A1C0923020F49F5F9093C9079BC01D
:1040500080917A078F5F80937A078D3008F475C05E
:1040600080910F01811102C085E001C080E0809342
:104070007A07121654F48091CB078F5F8093CB0799
:1040800060E00E94E61E8093D3078091D30787FFEC
:104090000BC08091CA078F5F8093CA0760E00E94BF
:1040A000E61E81958093D307111654F48091CD07B5
:1040B0008F5F8093CD0760E00E94E61E8093D40757
:1040C0008091D40787FF0BC08091CC078F5F8093CE
:1040D000CC0760E00E94E61E81958093D4071D16F0
:1040E00054F48091D0078F5F8093D00761E00E94E5
:1040F000E61E8093D5078091D50787FF0BC080917E
:10410000D1078F5F8093D10761E00E94E61E819501
:104110008093D5071C1654F48091CF078F5F80934E
:10412000CF0761E00E94E61E8093D6078091D607F4
:1041300087FF0BC08091CE078F5F8093CE0761E031
:104140000E94E61E81958093D607D091D507C09135
:10415000D6078091C7079091C80701969093C8072A
:104160008093C70705972CF41092D5071092D607B5
:1041700004C01092C8071092C7070E94C41FD093B2
:10418000D507C093D607DF91CF911F910F91089566
:10419000E2EDF7E085E0DF011D928A95E9F71092E4
:1041A000C6070895813161F40E940E14909176063D
:1041B00081E08927809376060E94BE0481E00895FD
:1041C00080E0089580E00895CF93C82F8091D707AD
:1041D000882319F0813051F023C0E0912001F09143
:1041E0002101808182528230E8F408C0E0912001F0
:1041F000F091210180818252823068F48C2F0E94DC
:10420000100B811104C08C2F0E94D22002C081E0CB
:1042100090E0817008C08C2F0E94E22081E003C0F2
:104220001092D70780E0CF910895AA1BBB1B51E1E4
:1042300007C0AA1FBB1FA617B70710F0A61BB70B16
:10424000881F991F5A95A9F780959095BC01CD01BB
:104250000895EE0FFF1F0590F491E02D0994FB01E6
:10426000DC0104C08D910190801921F4415050402F
:10427000C8F7881B990B0895AEE0B0E0E2E4F1E2E4
:104280000C9421240D891E8986E08C831A8309836E
:104290008FEF9FE79E838D83AE01475E5F4F6F89EF
:1042A000788DCE0101960E945F212F813885F8011B
:1042B000E20FF31F10822E96E4E00C943D24ACE054
:1042C000B0E0E5E6F1E20C9413247C016B018A0175
:1042D000FC0117821682838181FFBDC1CE01019648
:1042E0004C01F7019381F60193FD859193FF819134
:1042F0006F01882309F4ABC1853239F493FD8591B0
:1043000093FF81916F01853229F4B70190E00E94FB
:104310004723E7CF512C312C20E02032A0F48B3200
:1043200069F030F4803259F0833269F420612CC096
:104330008D3239F0803339F4216026C02260246048
:1043400023C0286021C027FD27C030ED380F3A3048
:1043500078F426FF06C0FAE05F9E300D1124532E3C
:1043600013C08AE0389E300D1124332E20620CC019
:104370008E3221F426FD6BC1206406C08C3611F408
:10438000206802C0883641F4F60193FD859193FFC1
:1043900081916F018111C1CF982F9F7D95549330EA
:1043A00028F40C5F1F4FFFE3F9830DC0833631F013
:1043B000833771F0833509F05BC022C0F80180813A
:1043C00089830E5F1F4F44244394512C540115C020
:1043D0003801F2E06F0E711CF801A080B18026FF59
:1043E00003C0652D70E002C06FEF7FEFC5012C8721
:1043F0000E943C232C0183012C852F77222E17C08D
:104400003801F2E06F0E711CF801A080B18026FF28
:1044100003C0652D70E002C06FEF7FEFC5012C87F0
:104420000E9431232C012C852068222E830123FC3D
:104430001BC0832D90E048165906B0F4B70180E206
:1044400090E00E9447233A94F4CFF50127FC859130
:1044500027FE81915F01B70190E00E944723311050
:104460003A94F1E04F1A51084114510471F7E5C034
:10447000843611F0893639F5F80127FF07C06081CD
:104480007181828193810C5F1F4F08C060817181AF
:10449000072E000C880B990B0E5F1F4F2F76722E84
:1044A00097FF09C090958095709561957F4F8F4FCC
:1044B0009F4F2068722E2AE030E0A4010E947F23E3
:1044C000A82EA81844C0853729F42F7EB22E2AE0E2
:1044D00030E025C0F22FF97FBF2E8F36C1F018F4DF
:1044E000883579F0B4C0803719F0883721F0AFC033
:1044F0002F2F2061B22EB4FE0DC08B2D8460B82EFC
:1045000009C024FF0AC09F2F9660B92E06C028E07C
:1045100030E005C020E130E002C020E132E0F801E7
:10452000B7FE07C060817181828193810C5F1F4F4C
:1045300006C06081718180E090E00E5F1F4FA40192
:104540000E947F23A82EA818FB2DFF777F2E76FED2
:104550000BC0372D3E7FA51450F474FE0AC072FCC8
:1045600008C0372D3E7E05C0BA2C372D03C0BA2CAB
:1045700001C0B52C34FF0DC0FE01EA0DF11D808194
:10458000803311F4397E09C032FF06C0B394B3946E
:1045900004C0832F867809F0B39433FD13C030FF35
:1045A00006C05A2CB31418F4530C5B18B32CB31474
:1045B00068F4B70180E290E03C870E944723B394FF
:1045C0003C85F5CFB31410F43B1801C0312C34FFF7
:1045D00012C0B70180E390E03C870E9447233C85EE
:1045E00032FF17C031FD03C088E790E002C088E5C4
:1045F00090E0B7010CC0832F867859F031FF02C0DC
:104600008BE201C080E237FD8DE2B70190E00E94AD
:104610004723A51438F4B70180E390E00E944723B4
:104620005A94F7CFAA94F401EA0DF11D8081B701E5
:1046300090E00E944723A110F5CF332009F451CE1A
:10464000B70180E290E00E9447233A94F6CFF70149
:104650008681978102C08FEF9FEF2C96E2E10C9448
:104660002F24FC010590615070400110D8F780950F
:1046700090958E0F9F1F0895FC016150704001902E
:104680000110D8F7809590958E0F9F1F08950F9376
:104690001F93CF93DF93FB01238121FD03C08FEF95
:1046A0009FEF28C022FF16C04681578124813581A3
:1046B0004217530744F4A081B1819D012F5F3F4F02
:1046C000318320838C93268137812F5F3F4F37833F
:1046D000268310C0EB01092F182F0084F185E02DEF
:1046E0000995892BE1F68E819F8101969F838E83A8
:1046F000812F902FDF91CF911F910F910895FA0193
:10470000AA27283051F1203181F1E8946F936E7F10
:104710006E5F7F4F8F4F9F4FAF4FB1E03ED0B4E001
:104720003CD0670F781F891F9A1FA11D680F791F42
:104730008A1F911DA11D6A0F711D811D911DA11D53
:1047400020D009F468943F912AE0269F1124301963
:10475000305D3193DEF6CF010895462F4770405DFE
:104760004193B3E00FD0C9F7F6CF462F4F70405DAD
:104770004A3318F0495D31FD4052419302D0A9F708
:10478000EACFB4E0A6959795879577956795BA9502
:10479000C9F700976105710508959B01AC010A2EC8
:1047A00006945795479537952795BA95C9F7620F9F
:1047B000731F841F951FA01D0895F999FECF92BD08
:1047C00081BDF89A992780B50895A8E1B0E042E04C
:1047D00050E00C940524262FF999FECF92BD81BD9F
:1047E000F89A019700B4021639F01FBA20BD0FB62F
:1047F000F894FA9AF99A0FBE08950196272F0E940D
:10480000EC230C94EB23DC01CB01FC01F999FECFE6
:1048100006C0F2BDE1BDF89A319600B40D92415048
:104820005040B8F708952F923F924F925F926F9247
:104830007F928F929F92AF92BF92CF92DF92EF9230
:10484000FF920F931F93CF93DF93CDB7DEB7CA1BB1
:10485000DB0B0FB6F894DEBF0FBECDBF09942A88DC
:10486000398848885F846E847D848C849B84AA8484
:10487000B984C884DF80EE80FD800C811B81AA8111
:10488000B981CE0FD11D0FB6F894DEBF0FBECDBFDC
:08489000ED010895F894FFCF3B
:1048980008064007BB060B067206010C730E0104DE
:1048A80001370CBA0C9D0C750C4E0C010100000070
:1048B8006107424C45393830430A00424C45363688
:1048C80030430A0041542B424C45484944434F4E1B
:1048D80054524F4C4B45593D25640A0041542B42D4
:1048E8004C454849444D4F5553454D4F56453D2538
:1048F800642C25642C25642C25640A0042555454E4
:104908004F4E3D25640A0041542B424C454B4559B6
:10491800424F415244434F44453D0030302D3030E2
:104928000A00253032582D30302D253032582D25AB
:104938003032582D253032582D253032582D25301B
:1049480032582D253032580A004552524F520041F4
:10495800542B464143544F525952455345540A002B
:1049680041542B424C45484944454E3D0041542B47
:104978004741504445564E414D453D0041542B4713
:104988004150474554434F4E4E0A0041542B47412E
:104998005044454C424F4E44530A0041540A00418A
:1049A800545F4F4B004154453D300A0041542B475A
:1049B800415053544152544144560A0041542B42E9
:1049C800415544524154453D37363830300A00414C
:1049D800542B47415454434841523D310A004154F5
:1049E8002B47415454414444534552564943453D4D
:1049F800555549443D363135390A0041542B474114
:104A08005454414444434841523D555549443D302E
:104A180078324131392C50524F5045525449455300
:104A28003D31362C4D494E5F4C454E3D312C56415B
:104A38004C55453D390A0041545A0A0041542B4708
:104A4800415454434841523D312C0041542B48575E
:104A58004144433D360A0041542B424C4547455496
:104A680050454552414444520A0041542B47415055
:104A7800444953434F4E4E4543540A0041542B4733
:104A88004150534554414456444154413D30322DE0
:104A980030312D3000340A00404D3639A8045B040B
:104AA8002504EC037F039803B103CA03040A36699B
:104AB800035D032503360342004C004500360036EB
:104AC80000300043002F0042004C004500390038F8
:104AD8000030004300200028005500530042005FCA
:104AE8000044004C0031004B00290000000A035923
:104AF8000041004E00470000000403090409026D4C
:104B080000040100A0FA09040000010301010009E2
:104B18002111010001224000070581030800010955
:104B28000401000103010200092111010001224DC5
:104B380000070582030800010904020001030000C0
:104B4800000921110100012236000705830308002E
:104B58000A090403000103000000092111010001F2
:104B6800223900070584031000011201100100001A
:104B78000008EDFEC1190100010200010501090646
:104B8800A101050719E029E7150025019508750118
:104B980081020508190129059505750191029501FC
:104BA80075039101050719002977150025019578E6
:104BB80075018102C005010980A101850216010065
:104BC80026B7001A01002AB700751095018100C0A8
:104BD800050C0901A1018503160100269C021A0192
:104BE800002A9C02751095018100C005010902A1E7
:104BF800010901A1000509190129051500250195DB
:104C080005750181029501750381010501093009C6
:104C1800311581257F95027508810609381581258A
:104C28007F950175088106050C0A38021581257FD4
:104C3800950175088106C0C005010906A10105078F
:104C480019E029E7150025019508750181029501EC
:104C58007508810105081901290595057501910255
:104C68009501750391010507190029FF150026FF15
:084C780000950675088100C0DB
:106000004042EA40E940E240040005000600070083
:10601000080009000A000B000C000D000E000F0024
:1060200010001100120013001400150016001700D4
:10603000180019001A001B001C001D001E001F0084
:106040002000210022002300240025002600270034
:10605000280000F12A002B0004F02D002E002F0054
:1060600030002A003200330034003500360037009B
:1060700038002BA23A003B003C003D003E003F00B0
:1060800040004100420043004400450046004700F4
:10609000480049004A004B004C004DA34E004F0001
:1060A0005000510052005300540055005600570054
:1060B000580059005A005B005C005D005E005F0004
:1060C0006000610062006300640065008500670095
:1060D000F450F550F650F750F850F950FA506F0060
:1060E0007000710072007300890087008A008B00C5
:1060F000E000E100E200E000E600E500E700F1A1D9
:106100000F00010001000100010001000100010079
:106110000BFB010092410100010001004A004B000D
:106120000100010001000100010001000100010067
:106130006F4001000BFD010070400BFC3A003B007A
:106140003C003D003E003F00400041004200430053
:106150000100350064000BF501004400450001001A
:1061600001003100010050004F0029004D004E0099
:1061700051000100010001000100010001000100C7
:106180000100010001000100010001000100010007
:106190000100010001000100010001000100E940CF
:1061A000E240EA400100010001000100010001009D
:1061B00001000100010001000100010001000100D7
:1061C00001000100010001000100010001000100C7
:1061D00001000100010001000100010001000100B7
:1061E000010001000100010049000100010001005F
:1061F0000100010001000100010001000100010097
:106200001602FF00FF0001004C0002F001004D00EB
:106210004A003E00010001000100010001000100F0
:10622000010001000100010001003B00010001002C
:106230000100190801000100010001000100010036
:106240000100010001000100010001000100010046
:10625000010001006400390001000100010001009B
:106260000100310001000100010001004D004E005D
:1062700051000100010001000100010001000100C6
:106280000100010001000100010001000100010006
:106290000100010001000100010001000100E940CE
:1062A000E240EA400100010001000100010001009C
:1062B00001000100010001000100010001000100D6
:1062C00001000100010001000100010001000100C6
:1062D00001000100010001000100010001000100B6
:1062E00001000100010001000100010001000100A6
:1062F00001000100010001000100010003F00100A4
:106300001102FF00FF000100F2500100FB50F350AA
:10631000F550FA50010001000100010001000100E8
:106320000100010001000100F450F950F15001009A
:106330000100FC50F050F8500100F750010001003E
:106340000100010001000100010001000100010045
:106350000100010001000100010001000100010035
:106360000100010001000100010001000100010025
:106370000100010001000100010001000100010015
:00000001FF
