:100000000C94D6000C94F3000C94F3000C94F300C1
:100010000C94F3000C94F3000C94F3000C94F30094
:100020000C94F3000C94F3000C945F1A0C94881752
:100030000C94A4040C94F3000C94F3000C94F300BF
:100040000C94F3000C94F3000C94F3000C94F30064
:100050000C94F3000C94E7110C94F3000C94F3004F
:100060000C94F3000C94EE040C94F3000C94F30045
:100070000C94F3000C94F3000C94F3000C94F30034
:100080000C94F3000C94F3000C94F3000C94F30024
:100090000C94F3000C94F3000C94F3000C94F30014
:1000A0000C94F3000C94F3000C94F3009C0C9C0C47
:1000B000F90CF90C790DCF0D7F117F11B60E7F1160
:1000C0004A0D4A0D84107F117F11A3107E18A118CC
:1000D000B119A118B119EA180D19B1196E197E19C3
:1000E00028008315087432006262001F141A160477
:1000F0001D1B06202115080709190522231C170AB4
:100100000B11801E292B78797A7B2C2425180C0E54
:100110000D108031352A284C7D7E7F26271213331F
:100120000F36802D2E302F343837808080292B4A8F
:1001300079398080802108650607808080201A7ABE
:100140001B168080801E80788080808080808080E8
:10015000808080808022158019098080801F147B18
:100160001D0480808023172C050A808080260C7E49
:10017000360E80808025184D100D808080241C80D4
:10018000110B80808027127F370F8080802A804F5C
:100190007D2880808035305152318080802D137CC5
:1001A00038338080802E2F504C34800011241FBEA5
:1001B000CFEFDAE0DEBFCDBF15E0A0E0B1E0E2E8CE
:1001C000F1E402C005900D92AE30B107D9F728E0F6
:1001D000AEE0B5E001C01D92A430B207E1F70E9485
:1001E0000E060C94BF200C940000089580E0089542
:1001F0005D990BC0FC018191882339F09091C80072
:1002000095FFFCCF8093CE00F6CF08959EE088E165
:100210000FB6F894A895809360000FBE909360008D
:10022000089580B3836180BB81B38C7E81BBE0E0A5
:10023000F2E6E491A1E1B5E0EC93E0E0F3E6E491CD
:100240001196EC931197E0E0F4E6E4911296EC93AA
:10025000089514B88FEF85B9569A5E9A8091BE06BC
:10026000882331F087B18F7387B988B1806C88B9E2
:10027000089590919C05943021F180930F0583FDA2
:1002800002C098E401C098E68770892B28E130E02D
:100290000FB6F894A895209360000FBE809360007D
:1002A0000E94290181B38C7E81BB83B7817F8460EA
:1002B00083BF83B7816083BF7894889583B78E7F2F
:1002C00083BF08950E94F8000C942812CF93DF9307
:1002D000EC0186E90E947C12CE01DF91CF910C9453
:1002E0006201CF93DF93EC018FE291E00E94F8006E
:1002F000CE010E94F8008AED91E0DF91CF910C943D
:1003000066018FEF84B980E485B9569A5E98809132
:10031000BE06882331F087B1806C87B988B1806CC4
:1003200088B985E38A95F1F700000895CF93C82F27
:100330008EE391E00E946201FC01218180ED820F39
:100340008A3020F081E0809395055AC062816A333B
:1003500008F056C0408150E04053510984E6849F24
:10036000F001859FF00D112430E0205331094AE05F
:10037000429FC001439F900D11248E0F9F1F860F37
:10038000911D43E0880F991F4A95E1F78A549240E6
:10039000209104013091050123374EE0340709F420
:1003A0009C01820F931F96958795909305018093EA
:1003B00004017E9909C021E020938D0588979093D0
:1003C00005018093040102C010928D058091040103
:1003D0009091050124E0969587952A95E1F7805440
:1003E00080933305823A18F01092880509C0853948
:1003F00010F481E003C08D3918F485E080938805FE
:10040000C130A9F590913305E3E3F3E08AE521914A
:10041000921718F48A50D9F78CE22091880521119F
:10042000822F20918D05C22FC80F211103C0923C4D
:1004300008F0C4E6C09306018AE491E00E94F80047
:100440001F92CF9380E991E09F938F9385E195E090
:100450009F938F930E94D51D0F900F900F900F9038
:100460000F900F9085E195E0CF910C946201CF91B0
:1004700008959C012F5631092230310528F02A5762
:1004800031092230310588F42091860530918705A5
:10049000232B31F422E330E0309387052093860547
:1004A000909384058093830504C010928705109271
:1004B000860520919605211124C09F938F9389E58D
:1004C00091E09F938F9385E195E09F938F930E9496
:1004D000D51D85E195E00E94620142E050E061E7B0
:1004E00071E00E94C81D0F900F900F900F900F9019
:1004F0000F90892B19F410929605089581E080934E
:1005000096050895CF93DF93EC01809196058111B4
:1005100041C08C81282F082E000C330B3F938F9302
:100520008B81282F082E000C330B3F938F938A81E9
:10053000282F082E000C330B3F938F938981282F8F
:10054000082E000C330B3F938F9384E791E09F9329
:100550008F9385E195E09F938F930E94D51D85E150
:1005600095E00E94620142E050E061E771E00E9484
:10057000C81D2DB73EB7245F3F4F0FB6F8943EBF5E
:100580000FBE2DBF892B19F41092960503C081E090
:10059000809396058091960581112BC0888190915A
:1005A0001405891731F1809314051F928F9384E904
:1005B00091E09F938F9383E295E09F938F930E94A6
:1005C000D51D85E195E00E94620142E050E061E7BF
:1005D00071E00E94C81D0F900F900F900F900F9028
:1005E0000F90892B19F41092960503C081E0809337
:1005F0009605DF91CF910895CF93DF93C82FD091C7
:10060000B9061092B9060E94EC0BC631A9F170F43C
:10061000C23139F130F4C53009F44AC0CC3009F1A7
:10062000B8C0C33199F1C531F9F0B3C0CA31B1F1E5
:1006300030F4C83159F0C93109F459C0AAC0CC3BD3
:1006400009F472C0C03C09F48EC0A3C080911F01A0
:10065000882309F49CC09091240190589093240120
:1006600099C0C0938C0593C0D0FF93C0C0938C05F4
:1006700081E0809309018EC080910901811102C03F
:1006800081E001C084E68093090181C090911E0140
:1006900081E0892780931E0160E043C0D0FD02C045
:1006A00061E001C06DEB80E290E00E94391DFFCF58
:1006B0008D2F837251F0DD7DD13031F48BE29CEFD0
:1006C0009093010880930008FFCFDC3039F48AEA68
:1006D0009BEB9093050880930408FFCF82E39FE093
:1006E0000E94F11582E39FE10E94F11550C08091B4
:1006F000060160E090E00E940816D0FF0BC08DE27A
:1007000090E00E94F11560E0809104019091050154
:100710000E9408168DE290E00E94F11560E0809141
:1007200091050E94FD1533C08FE991E00E9462019E
:10073000FC018081813359F58EEA91E00E946201CB
:10074000FC0182818A3319F581E0809394058093BE
:1007500009011092910591E1A2E7B5E001900D9297
:100760009A95E1F717C080912501811110C05D9A1B
:100770008091C900877F8093C9008AE080931E0121
:100780001092910560E070E0CB010E94341381E08B
:1007900001C080E0DF91CF9108950F931F93CF9315
:1007A000DF9310920E0520E061E070E08091340547
:1007B000281708F0A2C0A22FB0E0ED0183E0CC0F13
:1007C000DD1F8A95E1F780E090E0022F0770AB5CB7
:1007D000BA4F122F18703091BE06FC01EC0FFD1FAE
:1007E000332319F0E55DFE4F02C0E551FF4FE49160
:1007F000E03809F47BC035B1307C302BAC01E3E04C
:10080000440F551FEA95E1F7342B35B93091BE06F8
:10081000332341F038B13F73112311F0306401C02C
:10082000306838B938E03A95F1F72F9A3AE13A95BD
:10083000F1F700C02E9838E03A95F1F74F9B0CC0C5
:10084000AB01082E01C0440F0A94EAF7342F30950B
:100850004C9134233C9312C03091970531110EC056
:1008600030910E053F5F30930E053C91AB01082E91
:1008700001C0440F0A94EAF7432B4C933C91332375
:1008800061F030911E01323028F410929A051092D6
:10089000990503C03A3008F44FC03DE03A95F1F7AE
:1008A00000002F982E9A30919705332359F03AE1A2
:1008B0003A95F1F700C02730C9F48630B9F41092A8
:1008C00097053CC030911E01323028F032E43A9551
:1008D000F1F700C00BC03091BE06332321F030E5A4
:1008E0003A95F1F703C038EC3A95F1F70196883064
:1008F000910509F070CF2F5F59CF80911E018A308A
:10090000E8F080910E058230C9F480913A05803478
:1009100021F480913E05803441F08091360580328B
:1009200069F480913905803249F480911F01811169
:1009300003C08AE10E94FC0284E601C081E0DF91ED
:10094000CF911F910F9108951F920F920FB60F92A2
:1009500011248F939F93AF93BF9380910F058130A4
:1009600061F48091BA069091BB06A091BC06B0914B
:10097000BD068096A11DB11D0DC0811113C08091CF
:10098000BA069091BB06A091BC06B091BD064196F7
:10099000A11DB11D8093BA069093BB06A093BC061F
:1009A000B093BD06BF91AF919F918F910F900FBEF5
:1009B0000F901F9018951092B9060E94EC0B809131
:1009C0001E01823050F48FE19EE40197F1F700C0E0
:1009D00000000E94E1190E940601FFCF1F920F92B2
:1009E0000FB60F9211242F933F934F938F939F93A2
:1009F000EF93FF938091C90790E09C012F5F3F4FD9
:100A00004091C807421741F03091CE00FC01E853F5
:100A1000F94F30832093C907FF91EF919F918F91F8
:100A20004F913F912F910F900FBE0F901F901895EF
:100A3000CF93DF93E1E1F5E020E030E070E0A1E06A
:100A4000B0E0422F882329F09081981B983090F5D0
:100A500001C0922FEB0102C0D595C7959A95E2F798
:100A6000C0FF13C0413021F0423021F08C9A03C006
:100A7000899A01C0889A90911005AD01022E01C09B
:100A8000440F0A94EAF7492B13C0413021F0423059
:100A900021F08C9803C0899801C08898AD01022E7E
:100AA00001C0440F0A94EAF740959091100549233C
:100AB000409310052F5F3F4F31962330310509F6E3
:100AC000DF91CF91089560919D0585E10C94180503
:100AD0006091100580E00C941805CF92DF92EF92A0
:100AE000FF921F93CF93DF9320919105222309F466
:100AF0007EC02091960521117AC0EC0181EC91E035
:100B00000E94F800209759F485ED91E0DF91CF9194
:100B10001F91FF90EF90DF90CF900C9462018F8136
:100B20001F928F938E811F928F938D811F928F932F
:100B30008C811F928F938B811F928F938A811F923A
:100B40008F9388811F928F938CED91E09F938F9369
:100B500085E195E09F938F930E94D51D85E195E0F7
:100B60000E94620145E050E063E072E00E94C81D0F
:100B70002DB73EB72E5E3F4F0FB6F8943EBF0FBE67
:100B80002DBF892B21F481E08093960502C010923D
:100B90009605888181112BC08A81833531F0893394
:100BA00031F0873421F512E103C010E101C011E1F9
:100BB00081E1E82E85E0F82EC0E0D0E0CC24C3949B
:100BC000D12CF70181917F0181130DC02091100577
:100BD000C6010C2E01C0880F0A94EAF78227809381
:100BE00010050E9468052196C330D10551F7DF91A9
:100BF000CF911F91FF90EF90DF90CF90089580915B
:100C00001E01843048F081B3836181BB88EC0E946F
:100C10007C1281E0809309010C946805CF93DF93E7
:100C200000D000D01F92CDB7DEB790E080E80FB6BD
:100C3000F89480936100909361000FBE85988D9A1F
:100C40006A98729A81E00E947C128CB182FB99278B
:100C500090F981E089278093BE06E4EBFEE7E491FA
:100C6000E03A11F07D9921C05198599A8091040879
:100C7000909105088A3A9B4BC1F410920508109296
:100C80000408519A5998559A5D9880B3816180BB48
:100C900081B3816181BB4FEF81E19AE74150804090
:100CA0009040E1F700C0000083C00E94001A7894D1
:100CB00080E290E00E94311D8D3B11F410921F01E3
:100CC0001FEF80919C051150843029F083E00E9431
:100CD0007C121111F6CF80911F01882309F478C08E
:100CE000559A5D9882E084BD93E095BD9DE797BDE0
:100CF00080936E00F89487E68093CC001092CD002C
:100D00008091C90080698093C9008091C900886082
:100D10008093C9008091CA008093CA008091C80066
:100D200082608093C800789489E092E00E94660116
:100D300089E092E00E946201FC018081813421F40B
:100D400081818435B9F505C08F34A1F581818B345B
:100D500089F58DE092E00E94660189E092E00E94B0
:100D600066018EE192E00E9466018091BE068823B2
:100D700019F085E292E002C082E392E00E947101E4
:100D80008CE392E00E9466018BE492E00E9466018F
:100D90008BE592E00E9466018BE692E00E9466017C
:100DA00088E892E00E94660184EC92E00E9466016D
:100DB0000E94DB04F8948CE08093CC00789489E066
:100DC00092E00E94660186988E9A81E00E949601C8
:100DD00082E084BD93E095BD9DE797BD80936E0052
:100DE00080910408909105088A3A9B4B41F4109237
:100DF0000508109204088DE092E00E9466018FEFD2
:100E000084B980E485B957985F9A8091BE0688239B
:100E100019F087B1806C02C087B18F7387B988B130
:100E2000806C88B92E9A2F980E9481018091BE060D
:100E3000811102C088E001C080E1809334050E94E6
:100E400011010E94060103EF10E03AE0E32E31E0C9
:100E5000F32E44E1C42E41E0D42E5CEEA52E809109
:100E60001E01843008F03CC3A895823008F04AC1C6
:100E70000E94CD0395E3892E95E0992E22E6622EFD
:100E800025E0722E512CF40121904F01F3013080A6
:100E9000322441F45394FFEF6F1A7F0A20E152127B
:100EA000F2CF21C0412CBB24B394832D8B21A9F018
:100EB00049825A8291E0822D8B2109F490E09B8334
:100EC0000E941C1281609D838C83CE0101960E943A
:100ED000AC16F30180818B2580834394BB0CF8E032
:100EE0004F12E3CFD7CF80E090E00E94AC16809104
:100EF0009F05882309F43FC08091470590914805DC
:100F00000E940D122091080130E02817390798F54A
:100F10000E94211D8F70825E8093080180EA882ED6
:100F200085E0982E612C712C90E0F40181914F01A5
:100F3000882361F0662011F0C30102C084EF90E5C0
:100F40006091070170E00E94D61591E0FFEF6F1AE3
:100F50007F0A26E46216710441F72091070181E0BF
:100F600082278093070190939F050E941C12909303
:100F70004805809347058091C1069091C2060E9462
:100F80000D12AC0190914605923019F028E230E044
:100F900002C025E030E04217530708F458C0909093
:100FA000C606B090C7062091C4068091C506822B64
:100FB00089298B2919F41092460549C0923020F4F2
:100FC0009F5F9093460543C080919B058F5F809300
:100FD0009B058F7021F01092C6061092C7060E94E2
:100FE00069129092C606B092C706809145058F5F40
:100FF000809345058D3058F18091240187FD02C012
:1010000080E001C085E0809345059091E805292F97
:10101000220F220F290FE3ECF6E034E181818823CF
:1010200089F0992311F021830DC018162CF48F5FDD
:1010300085312CF0318306C081508C3E14F08183C1
:1010400001C0A182319646E0E73CF40739F7809170
:1010500061058823C9F080915F05909160050E9429
:101060000D128C34910580F010925E0580914A0536
:101070008B3C41F480914B058B3B21F48DE495E052
:101080000E947101109261050E947C1790914905A0
:101090008917C1F10E947C17682F8093490584FF4E
:1010A0002CC0B0906105EB2DF0E0E65BFA4F80813B
:1010B000880F880F6370682B60830E941C129093C6
:1010C000600580935F0580915E058F5F80935E056C
:1010D0008430C0F080914A058B3C39F481E08B1557
:1010E00020F087E490E00E94F11510925E05809157
:1010F00061058F5F8093610505C080E10E9418053E
:101100000E94630590919C0581E0943009F080E095
:1011100080932501809124012091BF063091C00663
:1011200087FF0BC02451314021F1D092C006C092FC
:10113000BF0680919D058D7F0AC02A50314061F025
:10114000F092C006E092BF0680919D058260809378
:101150009D050E9463050DC0943059F090911F01C8
:10116000992321F080688093240103C08CE0809350
:101170001E0180911F01882309F4B2C15D9957C1F6
:10118000809196058823B1F089E092E00E94620187
:1011900042E050E061E771E00E94C81D892B39F4FC
:1011A0001092960580E090E00E946D0503C081E0FA
:1011B00080939505809195058823B1F00E942812AF
:1011C0004C0142E050E061E771E00E94C81D892BAC
:1011D00059F045E050E063E072E0C4010E94C81D90
:1011E000892B11F01092950580911E01823031F407
:1011F00081E00E94960183E080931E018091940516
:10120000882341F18FE991E00E946201FC01808115
:10121000813301F58EEA91E00E946201FC01228196
:101220002A33C1F441E150E062E775E00E94C81D35
:10123000892B31F01092940581E0809391050AC0CA
:1012400087ED92E00E946201809109018F3010F0D9
:1012500010929405809195058111A3C0809192050B
:10126000909193050E940D12893E934008F499C015
:101270000E941C1290939305809392058091910592
:10128000811105C080919405811137C008C08091FB
:1012900090058F5F809390058370A1F345C08FE91F
:1012A00091E00E946201FC018081813321F481E0A0
:1012B000809391051CC08033E9F4109291058091D0
:1012C0008F058F5F80938F0590912501911115C037
:1012D00090911E01992389F08A3578F05D9A80916A
:1012E000C900877F8093C90084E080931E0110921B
:1012F0008F0503C081E080939505809109018823C3
:1013000099F0843629F4109209010E9468050CC0F6
:101310008F5F80930901843120F4809191058823A7
:1013200019F084E68093090180918E058F5F809388
:101330008E05877021F480918D050E949601809121
:10134000250181112EC08091090181112AC080914F
:10135000990590919A05019690939A058093990525
:1013600020911E01213049F4039738F080E090E08D
:101370000E946D0582E080931E0180911E018330E2
:1013800081F48091990590919A058832934248F0B2
:1013900084E080931E015D9A8091C900877F8093CD
:1013A000C90080918C058823F9F08C3099F0823146
:1013B00019F484E093E010C0853181F48BE592E06C
:1013C0000E9466018FE193E00E9466018CE392E047
:1013D0000E94660189EE92E00E94620110928C05E3
:1013E0008EE293E00E9462018091860590918705CC
:1013F0000097E9F08230910530F0019790938705CE
:101400008093860514C0209185052F5F2093850564
:10141000809183059091840530E0A801481B590B09
:101420002417350720F0109285050E94390280911B
:101430001E01823008F0B6C080918A0590918B051C
:101440000E940D128739910508F4A9C00E941C1250
:1014500090938B0580938A05809189058F5F809397
:101460008905909188059923D1F0843008F497C0BC
:10147000913011F080E001C083E0809389057E9B6C
:1014800009C08C9B03C081B38C7E02C081B3836191
:1014900081BB26C0109288050E94FF0521C0909153
:1014A0000901992309F47BC0813021F481B38C7F39
:1014B00081BB08C0833031F4889A809191058823DC
:1014C00029F0899A80919105811104C08091890544
:1014D000853020F4809189058B3010F010928905B9
:1014E000B0901E0121E02B1548F080911F01811161
:1014F000B6CC80919C05843009F4B1CC80E00E9488
:10150000390181E00E9439010E94060143E04B1538
:1015100038F4809198058F5F803588F01092980597
:101520000E948101BB24B394B09297050E94CD0321
:101530000E94CD03843631F00E94290190CC809323
:1015400098058DCC10929A05109299050E94FF057E
:10155000B0921E0180911F01882339F05D9880911F
:10156000C90088608093C9007ACC80919C05853041
:1015700009F075CC19BC82E089BD09B400FEFDCF2D
:101580008091D8008F7D8093D8008091E0008260A8
:101590008093E0008091E00081FDFCCF60CCB090B2
:1015A0001E01A3CFB82EAACF882389F19CEF980FF4
:1015B000913A20F090E5980F9E3220F460E00E946E
:1015C000881214C090E2980F983090F4877021E050
:1015D00030E0A90102C0440F551F8A95E2F7CA0105
:1015E00080959091B90689238093B9060C94C21214
:1015F0009BE5980F933020F480E090E00C94661700
:10160000885A873120F480E090E00C9450170895B8
:10161000CF93882309F45AC0803B29F488EE90E0E8
:10162000CF910C9438162CEF280F213A20F020E5AA
:10163000280F2E3280F5C82F8091E70581113FC019
:101640008091E605882319F0813039F01EC0809121
:10165000E9058252823098F505C08091E9058252F1
:101660008230B0F48C2F0E94FC02811108C0C1317D
:1016700041F49091240180E189278093240181E045
:1016800001C080E0982F917003C01092E60517C04A
:1016900091111CC014C090E2980F9830B8F4877074
:1016A00021E030E0A90102C0440F551F8A95E2F7FE
:1016B000CA019091B906892B8093B90604C061E0F4
:1016C0008C2F0E948812CF910C94C212CF91089552
:1016D000CF92DF92EF92FF920F931F93CF93DF93FE
:1016E000CDB7DEB72A970FB6F894DEBF0FBECDBFD9
:1016F0004E835F83688779878A8785E0FE01369607
:10170000DE01119601900D928A95E1F7CE80DF807F
:1017100088850D2D10E0EC2CF12C882391F0C982E6
:10172000DA8289819A810E94F212F80193E0EE0F29
:10173000FF1F9A95E1F7E750FA4FEE0DFF1D8083EA
:101740000BC083E0000F111F8A95E1F707501A4F75
:10175000F801EE0DFF1D8081C982DA8269817A81EC
:101760000E94BE11292F2F7092959F709C3030F4EB
:101770009A30A0F49250923030F01EC09C30A9F004
:101780009F3099F019C0853A28F4843098F482305B
:1017900028F410C090E2980F983060F0843060F028
:1017A000853A40F0803F41F405C0822F86958695AA
:1017B000869503C081E001C080E02A960FB6F894B8
:1017C000DEBF0FBECDBFDF91CF911F910F91FF9074
:1017D000EF90DF90CF9008951092B80680E1E9EE87
:1017E000F5E0DF011D928A95E9F70E94C212E3EC51
:1017F000F6E085E0DF011D928A95E9F71092E80591
:101800000E94691280E090E00E94661780E090E0FC
:101810000C945017882341F080959091B906892344
:101820008093B9060C94C2120895882339F09091E0
:10183000B906892B8093B9060C94C21208958F9231
:101840009F92AF92BF92CF92DF92EF92FF920F934F
:101850001F93CF93DF93CDB7DEB763970FB6F8949E
:10186000DEBF0FBECDBF6C0185E0F601DE011C9628
:1018700001900D928A95E1F7F60123813481EC8481
:101880001D852115310539F01F3F39F491E0FFEF37
:10189000EF1203C003C091E001C090E090FD2FC59E
:1018A000F6010281F580F2945FE0F52222303105E5
:1018B000B9F10E87388B2F8785E0FE013C96DE015B
:1018C000179601900D928A95E1F7A12EB12C8E2CDE
:1018D000912C002389F08F8198850E94F212950146
:1018E00043E0220F331F4A95E1F727503A4FF901A1
:1018F000E80DF91D80830CC0C50123E0880F991FF6
:101900002A95E1F787509A4FFC01E80DF91D808177
:10191000EF8218876F8178850E94BE11182F02C050
:101920001C859D85E92FE295EF704E2F50E0FA015E
:10193000EA5AFF4F0C94C21D892F807F9F70F92EA9
:10194000882319F0F29480EFF8229091B7060023D3
:1019500049F18091B9068F21892B8093B706FF202A
:1019600061F0112319F081E08093E7059091B806AA
:10197000F92AF092B8060E94C212812F63960FB620
:10198000F894DEBF0FBECDBFDF91CF911F910F91B5
:10199000FF90EF90DF90CF90BF90AF909F908F908F
:1019A0000C94080B0F2D0095892F80238093B70688
:1019B0001092E705812F0E94D40AFF2009F49FC4EA
:1019C0008091B80608230093B80663960FB6F89482
:1019D000DEBF0FBECDBFDF91CF911F910F91FF9062
:1019E000EF90DF90CF90BF90AF909F908F900C942E
:1019F000C212892F807F9F70803211F4892F03C01B
:101A0000892F8295807F112319F01130A1F023C016
:101A1000002341F0FF2051F1F1E0FF1227C0809335
:101A2000B5066DC4FF2021F001E0F01609F467C48B
:101A30001092B506AAC2002349F012E01F1508F45F
:101A40005EC49091B906982389F09FC221E02F15BA
:101A500008F455C49AC2002309F447C0FF2031F0AE
:101A6000F601958190FF26C09F70958363960FB60F
:101A7000F894DEBF0FBECDBFDF91CF911F910F91C4
:101A8000FF90EF90DF90CF90BF90AF909F908F909E
:101A90000C94150C103F09F48CC208F061C2103E82
:101AA00008F067C2002309F4FCC2FF2009F4E3C276
:101AB00093FDDDC2812F0E94080B193309F01FC46A
:101AC00082E363960FB6F894DEBF0FBECDBFDF9101
:101AD000CF911F910F91FF90EF90DF90CF90BF902B
:101AE000AF909F908F900C947C12FF2009F44DC210
:101AF000E0C2892F86958695837019F08130E1F0D8
:101B0000FEC3002319F0812F937002C080E090E0A3
:101B100063960FB6F894DEBF0FBECDBFDF91CF91B5
:101B20001F910F91FF90EF90DF90CF90BF90AF90FB
:101B30009F908F900C9450170023D9F0212F392FAC
:101B400033702115F3E03F0794F082EE90E00E949D
:101B5000381660E0812F82958F700E94FD1560E03D
:101B6000812F8F700E94FD1580EE90E0D8C2C901D0
:101B700002C080E090E063960FB6F894DEBF0FBE1F
:101B8000CDBFDF91CF911F910F91FF90EF90DF902C
:101B9000CF90BF90AF909F908F900C9466170023CA
:101BA00009F45CC0103F08F44BC0103F11F48FEFF4
:101BB00003C0113F21F481E08093C5063BC0123F72
:101BC00011F48FEF03C0133F21F481E08093C4062A
:101BD00031C0193F70F481E090E02CE0210F01C08A
:101BE000880F2A95EAF79091C306892B8093C30644
:101BF00021C0193F11F481E003C01A3F21F48FEF97
:101C00008093C60617C01B3F11F48FEF03C01C3F23
:101C100021F481E08093C7060DC081E090E023E0CD
:101C2000210F01C0880F2A95EAF79091E805892BCA
:101C30008093E80587E0810F843010F410929B05B3
:101C40000E946912163408F05AC3E12FF0E0E05602
:101C5000FA4F81E0808380939F0551C3103F08F4C1
:101C60005FC0103F39F48091C50687FF59C01092BC
:101C7000C50656C0113F29F48091C5061816BCF35D
:101C80004FC0123F39F48091C40687FF49C01092BB
:101C9000C40646C0133F29F48091C4061816BCF34D
:101CA0003FC0193F78F481E090E02CE0210F01C0A3
:101CB000880F2A95EAF780959091C306892380932F
:101CC000C3062EC0193F39F48091C606181644F594
:101CD0001092C60625C01A3F29F48091C60687FFD8
:101CE0001FC0F6CF1B3F39F48091C70687FF18C08D
:101CF0001092C70615C01C3F29F48091C70618161C
:101D0000BCF30EC081E090E023E0210F01C0880FFA
:101D10002A95EAF780959091E80589238093E80554
:101D20000E946912163408F0EAC2212F30E0F9014E
:101D3000E056FA4F1082112311F0C90102C084EF5E
:101D400090E560E063960FB6F894DEBF0FBECDBF9E
:101D5000DF91CF911F910F91FF90EF90DF90CF9087
:101D6000BF90AF909F908F900C94D615892F837061
:101D700009F081C00111C3C2812F829586958770B9
:101D8000880F880F412F4F7050E060E070E06A01CB
:101D90007B01082E04C0CC0CDD1CEE1CFF1C0A9439
:101DA000D2F714FF10C04FE050E060E070E004C0D4
:101DB000440F551F661F771F8A95D2F7409550959F
:101DC0006095709503C040E050E0BA0196959695F5
:101DD00093700091200110912101209122013091F6
:101DE0002301923099F0E8F4913059F04C295D29A3
:101DF0006E297F29CB01BA016023712382239323AB
:101E000026C0C02AD12AE22AF32A1BC04C295D2908
:101E10006E297F29CB01BA0160277127822793277A
:101E200016C0CB01BA0160237123822393230E9441
:101E300086134091200150912101609122017091FF
:101E40002301CB01BA016C297D298E299F29639634
:101E50000FB6F894DEBF0FBECDBFDF91CF911F91BB
:101E60000F91FF90EF90DF90CF90BF90AF909F9039
:101E70008F900C948613002319F0892F817001C074
:101E80008695882309F43BC2812F829586958770B9
:101E9000880F880F412F4F7050E060E070E06A01BA
:101EA0007B01082E04C0CC0CDD1CEE1CFF1C0A9428
:101EB000D2F714FF10C04FE050E060E070E004C0C3
:101EC000440F551F661F771F8A95D2F7409550958E
:101ED0006095709503C040E050E0BA0196959695E4
:101EE00093700091B1061091B2062091B306309123
:101EF000B406923099F0E8F4913059F04C295D29FC
:101F00006E297F29CB01BA01602371238223932399
:101F10009AC0C02AD12AE22AF32A1BC04C295D2983
:101F20006E297F29CB01BA01602771278227932769
:101F30008AC0CB01BA0160237123822393230E94BC
:101F400034134091B1065091B2066091B30670917E
:101F5000B406CB01BA016C297D298E299F2973C053
:101F6000123F09F456C008F44FC0133F09F456C09D
:101F700099CD1F70892F8F71002321F00E94651366
:101F8000812F74CD0E944013812F63960FB6F89471
:101F9000DEBF0FBECDBFDF91CF911F910F91FF909C
:101FA000EF90DF90CF90BF90AF909F908F900C9468
:101FB0000A0C002321F101E00F1508F4A0C1292F1C
:101FC0002F7181E090E0A0E0B0E0AC01BD0104C061
:101FD000440F551F661F771F2A95D2F78091B106CF
:101FE0009091B206A091B306B091B4068A019B010C
:101FF000082719272A273B27C901B80124C012E066
:102000001F1508F47CC1DBCF002329F0892F8F71C5
:1020100034C00023D9F3892F8F7162C0002381F06F
:10202000292F2F7181E090E0A0E0B0E0BC01CD014C
:1020300004C0660F771F881F991F2A95D2F703C027
:1020400060E070E0CB0163960FB6F894DEBF0FBE80
:10205000CDBFDF91CF911F910F91FF90EF90DF9057
:10206000CF90BF90AF909F908F900C943413F60157
:10207000858180FF1FCD892F877063960FB6F894F6
:10208000DEBF0FBECDBFDF91CF911F910F91FF90AB
:10209000EF90DF90CF90BF90AF909F908F900C9477
:1020A0006513FF20D9F093FF04C0F601858180FD00
:1020B00015C0812F63960FB6F894DEBF0FBECDBF5B
:1020C000DF91CF911F910F91FF90EF90DF90CF9014
:1020D000BF90AF909F908F900C94D40A892F8770F7
:1020E00063960FB6F894DEBF0FBECDBFDF91CF91E0
:1020F0001F910F91FF90EF90DF90CF90BF90AF9026
:102100009F908F900C944013111107C0F6018281AB
:10211000882319F080E09FE502C080E090E063969C
:102120000FB6F894DEBF0FBECDBFDF91CF911F91E8
:102130000F91FF90EF90DF90CF90BF90AF909F9066
:102140008F900C943816092F0F708091B906F60104
:1021500022811130C1F028F0143031F1153061F1D5
:1021600036C0222391F0292F227090FD206228236F
:1021700021F080FD02C085E310C0902F9470892368
:1021800049F489E20AC0211103C080919E051BC059
:1021900082FF02C08DE301C081E280939E058091A1
:1021A0009E050E94080B11C0222321F0827279F44F
:1021B0008CE2F7CF8CE207C0222321F085FD07C017
:1021C00082E5EFCF82E50E94D40A0E94C212F60196
:1021D0008281882309F493C0133001F1C8F41230CE
:1021E00009F08DC085E090E063960FB6F894DEBFED
:1021F0000FBECDBFDF91CF911F910F91FF90EF9058
:10220000DF90CF90BF90AF909F908F900C94FC0286
:102210001B3021F1113109F46BC071C090919D0503
:1022200081E0892780939D059091B60688E88927EB
:102230008093B60663960FB6F894DEBF0FBECDBF8F
:10224000DF91CF911F910F91FF90EF90DF90CF9092
:10225000BF90AF909F908F900C9463050C3091F4D9
:1022600080919C05843071F081B3836181BB88ECDF
:102270000E947C12889886E90E947C12899886E9DF
:102280000E947C1286E0E6E2F1E0DE011196019008
:102290000D928A95E1F780912C0190912D01A091EA
:1022A0002E01898B9A8BAB8B802F90E00B3028F01E
:1022B000FE01E80FF91F868107C0E1E0F0E0EC0FB6
:1022C000FD1FE80FF91F808163960FB6F894DEBFFB
:1022D0000FBECDBFDF91CF911F910F91FF90EF9077
:1022E000DF90CF90BF90AF909F908F900C94FC02A6
:1022F0008F9B03C0879A8F9802C087988F9A6396A6
:102300000FB6F894DEBF0FBECDBFDF91CF911F9106
:102310000F91FF90EF90DF90CF90BF90AF909F9084
:102320008F900895EF92FF920F931F93CF93DF93B7
:102330007C018B010E944D1B811119C0E701011521
:102340001105A1F08091E80085FD0AC08091E800A8
:102350008E778093E8000E944D1B882381F307C08D
:1023600089918093F10001501109E9CF80E0DF915C
:10237000CF911F910F91FF90EF9008959091BE061D
:10238000E72FF0E070E023E0EE0FFF1F2A95E1F762
:10239000992329F0E60FF71FE55DFE4F05C06E0F8C
:1023A0007F1FFB01E551FF4F6491603819F480E015
:1023B00090E00895E82FF0E0FE2FEE27E050F04A7D
:1023C000E60FF11DE60FF11D859194910895789423
:1023D0001F920F920FB60F9211248F939F93AF937A
:1023E000BF938091BA069091BB06A091BC06B091B4
:1023F000BD060196A11DB11D8093BA069093BB0640
:10240000A093BC06B093BD06BF91AF919F918F91F1
:102410000F900FBE0F901F9018959C014FB7F89426
:102420008091BA069091BB06A091BC06B091BD0602
:102430004FBF821B930B08952FB7F8948091BA0673
:102440009091BB06A091BC06B091BD062FBF089528
:102450000F931F93CF930E941C128C01C0E0C80100
:102460000E940D128436910548F52091C80780918D
:10247000C907821709F130E0F901E853F94F80816B
:102480002F5F3F4F2093C80790E08D309105A1F05A
:102490002C2F30E08A30910551F4C23030F0F90130
:1024A000E853F84F80818F3449F08FE590E0F901CF
:1024B000E653F84F8083CF5FC73188F2EC2FF0E00E
:1024C000E653F84F10828AEC97E0CF911F910F915D
:1024D0000895E091BF06F091C006309731F0048076
:1024E000F581E02D83EC96E009950E941C129093F3
:1024F000C2068093C1060895882341F0EFE9FFE00A
:102500003197F1F700C000008150F6CFA8950895EB
:102510009091240191799131D9F4E82FE695E695CF
:10252000E695EF3070F5F0E0282F277081E090E01D
:1025300001C0880F2A95EAF7E751FA4F662319F090
:102540009181892B03C0809591818923818308958E
:10255000AAEFB5E0EFEF9EE02E91222331F0821337
:1025600005C061110EC01C9201C0E92F9150A0F767
:10257000662339F00E2E000CFF0BE751FA4F8283D1
:10258000089508959091B9068091B806892B90918D
:10259000B706909589239091B606909589238093EC
:1025A000E9059091B506992381F0892B8093E9057F
:1025B000EAEEF5E080E0919191118F5F95E0E93FBF
:1025C000F907C9F781111092B506E091BF06F091A5
:1025D000C006309731F00280F381E02D89EE95E05E
:1025E00009940895BF92CF92DF92EF92FF920F93DA
:1025F0001F93CF93DF938C01C090B106D090B206A9
:10260000E090B306F090B4068091200190912101F2
:10261000A0912201B0912301C82AD92AEA2AFB2AD3
:10262000CFE1D0E0D701C6010C2E04C0B695A79526
:10263000979587950A94D2F780FD04C0219790F76B
:10264000B12C07C0BC2EB8018C2F0E94BE1101977F
:10265000A9F38B2DDF91CF911F910F91FF90EF90F8
:10266000DF90CF90BF9008956093B1067093B2064B
:102670008093B3069093B406669581E00C94180598
:102680000F931F9341E050E060E070E004C0440FFE
:10269000551F661F771F8A95D2F740955095609514
:1026A00070958091B1069091B206A091B306B09159
:1026B000B4068A019B01082319232A233B23C9015D
:1026C000B8011F910F910C9434130F931F9341E0A5
:1026D00050E060E070E004C0440F551F661F771F94
:1026E0008A95D2F78091B1069091B206A091B30677
:1026F000B091B4068A019B01082B192B2A2B3B2B86
:10270000C901B8011F910F910C94341360932001FB
:10271000709321018093220190932301669589E0B3
:102720000C9418058091B00690917F06891719F0D6
:102730008F5F8770FBCF08950F931F93CF93DF9325
:1027400080917E0682958F7009F05DC080917B0636
:10275000882309F458C08091B00610917F066091DB
:10276000790670917A06C0917C06D0917D0691E041
:102770006F3F09F090E0292F06E0811709F443C06C
:10278000209721F07F3F21F030E003C031E001C00D
:10279000322F90E030FD34C0089FF001099FF00D0A
:1027A0001124DF01A058B94F11963C9111973713AE
:1027B00027C03C91361324C012963C9112973111D8
:1027C0001FC013964D915C9114974C1B5D0B483CB8
:1027D0005105B0F480917E068F70806180937E06F3
:1027E000EB57F94F80818F708061808389E796E095
:1027F0000E941F0CDF91CF911F910F910C949213A7
:1028000001968770BACFDF91CF911F910F910895F4
:102810008F929F92AF92BF92CF92DF92EF92FF92F0
:102820000F931F93CF93DF93CDB7DEB766970FB6A5
:10283000F894DEBF0FBECDBF7C0185E0F701DE015D
:10284000529601900D928A95E1F7F70140815181EE
:10285000D280838094809091790660917A0620914D
:102860007C0630917D062115310531F06F3F31F442
:1028700081E09F3F19F403C081E001C080E0F82FA0
:10288000F170CF2E80FD2BC179E7A72E76E0B72E11
:1028900010917B06F401E21BF30B112309F4D4C061
:1028A00080917E06E83CF10508F09EC0282F207F2D
:1028B00009F050C0651311C094130FC01D2DD11025
:1028C0000CC08F70806180937E06C5010E941F0C32
:1028D00080917E06F701858355C1892831F05F3FDD
:1028E00031F481E04F3F19F403C081E001C080E082
:1028F00080FD03C081E08D2502C080E090E0F82FCC
:10290000F170BF2E80FF1CC08091B00620917F0621
:1029100036E0821709F4F4C090E0389FF001399F47
:10292000F00D1124E058F94F6181561306C0608103
:10293000461303C06281D61203C001968770E9CFA7
:102940001D2DDD2009F41EC180917E0681608093DB
:102950007E0656C0651306C0941304C0D11002C091
:10296000F70195C04A8B5B8BDC8A782D9E8A8D8A15
:102970006D2D8E890E94680B882389F1DD2079F105
:1029800020917E06822F82958F7090E0029774F0DE
:102990008091790690917A0698878F8319869B8615
:1029A0008A862C87CE0107960E941F0C86E0F701CD
:1029B000A9E7B6E001900D928A95E1F70E949C1379
:1029C00011C06517F9F04A8B5B8BDC8A782D9E8AE3
:1029D0008D8A6D2D8E890E94680B81111DC0C701E3
:1029E0000E941F0C11E0CEC0282F207F51F789E7ED
:1029F00096E00E941F0C86E0F50111928A95E9F796
:102A000010E0C0C09413DFCFD110DDCFF701858374
:102A1000C7010E941F0C5DC0DD2009F320917E06D6
:102A2000822F82958F7090E002970CF4BFCF809137
:102A3000790690917A069A8389831B829D828C8283
:102A40002E83CE010196B0CFE83CF10508F041C0DD
:102A50001D2DDD2021F2651327C0941325C0209180
:102A60007E0620FD18C0822F82958F70482F50E07F
:102A70004115510581F0F70125834F30510541F093
:102A80008F5F982F9295907F822F8F70892B8583EF
:102A9000C7010E941F0C86E0F701A9E7B6E001908C
:102AA0000D928A95E1F76EC04A8B5B8BDC8A782D9C
:102AB0009E8A8D8A6D2D8E890E94680B811176CF3A
:102AC00080917E06816080937E06C7010E941F0C64
:102AD00059C086E0F50111928A95E9F753C0DD20CF
:102AE00009F47DCF4A8B5B8BDC8A782D9E8A8D8A98
:102AF0006D2D8E890E94680B882309F470CF56CF04
:102B00004D875E87052F10E0842E912CDD2081F00B
:102B10008D859E850E94F212F80193E0EE0FFF1F53
:102B20009A95E1F7E750FA4FE80DF91D80830BC045
:102B3000F80183E0EE0FFF1F8A95E1F7E750FA4FA7
:102B4000E80DF91D80816D857E850E94BE11292FBB
:102B500022952F70223018F0243078F405C09F7031
:102B600049F0811107C00DC09F7021F0F7019581D8
:102B7000907F39F0805E883020F0C7010E941F0CE2
:102B8000CB2C1C2D812F66960FB6F894DEBF0FBE9E
:102B9000CDBFDF91CF911F910F91FF90EF90DF900C
:102BA000CF90BF90AF909F908F900895CF93DF9379
:102BB00000D000D000D0CDB7DEB789839A836B8375
:102BC00082E090E09D838C83CE0101960E941F0CD1
:102BD00026960FB6F894DEBF0FBECDBFDF91CF9122
:102BE0000895CF93DF93EC0161E00E94D61560E079
:102BF000CE01DF91CF910C94D615811101C08AE0EE
:102C0000662311F0885A01C0835E90E00C94F115A0
:102C1000BF92CF92DF92EF92FF920F931F93CF93C9
:102C2000DF936C01B62EC5E0D0E000E117E28AE048
:102C3000E82EF12CC601B8010E94AE1DCB01009711
:102C400031F0B7010E94AE1D6B2D0E94FD15C80129
:102C5000B7010E94AE1D8B01219761F7DF91CF91E3
:102C60001F910F91FF90EF90DF90CF90BF9008954C
:102C7000EF92FF921F93CF93DF939C01892B09F46E
:102C800065C0E9012196F9011491193709F43FC093
:102C9000C0F4143740F4143008F053C08FEF810FA4
:102CA000823000F153C0143709F050C07901F2E0CE
:102CB000EF0EF11CFE0184910E947C12E7019E013F
:102CC000E0CF133828F4113868F4103801F13EC011
:102CD0001338B9F0143F08F039C01F77812F90E006
:102CE000926031C0FE0185919491612F6170E9017C
:102CF000133018F42296992701C023960E94D61506
:102D0000DECFFE0185919491E90123961CC0FE015E
:102D1000E590F490E901239684E00E94150C1038A8
:102D200041F461E081E00E94FD15F0EAEF1AF6E857
:102D3000FF0A61E0C7010E94081684E00E940A0CA5
:102D4000BECF812F90E00E94F115B9CFDF91CF91D6
:102D50001F91FF90EF9008951F93CF93DF93CDB70E
:102D6000DEB762970FB6F894DEBF0FBECDBFFC0191
:102D7000892B41F40E941C129C01216080E04FEFDE
:102D80005FEF05C05081418182812381348196E0CB
:102D9000FE013D96DF01692F1D926A95E9F75D8777
:102DA0004E878F87398B288BDE01179601900D9205
:102DB0009A95E1F7CE0107960E94081481113EC052
:102DC00086E0FE013796DE01119601900D928A95FC
:102DD000E1F7FF81E8856A857B856115710531F032
:102DE000EF3F31F481E0FF3F19F403C081E001C0FF
:102DF00080E080FD23C020917F0630E0C90101966C
:102E0000877099274091B00650E08417950779F1B3
:102E1000F983EA837D836C8396E0929FD001939F30
:102E2000B00D1124A058B94FFE01319601900D92BA
:102E30009A95E1F780937F060E94921316E08091A5
:102E4000B00690917F06891709F1189FC0011124DF
:102E50008058994F0E9408148823C1F08091B006D1
:102E600090E00196877099278093B006E8CF109282
:102E7000B9060E94EC0B10927F061092B006E9E7AB
:102E8000F6E086E0DF011D928A95E9F762960FB6BB
:102E9000F894DEBF0FBECDBFDF91CF911F91089593
:102EA00020910208309103082817390771F0909398
:102EB000030880930208E091BF06F091C0063097A6
:102EC00021F00084F185E02D0994089520910008F7
:102ED000309101082817390771F090930108809309
:102EE0000008E091BF06F091C006309721F00680FF
:102EF000F781E02D09940895E091BF06F091C00696
:102F0000309721F00190F081E02D099480E0089540
:102F10001F920F920FB60F9211242F933F934F934E
:102F20005F936F937F938F939F93AF93BF93CF9351
:102F3000DF93EF93FF93C091E900CF709091EC0085
:102F4000892F817090FD80E8C82B1092E900809154
:102F5000F000877F8093F0007894E8EFF7E080E05E
:102F600098E02091F10021938E179F07D1F780916F
:102F7000F907833009F455C030F4813071F08230A4
:102F800009F491C0A8C08A3009F47DC08B3009F4DF
:102F900060C0893009F09FC020C08091F807813A55
:102FA00009F099C08091E800877F8093E8008091C4
:102FB000FC079091FD07892B21F460E186EE97E0F4
:102FC00003C060E080E090E070E00E94771C809198
:102FD000E8008B778093E8007EC08091F80781320B
:102FE00009F079C08091FC079091FD07009719F0D6
:102FF000039709F070C08091E800877F8093E80014
:103000008091E80082FD05C080919C058111F8CF78
:1030100062C08091F1008093E5078091E8008B7792
:1030200056C08091F807813A09F055C08091FC079D
:103030009091FD07892B09F04EC08091E800877FB1
:103040008093E8008091E80080FFFCCF809124010C
:1030500039C08091F8078132F1F58091FC07909199
:10306000FD07892BC1F58091E800877F8093E800F8
:103070000E94441C8091FA07809324011092B906A3
:103080000E94EC0B28C08091F807813221F58091D5
:10309000E800877F8093E8000E94441C8091FB0732
:1030A0008093E40718C08091F807813AA1F48091D9
:1030B000E800877F8093E8008091E80080FFFCCFE4
:1030C0008091E4078093F1008091E8008E778093EF
:1030D000E8000E94441C8091E80083FF42C1809177
:1030E000F8079091F907492F50E04A30510508F050
:1030F00038C1FA01EA59FF4F0C94C21D803881F0A3
:10310000823809F02EC18091FC078F708093E9000E
:103110008091EB0085FB882780F91092E90007C0B9
:103120008091F607882311F082E001C080E0909141
:10313000E800977F9093E8008093F1001092F100EF
:10314000D9C0282F2D7F09F00CC1882319F08230B7
:1031500061F007C18091FA07813009F002C1933014
:1031600009F080E08093F6072BC08091FA07811167
:1031700027C08091FC078F7009F4F3C08093E900A9
:103180002091EB0020FF1CC0933021F48091EB00D4
:10319000806214C09091EB0090619093EB0021E06D
:1031A00030E0A90102C0440F551F8A95E2F7409311
:1031B000EA001092EA008091EB0088608093EB00B7
:1031C0001092E9008091E800877F8093E8000E94D8
:1031D000441CC7C08111C5C0D091FA07DF77809128
:1031E000E30080788D2B8093E3008091E800877F57
:1031F0008093E8000E94441C8091E80080FFFCCF8F
:103200008091E30080688093E300D11102C082E0E6
:1032100001C083E080939C05A4C08058823008F0F0
:10322000A0C0E091FC072091FA073091FB07832FA3
:1032300099278330910599F060F48130910509F464
:10324000BBC0029709F08DC06DE670E082E794E0A4
:1032500038C08132910599F08297F1F082C033270E
:103260002330310508F07DC0F901EE0FFF1FE85F44
:10327000FA4F80819181F901EB5FFA4F1CC0E43075
:1032800008F06FC0F0E0EE0FFF1FE350FB4F8081AE
:10329000918169E070E015C0E43008F062C02E2F23
:1032A00030E0F901EE0FFF1FEB50FB4F8081918161
:1032B000F901EF50FB4F608170E06115710509F471
:1032C00050C02091E800277F2093E8000E94771CDF
:1032D0008091E8008B778093E80043C0803809F044
:1032E00040C08091E800877F8093E8008091F707D5
:1032F0008093F1008091E8008E7767CF811131C013
:103300008091FA079091FB079927029754F58091D5
:10331000E800877F8093E800D091FA07D093F70701
:103320000E94441CD11106C08091E30087FD02C0B9
:1033300081E001C084E080939C0542E061EC81E083
:103340000E94631C42E061EC82E00E94631C42E048
:1033500061EC83E00E94631C42E161EC84E00E9426
:10336000631C8091E80083FF0AC08091E800877F9A
:103370008093E8008091EB0080628093EB001092D4
:10338000E9008091F00088608093F000CF70C093D6
:10339000E900FF91EF91DF91CF91BF91AF919F91A4
:1033A0008F917F916F915F914F913F912F910F90EE
:1033B0000FBE0F901F90189562E170E08FED94E0C2
:1033C00080CFE8EDF0E080818E7F80831092E20074
:1033D0001092DA001092E100A0EEB0E08C918160D2
:1033E0008C9380818F77808319BCA7EDB0E08C919E
:1033F0008E7F8C9380818F7E80831092E207089568
:10340000CF92DF92EF92FF920F931F93CF93DF93B0
:10341000C8EDD0E088818F7E8883E7EDF0E0808181
:103420008160808384E082BF81E08093E2078881AD
:103430008E7F888302EE10E0F80110821092DA008D
:1034400081EEC82ED12CF601108288818F77888377
:1034500088818068888388818F7D888319BC1092D9
:103460009C051092F7071092F60790EEE92EF12CCA
:10347000F70180818B7F808388818160888342E02F
:1034800060E080E00E94631CF60180818E7F808373
:10349000F801808181608083808188608083F7016A
:1034A00080818E7F8083888180618883DF91CF9146
:1034B0001F910F91FF90EF90DF90CF9008951F9292
:1034C0000F920FB60F9211242F933F934F935F9358
:1034D0006F937F938F939F93AF93BF93EF93FF93DC
:1034E0008091E10082FF09C08091E20082FF05C067
:1034F0008091E1008B7F8093E1008091DA0080FF72
:1035000028C08091D80080FF24C08091DA008E7F8F
:103510008093DA008091D90019BC80FF16C082E048
:1035200089BD09B400FEFDCF81E080939C058091A8
:10353000E20781110EC00E94E1190E94001A8091D9
:10354000E20084608093E20004C010929C05109217
:10355000E2078091E10080FF27C08091E20080FFB8
:1035600023C08091E2008E7F8093E2008091E20090
:1035700080618093E2008091D80080628093D800BF
:1035800019BC85E080939C058091E5078093E30753
:103590001092E50760E080E10E9418050E94630533
:1035A0001092B9060E94EC0B8091E10084FF39C0B3
:1035B0008091E20084FF35C080912501811102C015
:1035C0000E94DB0419BC82E089BD09B400FEFDCF76
:1035D0008091D8008F7D8093D8008091E1008F7E0C
:1035E0008093E1008091E2008F7E8093E2008091E1
:1035F000E20081608093E2008091F707882311F058
:1036000084E007C08091E30087FD02C081E001C033
:1036100083E080939C050E94FF058091E3078093DF
:10362000E5078091E10083FF27C08091E20083FFDE
:1036300023C08091E100877F8093E10082E0809346
:103640009C051092F7078091E1008E7F8093E10046
:103650008091E2008E7F8093E2008091E2008061A1
:103660008093E20042E060E080E00E94631C809171
:10367000F00088608093F000FF91EF91BF91AF91CF
:103680009F918F917F916F915F914F913F912F917A
:103690000F900FBE0F901F9018952091E40030916D
:1036A000E50095E64091EC00842F817040FF23C037
:1036B0008091E80080FD1DC080919C05882399F0D1
:1036C000853099F08091EB0085FD11C04091E400B8
:1036D0005091E5002417350729F3915011F09A0114
:1036E000E1CF84E0089582E0089583E0089581E0C9
:1036F000089580E008954091E80042FFDDCF0895ED
:103700008091E50708958FEF9091E800815095FD35
:1037100006C09AE69A95F1F700C08111F5CF809125
:10372000E80085FB882780F991E089270895CF93E9
:10373000DF9300D01F92CDB7DEB720919C052430D7
:10374000B9F423E029839B838A832093E9000E94B4
:10375000831B81110DC040E050E063E070E0CE01BA
:1037600001960E9492118091E8008E778093E80084
:103770000F900F900F90DF91CF910895CF93DF932B
:1037800000D01F92CDB7DEB720919C052430C1F444
:1037900022E029839B838A8383E08093E9000E944F
:1037A000831B81110DC040E050E063E070E0CE016A
:1037B00001960E9492118091E8008E778093E80034
:1037C0000F900F900F90DF91CF910895CF93DF93DB
:1037D00020919C052430A1F4EC0182E08093E90063
:1037E0000E94831B81110CC040E050E065E070E056
:1037F000CE010E9492118091E8008E778093E800BC
:10380000DF91CF910895CF93DF93EC0190919C05C8
:103810009430B9F58091240181718131B9F490938C
:10382000E9008FEF9091E800815095FD06C095E189
:103830009A95F1F700008111F5CF8091E80085FF9E
:1038400020C040E050E060E170E00BC081E0809378
:10385000E9000E94831B811114C040E050E068E041
:1038600070E0CE010E9492118091E8008E778093E3
:10387000E80080E1FE01A6EEB7E001900D928A9586
:10388000E1F7DF91CF9108958091F80787FF11C08C
:103890008091E80082FD05C080919C058111F8CFE0
:1038A00011C08091E8008B770BC080919C05882324
:1038B00049F08091E80080FFF8CF8091E8008E7792
:1038C0008093E80008958F708093E900EBEEF0E0BC
:1038D000808181608083EDEEF0E010826093EC00E7
:1038E00040838091EE00881F8827881F08952091CB
:1038F000FE073091FF072617370748F0611571055D
:1039000039F42091E8002E772093E80001C0B90136
:10391000FC0120E06115710579F180919C058823F7
:10392000F1F18530F1F18091E80083FD3CC0809198
:10393000E80082FD2EC08091E80080FFEBCF20914F
:10394000F3008091F20090E0922B6115710551F027
:103950008830910538F421912093F100615071096C
:103960000196F3CF21E0089709F020E08091E8006C
:103970008E778093E800CECF2111CFCF0AC08091FF
:103980009C05882361F0853061F08091E80083FD1B
:103990000AC08091E80082FFF2CF80E0089582E0C3
:1039A000089583E0089581E008958F929F92AF92E9
:1039B000BF92CF92DF92EF92FF92CF93DF93EC0111
:1039C000688179818A819B816115710581059105E5
:1039D00021F464E279ED8BE597E02DE133EF41E0EE
:1039E00050E00E944B1D49015A019B01AC01A7EA1E
:1039F000B1E40E946A1D6B017C01ACEEB4EFA5013D
:103A000094010E94781DDC01CB018C0D9D1DAE1D23
:103A1000BF1DB7FF03C00197A109B04888839983F0
:103A2000AA83BB839F77DF91CF91FF90EF90DF90C8
:103A3000CF90BF90AF909F908F9008950E94D51C1B
:103A4000089580E091E00E94D51C0895A0E0B0E0C8
:103A50008093000190930101A0930201B0930301B0
:103A60000895F999FECF92BD81BDF89A992780B546
:103A70000895262FF999FECF92BD81BDF89A01973E
:103A800000B4021639F01FBA20BD0FB6F894FA9AA6
:103A9000F99A0FBE0895052E97FB1EF400940E941C
:103AA000621D57FD07D00E947D1D07FC03D04EF418
:103AB0000C94621D50954095309521953F4F4F4F86
:103AC0005F4F089590958095709561957F4F8F4FCA
:103AD0009F4F08950E949F1DA59F900DB49F900D2C
:103AE000A49F800D911D11240895B7FF0C946A1DA9
:103AF0000E946A1D821B930B0895A1E21A2EAA1B35
:103B0000BB1BFD010DC0AA1FBB1FEE1FFF1FA2178D
:103B1000B307E407F50720F0A21BB30BE40BF50B8A
:103B2000661F771F881F991F1A9469F76095709513
:103B3000809590959B01AC01BD01CF010895A29F96
:103B4000B001B39FC001A39F700D811D1124911D71
:103B5000B29F700D811D1124911D0895AA1BBB1BDE
:103B600051E107C0AA1FBB1FA617B70710F0A61B7D
:103B7000B70B881F991F5A95A9F780959095BC019E
:103B8000CD010895EE0FFF1F0590F491E02D0994EB
:103B9000FB01DC0104C08D910190801921F441509A
:103BA0005040C8F7881B990B0895AEE0B0E0EBEDEC
:103BB000FDE10C9496200D891E8986E08C831A8382
:103BC00009838FEF9FE79E838D83AE01475E5F4F32
:103BD0006F89788DCE0101960E94F71DEF81F885DF
:103BE000E00FF11F10822E96E4E00C94B220ABE0BF
:103BF000B0E0EDEFFDE10C9488206C017B018A01BF
:103C0000FC0117821682838181FFCCC1CE0101960F
:103C10003C01F6019381F70193FD859193FF81911A
:103C20007F01882309F4BAC1853239F493FD859167
:103C300093FF81917F01853229F4B60190E00E94C3
:103C4000EE1FE7CF912C212C312CFFE1F315D8F09A
:103C50008B3279F038F4803279F08332A1F4232D5D
:103C600020611DC08D3261F0803369F4232D216005
:103C700016C0832D8260382EE32DE4603E2E2AC0CC
:103C8000F32DF8601DC037FC2DC020ED280F2A3021
:103C900040F08E32B9F436FC81C1232D2064322EDF
:103CA00019C036FE06C08AE0989E200D1124922E7F
:103CB00011C0EAE02E9E200D1124222EF32DF06279
:103CC0003F2E08C08C3621F4832D8068382E02C028
:103CD000883641F4F70193FD859193FF81917F012F
:103CE0008111B3CF982F9F7D9554933028F40C5FAA
:103CF0001F4F9FE399830DC0833631F0833771F0F6
:103D0000833509F059C021C0F801808189830E5F95
:103D10001F4F88248394912C530113C02801F2E093
:103D20004F0E511CF801A080B18036FE03C0692DF2
:103D300070E002C06FEF7FEFC5010E94E31F4C01EE
:103D40008201F32DFF773F2E16C0280122E0420E9C
:103D5000511CF801A080B18036FE03C0692D70E0CF
:103D600002C06FEF7FEFC5010E94D81F4C01F32DF9
:103D7000F0683F2E820133FC1BC0822D90E0881634
:103D80009906B0F4B60180E290E00E94EE1F2A94FA
:103D9000F4CFF50137FC859137FE81915F01B601C3
:103DA00090E00E94EE1F21102A9421E0821A9108CF
:103DB0008114910471F7E8C0843611F0893641F519
:103DC000F80137FE07C060817181828193810C5FA9
:103DD0001F4F08C060817181072E000C880B990B62
:103DE0000E5F1F4FF32DFF763F2E97FF09C0909572
:103DF0008095709561957F4F8F4F9F4FF0683F2E54
:103E00002AE030E0A3010E942A20882E861845C0AF
:103E1000853731F4232D2F7EB22E2AE030E025C0E5
:103E2000932D997FB92E8F36C1F018F4883579F02B
:103E3000B5C0803719F0883721F0B0C0E92FE061B4
:103E4000BE2EB4FE0DC0FB2DF460BF2E09C034FEA3
:103E50000AC0292F2660B22E06C028E030E005C037
:103E600020E130E002C020E132E0F801B7FE07C0F7
:103E700060817181828193810C5F1F4F06C06081D8
:103E8000718180E090E00E5F1F4FA3010E942A2005
:103E9000882E8618FB2DFF773F2E36FE0DC0232D72
:103EA0002E7FA22E891458F434FE0BC032FC09C0B8
:103EB000832D8E7EA82E05C0B82CA32C03C0B82C51
:103EC00001C0B92CA4FE0FC0FE01E80DF11D8081D8
:103ED000803321F49A2D997EA92E09C0A2FE06C036
:103EE000B394B39404C08A2D867809F0B394A3FCEC
:103EF00011C0A0FE06C0B21488F4280C922C9B18A6
:103F00000EC0B21460F4B60180E290E00E94EE1F91
:103F1000B394F7CFB21418F42B1802C0982C212CAC
:103F2000A4FE10C0B60180E390E00E94EE1FA2FE46
:103F300017C0A1FC03C088E790E002C088E590E0CC
:103F4000B6010CC08A2D867859F0A1FE02C08BE222
:103F500001C080E2A7FC8DE2B60190E00E94EE1F56
:103F6000891438F4B60180E390E00E94EE1F9A9421
:103F7000F7CF8A94F301E80DF11D8081B60190E03E
:103F80000E94EE1F8110F5CF222009F442CEB60127
:103F900080E290E00E94EE1F2A94F6CFF60186811F
:103FA000978102C08FEF9FEF2B96E2E10C94A42043
:103FB000FC010590615070400110D8F780959095F4
:103FC0008E0F9F1F0895FC016150704001900110F9
:103FD000D8F7809590958E0F9F1F08950F931F938C
:103FE000CF93DF93FB01238121FD03C08FEF9FEF70
:103FF0002CC022FF16C0468157812481358142178B
:10400000530744F4A081B1819D012F5F3F4F31835D
:1040100020838C93268137812F5F3F4F3783268300
:1040200014C08B01EC01FB010084F185E02D0995A2
:10403000892BE1F6D80116968D919C9117970196E0
:1040400017969C938E931697CE01DF91CF911F9177
:104050000F910895FA01AA27283051F1203181F1FA
:10406000E8946F936E7F6E5F7F4F8F4F9F4FAF4F80
:10407000B1E03ED0B4E03CD0670F781F891F9A1F93
:10408000A11D680F791F8A1F911DA11D6A0F711D47
:10409000811D911DA11D20D009F468943F912AE053
:1040A000269F11243019305D3193DEF6CF0108953B
:1040B000462F4770405D4193B3E00FD0C9F7F6CF6C
:1040C000462F4F70405D4A3318F0495D31FD405234
:1040D000419302D0A9F7EACFB4E0A69597958795CA
:1040E00077956795BA95C9F70097610571050895A9
:1040F0009B01AC010A2E0694579547953795279555
:10410000BA95C9F7620F731F841F951FA01D0895EC
:104110002F923F924F925F926F927F928F929F92D7
:10412000AF92BF92CF92DF92EF92FF920F931F93C5
:10413000CF93DF93CDB7DEB7CA1BDB0B0FB6F89476
:10414000DEBF0FBECDBF09942A88398848885F84B6
:104150006E847D848C849B84AA84B984C884DF8027
:10416000EE80FD800C811B81AA81B981CE0FD11D0B
:104170000FB6F894DEBF0FBECDBFED010895F894E1
:02418000FFCF6F
:1041820001000000730E0C011E01801B031CE61BC4
:10419200BE1B971BF6006D058202F5003902010174
:1041A2000100000001041813120C15BC19C01A41B9
:1041B200542B4741504445564E414D453D004154D4
:1041C2002B48574144433D360A0041542B47415442
:1041D20054434841523D312C0041542B424C4548F6
:1041E2004944434F4E54524F4C4B45593D25640A66
:1041F200004F4B0041542B424C454849444D4F55CA
:1042020053454D4F56453D25642C25642C25642C81
:1042120025640A00425554544F4E3D25640A00411C
:10422200542B474150474554434F4E4E0A00415488
:104232002B424C4547455450454552414444520A4D
:104242000041542B424C454B4559424F4152444345
:104252004F44453D0030302D30300A002530325871
:104262002D30302D253032582D253032582D253025
:1042720032582D253032582D253032582D253032E6
:10428200580A004552524F520041540A0041542BE1
:10429200464143544F525952455345540A004154E2
:1042A200453D300A0048484B42204A5020424C4586
:1042B2000A0048484B4220424C450A0041542B42D6
:1042C2004C45484944454E3D310A0041542B474133
:1042D2005053544152544144560A0041542B4741D1
:1042E2005044454C424F4E44530A0041542B4741DF
:1042F2005454414444534552564943453D5555490A
:10430200443D363135390A0041542B47415454411A
:104312004444434841523D555549443D3078324129
:1043220031392C50524F504552544945533D313644
:104332002C4D494E5F4C454E3D312C56414C554516
:104342003D390A0041542B42415544524154453DA6
:1043520037363830300A0041542B474150444953D4
:10436200434F4E4E4543540A0041542B474150534C
:104372004554414456444154413D30322D30312D53
:1043820030360A0041542B4741505345544144565C
:10439200444154413D30322D30312D30340A0041F8
:1043A200542B424C45484944454E3D300A00415445
:1043B2005A0A00BDB6B3ADAAA7A4A19D050109067C
:1043C200A101050719E029E71500250195087501E6
:1043D20081020508190129059505750191029501CA
:1043E20075039101050719002977150025019578B4
:1043F20075018102C005010980A101850216010033
:1044020026B7001A01002AB700751095018100C075
:10441200050C0901A1018503160100269C021A015F
:10442200002A9C02751095018100C005010902A1B4
:10443200010901A1000509190129051500250195A8
:104442000575018102950175038101050109300994
:10445200311581257F950275088106093815812558
:104462007F950175088106050C0A38021581257FA2
:10447200950175088106C0C005010906A10105075D
:1044820019E029E7150025019508750181029501BA
:104492007508810105081901290595057501910223
:1044A2009501750391010507190029FF150026FFE3
:1044B20000950675088100C02803480048004B009B
:1044C2004200200042004C00450020002800550018
:1044D200530042005F0044004D00340044002900B4
:1044E20000000A03590041004E0047000000040387
:1044F200090409026D00040100A0FA090400000188
:104502000301010009211101000122400007058178
:10451200030800010904010001030102000921113D
:10452200010001224D00070582030800010904026F
:1045320000010300000009211101000122360007D9
:1045420005830308000A09040300010300000009AF
:104552002111010001223900070584031000011214
:1045620001100100000008EDFEC019010001020067
:1045720001404D3639F803AB0375033C0384049DB7
:0E45820004B604CF04040A286E046204380450
:106000000A00EA40E940E2400400050006000700FB
:10601000080009000A000B000C000D000E000F0024
:1060200010001100120013001400150016001700D4
:10603000180019001A001B001C001D001E001F0084
:106040002000210022002300240025002600270034
:10605000280000F52A002BAB2C002D002E002F006D
:10606000300031A33200330034002A2836003700D4
:10607000380039003A003B003C003D003E003F0044
:1060800040004100420043004400450046004700F4
:10609000480049004A004B004FA94D004E004F00F8
:1060A0005000510052002AA15400550056005700DC
:1060B000580059005A005B005C005D005E005F0004
:1060C0006000610062006300640076008500670084
:1060D000F450F550F650F750F850F950FA506F0060
:1060E0007000710072007300890087008A008B00C5
:1060F0002BAAE100E000E2002BAA5232510050002E
:106100000000010001000100010043004100010006
:106110002000010092412F00250030002D002E00AC
:1061200001003300260027001E002100010022008C
:10613000240042001F00400023003F003A003B00C3
:106140003C003D003E003F00400041004200430053
:1061500028003500CD400BF52C00440045005200CE
:106160003002B640010050004F00B5403600370005
:1061700051000100010001000100010001000100C7
:106180000100010001000100010001000100010007
:106190000100010001000100010001000100E940CF
:1061A000E240EA404B00010053009245010001002B
:1061B00001000100010001000100010001000100D7
:1061C00001000100010001000100010001000100C7
:1061D00001000100010001000100010001000100B7
:1061E000010001000100010049000100010001005F
:1061F00001000100010001002B00E940EA40E240FB
:1062000011110100010001004C0002F03D004D00A1
:106210004A003E00070A3A00490001002D002E0006
:10622000010033002F00300046003B004E000708FD
:106230006F4019084B0047007040480011F00BFBFD
:106240000100010001000100010001000100004700
:1062500034000100640039000100B00001002F0289
:10626000300231000100010001003100310038002E
:106270000100010001000100010001000100010016
:106280000100010001000100010001000100010006
:1062900001000100010001000BFC01000100E4000D
:1062A000E600E7000100010001000100010001001B
:1062B00001000100010001000100010001000100D6
:1062C00001000100010001000100010001000100C6
:1062D00001000100010001000100010001000100B6
:1062E00001000100010001000100010001000100A6
:1062F00001000100010001002BA2010003F00100D8
:106300001500010001000100F2500100FB50F350A4
:10631000F550FA50010001000100010001000100E8
:10632000010001000100F650F450F950F150010055
:106330000100FC50F050F8500100F750010001003E
:106340000100010001000100010001000100FD50F9
:1063500001000100010001000100FE50FF50F45057
:10636000F5500100010001000100010001000100E1
:106370000100010001000100010001000100010015
:106380000100010001000100010001000100010005
:1063900001000100010001000100010001000100F5
:1063A00001000100010001000100010001000100E5
:1063B00001000100010001000100010001000100D5
:1063C00001000100010001000100010001000100C5
:1063D00001000100010001000100010001000100B5
:1063E00001000100010001000100010001000100A5
:1063F00001000100010003F00100010001000100A3
:10640000160001000100010001000100010001006F
:106410000100010001000100010001000100010074
:106420000100010001000100010001000100010064
:106430000100010001000100010001000100010054
:106440000100010001000100010001000100010044
:106450000100010001000100010001000100010034
:106460000100010001000100010001000100010024
:106470000100010001000100010001000100010014
:106480000100010001000100010001000100010004
:1064900001000100010001000100010001000100F4
:1064A00001000100010001000100010001000100E4
:1064B00001000100010001000100010001000100D4
:1064C00001000100010001000100010001000100C4
:1064D00001000100010001000100010001000100B4
:1064E00001000100010001000100010001000100A4
:1064F0000100010001000100010001000100010094
:106500000002010001000100010001000100010082
:106510000100010001000100010001000100010073
:106520000100010001000100010001000100010063
:106530000100010001000100010001000100010053
:106540000100010001000100010001000100010043
:106550000100010001000100010001000100010033
:106560000100010001000100010001000100010023
:106570000100010001000100010001000100010013
:106580000100010001000100010001000100010003
:1065900001000100010001000100010001000100F3
:1065A00001000100010001000100010001000100E3
:1065B00001000100010001000100010001000100D3
:1065C00001000100010001000100010001000100C3
:1065D00001000100010001000100010001000100B3
:1065E00001000100010001000100010001000100A3
:1065F0000100010001000100010001000100010093
:106600000100010001000100010001000100010082
:106610000100010001000100010001000100010072
:106620000100010001000100010001000100010062
:106630000100010001000100010001000100010052
:106640000100010001000100010001000100010042
:106650000100010001000100010001000100010032
:106660000100010001000100010001000100010022
:106670000100010001000100010001000100010012
:106680000100010001000100010001000100010002
:1066900001000100010001000100010001000100F2
:1066A00001000100010001000100010001000100E2
:1066B00001000100010001000100010001000100D2
:1066C00001000100010001000100010001000100C2
:1066D00001000100010001000100010001000100B2
:1066E00001000100010001000100010001000100A2
:1066F0000100010001000100010001000100010092
:106700000000010001000100010001000100010082
:106710000100010001000100010001000100010071
:106720000100010001000100010001000100010061
:106730000100010001000100010001000100010051
:106740000100010001000100010001000100010041
:106750000100010001000100010001000100010031
:106760000100010001000100010001000100010021
:106770000100010001000100010001000100010011
:106780000100010001000100010001000100010001
:1067900001000100010001000100010001000100F1
:1067A00001000100010001000100010001000100E1
:1067B00001000100010001000100010001000100D1
:1067C00001000100010001000100010001000100C1
:1067D00001000100010001000100010001000100B1
:1067E00001000100010001000100010001000100A1
:1067F0000100010001000100010001000100010091
:00000001FF
