:100000000C94E4000C9401010C9401010C94010186
:100010000C9401010C9401010C9401010C94010158
:100020000C9401010C9401010C94390F0C941C10D8
:100030000C94541D0C9401010C9401010C940101C9
:100040000C9401010C9401010C9401010C94010128
:100050000C9401010C941D1D0C9401010C940101E0
:100060000C9401010C943D050C9401010C940101C8
:100070000C9401010C9401010C9401010C940101F8
:100080000C9401010C9401010C9401010C940101E8
:100090000C9401010C9401010C9401010C940101D8
:1000A0000C9401010C9401010C940101F40AF60A6C
:1000B000F80AFA0AFC0AFE0A240B240B240B240B70
:1000C000240B1D0B1F0B210B8410A7106211A7100E
:1000D0006211EC100F116211311144119F139F1323
:1000E000E013E0133B148D149F169F16AD149F165A
:1000F000AA15AA1575169F169F168B168080292B98
:100100004A79398080802108650607808080201A1E
:100110007A1B168080801E8078808080808080801E
:1001200080808080808022158019098080801F1443
:100130007B1D0480808023172C050A808080260C7C
:100140007E360E80808025184D100D808080241C06
:1001500080110B80808027127F370F8080802A805B
:100160004F7D2880808035305152318080802D1322
:100170007C38338080802E2F504C34801F141A1608
:10018000041D1B06202115080709190522231C1729
:100190000A0B11801E292B78797A7B2C2425180CC8
:1001A0000E0D108031352A284C7D7E7F26271213B4
:1001B000330F36802D2E302F34383780626200287E
:1001C000008315087432000011241FBECFEFDAE05F
:1001D000DEBFCDBF14E0A0E0B1E0E6E4F6E402C08B
:1001E00005900D92AC3FB107D9F728E0ACEFB4E031
:1001F00001C01D92A235B207E1F70E94250B0C94B5
:1002000021230C94000040910205E82FF0E0292FF3
:1002100030E083E0220F331F8A95E1F7E20FF31FEE
:10022000442319F0E450FF4F02C0E458FE4F84917C
:100230000895EF92FF921F93CF93DF937C01C62F17
:10024000142F0E94801CD82FF7019281C130E1F059
:1002500028F0C43041F1C53071F13AC09923B1F0B2
:10026000812F8470912F9870990F990F212F2270F0
:10027000922B9D2321F0D0FD02C085E30FC0982F63
:100280009D2349F489E20AC0911103C08091FC04C6
:100290001BC082FF02C08DE301C081E28093FC0499
:1002A0008091FC040DC0992321F0827289F48CE2C4
:1002B00007C08CE209C0992331F085FD09C082E5B1
:1002C0000E94891203C082E50E94B6120E94BA1CE5
:1002D000F7018281882309F464C0C33061F118F406
:1002E000C23039F05EC0CB30C9F1C13109F452C01F
:1002F00058C00E940213D13049F40E9402138BE2CD
:100300009CEF9093010880930008FFCFDC3011F43C
:100310000E94300783E30E94E21283E30E94E91205
:100320008CEC0E94E2128CECDF91CF911F91FF9038
:10033000EF900C94E91290916E0581E089278093EB
:100340006E059091BE0788E889278093BE07DF91EC
:10035000CF911F91FF90EF900C94F1041C3091F419
:1003600080914808843071F081B3836181BB88EC4F
:100370000E94ED1C889886E90E94ED1C899886E908
:100380000E94ED1C812FDF91CF911F91FF90EF9084
:100390000C94EB0A8F9B03C0879A8F9802C08798B2
:1003A0008F9ADF91CF911F91FF90EF900895611187
:1003B00007C0FC018281882319F080E09FE5089541
:1003C00080E090E008958FEF84B980E485B9569A73
:1003D0005E9880910205882319F087B1806C87B9F7
:1003E00085E38A95F1F70000089514B88FEF85B979
:1003F0005E9A80910205882331F087B18F7387B9A7
:1004000088B1806C88B908956A98729A81E00E94D8
:10041000ED1C8CB182FB992790F981E089278093AC
:100420000205089580910205882319F082E291E087
:1004300002C08FE291E00C94430757985F9A87B10E
:100440008F7387B988B1806C88B90E94E30180916D
:100450000205882341F080E18093240882E08093A4
:10046000250886E006C088E08093240810922508BD
:1004700087E0809326080895BF92CF92DF92EF9293
:10048000FF920F931F93CF93DF9300D000D01F9262
:10049000CDB7DEB710E024E035E040912408141712
:1004A00008F088C085B1887F912F9770892B85B916
:1004B00080910205882341F088B18F7388B913FFBA
:1004C00002C0469A01C0479AB0902508790101E020
:1004D000B21A812F90E09C01225A3A4F69019B2D5C
:1004E0009E0D970180912608891708F461C085B197
:1004F0008778806848E0949F90011124822B85B909
:100500008DE08A95F1F700004F9902C020E801C004
:1005100020E02F982E9A80910A018250883030F482
:1005200080910305811102C021115FC0F701808114
:100530008695822B81937F012FEF280F2E3F30F578
:1005400020910305211122C0F6012081803C18F082
:10055000802F822B06C0803228F4802F8095822342
:10056000F6018083F6018081821781F099831A83D6
:10057000802391E009F490E09B830E94021D81603A
:100580009D838C83CE0101960E945C12F6018081CE
:10059000882361F01092B5061092B4068091100184
:1005A000811104C0809148088530F9F0000F97CF81
:1005B0001F5F73CF10910A011A3041F08091100132
:1005C000811115C080914808811111C050E0BA0115
:1005D0006F5C7E4F8EE595E00E942220892B39F4D6
:1005E0001A3019F08AE10E946F0A84E601C081E0A6
:1005F0000F900F900F900F900F90DF91CF911F9160
:100600000F91FF90EF90DF90CF90BF900895809171
:100610000A01843088F080910005909101050196CF
:10062000803591052CF4909301058093000527C037
:1006300010920105109200050E94E30181E0809371
:1006400003050E943C021092030580910A018A3042
:1006500011F40E943C020E943C02843671F48091A5
:100660000A01843070F081B3836181BB88EC0E9401
:10067000ED1C81E080930E0108950E94F50180E059
:10068000089581E008950E94F50181B38C7E81BBBD
:1006900008950C94F3038091FE049091FF040E944E
:1006A0000E1D8739910508F446C00E94021D9093E3
:1006B000FF048093FE048091FD048F5F8093FD040E
:1006C0009091AE069923C1F08430A8F1913011F0D9
:1006D00080E001C083E08093FD047E9B09C08C9B79
:1006E00003C081B38C7E02C081B3836181BB089556
:1006F0001092AE060C94F30390910E019923D9F059
:10070000813019F481B38C7F81BB8091FD048330EB
:1007100029F4889A8091B2068111899A9091B20643
:100720008091FD04911105C0853018F01092FD04F0
:1007300008958B30D8F70895811102C086E001C07A
:1007400080E060E00C94471380B3836180BB81B389
:100750008C7E81BBA0E7B5E080E090E0FC01E0503A
:10076000FE49259134912C9311963C9311979395C2
:100770001296811524E0920789F70895823031F0AE
:10078000843031F0811105C08C9A03C0899A01C070
:10079000889A21E030E0A90102C0440F551F8A95D4
:1007A000E2F7CA0190916F05892B80936F05089538
:1007B000823031F0843031F0811105C08C9803C053
:1007C000899801C0889821E030E0A90102C0440F57
:1007D000551F8A95E2F7CA01809590916F0589238C
:1007E00080936F050895CF93DF93C0E0D0E08091B0
:1007F0006F0590E00C2E02C0959587950A94E2F75C
:1008000080FF04C08C2F0E94BE0303C08C2F0E9467
:10081000D8032196C830D10551F7DF91CF910895C3
:10082000CF92DF92EF92FF920F931F93CF93DF93BC
:100830001F92CDB7DEB700E715E0C12CD12CEE2416
:10084000E394F12CF80191918F0198130FC09091CE
:100850006F0597010C2C01C0220F0A94EAF7292793
:1008600020936F0589830E94F3038981FFEFCF1ADC
:10087000DF0A48E0C416D10429F70F90DF91CF9129
:100880001F910F91FF90EF90DF90CF900895EF921E
:10089000FF920F931F93CF9390E7E92E95E0F92EE7
:1008A000C0E0082F10E0F70191917F0180EF890FE0
:1008B000833078F4980102C0359527958A95E2F740
:1008C00020FF04C08C2F0E94BE0303C08C2F0E9407
:1008D000D803CF5FC83039F7CF911F910F91FF90A8
:1008E000EF9008958F929F92AF92BF92EF92FF92F6
:1008F0000F931F93CF934B015C0100E715E0C0E01D
:10090000EE24E394F12CF80181918F019FEF980F71
:100910009730D0F4970102C0220F331F8A95E2F777
:10092000C901092E000CAA0BBB0B88219921AA2111
:10093000BB21892B8A2B8B2B21F08C2F0E94BE038D
:1009400003C08C2F0E94D803CF5FC830E1F6CF914F
:100950001F910F91FF90EF90BF90AF909F908F905D
:1009600008958F929F92AF92BF92EF92FF920F9352
:100970001F93CF934B015C0100E715E0C0E0EE242C
:10098000E394F12CF80181918F0197EF980F973044
:10099000D8F48850970102C0220F331F8A95E2F7DE
:1009A000C901092E000CAA0BBB0B88219921AA2191
:1009B000BB21892B8A2B8B2B21F08C2F0E94BE030D
:1009C00003C08C2F0E94D803CF5FC830D9F6CF91D7
:1009D0001F910F91FF90EF90BF90AF909F908F90DD
:1009E00008950F931F93CF9300E715E0C0E0F8013F
:1009F00021918F018BEE820F883090F480916E05EB
:100A000090E0255102C0959587952A95E2F780FFE1
:100A100004C08C2F0E94BE0303C08C2F0E94D803F9
:100A2000CF5FC83021F7CF911F910F910895FC013E
:100A300020812B3C31F421812B3B19F403960C943B
:100A4000430708952091780580917905821759F020
:100A500030E0F901E658FA4F80812F5F3F4F209335
:100A6000780590E008958FEF9FEF08959091C8006A
:100A700095FFFCCF8093CE0008951F920F920FB682
:100A80000F9211242F933F934F938F939F93EF9344
:100A9000FF938091790590E09C012F5F3F4F40913B
:100AA0007805421741F03091CE00FC01E658FA4F2C
:100AB000308320937905FF91EF919F918F914F9112
:100AC0003F912F910F900FBE0F901F90189580911E
:100AD0009406089508950FB6F894A8958091600043
:100AE000886180936000109260000FBE08950E949C
:100AF0006B059EE088E10FB6F894A895809360009E
:100B00000FBE909360000895EF92FF920F931F9392
:100B1000CF93082F0E94021D7C01C0E010E0C701A6
:100B20000E940E1D80179107F0F40E9422059C017F
:100B30002F3F8FEF3807A9F02D3099F04C2F50E060
:100B40002A3051F4C23030F0FA01E758F94F808171
:100B50008F3449F02FE530E0FA01E558F94F208352
:100B6000CF5FC731E0F2EC2FF0E0E558F94F10828B
:100B70008BE796E0CF911F910F91FF90EF90089532
:100B8000CF93DF93EC018991882319F00E943605F9
:100B9000FACFDF91CF9108950E94C00584E60C94AE
:100BA00084059C012F5631092230310528F02A573F
:100BB00031092230310588F420919706309198064A
:100BC000232B31F429E732E03093980620939706DF
:100BD000909396068093950604C010929806109202
:100BE000970620919906211124C09F938F9381E548
:100BF00091E09F938F9387E298E09F938F930E9459
:100C00002F2087E298E00E94CC0542E050E06FE29E
:100C100072E00E9422200F900F900F900F900F9083
:100C20000F90892B19F410929906089581E0809312
:100C300099060895CF93DF93EC0180919906811175
:100C400041C08C81282F082E000C330B3F938F93CB
:100C50008B81282F082E000C330B3F938F938A81B2
:100C6000282F082E000C330B3F938F938981282F58
:100C7000082E000C330B3F938F9389E691E09F93EE
:100C80008F9387E298E09F938F930E942F2087E2B3
:100C900098E00E94CC0542E050E06FE272E00E94D2
:100CA00022202DB73EB7245F3F4F0FB6F8943EBFCA
:100CB0000FBE2DBF892B19F41092990603C081E055
:100CC000809399068091990681112BC0888190911B
:100CD0009306891731F1809393061F928F9389E8C9
:100CE00091E09F938F9385E398E09F938F930E9469
:100CF0002F2087E298E00E94CC0542E050E06FE2AE
:100D000072E00E9422200F900F900F900F900F9092
:100D10000F90892B19F41092990603C081E08093FB
:100D20009906DF91CF910895CF93DF93EC0186E987
:100D30000E94ED1CCE01DF91CF910C94CC05CF9396
:100D4000DF932091B206222309F45EC02091990618
:100D500021115AC0EC0184E991E00E94C00520975E
:100D600031F488EA91E0DF91CF910C94CC058F812A
:100D70001F928F938E811F928F938D811F928F93DD
:100D80008C811F928F938B811F928F938A811F92E8
:100D90008F9388811F928F938FEA91E09F938F9317
:100DA00087E298E09F938F930E942F2087E298E03C
:100DB0000E94CC0545E050E066ED71E00E942220E3
:100DC0002DB73EB72E5E3F4F0FB6F8943EBF0FBE15
:100DD0002DBF892B21F481E08093990602C01092E7
:100DE00099068A81988191110FC0833531F089333A
:100DF00031F0873449F482E103C080E101C081E130
:100E0000DF91CF910C941004DF91CF91089580E091
:100E100090E00C949F068091970690919806009719
:100E2000F1F08230910530F001979093980680930D
:100E30009706089520917A062F5F20937A06809175
:100E400095069091960630E043EF50E0481B590B11
:100E50002417350720F010927A060C94D1050895D6
:100E60008CED91E00C949406CF93C82F8DEE91E019
:100E70000E94C00580E38C0F0E9436058DEA91E048
:100E8000CF910C949406CF93DF93EC018AEF91E01D
:100E90000E94C005CE010E94C0058DEA91E0DF915D
:100EA000CF910C94940689E092E00E94CC05FC015D
:100EB0008081089588E192E00C949406CF93DF93AB
:100EC000559A5D980E94F91CF89487E68093CC00AF
:100ED0001092CD008091C90080698093C9008091F3
:100EE000C90088608093C9008091CA008093CA00BD
:100EF0008091C80082608093C800789488E292E074
:100F00000E94940688E292E00E94CC05EC0142E047
:100F100050E06CE272E00E942220892B49F042E00E
:100F200050E06FE272E0CE010E942220892BD9F4BA
:100F30000E94300788E292E00E94940682E392E0E9
:100F40000E9494060E94120281E00E94340789E305
:100F500092E00E9494060E945A0789E492E00E945F
:100F600094060E94431DF8948CE08093CC00789402
:100F700088E292E00E94940682E30E94ED1C8CE5D8
:100F800092E00E94CC0545E050E066ED71E00E94E1
:100F90002220892B71F48BE692E00E94940688E867
:100FA00092E00E94940684EC92E0DF91CF910C9441
:100FB0009406DF91CF910895CF93C82F89EC92E0EA
:100FC0000E94C0051F92CF9385E891E09F938F9375
:100FD00087E298E09F938F930E942F200F900F90AD
:100FE0000F900F900F900F9087E298E0CF910C94A4
:100FF000CC05CF93C82F88ED92E00E94CC05FC0170
:10100000418180ED840F8A3020F081E08093B90621
:101010004FC062816A3308F04BC0808190E0C09776
:1010200024E6289FF001299FF00D112450E0405341
:1010300051098AE0849F9001859F300D11242E0F65
:101040003F1F260F311D83E0220F331F8A95E1F7E2
:101050002A54324030930D0120930C012C358DE041
:10106000380710F481E005C02E3D9DE0390720F4DB
:1010700085E08093AE0606C021318EE0380710F07F
:101080001092AE067E9907C02852310930930D01A7
:1010900020930C010DC08091D90080FF09C0809180
:1010A000AD06882329F01092AD0684E60E94DC0785
:1010B000C230B9F520910C0130910D0123379EE02B
:1010C0003907E9F0233D8FE03807D8F42F369FE049
:1010D0003907C8F42D338FE03807B8F42F3D9DE071
:1010E000390750F048ED5EE08CE32417350770F4C3
:1010F0008A5042535109F9CF8091AE0607C08CE265
:1011000005C08AE503C080E501C086E47E9B8F5F51
:101110002535304108F084E680930B01CF910C9483
:10112000DC07CF91089586988E9A82E00C94F90797
:101130000895CF93DF9380910F01811122C00E9407
:101140007B118050914079F00E94021380911B0125
:10115000826080931B0180E091E00E947611809173
:101160006E058D7F26C08091B30681112FC08091BE
:101170004808843059F581E080930F018093B306CD
:1011800025C00E947B1181519140C1F081E0809384
:10119000B30680930F010E94021380911B018D7F83
:1011A00080931B0181E191E00E94761180916E0590
:1011B000826080936E050E94F10408C08091480807
:1011C000843021F010920F011092B306809110012B
:1011D000882309F481C15D9977C18091990688239C
:1011E000A1F088E292E00E94CC0542E050E06FE27C
:1011F00072E00E942220892B29F4109299060E9405
:10120000070703C081E08093B9068091B90688235F
:10121000B9F084E60E948405EC0142E050E06FE200
:1012200072E00E942220892B59F045E050E066EDE3
:1012300071E0CE010E942220892B11F01092B90694
:1012400080910A01823039F40E94F9070E949808BF
:1012500083E080930A0180919B06882331F10E94EC
:101260005307813311F584EE92E00E94CC05FC0116
:1012700022812A33D1F441E150E06CE976E00E940A
:101280002220892B31F010929B0681E08093B206D8
:101290000CC087EF92E00E94CC058091B00690913F
:1012A000B1060F9714F010929B068091B906811138
:1012B000D6C08091B6069091B7060E940E1D893E59
:1012C000934008F4CCC00E94021D9093B70680930F
:1012D000B6068091B206811107C010929A068091DD
:1012E0009B06811144C008C080919A068F5F80934D
:1012F0009A06833090F760C00E945307813351F4FF
:101300008091B206811118C081E08093B2061092DC
:10131000B80612C0803369F48091B206882319F0B0
:101320001092B20609C08091B8068F5F8093B8060C
:1013300003C081E08093B90680910F01811117C02D
:1013400080910A01882399F08091B8068A3578F057
:1013500080914808843049F05D9A8091C900877F68
:101360008093C90084E080930A011092B8068091AE
:101370000E01882309F18091B0069091B106843660
:10138000910549F41092B1061092B00610920E0128
:101390000E94F30311C001969093B1068093B006AA
:1013A000449724F48091B206813031F484E690E0D1
:1013B0009093B1068093B0067E9914C081E080932B
:1013C000AD068091B4069091B50601969093B5064E
:1013D0008093B4066FE070E00E9408200A9759F4E9
:1013E00082E007C01092AD0680910A01823018F4A5
:1013F00081E00E94F9078091AD06811130C0809193
:10140000B30681112CC080910E01811128C08091FA
:10141000B4069091B50601969093B5068093B406F4
:1014200020910A01213039F4039728F00E94070720
:1014300082E080930A0180910A01833081F48091D7
:10144000B4069091B5068832934248F084E08093C8
:101450000A015D9A8091C900877F8093C9008091BD
:10146000AF06882379F10E946B058091AF068C301E
:1014700011F08231B1F489E093E00E94C0058091BF
:10148000AF06823129F482E293E00E94CC0504C0C9
:1014900081EE92E00E9494061092AF060E947705BA
:1014A00011C0853179F40E945A0780E00E94340708
:1014B00081E00E94340784EC92E00E9494068CE064
:1014C0008093AF060E940B0780910A01823020F4BE
:1014D000DF91CF910C944B03DF91CF910895CF937F
:1014E000DF93C82F0E94801CD82F0E940213C531A1
:1014F00069F1A0F4CC3039F120F4C53009F440C0D2
:1015000066C0C23101F1C33109F061C090910A0196
:1015100081E0892780930A0160E043C0C93191F1DD
:1015200068F4C631D9F0C83109F051C090910F016B
:1015300080911001892780930F0147C0CA31B9F00B
:10154000C03C91F144C0C093AF063FC0D0FF3FC044
:10155000C093AF0681E080930E013AC090910E01D6
:1015600081E0892780930E010E94F3032EC0D0FDF5
:1015700002C061E001C06DEB80E290E00E94D822E1
:101580000E94431D80910B0160E090E00E94D516FF
:10159000D232D9F48DE290E00E94C91660E08091C9
:1015A000B2060E94471311C08091B30681110DC08D
:1015B0005D9A8091C900877F8093C9008AE08093FB
:1015C0000A011092B2060E94D81A81E001C080E0A0
:1015D000DF91CF91089590E08E309105A8F5FC0140
:1015E000EA5AFF4F0C941C2088E12CC083E12AC0EA
:1015F00082E128C08CE026C085E124C08091B2063B
:10160000882311F181E080939B0680930E01109254
:10161000B1061092B0061092B20684EE92E00E94DB
:10162000CC05FC0182818A3379F491E1ACE9B6E022
:1016300001900D929A95E1F7089589E103C080EC3D
:1016400001C08AE10C946F0A0895CF9390E080E87E
:101650000FB6F89480936100909361000FBE0E94D2
:1016600004020E941B0F789480E290E00E94D02236
:101670008D3B11F410921001CFEF80914808843017
:1016800059F080911001811102C088E001C084E00E
:101690000E94ED1CC15089F780911001882321F030
:1016A0000E945E070E9493080E94CE110E94770557
:1016B000C1E080910A01823010F10E94B91D0E94A0
:1016C00007038823E1F01092B5061092B4060E9439
:1016D00077050E94BF1D5D988091C9008860809346
:1016E000C900C0930A010BC080914808853059F4A5
:1016F0000E94B91D0E94070381110E94980D8091DC
:101700001001882389F380910A01843090F6A8950E
:10171000823010F40E94D4110E949908CACF80919F
:10172000CB0608958FEF9091E800815095FD06C09B
:101730009AE69A95F1F700C08111F5CF8091E80003
:1017400085FB882780F991E089270895CF93DF935F
:1017500000D01F92CDB7DEB7209148082430B9F4ED
:1017600023E029839B838A832093E9000E94920BC4
:1017700081110DC040E050E063E070E0CE010196C1
:101780000E94AD0D8091E8008E778093E8000F9065
:101790000F900F90DF91CF910895CF93DF9300D0FA
:1017A0001F92CDB7DEB7209148082430C1F422E063
:1017B00029839B838A8383E08093E9000E94920BB4
:1017C00081110DC040E050E063E070E0CE01019671
:1017D0000E94AD0D8091E8008E778093E8000F9015
:1017E0000F900F90DF91CF910895CF93DF932091C9
:1017F00048082430A1F4EC0182E08093E9000E94C3
:10180000920B81110CC040E050E065E070E0CE0129
:101810000E94AD0D8091E8008E778093E800DF9103
:10182000CF910895CF93DF93EC01909148089430C5
:10183000D1F580911B018823D9F08091D3068823AC
:10184000B9F09093E9008FEF9091E800815095FDF9
:1018500006C095E19A95F1F700008111F5CF8091CE
:10186000E80085FF20C040E050E060E170E00BC080
:1018700081E08093E9000E94920B811114C040E046
:1018800050E068E070E0CE010E94AD0D8091E8006C
:101890008E778093E80080E1FE01ABEBB6E001902B
:1018A0000D928A95E1F7DF91CF91089580914708D5
:1018B000811109C00E94C00E0E941B0F8091E2009E
:1018C00084608093E2000895109247080895089577
:1018D000089542E061EC81E00E945B0E42E061EC21
:1018E00082E00E945B0E42E061EC83E00E945B0EAE
:1018F00042E161EC84E00C945B0E80914A088330F5
:1019000009F455C030F4813071F0823009F48EC092
:1019100008958A3009F47AC08B3009F460C08930A8
:1019200009F09CC020C080914908813A09F096C016
:101930008091E800877F8093E80080914D08909126
:101940004E08892B21F460E18BEB96E003C060E048
:1019500080E090E070E00E94F80D8091E8008B77C5
:101960008093E800089580914908813209F076C09B
:1019700080914D0890914E08009719F0039709F057
:101980006DC08091E800877F8093E8008091E80037
:1019900082FD05C0809148088111F8CF5FC0809119
:1019A000F1008093CB068091E8008B7753C0809143
:1019B0004908813A09F052C080914D0890914E0833
:1019C000892B09F04BC08091E800877F8093E80065
:1019D0008091E80080FFFCCF80911B0136C0809190
:1019E00049088132D9F580914D0890914E08892B94
:1019F000A9F58091E800877F8093E8000E946F0E30
:101A000080914B0880931B010C940213809149082C
:101A1000813221F58091E800877F8093E8000E9461
:101A20006F0E80914C088093CC06089580914908F0
:101A3000813AA1F48091E800877F8093E80080914B
:101A4000E80080FFFCCF8091CC068093F10080916C
:101A5000E8008E778093E8000C946F0E08958091D3
:101A6000CB068093BA061092CB0680E00E94470412
:101A70000E945B120C9402130C942F0D0E94BF1D48
:101A80008091BA068093CB0608950C943E0D292FC1
:101A9000332723303105C1F05CF42130310579F072
:101AA00022303105E9F58DE690E020E833E03CC0D6
:101AB00021323105C1F02232310511F131C082E10C
:101AC00090E02DEE33E030C099278330910540F54A
:101AD000FC01EE0FFF1FE45CFC4F20813181FC0113
:101AE000E75CFC4F1AC06430D8F4E62FF0E0EE0F4C
:101AF000FF1FEF5CFC4F2081318189E090E014C032
:101B0000643070F470E0FB01EE0FFF1FE75DFC4FE7
:101B100020813181FB01EB5DFC4F808190E004C0AE
:101B200080E090E020E030E0FA01318320830895E6
:101B300019BC82E089BD09B400FEFDCF8091D800B8
:101B40008F7D8093D8008091E00082608093E000D8
:101B50008091E00081FDFCCF0895CF92DF92EF925B
:101B6000FF920F931F93CF93DF93EC018B016A01D8
:101B70000E948E0E811133C0C114D10439F0F601D8
:101B800080819181081B190BC80FD91FE12CF12C02
:101B90000115110519F18091E80085FD16C08091AD
:101BA000E8008E778093E800C114D10449F0F60173
:101BB00080819181E80EF91EF182E08285E00FC0FC
:101BC0000E948E0E882321F30AC089918093F10030
:101BD00001501109FFEFEF1AFF0ADACF80E0DF9121
:101BE000CF911F910F91FF90EF90DF90CF900895CC
:101BF00020914F08309150082617370748F061159B
:101C0000710539F42091E8002E772093E80001C097
:101C1000B90140E061157105A9F12091480822231E
:101C200009F443C0253009F442C02091E80023FDA7
:101C300040C02091E80022FD32C02091E80020FF42
:101C4000E9CF4091F3002091F20030E0342BFC0109
:101C5000CF016115710559F02830310540F48191AB
:101C60008093F100615071092F5F3F4FF1CF41E048
:101C70002830310509F040E02091E8002E772093CC
:101C8000E800C8CF4111C9CF0AC080914808882315
:101C900061F0853061F08091E80083FD0AC0809199
:101CA000E80082FFF2CF80E0089582E0089583E0AB
:101CB000089581E008958F708093E900EBEEF0E0E5
:101CC000808181608083EDEEF0E010826093EC0013
:101CD00040838091EE00881F8827881F0895809197
:101CE000490887FF11C08091E80082FD05C08091FE
:101CF00048088111F8CF11C08091E8008B770BC0A4
:101D000080914808882349F08091E80080FFF8CF4F
:101D10008091E8008E778093E80008952091E40098
:101D20003091E50095E64091EC00842F817040FFF2
:101D300022C08091E80080FD1CC080914808882363
:101D400091F0853091F08091EB0085FD10C04091BD
:101D5000E4005091E5004217530729F39A0191508E
:101D600011F784E0089582E0089583E0089581E00A
:101D7000089580E008954091E80042FFDECF089585
:101D80000E942C0F0E94340FE0EEF0E08081816011
:101D90008083E8EDF0E080818F77808319BCA7ED28
:101DA000B0E08C918E7F8C9380818F7E80831092A7
:101DB000470808950F931F93CF93DF930E942C0F32
:101DC0000E94340FC8EDD0E088818F7788838881A6
:101DD0008068888388818F7D888319BC1092480829
:101DE000109245081092460800EE10E0F80180813C
:101DF0008B7F808388818160888342E060E080E01F
:101E00000E945B0EE1EEF0E080818E7F8083E2EE47
:101E1000F0E0808181608083808188608083F80128
:101E200080818E7F8083888180618883DF91CF91DC
:101E30001F910F910895E8EDF0E080818F7E8083FF
:101E4000E7EDF0E080818160808384E082BF81E003
:101E5000809347080C94DA0EE8EDF0E080818E7FE5
:101E600080831092E20008951092DA001092E1004F
:101E700008951F920F920FB60F9211242F933F9344
:101E80004F935F936F937F938F939F93AF93BF9382
:101E9000EF93FF938091E10082FF0BC08091E200FD
:101EA00082FF07C08091E1008B7F8093E1000E9458
:101EB000680C8091DA0080FF27C08091D80080FFF5
:101EC00023C080910F01823030F48091B3068111DC
:101ED00002C00E94431D8091DA008E7F8093DA0059
:101EE0008091D90019BC80FF0BC082E089BD09B484
:101EF00000FEFDCF81E0809348080E94560C04C08C
:101F0000109248080E94640C8091E10080FF19C083
:101F10008091E20080FF15C08091E2008E7F809367
:101F2000E2008091E20080618093E2008091D8001D
:101F300080628093D80019BC85E0809348080E9495
:101F40003C0D8091E10084FF39C08091E20084FF64
:101F500035C080910F01823030F48091B306811139
:101F600002C00E94431D19BC82E089BD09B400FE75
:101F7000FDCF8091D8008F7D8093D8008091E100C3
:101F80008F7E8093E1008091E2008F7E8093E2005B
:101F90008091E20081608093E2008091450888236F
:101FA00011F084E007C08091E30087FD02C081E06A
:101FB00001C083E0809348080E94450D8091E100B4
:101FC00083FF29C08091E20083FF25C08091E1005A
:101FD000877F8093E10082E0809348081092450853
:101FE0008091E1008E7F8093E1008091E2008E7FFE
:101FF0008093E2008091E20080618093E20042E001
:1020000060E080E00E945B0E8091F0008860809329
:10201000F0000E94670CFF91EF91BF91AF919F91EB
:102020008F917F916F915F914F913F912F910F9081
:102030000FBE0F901F9018951F920F920FB60F9220
:1020400011242F933F934F935F936F937F938F93BD
:102050009F93AF93BF93CF93DF93EF93FF93C09181
:10206000E900CF708091EC00D82FD17080FDD0E8CE
:102070001092E9008091F000877F8093F0007894BF
:102080000E9460101092E9008091F00088608093B7
:10209000F000CD2BCF70C093E900FF91EF91DF915D
:1020A000CF91BF91AF919F918F917F916F915F91F0
:1020B0004F913F912F910F900FBE0F901F90189549
:1020C0001F93CF93DF9300D0CDB7DEB7E9E4F8E0FC
:1020D00088E08E0F9091F10091938E13FBCF0E94B8
:1020E0007D0C8091E80083FFEDC0809149089091BC
:1020F0004A08492F50E04A30510508F0E3C0FA0180
:10210000EC59FF4F0C941C20803881F0823809F084
:10211000D9C080914D088F708093E9008091EB00C9
:1021200085FB882780F91092E90007C08091460856
:10213000882311F082E001C080E09091E800977F51
:102140009093E8008093F1001092F10095C0282F41
:102150002D7F09F0B7C0882319F0823061F0B2C03A
:1021600080914B08813009F0ADC0933009F080E0D8
:10217000809346082BC080914B08811127C0809125
:102180004D088F7009F49EC08093E9002091EB0008
:1021900020FF1CC0933021F48091EB00806214C0BA
:1021A0009091EB0090619093EB0021E030E0A90169
:1021B00002C0440F551F8A95E2F74093EA0010923F
:1021C000EA008091EB0088608093EB001092E900B8
:1021D0008091E800877F53C0811174C010914B0833
:1021E0001F778091E3008078812B8093E3008091BA
:1021F000E800877F8093E8000E946F0E8091E800DE
:1022000080FFFCCF8091E30080688093E300111190
:1022100002C082E001C083E08093480853C0805828
:10222000823008F04FC0AE014F5F5F4F60914D08A4
:1022300080914B0890914C080E94470DBC01892B5E
:1022400009F440C09091E800977F9093E80089815D
:102250009A810E94F80D8091E8008B778093E800C6
:1022600031C0803879F58091E800877F8093E8005D
:10227000809145088093F1008091E8008E778093EB
:10228000E8000E946F0E1EC081111CC090914B0887
:102290009230C0F48091E800877F8093E8009093AB
:1022A00045080E946F0E80914508811106C08091FB
:1022B000E30087FD02C081E001C084E0809348080C
:1022C0000E94690C8091E80083FF0AC08091E800B9
:1022D000877F8093E8008091EB0080628093EB0021
:1022E0000F900F90DF91CF911F9108959093D20698
:1022F0008093D10608958091D1069091D2060895D9
:10230000E091D106F091D206309721F00190F08152
:10231000E02D099480E00895E091D106F091D20675
:10232000309721F00280F381E02D09940895E09127
:10233000D106F091D206309721F00480F581E02D8E
:10234000099408952091CF063091D0068217930703
:1023500071F09093D0068093CF06E091D106F09172
:10236000D206309721F00680F781E02D0994089578
:102370002091CD063091CE068217930771F090938D
:10238000CE068093CD06E091D106F091D20630972B
:1023900021F00084F185E02D099408950E94F91C34
:1023A0000E941D020C94A403CF930E943C0280E083
:1023B00090E00E945C120E94EA1C0E94C21E809162
:1023C000F006882379F08091EE069091EF060E9446
:1023D0000E1D8C34910530F01092F0068AED96E0D7
:1023E0000E941705C091D9060E948011C81709F4F0
:1023F0005EC00E9480118093D90684FF55C08091F1
:10240000EE069091EF060E940E1D8C34910520F08F
:102410001092D806109251084091D80650E0FA0167
:10242000EC52F94F8091D906837023E030E0241BF1
:10243000350B220F331F01C0880F2A95EAF78083DE
:102440000E94021D9093EF068093EE068091D806BD
:102450008F5F8093D806843050F120915108E22F8D
:10246000F0E0E652F94F9091D5068091D406892B81
:102470009091D606892B9091D706892B80838091E5
:10248000DA068B3C31F4223020F487E490E00E949D
:10249000C9161092D806809151088F5F8093510819
:1024A00081E08093F00603C0CF910C94EB1CCF9198
:1024B00008950C9447040895CF93DF9300D000D083
:1024C00000D0CDB7DEB7FC01892B39F40E94021D84
:1024D000816060E05FEF4FEF05C040815181628114
:1024E00083819481FE01319626E0DF011D922A95B9
:1024F000E9F7782F9D838C838D819E810E946719D7
:1025000026960FB6F894DEBF0FBECDBFDF91CF91F8
:102510000895CF93882341F1803B29F48CEB91E01F
:10252000CF910C940B1AC82F8CEF8C0F813A20F0AE
:1025300080E58C0F8E3248F48C2F0E94D71F8111BA
:1025400013C08C2F0E94FD1B0CC080E28C0F8830C2
:1025500058F4C77081E001C0880FCA95EAF70E945D
:10256000831CCF910C94BA1CCF910895882349F114
:102570009CEF980F913A20F090E5980F9E3218F456
:102580000E943F1C0DC090E2980F983058F487705D
:1025900091E001C0990F8A95EAF7892F0E94891C62
:1025A0000C94BA1C9BE5980F933020F480E090E0E7
:1025B0000C94A211885A873120F480E090E00C94AA
:1025C000B8110895882321F00E94831C0C94BA1C32
:1025D0000895882321F00E94891C0C94BA1C089548
:1025E0000E94A01C0E94751C0E94BA1C0E94BB1F66
:1025F0000E94B71E80E090E00E94A21180E090E06F
:102600000C94B8110E94901C0C94F012CF93DF939D
:1026100000D000D01F92CDB7DEB70E94901B292FAB
:1026200022952F7030E02C3031054CF42A303105E2
:10263000C4F4225031092230310540F01FC02C3043
:102640003105B1F02F30310599F018C0853A28F4E2
:10265000843090F4823028F40FC090E2980F9830C4
:1026600058F0843058F0853A38F0803F39F404C08F
:1026700093FB882780F903C081E001C080E00F90C0
:102680000F900F900F900F90DF91CF9108958111CF
:1026900001C08AE0662311F0885A01C0835E90E091
:1026A0000C94C916CF92DF92EF92FF920F931F9373
:1026B000CF93DF93CDB7DEB727970FB6F894DEBF81
:1026C0000FBECDBF25E0FC01DE01119601900D92F9
:1026D0002A95E1F7FC0102814381548125812295ED
:1026E0002F7039816A814115510509F428C36F3F64
:1026F00019F43F3F09F423C36C014230510569F0DE
:10270000742F5D834C8349815A81602F8D812F8383
:102710000E94901B182F2F8102C019819A812F834C
:102720009E830E948F1B0E94891A9E81E92FE29549
:10273000EF70F0E0E259FF4F2F810C941C20892F9D
:10274000807F9F70F92E882319F0F29490EFF92280
:102750000023C1F00E94801C827259F08F2D82727A
:1027600041F08091BE0782628093BE07FF2DFD7D00
:10277000FF2EFF2009F46BC28F2D0E94931C0E9434
:10278000BA1C65C28091BE078D7D8093BE07812FE4
:102790000E94B612FF2009F4D2C28F2D0E94991C0C
:1027A00027960FB6F894DEBF0FBECDBFDF91CF9155
:1027B0001F910F91FF90EF90DF90CF900C94BA1C77
:1027C000892F807F9F70F92E803219F0F29480EF6C
:1027D000F822112319F0113001F129C00023A9F0CA
:1027E0008F2D222349F1213039F527960FB6F89421
:1027F000DEBF0FBECDBFDF91CF911F910F91FF9034
:10280000EF90DF90CF900C94A31C222319F021307D
:1028100009F495C20E94A61C2CC00023E9F02330C5
:1028200008F08DC20E94801C8F2129F022C0002355
:10283000F1F0211115C08F2D27960FB6F894DEBF49
:102840000FBECDBFDF91CF911F910F91FF90EF9001
:10285000DF90CF900C94E212223008F070C209C0D1
:10286000F601858180FFF3C18F708583E4CF21114C
:1028700019C28F2D89C1292F26952695237030E006
:102880002115310521F021303105C1F058C2002356
:1028900019F0812F937002C080E090E027960FB668
:1028A000F894DEBF0FBECDBFDF91CF911F910F9186
:1028B000FF90EF90DF90CF900C94B8110023D9F0E7
:1028C000212F392F33702115F3E03F0794F081EC6D
:1028D00091E00E940B1A60E0812F82958F700E9418
:1028E000471360E0812F8F700E9447138FEB91E0B8
:1028F00002C2C90102C080E090E027960FB6F894AA
:10290000DEBF0FBECDBFDF91CF911F910F91FF9022
:10291000EF90DF90CF900C94A211812F002381F0D3
:102920000E94F01D0E94B71E163408F008C2E12F65
:10293000F0E0E453F84F81E080838093CB07FFC140
:102940000E94401E0E94B71E163408F0F8C1E12F05
:10295000F0E0E453F84F1082F2C1892F837009F040
:1029600079C00111ECC1812F829586958770880FFF
:10297000880F212F2F70C22ED12CE12CF12C082E84
:1029800004C0CC0CDD1CEE1CFF1C0A94D2F714FF13
:1029900012C04FE050E060E070E004C0440F551FEB
:1029A000661F771F8A95D2F78A019B0100951095C3
:1029B0002095309503C000E010E09801969596951B
:1029C0009370492F50E0C901B80142305105D1F050
:1029D0004330510559F16C297D298E299F294130B9
:1029E000510541F127960FB6F894DEBF0FBECDBF5B
:1029F000DF91CF911F910F91FF90EF90DF90CF90DB
:102A00000C94A41A6C297D298E299F2927960FB62C
:102A1000F894DEBF0FBECDBFDF91CF911F910F9114
:102A2000FF90EF90DF90CF900C94BE1A0E94A41AF2
:102A3000C701B60127960FB6F894DEBF0FBECDBF13
:102A4000DF91CF911F910F91FF90EF90DF90CF908A
:102A50000C948A1A002319F0892F817001C0869581
:102A6000882309F46CC1812F829586958770880F21
:102A7000880F212F2F70C22ED12CE12CF12C082E83
:102A800004C0CC0CDD1CEE1CFF1C0A94D2F714FF12
:102A900012C04FE050E060E070E004C0440F551FEA
:102AA000661F771F8A95D2F78A019B0100951095C2
:102AB0002095309503C000E010E09801969596951A
:102AC0009370492F50E0C901B80142305105D1F04F
:102AD0004330510559F16C297D298E299F294130B8
:102AE000510541F127960FB6F894DEBF0FBECDBF5A
:102AF000DF91CF911F910F91FF90EF90DF90CF90DA
:102B00000C946B1B6C297D298E299F2927960FB663
:102B1000F894DEBF0FBECDBFDF91CF911F910F9113
:102B2000FF90EF90DF90CF900C947D1B0E946B1B69
:102B3000C701B60127960FB6F894DEBF0FBECDBF12
:102B4000DF91CF911F910F91FF90EF90DF90CF9089
:102B50000C94591B103F41F118F4103E48F46DC01D
:102B6000123F09F441C0D8F1133F09F442C065C0D7
:102B70001F70892F8F71002321F00E94F21A812F7C
:102B80005BCE0E94131B812F27960FB6F894DEBFF1
:102B90000FBECDBFDF91CF911F910F91FF90EF90AE
:102BA000DF90CF900C94E9120023A9F0223008F0B6
:102BB000C6C0892F8F7127960FB6F894DEBF0FBE5F
:102BC000CDBFDF91CF911F910F91FF90EF90DF90DC
:102BD000CF900C94381B233008F0B1C0EACF00230B
:102BE00029F0892F8F7146C00023D9F3892F8F7167
:102BF0006CC0002391F0892F8F7127960FB6F8943F
:102C0000DEBF0FBECDBFDF91CF911F910F91FF901F
:102C1000EF90DF90CF900C94DD1A27960FB6F894C2
:102C2000DEBF0FBECDBFDF91CF911F910F91FF90FF
:102C3000EF90DF90CF900C94D81A002359F1222303
:102C4000B9F093FF04C0F601858180FD11C0812F8A
:102C500027960FB6F894DEBF0FBECDBFDF91CF91A0
:102C60001F910F91FF90EF90DF90CF900C948912FD
:102C7000892F877027960FB6F894DEBF0FBECDBFA1
:102C8000DF91CF911F910F91FF90EF90DF90CF9048
:102C90000C94F21A2223B9F093FF04C0F601858147
:102CA00080FD11C0812F27960FB6F894DEBF0FBEAE
:102CB000CDBFDF91CF911F910F91FF90EF90DF90EB
:102CC000CF900C94B612892F877027960FB6F89480
:102CD000DEBF0FBECDBFDF91CF911F910F91FF904F
:102CE000EF90DF90CF900C94131B492F4F70612F02
:102CF000C6010E94D70127960FB6F894DEBF0FBE1B
:102D0000CDBFDF91CF911F910F91FF90EF90DF909A
:102D1000CF900C940B1A492F4F70612FC601279644
:102D20000FB6F894DEBF0FBECDBFDF91CF911F91DC
:102D30000F91FF90EF90DF90CF900C9419012796A0
:102D40000FB6F894DEBF0FBECDBFDF91CF911F91BC
:102D50000F91FF90EF90DF90CF900895CF93DF9386
:102D600000D000D000D0CDB7DEB789839A836B83C3
:102D700082E090E09D838C83CE0101960E945213E5
:102D800026960FB6F894DEBF0FBECDBFDF91CF9170
:102D90000895CF93DF93EC0161E00E94AE1660E0EE
:102DA000CE01DF91CF910C94AE16BF92CF92DF92FD
:102DB000EF92FF920F931F93CF93DF936C01B62E88
:102DC000C5E0D0E000E117E28AE0E82EF12CC60170
:102DD000B8010E940820CB01009731F0B7010E9492
:102DE00008206B2D0E944713C801B7010E940820DC
:102DF0008B01219761F7DF91CF911F910F91FF9088
:102E0000EF90DF90CF90BF900895CF93DF9300D0E5
:102E100000D01F92CDB7DEB70F900F900F900F909C
:102E20000F90DF91CF910895CF93DF9300D000D022
:102E300000D0CDB7DEB726960FB6F894DEBF0FBE32
:102E4000CDBFDF91CF9108951F93CF93DF93C091B2
:102E5000F10616E08091F206C81799F0D0E01C9FA9
:102E6000F0011D9FF00D1124ED50F94F408151816B
:102E700062817381848195810E9414172196C770A5
:102E8000E9CFDF91CF911F91089540912307509191
:102E9000240760912507709126078091270790915C
:102EA00028070C941417CF93DF93809128078295FD
:102EB0008F7009F051C080912507882309F44CC018
:102EC0008091F106C091F2064091230750912407AA
:102ED0006091260770912707D6E08C17E9F190E002
:102EE00061157105B1F15F3F11F44F3F91F1D89F2A
:102EF000F001D99FF00D1124DF01AD50B94F1196AB
:102F00002C911197521325C02C91421322C0129676
:102F10002C91129721111DC013962D913C9114975D
:102F2000261B370B283C3105A0F4809128078F70B1
:102F3000806180932807E850F94F80818F7080610D
:102F4000808383E297E00E945213DF91CF910C942B
:102F5000241701968770C1CFDF91CF910895AF926A
:102F6000BF92CF92DF92EF92FF920F931F93CF9376
:102F7000DF93CDB7DEB761970FB6F894DEBF0FBE13
:102F8000CDBF8C0185E0F801DE011D9601900D9208
:102F90008A95E1F7F80140815181F280C380D480A5
:102FA00090912307209124076091260770912707AD
:102FB0006115710509F442C12F3F19F49F3F09F4CF
:102FC0003DC183E2A82E87E0B82EE0902507F601E8
:102FD000E61BF70BEE2009F4D8C080912807382FA4
:102FE000307FE83CF10508F094C0311145C025134D
:102FF00012C0941310C0F1100EC08F7080618093C6
:1030000028070E944517C5010E9452138091280786
:10301000F80185832FC0C114D10419F15F3F11F469
:103020004F3FF9F0BF2CF1101CC08091F1062091A8
:10303000F20636E0821709F412C190E0389FF001E1
:10304000399FF00D1124ED50F94F6181561306C0E0
:103050006081461303C06281611103C001968770CD
:10306000E9CFEF2CFF2009F420C18091280781606F
:1030700080932807E12C19C1251306C0941304C0BE
:10308000F11002C0F801A0C04D875E87FF867C2D3D
:10309000D98AC88A6F2D89890E940613882399F1DD
:1030A000FF2089F120912807822F82958F7090E070
:1030B000029774F0809123079091240798878F835B
:1030C0001986DB86CA862C87CE0107960E9452138A
:1030D00086E0F801A3E2B7E001900D928A95E1F74E
:1030E0000E9453170E94451711C0251739F14D87CB
:1030F0005E87FF867C2DD98AC88A6F2D89890E94B8
:10310000061381112AC0C8010E945213EE24E394D1
:10311000CCC03111EACF7C2DD98AC88A6F2D89891C
:103120000E94051783E297E00E94521386E0F501A2
:1031300011928A95E9F70E9445179CCF9413D7CF37
:10314000F110D5CFF8018583C8010E94521386E0A3
:10315000F50111928A95E9F7A8C0FF20A1F220910C
:103160002807822F82958F7090E002970CF4B0CFE1
:1031700080912307909124079A8389831B82DD82A3
:10318000CC822E83CE010196A1CFE83CF10508F058
:1031900046C0EF2CFF2009F4B6CF25132BC09413A3
:1031A00029C02091280720FD1CC0822F82958F7096
:1031B000C1F0F80125838F3041F08F5F982F9295F1
:1031C000907F822F8F70892B8583C8010E945213B4
:1031D00086E0F801A3E2B7E001900D928A95E1F74D
:1031E0002AC086E0F801A3E2B7E001900D928A952B
:1031F000E1F75BC04D875E87FF867C2DD98AC88A40
:103200006F2D89890E940613811162CF8091280752
:10321000816080932807C8010E94521346C07C2D0C
:10322000D98AC88A6F2D89890E94051786E0F50121
:1032300011928A95E9F70E94451737C0FF2009F4DB
:1032400062CF4D875E87FF867C2DD98AC88A6F2D15
:1032500089890E940613882309F455CF39CF7C2D24
:10326000D98AC88A60E089890E94901B292F2295FB
:103270002F7030E0223031052CF49F7041F0811125
:1032800006C00CC0243031052CF49F7049F4805ED8
:10329000883020F0C8010E945213BE2CEB2C05C0D0
:1032A000F8019581907F99F7F9CF8E2D61960FB631
:1032B000F894DEBF0FBECDBFDF91CF911F910F916C
:1032C000FF90EF90DF90CF90BF90AF9008951F9345
:1032D000CF93DF93CDB7DEB72C970FB6F894DEBF50
:1032E0000FBECDBF4F83588769877A878B879C87AE
:1032F000CE0107960E94AF17882369F08F819885C9
:103300002A853B85232BF1F19F3F09F063C08F3F56
:1033100009F060C037C086E0FE013796DE011196E5
:1033200001900D928A95E1F76F817885EA85FB859A
:10333000309741F17F3F11F46F3F21F12091F20668
:1033400030E0C9010196877099274091F10650E05D
:103350008417950709F447C069837A83FD83EC835A
:1033600096E0929FD001939FB00D1124AD50B94FBC
:10337000FE01319601900D929A95E1F78093F20645
:103380000E94241716E08091F1069091F2068917A9
:10339000C1F1189FC00111248D50994F0E94AF17A1
:1033A000882379F1E091F1061E9FF0011124ED5080
:1033B000F94F4081518162817381848195810E949E
:1033C00014178091F10690E00196877099278093F9
:1033D000F106D9CF4F81588569857A858B859C8583
:1033E0000E941417CFCF0E9402131092F20610927F
:1033F000F106E3E2F7E086E0DF011D928A95E9F746
:10340000C1CF2C960FB6F894DEBF0FBECDBFDF91B3
:10341000CF911F910895EF92FF921F93CF93DF9367
:103420009C01892B09F465C0E9012196F9011491E9
:10343000193709F43FC0C0F4143740F4143008F0D1
:1034400053C08FEF810F823000F153C0143709F061
:1034500050C07901F2E0EF0EF11CFE0184910E9450
:10346000ED1CE7019E01E0CF133828F4113868F411
:10347000103801F13EC01338B9F0143F08F039C0DC
:103480001F77812F90E0926031C0FE018591949169
:10349000612F6170E901133018F42296992701C059
:1034A00023960E94AE16DECFFE0185919491E9012C
:1034B00023961CC0FE01E590F490E901239684E078
:1034C0000E94E212103841F461E081E00E9447134B
:1034D000F0EAEF1AF6E8FF0A61E0C7010E94D5168C
:1034E00084E00E94E912BECF812F90E00E94C916AD
:1034F000B9CFDF91CF911F91FF90EF900895609326
:10350000A9077093AA078093AB079093AC070C941C
:10351000720408950F931F9300911C0110911D01D7
:1035200020911E0130911F01602B712B822B932B58
:1035300060931C0170931D0180931E0190931F01E5
:103540001F910F910C94B1040F931F9300911C01D4
:1035500010911D0120911E0130911F0160237123E4
:103560008223932360931C0170931D0180931E019D
:1035700090931F011F910F910C94B1040F931F930F
:1035800000911C0110911D0120911E0130911F011D
:10359000602771278227932760931C0170931D0178
:1035A00080931E0190931F011F910F910C94B10401
:1035B00060E070E0CB010C947F1A0F931F9341E001
:1035C00050E060E070E08A019B0104C0000F111F11
:1035D000221F331F8A95D2F7C901B8011F910F919D
:1035E0000C947F1A0F931F9341E050E060E070E06D
:1035F00004C0440F551F661F771F8A95D2F780912C
:10360000A9079091AA07A091AB07B091AC078A01D6
:103610009B01082B192B2A2B3B2BC901B8011F91A9
:103620000F910C947F1A0F931F9341E050E060E0DC
:1036300070E004C0440F551F661F771F8A95D2F7AC
:1036400040955095609570958091A9079091AA0733
:10365000A091AB07B091AC078A019B010823192305
:103660002A233B23C901B8011F910F910C947F1AA3
:103670000F931F9341E050E060E070E004C0440FFE
:10368000551F661F771F8A95D2F78091A9079091E1
:10369000AA07A091AB07B091AC078A019B0108274C
:1036A00019272A273B27C901B8011F910F910C94B4
:1036B0007F1A0F931F930091A9071091AA072091D9
:1036C000AB073091AC07602B712B822B932B1F9192
:1036D0000F910C947F1A0F931F930091A9071091DB
:1036E000AA072091AB073091AC0760237123822396
:1036F00093231F910F910C947F1A0F931F930091A6
:10370000A9071091AA072091AB073091AC07602759
:103710007127822793271F910F910C947F1A089588
:103720008F929F92AF92BF92DF92EF92FF920F9390
:103730001F93CF93DF9300D000D01F92CDB7DEB799
:103740008A016623C9F180901C0190901D01A09010
:103750001E01B0901F018091A9079091AA07A09126
:10376000AB07B091AC07882A992AAA2ABB2A8FE115
:10377000E82EF12CD501C4010E2C04C0B695A795F6
:10378000979587950A94D2F780FF07C0DE2CB80181
:103790008E2D0E94C11D019729F481E0E81AF108DD
:1037A00048F7D12C88E0189FF0011124E00FF11D9B
:1037B000E75DF84FD08209C088E0189FF00111241E
:1037C000E40FF11DE75DF84FD08009831A8369810A
:1037D0007A818D2D0E94C11D0F900F900F900F9038
:1037E0000F90DF91CF911F910F91FF90EF90DF909D
:1037F000BF90AF909F908F90089590911B01913052
:1038000021F49091D306911109C0209120013091AB
:103810002101F90132969FEF40E01FC0982F969545
:10382000969596959F3050F5E0912001F0912101F9
:10383000E90FF11D877021E030E0A90102C0440FBB
:10384000551F8A95E2F7CA019181892B81830895DA
:103850009F3F39F04F5F4E3041F051915813F8CFF0
:103860000DC05111F7CF942FF5CF9F3F39F0F901DB
:10387000E90FF11D97FDFA958283089508959091BF
:103880001B01913021F49091D306911109C0209130
:10389000200130912101F9013296205F3F4F1FC076
:1038A000982F9695969596959F30F0F4E09120018B
:1038B000F0912101E90FF11D877021E030E0A901AD
:1038C00002C0440F551F8A95E2F7CA018095918185
:1038D0008923818308953196E217F30729F09081B7
:1038E0009813F9CF1082F7CF0895E0912001F0915D
:1038F000210131968FE0DF011D928A95E9F7089545
:103900008091C00708959091C007892B8093C007CC
:10391000089580959091C00789238093C0070895EA
:103920001092C00708959091BF07892B8093BF071D
:10393000089580959091BF0789238093BF070895CC
:103940001092BF0708958093AD0708951092AD07B8
:1039500008958091200190912101FC0131969C01F4
:10396000205F3F4F80E0919191118F5FE217F30745
:10397000D1F70895E0912001F09121018091C007D5
:103980008083E0912001F091210190818091BF0717
:10399000892B8083E0912001F09121018091BE0765
:1039A00080959081892380838091AD07882361F081
:1039B000E0912001F09121019081892B80830E9468
:1039C000A91C81111092AD078091200190912101D5
:1039D0000C948C1108950C945912882341F0EFE94E
:1039E000FFE03197F1F700C000008150F6CFA895B5
:1039F000089582E084BD93E095BD9DE797BD8093D7
:103A00006E0008952FB7F8948091C1079091C20776
:103A1000A091C307B091C4072FBF08959C014FB771
:103A2000F8948091C1079091C207A091C307B0910B
:103A3000C4074FBF821B930B089578941F920F9277
:103A40000FB60F9211248F939F93AF93BF938091E2
:103A5000C1079091C207A091C307B091C407019616
:103A6000A11DB11D8093C1079093C207A093C30706
:103A7000B093C407BF91AF919F918F910F900FBEEC
:103A80000F901F90189580910A01823050F40E9487
:103A900002138FE19EE40197F1F700C000000E943D
:103AA000C00E0E947705FFCF1F920F920FB60F92A4
:103AB00011248F939F93AF93BF938091C507882361
:103AC00071F08130F9F48091C1079091C207A09103
:103AD000C307B091C4078096A11DB11D0BC0809192
:103AE000C1079091C207A091C307B091C407419646
:103AF000A11DB11D8093C1079093C207A093C30776
:103B0000B093C407BF91AF919F918F910F900FBE5B
:103B10000F901F901895CF9390914808943039F1E9
:103B2000C82F0E946B05C093C507C3FD02C080E487
:103B300001C080E6C770C82B88E190E00FB6F8940A
:103B4000A895809360000FBEC09360000E9443035D
:103B500083B7817F846083BF83B7816083BF78949C
:103B6000889583B78E7F83BFCF910C946B05CF91DF
:103B7000089581E00E948B1D80E00C948B1D0C94B5
:103B80004903CF93C82FCB010E940301803819F459
:103B900080E090E00CC0EC2FF0E0FE2FEE27E0502C
:103BA000F04AE80FF11DE80FF11D85919491CF9136
:103BB000089590911208992329F0892F880F880F72
:103BC000890F02C0843140F4662311F086958695F2
:103BD000811105C081E0089584E16111F7CF089556
:103BE000803F08F44CC0803F11F49FEF03C0813F39
:103BF00021F491E0909320083BC0823F11F49FEFA5
:103C000003C0833F21F491E090931F0831C0893FA6
:103C100070F421E030E09CE0980F01C0220F9A95EB
:103C2000EAF790911E08292B20931E0821C0893F96
:103C300011F491E003C08A3F21F49FEF9093210893
:103C400017C08B3F11F49FEF03C08C3F21F491E02C
:103C5000909322080DC021E030E093E0980F01C05E
:103C6000220F9A95EAF790911208292B20931208B7
:103C7000895F843020F4109214081092130808957C
:103C8000803F08F473C0803F49F410921808809177
:103C9000200887FF6BC0109220080895813F39F4F7
:103CA00010921908809120081816ACF30895823FED
:103CB00049F41092160880911F0887FF57C0109290
:103CC0001F080895833F39F41092170880911F0848
:103CD0001816ACF30895893F88F4845F21E030E042
:103CE000A90102C0440F551F8A95E2F7CA018095C9
:103CF00090911E08892380931E080895893F49F4F6
:103D000010921C0880912108181684F51092210841
:103D100008958A3F39F410921D088091210887FF89
:103D200025C0F4CF8B3F49F410921A0880912208E5
:103D300087FF1CC01092220808958C3F39F410921E
:103D40001B08809122081816ACF308958D5F21E0BE
:103D500030E0A90102C0440F551F8A95E2F7CA015D
:103D600080959091120889238093120808958EE11E
:103D700098E00E9497110E94021D9093C8078093BB
:103D8000C70708950F931F93CF93DF938091CB07BD
:103D9000882339F18091C9079091CA070E940E1DAE
:103DA0004597F8F00CEC17E0C0E0D0E080E0F801B7
:103DB00091918F01992349F0209719F484EF90E5B0
:103DC00001C0CE010E94C91681E02196C634D105FA
:103DD00071F78093CB070E94021D9093CA078093CE
:103DE000C9078091C7079091C8070E940E1DAC01BA
:103DF00090911508923019F028E230E002C025E0D9
:103E000030E04217530708F4B1C020911F08109109
:103E10002008D0912108C0912208812F822B8D2B60
:103E20008C2B19F410921508A1C0923020F49F5FDA
:103E3000909315089BC08091C6078F5F8093C6073B
:103E40008D3008F475C080910F01811102C085E0AA
:103E500001C080E08093C607121654F480911708C1
:103E60008F5F8093170860E00E94D91D80931F0820
:103E700080911F0887FF0BC0809116088F5F809389
:103E8000160860E00E94D91D819580931F081116C5
:103E900054F4809119088F5F8093190860E00E94A4
:103EA000D91D809320088091200887FF0BC0809146
:103EB00018088F5F8093180860E00E94D91D8195D3
:103EC000809320081D1654F480911C088F5F809306
:103ED0001C0861E00E94D91D80932108809121086F
:103EE00087FF0BC080911D088F5F80931D0861E0E4
:103EF0000E94D91D8195809321081C1654F480914D
:103F00001B088F5F80931B0861E00E94D91D80937E
:103F100022088091220887FF0BC080911A088F5FCA
:103F200080931A0861E00E94D91D81958093220830
:103F3000D0912108C0912208809113089091140813
:103F40000196909314088093130805972CF410920F
:103F500021081092220804C010921408109213082D
:103F60000E94B71ED0932108C0932208DF91CF9101
:103F70001F910F910895EEE1F8E085E0DF011D92B9
:103F80008A95E9F7109212080895813161F40E9430
:103F900002139091D30681E089278093D3060E9473
:103FA0009C0381E0089580E0089580E00895CF9318
:103FB000C82F80912308882319F0813051F023C045
:103FC000E0912001F0912101808182528230E8F459
:103FD00008C0E0912001F09121018081825282305D
:103FE00068F48C2F0E946F0A811104C08C2F0E94EC
:103FF000C51F02C081E090E0817008C08C2F0E9434
:10400000D51F81E003C01092230880E0CF9108956E
:10401000AA1BBB1B51E107C0AA1FBB1FA617B707EE
:1040200010F0A61BB70B881F991F5A95A9F780950A
:104030009095BC01CD010895EE0FFF1F0590F491FE
:10404000E02D0994FB01DC0104C08D9101908019E1
:1040500021F441505040C8F7881B990B0895AEE0F9
:10406000B0E0E5E3F0E20C94F8220D891E8986E0C9
:104070008C831A8309838FEF9FE79E838D83AE0124
:10408000475E5F4F6F89788DCE0101960E94522066
:104090002F813885F801E20FF31F10822E96E4E09D
:1040A0000C941423ACE0B0E0E8E5F0E20C94EA22D2
:1040B0007C016B018A01FC0117821682838181FFDA
:1040C000BDC1CE0101964C01F7019381F60193FD2C
:1040D000859193FF81916F01882309F4ABC18532EB
:1040E00039F493FD859193FF81916F01853229F415
:1040F000B70190E00E943A22E7CF512C312C20E00A
:104100002032A0F48B3269F030F4803259F08332DF
:1041100069F420612CC08D3239F0803339F421608C
:1041200026C02260246023C0286021C027FD27C04C
:1041300030ED380F3A3078F426FF06C0FAE05F9E83
:10414000300D1124532E13C08AE0389E300D1124F7
:10415000332E20620CC08E3221F426FD6BC1206408
:1041600006C08C3611F4206802C0883641F4F6018E
:1041700093FD859193FF81916F018111C1CF982F9C
:104180009F7D9554933028F40C5F1F4FFFE3F98314
:104190000DC0833631F0833771F0833509F05BC091
:1041A00022C0F801808189830E5F1F4F442443940D
:1041B000512C540115C03801F2E06F0E711CF8014A
:1041C000A080B18026FF03C0652D70E002C06FEFB4
:1041D0007FEFC5012C870E942F222C0183012C85A3
:1041E0002F77222E17C03801F2E06F0E711CF801F4
:1041F000A080B18026FF03C0652D70E002C06FEF84
:104200007FEFC5012C870E9424222C012C85206879
:10421000222E830123FC1BC0832D90E048165906F3
:10422000B0F4B70180E290E00E943A223A94F4CFD1
:10423000F50127FC859127FE81915F01B70190E090
:104240000E943A2231103A94F1E04F1A5108411479
:10425000510471F7E5C0843611F0893639F5F8015B
:1042600027FF07C060817181828193810C5F1F4F9E
:1042700008C060817181072E000C880B990B0E5FBE
:104280001F4F2F76722E97FF09C0909580957095DD
:1042900061957F4F8F4F9F4F2068722E2AE030E04C
:1042A000A4010E947222A82EA81844C0853729F4C0
:1042B0002F7EB22E2AE030E025C0F22FF97FBF2EEC
:1042C0008F36C1F018F4883579F0B4C0803719F012
:1042D000883721F0AFC02F2F2061B22EB4FE0DC061
:1042E0008B2D8460B82E09C024FF0AC09F2F9660D2
:1042F000B92E06C028E030E005C020E130E002C061
:1043000020E132E0F801B7FE07C06081718182814F
:1043100093810C5F1F4F06C06081718180E090E047
:104320000E5F1F4FA4010E947222A82EA818FB2D19
:10433000FF777F2E76FE0BC0372D3E7FA51450F4FD
:1043400074FE0AC072FC08C0372D3E7E05C0BA2C30
:10435000372D03C0BA2C01C0B52C34FF0DC0FE01AF
:10436000EA0DF11D8081803311F4397E09C032FFDE
:1043700006C0B394B39404C0832F867809F0B39435
:1043800033FD13C030FF06C05A2CB31418F4530C7D
:104390005B18B32CB31468F4B70180E290E03C875B
:1043A0000E943A22B3943C85F5CFB31410F43B1825
:1043B00001C0312C34FF12C0B70180E390E03C878C
:1043C0000E943A223C8532FF17C031FD03C088E7C6
:1043D00090E002C088E590E0B7010CC0832F86789A
:1043E00059F031FF02C08BE201C080E237FD8DE25F
:1043F000B70190E00E943A22A51438F4B70180E397
:1044000090E00E943A225A94F7CFAA94F401EA0D60
:10441000F11D8081B70190E00E943A22A110F5CFF2
:10442000332009F451CEB70180E290E00E943A2295
:104430003A94F6CFF7018681978102C08FEF9FEF04
:104440002C96E2E10C940623FC010590615070402B
:104450000110D8F7809590958E0F9F1F0895FC014D
:104460006150704001900110D8F7809590958E0FA3
:104470009F1F08950F931F93CF93DF93FB01238119
:1044800021FD03C08FEF9FEF28C022FF16C0468199
:104490005781248135814217530744F4A081B181AB
:1044A0009D012F5F3F4F318320838C93268137817D
:1044B0002F5F3F4F3783268310C0EB01092F182F42
:1044C0000084F185E02D0995892BE1F68E819F818D
:1044D00001969F838E83812F902FDF91CF911F9123
:1044E0000F910895FA01AA27283051F1203181F166
:1044F000E8946F936E7F6E5F7F4F8F4F9F4FAF4FEC
:10450000B1E03ED0B4E03CD0670F781F891F9A1FFE
:10451000A11D680F791F8A1F911DA11D6A0F711DB2
:10452000811D911DA11D20D009F468943F912AE0BE
:10453000269F11243019305D3193DEF6CF010895A6
:10454000462F4770405D4193B3E00FD0C9F7F6CFD7
:10455000462F4F70405D4A3318F0495D31FD40529F
:10456000419302D0A9F7EACFB4E0A6959795879535
:1045700077956795BA95C9F7009761057105089514
:104580009B01AC010A2E06945795479537952795C0
:10459000BA95C9F7620F731F841F951FA01D089558
:1045A000F999FECF92BD81BDF89A992780B50895FB
:1045B000262FF999FECF92BD81BDF89A019700B4DC
:1045C000021639F01FBA20BD0FB6F894FA9AF99A7C
:1045D0000FBE08952F923F924F925F926F927F92FB
:1045E0008F929F92AF92BF92CF92DF92EF92FF9203
:1045F0000F931F93CF93DF93CDB7DEB7CA1BDB0BAF
:104600000FB6F894DEBF0FBECDBF09942A88398853
:1046100048885F846E847D848C849B84AA84B9845A
:10462000C884DF80EE80FD800C811B81AA81B98166
:10463000CE0FD11D0FB6F894DEBF0FBECDBFED017A
:064640000895F894FFCF7D
:1046460067059F061A066A05D105010C730E01045B
:10465600018F0B120CF50BCD0BA60B010100000010
:10466600AE0748484B42204A5020424C450A004873
:10467600484B4220424C450A000020000020000022
:104686000000000000001000000010000000000004
:104696000041542B424C45484944434F4E54524FD7
:1046A6004C4B45593D25640A0041542B424C454824
:1046B60049444D4F5553454D4F56453D25642C2590
:1046C600642C25642C25640A00425554544F4E3DF3
:1046D60025640A0041542B424C454B4559424F41F3
:1046E6005244434F44453D0030302D30300A0025BA
:1046F6003032582D30302D253032582D2530325855
:104706002D253032582D253032582D253032582D52
:10471600253032580A004552524F520041542B461A
:104726004143544F525952455345540A0041542B64
:10473600424C45484944454E3D0041542B47415063
:104746004445564E414D453D0041542B4741504747
:104756004554434F4E4E0A0041542B474150444561
:104766004C424F4E44530A0041540A0041545F4F95
:104776004B004154453D300A0041542B47415053AC
:10478600544152544144560A0041542B4241554427
:10479600524154453D37363830300A0041542B4794
:1047A600415454434841523D310A0041542B47413C
:1047B6005454414444534552564943453D55554941
:1047C600443D363135390A0041542B474154544152
:1047D6004444434841523D555549443D3078324161
:1047E60031392C50524F504552544945533D31367C
:1047F6002C4D494E5F4C454E3D312C56414C55454E
:104806003D390A0041545A0A0041542B4741545439
:10481600434841523D312C0041542B4857414443B3
:104826003D360A0041542B424C45474554504545B8
:1048360052414444520A0041542B47415044495383
:10484600434F4E4E4543540A0041542B4741505363
:104856004554414456444154413D30322D30312D6A
:104866003000340A00404D3639BB046E043804FF6C
:10487600039203AB03C403DD03040A2C7C03700319
:1048860042032C03480048004B004200200042002F
:104896004C0045002000530020002800550053001E
:1048A60042005F0044004B00420053002900000014
:1048B6000A03590041004E004700000004030904A2
:1048C60009026D00040100A0FA09040000010301B9
:1048D600010009211101000122400007058103089A
:1048E6000001090401000103010200092111010070
:1048F60001224D0007058203080001090402000198
:10490600030000000921110100012236000705837A
:104916000308000A0904030001030000000921112D
:10492600010001223900070584031000011201105D
:104936000100000008EDFEC019010001020001059A
:10494600010906A101050719E029E71500250195CA
:10495600087501810205081901290595057501915A
:1049660002950175039101050719002977150025A0
:1049760001957875018102C005010980A1018502B2
:1049860016010026B7001A01002AB7007510950116
:104996008100C0050C0901A1018503160100269CB2
:1049A600021A01002A9C02751095018100C00501BA
:1049B6000902A1010901A10005091901290515002E
:1049C6002501950575018102950175038101050192
:1049D600093009311581257F950275088106093848
:1049E6001581257F950175088106050C0A38021583
:1049F60081257F950175088106C0C005010906A1BC
:104A060001050719E029E7150025019508750181BB
:104A16000295017508810105081901290595057595
:104A26000191029501750391010507190029FF15EA
:0C4A36000026FF00950675088100C000F6
:106000008800EA40E940E24004000500060007007D
:10601000080009000A000B000C000D000E000F0024
:1060200010001100120013001400150016001700D4
:10603000180019001A001B001C001D001E001F0084
:106040002000210022002300240025002600270034
:10605000280029002A002B002C002D002E002F00E4
:106060003000310032003300340035003600370094
:10607000380039003A003B003C003D003E003F0044
:1060800040004100420043004400450046004700F4
:10609000480049004A004B004C004D004E004F00A4
:1060A0005000510052005300540055005600570054
:1060B000580059005A005B005C005D005E005F0004
:1060C0006000610062006300640065008500670095
:1060D000F450F550F650F750F850F950FA506F0060
:1060E0007000710072007300890087008A008B00C5
:1060F000E000E100E200E300E400E500E600E70084
:106100000100010001000100010002F00100010096
:106110000100010092410100010001004A004B0012
:106120000100010001000100010001000100010067
:106130006F40010001000100704001003A003B0087
:106140003C003D003E003F00400041004200430053
:10615000010035004C000100010044004500010031
:1061600001000100010050004F0029004D004E00C9
:1061700051000100010001000100010001000100C7
:106180000100010001000100010001000100010007
:106190000100010001000100010001000100E940CF
:1061A000E240EA400100010001000100010001009D
:1061B00001000100010001000100010001000100D7
:1061C00001000100010001000100010001000100C7
:1061D00001000100010001000100010001000100B7
:1061E000010001000100010049000100010001005F
:1061F0000100010001000100010001000100010097
:106200001100010001000100010001000100010076
:106210000100010001000100010001000100010076
:106220000100010001000100010001000100010066
:106230000100010001000100010001000100010056
:106240000100010001000100010001000100010046
:106250000100010001000100010001000100010036
:106260000100010001000100010001000100010026
:106270000100010001000100010001000100010016
:106280000100010001000100010001000100010006
:1062900001000100010001000100010001000100F6
:1062A00001000100010001000100010001000100E6
:1062B00001000100010001000100010001000100D6
:1062C00001000100010001000100010001000100C6
:1062D00001000100010001000100010001000100B6
:1062E00001000100010001000100010001000100A6
:1062F0000100010001000100010001000100010096
:106300000100010001000100010001000100010085
:106310000100010001000100010001000100010075
:106320000100010001000100010001000100010065
:106330000100010001000100010001000100010055
:106340000100010001000100010001000100010045
:106350000100010001000100010001000100010035
:106360000100010001000100010001000100010025
:106370000100010001000100010001000100010015
:106380000100010001000100010001000100010005
:1063900001000100010001000100010001000100F5
:1063A00001000100010001000100010001000100E5
:1063B00001000100010001000100010001000100D5
:1063C00001000100010001000100010001000100C5
:1063D00001000100010001000100010001000100B5
:1063E00001000100010001000100010001000100A5
:1063F0000100010001000100010001000100010095
:106400000200010001000100010001000100010083
:106410000100010001000100010001000100010074
:106420000100010001000100010001000100010064
:106430000100010001000100010001000100010054
:106440000100010001000100010001000100010044
:106450000100010001000100010001000100010034
:106460000100010001000100010001000100010024
:106470000100010001000100010001000100010014
:106480000100010001000100010001000100010004
:1064900001000100010001000100010001000100F4
:1064A00001000100010001000100010001000100E4
:1064B00001000100010001000100010001000100D4
:1064C00001000100010001000100010001000100C4
:1064D00001000100010001000100010001000100B4
:1064E00001000100010001000100010001000100A4
:1064F0000100010001000100010001000100010094
:106500000000010001000100010001000100010084
:106510000100010001000100010001000100010073
:106520000100010001000100010001000100010063
:106530000100010001000100010001000100010053
:106540000100010001000100010001000100010043
:00000001FF
