:100000000C94D6000C94F3000C94F3000C94F300C1
:100010000C94F3000C94F3000C94F3000C94F30094
:100020000C94F3000C94F3000C945E0E0C94330FBC
:100030000C9427050C94F3000C94F3000C94F3003B
:100040000C94F3000C94F3000C94F3000C94F30064
:100050000C94F3000C94791C0C94F3000C94F300B2
:100060000C94F3000C94B3040C94F3000C94F30080
:100070000C94F3000C94F3000C94F3000C94F30034
:100080000C94F3000C94F3000C94F3000C94F30024
:100090000C94F3000C94F3000C94F3000C94F30014
:1000A0000C94F3000C94F3000C94F3009C0FBF0F1E
:1000B0007F10BF0F7F10041027107F1049105C10B5
:1000C000E612E61234133413B613FF13F115F115CB
:1000D0003514F1158C138C13C915F115F115DE15B6
:1000E0008080292B4A793980808021086506078025
:1000F0008080201A7A1B168080801E807880808005
:100100008080808080808080808022158019098096
:1001100080801F147B1D0480808023172C050A809B
:100120008080260C7E360E80808025184D100D8034
:100130008080241C80110B80808027127F370F80E5
:1001400080802A804F7D28808080353051523180D8
:1001500080802D137C38338080802E2F504C34804B
:100160001F141A16041D1B0620211508070919055E
:1001700022231C170A0B11801E292B78797A7B2CDD
:100180002425180C0E0D108031352A284C7D7E7FD9
:1001900026271213330F36802D2E302F3438378018
:1001A00062620028008315087432000011241FBE0B
:1001B000CFEFDAE0DEBFCDBF15E0A0E0B1E0E2EDC9
:1001C000F4E402C005900D92AC30B107D9F728E0F5
:1001D000ACE0B5E001C01D92A931B207E1F70E9481
:1001E000540A0C9467220C94000020911205E92F08
:1001F000F0E090E033E0EE0FFF1F3A95E1F78E0F4D
:100200009F1FFC01222319F0E052FF4F02C0E05A69
:10021000FE4F849108950F931F93CF93DF938C012A
:10022000C62FD42F0E94D01BF8019281C130C1F09B
:1002300028F0C43021F1C53051F136C0992391F036
:100240009D2F9270D0FD90622D2F2470982321F065
:1002500080FD02C085E30EC0822349F489E20AC012
:10026000911103C080910C051BC082FF02C08DE379
:1002700001C081E280930C0580910C050DC099238B
:1002800021F0827289F48CE207C08CE209C09923C4
:1002900031F085FD09C082E50E94D51103C082E5D9
:1002A0000E9403120E940A1CF8018281882309F42B
:1002B00047C0C33089F058F4C23009F041C085E02E
:1002C00090E0DF91CF911F910F910C946D09CB308D
:1002D000A9F0C13171F134C090913A0581E08927CC
:1002E00080933A059091910788E889278093910738
:1002F000DF91CF911F910F910C948204DC3091F427
:1003000080911008843071F081B3836181BB88ECE7
:100310000E94491C889886E90E94491C899886E9B0
:100320000E94491C8D2FDF91CF911F910F910C944A
:10033000200A8F9B03C0879A8F9802C087988F9A54
:10034000DF91CF911F910F910895611107C0FC01BA
:100350008281882319F080E09FE5089580E090E095
:1003600008958FEF84B980E485B9569A5E9880919C
:100370001205882319F087B1806C87B985E38A95C7
:10038000F1F70000089514B88FEF85B95E9A809157
:100390001205882331F087B18F7387B988B1806CDB
:1003A00088B9089585988D9A6A98729A81E00E941A
:1003B000491C8CB182FB992790F981E089278093B1
:1003C0001205E4EBFEE7E491E03A11F07D9925C0D7
:1003D00081E0809311055198599A80911908909164
:1003E0001A088A3A9B4BC9F410921A0810921908FD
:1003F000519A5998559A5D9880B3816180BB81B3B9
:10040000816181BB8FEF91E12AE7815090402040CC
:10041000E1F700C000000C94DD04089580911205FE
:10042000882319F081E391E002C08EE391E00C94FF
:10043000E7068091190890911A088A3A9B4B31F48B
:1004400010921A08109219080E94DA0657985F9ABB
:1004500087B18F7387B988B1806C88B90E94B10168
:1004600086E295E0909339058093380586E195E022
:10047000909337058093360580911205811102C053
:1004800088E001C080E1809314050895FF920F93E6
:100490001F93CF93DF93809136059091370520917C
:1004A0003805309139053093370520933605909300
:1004B0003905809338051092150520E0A1E0B0E0E1
:1004C00080911405281708F0A4C0283010F030E4FB
:1004D00001C030E8422F50E0EA0183E0CC0FDD1F7D
:1004E0008A95E1F780E090E0122F17706091120575
:1004F000FE01E80FF91F662319F0E052FF4F02C01A
:10050000E05AFE4FE491E03809F47CC065B1607CAC
:10051000612BFC0173E0EE0FFF1F7A95E1F76E2B64
:1005200065B960911205611138B9E0913605F09115
:100530003705E40FF51F608170E0082E02C0759545
:1005400067950A94E2F760FD2F9A06B52E9868E049
:100550006A95F1F769B12F982E9A67FD22C06091D4
:10056000130561111EC060910E016250683008F4DD
:100570006FC010927C0610927B06609115056F5F2C
:1005800060931505E0913805F0913905E40FF51FEA
:10059000F080BD01082E01C0660F0A94EAF76F29AA
:1005A0000FC0E0913805F0913905E40FF51FBD014A
:1005B000082E01C0660F0A94EAF7609570816723E0
:1005C000608366B5601B633070F0E0913605F09192
:1005D0003705E40FF51F6081E0913805F09139058A
:1005E000E40FF51F608360910E01623058F0609156
:1005F0001305662339F0273029F4863019F4109258
:10060000130528C001968830910509F06FCF2F5F40
:1006100057CF80910E018A30E8F080911505823025
:10062000C9F4E0913805F09139058581803419F4D9
:100630008185803431F08181803261F4848180321F
:1006400049F480911401811103C08AE10E946D096F
:1006500084E601C081E0DF91CF911F910F91FF905F
:1006600008952091380530913905F901E80FF11D01
:100670008081089580910E01843050F080911005A2
:100680008F5F803518F4809310050FC0109210050D
:100690000E94B10181E0809313050E9446020E94EE
:1006A0004602843621F00E94C30180E0089581E073
:1006B00008950E94C30181B38C7E81BB089580910F
:1006C0000E01843048F081B3836181BB88EC0E94C5
:1006D000491C81E0809312010E94480481E08093CC
:1006E0006106089580910E0590910F050E946A1C85
:1006F0008739910508F448C00E945E1C90930F054D
:1007000080930E0580910D058F5F80930D0590916C
:1007100077069923C9F08430B8F1913011F080E068
:1007200001C083E080930D057E9B09C08C9B03C0B4
:1007300081B38C7E02C081B3836181BB25C01092DE
:1007400077060E945F0320C0909112019923E1F087
:10075000813021F481B38C7F81BB08C0833031F4B8
:10076000889A80917A06882329F0899A80917A065E
:10077000811104C080910D05853020F480910D0514
:100780008B3010F010920D0580916106882321F0C6
:10079000109261060C940A1C089580B3836180BB9B
:1007A00081B38C7E81BBE0E0F2E6E491ACE3B5E09E
:1007B000EC93E0E0F3E6E4911196EC931197E0E01E
:1007C000F4E6E4911296EC930895813039F020F02C
:1007D000823029F4889A03C08C9A01C0899A21E05A
:1007E00030E0A90102C0440F551F8A95E2F7CA0103
:1007F00090913B05892B80933B050895813039F01A
:1008000020F0823029F4889803C08C9801C0899820
:1008100021E030E0A90102C0440F551F8A95E2F79C
:10082000CA01809590913B05892380933B050895EB
:10083000EF92FF920F931F93CF93DF93D82F0CE388
:1008400015E0C0E0E62EF12CDD2331F0F8018081C7
:100850008D1B883088F401C08C2F970102C035951C
:1008600027958A95E2F720FF04C08C2F0E94E503AC
:1008700003C08C2F0E94FE03CF5F0F5F1F4FC3305A
:1008800019F7DF91CF911F910F91FF90EF9008958D
:1008900060913B0580E00C941804CF92DF92FF92A8
:1008A0000F931F93CF93DF93F82E0CE315E0C0E076
:1008B000D0E0CC24C394D12CF80181918F018F1109
:1008C0000DC020913B05C6010C2E01C0880F0A9473
:1008D000EAF7822780933B050E9448042196C330A3
:1008E000D10551F7DF91CF911F910F91FF90DF90CC
:1008F000CF900895669581E00C941804669589E080
:100900000C94180460913A0585E10C941804682F42
:1009100080E10E9418040C948204FC0120812B3C8D
:1009200031F421812B3B19F403960C94E7060895CA
:1009300020913F0580914005821759F030E0F90180
:10094000EF5BFA4F80812F5F3F4F20933F0590E090
:1009500008958FEF9FEF08959091C80095FFFCCF09
:100960008093CE0008951F920F920FB60F9211241C
:100970002F933F934F938F939F93EF93FF93809188
:10098000400590E09C012F5F3F4F40913F0542178B
:1009900041F03091CE00FC01EF5BFA4F30832093A1
:1009A0004005FF91EF919F918F914F913F912F9132
:1009B0000F900FBE0F901F9018950E9450128091BB
:1009C0000E01823050F48FE19EE40197F1F700C0F0
:1009D00000000E94E50D0E941405FFCF90911008C1
:1009E000943009F18093410683FD02C098E401C070
:1009F00098E68770892B28E130E00FB6F894A89527
:100A0000209360000FBE809360000E94590383B75B
:100A1000817F846083BF83B7816083BF789488952A
:100A200083B78E7F83BF08959EE088E10FB6F89468
:100A3000A895809360000FBE90936000089580E0B9
:100A40000E94EE0481E00C94EE040C945F031F926C
:100A50000F920FB60F9211248F939F93AF93BF9372
:100A600080914106813061F48091960790919707BB
:100A7000A0919807B09199078096A11DB11D0DC056
:100A8000811113C08091960790919707A0919807C4
:100A9000B09199074196A11DB11D8093960790933F
:100AA0009707A0939807B0939907BF91AF919F9133
:100AB0008F910F900FBE0F901F90189580915C063C
:100AC000089508950F931F93CF930E945E1C8C018D
:100AD000C0E0C8010E946A1C4E9708F50E94980465
:100AE0008F3F2FEF9207C9F0AC0155274D305105CC
:100AF000A1F02C2F30E04A30510551F4C23030F0D3
:100B0000F901EF5BF94F80818F3449F08FE590E078
:100B1000F901ED5BF94F8083CF5FC731D0F2EC2F45
:100B2000F0E0ED5BF94F108283E496E0CF911F91E6
:100B30000F910895CF93CAE10E949804019611F095
:100B4000C150D1F7CF9108950F931F93CF93DF93A7
:100B50005D990AC08C010E949A05E8018991882359
:100B600019F00E94AC04FACFDF91CF911F910F9141
:100B700008959C012F5631092230310528F02A575B
:100B800031092230310560F420915F06211103C044
:100B90002FEF20935F0690935E0680935D0602C060
:100BA00010925F0620916006211116C09F938F93CB
:100BB00088E491E09F938F938FEE97E09F938F93BC
:100BC0000E94001F0F900F900F900F900F900F90AA
:100BD0008FEE97E00C94A4050895CF93DF93EC017A
:100BE00080916006811132C08C81282F082E000C64
:100BF000330B3F938F938B81282F082E000C330BE0
:100C00003F938F938A81282F082E000C330B3F933C
:100C10008F938981282F082E000C330B3F938F93DD
:100C200080E691E09F938F938FEE97E09F938F9351
:100C30000E94001F8FEE97E00E94A4058DB79EB71B
:100C40000C960FB6F8949EBF0FBE8DBF80916006C4
:100C500081111FC0888190915B068917D1F0809324
:100C60005B061F928F9380E891E09F938F938DEFA7
:100C700097E09F938F930E94001F0F900F900F900B
:100C80000F900F900F908FEE97E0DF91CF910C9423
:100C9000A405DF91CF9108950E94A4050C946205EC
:100CA000CF93DF93EC0186E90E94491CCE01DF91CE
:100CB000CF910C944C06CF93DF93209161062111C4
:100CC00052C02091600621114EC0EC018BE891E0EA
:100CD0000E94A405209731F48FE991E0DF91CF9134
:100CE0000C94A4058F811F928F938E811F928F93F6
:100CF0008D811F928F938C811F928F938B811F9276
:100D00008F938A811F928F9388811F928F9386EA97
:100D100091E09F938F938FEE97E09F938F930E9424
:100D2000001F8FEE97E00E94A40580E58A95F1F7F9
:100D30008DB79EB742960FB6F8949EBF0FBE8DBF7B
:100D40008881811110C08A81833531F0893331F077
:100D5000873449F482E103C080E101C081E1DF9181
:100D6000CF910C944D04DF91CF91089580E090E0F5
:100D70000C945B0680915F068823D9F0823020F0C6
:100D8000815080935F060895209142062F5F209343
:100D9000420680915D0690915E0630E048E051E0A9
:100DA000481B590B2417350720F0109242060C946B
:100DB000B90508958DEC91E00C945006803319F438
:100DC0008EED91E002C08DEE91E00C945006CF9331
:100DD000DF93EC018CEF91E00E94A405CE010E940C
:100DE000A40584EA91E0DF91CF910C9450068BE04A
:100DF00092E00E944C06FC01808108958AE192E015
:100E00000C945006559A5D980E94551CF89487E6FC
:100E10008093CC001092CD008091C90080698093AE
:100E2000C9008091C90088608093C9008091CA0080
:100E30008093CA008091C80082608093C800789433
:100E40008AE292E00E9450068AE292E00E944C06FA
:100E5000FC018081813421F48181843551F505C004
:100E60008F3439F581818B3421F50E94DA068AE2CC
:100E700092E00E9450068EE292E00E9450060E948C
:100E80000E028DEE91E00E94500685E392E00E94F2
:100E900050060E94FE0685E492E00E94500682E61B
:100EA00092E00E9450068EE992E00E9450060E9455
:100EB000DD04F8948CE08093CC0078948AE292E090
:100EC0000C945006CF93C82F81EB92E00E944C0601
:100ED000FC01428180ED840F8A3008F05FC02081E0
:100EE00030E02053310984E6829FB001839F700D6A
:100EF0001124218130E0205331095AE0529FC00172
:100F0000539F900D1124860F971F840F911D43E06E
:100F1000880F991F4A95E1F78A5492408C3C20E152
:100F2000920788F4209110013091110123374EE08F
:100F3000340709F49C01820F931F9695879590932F
:100F40001101809310017E990DC081E08093760697
:100F500080911001909111018897909311018093D5
:100F6000100102C01092760680911001909111013B
:100F700024E0969587952A95E1F780548093790629
:100F8000823A18F01092770609C0853910F481E092
:100F900003C08D3918F485E080937706C130A9F538
:100FA00090917906ECE2F3E08AE52191921718F42A
:100FB0008A50D9F78CE2209177062111822F209157
:100FC0007606C22FC80F211103C0923C08F0C4E678
:100FD000C0930F018DEB92E00E94A4051F92CF9366
:100FE0008CE791E09F938F938FEE97E09F938F9381
:100FF0000E94001F0F900F900F900F900F900F9076
:101000008FEE97E0CF910C944C06CF91089586987F
:101010008E9A81E00C946207CF939091100881E042
:10102000943009F080E08093130180911F0187FFC5
:101030000DC00E9499108450914051F184E091E0DC
:101040000E94941080913A058D7F0CC00E949910E7
:101050008551914061F085E191E00E94941080916A
:101060003A05826080933A050E94820411C0809103
:10107000130181110DC080911401882331F08091FA
:101080001F01806880931F0103C08CE080930E01D4
:1010900080911401882309F41EC15D9915C10E9435
:1010A0009A0580910E01823031F481E00E9462073E
:1010B00083E080930E01C0917506CC2309F446C0ED
:1010C0000E94F706813309F041C08CEC92E00E9447
:1010D0004C06FC0101900020E9F79F0125513109E0
:1010E0002817390799F5C13081F422E0209375065D
:1010F000C093120110927A0621E1FC01A2E6B6E04B
:1011000001900D922A95E1F721C041E150E062E69D
:1011100076E00E94F31E892B59F0809175068F5F4F
:10112000853090F01092750681E080937A060EC0AB
:101130008FED92E00E944C06809112018F3018F0E2
:101140001092750603C082E0809375068091800638
:10115000811199C080917D0690917E060E946A1C43
:10116000893E934008F48FC00E945E1C90937E06D7
:1011700080937D0680917A06811105C08091750665
:1011800081112FC008C0809174068F5F8093740610
:101190008370A1F33DC00E94F706813321F481E002
:1011A00080937A061CC08033E1F410927A06809115
:1011B0007F068F5F80937F0690911301911111C07C
:1011C00090910E01992369F08A3558F05D9A8091CB
:1011D000C900877F8093C90084E080930E0110923C
:1011E0007F0680911201882399F0843629F41092A9
:1011F00012010E9448040CC08F5F80931201843159
:1012000020F480917A06882319F084E680931201F5
:10121000809173068F5F80937306877021F48091AD
:1012200076060E9462078091130181112CC0809183
:101230001201811128C080917B0690917C06019655
:1012400090937C0680937B0620910E01213039F427
:10125000039728F00E94B60682E080930E018091E9
:101260000E01833081F480917B0690917C06883258
:10127000934248F084E080930E015D9A8091C9000A
:10128000877F8093C900809178068823D9F08C30BD
:1012900099F0823119F48CE093E010C0853181F42B
:1012A0000E94FE0680E30E94DE0681E30E94DE06C5
:1012B00087E293E00E944C0681EF92E00E944C0688
:1012C000109278060E94BA0680910E01823018F4BE
:1012D000CF910C947203CF910895CF93DF93C82FD1
:1012E0000E94D01BD82F0E945012C631A9F170F471
:1012F000C23139F130F4C53009F44AC0CC3009F1BB
:1013000099C0C33199F1C531F9F094C0CA31B1F136
:1013100030F4C83159F0C93109F459C08BC0CC3B05
:1013200009F472C0C03C09F473C084C080911401F8
:10133000882309F481C090911F01905890931F0158
:101340007CC0C093780678C0D0FF74C0C093780684
:1013500081E08093120171C080911201811102C05D
:1013600081E001C084E68093120166C090910E0175
:1013700081E0892780930E0160E043C0D0FD02C068
:1013800061E001C06DEB80E290E00E94BB21FFCFE5
:101390008D2F837251F0DD7DD13031F48BE29CEFE3
:1013A0009093010880930008FFCFDC3039F48AEA7B
:1013B0009BEB90931A0880931908FFCF82E39FE07C
:1013C0000E941A1682E39FE10E941A1635C080918E
:1013D0000F0160E090E00E942616D0FF0BC08DE266
:1013E00090E00E941A1660E0809110019091110126
:1013F0000E9426168DE290E00E941A1660E080910D
:101400007A060E948E1218C081E08093750615C07E
:1014100080911301811110C05D9A8091C900877F6E
:101420008093C9008AE080930E0110927A060E9490
:101430005F1A02C080E001C081E0DF91CF91089582
:10144000CF93DF93CDB7DEB729970FB6F894DEBF01
:101450000FBECDBF96E0E8E2F1E0DE01119601900B
:101460000D929A95E1F720912E0130912F01409134
:1014700030012F8338874987282F30E08B3018F0D0
:10148000ECEFFFEF02C0E1E0F0E0EC0FFD1FE20F38
:10149000F31F808129960FB6F894DEBF0FBECDBF33
:1014A000DF91CF910C946D09CF9390E080E80FB657
:1014B000F89480936100909361000FBE0E94D20166
:1014C0000E94400E789480E290E00E94B3218D3B10
:1014D00011F410921401CFEF80911008C1508430A4
:1014E00029F083E00E94491CC111F6CF80911401BC
:1014F000882321F00E9402070E9407080E94EC1036
:101500000E941405C1E080910E01843038F4A89542
:10151000823010F40E94F2100E940C0880910E019B
:10152000823040F4809114018111EDCF8091100838
:10153000843049F30E941F050E9414050E943A035B
:10154000882309F310927C0610927B060E945F03A9
:10155000C0930E0180911401882339F05D98809129
:10156000C90088608093C900CECF80911008853073
:1015700051F60E94C10CC7CF8091920608958FEF5B
:101580009091E800815095FD06C09AE69A95F1F792
:1015900000C08111F5CF8091E80085FB882780F994
:1015A00091E089270895CF93DF9300D01F92CDB7A4
:1015B000DEB7209110082430B9F423E029839B83FF
:1015C0008A832093E9000E94BF0A81110DC040E088
:1015D00050E063E070E0CE0101960E94D60C80914D
:1015E000E8008E778093E8000F900F900F90DF91C6
:1015F000CF910895CF93DF9300D01F92CDB7DEB780
:10160000209110082430C1F422E029839B838A832F
:1016100083E08093E9000E94BF0A81110DC040E081
:1016200050E063E070E0CE0101960E94D60C8091FC
:10163000E8008E778093E8000F900F900F90DF9175
:10164000CF910895CF93DF93209110082430A1F417
:10165000EC0182E08093E9000E94BF0A81110CC076
:1016600040E050E065E070E0CE010E94D60C809131
:10167000E8008E778093E800DF91CF910895CF93B3
:10168000DF93EC01909110089430B9F580911F011F
:1016900081718131B9F49093E9008FEF9091E80066
:1016A000815095FD06C095E19A95F1F700008111F2
:1016B000F5CF8091E80085FF20C040E050E060E178
:1016C00070E00BC081E08093E9000E94BF0A8111A5
:1016D00014C040E050E068E070E0CE010E94D60CFB
:1016E0008091E8008E778093E80080E1FE01A2E817
:1016F000B6E001900D928A95E1F7DF91CF910895C0
:1017000080910F08811109C00E94E50D0E94400ED2
:101710008091E20084608093E200089510920F08A7
:101720000895089542E061EC81E00E947F0D42E05F
:1017300061EC82E00E947F0D42E061EC83E00E9458
:101740007F0D42E161EC84E00C947F0D80911208E2
:10175000833009F455C030F4813071F0823009F4DF
:101760008EC008958A3009F47AC08B3009F460C0C5
:10177000893009F09CC020C080911108813A09F09D
:1017800096C08091E800877F8093E80080911508DB
:1017900090911608892B21F460E182E896E003C05D
:1017A00060E080E090E070E00E94210D8091E80010
:1017B0008B778093E800089580911108813209F0B9
:1017C00076C08091150890911608009719F003973C
:1017D00009F06DC08091E800877F8093E8008091D8
:1017E000E80082FD05C0809110088111F8CF5FC02C
:1017F0008091F100809392068091E8008B7753C02E
:1018000080911108813A09F052C080911508909199
:101810001608892B09F04BC08091E800877F8093E0
:10182000E8008091E80080FFFCCF80911F0136C066
:10183000809111088132D9F5809115089091160890
:10184000892BA9F58091E800877F8093E8000E94AA
:10185000930D8091130880931F010C945012809176
:101860001108813221F58091E800877F8093E8009C
:101870000E94930D8091140880939306089580919F
:101880001108813AA1F48091E800877F8093E800F5
:101890008091E80080FFFCCF809193068093F10057
:1018A0008091E8008E778093E8000C94930D089562
:1018B00080919206809381061092920680E00E94A9
:1018C00087040E94A6110C9450120C94580C0E948C
:1018D0002505809181068093920608950C94670CEB
:1018E000292F332723303105C1F058F42130310539
:1018F00079F022303105E9F58DE690E020E933E01A
:101900003CC021323105C1F02232310511F131C024
:1019100082E190E02DEF33E030C0992783309105CC
:1019200040F5FC01EE0FFF1FE45BFC4F208131818D
:10193000FC01E75BFC4F1AC06430D8F4E62FF0E0FE
:10194000EE0FFF1FEF5BFC4F2081318189E090E0BB
:1019500014C0643070F470E0FB01EE0FFF1FE75C11
:10196000FC4F20813181FB01EB5CFC4F808190E0DA
:1019700004C080E090E020E030E0FA013183208371
:10198000089519BC82E089BD09B400FEFDCF8091A5
:10199000D8008F7D8093D8008091E0008260809392
:1019A000E0008091E00081FDFCCF0895CF92DF92AE
:1019B000EF92FF920F931F93CF93DF93EC018B0174
:1019C0007A010E94B20D811133C0E114F10439F0A3
:1019D000F70180819181081B190BC80FD91FC12CF9
:1019E000D12C0115110519F18091E80085FD16C073
:1019F0008091E8008E778093E800E114F10449F0CB
:101A0000F70180819181C80ED91ED182C08285E004
:101A10000FC00E94B20D882321F30AC089918093E0
:101A2000F10001501109FFEFCF1ADF0ADACF80E091
:101A3000DF91CF911F910F91FF90EF90DF90CF90AA
:101A4000089520911708309118082617370748F095
:101A50006115710539F42091E8002E772093E80094
:101A600001C0B901FC0120E06115710579F1809197
:101A700010088823F1F18530F1F18091E80083FDB1
:101A80003CC08091E80082FD2EC08091E80080FF7C
:101A9000EBCF2091F3008091F20090E0922B611542
:101AA000710551F08830910538F421912093F100AF
:101AB000615071090196F3CF21E0089709F020E009
:101AC0008091E8008E778093E800CECF2111CFCFB0
:101AD0000AC080911008882361F0853061F0809100
:101AE000E80083FD0AC08091E80082FFF2CF80E029
:101AF000089582E0089583E0089581E008958F704D
:101B00008093E900EBEEF0E0808181608083EDEE70
:101B1000F0E010826093EC0040838091EE00881F1B
:101B20008827881F08958091110887FF11C0809130
:101B3000E80082FD05C0809110088111F8CF11C026
:101B40008091E8008B770BC080911008882349F0C2
:101B50008091E80080FFF8CF8091E8008E77809335
:101B6000E80008952091E4003091E50095E6409169
:101B7000EC00842F817040FF23C08091E80080FD3D
:101B80001DC080911008882399F0853099F08091CC
:101B9000EB0085FD11C04091E4005091E500241751
:101BA000350729F3915011F09A01E1CF84E00895AF
:101BB00082E0089583E0089581E0089580E008952B
:101BC0004091E80042FFDDCF08950E94510E0E942F
:101BD000590EE0EEF0E0808181608083E8EDF0E076
:101BE00080818F77808319BCA7EDB0E08C918E7FC8
:101BF0008C9380818F7E808310920F0808950F93BD
:101C00001F93CF93DF930E94510E0E94590EC8ED8F
:101C1000D0E088818F7788838881806888838881F5
:101C20008F7D888319BC1092100810920D081092B5
:101C30000E0800EE10E0F80180818B7F80838881A0
:101C40008160888342E060E080E00E947F0DE1EEE9
:101C5000F0E080818E7F8083E2EEF0E08081816021
:101C60008083808188608083F80180818E7F80837B
:101C7000888180618883DF91CF911F910F910895B2
:101C8000E8EDF0E080818F7E8083E7EDF0E08081F9
:101C90008160808384E082BF81E080930F080C9490
:101CA000FF0DE8EDF0E080818E7F80831092E200EE
:101CB00008951092DA001092E10008951F920F9299
:101CC0000FB60F9211242F933F934F935F936F930F
:101CD0007F938F939F93AF93BF93EF93FF938091E5
:101CE000E10082FF0BC08091E20082FF07C080917B
:101CF000E1008B7F8093E1000E9493108091DA00D5
:101D000080FF1DC08091D80080FF19C08091DA004B
:101D10008E7F8093DA008091D90019BC80FF0BC0C0
:101D200082E089BD09B400FEFDCF81E080931008F8
:101D30000E94800B04C0109210080E948E0B8091AC
:101D4000E10080FF19C08091E20080FF15C0809102
:101D5000E2008E7F8093E2008091E20080618093B8
:101D6000E2008091D80080628093D80019BC85E0A1
:101D7000809310080E94650C8091E10084FF35C0BB
:101D80008091E20084FF31C080911301811102C073
:101D90000E94DD0419BC82E089BD09B400FEFDCFBC
:101DA0008091D8008F7D8093D8008091E1008F7E54
:101DB0008093E1008091E2008F7E8093E200809129
:101DC000E20081608093E20080910D08882311F089
:101DD00084E007C08091E30087FD02C081E001C07C
:101DE00083E0809310080E946E0C8091E10083FFD5
:101DF00029C08091E20083FF25C08091E100877FA8
:101E00008093E10082E08093100810920D08809189
:101E1000E1008E7F8093E1008091E2008E7F8093CD
:101E2000E2008091E20080618093E20042E060E0A5
:101E300080E00E947F0D8091F00088608093F00028
:101E40000E94910BFF91EF91BF91AF919F918F9164
:101E50007F916F915F914F913F912F910F900FBEA6
:101E60000F901F9018951F920F920FB60F9211248A
:101E70002F933F934F935F936F937F938F939F9392
:101E8000AF93BF93CF93DF93EF93FF93C091E9009C
:101E9000CF708091EC00D82FD17080FDD0E81092E7
:101EA000E9008091F000877F8093F00078940E9491
:101EB000770F1092E9008091F00088608093F00025
:101EC000CD2BCF70C093E900FF91EF91DF91CF91BF
:101ED000BF91AF919F918F917F916F915F914F9142
:101EE0003F912F910F900FBE0F901F9018951F9349
:101EF000CF93DF9300D0CDB7DEB7E1E1F8E089E121
:101F000098E02091F10021938E179F07D1F70E944E
:101F1000A60B8091E80083FFF2C080911108909198
:101F20001208492F50E04A30510508F0E8C0FA0184
:101F3000EA5AFF4F0C94911E803881F0823809F0E4
:101F4000DEC0809115088F708093E9008091EB00CE
:101F500085FB882780F91092E90007C080910E0860
:101F6000882311F082E001C080E09091E800977F23
:101F70009093E8008093F1001092F10095C0282F13
:101F80002D7F09F0BCC0882319F0823061F0B7C002
:101F900080911308813009F0B2C0933009F080E0DD
:101FA00080930E082BC080911308811127C0809167
:101FB00015088F7009F4A3C08093E9002091EB000D
:101FC00020FF1CC0933021F48091EB00806214C08C
:101FD0009091EB0090619093EB0021E030E0A9013B
:101FE00002C0440F551F8A95E2F74093EA00109211
:101FF000EA008091EB0088608093EB001092E9008A
:102000008091E800877F53C0811179C01091130837
:102010001F778091E3008078812B8093E30080918B
:10202000E800877F8093E8000E94930D8091E8008C
:1020300080FFFCCF8091E30080688093E300111162
:1020400002C082E001C083E08093100858C080582D
:10205000823008F054C0AE014F5F5F4F60911508A9
:1020600080911308909114080E94700CBC01892B78
:1020700009F445C09091E800977F9093E80089812A
:102080009A810E94210D8091E8008B778093E8006F
:1020900036C08038A1F58091E800877F8093E80002
:1020A00080910D088093F1008091E8008E778093F5
:1020B000E8000E94930D23C0811121C08091130874
:1020C0009091140899270297D4F48091E800877FB3
:1020D0008093E8008091130880930D080E94930D6F
:1020E00080910D08811106C08091E30087FD02C038
:1020F00081E001C084E0809310080E94920B8091DF
:10210000E80083FF0AC08091E800877F8093E800A1
:102110008091EB0080628093EB000F900F90DF9135
:10212000CF911F91089508959093990680939806F2
:10213000089580919806909199060895E0919806E7
:10214000F0919906309721F00190F081E02D0994EB
:1021500080E00895E0919806F0919906309721F07B
:102160000280F381E02D09940895E0919806F091A2
:102170009906309721F00480F581E02D09940895A7
:1021800020919606309197062817390771F09093A1
:10219000970680939606E0919806F09199063097FD
:1021A00021F00680F781E02D09940895209194068E
:1021B000309195062817390771F090939506809312
:1021C0009406E0919806F0919906309721F00084EA
:1021D000F185E02D099408950E94551C0E94190272
:1021E0000C94CD03BF92CF92DF92EF92FF920F93A8
:1021F0001F93CF93DF9300D000D01F92CDB7DEB7EF
:102200000E94460202EB16E0F12C8F2D0E94310352
:10221000B82EF801C080C82639F4F3940F5F1F4F21
:10222000F0E1FF12F2CF2AC08091950781FD0E9454
:10223000A711D12CEE24E3948C2D8E21C9F0D982E4
:10224000FA8291E08B2D8E2109F490E09B830E940D
:102250005E1C81609D838C83CE0101960E94A81133
:10226000CE0101960E94451CF80180818E25808355
:10227000D394EE0CF8E0DF12DFCFCFCF80E090E018
:102280000E94A8110E94441C0E94771D8091C206E2
:10229000882389F08091B0069091B1060E946A1C53
:1022A0008C34910540F01092AF068BE996E00E94C5
:1022B0008D041092C2060E949E1090919A06891772
:1022C000A1F10E949E1080939A0684FF2CC0E09199
:1022D000C206F0E0E556F94F9081990F990F83708F
:1022E000892B80830E945E1C9093B1068093B00678
:1022F0008091AF068F5F8093AF068430B0F08091FD
:102300009B068B3C41F48091C206823020F487E426
:1023100090E00E941A161092AF068091C2068F5F5D
:102320008093C20602C00E94461C0F900F900F902F
:102330000F900F90DF91CF911F910F91FF90EF9031
:10234000DF90CF90BF9008950C948704089508956E
:10235000CF93DF9300D000D000D0CDB7DEB7FC0123
:10236000892B39F40E945E1C816060E05FEF4FEFC3
:1023700005C040815181628183819481FE01319643
:1023800026E0DF011D922A95E9F7782F9D838C8343
:102390008D819E810E94E41826960FB6F894DEBFC8
:1023A0000FBECDBFDF91CF910895CF93882349F120
:1023B000803B29F480EA91E0CF910C949219C82FC8
:1023C0008CEF8C0F813A20F080E58C0F8E3250F428
:1023D0008C2F0E943F1E811114C061E08C2F0E943F
:1023E000851B0CC080E28C0F883058F4C77081E0E8
:1023F00001C0880FCA95EAF70E94D31BCF910C94B5
:102400000A1CCF910895882351F19CEF980F913ABF
:1024100020F090E5980F9E3220F460E00E94851B2A
:102420000DC090E2980F983058F4877091E001C089
:10243000990F8A95EAF7892F0E94D91B0C940A1CE0
:102440009BE5980F933020F480E090E00C94C0104E
:10245000885A873120F480E090E00C94D6100895DB
:10246000882321F00E94D31B0C940A1C0895882312
:1024700021F00E94D91B0C940A1C08950E94F01BA5
:102480000E94C61B0E940A1C0E94331E0E946C1DE3
:1024900080E090E00E94C01080E090E00C94D610A4
:1024A0000E94E01B0C943E12CF93DF9300D000D02B
:1024B0001F92CDB7DEB70E94171B292F22952F70D0
:1024C0002C3030F42A30A0F42250223030F01DC0DD
:1024D0002C30A9F02F3099F018C0853A28F48430B8
:1024E00090F4823028F40FC090E2980F983058F0A2
:1024F000843058F0853A38F0803F39F404C093FBBB
:10250000882780F903C081E001C080E00F900F9020
:102510000F900F900F90DF91CF910895811101C01E
:102520008AE0662311F0885A01C0835E90E00C9423
:102530001A16CF92DF92EF92FF920F931F93CF93D1
:10254000DF9300D000D01F92CDB7DEB76C0185E0DD
:10255000F601DE01119601900D928A95E1F7F601E0
:102560002381348189819A812115310531F09F3F82
:1025700031F491E08F3F19F403C091E001C090E085
:1025800090FD2FC3F601F280E580E2948FE0E8220F
:102590002230310559F0722F3D832C8349815A81B5
:1025A0006F2D8D810E94171B8C0102C009811A8139
:1025B0000E94161B0E94101AE12FE295EF708E2FD9
:1025C00090E0FC01E05AFF4F0C94911E812F807F18
:1025D0001F70882311F01295107FFF2021F10E94B7
:1025E000D01B812390919207892B8093920711230E
:1025F00051F0002319F081E080939007812F0E9411
:10260000E31B0E940A1C802F0F900F900F900F90D9
:102610000F90DF91CF911F910F91FF90EF90DF907E
:10262000CF900C94D51190919207812F809589239A
:102630008093920710929007802F0E94031211231B
:1026400009F4CFC2812F0E94E91B0F900F900F90C9
:102650000F900F90DF91CF911F910F91FF90EF900E
:10266000DF90CF900C940A1C812F807F1F708032E6
:1026700011F01295107F002319F0013009F12BC0E1
:10268000FF20A9F0EE2061F1F1E0812FEF1229C0C7
:102690000F900F900F900F900F90DF91CF911F919F
:1026A0000F91FF90EF90DF90CF900C94F31BEE20F2
:1026B00021F021E0E21609F494C20E94F61B54C0F6
:1026C000FF20F1F082E08E1508F48BC20E94D01B2F
:1026D000812331F049C0FF2009F444C0E11015C046
:1026E000812F0F900F900F900F900F90DF91CF914F
:1026F0001F910F91FF90EF90DF90CF900C943012CC
:10270000E1E0EE1508F46DC22FC0F601858180FF6F
:1027100013C08F708583E4CF003F09F4B4C108F083
:102720008FC1003E08F094C1FF2009F409C2EE20D9
:1027300009F4F5C113FDEFC1802F0E94D5110933B3
:1027400009F04FC282E30F900F900F900F900F90FF
:10275000DF91CF911F910F91FF90EF90DF90CF907D
:102760000C94491CE110F4C1812F7EC1812F869504
:102770008695837019F08130B9F033C2FF2019F0CB
:10278000C801937002C080E090E00F900F900F900E
:102790000F900F90DF91CF911F910F91FF90EF90CD
:1027A000DF90CF900C94D610FF20C1F0C801937039
:1027B0008115F3E09F07A4F085EA91E00E94921949
:1027C00060E0802F82958F700E948E1260E0802FD3
:1027D0008F700E948E1283EA91E0E1C180E090E068
:1027E0000F900F900F900F900F90DF91CF911F914E
:1027F0000F91FF90EF90DF90CF900C94C010802F3E
:10280000FF2081F00E94B71C0E946C1D063408F066
:10281000E8C1E02FF0E0E056F84F81E0808380933C
:102820009F07DFC10E94051D0E946C1D063408F041
:10283000D8C1202F30E0F901E056F84F1082002374
:1028400011F0C90102C084EF90E560E00F900F9095
:102850000F900F900F90DF91CF911F910F91FF90EC
:10286000EF90DF90CF900C94FF15812F837009F0CB
:1028700070C0F110B6C1202F229526952770220F27
:10288000220F602F6F70862F90E0A0E0B0E06C0107
:102890007D01022E04C0CC0CDD1CEE1CFF1C0A9432
:1028A000D2F704FF12C08FE090E0A0E0B0E004C0D7
:1028B000880F991FAA1FBB1F2A95D2F7BC01CD0113
:1028C000609570958095909503C060E070E0CB01B5
:1028D0001695169513701230B1F040F56C297D29CC
:1028E0008E299F29113031F10F900F900F900F908A
:1028F0000F90DF91CF911F910F91FF90EF90DF909C
:10290000CF900C942B1A6C297D298E299F290F902A
:102910000F900F900F900F90DF91CF911F910F911B
:10292000FF90EF90DF90CF900C94451A0E942B1AE5
:10293000C701B6010F900F900F900F900F90DF918D
:10294000CF911F910F91FF90EF90DF90CF900C945B
:10295000111AFF2019F0812F817001C086958823FC
:1029600009F43FC1202F229526952770220F220FB0
:10297000602F6F70862F90E0A0E0B0E06C017D01C9
:10298000022E04C0CC0CDD1CEE1CFF1C0A94D2F7F6
:1029900004FF12C08FE090E0A0E0B0E004C0880F18
:1029A000991FAA1FBB1F2A95D2F7BC01CD016095C4
:1029B00070958095909503C060E070E0CB0116950E
:1029C000169513701230B1F040F56C297D298E29CF
:1029D0009F29113031F10F900F900F900F900F90B1
:1029E000DF91CF911F910F91FF90EF90DF90CF90EB
:1029F0000C94F21A6C297D298E299F290F900F9033
:102A00000F900F900F90DF91CF911F910F91FF903A
:102A1000EF90DF90CF900C94041B0E94F21AC70134
:102A2000B6010F900F900F900F900F90DF91CF9104
:102A30001F910F91FF90EF90DF90CF900C94E01AD0
:102A4000023F09F441C0D8F1033F09F442C06CCE03
:102A50000F70812F8F71FF2021F00E94791A802F33
:102A600040CE0E949A1A802F0F900F900F900F90D7
:102A70000F90DF91CF911F910F91FF90EF90DF901A
:102A8000CF900C943712FF20A9F021E02E1508F406
:102A9000A8C0812F8F710F900F900F900F900F9003
:102AA000DF91CF911F910F91FF90EF90DF90CF902A
:102AB0000C94BF1A82E08E1508F493C0EACFFF2071
:102AC00029F0812F8F712DC0FF20D9F3812F8F71B5
:102AD00051C0FF2089F0812F8F710F900F900F90C0
:102AE0000F900F90DF91CF911F910F91FF90EF907A
:102AF000DF90CF900C94641A0F900F900F900F906E
:102B00000F90DF91CF911F910F91FF90EF90DF9089
:102B1000CF900C945F1AF601858180FF0DCE812F36
:102B200087700F900F900F900F900F90DF91CF91C3
:102B30001F910F91FF90EF90DF90CF900C94791A36
:102B4000EE20B1F013FF04C0F601858180FD10C0B6
:102B5000802F0F900F900F900F900F90DF91CF91DB
:102B60001F910F91FF90EF90DF90CF900C94031284
:102B7000812F87700F900F900F900F900F90DF9123
:102B8000CF911F910F91FF90EF90DF90CF900C9419
:102B90009A1A412F4F70602FC6010E94A5010F9015
:102BA0000F900F900F900F90DF91CF911F910F9189
:102BB000FF90EF90DF90CF900C949219412F4F70BF
:102BC000602FC6010F900F900F900F900F90DF9124
:102BD000CF911F910F91FF90EF90DF90CF900C94C9
:102BE0000B010F900F900F900F900F90DF91CF91EE
:102BF0001F910F91FF90EF90DF90CF900895CF93AA
:102C0000DF9300D000D000D0CDB7DEB789839A83A0
:102C10006B8382E090E09D838C83CE0101960E94BD
:102C2000991226960FB6F894DEBF0FBECDBFDF9186
:102C3000CF910895CF93DF93EC0161E00E94FF15DF
:102C400060E0CE01DF91CF910C94FF15BF92CF923F
:102C5000DF92EF92FF920F931F93CF93DF936C015C
:102C6000B62EC5E0D0E000E117E28AE0E82EF12CB4
:102C7000C601B8010E947D1ECB01009731F0B7015B
:102C80000E947D1E6B2D0E948E12C801B7010E940A
:102C90007D1E8B01219761F7DF91CF911F910F91DD
:102CA000FF90EF90DF90CF90BF900895CF93DF9388
:102CB00000D000D01F92CDB7DEB70F900F900F90CD
:102CC0000F900F90DF91CF910895CF93DF9300D0B5
:102CD00000D000D0CDB7DEB726960FB6F894DEBF91
:102CE0000FBECDBFDF91CF9108951F93CF93DF9398
:102CF000C091C30616E08091C406C81799F0D0E0D1
:102D00001C9FF0011D9FF00D1124EB53F94F4081E2
:102D1000518162817381848195810E94651621961B
:102D2000C770E9CFDF91CF911F9108954091F506CB
:102D30005091F6066091F7067091F8068091F906B9
:102D40009091FA060C9465160F931F93CF93DF931F
:102D50008091FA0682958F7009F05DC08091F70628
:102D6000882309F458C08091C3061091C40660916D
:102D7000F5067091F606C091F806D091F90691E03B
:102D80006F3F09F090E0292F06E0811709F443C056
:102D9000209721F07F3F21F030E003C031E001C0F7
:102DA000322F90E030FD34C0089FF001099FF00DF4
:102DB0001124DF01AB53B94F11963C911197371392
:102DC00027C03C91361324C012963C9112973111C2
:102DD0001FC013964D915C9114974C1B5D0B483CA2
:102DE0005105B0F48091FA068F7080618093FA06E5
:102DF000E653F94F80818F708061808385EF96E084
:102E00000E949912DF91CF911F910F910C9475162A
:102E100001968770BACFDF91CF911F910F910895DE
:102E20009F92AF92BF92CF92DF92EF92FF920F9359
:102E30001F93CF93DF93CDB7DEB761970FB6F894AA
:102E4000DEBF0FBECDBF8C0185E0F801DE011D960F
:102E500001900D928A95E1F7F80140815181F2804D
:102E6000C380D4809091F5066091F6062091F80613
:102E70003091F9062115310531F06F3F31F481E0D1
:102E80009F3F19F403C081E001C080E0F82FF1708A
:102E90009F2E80FD52C185EFA82E86E0B82EE090CF
:102EA000F706F601E21BF30BEE2009F4E8C080916F
:102EB000FA06E83CF10508F0A4C0282F207F09F0AD
:102EC00053C0561313C0491311C0EF2CF1100EC09C
:102ED0008F7080618093FA060E949616C5010E9449
:102EE00099128091FA06F80185835BC1C114D1045F
:102EF00031F05F3F31F481E04F3F19F403C081E0CE
:102F000001C080E080FD03C081E08F2502C080E029
:102F100090E0F82FF170EF2E80FF1CC08091C30667
:102F20002091C40636E0821709F418C190E0389F5A
:102F3000F001399FF00D1124EB53F94F61815613C5
:102F400006C06081461303C06281F61203C0019679
:102F50008770E9CFEF2CFF2009F423C18091FA0696
:102F600081608093FA0662C0561306C0491304C0FC
:102F7000F11002C0F801A7C04D875E87FF867C2D47
:102F8000D98AC88A6F2D89890E945412882399F1A1
:102F9000FF2089F12091FA06822F82958F7090E0B0
:102FA000029774F08091F5069091F60698878F83CA
:102FB0001986DB86CA862C87CE0107960E94991255
:102FC00086E0F801A5EFB6E001900D928A95E1F751
:102FD0000E94A4160E94961611C0561749F14D87FB
:102FE0005E87FF867C2DD98AC88A6F2D89890E94C9
:102FF000541281112CC0C8010E949912EE24E3944E
:10300000D0C0282F207F49F77C2DD98AC88A6F2D00
:1030100089890E94561685EF96E00E94991286E0F3
:10302000F50111928A95E9F70E949616E12CB9C034
:103030004913D5CFF110D3CFF8018583C8010E9481
:10304000991286E0F50111928A95E9F7AAC0FF204E
:1030500091F22091FA06822F82958F7090E002976C
:103060000CF4AECF8091F5069091F6069A83898391
:103070001B82DD82CC822E83CE0101969FCFE83C5D
:10308000F10508F04BC0EF2CFF2009F4B4CF561324
:1030900030C049132EC02091FA0620FD21C0822F96
:1030A00082958F70482F50E041155105C9F0F80105
:1030B00025834F30510541F08F5F982F9295907F77
:1030C000822F8F70892B8583C8010E94991286E018
:1030D000F801A5EFB6E001900D928A95E1F72AC0BC
:1030E00086E0F801A5EFB6E001900D928A95E1F730
:1030F00058C04D875E87FF867C2DD98AC88A6F2D80
:1031000089890E94541281115BCF8091FA068160F7
:103110008093FA06C8010E94991243C07C2DD98A77
:10312000C88A6F2D89890E94561686E0F501119292
:103130008A95E9F70E94961634C0FF2009F45BCF08
:103140004D875E87FF867C2DD98AC88A6F2D898935
:103150000E945412882309F44ECF32CF7C2DD98A95
:10316000C88A6F2D89890E94171B292F22952F70DD
:10317000223028F49F7039F0811105C00BC0243033
:1031800028F49F7049F4805E883020F0C8010E94C6
:1031900099129E2CE92C05C0F8019581907F99F732
:1031A000F9CF8E2D61960FB6F894DEBF0FBECDBF5E
:1031B000DF91CF911F910F91FF90EF90DF90CF9013
:1031C000BF90AF909F9008951F93CF93DF93CDB79B
:1031D000DEB72C970FB6F894DEBF0FBECDBF4F837E
:1031E000588769877A878B879C87CE0107960E94CC
:1031F00010178823D1F09F8188852A853B85232B52
:1032000031F08F3F31F481E09F3F19F403C081E03A
:1032100001C080E080FD47C04F81588569857A856F
:103220008B859C850E9465163EC086E0FE01379620
:10323000DE01119601900D928A95E1F7FF81E885F4
:103240006A857B856115710531F0EF3F31F481E0CE
:10325000FF3F19F403C081E001C080E080FD23C07E
:103260002091C40630E0C9010196877099274091EA
:10327000C30650E084179507F1F1F983EA837D8353
:103280006C8396E0929FD001939FB00D1124AB53B5
:10329000B94FFE01319601900D929A95E1F7809316
:1032A000C4060E94751616E08091C3069091C4066C
:1032B000891771F1189FC00111248B53994F0E94F7
:1032C0001017882329F1E091C3061E9FF0011124F5
:1032D000EB53F94F408151816281738184819581E3
:1032E0000E9465168091C30690E001968770992729
:1032F0008093C306D9CF0E9450121092C406109238
:10330000C306E5EFF6E086E0DF011D928A95E9F756
:103310002C960FB6F894DEBF0FBECDBFDF91CF91D4
:103320001F910895EF92FF921F93CF93DF939C011B
:10333000892B09F465C0E9012196F9011491193727
:1033400009F43FC0C0F4143740F4143008F053C0FF
:103350008FEF810F823000F153C0143709F050C055
:103360007901F2E0EF0EF11CFE0184910E94491CEC
:10337000E7019E01E0CF133828F4113868F41038C3
:1033800001F13EC01338B9F0143F08F039C01F777F
:10339000812F90E0926031C0FE0185919491612F60
:1033A0006170E901133018F42296992701C0239621
:1033B0000E94FF15DECFFE0185919491E9012396CD
:1033C0001CC0FE01E590F490E901239684E00E9480
:1033D0003012103841F461E081E00E948E12F0EA70
:1033E000EF1AF6E8FF0A61E0C7010E94261684E0A2
:1033F0000E943712BECF812F90E00E941A16B9CFDB
:10340000DF91CF911F91FF90EF90089560937B071C
:1034100070937C0780937D0790937E070C947A04C9
:1034200008950F931F930091200110912101209185
:10343000220130912301602B712B822B932B6093FF
:1034400020017093210180932201909323011F9109
:103450000F910C947E040F931F9300912001109103
:1034600021012091220130912301602371238223C5
:103470009323609320017093210180932201909304
:1034800023011F910F910C947E040F931F930091C1
:103490002001109121012091220130912301602708
:1034A00071278227932760932001709321018093D5
:1034B0002201909323011F910F910C947E0460E0F0
:1034C00070E0CB010C94061A0F931F9341E050E07B
:1034D00060E070E08A019B0104C0000F111F221FF1
:1034E000331F8A95D2F7C901B8011F910F910C942F
:1034F000061A0F931F9341E050E060E070E004C0B3
:10350000440F551F661F771F8A95D2F780917B075E
:1035100090917C07A0917D07B0917E078A019B0165
:10352000082B192B2A2B3B2BC901B8011F910F9196
:103530000C94061A0F931F9341E050E060E070E096
:1035400004C0440F551F661F771F8A95D2F7409518
:1035500050956095709580917B0790917C07A09124
:103560007D07B0917E078A019B01082319232A2336
:103570003B23C901B8011F910F910C94061A0F93B8
:103580001F9341E050E060E070E004C0440F551F1D
:10359000661F771F8A95D2F780917B0790917C07F1
:1035A000A0917D07B0917E078A019B01082719270A
:1035B0002A273B27C901B8011F910F910C94061AC5
:1035C0000F931F9300917B0710917C0720917D073B
:1035D00030917E07602B712B822B932B1F910F91C3
:1035E0000C94061A0F931F9300917B0710917C0790
:1035F00020917D0730917E076023712382239323DE
:103600001F910F910C94061A0F931F9300917B0743
:1036100010917C0720917D0730917E0760277127EC
:10362000822793271F910F910C94061A08958F9269
:103630009F92AF92BF92DF92EF92FF920F931F93F0
:10364000CF93DF9300D000D01F92CDB7DEB78A01B1
:103650006623D1F180907B0790907C07A0907D0736
:10366000B0907E078091200190912101A0912201CC
:10367000B0912301882A992AAA2ABB2A8FE1E82E31
:10368000F12CD501C4010E2C04C0B695A7959795D1
:1036900087950A94D2F780FD06C081E0E81AF10808
:1036A00080F7D12C07C0DE2CB8018E2D0E949F1C04
:1036B000019799F388E0189FF0011124E550F94F24
:1036C000E00FF11DD08209C088E0189FF00111249D
:1036D000E550F94FE40FF11DD08009831A83698109
:1036E0007A818D2D0E949F1C0F900F900F900F904C
:1036F0000F90DF91CF911F910F91FF90EF90DF908E
:10370000BF90AF909F908F90089590911F019179F5
:103710009131F1F4382F3695369536953F30A8F52E
:10372000E0912401F0912501282F277081E090E09D
:1037300001C0880F2A95EAF7E30FF11D662319F0FF
:103740009181892B03C0809591818923818308957C
:103750002091240130912501F90171964FEF9EE0EF
:103760005291552331F0851305C061110EC01082AE
:1037700001C0492F9150A0F7662339F0F901E40FF9
:10378000F11D47FDFA95828308950895E091240183
:10379000F091250180E1DF011D928A95E9F70895F6
:1037A00080919407089590919407892B80939407B2
:1037B00008958095909194078923809394070895A4
:1037C00010929407089590919307892B8093930703
:1037D0000895809590919307892380939307089586
:1037E00010929307089580937F07089510927F07A2
:1037F00008958091240190912501FC0131969C014E
:10380000205F3F4F80E0919191118F5FE217F307A6
:10381000D1F70895E0912401F0912501809194075A
:103820008083E0912401F09125019081809193079C
:10383000892B8083E0912401F091250180919207EA
:103840008095908189238083E0912401F091250166
:1038500080919107809590818923808380917F0753
:10386000882361F0E0912401F09125019081892B5A
:1038700080830E94F91B811110927F07809124019F
:10388000909125010C94AA10089508950C94A41108
:103890000895882341F0EFE9FFE03197F1F700C088
:1038A00000008150F6CFA895089582E084BD93E092
:1038B00095BD9DE797BD80936E0008952FB7F8944E
:1038C0008091960790919707A0919807B0919907DA
:1038D0002FBF08959C014FB7F8948091960790915F
:1038E0009707A0919807B09199074FBF821B930B40
:1038F000089578941F920F920FB60F9211248F9310
:103900009F93AF93BF938091960790919707A09153
:103910009807B09199070196A11DB11D8093960754
:1039200090939707A0939807B0939907BF91AF9191
:103930009F918F910F900FBE0F901F901895CF936E
:10394000C82FCB010E94F500803819F480E090E088
:103950000CC0EC2FF0E0FE2FEE27E050F04AE80F0D
:10396000F11DE80FF11D85919491CF910895803F4D
:1039700008F44AC0803F11F49FEF03C0813F21F457
:1039800091E09093EB073BC0823F11F49FEF03C09F
:10399000833F21F491E09093EA0731C0893F70F4AE
:1039A00021E030E09CE0980F01C0220F9A95EAF7E1
:1039B0009091E907292B2093E90721C0893F11F451
:1039C00091E003C08A3F21F49FEF9093EC0717C06A
:1039D0008B3F11F49FEF03C08C3F21F491E0909353
:1039E000ED070DC021E030E093E0980F01C0220FF9
:1039F0009A95EAF79091E607292B2093E607895FCD
:103A0000843010F41092E7070895803F08F463C0F3
:103A1000803F39F48091EB0787FF5DC01092EB0780
:103A20000895813F29F48091EB071816BCF308959F
:103A3000823F39F48091EA0787FF4DC01092EA0770
:103A40000895833F29F48091EA071816BCF308957E
:103A5000893F88F4845F21E030E0A90102C0440F6F
:103A6000551F8A95E2F7CA0180959091E90789234D
:103A70008093E9070895893F39F48091EC0718167F
:103A800054F51092EC0708958A3F29F48091EC07D1
:103A900087FF21C0F6CF8B3F39F48091ED0787FF78
:103AA0001AC01092ED0708958C3F29F48091ED071C
:103AB0001816BCF308958D5F21E030E0A90102C023
:103AC000440F551F8A95E2F7CA0180959091E60749
:103AD00089238093E607089589EE97E00E94B51048
:103AE0000E945E1C90939C0780939B0708950F9300
:103AF0001F93CF93DF9380919F078823D9F1809103
:103B00009D0790919E070E946A1C2091270130E03A
:103B10002817390778F50E94E31E8F70825E809324
:103B2000270100EA17E0C0E0D0E090E0F8018191C1
:103B30008F01882369F0CC2319F08C2F9D2F02C0B0
:103B400084EF90E56091260170E00E94FF1591E0FE
:103B50002196C634D10551F72091260181E08227B4
:103B60008093260190939F070E945E1C90939E076E
:103B700080939D0780919B0790919C070E946A1CEF
:103B8000AC019091E807923019F028E230E002C0D1
:103B900025E030E04217530708F460C0D091EC07ED
:103BA000C091ED072091EA078091EB07822B8D2BC6
:103BB0008C2B19F41092E80751C0923020F49F5FCB
:103BC0009093E8074BC08091E7078F5F8093E707EA
:103BD0008F7021F01092EC071092ED070E946C1D7F
:103BE000D093EC07C093ED0780919A078F5F809385
:103BF0009A078D3098F180911F0187FD02C080E007
:103C000001C085E080939A079091E607292F220F43
:103C1000220F290FE9EEF7E03CEE44E18181882391
:103C2000C1F0992349F0181614F08FEF01C081E01C
:103C3000829F802D11240AC018162CF48F5F8531C5
:103C40002CF0418306C081508C3E14F0818301C06A
:103C50003183319687E0ED3EF80701F7DF91CF9190
:103C60001F910F910895E9EEF7E085E0DF011D92C5
:103C70008A95E9F71092E607089580E00895CF93BA
:103C800090919007911135C0C82F8091EE0788233D
:103C900019F0813051F02AC0E0912401F091250102
:103CA00080818252823030F508C0E0912401F09189
:103CB0002501808182528230A0F48C2F0E946D09F0
:103CC00081110AC0C13151F40E94481C90911F011A
:103CD00080E1892780931F0191E001C090E09170FD
:103CE00009C08C2F0E943D1E91E004C01092EE0787
:103CF00001C090E0892FCF910895AA1BBB1B51E111
:103D000007C0AA1FBB1FA617B70710F0A61BB70B4B
:103D1000881F991F5A95A9F780959095BC01CD01F0
:103D20000895EE0FFF1F0590F491E02D09948F92F6
:103D30009F92AF92BF92CF92DF92EF92FF92CF937A
:103D4000DF93EC01688179818A819B81611571051E
:103D50008105910521F464E279ED8BE597E02DE191
:103D600033EF41E050E00E94CD2149015A019B010F
:103D7000AC01A7EAB1E40E94EC216B017C01ACEE3E
:103D8000B4EFA50194010E94FA21DC01CB018C0D56
:103D90009D1DAE1DBF1DB7FF03C00197A109B0480F
:103DA00088839983AA83BB839F77DF91CF91FF900C
:103DB000EF90DF90CF90BF90AF909F908F9008953D
:103DC0000E94971E089580E091E00E94971E08953A
:103DD000A0E0B0E08093000190930101A093020164
:103DE000B09303010895FB01DC0104C08D910190A3
:103DF000801921F441505040C8F7881B990B089551
:103E0000AEE0B0E0E6E0FFE10C940D220D891E89E2
:103E100086E08C831A8309838FEF9FE79E838D83CF
:103E2000AE01475E5F4F6F89788DCE0101960E948B
:103E3000221FEF81F885E00FF11F10822E96E4E03B
:103E40000C942922ABE0B0E0E8E2FFE10C94FF2102
:103E50006C017B018A01FC0117821682838181FF3C
:103E6000CCC1CE0101963C01F6019381F70193FD8F
:103E7000859193FF81917F01882309F4BAC185322E
:103E800039F493FD859193FF81917F01853229F467
:103E9000B60190E00E941921E7CF912C212C312C02
:103EA000FFE1F315D8F08B3279F038F4803279F0F5
:103EB0008332A1F4232D20611DC08D3261F0803347
:103EC00069F4232D216016C0832D8260382EE32DE6
:103ED000E4603E2E2AC0F32DF8601DC037FC2DC0D3
:103EE00020ED280F2A3040F08E32B9F436FC81C123
:103EF000232D2064322E19C036FE06C08AE0989E1B
:103F0000200D1124922E11C0EAE02E9E200D1124C6
:103F1000222EF32DF0623F2E08C08C3621F4832D23
:103F20008068382E02C0883641F4F70193FD8591F0
:103F300093FF81917F018111B3CF982F9F7D95547D
:103F4000933028F40C5F1F4F9FE399830DC0833695
:103F500031F0833771F0833509F059C021C0F80181
:103F6000808189830E5F1F4F88248394912C530195
:103F700013C02801F2E04F0E511CF801A080B1805F
:103F800036FE03C0692D70E002C06FEF7FEFC50100
:103F90000E940E214C018201F32DFF773F2E16C0A7
:103FA000280122E0420E511CF801A080B18036FEAB
:103FB00003C0692D70E002C06FEF7FEFC5010E9462
:103FC00003214C01F32DF0683F2E820133FC1BC00E
:103FD000822D90E088169906B0F4B60180E290E058
:103FE0000E9419212A94F4CFF50137FC859137FE00
:103FF00081915F01B60190E00E94192121102A945D
:1040000021E0821A91088114910471F7E8C0843686
:1040100011F0893641F5F80137FE07C060817181E2
:10402000828193810C5F1F4F08C060817181072ED0
:10403000000C880B990B0E5F1F4FF32DFF763F2E60
:1040400097FF09C090958095709561957F4F8F4F30
:104050009F4FF0683F2E2AE030E0A3010E945521D7
:10406000882E861845C0853731F4232D2F7EB22E39
:104070002AE030E025C0932D997FB92E8F36C1F00C
:1040800018F4883579F0B5C0803719F0883721F0F9
:10409000B0C0E92FE061BE2EB4FE0DC0FB2DF46070
:1040A000BF2E09C034FE0AC0292F2660B22E06C0DA
:1040B00028E030E005C020E130E002C020E132E03D
:1040C000F801B7FE07C060817181828193810C5F26
:1040D0001F4F06C06081718180E090E00E5F1F4F2E
:1040E000A3010E945521882E8618FB2DFF773F2EB5
:1040F00036FE0DC0232D2E7FA22E891458F434FED7
:104100000BC032FC09C0832D8E7EA82E05C0B82CB2
:10411000A32C03C0B82C01C0B92CA4FE0FC0FE0113
:10412000E80DF11D8081803321F49A2D997EA92E0E
:1041300009C0A2FE06C0B394B39404C08A2D867849
:1041400009F0B394A3FC11C0A0FE06C0B21488F419
:10415000280C922C9B180EC0B21460F4B60180E2B9
:1041600090E00E941921B394F7CFB21418F42B18E1
:1041700002C0982C212CA4FE10C0B60180E390E070
:104180000E941921A2FE17C0A1FC03C088E790E09D
:1041900002C088E590E0B6010CC08A2D867859F0FF
:1041A000A1FE02C08BE201C080E2A7FC8DE2B60155
:1041B00090E00E941921891438F4B60180E390E060
:1041C0000E9419219A94F7CF8A94F301E80DF11D0A
:1041D0008081B60190E00E9419218110F5CF222044
:1041E00009F442CEB60180E290E00E9419212A949F
:1041F000F6CFF6018681978102C08FEF9FEF2B9655
:10420000E2E10C941B22FC0105906150704001100A
:10421000D8F7809590958E0F9F1F0895FC016150EF
:10422000704001900110D8F7809590958E0F9F1FD8
:1042300008950F931F93CF93DF93FB01238121FDFB
:1042400003C08FEF9FEF2CC022FF16C0468157811D
:10425000248135814217530744F4A081B1819D0127
:104260002F5F3F4F318320838C93268137812F5FCF
:104270003F4F3783268314C08B01EC01FB01008480
:10428000F185E02D0995892BE1F6D80116968D91DF
:104290009C911797019617969C938E931697CE0133
:1042A000DF91CF911F910F910895FA01AA2728302D
:1042B00051F1203181F1E8946F936E7F6E5F7F4FF3
:1042C0008F4F9F4FAF4FB1E03ED0B4E03CD0670F6F
:1042D000781F891F9A1FA11D680F791F8A1F911DC2
:1042E000A11D6A0F711D811D911DA11D20D009F412
:1042F00068943F912AE0269F11243019305D319354
:10430000DEF6CF010895462F4770405D4193B3E03C
:104310000FD0C9F7F6CF462F4F70405D4A3318F0E3
:10432000495D31FD4052419302D0A9F7EACFB4E094
:10433000A6959795879577956795BA95C9F700974C
:104340006105710508959B01AC010A2E06945795ED
:10435000479537952795BA95C9F7620F731F841F44
:10436000951FA01D0895F999FECF92BD81BDF89AC1
:10437000992780B50895262FF999FECF92BD81BD6A
:10438000F89A019700B4021639F01FBA20BD0FB693
:10439000F894FA9AF99A0FBE0895052E97FB1EF429
:1043A00000940E94E42157FD07D00E94362207FCAA
:1043B00003D04EF40C94E42150954095309521950E
:1043C0003F4F4F4F5F4F0895909580957095619541
:1043D0007F4F8F4F9F4F08950E945822A59F900DA9
:1043E000B49F900DA49F800D911D11240895B7FFD7
:1043F0000C94EC210E94EC21821B930B08952F92C8
:104400003F924F925F926F927F928F929F92AF9264
:10441000BF92CF92DF92EF92FF920F931F93CF93B1
:10442000DF93CDB7DEB7CA1BDB0B0FB6F894DEBF48
:104430000FBECDBF09942A88398848885F846E846E
:104440007D848C849B84AA84B984C884DF80EE80B8
:10445000FD800C811B81AA81B981CE0FD11D0FB6C1
:10446000F894DEBF0FBECDBFED010895A1E21A2E74
:10447000AA1BBB1BFD010DC0AA1FBB1FEE1FFF1F08
:10448000A217B307E407F50720F0A21BB30BE40B58
:10449000F50B661F771F881F991F1A9469F760959F
:1044A0007095809590959B01AC01BD01CF01089559
:1044B000A29FB001B39FC001A39F700D811D112465
:1044C000911DB29F700D811D1124911D0895F894C6
:0244D000FFCF1C
:1044D200010000005E055B06ED056105B905010CF2
:1044E200730E010401BC0A3F0B220BFA0AD30A0124
:1044F200010000008007011E1813120C15BC19C020
:104502001A48484B42204A5020424C450A0048482B
:104512004B4220424C450A0041542B424C454849EB
:1045220044434F4E54524F4C4B45593D25640A006B
:1045320041542B424C454849444D4F5553454D4FEC
:1045420056453D25642C25642C25642C25640A00DF
:10455200425554544F4E3D25640A0041542B424C5F
:10456200454B4559424F415244434F44453D00302B
:10457200302D30300A00253032582D30302D253084
:1045820032582D253032582D253032582D253032D3
:10459200582D253032582D253032580A0041542BDF
:1045A200464143544F525952455345540A004154CF
:1045B2002B424C45484944454E3D300A0041542B5C
:1045C200424C45484944454E3D310A0041542B472F
:1045D20041504445564E414D453D0041542B4741C3
:1045E20050474554434F4E4E0A0041542B474150C9
:1045F20044454C424F4E44530A0041540A00415430
:10460200453D300A0041542B4741505354415254C6
:104612004144560A0041542B4741545441444453A7
:104622004552564943453D555549443D3631353944
:104632000A0041542B474154544144444348415297
:104642003D555549443D3078324131392C50524F15
:10465200504552544945533D31362C4D494E5F4CDD
:10466200454E3D312C56414C55453D390A00415489
:104672002B42415544524154453D37363830300A79
:104682000041542B48574144433D360A0041542BC4
:1046920047415454434841523D312C0041542B422E
:1046A2004C4547455450454552414444520A004105
:1046B200542B474150444953434F4E4E4543540AAD
:1046C2000041542B474150534554414456444154B0
:1046D200413D30322D30312D30360A0041542B47C6
:1046E2004150534554414456444154413D30322D8A
:1046F20030312D30340A0041545A0A00BDB6B3ADF0
:10470200AAA7A4A19D404D3639CB047E0448040FCC
:1047120004A203BB03D403ED03040A2C8C0380031D
:1047220052032C03480048004B0042002000420084
:104732004C00450020005300200028005500530083
:1047420042005F0044004D003500360029000000A1
:104752000A03590041004E00470000000403090407
:1047620009026D00040100A0FA090400000103011E
:1047720001000921110100012240000705810308FF
:1047820000010904010001030102000921110100D5
:1047920001224D00070582030800010904020001FD
:1047A20003000000092111010001223600070583E0
:1047B2000308000A09040300010300000009211193
:1047C20001000122390007058403100001120110C3
:1047D2000100000008EDFEC0190100010200010500
:1047E200010906A101050719E029E7150025019530
:1047F20008750181020508190129059505750191C0
:104802000295017503910105071900297715002505
:1048120001957875018102C005010980A101850217
:1048220016010026B7001A01002AB700751095017B
:104832008100C0050C0901A1018503160100269C17
:10484200021A01002A9C02751095018100C005011F
:104852000902A1010901A100050919012905150093
:1048620025019505750181029501750381010501F7
:10487200093009311581257F9502750881060938AD
:104882001581257F950175088106050C0A380215E8
:1048920081257F950175088106C0C005010906A121
:1048A20001050719E029E715002501950875018121
:1048B20002950175088101050819012905950575FB
:1048C2000191029501750391010507190029FF1550
:0C48D2000026FF00950675088100C0005C
:106000000A00EA40E940E2400400050006000700FB
:10601000080009000A000B000C000D000E000F0024
:1060200010001100120013001400150016001700D4
:10603000180019001A001B001C001D001E001F0084
:106040002000210022002300240025002600270034
:10605000280000F52A002BAB2C002D002E002F006D
:10606000300031A33200330034002A2836003700D4
:10607000380039003A003B003C003D003E003F0044
:1060800040004100420043004400450046004700F4
:10609000480049004A004B004FA94D004E004F00F8
:1060A0005000510052002AA15400550056005700DC
:1060B000580059005A005B005C005D005E005F0004
:1060C0006000610062006300640076008500670084
:1060D000F450F550F650F750F850F950FA506F0060
:1060E0007000710072007300890087008A008B00C5
:1060F0002BAAE100E000E2002BAA5232510050002E
:106100000000010001000100010043004100010006
:106110002000010092412F00250030002D002E00AC
:1061200001003300260027001E002100010022008C
:10613000240042001F00400023003F003A003B00C3
:106140003C003D003E003F00400041004200430053
:1061500028003500CD400BF52C00440045005200CE
:106160003002B640010050004F00B5403600370005
:1061700051000100010001000100010001000100C7
:106180000100010001000100010001000100010007
:106190000100010001000100010001000100E940CF
:1061A000E240EA404B00010053009245010001002B
:1061B00001000100010001000100010001000100D7
:1061C00001000100010001000100010001000100C7
:1061D00001000100010001000100010001000100B7
:1061E000010001000100010049000100010001005F
:1061F00001000100010001002B00E940EA40E240FB
:1062000011110100010001004C0002F03D004D00A1
:106210004A003E00070A3A00490001002D002E0006
:10622000010033002F00300046003B004E000708FD
:106230006F4019084B0047007040480011F00BFBFD
:106240000100010001000100010001000100004700
:1062500034000100640039000100B00001002F0289
:10626000300231000100010001003100310038002E
:106270000100010001000100010001000100010016
:106280000100010001000100010001000100010006
:1062900001000100010001000BFC01000100E4000D
:1062A000E600E7000100010001000100010001001B
:1062B00001000100010001000100010001000100D6
:1062C00001000100010001000100010001000100C6
:1062D00001000100010001000100010001000100B6
:1062E00001000100010001000100010001000100A6
:1062F00001000100010001002BA2010003F00100D8
:106300001500010001000100F2500100FB50F350A4
:10631000F550FA50010001000100010001000100E8
:10632000010001000100F650F450F950F150010055
:106330000100FC50F050F8500100F750010001003E
:106340000100010001000100010001000100FD50F9
:1063500001000100010001000100FE50FF50F45057
:10636000F5500100010001000100010001000100E1
:106370000100010001000100010001000100010015
:106380000100010001000100010001000100010005
:1063900001000100010001000100010001000100F5
:1063A00001000100010001000100010001000100E5
:1063B00001000100010001000100010001000100D5
:1063C00001000100010001000100010001000100C5
:1063D00001000100010001000100010001000100B5
:1063E00001000100010001000100010001000100A5
:1063F00001000100010003F00100010001000100A3
:10640000160001000100010001000100010001006F
:106410000100010001000100010001000100010074
:106420000100010001000100010001000100010064
:106430000100010001000100010001000100010054
:106440000100010001000100010001000100010044
:106450000100010001000100010001000100010034
:106460000100010001000100010001000100010024
:106470000100010001000100010001000100010014
:106480000100010001000100010001000100010004
:1064900001000100010001000100010001000100F4
:1064A00001000100010001000100010001000100E4
:1064B00001000100010001000100010001000100D4
:1064C00001000100010001000100010001000100C4
:1064D00001000100010001000100010001000100B4
:1064E00001000100010001000100010001000100A4
:1064F0000100010001000100010001000100010094
:106500000002010001000100010001000100010082
:106510000100010001000100010001000100010073
:106520000100010001000100010001000100010063
:106530000100010001000100010001000100010053
:106540000100010001000100010001000100010043
:106550000100010001000100010001000100010033
:106560000100010001000100010001000100010023
:106570000100010001000100010001000100010013
:106580000100010001000100010001000100010003
:1065900001000100010001000100010001000100F3
:1065A00001000100010001000100010001000100E3
:1065B00001000100010001000100010001000100D3
:1065C00001000100010001000100010001000100C3
:1065D00001000100010001000100010001000100B3
:1065E00001000100010001000100010001000100A3
:1065F0000100010001000100010001000100010093
:106600000100010001000100010001000100010082
:106610000100010001000100010001000100010072
:106620000100010001000100010001000100010062
:106630000100010001000100010001000100010052
:106640000100010001000100010001000100010042
:106650000100010001000100010001000100010032
:106660000100010001000100010001000100010022
:106670000100010001000100010001000100010012
:106680000100010001000100010001000100010002
:1066900001000100010001000100010001000100F2
:1066A00001000100010001000100010001000100E2
:1066B00001000100010001000100010001000100D2
:1066C00001000100010001000100010001000100C2
:1066D00001000100010001000100010001000100B2
:1066E00001000100010001000100010001000100A2
:1066F0000100010001000100010001000100010092
:106700000000010001000100010001000100010082
:106710000100010001000100010001000100010071
:106720000100010001000100010001000100010061
:106730000100010001000100010001000100010051
:106740000100010001000100010001000100010041
:106750000100010001000100010001000100010031
:106760000100010001000100010001000100010021
:106770000100010001000100010001000100010011
:106780000100010001000100010001000100010001
:1067900001000100010001000100010001000100F1
:1067A00001000100010001000100010001000100E1
:1067B00001000100010001000100010001000100D1
:1067C00001000100010001000100010001000100C1
:1067D00001000100010001000100010001000100B1
:1067E00001000100010001000100010001000100A1
:1067F0000100010001000100010001000100010091
:00000001FF
