:100000000C94FF000C941C010C941C010C941C011A
:100010000C941C010C941C010C941C010C941C01EC
:100020000C941C010C941C010C943D130C941214A0
:100030000C94FD090C941C010C941C010C941C01E3
:100040000C941C010C94C5040C941C010C941C0110
:100050000C941C010C94ED210C941C010C941C01BB
:100060000C941C010C9494090C941C010C941C011C
:100070000C941C010C941C010C941C010C941C018C
:100080000C941C010C941C010C941C010C941C017C
:100090000C941C010C941C010C941C010C941C016C
:1000A0000C941C010C941C010C941C019706A106D5
:1000B000A106AA06AA06BD06BD06D106D106CD0830
:1000C000D608D608D608D608D808D808D808DB0835
:1000D000DB08DB08DB08DB08DB08DE08DE08DE08FF
:1000E000DE08DE08DE08E108E108E1087B149E1462
:1000F0005E159E145E15E31406155E1528153B1556
:10010000DB17DB1729182918AB18F418611B611BC2
:100110001B19611B81188118D31AE81A611B4E1B29
:10012000291E1F20212223242526272D2E2B141A99
:100130000815171C180C12132F3039041607090A5A
:100140000B0D0E0F33343179641D1B061905111088
:100150003637387D787B7A3A4C3B2C8065807E7CC4
:100160007F80804F4D5152504E4A4B2A3528FFEF29
:1001700080000000000001010102020304050506E1
:1001800007090A0B0C0E0F1112141517191B1D1F4E
:10019000212325282A2C2F313436393B3E41434632
:1001A000494C4F5255585A5D6164676A6D70737659
:1001B000797C7F8386898C8F9295989B9EA2A5A738
:1001C000AAADB0B3B6B9BCBEC1C4C6C9CBCED0D33C
:1001D000D5D7DADCDEE0E2E4E6E8EAEBEDEEF0F1DA
:1001E000F3F4F5F6F8F9FAFAFBFCFDFDFEFEFEFF6E
:1001F000FFFF62620028008315087432000011249A
:100200001FBECFEFDAE0DEBFCDBF15E0A0E0B1E06A
:10021000EEE2F2E502C005900D92A633B107D9F7E0
:1002200028E0A6E3B5E001C01D92A337B207E1F7CD
:100230000E942B0F0C9415290C940000E82FF0E07D
:100240008DE0989FE00DF11D1124E05EFE4F84913A
:1002500008950F931F93CF93DF938C01C62FD42F54
:100260000E944621F8019281C130C1F028F0C430CB
:1002700021F1C53051F136C0992391F09D2F927034
:10028000D0FD90622D2F2470982321F080FD02C0B4
:1002900085E30EC0822349F489E20AC0911103C0AC
:1002A000809136051BC082FF02C08DE301C081E250
:1002B00080933605809136050DC0992321F0827216
:1002C00089F48CE207C08CE209C0992331F085FDE6
:1002D00009C082E50E94CA1603C082E50E94F81692
:1002E0000E948021F8018281882381F1C330A9F026
:1002F00048F4C23059F585E0DF91CF911F910F91FD
:100300000C94440ECA30D9F0CB3001F58D2FDF911B
:10031000CF911F910F910C94F70E9091990581E068
:100320008927809399059091CE0788E88927809343
:10033000CE07DF91CF911F910F910C9404048D2F64
:10034000DF91CF911F910F910C947006DF91CF91A7
:100350001F910F910895611107C0FC0182818823CC
:1003600019F080E09FE5089580E090E00895E82F7F
:10037000F0E0EE0FFF1FEA5BFE4FA081B0E0909629
:100380009C918181892311F480E8089580E008958B
:10039000EAE3F1E090E0A081B0E091963C91919782
:1003A0002181891711F08F3F11F4232B02C0209572
:1003B000232391962C939F5F3296963061F7089590
:1003C000E4EBFEE7E491E63439F581E080939305B0
:1003D000809398053E98469A80917308909174088E
:1003E0008A3A9B4BC9F480911D018823A9F03E9A5B
:1003F0004698559A5D98549A5C9A8FEF91E12AE756
:10040000815090402040E1F700C000005D9A80914B
:10041000C900877F8093C9000895809173089091E7
:1004200074088A3A9B4B31F4109274081092730846
:100430000E94AB0B0E942906A6E4B1E0EC91F0E02B
:1004400091A111962C911197822F8095982391A3B9
:1004500082A1822B82A3129681E0A036B80771F7A1
:1004600008953F924F925F926F927F928F929F92E8
:10047000AF92BF92CF92DF92EF92FF920F931F93B2
:10048000CF93DF930E94D22120918505309186057C
:100490008217930709F483C090938605809385059E
:1004A000C7E8D5E0412C512CE12CF12C97E3C92E63
:1004B00095E0D92E88248394912C3CE0A32EB12C76
:1004C000842D0E94C80180E18A95F1F7360100E091
:1004D00010E0302E802F0E94B701F3019081969595
:1004E000892B80838038D1F4552019F053941082E1
:1004F00015C085E0F82EF0E1FA95F1F7832D0E9402
:10050000B701F30190819695982B9083882319F079
:10051000FA94F110F0CF730155245394C401002EC6
:1005200002C0880F991F0A94E2F7F30121913F015D
:100530002B3F28F028813981822B932B08C025304E
:1005400040F4809590952881398182239323998363
:1005500088830F5F1F4F0D30110509F0BACFFDE002
:10056000CF0ED11C89919991892B89F080910A0134
:1005700082FD09C08091720880FD05C0B092EF062F
:10058000A092EE0604C01092EF061092EE0643947D
:1005900086E0481295CF851510F4F701108281E0AE
:1005A000DF91CF911F910F91FF90EF90DF90CF904F
:1005B000BF90AF909F908F907F906F905F904F9083
:1005C0003F900895E82FF0E0EE0FFF1FE957FA4F34
:1005D0008081918108950895CF93809117018A3089
:1005E00028F10E943102E7E3F5E080E090E02191FC
:1005F000222339F08E3111F0813211F49C5901C05F
:100600009F5F8F5F8E3499F780911D01983C39F47C
:10061000811103C08AE10E94440E81E017C081115C
:1006200003C081E0911112C080E010C08FEF0E94E2
:10063000C80180E18A95F1F7C0E08C2F0E94B701D4
:100640008111EBCFCF5FCD30C1F7EECFCF910895C1
:10065000549A5C98E0E0F2E6849180939B05859142
:10066000949190939C05E0E0F3E6E491E0939D057E
:100670009F3F39F480919805811103C081E08093F8
:100680009805EF3F19F481E08093970582E092E6A8
:10069000FC01459155916591749140939505FC013C
:1006A000459155916591749150939405FC01859104
:1006B0009591A591B491A09396050895CF93C82FD5
:1006C000811102C05C9A0FC0823069F480910A01E6
:1006D00082FD09C0599840919605609194058091DA
:1006E00095050E94040781E090E001C0880FCA953B
:1006F000EAF790919A05892B80939A05CF910895F6
:10070000811102C05C9806C0823021F490910A01E8
:1007100092FF599A21E030E0A90102C0440F551F11
:100720008A95E2F7CA01809590919A058923809372
:100730009A050895EF92FF920F931F93CF93DF9343
:10074000D82F0BE915E0C0E0E62EF12CDD2331F0C7
:10075000F80180818D1B883088F401C08C2F9701AF
:1007600002C0359527958A95E2F720FF04C08C2FAB
:100770000E945E0303C08C2F0E948003CF5F0F5F37
:100780001F4FC33019F7DF91CF911F910F91FF9049
:10079000EF90089560919A0580E00C949A03CF92AF
:1007A000DF92FF920F931F93CF93DF93F82E0BE905
:1007B00015E0C0E0D0E0CC24C394D12CF8018191A5
:1007C0008F018F110DC020919A05C6010C2E01C01A
:1007D000880F0A94EAF7822780939A050E94CA0339
:1007E0002196C330D10551F7DF91CF911F910F9121
:1007F000FF90DF90CF900895669581E00C949A0366
:10080000669589E00C949A036091990585E10C94B2
:100810009A03682F80E10E949A030C94040480914B
:10082000980581110DC0F8943E9A809190008168DE
:1008300080939000809191008360809391007894E0
:10084000089580919805811111C0F8943E98809187
:1008500090008E7780939000809191008C7F8093A0
:100860009100109299001092980078940895CF9377
:1008700090919805992341F0809172088E7F809322
:10088000720810922C0830C0C82F0E940324C73071
:10089000A8F4C430E8F4C13038F110922C0810925A
:1008A000A2050E940F04EC2FF0E0E259FE4FE49104
:1008B000F0E0F0939900E093980019C0C930A0F4DB
:1008C0000E940F0410922C0881E08093A2050FC0B3
:1008D00081E080932C081092A2050E940F0487E00B
:1008E0008C1B8093A30503C0CF910C942104CF915E
:1008F0000895FC019091720890FF18C082818823AE
:10090000A9F0892F8E7F8E3039F48091A1058A500D
:100910008A3050F48AE008C0803141F48091A1050A
:10092000865F863708F086E78093A1050895809159
:10093000A205882349F18091A0058F5F863018F4C5
:100940008093A00508951092A005E091A105F0E024
:10095000EE58FE4FE491F0E0F0939900E093980098
:10096000809172088E7F8E3031F48091A1058E3790
:1009700058F48F5F07C0803139F48091A10582302F
:1009800018F081508093A10508951F920F920FB621
:100990000F9211242F933F934F935F936F937F9305
:1009A0008F939F93AF93BF93EF93FF9380912C0806
:1009B000882361F180919E0590919F050196909307
:1009C0009F0580939E052091A30530E028173907E5
:1009D000E8F410929F0510929E05E091A105F0E0C9
:1009E000EE58FE4FE491F0E0F0939900E093980008
:1009F000909104018091A105890F8093A1058F3703
:100A000011F0811103C09195909304010E94970405
:100A1000FF91EF91BF91AF919F918F917F916F91D6
:100A20005F914F913F912F910F900FBE0F901F90AC
:100A3000189525B1362F3095232335B1632B3FB759
:100A4000F894FC0189E18150E1F0919148E065B9A9
:100A500097FF25B9990F000000C025B9000000C01C
:100A600000C000C000C000C000C000C000C000C086
:100A700000C000C000C000C000C000C04A9539F7E7
:100A8000E2CF3FBF0895269A60E40C941905EF92D7
:100A9000FF920F931F93CF93DF9300D000D01F924C
:100AA000CDB7DEB7F90170E0869F9001879F300DCA
:100AB0001124232F3327042F10E0209FD001219FE2
:100AC000B00D309FB00D112420E031E07901E61A1D
:100AD000F70AE09E9001E19E300DF09E300D11244A
:100AE0003C833983832F8B0F8D838A834B1B4B83EE
:100AF000892F90E063E070E00E94E924DE01A80FF6
:100B0000B91F12963C91DE01A80FB91F11962C91C6
:100B1000DE01A80FB91F13968C9181833083228345
:100B20000F900F900F900F900F90DF91CF911F912A
:100B30000F91FF90EF9008958AE090E00C943B288D
:100B4000AB01BC018AE090E00C94592888E1EDE209
:100B5000F8E0DF011D928A95E9F708958DE298E0AB
:100B60000C94430520910A0122FF15C025E438E0CA
:100B70000E944705EDE2F8E0809145089091460813
:100B8000A091470881939193A19388E0E534F807F9
:100B900099F70C94AE0508950F931F93CF93DF93AD
:100BA00020910A0122FF24C0D42F162FC92F082F0D
:100BB000287F283011F40E94B20500930901C37008
:100BC00090910A019C7FC92BC0930A0110930B01DD
:100BD000D0930C016091090170910A0180910B0181
:100BE00090910C01DF91CF911F910F910C94A00572
:100BF000DF91CF911F910F91089590910A0192FF7B
:100C000027C087FD04C087311CF080E001C086E169
:100C1000880F880F880F90910A019770892B809315
:100C20000A016091090170910A0180910B01909174
:100C30000C010E94A00590910A0192FD59984091E3
:100C40000C0160910B018091090193700C94CC050B
:100C500008950E949C056093090170930A01809396
:100C60000B0190930C0180910C01811103C08FE75F
:100C700080930C01519A80910A0182FF05C08695EC
:100C8000869586950C94FD050E94AE05599A0895A7
:100C900080910A0182FB222720F991E0922790FBA4
:100CA00082F980930A016091090170910A01809193
:100CB0000B0190910C010E94A00580910A0182FF16
:100CC00005C08695869586950C94FD050E94A6051F
:100CD0000E94AE0580916908843009F0599A089500
:100CE000CF92DF92EF92FF920F931F93CF93DF93F8
:100CF000C82ED0900901D0910A01D370E0900B0169
:100D000040910C01042F80FF02C0CFEF01C0C1E071
:100D10000E94462181FDC1954C2D50E0493051057E
:100D200008F052C0FA01EA5AFF4F0C941125DF91E6
:100D3000CF911F910F91FF90EF90DF90CF900C9487
:100D4000480680910A018695869586958C0F0E94AB
:100D5000FD053AC08091090120910A01922F9370FC
:100D60009D5F24E1C202800D911D112460E073E0BB
:100D70000E94FD24D82ED92F2AC080910B0191E129
:100D8000C90270011124E80EF11C2FEFE216F104E4
:100D900009F01CF4F7FC29C01AC0EE24EA94F12CE7
:100DA00016C080910C0191E1C902A00111248A01B1
:100DB000080F111D0F3F110509F01CF417FD18C095
:100DC00006C00FEF10E003C022E02C15A0F4402F66
:100DD0006E2D8D2D9D2FDF91CF911F910F91FF9043
:100DE000EF90DF90CF900C94CC05E12CF12CEFCF5D
:100DF00000E010E0ECCFDF91CF911F910F91FF90B9
:100E0000EF90DF90CF900895EDE2F8E0818360836A
:100E10004283339698E0E534F907C1F70C94AE05A8
:100E2000FC01909131078081883649F581818B3BA7
:100E300021F4CF0103960C94B80B933019F48281FE
:100E40000C94FD05943021F4438162810C940407D5
:100E50009530A9F4883068F4A82FB0E0848193819C
:100E6000228111962C9311979C9312968C930C943B
:100E7000AE058F3F21F4828193810C948A1B0895E3
:100E8000CF93C82FE091B105F0E0EE58FE4F4491AA
:100E900090910A0160910B018091090193700E9469
:100EA000B205309108012091B1053C9F200D11241D
:100EB0002093B1052C1738F08C2F90E0820F911DF4
:100EC0008F3791051CF0319530930801CF9108952B
:100ED000CF93C82FE9E0F1E0438162818091AF05B3
:100EE0009091B0050E94B2058091AF059091B00538
:100EF00023E0C29F800D911D112460E073E00E94E9
:100F0000E9249093B0058093AF05CF910895AF92F7
:100F1000BF92CF92DF92EF92FF920F931F93CF93E6
:100F2000DF93082F182F16956DE2C62E68E0D62E97
:100F3000E12CF12CA12C73E0B72E8091AD0590919E
:100F4000AE058E0D9F1DC0E0D3E0B5010E94E924DF
:100F5000960140910C0160910B010E94470580E3CE
:100F6000E80EF11C83E0C80ED11C80E8E81681E091
:100F7000F80619F70E94AE058091AD059091AE0577
:100F8000212F30E000FF08C054E0220F331F5A9594
:100F9000E1F7820F931F08C09D5F44E0220F331FCB
:100FA0004A95E1F7821B930BBE010E94E9249093BE
:100FB000AE058093AD05DF91CF911F910F91FF900A
:100FC000EF90DF90CF90BF90AF900895CF92DF92D7
:100FD000EF92FF920F931F93CF93DF939091AC0505
:100FE0009F5F282F2695291758F09093AC05DF9125
:100FF000CF911F910F91FF90EF90DF90CF900895C8
:10100000C82F1092AC050E94A605C0FF02C01FEFBA
:1010100001C011E054E0D52E00E068E0E62EF12C8E
:10102000C0E0D3E0C09007011003C00111248C0D73
:10103000911DC7FC9A950896B7010E94FD249C015A
:10104000220F331F820F931F9C01235D374F809126
:10105000090140910A01942F937042E3049F800D8F
:10106000911D1124BE010E94FD2440910C0160914C
:101070000B010E9447050F5FDA94D110D3CF1C0DEE
:1010800019301CF01092070108C017FD03C010931F
:10109000070103C088E080930701DF91CF911F9182
:1010A0000F91FF90EF90DF90CF900C94AE05909150
:1010B000AB059F5F891718F09093AB0508951092C8
:1010C000AB050E94A60520E030E090E0809106018B
:1010D000A901480F511D87FD5A9548305105A8F4C4
:1010E000820F877090E0FC01EE0FFF1F8E0F9F1F95
:1010F000FC01E35DF74F8091450890914608A0916F
:10110000470880839183A28391E02F5F3F4F243073
:101110003105E1F691110E94AE0590910501809193
:101120000601890F809306018D5F8B30C0F0919589
:10113000909305018091A9059091AA05889660E099
:1011400073E00E94E9249093AA058093A90525E401
:1011500038E040910C0160910B010C944705089513
:1011600080919705882331F0599A80910A018B7FED
:1011700080930A0190910A0192FF26C0599924C0D8
:10118000892F869586958695E82FF0E0E731F10561
:10119000D8F4E15AFF4F0C94112540910C01609155
:1011A0000B018091090193700C94B2050C944007D7
:1011B00084500C94680786500C9487078D500C94CB
:1011C000E60783510C94570808955C980E94210407
:1011D000599A08958091E906811104C00E943C2427
:1011E0000E9429060E94CA0380911701843018F0DA
:1011F00081E080931B01089559991CC08091A70537
:101200009091A8050E94DE218997A0F00E94D2212A
:101210009093A8058093A7058091E90681110AC0E3
:1012200080911B01882321F080911D01811102C052
:101230000C94B00808958091A5059091A6050E9490
:10124000DE218739910508F453C00E94D221909382
:10125000A6058093A5058091A4058F5F8093A405C2
:101260009091E9069923D1F0843008F441C091307F
:1012700011F080E001C083E08093A40580916908AB
:10128000843041F00E942104599A9BB180E1892762
:101290008BB908951092E9060C94EA0880911B011D
:1012A000882331F159988091A405813031F45C98FC
:1012B0000E94A6050E94AE050FC0833069F45C9AB7
:1012C0008091EC06882319F06FEF40E002C060E0E7
:1012D0004FEF80E00E9404079091EC068091A405F6
:1012E000911102C0853010F48B3010F01092A405DB
:1012F00008952091B2058091B305821759F030E02E
:10130000F901EC54FA4F80812F5F3F4F2093B205D3
:1013100090E008958FEF9FEF08959091C80095FF9A
:10132000FCCF8093CE0008951F920F920FB60F92BC
:1013300011242F933F934F938F939F93EF93FF939A
:101340008091B30590E09C012F5F3F4F4091B20523
:10135000421741F03091CE00FC01EC54FA4F30833B
:101360002093B305FF91EF919F918F914F913F9102
:101370002F910F900FBE0F901F9018950E94451748
:1013800080911701823050F48FE19EE40197F1F7CC
:1013900000C000000E94C4120E94CF09FFCF9EE04F
:1013A00088E10FB6F894A895809360000FBE9093E3
:1013B00060000895809169088430E1F081E08093B5
:1013C000B40629E488E190E00FB6F894A8958093DC
:1013D00060000FBE209360000E94E50883B7817F04
:1013E000846083BF83B7816083BF7894889583B717
:1013F0008E7F83BF08950C94EA081F920F920FB658
:101400000F9211248F939F93AF93BF938091B40653
:10141000813099F48091D3079091D407A091D5079A
:10142000B091D6078096A11DB11D8093D3079093EC
:10143000D407A093D507B093D607BF91AF919F91E2
:101440008F910F900FBE0F901F9018958091CF062F
:10145000089508950F931F93CF930E94D2218C017A
:10146000C0E0C8010E94DE214E9708F50E9479096C
:101470008F3F2FEF9207C9F0AC0155274D30510532
:10148000A1F02C2F30E04A30510551F4C23030F039
:10149000F901EC54F94F80818F3449F08FE590E0E9
:1014A000F901EA54F94F8083CF5FC731D0F2EC2FB6
:1014B000F0E0EA54F94F108286EB96E0CF911F914D
:1014C0000F910895CF93CAE10E947909019611F016
:1014D000C150D1F7CF9108950F931F93CF93DF930E
:1014E0005D990AC08C010E94620AE80189918823F3
:1014F00019F00E948D09FACFDF91CF911F910F91C2
:1015000008959C012F5631092230310528F02A57C1
:1015100031092230310560F42091D206211103C037
:101520002FEF2093D2069093D1068093D00602C06D
:101530001092D2062091D306211116C09F938F934B
:1015400080E691E09F938F9388E498E09F938F9338
:101550000E9480250F900F900F900F900F900F908A
:1015600088E498E00C946C0A0895CF93DF93EC0123
:101570008091D306811132C08C81282F082E000C57
:10158000330B3F938F938B81282F082E000C330B46
:101590003F938F938A81282F082E000C330B3F93A3
:1015A0008F938981282F082E000C330B3F938F9344
:1015B00088E791E09F938F9388E498E09F938F93BF
:1015C0000E94802588E498E00E946C0A8DB79EB73F
:1015D0000C960FB6F8949EBF0FBE8DBF8091D306B8
:1015E00081111FC088819091CE068917D1F0809318
:1015F000CE061F928F9388E991E09F938F9386E5A3
:1016000098E09F938F930E9480250F900F900F90EA
:101610000F900F900F9088E498E0DF91CF910C9499
:101620006C0ADF91CF9108950E946C0A0C942A0AEB
:10163000CF93DF93EC0186E90E94BD21CE01DF91BB
:10164000CF910C94140B8091D406882321F0109232
:10165000D4060C9480210895CF93DF932091D40673
:10166000211152C02091D30621114EC0EC0183EA12
:1016700091E00E946C0A209731F487EB91E0DF91B2
:10168000CF910C946C0A8F811F928F938E811F9241
:101690008F938D811F928F938C811F928F938B815B
:1016A0001F928F938A811F928F9388811F928F93AD
:1016B0008EEB91E09F938F9388E498E09F938F93B4
:1016C0000E94802588E498E00E946C0A80E58A9553
:1016D000F1F78DB79EB742960FB6F8949EBF0FBE36
:1016E0008DBF8881811110C08A81833531F08933A3
:1016F00031F0873449F482E103C080E101C081E127
:10170000DF91CF910C94CF03DF91CF91089580E0CA
:1017100090E00C942C0B8091D2068823D9F0823073
:1017200020F081508093D20608952091B5062F5F56
:101730002093B5068091D0069091D10630E04FE419
:1017400051E0481B590B2417350720F01092B506BD
:101750000C94810A089585EE91E00C94180B803367
:1017600019F486EF91E002C085E092E00C94180B2A
:10177000CF93DF93EC0184E192E00E946C0ACE01EA
:101780000E946C0A8CEB91E0DF91CF910C94180BC6
:1017900083E292E00C94B80B8CE292E00E94140B6E
:1017A000FC01808108958BE392E00C94180B559A0C
:1017B0005D980E94C921F89487E68093CC0010922E
:1017C000CD008091C90080698093C9008091C900D3
:1017D00088608093C9008091CA008093CA0080917C
:1017E000C80082608093C80078948BE492E00E94E5
:1017F000180B8BE492E00E94140BFC018081813471
:1018000021F48181843571F505C08F3459F58181CA
:101810008B3441F50E94AB0B8BE492E00E94180BD5
:101820008FE492E00E94180B0E94C80B85E092E0C2
:101830000E94180B86E592E00E94180B0E94D30BC1
:1018400086E692E00E94180B83E892E00E94180B53
:101850008FEB92E00E94180B10927408109273089C
:101860000E94BE09F8948CE08093CC0078948BE4BD
:1018700092E00C94180BCF93599903C0882309F474
:101880008AC0C82F82ED92E00E94140BFC01628195
:1018900080ED860F8A3008F04DC0408150E0405303
:1018A000510984E6849FD001859FB00D1124818168
:1018B00090E0C0974AE0489F9001499F300D112465
:1018C0002A0F3B1F260F311D43E0220F331F4A957D
:1018D000E1F72A5432402C3C40E1340788F48091EF
:1018E000190190911A0183374EE0940709F4C90158
:1018F000280F391F3695279530931A012093190127
:101900002091190130911A0184E0369527958A9526
:10191000E1F720542093EB06223A18F01092E906E2
:1019200009C0253910F481E003C02D3918F485E091
:101930008093E906C13079F59091EB06E0E5F3E09C
:101940008AE52191921718F48A50D9F78CE22091F8
:10195000E9062111822F923C08F084E68093180159
:101960001F928F938EED92E09F938F9388E498E07F
:101970009F938F930E94802588E498E00E94140B27
:101980000F900F900F900F900F900F9088E498E0B9
:10199000CF910C94140BCF91089581E00C943B0CE3
:1019A000CF939091690881E0943009F080E08093B2
:1019B0001C018091280187FF1CC00E9478158D5062
:1019C000914059F08DE091E00E9473158091990546
:1019D0008D7F809399050E9404048091ED0681110A
:1019E00029C080911C01882329F1809128018F77DB
:1019F00007C0943061F090911D01992321F0806817
:101A00008093280117C08CE08093170113C00E94B7
:101A100078158E51914071F08EE191E00E9473151E
:101A2000809199058260809399050E94040481E069
:101A30008093ED0680911D01882309F423C15D99EF
:101A400018C10E94620A80911701823031F481E04E
:101A50000E943B0C83E080931701C091E806CC23E1
:101A600009F446C00E94CC0B813309F041C080EFDD
:101A700092E00E94140BFC0101900020E9F79F0105
:101A8000255131092817390799F5C13081F422E031
:101A90002093E806C0931B011092EC0621E1FC01A3
:101AA000A5EDB6E001900D922A95E1F721C041E144
:101AB00050E065ED76E00E947325892B59F0809106
:101AC000E8068F5F853090F01092E80681E0809301
:101AD000EC060EC083E093E00E94140B80911B0182
:101AE0008F3018F01092E80603C082E08093E80679
:101AF0008091F30681119CC08091F0069091F106CF
:101B00000E94DE21893E934008F492C00E94D221B7
:101B10009093F1068093F0068091EC06811105C048
:101B20008091E80681112FC008C08091E7068F5F81
:101B30008093E7068370A1F33DC00E94CC0B8133F4
:101B400021F481E08093EC061CC08033E1F4109214
:101B5000EC068091F2068F5F8093F20690911C0153
:101B6000911111C090911701992369F08A3558F0AD
:101B70005D9A8091C900877F8093C90084E080933B
:101B800017011092F20680911B01882399F0843688
:101B900029F410921B010E94CA030CC08F5F80932E
:101BA0001B01843120F48091EC06882319F084E62F
:101BB00080931B018091E6068F5F8093E606877015
:101BC00039F480911701823018F480E00E943B0CB8
:101BD00080911C0181112CC080911B01811128C0B2
:101BE0008091EE069091EF0601969093EF06809318
:101BF000EE0620911701213039F40F9728F00E944A
:101C0000870B82E08093170180911701833081F464
:101C10008091EE069091EF068832934248F084E07E
:101C2000809317015D9A8091C900877F8093C900D6
:101C30008091EA068823D9F08C3099F0823119F42A
:101C400080E393E010C0853181F40E94D30B80E3E0
:101C50000E94AF0B81E30E94AF0B8BE493E00E94E4
:101C6000140B85E193E00E94140B1092EA060E9487
:101C70008B0B80911701823028F40E94230BCF91A7
:101C80000C941B09CF910895CF93DF93C82F0E9426
:101C90004621D82F0E944517C631A9F170F4C231F0
:101CA00039F130F4C53009F44AC0CC3009F199C09B
:101CB000C33199F1C531F9F094C0CA31B1F130F4B2
:101CC000C83159F0C93109F459C08BC0CC3B09F473
:101CD00072C0C03C09F473C084C080911D01882388
:101CE00009F481C0909128019058909328017CC0FC
:101CF000C093EA0678C0D0FF74C0C093EA0681E0C2
:101D000080931B0171C080911B01811102C081E091
:101D100001C084E680931B0166C09091170181E0A9
:101D200089278093170160E043C0D0FD02C061E0C5
:101D300001C06DEB80E290E00E944728FFCF8D2F1D
:101D4000837251F0DD7DD13031F48BE29CEF9093C2
:101D5000010880930008FFCFDC3039F48AEA9BEB5E
:101D60009093740880937308FFCF82E39FE00E94F2
:101D70008A1B82E39FE10E948A1B35C08091180173
:101D800060E090E00E94961BD0FF0BC08DE290E0D7
:101D90000E948A1B60E08091190190911A010E94B3
:101DA000961B8DE290E00E948A1B60E08091EC0619
:101DB0000E94831718C081E08093E80615C08091C7
:101DC0001C01811110C05D9A8091C900877F8093AA
:101DD000C9008AE0809317011092EC060E94D51F7B
:101DE00002C080E001C081E0DF91CF910895CF93E0
:101DF000DF93CDB7DEB729970FB6F894DEBF0FBEDD
:101E0000CDBF96E0E1E3F1E0DE01119601900D9285
:101E10009A95E1F7209137013091380140913901CD
:101E20002F8338874987282F30E08B3018F0ECEF6C
:101E3000FFEF02C0E1E0F0E0EC0FFD1FE20FF31F47
:101E4000808129960FB6F894DEBF0FBECDBFDF911B
:101E5000CF910C94440ECF9390E080E80FB6F894A5
:101E600080936100909361000FBE0E94E0010E9488
:101E70001F13789480E290E00E9433288D3B11F488
:101E800010921D01CFEF80916908843049F0809154
:101E90001D01811103C088E00E94BD21C15099F746
:101EA00080911D01882321F00E94D70B0E94CD0C48
:101EB0000E94CB150E94CF09C1E0809117018430A8
:101EC00038F4A895823010F40E94D5150E94D00CE9
:101ED00080911701823040F480911D018111EDCF76
:101EE00080916908843049F30E94DA090E94CF0981
:101EF0000E94EC02882309F31092EF061092EE067E
:101F00000E94EA08C093170180911D01882341F0C7
:101F1000C093D4065D988091C90088608093C90001
:101F20008091ED06882349F280916908853029F671
:101F30000E94A011C2CF8091050708958FEF909164
:101F4000E800815095FD06C09AE69A95F1F700C029
:101F50008111F5CF8091E80085FB882780F991E019
:101F600089270895CF93DF9300D01F92CDB7DEB7B6
:101F7000209169082430B9F423E029839B838A8364
:101F80002093E9000E949E0F81110DC040E050E0B7
:101F900063E070E0CE0101960E94B5118091E800E7
:101FA0008E778093E8000F900F900F90DF91CF9184
:101FB0000895CF93DF9300D01F92CDB7DEB7209165
:101FC00069082430C1F422E029839B838A8383E05B
:101FD0008093E9000E949E0F81110DC040E050E007
:101FE00063E070E0CE0101960E94B5118091E80097
:101FF0008E778093E8000F900F900F90DF91CF9134
:102000000895CF93DF93209169082430A1F4EC0167
:1020100082E08093E9000E949E0F81110CC040E095
:1020200050E065E070E0CE010E94B5118091E800BB
:102030008E778093E800DF91CF910895CF93DF935F
:10204000EC01909169089430B9F580912801817173
:102050008131B9F49093E9008FEF9091E8008150BD
:1020600095FD06C095E19A95F1F700008111F5CF35
:102070008091E80085FF20C040E050E060E170E022
:102080000BC081E08093E9000E949E0F811114C073
:1020900040E050E068E070E0CE010E94B511809110
:1020A000E8008E778093E80080E1FE01A5EFB6E0BE
:1020B00001900D928A95E1F7DF91CF91089580917B
:1020C0006808811109C00E94C4120E941F138091E8
:1020D000E20084608093E2000895109268080895F9
:1020E000089542E061EC81E00E945E1242E061EC02
:1020F00082E00E945E1242E061EC83E00E945E1288
:1021000042E161EC84E00C945E1280916B088330B4
:1021100009F455C030F4813071F0823009F48EC07A
:1021200008958A3009F47AC08B3009F460C0893090
:1021300009F09CC020C080916A08813A09F096C0DD
:102140008091E800877F8093E80080916E089091ED
:102150006F08892B21F460E185EF96E003C060E011
:1021600080E090E070E00E9400128091E8008B77A0
:102170008093E800089580916A08813209F076C062
:1021800080916E0890916F08009719F0039709F0FD
:102190006DC08091E800877F8093E8008091E8001F
:1021A00082FD05C0809169088111F8CF5FC08091E0
:1021B000F100809305078091E8008B7753C08091F0
:1021C0006A08813A09F052C080916E0890916F08B8
:1021D000892B09F04BC08091E800877F8093E8004D
:1021E0008091E80080FFFCCF8091280136C080916B
:1021F0006A088132D9F580916E0890916F08892B19
:10220000A9F58091E800877F8093E8000E94721210
:1022100080916C08809328010C94451780916A087E
:10222000813221F58091E800877F8093E8000E9449
:10223000721280916D0880930607089580916A0854
:10224000813AA1F48091E800877F8093E800809133
:10225000E80080FFFCCF809106078093F100809119
:10226000E8008E778093E8000C94721208958091B4
:1022700005078093F4061092050780E00E94090488
:102280000E949C160C9445170C9437110E94FB0970
:102290008091F4068093050708950C944611292F28
:1022A000332723303105C1F058F42130310579F05E
:1022B00022303105E9F58DE690E02AEB33E03CC0B1
:1022C00021323105C1F02232310511F131C082E1F4
:1022D00090E027E234E030C099278330910540F543
:1022E000FC01EE0FFF1FE059FC4F20813181FC0102
:1022F000E359FC4F1AC06430D8F4E62FF0E0EE0F3B
:10230000FF1FEB59FC4F2081318189E090E014C020
:10231000643070F470E0FB01EE0FFF1FE35AFC4FD6
:1023200020813181FB01E75AFC4F808190E004C09D
:1023300080E090E020E030E0FA01318320830895CE
:1023400019BC82E089BD09B400FEFDCF8091D800A0
:102350008F7D8093D8008091E00082608093E000C0
:102360008091E00081FDFCCF0895CF92DF92EF9243
:10237000FF920F931F93CF93DF93EC018B017A01B0
:102380000E949112811133C0E114F10439F0F70178
:1023900080819181081B190BC80FD91FC12CD12C2A
:1023A0000115110519F18091E80085FD16C0809195
:1023B000E8008E778093E800E114F10449F0F7011A
:1023C00080819181C80ED91ED182C08285E00FC064
:1023D0000E949112882321F30AC089918093F10011
:1023E00001501109FFEFCF1ADF0ADACF80E0DF9149
:1023F000CF911F910F91FF90EF90DF90CF900895B4
:1024000020917008309171082617370748F0611540
:10241000710539F42091E8002E772093E80001C07F
:10242000B901FC0120E06115710579F1809169081D
:102430008823F1F18530F1F18091E80083FD3CC003
:102440008091E80082FD2EC08091E80080FFEBCFF4
:102450002091F3008091F20090E0922B61157105BC
:1024600051F08830910538F421912093F1006150AA
:1024700071090196F3CF21E0089709F020E08091DF
:10248000E8008E778093E800CECF2111CFCF0AC02D
:1024900080916908882361F0853061F08091E800BF
:1024A00083FD0AC08091E80082FFF2CF80E00895AA
:1024B00082E0089583E0089581E008958F7080930D
:1024C000E900EBEEF0E0808181608083EDEEF0E0EA
:1024D00010826093EC0040838091EE00881F882773
:1024E000881F089580916A0887FF11C08091E800D5
:1024F00082FD05C0809169088111F8CF11C08091DB
:10250000E8008B770BC080916908882349F080919F
:10251000E80080FFF8CF8091E8008E778093E80094
:1025200008952091E4003091E50095E64091EC009B
:10253000842F817040FF23C08091E80080FD1DC082
:1025400080916908882399F0853099F08091EB009B
:1025500085FD11C04091E4005091E5002417350736
:1025600029F3915011F09A01E1CF84E0089582E0BF
:10257000089583E0089581E0089580E008954091F2
:10258000E80042FFDDCF08950E9430130E94381307
:10259000E0EEF0E0808181608083E8EDF0E0808112
:1025A0008F77808319BCA7EDB0E08C918E7F8C93E0
:1025B00080818F7E80831092680808950F931F9307
:1025C000CF93DF930E9430130E943813C8EDD0E000
:1025D00088818F77888388818068888388818F7DD0
:1025E000888319BC109269081092660810926708D7
:1025F00000EE10E0F80180818B7F8083888181600C
:10260000888342E060E080E00E945E12E1EEF0E04C
:1026100080818E7F8083E2EEF0E080818160808324
:10262000808188608083F80180818E7F80838881AB
:1026300080618883DF91CF911F910F910895E8ED1C
:10264000F0E080818F7E8083E7EDF0E08081816023
:10265000808384E082BF81E0809368080C94DE125E
:10266000E8EDF0E080818E7F80831092E200089593
:102670001092DA001092E10008951F920F920FB6A7
:102680000F9211242F933F934F935F936F937F93F8
:102690008F939F93AF93BF93EF93FF938091E1004C
:1026A00082FF0BC08091E20082FF07C08091E100B1
:1026B0008B7F8093E1000E9472158091DA0080FF89
:1026C0001DC08091D80080FF19C08091DA008E7FF4
:1026D0008093DA008091D90019BC80FF0BC082E0A2
:1026E00089BD09B400FEFDCF81E0809369080E9496
:1026F0005F1004C0109269080E946D108091E10083
:1027000080FF19C08091E20080FF15C08091E20037
:102710008E7F8093E2008091E20080618093E200EE
:102720008091D80080628093D80019BC85E08093A6
:1027300069080E9444118091E10084FF35C08091B6
:10274000E20084FF31C080911C01823010F40E94AD
:10275000BE0919BC82E089BD09B400FEFDCF80919D
:10276000D8008F7D8093D8008091E1008F7E809388
:10277000E1008091E2008F7E8093E2008091E20090
:1027800081608093E20080916608882311F084E0E4
:1027900007C08091E30087FD02C081E001C083E0B3
:1027A000809369080E944D118091E10083FF29C048
:1027B0008091E20083FF25C08091E100877F8093B4
:1027C000E10082E080936908109266088091E10040
:1027D0008E7F8093E1008091E2008E7F8093E20003
:1027E0008091E20080618093E20042E060E080E05E
:1027F0000E945E128091F00088608093F0000E9439
:102800007010FF91EF91BF91AF919F918F917F9148
:102810006F915F914F913F912F910F900FBE0F904D
:102820001F9018951F920F920FB60F9211242F939D
:102830003F934F935F936F937F938F939F93AF9348
:10284000BF93CF93DF93EF93FF93C091E900CF70D5
:102850008091EC00D82FD17080FDD0E81092E90073
:102860008091F000877F8093F00078940E94561446
:102870001092E9008091F00088608093F000CD2BE9
:10288000CF70C093E900FF91EF91DF91CF91BF919D
:10289000AF919F918F917F916F915F914F913F91F8
:1028A0002F910F900FBE0F901F9018951F93CF93ED
:1028B000DF9300D0CDB7DEB7EAE6F8E082E798E034
:1028C0002091F10021938E179F07D1F70E94851068
:1028D0008091E80083FFF2C080916A0890916B08B4
:1028E000492F50E04A30510508F0E8C0FA01EA5893
:1028F000FF4F0C941125803881F0823809F0DEC03A
:1029000080916E088F708093E9008091EB0085FBC9
:10291000882780F91092E90007C080916708882312
:1029200011F082E001C080E09091E800977F9093E1
:10293000E8008093F1001092F10095C0282F2D7FC0
:1029400009F0BCC0882319F0823061F0B7C08091D3
:102950006C08813009F0B2C0933009F080E08093B8
:1029600067082BC080916C08811127C080916E0888
:102970008F7009F4A3C08093E9002091EB0020FF41
:102980001CC0933021F48091EB00806214C09091C0
:10299000EB0090619093EB0021E030E0A90102C0D0
:1029A000440F551F8A95E2F74093EA001092EA001F
:1029B0008091EB0088608093EB001092E900809199
:1029C000E800877F53C0811179C010916C081F7790
:1029D0008091E3008078812B8093E3008091E80070
:1029E000877F8093E8000E9472128091E80080FF48
:1029F000FCCF8091E30080688093E300111102C056
:102A000082E001C083E08093690858C0805882301A
:102A100008F054C0AE014F5F5F4F60916E08809127
:102A20006C0890916D080E944F11BC01892B09F42C
:102A300045C09091E800977F9093E80089819A8142
:102A40000E9400128091E8008B778093E80036C0E6
:102A50008038A1F58091E800877F8093E80080911D
:102A600066088093F1008091E8008E778093E800FB
:102A70000E94721223C0811121C080916C08909134
:102A80006D0899270297D4F48091E800877F80939E
:102A9000E80080916C08809366080E947212809111
:102AA0006608811106C08091E30087FD02C081E0C5
:102AB00001C084E0809369080E9471108091E80051
:102AC00083FF0AC08091E800877F8093E8008091AF
:102AD000EB0080628093EB000F900F90DF91CF911D
:102AE0001F910895089590930C0780930B07089504
:102AF00080910B0790910C070895E0910B07F091DE
:102B00000C07309721F00190F081E02D099480E0CE
:102B10000895E0910B07F0910C07309721F00280A7
:102B2000F381E02D09940895E0910B07F0910C07D3
:102B3000309721F00480F581E02D099408952091CB
:102B4000090730910A072817390771F090930A078F
:102B500080930907E0910B07F0910C07309721F063
:102B60000680F781E02D09940895209107073091A0
:102B700008072817390771F0909308078093070713
:102B8000E0910B07F0910C07309721F00084F1855C
:102B9000E02D099408950E94C9210E940D020E940F
:102BA00028030E94F1230C943C248F929F92AF92B1
:102BB000BF92CF92DF92EF92FF920F931F93CF932A
:102BC000DF9300D000D01F92CDB7DEB70E94310254
:102BD00005E217E0F12C8F2D0E94E2024C01F80172
:102BE000A080B180A826B926A114B10439F4F394C9
:102BF0000E5F1F4FF6E0FF12EECF33C08091D20779
:102C000081FD0E94EB02E12CCC24C394D12CC501A0
:102C10008C219D21892BF1F0E982FA8221E0C40107
:102C20008C219D21892B09F420E02B830E94D22145
:102C300081609D838C83CE0101960E949D16CE01FA
:102C400001960E947904F801808191818C259D254F
:102C500091838083E394CC0CDD1CFDE0EF12D7CF91
:102C6000C6CF80E090E00E949D160E94FC080E9462
:102C7000EB2280913107882389F08091230790917E
:102C800024070E94DE218C34910540F01092220727
:102C90008EE097E00E941007109231070E947D1588
:102CA00090910D078917A1F10E947D1580930D0762
:102CB00084FF2CC0E0913107F0E0E25FF84F908193
:102CC000990F990F8370892B80830E94D221909352
:102CD000240780932307809122078F5F8093220728
:102CE0008430B0F080910E07883641F4809131072E
:102CF000823020F487E490E00E948A1B1092220721
:102D0000809131078F5F8093310702C00E94BA2102
:102D10000F900F900F900F900F90DF91CF911F9118
:102D20000F91FF90EF90DF90CF90BF90AF909F906A
:102D30008F9008950C9409040895CF93DF9300D0E9
:102D400000D000D0CDB7DEB7FC01892B39F40E944A
:102D5000D221816060E05FEF4FEF05C0408151817B
:102D6000628183819481FE01319626E0DF011D920C
:102D70002A95E9F7782F9D838C838D819E810E940F
:102D8000541E26960FB6F894DEBF0FBECDBFDF915E
:102D9000CF910895CF93882349F1803B29F482EFA6
:102DA00091E0CF910C94021FC82F8CEF8C0F813AC9
:102DB00020F080E58C0F8E3250F48C2F0E94B323CC
:102DC000811114C061E08C2F0E94FB200CC080E2B6
:102DD0008C0F883058F4C77081E001C0880FCA9505
:102DE000EAF70E944921CF910C948021CF91089558
:102DF000882351F19CEF980F913A20F090E5980FBD
:102E00009E3220F460E00E94FB200DC090E2980FFB
:102E1000983058F4877091E001C0990F8A95EAF7CD
:102E2000892F0E944F210C9480219BE5980F9330AD
:102E300020F480E090E00C949F15885A873120F4AC
:102E400080E090E00C94B5150895882321F00E944D
:102E500049210C9480210895882321F00E944F215C
:102E60000C94802108950E9466210E943C210E94BA
:102E700080210E94A7230E94E02280E090E00E942F
:102E80009F1580E090E00C94B5150E9456210C949B
:102E90003317CF93DF9300D000D01F92CDB7DEB7AA
:102EA0000E948D20292F22952F702C3030F42A304B
:102EB000A0F42250223030F01DC02C30A9F02F3069
:102EC00099F018C0853A28F4843090F4823028F4C0
:102ED0000FC090E2980F983058F0843058F0853A3F
:102EE00038F0803F39F404C093FB882780F903C091
:102EF00081E001C080E00F900F900F900F900F9035
:102F0000DF91CF910895811101C08AE0662311F00D
:102F1000885A01C0835E90E00C948A1BCF92DF92A6
:102F2000EF92FF920F931F93CF93DF9300D000D0C7
:102F30001F92CDB7DEB76C0185E0F601DE01119678
:102F400001900D928A95E1F7F60123813481898100
:102F50009A812115310531F09F3F31F491E08F3F87
:102F600019F403C091E001C090E090FDAAC3F601FE
:102F7000F280E580E2948FE0E8222230310559F0BA
:102F8000722F3D832C8349815A816F2D8D810E9440
:102F90008D208C0102C009811A810E948C200E9420
:102FA000861FE12FE295EF708E2F90E0FC01E05834
:102FB000FF4F0C941125812F807F1F70882311F003
:102FC0001295107FFF2021F10E94462181239091CC
:102FD000CF07892B8093CF07112351F0002319F0DD
:102FE00081E08093CD07812F0E9459210E9480218A
:102FF000802F0F900F900F900F900F90DF91CF9137
:103000001F910F91FF90EF90DF90CF900C94CA1614
:103010009091CF07812F809589238093CF071092BD
:10302000CD07802F0E94F816112309F44AC3812F7F
:103030000E945F210F900F900F900F900F90DF91E3
:10304000CF911F910F91FF90EF90DF90CF900C9454
:103050008021812F807F1F70803211F01295107FA8
:10306000002319F0013009F12BC0FF20A9F0EE2058
:1030700061F1F1E0812FEF1229C00F900F900F90B6
:103080000F900F90DF91CF911F910F91FF90EF90D4
:10309000DF90CF900C946921EE2021F021E0E21620
:1030A00009F40FC30E946C2154C0FF20F1F082E0AC
:1030B0008E1508F406C30E944621812331F049C0D1
:1030C000FF2009F444C0E11015C0812F0F900F902C
:1030D0000F900F900F90DF91CF911F910F91FF9064
:1030E000EF90DF90CF900C942517E1E0EE1508F4F7
:1030F000E8C22FC0F601858180FF13C08F708583E1
:10310000E4CF003F09F4A5C108F080C1003E08F0FB
:1031100085C1FF2009F413C2EE2009F402C213FD99
:10312000FCC1802F0E94CA16093309F0CAC282E38B
:103130000F900F900F900F900F90DF91CF911F91F4
:103140000F91FF90EF90DF90CF900C94BD21E11094
:10315000FEC1812F6FC1812F86958695837019F0EE
:103160008130B9F0AEC2FF2019F0C801937002C0DF
:1031700080E090E00F900F900F900F900F90DF91F4
:10318000CF911F910F91FF90EF90DF90CF900C9413
:10319000B515FF20C1F0C80193708115F3E09F07BA
:1031A000A4F087EF91E00E94021F60E0802F8295DB
:1031B0008F700E94831760E0802F8F700E948317AA
:1031C00085EF91E0F6C180E090E00F900F900F90B6
:1031D0000F900F90DF91CF911F910F91FF90EF9083
:1031E000DF90CF900C949F15802FFF2081F00E94DC
:1031F0002B220E94E022063408F063C2E02FF0E0A8
:10320000E352F84F81E080838093DC075AC20E942A
:1032100079220E94E022063408F053C2202F30E0C9
:10322000F901E352F84F1082002311F0C901ABC13C
:1032300084EF90E5A8C1812F837009F070C0F11070
:1032400040C2202F229526952770220F220F602F33
:103250006F70862F90E0A0E0B0E06C017D01022E3F
:1032600004C0CC0CDD1CEE1CFF1C0A94D2F704FF3A
:1032700012C08FE090E0A0E0B0E004C0880F991F7A
:10328000AA1FBB1F2A95D2F7BC01CD01609570958E
:103290008095909503C060E070E0CB01169516957F
:1032A00013701230B1F040F56C297D298E299F29C9
:1032B000113031F10F900F900F900F900F90DF9120
:1032C000CF911F910F91FF90EF90DF90CF900C94D2
:1032D000A11F6C297D298E299F290F900F900F9097
:1032E0000F900F90DF91CF911F910F91FF90EF9072
:1032F000DF90CF900C94BB1F0E94A11FC701B601A5
:103300000F900F900F900F900F90DF91CF911F9122
:103310000F91FF90EF90DF90CF900C94871FFF20CC
:1033200019F0812F817001C08695882309F4C9C1E5
:10333000202F229526952770220F220F602F6F7065
:10334000862F90E0A0E0B0E06C017D01022E04C069
:10335000CC0CDD1CEE1CFF1C0A94D2F704FF12C03B
:103360008FE090E0A0E0B0E004C0880F991FAA1F92
:10337000BB1F2A95D2F7BC01CD0160957095809551
:10338000909503C060E070E0CB0116951695137020
:103390001230B1F040F56C297D298E299F2911301A
:1033A00031F10F900F900F900F900F90DF91CF9110
:1033B0001F910F91FF90EF90DF90CF900C946820B9
:1033C0006C297D298E299F290F900F900F900F90C7
:1033D0000F90DF91CF911F910F91FF90EF90DF90B1
:1033E000CF900C947A200E946820C701B6010F90FC
:1033F0000F900F900F900F90DF91CF911F910F9131
:10340000FF90EF90DF90CF900C945620023F09F48C
:103410004FC0D8F1033F09F45EC07BCE0F70812FFF
:103420008F71FF2021F00E94EF1F802F4FCE0E944E
:103430001020802F0F900F900F900F900F90DF9122
:10344000CF911F910F91FF90EF90DF90CF900C9450
:103450002C17FF20A9F021E02E1508F432C1812F8E
:103460008F710F900F900F900F900F90DF91CF9171
:103470001F910F91FF90EF90DF90CF900C9435202B
:1034800082E08E1508F41DC1EACFFF2099F0812F4C
:103490008F710F900F900F900F900F90DF91CF9141
:1034A0001F910F91FF90EF90DF90CF900C94EF1F42
:1034B000FF2069F3812F8F710F900F900F900F9065
:1034C0000F90DF91CF911F910F91FF90EF90DF90C0
:1034D000CF900C941020FF2089F0812F8F710F90D6
:1034E0000F900F900F900F90DF91CF911F910F9140
:1034F000FF90EF90DF90CF900C94DA1F0F900F9019
:103500000F900F900F90DF91CF911F910F91FF902F
:10351000EF90DF90CF900C94D51FF601858180FF4E
:1035200000CE012F0770802F0E94EF1F14FFC9C02B
:1035300069817A81802F0E94132261E025C0EE20EC
:10354000B1F013FF04C0F601858180FD10C0802F0B
:103550000F900F900F900F900F90DF91CF911F91D0
:103560000F91FF90EF90DF90CF900C94F816012F01
:103570000770802F0E94102014FFA3C069817A81F8
:10358000802F0E94132260E00F900F900F900F90F9
:103590000F90DF91CF911F910F91FF90EF90DF90EF
:1035A000CF900C946F1B412F4F70602FC6010E946B
:1035B000AB010F900F900F900F900F90DF91CF9174
:1035C0001F910F91FF90EF90DF90CF900C94021F0E
:1035D000F11077C0002341F0812F8F70843021F0EB
:1035E000107F902F9F70192B1F701230C9F1A0F41B
:1035F000112339F1113009F064C00F900F900F9032
:103600000F900F90DF91CF911F910F91FF90EF904E
:10361000DF90CF900C946C24133089F1143009F0B2
:1036200050C0802F0F900F900F900F900F90DF9150
:10363000CF911F910F91FF90EF90DF90CF900C945E
:10364000D1240F900F900F900F900F90DF91CF919A
:103650001F910F91FF90EF90DF90CF900C94512429
:103660000F900F900F900F900F90DF91CF911F91BF
:103670000F91FF90EF90DF90CF900C948F240F90DC
:103680000F900F900F900F90DF91CF911F910F919E
:10369000FF90EF90DF90CF900C94AE24412F4F70AD
:1036A000602FC6010F900F900F900F900F90DF9139
:1036B000CF911F910F91FF90EF90DF90CF900C94DE
:1036C00029010F900F900F900F900F90DF91CF91E5
:1036D0001F910F91FF90EF90DF90CF900895CF93BF
:1036E000DF9300D000D000D0CDB7DEB789839A83B6
:1036F0006B8382E090E09D838C83CE0101960E94D3
:103700008E1726960FB6F894DEBF0FBECDBFDF91A1
:10371000CF910895CF93DF93EC0161E00E946F1B7E
:1037200060E0CE01DF91CF910C946F1BBF92CF92DE
:10373000DF92EF92FF920F931F93CF93DF936C0171
:10374000B62EC5E0D0E000E117E28AE0E82EF12CC9
:10375000C601B8010E94E924CB01009731F0B701FE
:103760000E94E9246B2D0E948317C801B7010E94B3
:10377000E9248B01219761F7DF91CF911F910F9180
:10378000FF90EF90DF90CF90BF900895CF93DF939D
:1037900000D000D01F92CDB7DEB70F900F900F90E2
:1037A0000F900F90DF91CF910895CF93DF9300D0CA
:1037B00000D000D0CDB7DEB726960FB6F894DEBFA6
:1037C0000FBECDBFDF91CF9108951F93CF93DF93AD
:1037D000C091320716E080913307C81799F0D0E006
:1037E0001C9FF0011D9FF00D1124EC5CF84F4081EF
:1037F000518162817381848195810E94D51B2196BC
:10380000C770E9CFDF91CF911F9108954091640770
:10381000509165076091660770916707809168070E
:10382000909169070C94D51B0F931F93CF93DF934F
:103830008091690782958F7009F05DC0809166075D
:10384000882309F458C080913207109133076091A2
:10385000640770916507C0916707D091680791E090
:103860006F3F09F090E0292F06E0811709F443C06B
:10387000209721F07F3F21F030E003C031E001C00C
:10388000322F90E030FD34C0089FF001099FF00D09
:103890001124DF01AC5CB84F11963C91119737139E
:1038A00027C03C91361324C012963C9112973111D7
:1038B0001FC013964D915C9114974C1B5D0B483CB7
:1038C0005105B0F4809169078F708061809369071A
:1038D000E75CF84F80818F708061808384E697E099
:1038E0000E948E17DF91CF911F910F910C94E51BD1
:1038F00001968770BACFDF91CF911F910F910895F4
:103900009F92AF92BF92CF92DF92EF92FF920F936E
:103910001F93CF93DF93CDB7DEB761970FB6F894BF
:10392000DEBF0FBECDBF8C0185E0F801DE011D9624
:1039300001900D928A95E1F7F80140815181F28062
:10394000C380D480909164076091650720916707D8
:10395000309168072115310531F06F3F31F481E076
:103960009F3F19F403C081E001C080E0F82FF1709F
:103970009F2E80FD52C184E6A82E87E0B82EE090ED
:103980006607F601E21BF30BEE2009F4E8C0809114
:103990006907E83CF10508F0A4C0282F207F09F052
:1039A00053C0561313C0491311C0EF2CF1100EC0B1
:1039B0008F708061809369070E94061CC5010E9478
:1039C0008E1780916907F80185835BC1C114D1040A
:1039D00031F05F3F31F481E04F3F19F403C081E0E3
:1039E00001C080E080FD03C081E08F2502C080E03F
:1039F00090E0F82FF170EF2E80FF1CC0809132070D
:103A00002091330736E0821709F418C190E0389FFF
:103A1000F001399FF00D1124EC5CF84F61815613D1
:103A200006C06081461303C06281F61203C001968E
:103A30008770E9CFEF2CFF2009F423C1809169073B
:103A400081608093690762C0561306C0491304C0A1
:103A5000F11002C0F801A7C04D875E87FF867C2D5C
:103A6000D98AC88A6F2D89890E944917882399F1BC
:103A7000FF2089F120916907822F82958F7090E055
:103A8000029774F0809164079091650798878F83FF
:103A90001986DB86CA862C87CE0107960E948E1770
:103AA00086E0F801A4E6B7E001900D928A95E1F76F
:103AB0000E94141C0E94061C11C0561749F14D8724
:103AC0005E87FF867C2DD98AC88A6F2D89890E94DE
:103AD000491781112CC0C8010E948E17EE24E3946F
:103AE000D0C0282F207F49F77C2DD98AC88A6F2D16
:103AF00089890E94C61B84E697E00E948E1786E0A3
:103B0000F50111928A95E9F70E94061CE12CB9C0D3
:103B10004913D5CFF110D3CFF8018583C8010E9496
:103B20008E1786E0F50111928A95E9F7AAC0FF2069
:103B300091F220916907822F82958F7090E0029711
:103B40000CF4AECF80916407909165079A838983C6
:103B50001B82DD82CC822E83CE0101969FCFE83C72
:103B6000F10508F04BC0EF2CFF2009F4B4CF561339
:103B700030C049132EC02091690720FD21C0822F3B
:103B800082958F70482F50E041155105C9F0F8011A
:103B900025834F30510541F08F5F982F9295907F8C
:103BA000822F8F70892B8583C8010E948E1786E033
:103BB000F801A4E6B7E001900D928A95E1F72AC0DA
:103BC00086E0F801A4E6B7E001900D928A95E1F74E
:103BD00058C04D875E87FF867C2DD98AC88A6F2D95
:103BE00089890E94491781115BCF809169078160A3
:103BF00080936907C8010E948E1743C07C2DD98A23
:103C0000C88A6F2D89890E94C61B86E0F501119232
:103C10008A95E9F70E94061C34C0FF2009F45BCFA7
:103C20004D875E87FF867C2DD98AC88A6F2D89894A
:103C30000E944917882309F44ECF32CF7C2DD98AB0
:103C4000C88A6F2D89890E948D20292F22952F7077
:103C5000223028F49F7039F0811105C00BC0243048
:103C600028F49F7049F4805E883020F0C8010E94DB
:103C70008E179E2CE92C05C0F8019581907F99F74D
:103C8000F9CF8E2D61960FB6F894DEBF0FBECDBF73
:103C9000DF91CF911F910F91FF90EF90DF90CF9028
:103CA000BF90AF909F9008951F93CF93DF93CDB7B0
:103CB000DEB72C970FB6F894DEBF0FBECDBF4F8393
:103CC000588769877A878B879C87CE0107960E94E1
:103CD000801C8823D1F09F8188852A853B85232BF2
:103CE00031F08F3F31F481E09F3F19F403C081E050
:103CF00001C080E080FD47C04F81588569857A8585
:103D00008B859C850E94D51B3EC086E0FE013796C0
:103D1000DE01119601900D928A95E1F7FF81E88509
:103D20006A857B856115710531F0EF3F31F481E0E3
:103D3000FF3F19F403C081E001C080E080FD23C093
:103D40002091330730E0C90101968770992740918F
:103D5000320750E084179507F1F1F983EA837D83F8
:103D60006C8396E0929FD001939FB00D1124AC5CC0
:103D7000B84FFE01319601900D929A95E1F780932C
:103D800033070E94E51B16E08091320790913307BC
:103D9000891771F1189FC00111248C5C984F0E9403
:103DA000801C882329F1E09132071E9FF001112425
:103DB000EC5CF84F408151816281738184819581EF
:103DC0000E94D51B8091320790E001968770992759
:103DD00080933207D9CF0E94451710923307109273
:103DE0003207E4E6F7E086E0DF011D928A95E9F705
:103DF0002C960FB6F894DEBF0FBECDBFDF91CF91EA
:103E00001F910895CF92DF92EF92FF921F93CF936D
:103E1000DF937C010E94230BE114F10409F464C0D8
:103E2000E7012196F7011491193709F43EC0B8F45F
:103E3000143740F4143008F052C08FEF810F8230F5
:103E4000F8F052C0143709F04FC0F2E0EF0EF11C49
:103E5000FE0184910E94BD21E7017E01E1CF13386C
:103E600028F4113868F4103801F13EC01338B9F065
:103E7000143F08F039C01F77812F90E0926031C065
:103E8000FE0185919491612F6170E701133018F460
:103E90002296992701C023960E946F1BDECFFE0158
:103EA00085919491E70123961CC0FE01C590D490A2
:103EB000E701239684E00E942517103841F461E061
:103EC00081E00E948317F0EACF1AF6E8DF0A61E08A
:103ED000C6010E94961B84E00E942C17BECF812F42
:103EE00090E00E948A1BB9CFDF91CF911F91FF9084
:103EF000EF90DF90CF9008956093B8077093B90763
:103F00008093BA079093BB070C94FC0308950F931A
:103F10001F930091290110912A0120912B013091CA
:103F20002C01602B712B822B932B609329017093B2
:103F30002A0180932B0190932C011F910F910C94D7
:103F400000040F931F930091290110912A012091E1
:103F50002B0130912C0160237123822393236093E2
:103F6000290170932A0180932B0190932C011F91BA
:103F70000F910C9400040F931F930091290110914D
:103F80002A0120912B0130912C0160277127822773
:103F900093276093290170932A0180932B019093BA
:103FA0002C011F910F910C94000460E070E0CB0194
:103FB0000C947C1F0F931F9341E050E060E070E091
:103FC0008A019B0104C0000F111F221F331F8A9515
:103FD000D2F7C901B8011F910F910C947C1F0F9368
:103FE0001F9341E050E060E070E004C0440F551FB3
:103FF000661F771F8A95D2F78091B8079091B9070D
:10400000A091BA07B091BB078A019B01082B192B1D
:104010002A2B3B2BC901B8011F910F910C947C1FD7
:104020000F931F9341E050E060E070E004C0440F44
:10403000551F661F771F8A95D2F74095509560955A
:1040400070958091B8079091B907A091BA07B09187
:10405000BB078A019B01082319232A233B23C9019B
:10406000B8011F910F910C947C1F0F931F9341E097
:1040700050E060E070E004C0440F551F661F771FDA
:104080008A95D2F78091B8079091B907A091BA07A5
:10409000B091BB078A019B01082719272A273B27D4
:1040A000C901B8011F910F910C947C1F0F931F93AE
:1040B0000091B8071091B9072091BA073091BB075A
:1040C000602B712B822B932B1F910F910C947C1FD3
:1040D0000F931F930091B8071091B9072091BA0769
:1040E0003091BB0760237123822393231F910F918B
:1040F0000C947C1F0F931F930091B8071091B90780
:104100002091BA073091BB07602771278227932738
:104110001F910F910C947C1F08958F929F92AF92E4
:10412000BF92DF92EF92FF920F931F93CF93DF9393
:1041300000D000D01F92CDB7DEB78A016623D1F13F
:104140008090B8079090B907A090BA07B090BB07CD
:104150008091290190912A01A0912B01B0912C010D
:10416000882A992AAA2ABB2A8FE1E82EF12CD501A8
:10417000C4010E2C04C0B695A795979587950A940F
:10418000D2F780FD06C081E0E81AF10880F7D12C53
:1041900007C0DE2CB8018E2D0E941322019799F3DF
:1041A0008DE0189FF0011124E659F84FE00FF11D42
:1041B000D08209C08DE0189FF0011124E659F84F14
:1041C000E40FF11DD08009831A8369817A818D2DD6
:1041D0000E9413220F900F900F900F900F90DF917D
:1041E000CF911F910F91FF90EF90DF90BF90AF9014
:1041F0009F908F9008959091280191799131F1F4D9
:10420000382F3695369536953F30A8F5E0912D013B
:10421000F0912E01282F277081E090E001C0880FD7
:104220002A95EAF7E30FF11D662319F09181892B96
:1042300003C08095918189238183089520912D0168
:1042400030912E01F90171964FEF9EE05291552366
:1042500031F0851305C061110EC0108201C0492FD5
:104260009150A0F7662339F0F901E40FF11D47FDE5
:10427000FA95828308950895E0912D01F0912E0121
:1042800080E1DF011D928A95E9F708958091D107B9
:1042900008959091D107892B8093D1070895809537
:1042A0009091D10789238093D10708951092D10767
:1042B00008959091D007892B8093D0070895809519
:1042C0009091D00789238093D00708951092D0074A
:1042D00008958093BC0708951092BC0708958091BB
:1042E0002D0190912E01FC0131969C01205F3F4FE2
:1042F00080E0919191118F5FE217F307D1F7089554
:10430000E0912D01F0912E018091D1078083E09101
:104310002D01F0912E0190818091D007892B80830F
:10432000E0912D01F0912E018091CF078095908131
:1043300089238083E0912D01F0912E018091CE0799
:1043400080959081892380838091BC07882361F0C8
:10435000E0912D01F0912E019081892B80830E94A4
:104360006F2181111092BC0780912D0190912E0137
:104370000C9489150C949A160895882341F0EFE95E
:10438000FFE03197F1F700C000008150F6CFA8950B
:10439000089582E084BD93E095BD9DE797BD80932D
:1043A0006E0008952FB7F8948091D3079091D407A9
:1043B000A091D507B091D6072FBF08959C014FB7A4
:1043C000F8948091D3079091D407A091D507B0912C
:1043D000D6074FBF821B930B089578941F920F92BC
:1043E0000FB60F9211248F939F93AF93BF93809139
:1043F000D3079091D407A091D507B091D607019625
:10440000A11DB11D8093D3079093D407A093D50726
:10441000B093D607BF91AF919F918F910F900FBE30
:104420000F901F901895CF93C82FCB010E941E01AB
:10443000803819F480E090E00CC0EC2FF0E0FE2F03
:10444000EE27E050F04AE80FF11DE80FF11D8591CD
:104450009491CF910895803F08F44AC0803F11F4B1
:104460009FEF03C0813F21F491E0909328083BC067
:10447000823F11F49FEF03C0833F21F491E09093BA
:10448000270831C0893F70F421E030E09CE0980FAC
:1044900001C0220F9A95EAF790912608292B2093C4
:1044A000260821C0893F11F491E003C08A3F21F41E
:1044B0009FEF9093290817C08B3F11F49FEF03C023
:1044C0008C3F21F491E090932A080DC021E030E068
:1044D00093E0980F01C0220F9A95EAF79091230874
:1044E000292B20932308895F843010F4109224082C
:1044F0000895803F08F463C0803F39F48091280814
:1045000087FF5DC0109228080895813F29F48091AB
:1045100028081816BCF30895823F39F480912708C3
:1045200087FF4DC0109227080895833F29F480919A
:1045300027081816BCF30895893F88F4845F21E0AA
:1045400030E0A90102C0440F551F8A95E2F7CA0165
:104550008095909126088923809326080895893FA5
:1045600039F480912908181654F5109229080895F5
:104570008A3F29F48091290887FF21C0F6CF8B3F1D
:1045800039F480912A0887FF1AC010922A080895EA
:104590008C3F29F480912A081816BCF308958D5F8A
:1045A00021E030E0A90102C0440F551F8A95E2F7CF
:1045B000CA01809590912308892380932308089548
:1045C00086E298E00E9494150E94D2219093D90728
:1045D0008093D80708950F931F93CF93DF93809113
:1045E000DC078823D9F18091DA079091DB070E94DC
:1045F000DE212091300130E02817390778F50E943C
:1046000063258F70825E809330010DED17E0C0E06E
:10461000D0E090E0F80181918F01882369F0CC23EC
:1046200019F08C2F9D2F02C084EF90E560912F012F
:1046300070E00E946F1B91E02196C634D10551F7BE
:1046400020912F0181E0822780932F019093DC0736
:104650000E94D2219093DB078093DA078091D807DC
:104660009091D9070E94DE21AC01909125089230EB
:1046700019F028E230E002C025E030E0421753078D
:1046800008F460C0D0912908C0912A082091270819
:1046900080912808822B8D2B8C2B19F410922508E1
:1046A00051C0923020F49F5F909325084BC08091B9
:1046B00024088F5F809324088F7021F010922908BE
:1046C00010922A080E94E022D0932908C0932A0859
:1046D0008091D7078F5F8093D7078D3098F18091B5
:1046E000280187FD02C080E001C085E08093D707E4
:1046F00090912308292F220F220F290FE6E2F8E0DC
:104700003CEE44E181818823C1F0992349F01816D9
:1047100014F08FEF01C081E0829F802D11240AC028
:1047200018162CF48F5F85312CF0418306C0815020
:104730008C3E14F0818301C03183319688E0EA32E7
:10474000F80701F7DF91CF911F910F910895E6E2ED
:10475000F8E085E0DF011D928A95E9F710922308C1
:10476000089580E00895CF939091CD07911135C0C1
:10477000C82F80912B08882319F0813051F02AC06E
:10478000E0912D01F0912E0180818252823030F52E
:1047900008C0E0912D01F0912E018081825282307B
:1047A000A0F48C2F0E94440E81110AC0C13151F433
:1047B0000E94BC219091280180E1892780932801E3
:1047C00091E001C090E0917009C08C2F0E94B1234C
:1047D00091E004C010922B0801C090E0892FCF9186
:1047E0000895E1E8F0E080818860808380818160C5
:1047F00080838FB7F8949AE79093890092E1909321
:1048000088008FBF0895EFE6F0E0808182608083AA
:1048100008956DEE7EEF80E090E00E94652860E0F4
:1048200082E090E00E94472860E083E090E00E94F0
:10483000472860E084E090E00E94472860E085E03F
:1048400090E00E94472860E086E090E00C944728C2
:1048500080E090E00E94412821E08D3E9E4F09F0CB
:1048600020E0822F089586E090E00C943328682F92
:1048700086E090E00C9447280E942824811102C011
:104880000E9409240E94332480937208811102C07F
:1048900081E005C080FF02C0869501C080E00C94D5
:1048A000370480917208982F9695292F30E08170F7
:1048B000283031054CF49F5F990F892B81608093DC
:1048C00072080E94372403C080618093720880912F
:1048D000720886950C9437048091720880FF1EC080
:1048E000982F9695292F30E02230310594F0915879
:1048F000990F8170892B809372088E7F91E009F463
:1049000090E08091720890FB80F9809372080E9479
:1049100037248091720886950C943704089580910D
:104920007208982F9095917090FB80F9809372088F
:10493000992339F0982F9E7F21F4817082608093B3
:104940007208809172080E9437248091720880FF5B
:1049500002C0869501C080E00C94370490917208E3
:10496000892F86958F5F8F779170893028F4880F13
:10497000892B8093720802C090937208809172080C
:104980008E7F91E009F490E08091720890FB80F9AD
:10499000809372080E9437248091720886950C9447
:1049A0003704880F909172089170892B8093720858
:1049B0008E7F91E009F490E08091720890FB80F97D
:1049C000809372080E9437248091720886950C9417
:1049D0003704AA1BBB1B51E107C0AA1FBB1FA617A8
:1049E000B70710F0A61BB70B881F991F5A95A9F798
:1049F00080959095BC01CD01089597FB072E16F484
:104A0000009407D077FD09D00E94E92407FC05D067
:104A10003EF4909581959F4F0895709561957F4FD5
:104A20000895EE0FFF1F0590F491E02D09948F92E9
:104A30009F92AF92BF92CF92DF92EF92FF92CF936D
:104A4000DF93EC01688179818A819B816115710511
:104A50008105910521F464E279ED8BE597E02DE184
:104A600033EF41E050E00E947B2849015A019B014D
:104A7000AC01A7EAB1E40E949A286B017C01ACEE7C
:104A8000B4EFA50194010E94A828DC01CB018C0D94
:104A90009D1DAE1DBF1DB7FF03C00197A109B04802
:104AA00088839983AA83BB839F77DF91CF91FF90FF
:104AB000EF90DF90CF90BF90AF909F908F90089530
:104AC0000E941725089580E091E00E94172508951F
:104AD000A0E0B0E08093000190930101A093020157
:104AE000B09303010895FB01DC0104C08D91019096
:104AF000801921F441505040C8F7881B990B089544
:104B0000AEE0B0E0E6E8F5E20C94BB280D891E8922
:104B100086E08C831A8309838FEF9FE79E838D83C2
:104B2000AE01475E5F4F6F89788DCE0101960E947E
:104B3000A225EF81F885E00FF11F10822E96E4E0A8
:104B40000C94D728ABE0B0E0E8EAF5E20C94AD288D
:104B50006C017B018A01FC0117821682838181FF2F
:104B6000CCC1CE0101963C01F6019381F70193FD82
:104B7000859193FF81917F01882309F4BAC1853221
:104B800039F493FD859193FF81917F01853229F45A
:104B9000B60190E00E949927E7CF912C212C312C6F
:104BA000FFE1F315D8F08B3279F038F4803279F0E8
:104BB0008332A1F4232D20611DC08D3261F080333A
:104BC00069F4232D216016C0832D8260382EE32DD9
:104BD000E4603E2E2AC0F32DF8601DC037FC2DC0C6
:104BE00020ED280F2A3040F08E32B9F436FC81C116
:104BF000232D2064322E19C036FE06C08AE0989E0E
:104C0000200D1124922E11C0EAE02E9E200D1124B9
:104C1000222EF32DF0623F2E08C08C3621F4832D16
:104C20008068382E02C0883641F4F70193FD8591E3
:104C300093FF81917F018111B3CF982F9F7D955470
:104C4000933028F40C5F1F4F9FE399830DC0833688
:104C500031F0833771F0833509F059C021C0F80174
:104C6000808189830E5F1F4F88248394912C530188
:104C700013C02801F2E04F0E511CF801A080B18052
:104C800036FE03C0692D70E002C06FEF7FEFC501F3
:104C90000E948E274C018201F32DFF773F2E16C014
:104CA000280122E0420E511CF801A080B18036FE9E
:104CB00003C0692D70E002C06FEF7FEFC5010E9455
:104CC00083274C01F32DF0683F2E820133FC1BC07B
:104CD000822D90E088169906B0F4B60180E290E04B
:104CE0000E9499272A94F4CFF50137FC859137FE6D
:104CF00081915F01B60190E00E94992721102A94CA
:104D000021E0821A91088114910471F7E8C0843679
:104D100011F0893641F5F80137FE07C060817181D5
:104D2000828193810C5F1F4F08C060817181072EC3
:104D3000000C880B990B0E5F1F4FF32DFF763F2E53
:104D400097FF09C090958095709561957F4F8F4F23
:104D50009F4FF0683F2E2AE030E0A3010E94D52744
:104D6000882E861845C0853731F4232D2F7EB22E2C
:104D70002AE030E025C0932D997FB92E8F36C1F0FF
:104D800018F4883579F0B5C0803719F0883721F0EC
:104D9000B0C0E92FE061BE2EB4FE0DC0FB2DF46063
:104DA000BF2E09C034FE0AC0292F2660B22E06C0CD
:104DB00028E030E005C020E130E002C020E132E030
:104DC000F801B7FE07C060817181828193810C5F19
:104DD0001F4F06C06081718180E090E00E5F1F4F21
:104DE000A3010E94D527882E8618FB2DFF773F2E22
:104DF00036FE0DC0232D2E7FA22E891458F434FECA
:104E00000BC032FC09C0832D8E7EA82E05C0B82CA5
:104E1000A32C03C0B82C01C0B92CA4FE0FC0FE0106
:104E2000E80DF11D8081803321F49A2D997EA92E01
:104E300009C0A2FE06C0B394B39404C08A2D86783C
:104E400009F0B394A3FC11C0A0FE06C0B21488F40C
:104E5000280C922C9B180EC0B21460F4B60180E2AC
:104E600090E00E949927B394F7CFB21418F42B184E
:104E700002C0982C212CA4FE10C0B60180E390E063
:104E80000E949927A2FE17C0A1FC03C088E790E00A
:104E900002C088E590E0B6010CC08A2D867859F0F2
:104EA000A1FE02C08BE201C080E2A7FC8DE2B60148
:104EB00090E00E949927891438F4B60180E390E0CD
:104EC0000E9499279A94F7CF8A94F301E80DF11D77
:104ED0008081B60190E00E9499278110F5CF2220B1
:104EE00009F442CEB60180E290E00E9499272A940C
:104EF000F6CFF6018681978102C08FEF9FEF2B9648
:104F0000E2E10C94C928FC01059061507040011049
:104F1000D8F7809590958E0F9F1F0895FC016150E2
:104F2000704001900110D8F7809590958E0F9F1FCB
:104F300008950F931F93CF93DF93FB01238121FDEE
:104F400003C08FEF9FEF2CC022FF16C04681578110
:104F5000248135814217530744F4A081B1819D011A
:104F60002F5F3F4F318320838C93268137812F5FC2
:104F70003F4F3783268314C08B01EC01FB01008473
:104F8000F185E02D0995892BE1F6D80116968D91D2
:104F90009C911797019617969C938E931697CE0126
:104FA000DF91CF911F910F910895FA01AA27283020
:104FB00051F1203181F1E8946F936E7F6E5F7F4FE6
:104FC0008F4F9F4FAF4FB1E03ED0B4E03CD0670F62
:104FD000781F891F9A1FA11D680F791F8A1F911DB5
:104FE000A11D6A0F711D811D911DA11D20D009F405
:104FF00068943F912AE0269F11243019305D319347
:10500000DEF6CF010895462F4770405D4193B3E02F
:105010000FD0C9F7F6CF462F4F70405D4A3318F0D6
:10502000495D31FD4052419302D0A9F7EACFB4E087
:10503000A6959795879577956795BA95C9F700973F
:105040006105710508959B01AC010A2E06945795E0
:10505000479537952795BA95C9F7620F731F841F37
:10506000951FA01D0895F999FECF92BD81BDF89AB4
:10507000992780B50895A6E1B0E044E050E00C9493
:105080006D28A8E1B0E042E050E00C946D28262F96
:10509000F999FECF92BD81BDF89A019700B402162E
:1050A00039F01FBA20BD0FB6F894FA9AF99A0FBEDC
:1050B00008950396272F0E9448280E944728252FED
:1050C0000E944828242F0C9448280196272F0E94DC
:1050D00048280C944728DC01CB01FC01F999FECF4C
:1050E00006C0F2BDE1BDF89A319600B40D92415070
:1050F0005040B8F70895052E97FB1EF400940E94C7
:10510000922857FD07D00E94E42807FC03D04EF4F4
:105110000C94922850954095309521953F4F4F4FD4
:105120005F4F089590958095709561957F4F8F4F53
:105130009F4F08950E940629A59F900DB49F900D42
:10514000A49F800D911D11240895B7FF0C949A28F7
:105150000E949A28821B930B08952F923F924F92A0
:105160005F926F927F928F929F92AF92BF92CF92F7
:10517000DF92EF92FF920F931F93CF93DF93CDB700
:10518000DEB7CA1BDB0B0FB6F894DEBF0FBECDBF78
:1051900009942A88398848885F846E847D848C8449
:1051A0009B84AA84B984C884DF80EE80FD800C8152
:1051B0001B81AA81B981CE0FD11D0FB6F894DEBF35
:1051C0000FBECDBFED010895A1E21A2EAA1BBB1B95
:1051D000FD010DC0AA1FBB1FEE1FFF1FA217B307C3
:1051E000E407F50720F0A21BB30BE40BF50B661FD9
:1051F000771F881F991F1A9469F76095709580959D
:1052000090959B01AC01BD01CF010895A29FB00113
:10521000B39FC001A39F700D811D1124911DB29FEA
:0E522000700D811D1124911D0895F894FFCF8B
:10522E0001000000010107FC018046FFFF260A2C49
:10523E000BB50A290A810A010C730E0104019B0F9A
:10524E001E100110D90FB20F0101000000BD0701A1
:10525E001E1813120C15BC19C01A032003100308D4
:10526E00030403020301098009400C0406800901AE
:10527E0003800F800F400F200F100F020F010C4004
:10528E0041542B424C45484944434F4E54524F4C87
:10529E004B45593D25640A0041542B424C45484923
:1052AE00444D4F5553454D4F56453D25642C256471
:1052BE002C25642C25640A00425554544F4E3D252E
:1052CE00640A0041542B424C454B4559424F4152C2
:1052DE0044434F44453D0030302D30300A002530D8
:1052EE0032582D30302D253032582D253032582D54
:1052FE00253032582D253032582D253032582D2557
:10530E003032580A0041542B464143544F525952A1
:10531E00455345540A0041542B424C454849444597
:10532E004E3D300A0041542B424C45484944454EAF
:10533E003D310A0041542B4741504445564E414D94
:10534E00453D004A75737420424C450041542B472D
:10535E004150474554434F4E4E0A0041542B47414E
:10536E005044454C424F4E44530A0041540A0041AA
:10537E0054453D300A0041542B474150535441523D
:10538E00544144560A0041542B474154544144441D
:10539E00534552564943453D555549443D363135A1
:1053AE00390A0041542B4741545441444443484127
:1053BE00523D555549443D3078324131392C505289
:1053CE004F504552544945533D31362C4D494E5F51
:1053DE004C454E3D312C56414C55453D390A004108
:1053EE00542B42415544524154453D3736383030A6
:1053FE000A0041542B48574144433D360A0041545C
:10540E002B47415454434841523D312C25640A00E8
:10541E0041542B424C454745545045455241444416
:10542E00520A0041542B474150444953434F4E4E6C
:10543E004543540A0041542B47415053455441446F
:10544E0056444154413D30322D30312D30360A0014
:10545E0041542B47415053455441445644415441C5
:10546E003D30322D30312D30340A0041545A0A006D
:10547E00BDB6B3ADAAA7A4A19D404D3639F504A87B
:10548E000472043904CC03E503FE031704040A3244
:10549E00B603AA03760332034A0075007300740044
:1054AE0020004B006500790062006F006100720001
:1054BE006400200028005500530042005F004400A5
:1054CE004D0043004800290000000A035900440023
:1054DE004B00420000000403090409026D000401A0
:1054EE0000A0FA09040000010301010009211101C5
:1054FE000001224000070581030800010904010094
:10550E000103010200092111010001224D000705CE
:10551E0082030800010904020001030000000921B2
:10552E00110100012236000705830308000A090451
:10553E0003000103000000092111010001223900BE
:10554E00070584031000011201100100000008ED90
:10555E00FE681901000102000105010906A10105FD
:10556E000719E029E7150025019508750181020547
:10557E00081901290595057501910295017503918B
:10558E000105071900297715002501957875018108
:10559E0002C005010980A101850216010026B7008F
:1055AE001A01002AB700751095018100C0050C097B
:1055BE0001A1018503160100269C021A01002A9CF6
:1055CE0002751095018100C005010902A1010901B2
:1055DE00A10005091901290515002501950575017B
:1055EE00810295017503810105010930093115818B
:1055FE00257F95027508810609381581257F95014D
:10560E0075088106050C0A38021581257F950175EE
:10561E00088106C0C005010906A101050719E02988
:10562E00E715002501950875018102950175088120
:10563E000105081901290595057501910295017558
:10564E000391010507190029FF150026FF00950695
:06565E0075088100C00088
:106000004042EA40E940E240040005000600070083
:10601000080009000A000B000C000D000E000F0024
:1060200010001100120013001400150016001700D4
:10603000180019001A001B001C001D001E001F0084
:106040002000210022002300240025002600270034
:10605000280000F52A002BAB04F02D002E002F00A5
:1060600030002A003200330034003500360037009B
:1060700038002BAA3A003B003C003D003E003F00A8
:1060800040004100420043004400450046004700F4
:10609000480049004A004B004C004DA34E004F0001
:1060A0005000510052005300540055005600570054
:1060B000580059005A005B005C005D005E005F0004
:1060C0006000610062006300640065008500670095
:1060D000F450F550F650F750F850F950FA506F0060
:1060E0007000710072007300890087008A008B00C5
:1060F000E000E100E200E000E600E500E700F1A1D9
:106100000F00010001000100010001000100010079
:106110000BFB0AF40AF60AF8010001004A004B00E2
:10612000010002F00100010001000AF001000AF282
:106130006F4001000100010070400BFC3A003B0081
:106140003C003D003E003F00400041004200430053
:106150000100350001000BF501004400450001007D
:106160000100010001000100010029004D004E0066
:106170000100010001000100010001000100010017
:106180000100010001000100010001000100010007
:1061900001000100B640B540010001000100E940E6
:1061A000E240EA40CD400100010001000100010091
:1061B00001000100010001000100010001000100D7
:1061C00001000100010001000100010001000100C7
:1061D00001000100010001000100010001000100B7
:1061E000010001000100010049000100010001005F
:1061F0000100010001000100010001000100010097
:106200001100FF00FF0001004C0002F001004D00F2
:106210004A003E00010001000100010001000100F0
:10622000010001000100010046003B004E0001009A
:10623000010019084B0001000100010001000100EC
:106240000100010001000100010001000100010046
:10625000010001006400390001000100010001009B
:106260000100010001000100010001000100010026
:106270000100010001000100010001000100010016
:106280000100010001000100010001000100010006
:106290000100010001000100010001000100E940CE
:1062A000E240EA400100010001000100010001009C
:1062B00001000100010001000100010001000100D6
:1062C00001000100010001000100010001000100C6
:1062D00001000100010001000100010001000100B6
:1062E00001000100010001000100010001000100A6
:1062F00001000100010001000100010003F00100A4
:106300001102FF00FF000100F2500100FB50F350AA
:10631000F550FA50010001000100010001000100E8
:106320000100010001000100F450F950F15001009A
:106330000100FC50F050F8500100F750010001003E
:106340000100010001000100010001000100010045
:106350000100010001000100010001000100010035
:106360000100010001000100010001000100010025
:106370000100010001000100010001000100010015
:106700000000010001000100010001000100010082
:106710000100010001000100010001000100010071
:106720000100010001000100010001000100010061
:106730000100010001000100010001000100010051
:106740000100010001000100010001000100010041
:106750000100010001000100010001000100010031
:106760000100010001000100010001000100010021
:106770000100010001000100010001000100010011
:106780000100010001000100010001000100010001
:1067900001000100010001000100010001000100F1
:1067A00001000100010001000100010001000100E1
:1067B00001000100010001000100010001000100D1
:1067C00001000100010001000100010001000100C1
:1067D00001000100010001000100010001000100B1
:1067E00001000100010001000100010001000100A1
:1067F0000100010001000100010001000100010091
