:100000000C9404010C9421010C9421010C94210105
:100010000C9421010C9421010C9421010C942101D8
:100020000C9421010C9421010C9430140C940315B0
:100030000C94AD220C9421010C9421010C9421010B
:100040000C9421010C9410050C9421010C942101B5
:100050000C9421010C9476220C9421010C94210122
:100060000C9421010C94650A0C9421010C9421013B
:100070000C9421010C9421010C9421010C94210178
:100080000C9421010C9421010C9421010C94210168
:100090000C9421010C9421010C9421010C94210158
:1000A0000C9421010C9421010C94210145074F0768
:1000B0004F0758075807770777078B078B07A8095B
:1000C000A809A809A809AB09AB09AB09AE09AE0993
:1000D000AE09AE09AE09AE09B109B109B109B1095C
:1000E000B109B109B409B409B409E50FE70FE90F83
:1000F000EB0FED0FEF0F1110111011101110111067
:100100000C100E106B158E1549168E154916D31549
:10011000F615491618162B168A188A18CB18CB18FC
:1001200026197819F91BF91B9819F91B951A951AB4
:10013000601B761BF91BE51B29081A141517808014
:10014000131C182A0C12318039071604090A808002
:1001500033800B280D0E0F8079061B1D190580803A
:100160003738117D10365280787A807B80658080A8
:1001700051802C4F807E5080FFEF800000000000F7
:100180000101010202030405050607090A0B0C0E12
:100190000F1112141517191B1D1F212325282A2C96
:1001A0002F313436393B3E414346494C4F52555826
:1001B0005A5D6164676A6D707376797C7F83868926
:1001C0008C8F9295989B9EA2A5A7AAADB0B3B6B905
:1001D000BCBEC1C4C6C9CBCED0D3D5D7DADCDEE035
:1001E000E2E4E6E8EAEBEDEEF0F1F3F4F5F6F8F927
:1001F000FAFAFBFCFDFDFEFEFEFFFFFF6262002837
:10020000008315087432000011241FBECFEFDAE01E
:10021000DEBFCDBF14E0A0E0B1E0E2E3F3E502C051
:1002200005900D92A23FB107D9F728E0A2EFB4E004
:1002300001C01D92A831B207E1F70E9412100C9480
:1002400097290C94000020E1929FF0011124E80FFF
:10025000F11DE85CFE4F84910895EF92FF921F9389
:10026000CF93DF937C01D62FC42F0E94DA21182F61
:10027000F7019281D13029F018F1D43009F45AC035
:1002800064C0992309F453C08C2F84709C2F9870FC
:10029000990F990F2C2F2270922B912321F010FD92
:1002A00002C085E306C0982F912311F08DE301C0B1
:1002B00089E28093F4048091F4040E94741743C08F
:1002C000C230D9F048F4CC2389F0C13031F584E351
:1002D0008093F20488E21FC0C430C9F098F0C530A2
:1002E000E1F481E38093F2048AE215C089E280930D
:1002F000F30485E38093F20410C088E38093F20452
:1003000087E309C088E38093F20482E504C083E3B5
:100310008093F2048FE08093F304992341F015FF5A
:1003200003C08091F204C5CF8091F304C2CF8091C5
:10033000F40407C0992321F0827239F48CE2BDCF16
:100340008CE20E94A1170E941422F7018281882367
:1003500009F454C0D330B9F118F4D23079F04EC05A
:10036000DA3009F443C0DB3009F048C08C2FDF914C
:10037000CF911F91FF90EF900C94DC0F0E94ED172E
:10038000113039F48BE29CEF9093010880930008C0
:10039000FFCF1C3039F46AEA7BEB8EEF93E00E94CA
:1003A0004A29FFCF83E30E94CD1783E30E94D4172D
:1003B0008CEC0E94CD178CECDF91CF911F91FF90B8
:1003C000EF900C94D4179091420581E08927809397
:1003D00042059091620788E8892780936207DF9140
:1003E000CF911F91FF90EF900C9457048C2FDF91C9
:1003F000CF911F91FF90EF900C941207DF91CF9156
:100400001F91FF90EF900895611107C0FC01828158
:10041000882319F080E09FE5089580E090E008953A
:1004200023982B9A8DE08A95F1F700000895E5E670
:10043000FEE7E491EC3429F41092010110921701C7
:10044000089587988F9A6A98729A81E00E9446224E
:10045000629B109217018EEF93E00E9426298A3A40
:100460009B4BE9F46CEC7DED8EEF93E00E944A2902
:1004700080911701882399F0879A8F98559A5D98F3
:100480006E9A769A229A2A9A8FEF91E12AE7815002
:1004900090402040E1F700C000000C949C22089599
:1004A0000E94C00684B18A6084B985B18A6085B92A
:1004B0008198899A0895239A811109C088E22B9A1C
:1004C000299A000029988150D1F72B9801C02B9AC6
:1004D000299A000029980C9410028F929F92AF9253
:1004E000BF92CF92DF92EF92FF920F931F93CF9321
:1004F000DF93CDB7DEB727970FB6F894DEBF0FBEF8
:10050000CDBF0E945B22209135053091360528171A
:10051000390709F497C0909336058093350580E03C
:1005200090E00E945B0288E3E82E85E0F82E00E070
:1005300095EF892E94E0992E2CE0A22EB12C0093F9
:100540003705640110E0412F4695212F217010FFDF
:1005500005C0485F1B996CC020E86BC0799B66C0E2
:10056000F60180818695822B81936F019FEF980F12
:100570009E3FC8F5F7016081718121E030E0042ED3
:1005800002C0220F331F0A94E2F7909100018917ED
:1005900020F0C901862B972B08C0853040F4C90193
:1005A0008095909586239723F70191838083F701A7
:1005B0008081918186179707B1F049830A832823A8
:1005C000392381E0232B09F480E08B830E945B2296
:1005D00081609D838C83CE0101960E944717CE01D6
:1005E00001960E94C4041F5F103109F0ACCFF0E106
:1005F0008F0E911CF701819191917F01892B89F0D8
:100600008091C90780FD09C08091170880FD05C051
:10061000B0929906A092980604C010929906109282
:1006200098060F5F043009F08ACF0CC020E898CFFD
:1006300020E081E090E02F834E830E945B022F81B7
:100640004E818ECF81E027960FB6F894DEBF0FBEA5
:10065000CDBFDF91CF911F910F91FF90EF90DF9071
:10066000CF90BF90AF909F908F900895882329F0EE
:100670008FEB8093000180E004C08BEF809300013A
:1006800086E060E00C943218CF93DF9380911101E3
:10069000239A2B988A3069F5C0E0D0E0299A0000AF
:1006A00029982B9ACC3031F40E941002799902C01B
:1006B0001B9BD2E0CF5FCD3089F7D23011F080E0C4
:1006C00032C0239A90E080E0923021F4833011F41C
:1006D0002B9A01C02B98299A000029988F5F8830A7
:1006E00099F79F5F943079F70E941002799BE7CFCA
:1006F00014C080E2299A000029988150D9F70E94FD
:10070000100279990DC080911101843021F481E0AB
:100710008093150108C081E006C01B99F8CFCFCFA8
:100720001B99CDCFF0CFDF91CF9108956E9A769837
:10073000809A8898229A2A98E0E0F2E6E491A4E46C
:10074000B5E0EC93E0E0F3E6E4911196EC931197B9
:10075000E0E0F4E6E4911296EC930895811102C072
:10076000769A07C0813011F4889A03C0823009F468
:100770002A9A21E030E0A90102C0440F551F8A9552
:10078000E2F7CA0190914305892B809343050895B0
:10079000811102C0769807C0813011F4889803C097
:1007A000823009F42A9821E030E0A90102C0440F08
:1007B000551F8A95E2F7CA018095909143058923D8
:1007C000809343050895EF92FF920F931F93CF9369
:1007D000DF93D82F04E415E0C0E0E62EF12CDD23F2
:1007E00031F0F80190819D1B983088F401C09C2F56
:1007F000970102C0359527959A95E2F720FF04C02E
:100800008C2F0E94AE0303C08C2F0E94C803CF5FC1
:100810000F5F1F4FC33019F7DF91CF911F910F91D9
:10082000FF90EF9008956091430580E00C94E303FE
:10083000CF92DF92EF92FF920F931F93CF93DF93AC
:100840001F92CDB7DEB704E415E0C12CD12CEE2405
:10085000E394F12CF80191918F0198130FC09091BE
:10086000430597010C2C01C0220F0A94EAF72927AF
:100870002093430589830E9413048981FFEFCF1AD7
:10088000DF0A43E0C416D10429F70F90DF91CF911E
:100890001F910F91FF90EF90DF90CF900895669594
:1008A00081E00C94E303669589E00C94E303609186
:1008B000420585E10C94E303682F80E10E94E30385
:1008C0000C945704F8943E9AE0E9F0E08081816846
:1008D0008083E1E9F0E080818360808378940895EB
:1008E000F8943E98E0E9F0E080818E778083E1E93A
:1008F000F0E080818C7F80831092990010929800A4
:1009000078940895CF9390914105992341F0809177
:1009100017088E7F809317081092C80730C0C82F21
:100920000E945625C730A8F4C430E8F4C13038F12D
:100930001092C80710924B050E946204EC2FF0E061
:10094000E858FE4FE491F0E0F0939900E0939800AE
:1009500019C0C930A0F40E9462041092C80781E057
:1009600080934B050FC081E08093C80710924B0520
:100970000E94620487E08C1B80934C0503C0CF91DA
:100980000C947004CF910895FC019091170890FF8A
:1009900018C082818823A9F0892F8E7F8E3039F488
:1009A00080914A058A508A3050F48AE008C080312C
:1009B00041F480914A05865F863708F086E7809388
:1009C0004A05089580914B05882349F18091490596
:1009D0008F5F863018F48093490508951092490579
:1009E000E0914A05F0E0E458FE4FE491F0E0F09326
:1009F0009900E0939800809117088E7F8E3031F433
:100A000080914A058E3758F48F5F07C0803139F4E2
:100A100080914A05823018F0815080934A050895EC
:100A20001F920F920FB60F9211242F933F934F9363
:100A30005F936F937F938F939F93AF93BF93EF9346
:100A4000FF938091C807882361F1809147059091B9
:100A500048050196909348058093470520914C05E1
:100A600030E028173907E8F410924805109247053E
:100A7000E0914A05F0E0E458FE4FE491F0E0F09395
:100A80009900E09398009091020180914A05890FA6
:100A900080934A058F3711F0811103C0919590938F
:100AA00002010E94E204FF91EF91BF91AF919F91EB
:100AB0008F917F916F915F914F913F912F910F9007
:100AC0000FBE0F901F9018952BB1362F3095232312
:100AD0003BB1632B3FB7F894FC0189E18150E1F011
:100AE000919148E06BB997FF2BB9990F000000C0B6
:100AF0002BB9000000C000C000C000C000C000C092
:100B000000C000C000C000C000C000C000C000C0E5
:100B100000C04A9539F7E2CF3FBF0895579A60E881
:100B200070E00C946405EF92FF920F931F93CF93A4
:100B3000DF9300D000D01F92CDB7DEB7F90170E08F
:100B4000869F9001879F300D1124232F3327042F78
:100B500010E0209FD001219FB00D309FB00D1124D7
:100B600020E031E07901E61AF70AE09E9001E19E6B
:100B7000300DF09E300D11243C833983832F8B0F71
:100B80008D838A834B1B4B83892F90E063E070E059
:100B90000E943C26DE01A80FB91F12963C91DE018F
:100BA000A80FB91F11962C91DE01A80FB91F13963B
:100BB0008C918183308322830F900F900F900F9040
:100BC0000F90DF91CF911F910F91FF90EF900895BB
:100BD0008AE090E00C942029AB01BC018AE090E00F
:100BE0000C943E2961E170EA8FEF9FEF0C94EC05C5
:100BF00088E1E1EDF7E0DF011D928A95E9F70895BC
:100C0000CF93DF93E1EDF7E0A3EDB7E0ED018A913B
:100C100023E0829FC001112495958795959587952E
:100C20008883808123E0829FC00111249595879558
:100C30009595879580838C9123E0829FC001112434
:100C400095958795959587958C933396139687E020
:100C5000E93EF807D9F681ED97E0DF91CF910C944A
:100C60008E052091C90720FF15C029EE37E00E94AC
:100C70009305E1EDF7E08091E9079091EA07A091F3
:100C8000EB0781939193A19387E0E93EF80799F7E9
:100C90000C94000608950F931F93CF93DF93209138
:100CA000C90720FF2FC0142F062FC92FD82F2E734E
:100CB000223011F40E9431069D2F9295990F990FC1
:100CC000907C8091C9078F73892B8093C907C29547
:100CD000CC0FCC0FC07CD695D695CD2BC093CA0730
:100CE0000093CB071093CC076091C9077091CA0796
:100CF0008091CB079091CC07DF91CF911F910F91FD
:100D00000C94EC05DF91CF911F910F910895909174
:100D1000C90790FF34C0917C811102C09E6207C058
:100D2000883110F0926003C08F71880F982B9093D8
:100D3000C9076091C9077091CA078091CB0790914C
:100D4000CC070E94EC058091C90786958F7109F048
:100D50005E988091C907829586958695837090915B
:100D6000CA07292F220F220F4091CC076091CB0791
:100D7000822B92959695969593700C944B060895B8
:100D80000E947B25811104C00E945C250E94F2050F
:100D90000E94E8056093C9077093CA078093CB0748
:100DA0009093CC076E736E3361F40E94F2050E943B
:100DB000E8056093C9077093CA078093CB079093A7
:100DC000CC07569A8091C90780FF04C086958F7121
:100DD0000C9487060E9400065E9A08958091C907C8
:100DE000982F909590FB80F98093C9076091C9076F
:100DF0007091CA078091CB079091CC070E94EC05B7
:100E00008091C90780FF04C086958F710C94870676
:100E10000E94F8050E94000680910D08843009F0B8
:100E20005E9A0895CF92DF92EF92FF920F931F93F5
:100E3000CF93DF93C82ED091C907D295D695D6957A
:100E4000D370D090CA078D2D880F880FD82BD294DD
:100E5000D694D69493E0D922E090CB074091CC076A
:100E6000042FC0FE02C0CFEF01C0C1E00E94DA2112
:100E700081FDC1954C2D50E04930510508F05EC010
:100E8000FA01EA5AFF4F0C946426DF91CF911F912B
:100E90000F91FF90EF90DF90CF900C94EE06909121
:100EA000C9079695892F8F718C0F0E94870646C0BF
:100EB0002091C90722952695269523703091CA075F
:100EC000432F440F440F842F822B932F9295969596
:100ED000969593709D5F24E1C202800D911D1124AF
:100EE00060E073E00E945026D82FD92E2AC080914E
:100EF000CB0791E1C90270011124E80EF11C2FEF1C
:100F0000E216F10409F01CF4F7FC29C01AC0EE2423
:100F1000EA94F12C16C08091CC0791E1C902A0019E
:100F200011248A01080F111D0F3F110509F01CF44F
:100F300017FD18C006C00FEF10E003C022E02C150B
:100F4000A0F4402F6E2D8D2F9D2DDF91CF911F91FD
:100F50000F91FF90EF90DF90CF900C944B06E12C17
:100F6000F12CEFCF00E010E0ECCFDF91CF911F919B
:100F70000F91FF90EF90DF90CF90089520E030E048
:100F8000F901EF52F84F8183608342832D5F3F4F19
:100F900028313105A9F70C940006FC019091160840
:100FA0008081803469F581818B3B21F4CF010396E8
:100FB0000C946B0C933019F482810C948706943056
:100FC00021F4438162810C94BE079530C9F48830C6
:100FD00068F4A82FB0E084819381228111962C932C
:100FE00011979C9312968C930C9400068F3F41F4BA
:100FF000838190E0982F88272281822B0C94231CD8
:101000000895CF93C82FE0915A05F0E0E458FE4FC1
:1010100044918091C90782958695869583709091B9
:10102000CA07292F220F220F6091CB07822B92959E
:101030009695969593700E94310630910601209105
:101040005A05C39F200D112420935A052C1738F000
:101050008C2F90E0820F911D8F3791051CF03195F8
:1010600030930601CF910895CF93C82FE9ECF7E0B4
:101070004381628180915805909159050E94310603
:101080002091580530915905C90143E0C49F800D56
:10109000911D112460E073E00E943C269093590555
:1010A00080935805CF910895AF92BF92CF92DF926F
:1010B000EF92FF920F931F93CF93DF93082F182F78
:1010C000169551EDC52E57E0D52EE12CF12CA12C13
:1010D00063E0B62E2091560530915705C701820F67
:1010E000931FC0E0D3E0B5010E943C2696014091D9
:1010F000CC076091CB070E94930580E3E80EF11CBA
:1011000083E0C80ED11C80E8E81681E0F80611F7EC
:101110000E9400062091560530915705412F50E05E
:1011200000FF09C0CA0144E0880F991F4A95E1F702
:10113000820F931F09C0C9019D5F24E0440F551F12
:101140002A95E1F7841B950BBE010E943C269093E3
:10115000570580935605DF91CF911F910F91FF9016
:10116000EF90DF90CF90BF90AF900895CF92DF9235
:10117000EF92FF920F931F93CF93DF9390915505BA
:101180009F5F282F2695291758F090935505DF91DA
:10119000CF911F910F91FF90EF90DF90CF90089526
:1011A000C82F109255050E94F805C0FF02C01FEF1E
:1011B00001C011E054E0D52E00E068E0E62EF12CED
:1011C000C0E0D3E0C09005011003C00111248C0DD4
:1011D000911DC7FC9A950896B7010E9450269C0164
:1011E000220F331F820F931F9C012F52384F4091C3
:1011F000C90742954695469543705091CA07652F99
:10120000660F660F862F842B952F9295969596954F
:10121000937042E3049F800D911D1124BE010E9432
:1012200050264091CC076091CB070E9493050F5F39
:10123000DA94D110C7CF1C0D19301CF010920501A3
:1012400008C017FD03C01093050103C088E0809318
:101250000501DF91CF911F910F91FF90EF90DF90EB
:10126000CF900C940006909154059F5F891718F059
:10127000909354050895109254050E94F80520E0BB
:1012800030E090E080910401A901480F511D87FDD5
:101290005A9548305105A8F4820F877090E0FC0100
:1012A000EE0FFF1F8E0F9F1FFC01EF52F84F809132
:1012B000E9079091EA07A091EB0780839183A283CD
:1012C00091E02F5F3F4F24303105E1F691110E94EC
:1012D00000069091030180910401890F809304011D
:1012E0008D5F8B30C0F091959093030180915205F2
:1012F00090915305889660E073E00E943C2690939D
:1013000053058093520529EE37E04091CC07609158
:10131000CB070C949305089580914005882331F004
:101320005E9A8091C9078E7F8093C9078091C90713
:1013300080FF1DC05E991BC086958F71E82FF0E07D
:101340003297E631F10598F4E15AFF4F0C94642688
:1013500081500C94010885500C94340887500C94EB
:1013600054088E500C94B60884510C943309089597
:10137000769888982A980E9470045E9A08958091C1
:101380009206811106C00E948F250E94C0060C940F
:10139000130408955E991CC08091500590915105E9
:1013A0000E9467228997A0F00E945B2290935105CA
:1013B000809350058091920681110AC08091150199
:1013C000882321F080911701811102C00E948C09AD
:1013D00080910101882371F08CB182FB992790F9EB
:1013E00081E0892790911701891304C085E090E07E
:1013F0000C946B0F089580914E0590914F050E94BB
:1014000067228739910508F444C00E945B229093BB
:101410004F0580934E0580914D058F5F80934D055C
:10142000909192069923B9F0843098F1913011F09F
:1014300080E001C083E080934D05379B08C00E9487
:1014400070045E9A95B184E0892785B90895109259
:1014500092060C94BF09909115019923D1F0813027
:1014600011F42A98889880914D05833029F42A9A9E
:10147000809196068111889A9091960680914D05EB
:10148000911105C0853018F010924D0508958B30EC
:10149000D8F7089520915B0580915C05821759F07B
:1014A00030E0F901E35AFA4F80812F5F3F4F2093DC
:1014B0005B0590E008958FEF9FEF08959091C8002D
:1014C00095FFFCCF8093CE0008951F920F920FB628
:1014D0000F9211242F933F934F938F939F93EF93EA
:1014E000FF9380915C0590E09C012F5F3F4F4091FE
:1014F0005B05421741F03091CE00FC01E35AFA4FF0
:10150000308320935C05FF91EF919F918F914F91D4
:101510003F912F910F900FBE0F901F9018958091C3
:101520007706089508950FB6F894A8958091600005
:10153000886180936000109260000FBE08950E9441
:10154000930A9EE088E10FB6F894A8958093600016
:101550000FBE909360000895EF92FF920F931F9338
:10156000CF93082F0E945B227C01C0E010E0C701EE
:101570000E94672280179107F0F40E944A0A9C019A
:101580002F3F8FEF3807A9F02D3099F04C2F50E006
:101590002A3051F4C23030F0FA01E45AF94F808118
:1015A0008F3449F02FE530E0FA01E25AF94F2083F9
:1015B000CF5FC731E0F2EC2FF0E0E25AF94F108232
:1015C0008EE596E0CF911F910F91FF90EF900895D7
:1015D000CF93DF93EC018991882319F00E945E0A72
:1015E000FACFDF91CF9108950E94E80A84E60C9427
:1015F000AC0A9C012F5631092230310528F02A57B8
:1016000031092230310588F420917A0630917B0629
:10161000232B31F429E732E030937B0620937A06BE
:10162000909379068093780604C010927B061092FE
:101630007A0620917C06211124C09F938F9389E222
:1016400091E09F938F938CEE97E09F938F930E94EE
:1016500077268CEE97E00E94F40A42E050E067E0C3
:1016600072E00E946A260F900F900F900F900F90DB
:101670000F90892B19F410927C06089581E08093D5
:101680007C060895CF93DF93EC0180917C06811155
:1016900041C08C81282F082E000C330B3F938F9371
:1016A0008B81282F082E000C330B3F938F938A8158
:1016B000282F082E000C330B3F938F938981282FFE
:1016C000082E000C330B3F938F9381E491E09F939E
:1016D0008F938CEE97E09F938F930E9477268CEEEA
:1016E00097E00E94F40A42E050E067E072E00E9456
:1016F0006A262DB73EB7245F3F4F0FB6F8943EBF22
:101700000FBE2DBF892B19F410927C0603C081E017
:1017100080937C0680917C0681112BC088819091FA
:101720007606891731F1809376061F928F9381E6B2
:1017300091E09F938F938AEF97E09F938F930E94FE
:1017400077268CEE97E00E94F40A42E050E067E0D2
:1017500072E00E946A260F900F900F900F900F90EA
:101760000F90892B19F410927C0603C081E08093BE
:101770007C06DF91CF910895CF93DF93EC0186E94A
:101780000E944622CE01DF91CF910C94F40ACF93B0
:10179000DF9320919606222309F45EC020917C06F7
:1017A00021115AC0EC018CE691E00E94E80A2097D2
:1017B00031F480E891E0DF91CF910C94F40A8F81AD
:1017C0001F928F938E811F928F938D811F928F9383
:1017D0008C811F928F938B811F928F938A811F928E
:1017E0008F9388811F928F9387E891E09F938F93C7
:1017F0008CEE97E09F938F930E9477268CEE97E074
:101800000E94F40A45E050E06EEA71E00E946A2608
:101810002DB73EB72E5E3F4F0FB6F8943EBF0FBEBA
:101820002DBF892B21F481E080937C0602C01092A9
:101830007C068A81988191110FC0833531F08933FC
:1018400031F0873449F482E103C080E101C081E1D5
:10185000DF91CF910C941804DF91CF91089580E02F
:1018600090E00C94C70B80917A0690917B060097CC
:10187000F1F08230910530F0019790937B068093D0
:101880007A06089520915D062F5F20935D06809172
:1018900078069091790630E043EF50E0481B590BF1
:1018A0002417350720F010925D060C94F90A08956C
:1018B00084EB91E00C94BC0BCF93C82F85EC91E0A6
:1018C0000E94E80A80E38C0F0E945E0A85E891E09E
:1018D000CF910C94BC0BCF93DF93EC0182ED91E0A0
:1018E0000E94E80ACE010E94E80A85E891E0DF91B3
:1018F000CF910C94BC0B81EE91E00E94F40AFC01A4
:101900008081089580EF91E00C94BC0BCF93DF931E
:10191000559A5D980E945222F89487E68093CC00F5
:101920001092CD008091C90080698093C900809198
:10193000C90088608093C9008091CA008093CA0062
:101940008091C80082608093C800789480E092E023
:101950000E94BC0B80E092E00E94F40AEC0142E09D
:1019600050E064E072E00E946A26892B49F042E070
:1019700050E067E072E0CE010E946A26892BE9F40C
:101980000E94580C80E092E00E94BC0B8AE092E03A
:101990000E94BC0B81E192E00E946B0C81E00E94EE
:1019A0005C0C8CE192E00E94BC0B0E94820C8CE2E9
:1019B00092E00E94BC0B0E949C22F8948CE08093E1
:1019C000CC00789480E092E00E94BC0B82E30E94FD
:1019D00046228FE392E00E94F40A45E050E06EEA6E
:1019E00071E00E946A26892B71F48EE492E00E94D5
:1019F000BC0B8BE692E00E94BC0B87EA92E0DF9181
:101A0000CF910C94BC0BDF91CF910895CF935E9949
:101A100003C0882309F4A6C0C82F8CEA92E00E9474
:101A2000F40AFC01418180ED840F8A3020F081E0CE
:101A300080939D065AC062816A3308F056C0808147
:101A400090E0C09724E6289FF001299FF00D112413
:101A500050E0405351098AE0849F9001859F300DEA
:101A600011242E0F3F1F260F311D43E0220F331F7D
:101A70004A95E1F72A543240809113019091140164
:101A800083374EE0940709F4C901280F391F3695B2
:101A90002795309314012093130137990AC081E0F0
:101AA0008093910628523109309314012093130139
:101AB00002C010929106209113013091140184E02C
:101AC000369527958A95E1F7205220939406223C7B
:101AD00018F01092920609C0253B10F481E003C073
:101AE0002D3B18F485E080939206C130D9F5909192
:101AF0009406E8E0F3E080E02191921730F0C6EF21
:101B00008C9FC02D1124C65A04C08F5F8930A1F765
:101B1000CCE2809192068111C82F80919106C80F66
:101B2000811103C0923E08F0C4E6C093120188EB15
:101B300092E00E94E80A1F92CF938DE591E09F9377
:101B40008F938CEE97E09F938F930E9477260F9050
:101B50000F900F900F900F900F908CEE97E0CF9119
:101B60000C94F40ACF9108953F98479A81E00C9421
:101B7000060D0895CF93DF9380911601811122C045
:101B80000E9462168750914079F00E94ED17809173
:101B9000220182608093220187E091E00E945D161D
:101BA000809142058D7F26C08091970681112FC0BC
:101BB00080910D08843059F581E08093160180935F
:101BC000970625C00E94621688519140C1F081E0BD
:101BD00080939706809316010E94ED178091220151
:101BE0008D7F8093220188E191E00E945D168091B3
:101BF00042058260809342050E94570408C080918C
:101C00000D08843021F010921601109297068091F1
:101C10001701882309F45CC15D9952C180917C064B
:101C20008823A1F080E092E00E94F40A42E050E0B4
:101C300067E072E00E946A26892B29F410927C06E4
:101C40000E942F0C03C081E080939D0680919D0629
:101C50008823B9F084E60E94AC0AEC0142E050E02F
:101C600067E072E00E946A26892B59F045E050E057
:101C70006EEA71E0CE010E946A26892B11F0109263
:101C80009D0680911101823041F481E00E94060D91
:101C90000E94B90D83E08093110180917F06882313
:101CA00021F10E947B0C813301F587EC92E00E94C8
:101CB000F40AFC0122812A33C1F441E150E060E8DA
:101CC00076E00E946A26892B31F010927F0681E02F
:101CD000809396060AC08AED92E00E94F40A8091F1
:101CE00095068F3010F010927F0680919D0681112D
:101CF000B2C080919A0690919B060E946722893E0D
:101D0000934008F4A8C00E945B2290939B068093A6
:101D10009A0680919606811105C080917F068111F7
:101D200044C008C080917E068F5F80937E068370DA
:101D3000A1F356C00E947B0C813351F4809196062A
:101D4000811118C081E08093960610929C0612C003
:101D5000803369F480919606882319F010929606D4
:101D600009C080919C068F5F80939C0603C081E030
:101D700080939D0680911601811117C080911101F9
:101D8000882399F080919C068A3578F080910D081F
:101D9000843049F05D9A8091C900877F8093C900A3
:101DA00084E08093110110929C0680911501882394
:101DB000B9F080919506843639F410929506109208
:101DC00015010E9413040CC08F5F80939506843127
:101DD00020F480919606882319F084E68093950676
:101DE00080917D068F5F80937D06877021F48091BE
:101DF00091060E94060D8091970681112CC080915A
:101E00001501811128C0809198069091990601963C
:101E1000909399068093980620911101213039F40E
:101E20000F9728F00E942F0C82E08093110180917F
:101E30001101833081F4809198069091990688323F
:101E4000934248F084E0809311015D9A8091C9002B
:101E5000877F8093C90080919306882379F10E943F
:101E6000930A809193068C3011F08231B1F48CEE9C
:101E700092E00E94E80A80919306823129F485E07D
:101E800093E00E94F40A04C085EB92E00E94BC0B30
:101E9000109293060E949F0A11C0853179F40E9426
:101EA000820C80E00E945C0C81E00E945C0C87EA5E
:101EB00092E00E94BC0B8CE0809393060E94330C4E
:101EC00080911101823020F4DF91CF910C94FB09B5
:101ED000DF91CF910895CF93DF93C82F0E94DA212D
:101EE000D82F0E94ED17C531B1F1B0F4CC3081F19B
:101EF00030F4C53009F05CC00E949C2234C0C2316D
:101F000039F1C33109F054C09091110181E0892762
:101F10008093110160E036C0C83191F060F4C631A1
:101F200009F046C09091150181E089278093150141
:101F30000E9413043BC0C931B1F0C03C31F138C03C
:101F400090911601809117018927809316012EC068
:101F5000C09393062BC0D0FF2BC0C093930681E0A3
:101F60008093150126C08091120160E090E00E94EC
:101F70002F1CD232D9F48DE290E00E94231C60E045
:101F8000809196060E94321811C0809197068111A7
:101F90000DC05D9A8091C900877F8093C9008AE057
:101FA00080931101109296060E94322081E001C0B8
:101FB00080E0DF91CF91089590E08D30910588F514
:101FC000FC01EB58FF4F0C94642688E128C083E1A4
:101FD00026C082E124C08CE022C085E120C080912F
:101FE00096068823F1F081E080937F0680931501A7
:101FF000109295061092960687EC92E00E94F40AE1
:10200000FC0182818A3369F491E1A0E8B6E0019095
:102010000D929A95E1F7089589E101C080EC0C9446
:102020006B0F0895CF9390E080E80FB6F8948093FB
:102030006100909361000FBE0E9417020E94071476
:102040007894CFEF80910D08843059F0809117017A
:10205000811102C088E001C084E00E944622C15084
:1020600089F780911701882321F00E94860C0E9435
:10207000B40D0E94B5160E949F0AC1E08091110123
:10208000823008F10E94D6220E9444038823D9F0AE
:1020900010929906109298060E949F0A0E94FB22B5
:1020A0005D988091C90088608093C900C093110138
:1020B0000AC080910D08843091F00E94D6220E94BF
:1020C0004403811105C080911701882391F307C053
:1020D00080910D088530B9F70E948412F4CF809169
:1020E0001101843058F6A895823010F40E94BF1672
:1020F0000E94BA0DC3CF8091AF0608958FEF9091E3
:10210000E800815095FD06C09AE69A95F1F700C067
:102110008111F5CF8091E80085FB882780F991E057
:1021200089270895CF93DF9300D01F92CDB7DEB7F4
:1021300020910D082430B9F423E029839B838A83FE
:102140002093E9000E947E1081110DC040E050E014
:1021500063E070E0CE0101960E9499128091E80040
:102160008E778093E8000F900F900F90DF91CF91C2
:102170000895CF93DF9300D01F92CDB7DEB72091A3
:102180000D082430C1F422E029839B838A8383E0F5
:102190008093E9000E947E1081110DC040E050E064
:1021A00063E070E0CE0101960E9499128091E800F0
:1021B0008E778093E8000F900F900F90DF91CF9172
:1021C0000895CF93DF9320910D082430A1F4EC0102
:1021D00082E08093E9000E947E1081110CC040E0F3
:1021E00050E065E070E0CE010E9499128091E80015
:1021F0008E778093E800DF91CF910895CF93DF939E
:10220000EC0190910D089430D1F580912201882342
:10221000D9F08091B7068823B9F09093E9008FEF49
:102220009091E800815095FD06C095E19A95F1F7EF
:1022300000008111F5CF8091E80085FF20C040E0CB
:1022400050E060E170E00BC081E08093E9000E9403
:102250007E10811114C040E050E068E070E0CE01D3
:102260000E9499128091E8008E778093E80080E1C7
:10227000FE01AFE9B6E001900D928A95E1F7DF919A
:10228000CF91089580910C08811109C00E94AC1370
:102290000E9407148091E20084608093E200089518
:1022A00010920C0808950895089542E061EC81E0D1
:1022B0000E94471342E061EC82E00E94471342E033
:1022C00061EC83E00E94471342E161EC84E00C94EE
:1022D000471380910F08833009F455C030F48130E2
:1022E00071F0823009F48EC008958A3009F47AC002
:1022F0008B3009F460C0893009F09CC020C0809107
:102300000E08813A09F096C08091E800877F80939B
:10231000E8008091120890911308892B21F460E164
:102320008FE996E003C060E080E090E070E00E94FA
:10233000E4128091E8008B778093E8000895809103
:102340000E08813209F076C080911208909113082E
:10235000009719F0039709F06DC08091E800877F1E
:102360008093E8008091E80082FD05C080910D080F
:102370008111F8CF5FC08091F1008093AF0680910A
:10238000E8008B7753C080910E08813A09F052C063
:102390008091120890911308892B09F04BC080910D
:1023A000E800877F8093E8008091E80080FFFCCF01
:1023B0008091220136C080910E088132D9F580913A
:1023C000120890911308892BA9F58091E800877F66
:1023D0008093E8000E945B13809110088093220193
:1023E0000C94ED1780910E08813221F58091E80060
:1023F000877F8093E8000E945B138091110880938F
:10240000B006089580910E08813AA1F48091E80009
:10241000877F8093E8008091E80080FFFCCF809167
:10242000B0068093F1008091E8008E778093E800F9
:102430000C945B1308958091AF0680939E061092D2
:10244000AF0680E00E945C040E9446170C94ED17D2
:102450000C941B120E94FB2280919E068093AF0673
:1024600008950C942A12292F332723303105C1F007
:102470005CF42130310579F022303105E9F58DE643
:1024800090E026E733E03CC021323105C1F0223232
:10249000310511F131C082E190E023EE33E030C02C
:1024A00099278330910540F5FC01EE0FFF1FE85D91
:1024B000FC4F20813181FC01EB5DFC4F1AC0643080
:1024C000D8F4E62FF0E0EE0FFF1FE35EFC4F208113
:1024D000318189E090E014C0643070F470E0FB0159
:1024E000EE0FFF1FEB5EFC4F20813181FB01EF5EA1
:1024F000FC4F808190E004C080E090E020E030E07C
:10250000FA0131832083089519BC82E089BD09B4A2
:1025100000FEFDCF8091D8008F7D8093D800809100
:10252000E00082608093E0008091E00081FDFCCFBC
:102530000895CF92DF92EF92FF920F931F93CF9364
:10254000DF93EC018B016A010E947A13811133C081
:10255000C114D10439F0F60180819181081B190B57
:10256000C80FD91FE12CF12C0115110519F180912B
:10257000E80085FD16C08091E8008E778093E80022
:10258000C114D10449F0F60180819181E80EF91E51
:10259000F182E08285E00FC00E947A13882321F344
:1025A0000AC089918093F10001501109FFEFEF1AE1
:1025B000FF0ADACF80E0DF91CF911F910F91FF905A
:1025C000EF90DF90CF900895209114083091150876
:1025D0002617370748F06115710539F42091E80096
:1025E0002E772093E80001C0B90140E06115710524
:1025F000A9F120910D08222309F443C0253009F4E4
:1026000042C02091E80023FD40C02091E80022FD57
:1026100032C02091E80020FFE9CF4091F3002091E3
:10262000F20030E0342BFC01CF016115710559F047
:102630002830310540F481918093F1006150710997
:102640002F5F3F4FF1CF41E02830310509F040E0E6
:102650002091E8002E772093E800C8CF4111C9CF20
:102660000AC080910D08882361F0853061F0809167
:10267000E80083FD0AC08091E80082FFF2CF80E08D
:10268000089582E0089583E0089581E008958F70B1
:102690008093E900EBEEF0E0808181608083EDEED5
:1026A000F0E010826093EC0040838091EE00881F80
:1026B0008827881F089580910E0887FF11C0809198
:1026C000E80082FD05C080910D088111F8CF11C08E
:1026D0008091E8008B770BC080910D08882349F02A
:1026E0008091E80080FFF8CF8091E8008E7780939A
:1026F000E80008952091E4003091E50095E64091CE
:10270000EC00842F817040FF22C08091E80080FDA2
:102710001CC080910D08882391F0853091F0809144
:10272000EB0085FD10C04091E4005091E500421798
:10273000530729F39A01915011F784E0089582E03C
:10274000089583E0089581E0089580E00895409120
:10275000E80042FFDECF08950E9423140E942B144C
:10276000E0EEF0E0808181608083E8EDF0E0808140
:102770008F77808319BCA7EDB0E08C918E7F8C930E
:1027800080818F7E808310920C0808950F931F9391
:10279000CF93DF930E9423140E942B14C8EDD0E046
:1027A00088818F77888388818068888388818F7DFE
:1027B000888319BC10920D0810920A0810920B0819
:1027C00000EE10E0F80180818B7F8083888181603A
:1027D000888342E060E080E00E944713E1EEF0E091
:1027E00080818E7F8083E2EEF0E080818160808353
:1027F000808188608083F80180818E7F80838881DA
:1028000080618883DF91CF911F910F910895E8ED4A
:10281000F0E080818F7E8083E7EDF0E08081816051
:10282000808384E082BF81E080930C080C94C613FF
:1028300080911601823030F480919706811102C098
:102840000C949C220895E8EDF0E080818E7F8083D7
:102850001092E20008951092DA001092E1000895BB
:102860001F920F920FB60F9211242F933F934F9305
:102870005F936F937F938F939F93AF93BF93EF93E8
:10288000FF938091E10082FF0BC08091E20082FF04
:1028900007C08091E1008B7F8093E1000E9454117A
:1028A0008091DA0080FF1FC08091D80080FF1BC09C
:1028B0000E9418148091DA008E7F8093DA00809154
:1028C000D90019BC80FF0BC082E089BD09B400FEAD
:1028D000FDCF81E080930D080E94421104C0109248
:1028E0000D080E9450118091E10080FF19C0809175
:1028F000E20080FF15C08091E2008E7F8093E200AD
:102900008091E20080618093E2008091D800806233
:102910008093D80019BC85E080930D080E9428128E
:102920008091E10084FF31C08091E20084FF2DC0DE
:102930000E94181419BC82E089BD09B400FEFDCFC5
:102940008091D8008F7D8093D8008091E1008F7EA8
:102950008093E1008091E2008F7E8093E20080917D
:10296000E20081608093E20080910A08882311F0E0
:1029700084E007C08091E30087FD02C081E001C0D0
:1029800083E080930D080E9431128091E10083FF63
:1029900029C08091E20083FF25C08091E100877FFC
:1029A0008093E10082E080930D0810920A088091E4
:1029B000E1008E7F8093E1008091E2008E7F809322
:1029C000E2008091E20080618093E20042E060E0FA
:1029D00080E00E9447138091F00088608093F000AF
:1029E0000E945311FF91EF91BF91AF919F918F91F1
:1029F0007F916F915F914F913F912F910F900FBEFB
:102A00000F901F9018951F920F920FB60F921124DE
:102A10002F933F934F935F936F937F938F939F93E6
:102A2000AF93BF93CF93DF93EF93FF93C091E900F0
:102A3000CF708091EC00D82FD17080FDD0E810923B
:102A4000E9008091F000877F8093F00078940E94E5
:102A500047151092E9008091F00088608093F000A3
:102A6000CD2BCF70C093E900FF91EF91DF91CF9113
:102A7000BF91AF919F918F917F916F915F914F9196
:102A80003F912F910F900FBE0F901F9018951F939D
:102A9000CF93DF9300D0CDB7DEB7EEE0F8E088E06B
:102AA0008E0F9091F10091938E13FBCF0E946911CC
:102AB0008091E80083FFEDC080910E0890910F088F
:102AC000492F50E04A30510508F0E3C0FA01EE57B3
:102AD000FF4F0C946426803881F0823809F0D9C009
:102AE000809112088F708093E9008091EB0085FB44
:102AF000882780F91092E90007C080910B0888238D
:102B000011F082E001C080E09091E800977F9093FF
:102B1000E8008093F1001092F10095C0282F2D7FDE
:102B200009F0B7C0882319F0823061F0B2C08091FB
:102B30001008813009F0ADC0933009F080E0809337
:102B40000B082BC080911008811127C080911208BA
:102B50008F7009F49EC08093E9002091EB0020FF64
:102B60001CC0933021F48091EB00806214C09091DE
:102B7000EB0090619093EB0021E030E0A90102C0EE
:102B8000440F551F8A95E2F74093EA001092EA003D
:102B90008091EB0088608093EB001092E9008091B7
:102BA000E800877F53C0811174C0109110081F770F
:102BB0008091E3008078812B8093E3008091E8008E
:102BC000877F8093E8000E945B138091E80080FF7C
:102BD000FCCF8091E30080688093E300111102C074
:102BE00082E001C083E080930D0853C0805882309A
:102BF00008F04FC0AE014F5F5F4F609112088091A7
:102C00001008909111080E943312BC01892B09F41D
:102C100040C09091E800977F9093E80089819A8165
:102C20000E94E4128091E8008B778093E80031C025
:102C3000803879F58091E800877F8093E800809163
:102C40000A088093F1008091E8008E778093E80075
:102C50000E945B131EC081111CC09091100892301D
:102C6000C0F48091E800877F8093E80090930A0881
:102C70000E945B1380910A08811106C08091E300D5
:102C800087FD02C081E001C084E080930D080E94AE
:102C900055118091E80083FF0AC08091E800877F8A
:102CA0008093E8008091EB0080628093EB000F90AE
:102CB0000F90DF91CF911F9108959093B606809366
:102CC000B50608958091B5069091B6060895E091F5
:102CD000B506F091B606309721F00190F081E02D15
:102CE000099480E00895E091B506F091B60630971A
:102CF00021F00280F381E02D09940895E091B5065A
:102D0000F091B606309721F00480F581E02D09940A
:102D100008952091B3063091B4068217930771F09D
:102D20009093B4068093B306E091B506F091B60691
:102D3000309721F00680F781E02D099408952091C5
:102D4000B1063091B2068217930771F09093B206E4
:102D50008093B106E091B506F091B606309721F068
:102D60000084F185E02D099408950E9452220E946A
:102D700050020E9496030E9444250C948F25CF9305
:102D80000E946D0280E090E00E9447170E94CA09ED
:102D90000E94FE238091D406882379F08091D20688
:102DA0009091D3060E9467228C34910530F01092E6
:102DB000D4068EEB96E00E94CD07C091BD060E941E
:102DC0006716C81709F45EC00E9467168093BD0697
:102DD00084FF55C08091D2069091D3060E9467224D
:102DE0008C34910520F01092BC0610921608409188
:102DF000BC0650E0FA01E854F94F8091BD0683709B
:102E000023E030E0241B350B220F331F01C0880F55
:102E10002A95EAF780830E945B229093D3068093E1
:102E2000D2068091BC068F5F8093BC06843050F13F
:102E300020911608E22FF0E0E254F94F9091B90684
:102E40008091B806892B9091BA06892B9091BB0688
:102E5000892B80838091BE06803431F4223020F4A7
:102E600087E490E00E94231C1092BC068091160813
:102E70008F5F8093160881E08093D40603C0CF91C2
:102E80000C944422CF9108950C945C040895CF9340
:102E9000DF9300D000D000D0CDB7DEB7FC01892B86
:102EA00039F40E945B22816060E05FEF4FEF05C064
:102EB00040815181628183819481FE01319626E0B7
:102EC000DF011D922A95E9F7782F9D838C838D81F0
:102ED0009E810E94C11E26960FB6F894DEBF0FBEDB
:102EE000CDBFDF91CF910895CF93882341F1803BEF
:102EF00029F48CEF91E0CF910C94651FC82F8CEFD3
:102F00008C0F813A20F080E58C0F8E3248F48C2FA4
:102F10000E941325811113C08C2F0E9457210CC0D1
:102F200080E28C0F883058F4C77081E001C0880FB0
:102F3000CA95EAF70E94DD21CF910C941422CF911B
:102F40000895882349F19CEF980F913A20F090E57D
:102F5000980F9E3218F40E9499210DC090E2980FAC
:102F6000983058F4877091E001C0990F8A95EAF77C
:102F7000892F0E94E3210C9414229BE5980F933033
:102F800020F480E090E00C948916885A873120F470
:102F900080E090E00C949F160895882321F00E9411
:102FA000DD210C9414220895882321F00E94E3214E
:102FB0000C94142208950E94FA210E94CF210E94AD
:102FC00014220E94F7240E94F32380E090E00E94E4
:102FD000891680E090E00C949F160E94EA210C94E0
:102FE000DB17CF93DF9300D000D01F92CDB7DEB7B1
:102FF0000E94EA20292F22952F7030E02C303105D5
:103000004CF42A303105C4F4225031092230310504
:1030100040F01FC02C303105B1F02F30310599F050
:1030200018C0853A28F4843090F4823028F40FC018
:1030300090E2980F983058F0843058F0853A38F084
:10304000803F39F404C093FB882780F903C081E0F6
:1030500001C080E00F900F900F900F900F90DF91C4
:10306000CF910895811101C08AE0662311F0885A3A
:1030700001C0835E90E00C94231CCF92DF92EF920C
:10308000FF920F931F93CF93DF93CDB7DEB72797B0
:103090000FB6F894DEBF0FBECDBF25E0FC01DE0108
:1030A000119601900D922A95E1F7FC01028143816E
:1030B0005481258122952F7039816A8141155105EE
:1030C00009F497C36F3F19F43F3F09F492C36C01B1
:1030D0004230510569F0742F5D834C8349815A81D8
:1030E000602F8D812F830E94EA20182F2F8102C02C
:1030F00019819A812F839E830E94E9200E94E31FF9
:103100009E81E92FE295EF70F0E0E457FF4F2F81A9
:103110000C946426892F807F9F70F92E882319F0E4
:10312000F29490EFF9220023C1F00E94DA2182721A
:1031300059F08F2D827241F08091620782628093F4
:103140006207FF2DFD7DFF2EFF2009F46BC28F2D3E
:103150000E94ED210E94142265C2809162078D7D3C
:1031600080936207812F0E94A117FF2009F441C3B9
:103170008F2D0E94F32127960FB6F894DEBF0FBE65
:10318000CDBFDF91CF911F910F91FF90EF90DF9016
:10319000CF900C941422892F807F9F70F92E80325B
:1031A00019F0F29480EFF822112319F0113001F197
:1031B00029C00023A9F08F2D222349F1213039F5B0
:1031C00027960FB6F894DEBF0FBECDBFDF91CF912B
:1031D0001F910F91FF90EF90DF90CF900C94FD2105
:1031E000222319F0213009F404C30E9400222CC0CC
:1031F0000023E9F0233008F0FCC20E94DA218F217D
:1032000029F022C00023F1F0211115C08F2D27963F
:103210000FB6F894DEBF0FBECDBFDF91CF911F91E7
:103220000F91FF90EF90DF90CF900C94CD1722304C
:1032300008F0DFC209C0F601858180FFF3C18F70FD
:103240008583E4CF211119C28F2D89C1292F26959D
:103250002695237030E02115310521F0213031050C
:10326000C1F0C7C2002319F0812F937002C080E023
:1032700090E027960FB6F894DEBF0FBECDBFDF916A
:10328000CF911F910F91FF90EF90DF90CF900C9412
:103290009F160023D9F0212F392F33702115F3E029
:1032A0003F0794F081E092E00E94651F60E0812F6B
:1032B00082958F700E94321860E0812F8F700E947B
:1032C00032188FEF91E002C2C90102C080E090E0A5
:1032D00027960FB6F894DEBF0FBECDBFDF91CF911A
:1032E0001F910F91FF90EF90DF90CF900C94891673
:1032F000812F002381F00E942C230E94F323163497
:1033000008F077C2E12FF0E0E059F84F81E08083C8
:1033100080936F076EC20E947C230E94F3231634B1
:1033200008F067C2E12FF0E0E059F84F108261C267
:10333000892F837009F079C001115BC2812F8295BA
:1033400086958770880F880F212F2F70C22ED12C61
:10335000E12CF12C082E04C0CC0CDD1CEE1CFF1C53
:103360000A94D2F714FF12C04FE050E060E070E022
:1033700004C0440F551F661F771F8A95D2F78A0134
:103380009B01009510952095309503C000E010E05A
:103390009801969596959370492F50E0C901B80110
:1033A00042305105D1F04330510559F16C297D2946
:1033B0008E299F294130510541F127960FB6F89487
:1033C000DEBF0FBECDBFDF91CF911F910F91FF9058
:1033D000EF90DF90CF900C94FE1F6C297D298E29F1
:1033E0009F2927960FB6F894DEBF0FBECDBFDF91A1
:1033F000CF911F910F91FF90EF90DF90CF900C94A1
:1034000018200E94FE1FC701B60127960FB6F89438
:10341000DEBF0FBECDBFDF91CF911F910F91FF9007
:10342000EF90DF90CF900C94E41F002319F0892FC8
:10343000817001C08695882309F4DBC1812F8295B4
:1034400086958770880F880F212F2F70C22ED12C60
:10345000E12CF12C082E04C0CC0CDD1CEE1CFF1C52
:103460000A94D2F714FF12C04FE050E060E070E021
:1034700004C0440F551F661F771F8A95D2F78A0133
:103480009B01009510952095309503C000E010E059
:103490009801969596959370492F50E0C901B8010F
:1034A00042305105D1F04330510559F16C297D2945
:1034B0008E299F294130510541F127960FB6F89486
:1034C000DEBF0FBECDBFDF91CF911F910F91FF9057
:1034D000EF90DF90CF900C94C5206C297D298E2928
:1034E0009F2927960FB6F894DEBF0FBECDBFDF91A0
:1034F000CF911F910F91FF90EF90DF90CF900C94A0
:10350000D7200E94C520C701B60127960FB6F894B0
:10351000DEBF0FBECDBFDF91CF911F910F91FF9006
:10352000EF90DF90CF900C94B320103F41F118F44E
:10353000103E48F46DC0123F09F441C0D8F1133F6A
:1035400009F442C065C01F70892F8F71002321F0DC
:103550000E944C20812F5BCE0E946D20812F2796E8
:103560000FB6F894DEBF0FBECDBFDF91CF911F9194
:103570000F91FF90EF90DF90CF900C94D417002321
:10358000A9F0223008F035C1892F8F7127960FB628
:10359000F894DEBF0FBECDBFDF91CF911F910F9189
:1035A000FF90EF90DF90CF900C949220233008F0A2
:1035B00020C1EACF002329F0892F8F7146C0002354
:1035C000D9F3892F8F716CC0002391F0892F8F71EF
:1035D00027960FB6F894DEBF0FBECDBFDF91CF9117
:1035E0001F910F91FF90EF90DF90CF900C943720B8
:1035F00027960FB6F894DEBF0FBECDBFDF91CF91F7
:103600001F910F91FF90EF90DF90CF900C9432209C
:10361000002359F12223B9F093FF04C0F6018581FC
:1036200080FD11C0812F27960FB6F894DEBF0FBE24
:10363000CDBFDF91CF911F910F91FF90EF90DF9061
:10364000CF900C947417892F877027960FB6F89433
:10365000DEBF0FBECDBFDF91CF911F910F91FF90C5
:10366000EF90DF90CF900C944C202223B9F093FF81
:1036700004C0F601858180FD11C0812F27960FB609
:10368000F894DEBF0FBECDBFDF91CF911F910F9198
:10369000FF90EF90DF90CF900C94A117892F877047
:1036A00027960FB6F894DEBF0FBECDBFDF91CF9146
:1036B0001F910F91FF90EF90DF90CF900C946D20B1
:1036C000492F4F70612FC6010E94040227960FB642
:1036D000F894DEBF0FBECDBFDF91CF911F910F9148
:1036E000FF90EF90DF90CF900C94651F011181C087
:1036F000112341F0892F8F70843021F0907F212F8A
:103700002F70922B9F70892F90E082309105E9F104
:10371000ACF4009751F1019709F06BC027960FB6F2
:10372000F894DEBF0FBECDBFDF91CF911F910F91F7
:10373000FF90EF90DF90CF900C94BF2583309105E0
:10374000A1F1049709F055C0812F27960FB6F89480
:10375000DEBF0FBECDBFDF91CF911F910F91FF90C4
:10376000EF90DF90CF900C94242627960FB6F89414
:10377000DEBF0FBECDBFDF91CF911F910F91FF90A4
:10378000EF90DF90CF900C94A42527960FB6F89475
:10379000DEBF0FBECDBFDF91CF911F910F91FF9084
:1037A000EF90DF90CF900C94E22527960FB6F89417
:1037B000DEBF0FBECDBFDF91CF911F910F91FF9064
:1037C000EF90DF90CF900C940126492F4F70612F1E
:1037D000C60127960FB6F894DEBF0FBECDBFDF91AE
:1037E000CF911F910F91FF90EF90DF90CF900C94AD
:1037F0002D0127960FB6F894DEBF0FBECDBFDF9127
:10380000CF911F910F91FF90EF90DF90CF9008958F
:10381000CF93DF9300D000D000D0CDB7DEB789833F
:103820009A836B8382E090E09D838C83CE01019626
:103830000E943D1826960FB6F894DEBF0FBECDBF8E
:10384000DF91CF910895CF93DF93EC0161E00E9467
:10385000081C60E0CE01DF91CF910C94081CBF9250
:10386000CF92DF92EF92FF920F931F93CF93DF934C
:103870006C01B62EC5E0D0E000E117E28AE0E82E48
:10388000F12CC601B8010E943C26CB01009731F013
:10389000B7010E943C266B2D0E943218C801B70167
:1038A0000E943C268B01219761F7DF91CF911F91F8
:1038B0000F91FF90EF90DF90CF90BF900895CF933E
:1038C000DF9300D000D01F92CDB7DEB70F900F90DE
:1038D0000F900F900F90DF91CF910895CF93DF93CA
:1038E00000D000D000D0CDB7DEB726960FB6F89442
:1038F000DEBF0FBECDBFDF91CF9108951F93CF9351
:10390000DF93C091D50616E08091D606C81799F0CE
:10391000D0E01C9FF0011D9FF00D1124E952F94FDA
:103920004081518162817381848195810E946E1CE6
:103930002196C770E9CFDF91CF911F9108954091F3
:103940000707509108076091090770910A07809155
:103950000B0790910C070C946E1CCF93DF93809112
:103960000C0782958F7009F051C080910907882358
:1039700009F44CC08091D506C091D6064091070746
:103980005091080760910A0770910B07D6E08C17D9
:10399000E9F190E061157105B1F15F3F11F44F3F1E
:1039A00091F1D89FF001D99FF00D1124DF01A952A8
:1039B000B94F11962C911197521325C02C91421397
:1039C00022C012962C91129721111DC013962D9191
:1039D0003C911497261B370B283C3105A0F48091AD
:1039E0000C078F70806180930C07E452F94F80813F
:1039F0008F708061808387E097E00E943D18DF919F
:103A0000CF910C947E1C01968770C1CFDF91CF912E
:103A10000895AF92BF92CF92DF92EF92FF920F93F1
:103A20001F93CF93DF93CDB7DEB761970FB6F894AE
:103A3000DEBF0FBECDBF8C0185E0F801DE011D9613
:103A400001900D928A95E1F7F80140815181F28051
:103A5000C380D480909107072091080760910A07DE
:103A600070910B076115710509F442C12F3F19F4DC
:103A70009F3F09F43DC187E0A82E87E0B82EE09073
:103A80000907F601E61BF70BEE2009F4D8C0809178
:103A90000C07382F307FE83CF10508F094C0311155
:103AA00045C0251312C0941310C0F1100EC08F70C2
:103AB000806180930C070E949F1CC5010E943D18E5
:103AC00080910C07F80185832FC0C114D10419F12E
:103AD0005F3F11F44F3FF9F0BF2CF1101CC08091F3
:103AE000D5062091D60636E0821709F412C190E07F
:103AF000389FF001399FF00D1124E952F94F61818F
:103B0000561306C06081461303C06281611103C071
:103B100001968770E9CFEF2CFF2009F420C1809136
:103B20000C07816080930C07E12C19C1251306C096
:103B3000941304C0F11002C0F801A0C04D875E8745
:103B4000FF867C2DD98AC88A6F2D89890E94F1173A
:103B5000882399F1FF2089F120910C07822F82950B
:103B60008F7090E0029774F080910707909108079A
:103B700098878F831986DB86CA862C87CE010796A5
:103B80000E943D1886E0F801A7E0B7E001900D9291
:103B90008A95E1F70E94AD1C0E949F1C11C0251759
:103BA00039F14D875E87FF867C2DD98AC88A6F2DB3
:103BB00089890E94F11781112AC0C8010E943D180D
:103BC000EE24E394CCC03111EACF7C2DD98AC88A87
:103BD0006F2D89890E945F1C87E097E00E943D1845
:103BE00086E0F50111928A95E9F70E949F1C9CCF0F
:103BF0009413D7CFF110D5CFF8018583C8010E9467
:103C00003D1886E0F50111928A95E9F7A8C0FF20DA
:103C1000A1F220910C07822F82958F7090E002977D
:103C20000CF4B0CF80910707909108079A8389839D
:103C30001B82DD82CC822E83CE010196A1CFE83C8F
:103C4000F10508F046C0EF2CFF2009F4B6CF25138C
:103C50002BC0941329C020910C0720FD1CC0822F7B
:103C600082958F70C1F0F80125838F3041F08F5F0E
:103C7000982F9295907F822F8F70892B8583C80112
:103C80000E943D1886E0F801A7E0B7E001900D9290
:103C90008A95E1F72AC086E0F801A7E0B7E0019035
:103CA0000D928A95E1F75BC04D875E87FF867C2D7C
:103CB000D98AC88A6F2D89890E94F117811162CF34
:103CC00080910C07816080930C07C8010E943D1809
:103CD00046C07C2DD98AC88A6F2D89890E945F1CB5
:103CE00086E0F50111928A95E9F70E949F1C37C082
:103CF000FF2009F462CF4D875E87FF867C2DD98A2D
:103D0000C88A6F2D89890E94F117882309F455CF3D
:103D100039CF7C2DD98AC88A60E089890E94EA203F
:103D2000292F22952F7030E0223031052CF49F701E
:103D300041F0811106C00CC0243031052CF49F7075
:103D400049F4805E883020F0C8010E943D18BE2CE6
:103D5000EB2C05C0F8019581907F99F7F9CF8E2D56
:103D600061960FB6F894DEBF0FBECDBFDF91CF9145
:103D70001F910F91FF90EF90DF90CF90BF90AF9089
:103D800008951F93CF93DF93CDB7DEB72C970FB66F
:103D9000F894DEBF0FBECDBF4F83588769877A87FF
:103DA0008B879C87CE0107960E94091D882369F0A6
:103DB0008F8198852A853B85232BF1F19F3F09F060
:103DC00063C08F3F09F060C037C086E0FE013796C0
:103DD000DE01119601900D928A95E1F76F81788549
:103DE000EA85FB85309741F17F3F11F46F3F21F168
:103DF0002091D60630E0C90101968770992740913D
:103E0000D50650E08417950709F447C069837A8383
:103E1000FD83EC8396E0929FD001939FB00D112417
:103E2000A952B94FFE01319601900D929A95E1F792
:103E30008093D6060E947E1C16E08091D506909154
:103E4000D6068917C1F1189FC00111248952994FD4
:103E50000E94091D882379F1E091D5061E9FF0018B
:103E60001124E952F94F408151816281738184812B
:103E700095810E946E1C8091D50690E00196877016
:103E800099278093D506D9CF4F81588569857A8542
:103E90008B859C850E946E1CCFCF0E94ED171092DF
:103EA000D6061092D506E7E0F7E086E0DF011D9226
:103EB0008A95E9F7C1CF2C960FB6F894DEBF0FBEF6
:103EC000CDBFDF91CF911F910895EF92FF921F9385
:103ED000CF93DF939C01892B09F465C0E9012196FA
:103EE000F9011491193709F43FC0C0F4143740F4B4
:103EF000143008F053C08FEF810F823000F153C0AF
:103F0000143709F050C07901F2E0EF0EF11CFE0108
:103F100084910E944622E7019E01E0CF133828F4E5
:103F2000113868F4103801F13EC01338B9F0143F6D
:103F300008F039C01F77812F90E0926031C0FE01F8
:103F400085919491612F6170E901133018F42296E4
:103F5000992701C023960E94081CDECFFE0185919F
:103F60009491E90123961CC0FE01E590F490E901CB
:103F7000239684E00E94CD17103841F461E081E07F
:103F80000E943218F0EAEF1AF6E8FF0A61E0C70172
:103F90000E942F1C84E00E94D417BECF812F90E096
:103FA0000E94231CB9CFDF91CF911F91FF90EF901A
:103FB000089560934D0770934E0780934F07909339
:103FC00050070C944F0408950F931F930091230101
:103FD000109124012091250130912601602B712B35
:103FE000822B932B609323017093240180932501EE
:103FF000909326011F910F910C9453040F931F93DC
:104000000091230110912401209125013091260176
:1040100060237123822393236093230170932401EF
:1040200080932501909326011F910F910C945304C6
:104030000F931F93009123011091240120912501DA
:1040400030912601602771278227932760932301EF
:104050007093240180932501909326011F910F9165
:104060000C94530460E070E0CB010C94D91F0F93C3
:104070001F9341E050E060E070E08A019B0104C0C2
:10408000000F111F221F331F8A95D2F7C901B801F3
:104090001F910F910C94D91F0F931F9341E050E093
:1040A00060E070E004C0440F551F661F771F8A95BB
:1040B000D2F780914D0790914E07A0914F07B09194
:1040C00050078A019B01082B192B2A2B3B2BC90176
:1040D000B8011F910F910C94D91F0F931F9341E0CA
:1040E00050E060E070E004C0440F551F661F771F6A
:1040F0008A95D2F7409550956095709580914D07BF
:1041000090914E07A0914F07B09150078A019B01F3
:10411000082319232A233B23C901B8011F910F91BA
:104120000C94D91F0F931F9341E050E060E070E0C2
:1041300004C0440F551F661F771F8A95D2F78091E0
:104140004D0790914E07A0914F07B09150078A01FB
:104150009B01082719272A273B27C901B8011F916E
:104160000F910C94D91F0F931F9300914D0710913D
:104170004E0720914F0730915007602B712B822BF7
:10418000932B1F910F910C94D91F0F931F930091A4
:104190004D0710914E0720914F0730915007602333
:1041A0007123822393231F910F910C94D91F0F9396
:1041B0001F9300914D0710914E0720914F073091AA
:1041C000500760277127822793271F910F910C9426
:1041D000D91F08958F929F92AF92BF92DF92EF9274
:1041E000FF920F931F93CF93DF9300D000D01F92C5
:1041F000CDB7DEB78A016623C9F180902301909084
:104200002401A0902501B090260180914D07909146
:104210004E07A0914F07B0915007882A992AAA2AE1
:10422000BB2A8FE1E82EF12CD501C4010E2C04C06D
:10423000B695A795979587950A94D2F780FF07C002
:10424000DE2CB8018E2D0E94FD22019729F481E019
:10425000E81AF10848F7D12C80E1189FF0011124E9
:10426000E00FF11DE35FF84FD08209C080E1189F95
:10427000F0011124E40FF11DE35FF84FD0800983B2
:104280001A8369817A818D2D0E94FD220F900F90F3
:104290000F900F900F90DF91CF911F910F91FF9092
:1042A000EF90DF90BF90AF909F908F900895909186
:1042B0002201913021F49091B706911109C020910B
:1042C000270130912801F90132969FEF40E01FC08D
:1042D000982F9695969596959F3050F5E0912701E9
:1042E000F0912801E90FF11D877021E030E0A9016C
:1042F00002C0440F551F8A95E2F7CA019181892BAC
:10430000818308959F3F39F04F5F4E3041F05191C6
:104310005813F8CF0DC05111F7CF942FF5CF9F3F11
:1043200039F0F901E90FF11D97FDFA95828308959F
:10433000089590912201913021F49091B706911146
:1043400009C02091270130912801F9013296205FA0
:104350003F4F1FC0982F9695969596959F30F0F4F5
:10436000E0912701F0912801E90FF11D877021E00C
:1043700030E0A90102C0440F551F8A95E2F7CA0137
:10438000809591818923818308953196E217F307FF
:1043900029F090819813F9CF1082F7CF0895E0911A
:1043A0002701F091280131968FE0DF011D928A9557
:1043B000E9F7089580916407089590916407892B27
:1043C0008093640708958095909164078923809372
:1043D0006407089510926407089590916307892BEC
:1043E0008093630708958095909163078923809354
:1043F0006307089510926307089580935107089505
:104400001092510708958091270190912801FC0195
:1044100031969C01205F3F4F80E0919191118F5F19
:10442000E217F307D1F70895E0912701F0912801F1
:10443000809164078083E0912701F09128019081A9
:1044400080916307892B8083E0912701F0912801F7
:1044500080916207809590818923808380915107A4
:10446000882361F0E0912701F09128019081892B48
:1044700080830E94032281111092510780912701AD
:10448000909128010C9473160C944417882341F0E2
:10449000EFE9FFE03197F1F700C000008150F6CF5F
:1044A000A895089582E084BD93E095BD9DE797BDF2
:1044B00080936E0008952FB7F894809165079091CE
:1044C0006607A0916707B09168072FBF08959C0108
:1044D0004FB7F8948091650790916607A0916707A0
:1044E000B09168074FBF821B930B089578941F9279
:1044F0000F920FB60F9211248F939F93AF93BF9398
:104500008091650790916607A0916707B091680751
:104510000196A11DB11D8093650790936607A09336
:104520006707B0936807BF91AF919F918F910F90EC
:104530000FBE0F901F90189580911101823050F49A
:104540000E94ED178FE19EE40197F1F700C0000093
:104550000E94AC130E949F0AFFCF1F920F920FB6CA
:104560000F9211248F939F93AF93BF93809169070C
:10457000813099F48091650790916607A091670753
:10458000B09168078096A11DB11D80936507909337
:104590006607A0936707B0936807BF91AF919F919B
:1045A0008F910F900FBE0F901F90189580910D085E
:1045B000843001F10E94930A81E08093690721E42D
:1045C00088E190E00FB6F894A895809360000FBE44
:1045D000209360000E94B80983B7817F846083BF05
:1045E00083B7816083BF7894889583B78E7F83BFBC
:1045F0000C94930A08950C94BF09CF93C82FCB0154
:104600000E942301803819F480E090E00CC0EC2F68
:10461000F0E0FE2FEE27E050F04AE80FF11DE80F22
:10462000F11D85919491CF9108959091B6079923AA
:1046300029F0892F880F880F890F02C0843140F438
:10464000662311F086958695811105C081E0089555
:1046500084E16111F7CF0895803F08F44CC0803F9A
:1046600011F49FEF03C0813F21F491E09093C407C0
:104670003BC0823F11F49FEF03C0833F21F491E0E0
:104680009093C30731C0893F70F421E030E09CE093
:10469000980F01C0220F9A95EAF79091C207292B33
:1046A0002093C20721C0893F11F491E003C08A3FE3
:1046B00021F49FEF9093C50717C08B3F11F49FEF34
:1046C00003C08C3F21F491E09093C6070DC021E018
:1046D00030E093E0980F01C0220F9A95EAF790918D
:1046E000B607292B2093B607895F843020F41092F7
:1046F000B8071092B7070895803F08F473C0803F51
:1047000049F41092BC078091C40787FF6BC01092D8
:10471000C4070895813F39F41092BD078091C40702
:104720001816ACF30895823F49F41092BA078091AD
:10473000C30787FF57C01092C3070895833F39F41A
:104740001092BB078091C3071816ACF30895893FF8
:1047500088F4845F21E030E0A90102C0440F551FB6
:104760008A95E2F7CA0180959091C20789238093C8
:10477000C2070895893F49F41092C0078091C50788
:10478000181684F51092C50708958A3F39F41092DF
:10479000C1078091C50787FF25C0F4CF8B3F49F43F
:1047A0001092BE078091C60787FF1CC01092C607F3
:1047B00008958C3F39F41092BF078091C6071816F0
:1047C000ACF308958D5F21E030E0A90102C0440FF1
:1047D000551F8A95E2F7CA0180959091B607892303
:1047E0008093B607089582EC97E00E947E160E949F
:1047F0005B2290936C0780936B0708950F931F9330
:10480000CF93DF9380916F07882339F180916D07F3
:1048100090916E070E9467224597F8F000E717E035
:10482000C0E0D0E080E0F80191918F01992349F038
:10483000209719F484EF90E501C0CE010E94231C5B
:1048400081E02196C634D10571F780936F070E94ED
:104850005B2290936E0780936D0780916B07909118
:104860006C070E946722AC019091B907923019F051
:1048700028E230E002C025E030E04217530708F498
:10488000B1C02091C3071091C407D091C507C09152
:10489000C607812F822B8D2B8C2B19F41092B90710
:1048A000A1C0923020F49F5F9093B9079BC0809184
:1048B0006A078F5F80936A078D3008F475C0809116
:1048C0001601811102C085E001C080E080936A0773
:1048D000121654F48091BB078F5F8093BB0760E092
:1048E0000E9415238093C3078091C30787FF0BC0E5
:1048F0008091BA078F5F8093BA0760E00E9415230A
:1049000081958093C307111654F48091BD078F5F82
:104910008093BD0760E00E9415238093C4078091B7
:10492000C40787FF0BC08091BC078F5F8093BC07D3
:1049300060E00E94152381958093C4071D1654F4EE
:104940008091C0078F5F8093C00761E00E941523AC
:104950008093C5078091C50787FF0BC08091C10771
:104960008F5F8093C10761E00E941523819580933A
:10497000C5071C1654F48091BF078F5F8093BF0753
:1049800061E00E9415238093C6078091C60787FFC8
:104990000BC08091BE078F5F8093BE0761E00E94CD
:1049A000152381958093C607D091C507C091C6078E
:1049B0008091B7079091B80701969093B8078093BC
:1049C000B70705972CF41092C5071092C60704C0CC
:1049D0001092B8071092B7070E94F323D093C5072F
:1049E000C093C607DF91CF911F910F910895E2EC1C
:1049F000F7E085E0DF011D928A95E9F71092B6078E
:104A00000895813161F40E94ED179091B70681E01D
:104A100089278093B7060E94360381E0089580E0DD
:104A2000089580E00895CF93C82F8091C707882309
:104A300019F0813051F023C0E0912701F091280155
:104A4000808182528230E8F408C0E0912701F09121
:104A5000280180818252823068F48C2F0E946B0F73
:104A6000811104C08C2F0E94012502C081E090E0DA
:104A7000817008C08C2F0E94112581E003C0109224
:104A8000C70780E0CF910895E1E8F0E08081886079
:104A900080838081816080838FB7F8949AE79093B8
:104AA000890092E1909388008FBF0895EFE6F0E0CF
:104AB00080818260808308956DEE7EEF80E090E0DB
:104AC0000E944A2960E082E090E00E942C2960E088
:104AD00083E090E00E942C2960E084E090E00E9456
:104AE0002C2960E085E090E00E942C2960E086E0BF
:104AF00090E00C942C2980E090E00E94262921E08F
:104B00008D3E9E4F09F020E0822F089586E090E0D0
:104B10000C941829682F86E090E00C942C290E94B0
:104B20007B25811102C00E945C250E94862580930E
:104B30001708811102C081E005C080FF02C0869580
:104B400001C080E00C94820480911708982F9695FC
:104B5000292F30E08170283031054CF49F5F990F88
:104B6000892B8160809317080E948A2503C0806189
:104B7000809317088091170886950C948204809181
:104B8000170880FF1EC0982F9695292F30E02230FD
:104B9000310594F09158990F8170892B80931708F3
:104BA0008E7F91E009F490E08091170890FB80F9E6
:104BB000809317080E948A258091170886950C9487
:104BC0008204089580911708982F9095917090FB1A
:104BD00080F980931708992339F0982F9E7F21F44C
:104BE0008170826080931708809117080E948A253F
:104BF0008091170880FF02C0869501C080E00C9468
:104C0000820490911708892F86958F5F8F77917016
:104C1000893028F4880F892B8093170802C090935D
:104C20001708809117088E7F91E009F490E0809139
:104C3000170890FB80F9809317080E948A258091BD
:104C4000170886950C948204880F9091170891702C
:104C5000892B809317088E7F91E009F490E0809172
:104C6000170890FB80F9809317080E948A2580918D
:104C7000170886950C948204AA1BBB1B51E107C040
:104C8000AA1FBB1FA617B70710F0A61BB70B881FDC
:104C9000991F5A95A9F780959095BC01CD0108956B
:104CA00097FB072E16F4009407D077FD09D00E94D9
:104CB0003C2607FC05D03EF4909581959F4F0895C2
:104CC000709561957F4F0895EE0FFF1F0590F49149
:104CD000E02D0994FB01DC0104C08D910190801945
:104CE00021F441505040C8F7881B990B0895AEE05D
:104CF000B0E0EDE7F6E20C946E290D891E8986E09E
:104D00008C831A8309838FEF9FE79E838D83AE0187
:104D1000475E5F4F6F89788DCE0101960E949A267B
:104D20002F813885F801E20FF31F10822E96E4E000
:104D30000C948A29ACE0B0E0E0EAF6E20C94602939
:104D40007C016B018A01FC0117821682838181FF3D
:104D5000BDC1CE0101964C01F7019381F60193FD8F
:104D6000859193FF81916F01882309F4ABC185324E
:104D700039F493FD859193FF81916F01853229F478
:104D8000B70190E00E948228E7CF512C312C20E01F
:104D90002032A0F48B3269F030F4803259F0833243
:104DA00069F420612CC08D3239F0803339F42160F0
:104DB00026C02260246023C0286021C027FD27C0B0
:104DC00030ED380F3A3078F426FF06C0FAE05F9EE7
:104DD000300D1124532E13C08AE0389E300D11245B
:104DE000332E20620CC08E3221F426FD6BC120646C
:104DF00006C08C3611F4206802C0883641F4F601F2
:104E000093FD859193FF81916F018111C1CF982FFF
:104E10009F7D9554933028F40C5F1F4FFFE3F98377
:104E20000DC0833631F0833771F0833509F05BC0F4
:104E300022C0F801808189830E5F1F4F4424439470
:104E4000512C540115C03801F2E06F0E711CF801AD
:104E5000A080B18026FF03C0652D70E002C06FEF17
:104E60007FEFC5012C870E9477282C0183012C85B8
:104E70002F77222E17C03801F2E06F0E711CF80157
:104E8000A080B18026FF03C0652D70E002C06FEFE7
:104E90007FEFC5012C870E946C282C012C8520688F
:104EA000222E830123FC1BC0832D90E04816590657
:104EB000B0F4B70180E290E00E9482283A94F4CFE7
:104EC000F50127FC859127FE81915F01B70190E0F4
:104ED0000E94822831103A94F1E04F1A510841148F
:104EE000510471F7E5C0843611F0893639F5F801BF
:104EF00027FF07C060817181828193810C5F1F4F02
:104F000008C060817181072E000C880B990B0E5F21
:104F10001F4F2F76722E97FF09C090958095709540
:104F200061957F4F8F4F9F4F2068722E2AE030E0AF
:104F3000A4010E94BA28A82EA81844C0853729F4D5
:104F40002F7EB22E2AE030E025C0F22FF97FBF2E4F
:104F50008F36C1F018F4883579F0B4C0803719F075
:104F6000883721F0AFC02F2F2061B22EB4FE0DC0C4
:104F70008B2D8460B82E09C024FF0AC09F2F966035
:104F8000B92E06C028E030E005C020E130E002C0C4
:104F900020E132E0F801B7FE07C0608171818281B3
:104FA00093810C5F1F4F06C06081718180E090E0AB
:104FB0000E5F1F4FA4010E94BA28A82EA818FB2D2F
:104FC000FF777F2E76FE0BC0372D3E7FA51450F461
:104FD00074FE0AC072FC08C0372D3E7E05C0BA2C94
:104FE000372D03C0BA2C01C0B52C34FF0DC0FE0113
:104FF000EA0DF11D8081803311F4397E09C032FF42
:1050000006C0B394B39404C0832F867809F0B39498
:1050100033FD13C030FF06C05A2CB31418F4530CE0
:105020005B18B32CB31468F4B70180E290E03C87BE
:105030000E948228B3943C85F5CFB31410F43B183A
:1050400001C0312C34FF12C0B70180E390E03C87EF
:105050000E9482283C8532FF17C031FD03C088E7DB
:1050600090E002C088E590E0B7010CC0832F8678FD
:1050700059F031FF02C08BE201C080E237FD8DE2C2
:10508000B70190E00E948228A51438F4B70180E3AC
:1050900090E00E9482285A94F7CFAA94F401EA0D76
:1050A000F11D8081B70190E00E948228A110F5CF08
:1050B000332009F451CEB70180E290E00E948228AB
:1050C0003A94F6CFF7018681978102C08FEF9FEF68
:1050D0002C96E2E10C947C29FC0105906150704013
:1050E0000110D8F7809590958E0F9F1F0895FC01B1
:1050F0006150704001900110D8F7809590958E0F07
:105100009F1F08950F931F93CF93DF93FB0123817C
:1051100021FD03C08FEF9FEF28C022FF16C04681FC
:105120005781248135814217530744F4A081B1810E
:105130009D012F5F3F4F318320838C9326813781E0
:105140002F5F3F4F3783268310C0EB01092F182FA5
:105150000084F185E02D0995892BE1F68E819F81F0
:1051600001969F838E83812F902FDF91CF911F9186
:105170000F910895FA01AA27283051F1203181F1C9
:10518000E8946F936E7F6E5F7F4F8F4F9F4FAF4F4F
:10519000B1E03ED0B4E03CD0670F781F891F9A1F62
:1051A000A11D680F791F8A1F911DA11D6A0F711D16
:1051B000811D911DA11D20D009F468943F912AE022
:1051C000269F11243019305D3193DEF6CF0108950A
:1051D000462F4770405D4193B3E00FD0C9F7F6CF3B
:1051E000462F4F70405D4A3318F0495D31FD405203
:1051F000419302D0A9F7EACFB4E0A6959795879599
:1052000077956795BA95C9F7009761057105089577
:105210009B01AC010A2E0694579547953795279523
:10522000BA95C9F7620F731F841F951FA01D0895BB
:10523000F999FECF92BD81BDF89A992780B508955E
:10524000A6E1B0E044E050E00C945229A8E1B0E0BF
:1052500042E050E00C945229262FF999FECF92BDDE
:1052600081BDF89A019700B4021639F01FBA20BD2B
:105270000FB6F894FA9AF99A0FBE08950396272F5D
:105280000E942D290E942C29252F0E942D29242F90
:105290000C942D290196272F0E942D290C942C293E
:1052A000DC01CB01FC01F999FECF06C0F2BDE1BDE6
:1052B000F89A319600B40D9241505040B8F70895D5
:1052C0002F923F924F925F926F927F928F929F9216
:1052D000AF92BF92CF92DF92EF92FF920F931F9304
:1052E000CF93DF93CDB7DEB7CA1BDB0B0FB6F894B5
:1052F000DEBF0FBECDBF09942A88398848885F84F5
:105300006E847D848C849B84AA84B984C884DF8065
:10531000EE80FD800C811B81AA81B981CE0FD11D49
:105320000FB6F894DEBF0FBECDBFED010895F8941F
:02533000FFCFAD
:10533200FB01010107FC018F0AC70B420B920AF91C
:105342000A010C730E0104017B10FE10E110B9106A
:1053520092100101000000520741542B424C454873
:105362004944434F4E54524F4C4B45593D25640AD4
:105372000041542B424C454849444D4F5553454DED
:105382004F56453D25642C25642C25642C25640A42
:1053920000425554544F4E3D25640A0041542B425D
:1053A2004C454B4559424F415244434F44453D00C1
:1053B20030302D30300A00253032582D30302D2536
:1053C2003032582D253032582D253032582D253087
:1053D20032582D253032582D253032580A00455288
:1053E200524F520041542B464143544F5259524559
:1053F2005345540A0041542B424C45484944454EBA
:105402003D0041542B4741504445564E414D453D88
:105412000041542B474150474554434F4E4E0A00DA
:1054220041542B47415044454C424F4E44530A008D
:1054320041540A0041545F4F4B004154453D300AEC
:10544200004C6F7569736520424C450041542B47EF
:10545200415053544152544144560A0041542B4244
:10546200415544524154453D37363830300A0041A7
:10547200542B47415454434841523D310A00415450
:105482002B47415454414444534552564943453DA8
:10549200555549443D363135390A0041542B47416F
:1054A2005454414444434841523D555549443D308A
:1054B20078324131392C50524F504552544945535C
:1054C2003D31362C4D494E5F4C454E3D312C5641B7
:1054D2004C55453D390A0041545A0A0041542B4863
:1054E200574144433D360A0041542B4741545443EB
:1054F2004841523D312C0041542B424C45474554C2
:1055020050454552414444520A0041542B474150B0
:10551200444953434F4E4E4543540A0041542B478E
:105522004150534554414456444154413D30322D3B
:1055320030312D3000340A00DDD6D3CDCAC7C4C104
:10554200BD404D3639B10464042E04F5038803A12D
:1055520003BA03D303040A36720366032E03360327
:105562004C006F00750069007300650020004B005D
:105572006500790062006F00610072006400200023
:1055820028005500530042005F0044004C003200E6
:105592004400290000000A03590041004E00470060
:1055A20000000403090409026D00040100A0FA09C5
:1055B2000400000103010100092111010001224040
:1055C200000705810308000109040100010301022B
:1055D20000092111010001224D0007058203080084
:1055E2000109040200010300000009211101000168
:1055F2002236000705830308000A09040300010399
:10560200000000092111010001223900070584036D
:105612001000011201100100000008EDFE412101FD
:10562200000102000105010906A101050719E0298F
:10563200E715002501950875018102050819012960
:1056420005950575019102950175039101050719EB
:1056520000297715002501957875018102C00501A1
:105662000980A101850216010026B7001A01002A4D
:10567200B700751095018100C0050C0901A10185D3
:1056820003160100269C021A01002A9C027510953D
:10569200018100C005010902A1010901A10005095A
:1056A200190129051500250195057501810295014C
:1056B200750381010501093009311581257F9502A4
:1056C2007508810609381581257F950175088106BF
:1056D200050C0A38021581257F950175088106C0DF
:1056E200C005010906A101050719E029E7150025F2
:1056F2000195087501810295017508810105081956
:105702000129059505750191029501750391010520
:1057120007190029FF150026FF009506750881006C
:02572200C000C5
:106000008800EA40E940E24004000500060007007D
:10601000080009000A000B000C000D000E000F0024
:1060200010001100120013001400150016001700D4
:10603000180019001A001B001C001D001E001F0084
:106040002000210022002300240025002600270034
:10605000280029002A002B002C002D002E002F00E4
:106060003000310032003300340035003600370094
:10607000380039003A003B003C003D003E003F0044
:1060800040004100420043004400450046004700F4
:10609000480049004A004B004C004D004E004F00A4
:1060A0005000510052005300540055005600570054
:1060B000580059005A005B005C005D005E005F0004
:1060C0006000610062006300640065008500670095
:1060D000F450F550F650F750F850F950FA506F0060
:1060E0007000710072007300890087008A008B00C5
:1060F000E000E100E200E300E400E500E600E70084
:106100000100010001000100010002F00100010096
:106110000100010092410100010001004A004B0012
:106120000100010001000100010001000100010067
:106130006F40010001000100704001003A003B0087
:106140003C003D003E003F00400041004200430053
:10615000010035004C000100010044004500010031
:1061600001000100010050004F0029004D004E00C9
:1061700051000100010001000100010001000100C7
:106180000100010001000100010001000100010007
:106190000100010001000100010001000100E940CF
:1061A000E240EA400100010001000100010001009D
:1061B00001000100010001000100010001000100D7
:1061C00001000100010001000100010001000100C7
:1061D00001000100010001000100010001000100B7
:1061E000010001000100010049000100010001005F
:1061F0000100010001000100010001000100010097
:106200001100010001000100010001000100010076
:106210000100010001000100010001000100010076
:106220000100010001000100010001000100010066
:106230000100010001000100010001000100010056
:106240000100010001000100010001000100010046
:106250000100010001000100010001000100010036
:106260000100010001000100010001000100010026
:106270000100010001000100010001000100010016
:106280000100010001000100010001000100010006
:1062900001000100010001000100010001000100F6
:1062A00001000100010001000100010001000100E6
:1062B00001000100010001000100010001000100D6
:1062C00001000100010001000100010001000100C6
:1062D00001000100010001000100010001000100B6
:1062E00001000100010001000100010001000100A6
:1062F0000100010001000100010001000100010096
:106300000100010001000100010001000100010085
:106310000100010001000100010001000100010075
:106320000100010001000100010001000100010065
:106330000100010001000100010001000100010055
:106340000100010001000100010001000100010045
:106350000100010001000100010001000100010035
:106360000100010001000100010001000100010025
:106370000100010001000100010001000100010015
:106380000100010001000100010001000100010005
:1063900001000100010001000100010001000100F5
:1063A00001000100010001000100010001000100E5
