:100000000C94F8000C9415010C9415010C94150136
:100010000C9415010C9415010C9415010C94150108
:100020000C9415010C9415010C9420130C94F513E9
:100030000C94080A0C9415010C9415010C941501EC
:100040000C9415010C94CC040C9415010C9415011E
:100050000C9415010C9449210C9415010C94150174
:100060000C9415010C949F090C9415010C94150126
:100070000C9415010C9415010C9415010C941501A8
:100080000C9415010C9415010C9415010C94150198
:100090000C9415010C9415010C9415010C94150188
:1000A0000C9415010C9415010C941501B306BD06B2
:1000B000BD06C606C606D906D906ED06ED06E90850
:1000C000F208F208F208F208F408F408F408F70855
:1000D000F708F708F708F708F708FA08FA08FA081F
:1000E000FA08FA08FA08FD08FD08FD085E148114F4
:1000F000411581144115C614E91441150B151E153F
:1001000052175217A017A01722186B18C31AC31A38
:10011000A118C31AF817F817351A4A1AC31AB01AD1
:1001200029081A1415178080131C182A0C12318004
:1001300039071604090A808033800B280D0E0F80C2
:1001400079061B1D190580803738117D10365280C5
:10015000787A807B8065808051802C4F807E5080B3
:10016000FFEF80000000000001010102020304050E
:10017000050607090A0B0C0E0F1112141517191B8F
:100180001D1F212325282A2C2F313436393B3E418F
:100190004346494C4F5255585A5D6164676A6D70C9
:1001A0007376797C7F8386898C8F9295989B9EA2AB
:1001B000A5A7AAADB0B3B6B9BCBEC1C4C6C9CBCEA3
:1001C000D0D3D5D7DADCDEE0E2E4E6E8EAEBEDEE28
:1001D000F0F1F3F4F5F6F8F9FAFAFBFCFDFDFEFE9A
:1001E000FEFFFFFF626200280083150874320000E2
:1001F00011241FBECFEFDAE0DEBFCDBF15E0A0E0D7
:10020000B1E0E8EDF0E502C005900D92A431B10730
:10021000D9F728E0A4E1B5E001C01D92A332B207EE
:10022000E1F70E941D0F0C946A280C940000E82F3F
:10023000F0E080E1989FE00DF11D1124E05EFE4F9B
:10024000849108950F931F93CF93DF938C01D62F42
:10025000C42F0E94A220F8019281D13029F0F8F039
:10026000D43009F456C060C0992309F44FC09C2FC4
:100270009270C0FD9062982321F080FD02C085E35A
:1002800007C09C2F9470892311F08DE301C089E28F
:1002900080931605809116050E94411643C0C23016
:1002A000D9F048F4CC2389F0C13031F524E3209310
:1002B000140528E21FC0C430C9F098F0C530E1F43D
:1002C00021E3209314052AE215C029E220931505A5
:1002D00025E32093140510C028E32093140527E399
:1002E00009C028E32093140522E504C023E32093EA
:1002F00014052FE020931505992341F085FF03C0D5
:1003000080911405C5CF80911505C2CF8091160547
:1003100007C0992321F0827239F48CE2BDCF8CE2C0
:100320000E946F160E94DC20F8018281882381F1EF
:10033000D330A9F048F4D23059F585E0DF91CF9160
:100340001F910F910C942C0EDA30D9F0DB3001F5AF
:100350008C2FDF91CF911F910F910C94E90E90910A
:10036000630581E089278093630590917F0788E882
:10037000892780937F07DF91CF911F910F910C9474
:1003800013048C2FDF91CF911F910F910C948C0649
:10039000DF91CF911F910F910895611107C0FC016A
:1003A0008281882319F080E09FE5089580E090E045
:1003B0000895883018F4799B05C002C01B9B02C0C9
:1003C00080E0089580E8089523982B9A80E18A952B
:1003D000F1F70895E5E6FEE7E491EC3429F4109294
:1003E000040110921E01089587988F9A6A98729A54
:1003F00081E00E941921629B10921E0180912308C6
:10040000909124088A3A9B4BD9F4109224081092B8
:10041000230880911E01882399F0879A8F98559A16
:100420005D986E9A769A229A2A9A8FEF91E12AE73E
:10043000815090402040E1F700C000000C94C909B1
:1004400008950E94450684B18A6084B985B18A60A6
:1004500085B98198899A08952F923F924F925F9221
:100460006F927F928F929F92AF92BF92CF92DF92C4
:10047000EF92FF920F931F93CF93DF93CDB7DEB729
:1004800027970FB6F894DEBF0FBECDBF0E942E2176
:1004900020915705309158058217930709F4B8C089
:1004A0009093580580935705239A2B9A80E2299AB6
:1004B000000029988150D9F72B98299A0000299893
:1004C0000E94E40199E5E92E95E0F92E212C412CBA
:1004D000C12CD12C27E1A22E25E0B22E66246394F4
:1004E000712C4CE0842E912C8501312CFF82EE8200
:1004F000532C569430FE02C088E0580E852D0E9481
:10050000D901F80190819695892B80838038B9F4C0
:10051000442019F04394108212C085E0D82E852D16
:100520000E94D901F80190819695982B9083882399
:1005300019F0DA94D110F3CF680144244394F7E022
:10054000F51538F4239A2B9A299A000029980E94CD
:10055000E401F70120813181C301052C02C0880F1D
:10056000991F0A94E2F7F80141918F014B3F18F06F
:10057000822B932B06C0433038F4809590958223CC
:100580009323F70191838083F7018081918128175C
:100590003907A1F059822A8281E04B3F08F480E0BC
:1005A0008B830E942E2181609D838C83CE010196D6
:1005B0000E941416CE0101960E9480043394F0E14B
:1005C0003F1296CF80E1A80EB11CE2E0EE0EF11CC6
:1005D000EE81FF8180819181892B89F080910B01CF
:1005E00082FD09C08091220880FD05C09092BA0664
:1005F0008092B90604C01092BA061092B9062394EC
:10060000F4E02F1271CF86E0841510F4F601108209
:1006100081E027960FB6F894DEBF0FBECDBFDF9105
:10062000CF911F910F91FF90EF90DF90CF90BF90EF
:10063000AF909F908F907F906F905F904F903F9082
:100640002F900895809118018A30F0F00E942C02BA
:10065000E7E1F5E098EE80E02191222329F0923045
:1006600010F48C5901C08F5F9F5F9832A9F7883CC6
:1006700001F580911E01811105C081E08093180170
:1006800080931D0191E016C0239A2B9880E2299A4D
:10069000000029988150D9F70E94E40180E00E946F
:1006A000D9018111EFCF88E00E94D90191E0811139
:1006B00001C090E0892F08956E9A7698809A889864
:1006C000229A2A98E0E0F2E6E491A5E6B5E0EC9300
:1006D000E0E0F3E6E4911196EC931197E0E0F4E6A4
:1006E000E4911296EC930895811102C0769A07C0A6
:1006F000813011F4889A03C0823009F42A9A21E0EB
:1007000030E0A90102C0440F551F8A95E2F7CA01E3
:1007100090916405892B809364050895811102C02E
:10072000769807C0813011F4889803C0823009F4AC
:100730002A9821E030E0A90102C0440F551F8A9594
:10074000E2F7CA018095909164058923809364053E
:100750000895EF92FF920F931F93CF93DF93D82FBB
:1007600005E615E0C0E0E62EF12CDD2331F0F801BE
:1007700080818D1B883088F401C08C2F970102C0C6
:10078000359527958A95E2F720FF04C08C2F0E94AB
:10079000740303C08C2F0E948E03CF5F0F5F1F4F27
:1007A000C33019F7DF91CF911F910F91FF90EF9018
:1007B00008956091640580E00C94A903CF92DF92C4
:1007C000FF920F931F93CF93DF93F82E05E615E06A
:1007D000C0E0D0E0CC24C394D12CF80181918F01EA
:1007E0008F110DC020916405C6010C2E01C0880F29
:1007F0000A94EAF78227809364050E94D903219620
:10080000C330D10551F7DF91CF911F910F91FF9028
:10081000DF90CF900895669581E00C94A9036695CA
:1008200089E00C94A9036091630585E10C94A90308
:10083000682F80E10E94A9030C941304F8943E9A57
:10084000E0E9F0E0808181688083E1E9F0E0808187
:100850008360808378940895F8943E98E0E9F0E00E
:1008600080818E778083E1E9F0E080818C7F8083D6
:10087000109299001092980078940895CF939091D7
:100880006205992341F0809122088E7F809322088F
:100890001092DC0730C0C82F0E945823C730A8F43C
:1008A000C430E8F4C13038F11092DC0710926C05C6
:1008B0000E941E04EC2FF0E0E05AFE4FE491F0E0BD
:1008C000F0939900E093980019C0C930A0F40E94F9
:1008D0001E041092DC0781E080936C050FC081E05C
:1008E0008093DC0710926C050E941E0487E08C1B2D
:1008F00080936D0503C0CF910C942C04CF91089583
:10090000FC019091220890FF18C082818823A9F0F1
:10091000892F8E7F8E3039F480916B058A508A3012
:1009200050F48AE008C0803141F480916B05865F05
:10093000863708F086E780936B05089580916C05F3
:10094000882349F180916A058F5F863018F480937F
:100950006A05089510926A05E0916B05F0E0EC5984
:10096000FE4FE491F0E0F0939900E09398008091BD
:1009700022088E7F8E3031F480916B058E3758F4CB
:100980008F5F07C0803139F480916B05823018F099
:10099000815080936B0508951F920F920FB60F92AE
:1009A00011242F933F934F935F936F937F938F9374
:1009B0009F93AF93BF93EF93FF938091DC078823BE
:1009C00061F18091680590916905019690936905A0
:1009D0008093680520916D0530E028173907E8F409
:1009E0001092690510926805E0916B05F0E0EC59F2
:1009F000FE4FE491F0E0F0939900E093980090911D
:100A0000050180916B05890F80936B058F3711F07D
:100A1000811103C09195909305010E949E04FF915E
:100A2000EF91BF91AF919F918F917F916F915F9166
:100A30004F913F912F910F900FBE0F901F901895DF
:100A40002BB1362F309523233BB1632B3FB7F8945E
:100A5000FC0189E18150E1F0919148E06BB997FF89
:100A60002BB9990F000000C02BB9000000C000C0D6
:100A700000C000C000C000C000C000C000C000C076
:100A800000C000C000C000C000C04A9539F7E2CFE6
:100A90003FBF0895579A60E870E00C942005EF92EC
:100AA000FF920F931F93CF93DF9300D000D01F923C
:100AB000CDB7DEB7F90170E0869F9001879F300DBA
:100AC0001124232F3327042F10E0209FD001219FD2
:100AD000B00D309FB00D112420E031E07901E61A0D
:100AE000F70AE09E9001E19E300DF09E300D11243A
:100AF0003C833983832F8B0F8D838A834B1B4B83DE
:100B0000892F90E063E070E00E943E24DE01A80F90
:100B1000B91F12963C91DE01A80FB91F11962C91B6
:100B2000DE01A80FB91F13968C9181833083228335
:100B30000F900F900F900F900F90DF91CF911F911A
:100B40000F91FF90EF9008958AE090E00C94902729
:100B5000AB01BC018AE090E00C94AE2788E1EDED9A
:100B6000F7E0DF011D928A95E9F70895EDEDF7E0D2
:100B7000808123E0829FC0011124959587959595EA
:100B80008795819387E0E53FF80791F78DED97E032
:100B90000C944A0520910B0122FF15C025EF37E088
:100BA0000E944F05EDEDF7E08091F5079091F60773
:100BB000A091F70781939193A19387E0E53FF80710
:100BC00099F70C94B60508950F931F93CF93DF9375
:100BD00020910B0122FF24C0D42F162FC92F082FDC
:100BE000287F283011F40E94CA0500930A01C370BF
:100BF00090910B019C7FC92BC0930B0110930C01AA
:100C0000D0930D0160910A0170910B0180910C014C
:100C100090910D01DF91CF911F910F910C94A80538
:100C2000DF91CF911F910F91089590910B0192FF49
:100C30002BC087FD04C087311CF080E001C086E135
:100C4000880F880F880F90910B019770892B8093E4
:100C50000B0160910A0170910B0180910C01909140
:100C60000D010E94A80590910B01892F869586950C
:100C7000869509F05E9840910D0160910C0180917C
:100C80000A0193700C94E40508950E94A4056093F2
:100C90000A0170930B0180930C0190930D018091D8
:100CA0000D01811103C08FE780930D01569A809149
:100CB0000B0182FF05C08695869586950C941506D6
:100CC0000E94B6055E9A089580910B0182FB22274F
:100CD00020F991E0922790FB82F980930B016091BB
:100CE0000A0170910B0180910C0190910D010E94FD
:100CF000A80580910B0182FF05C086958695869593
:100D00000C9415060E94AE050E94B6058091190844
:100D1000843009F05E9A0895CF92DF92EF92FF92AD
:100D20000F931F93CF93DF93C82ED0900A01D091D9
:100D30000B01D370E0900C0140910D01042F80FF56
:100D400002C0CFEF01C0C1E00E94A22081FDC19589
:100D50004C2D50E04930510508F052C0FA01EA5AD2
:100D6000FF4F0C946624DF91CF911F910F91FF905C
:100D7000EF90DF90CF900C94640680910B018695E4
:100D8000869586958C0F0E9415063AC080910A01BF
:100D900020910B01922F93709D5F24E1C202800D80
:100DA000911D112460E073E00E945224D82ED92FA7
:100DB0002AC080910C0191E1C90270011124E80E52
:100DC000F11C2FEFE216F10409F01CF4F7FC29C026
:100DD0001AC0EE24EA94F12C16C080910D0191E125
:100DE000C902A00111248A01080F111D0F3F11052E
:100DF00009F01CF417FD18C006C00FEF10E003C087
:100E000022E02C15A0F4402F6E2D8D2D9D2FDF910B
:100E1000CF911F910F91FF90EF90DF90CF900C94A6
:100E2000E405E12CF12CEFCF00E010E0ECCFDF91F6
:100E3000CF911F910F91FF90EF90DF90CF90089589
:100E4000EDEDF7E0818360834283339697E0E53FE1
:100E5000F907C1F70C94B605FC019091F00680816A
:100E6000803449F581818B3B21F4CF0103960C94AA
:100E7000BC0B933019F482810C941506943021F444
:100E8000438162810C9420079530A9F4883068F47E
:100E9000A82FB0E084819381228111962C93119721
:100EA0009C9312968C930C94B6058F3F21F482810B
:100EB00093810C94EC1A0895CF93C82FE0917B0591
:100EC000F0E0EC59FE4F449190910B0160910C01C0
:100ED00080910A0193700E94CA0530910901209106
:100EE0007B053C9F200D112420937B052C1738F0A7
:100EF0008C2F90E0820F911D8F3791051CF031955A
:100F000030930901CF910895CF93C82FEAE0F1E023
:100F1000438162818091790590917A050E94CA058A
:100F20008091790590917A0523E0C29F800D911DF3
:100F3000112460E073E00E943E2490937A05809330
:100F40007905CF910895AF92BF92CF92DF92EF9241
:100F5000FF920F931F93CF93DF93082F182F1695AF
:100F60006DEDC62E67E0D62EE12CF12CA12C73E09E
:100F7000B72E80917705909178058E0D9F1DC0E06A
:100F8000D3E0B5010E943E24960140910D0160918D
:100F90000C010E944F0580E3E80EF11C83E0C80EAF
:100FA000D11C80E8E81681E0F80619F70E94B60522
:100FB0008091770590917805212F30E000FF08C0DF
:100FC00054E0220F331F5A95E1F7820F931F08C098
:100FD0009D5F44E0220F331F4A95E1F7821B930B7C
:100FE000BE010E943E249093780580937705DF919F
:100FF000CF911F910F91FF90EF90DF90CF90BF9016
:10100000AF900895CF92DF92EF92FF920F931F93CC
:10101000CF93DF93909176059F5F282F2695291710
:1010200058F090937605DF91CF911F910F91FF902B
:10103000EF90DF90CF900895C82F109276050E9410
:10104000AE05C0FF02C01FEF01C011E054E0D52E75
:1010500000E068E0E62EF12CC0E0D3E0C09008018B
:101060001003C00111248C0D911DC7FC9A950896A0
:10107000B7010E9452249C01220F331F820F931F3D
:101080009C012352384F80910A0140910B01942F0B
:10109000937042E3049F800D911D1124BE010E94B4
:1010A000522440910D0160910C010E944F050F5F89
:1010B000DA94D110D3CF1C0D19301CF01092080116
:1010C00008C017FD03C01093080103C088E0809397
:1010D0000801DF91CF911F910F91FF90EF90DF906A
:1010E000CF900C94B605909175059F5F891718F005
:1010F000909375050895109275050E94AE0520E045
:1011000030E090E080910701A901480F511D87FD53
:101110005A9548305105A8F4820F877090E0FC0181
:10112000EE0FFF1F8E0F9F1FFC01E352F84F8091BF
:10113000F5079091F607A091F70780839183A2832A
:1011400091E02F5F3F4F24303105E1F691110E946D
:10115000B6059091060180910701890F80930701E0
:101160008D5F8B30C0F0919590930601809173054F
:1011700090917405889660E073E00E943E249093FD
:1011800074058093730525EF37E040910D01609160
:101190000C010C944F05089580916105882331F06E
:1011A0005E9A80910B018B7F80930B0190910B01D4
:1011B00092FF26C05E9924C0892F869586958695D4
:1011C000E82FF0E0E731F105D8F4E15AFF4F0C9435
:1011D000662440910D0160910C0180910A01937089
:1011E0000C94CA050C945C0784500C9484078650B8
:1011F0000C94A3078D500C94020883510C9473082F
:101200000895769888982A980E942C045E9A0895EA
:101210000E9445060E94D90380911801843018F07D
:1012200081E080931C0108955E991CC08091710536
:10123000909172050E943A218997A0F00E942E2178
:1012400090937205809371058091B50681110AC053
:1012500080911C01882321F080911E01811102C020
:101260000C94CC08089580916F05909170050E94B0
:101270003A218739910508F446C00E942E219093A7
:10128000700580936F0580916E058F5F80936E056A
:101290009091B5069923B9F08430A8F1913011F0FE
:1012A00080E001C083E080936E05379B08C00E94F8
:1012B0002C045E9A95B184E0892785B9089510922F
:1012C000B5060C94080990911C019923E1F0813036
:1012D00011F42A98889880916E05833031F42A9A07
:1012E0008091B806882329F0889A8091B8068111E8
:1012F00004C080916E05853020F480916E058B309E
:1013000010F010926E05089520917C0580917D0566
:10131000821759F030E0F901E258FA4F80812F5FCF
:101320003F4F20937C0590E008958FEF9FEF089545
:101330009091C80095FFFCCF8093CE0008951F9236
:101340000F920FB60F9211242F933F934F938F93C9
:101350009F93EF93FF9380917D0590E09C012F5F19
:101360003F4F40917C05421741F03091CE00FC0187
:10137000E258FA4F308320937D05FF91EF919F91C2
:101380008F914F913F912F910F900FBE0F901F9013
:1013900018950E94BC1680911801823050F48FE19C
:1013A0009EE40197F1F700C000000E94A7120E947E
:1013B000DA09FFCF9EE088E10FB6F894A8958093F4
:1013C00060000FBE909360000895809119088430EA
:1013D000E1F081E080937E0629E488E190E00FB699
:1013E000F894A895809360000FBE209360000E943F
:1013F000010983B7817F846083BF83B7816083BF26
:101400007894889583B78E7F83BF08950C940809DC
:101410001F920F920FB60F9211248F939F93AF9349
:10142000BF9380917E06813099F4809183079091DB
:101430008407A0918507B09186078096A11DB11DF4
:101440008093830790938407A0938507B0938607C2
:10145000BF91AF919F918F910F900FBE0F901F90F2
:10146000189580919906089508950C948409EF9237
:10147000FF920F931F93CF938C010E942E217C012A
:10148000C0E0C7010E943A218017910708F50E9429
:1014900084098F3F2FEF9207C9F0AC0155274D30DB
:1014A0005105A1F02C2F30E04A30510551F4C230E3
:1014B00030F0F901E258F94F80818F3449F08FE51F
:1014C00090E0F901E058F94F8083CF5FC731C8F24F
:1014D000EC2FF0E0E058F94F108280E896E0CF91D1
:1014E0001F910F91FF90EF900895CF93DF935D9937
:1014F00007C0EC018991882319F00E949809FACF5E
:10150000DF91CF9108959C012F563109223031058A
:1015100028F02A5731092230310588F420919C06A1
:1015200030919D06232B31F429E732E030939D065C
:1015300020939C0690939B0680939A0604C0109279
:101540009D0610929C0620919E06211116C09F9325
:101550008F938BE391E09F938F9388EF97E09F9316
:101560008F930E94D5240F900F900F900F900F90A3
:101570000F9088EF97E00C94750A0895CF93DF934E
:10158000EC0180919E06811132C08C81282F082E9B
:10159000000C330B3F938F938B81282F082E000C68
:1015A000330B3F938F938A81282F082E000C330B27
:1015B0003F938F938981282F082E000C330B3F9384
:1015C0008F9383E591E09F938F9388EF97E09F93AC
:1015D0008F930E94D52488EF97E00E94750A8DB7FB
:1015E0009EB70C960FB6F8949EBF0FBE8DBF80912C
:1015F0009E0681111FC08881909198068917D1F0AD
:10160000809398061F928F9383E791E09F938F9327
:1016100086E098E09F938F930E94D5240F900F90BF
:101620000F900F900F900F9088EF97E0DF91CF9180
:101630000C94750ADF91CF9108950E94750A84E693
:1016400090E00C94370ACF93DF93EC0186E90E9477
:101650001921CE01DF91CF910C941D0BCF93DF9315
:1016600020919F0621114FC020919E0621114BC051
:10167000EC018EE791E00E94750A209731F482E92F
:1016800091E0DF91CF910C941D0B8F811F928F936E
:101690008E811F928F938D811F928F938C811F92C9
:1016A0008F938B811F928F938A811F928F93888152
:1016B0001F928F9389E991E09F938F9388EF97E032
:1016C0009F938F930E94D52488EF97E00E94750A1C
:1016D0008DB79EB742960FB6F8949EBF0FBE8DBFD2
:1016E0008881811110C08A81833531F0893331F0CE
:1016F000873449F482E103C080E101C081E1DF91D8
:10170000CF910C94DE03DF91CF91089580E090E0BB
:101710000C942E0B80919C0690919D060097F1F001
:101720008230910530F0019790939D0680939C063E
:10173000089520917F062F5F20937F0680919A065F
:1017400090919B0630E043EF50E0481B590B241763
:10175000350720F010927F060C94830A089580ECE0
:1017600091E00C94230B803319F481ED91E002C0D9
:1017700080EE91E00C94230BCF93DF93EC018FEE7E
:1017800091E00E94750ACE010E94750A87E991E0F6
:10179000DF91CF910C94230B8EEF91E00C94BC0B56
:1017A00089E092E00E941D0BFC018081089588E190
:1017B00092E00C94230B559A5D980E942521F89491
:1017C00087E68093CC001092CD008091C90080699B
:1017D0008093C9008091C90088608093C90080917E
:1017E000CA008093CA008091C80082608093C800BC
:1017F000789488E292E00E94230B88E292E00E94B3
:101800001D0BFC018081813421F48181843551F5E7
:1018100005C08F3439F581818B3421F50E94AF0BDF
:1018200088E292E00E94230B8CE292E00E94230B5C
:101830000E94CC0B80EE91E00E94230B83E392E0A8
:101840000E94230B0E94D70B83E492E00E94230B9B
:1018500080E692E00E94230B8CE992E00E94230B29
:101860000E94C909F8948CE08093CC00789488E2B7
:1018700092E00C94230BCF935E9903C0882309F464
:10188000A1C0C82F8FEA92E00E941D0BFC0162816B
:1018900080ED860F8A3008F05EC0408150E04053F2
:1018A000510984E6849FD001859FB00D1124818168
:1018B00090E0C0974AE0489F9001499F300D112465
:1018C0002A0F3B1F260F311D43E0220F331F4A957D
:1018D000E1F72A5432402C3C40E1340788F48091EF
:1018E0001A0190911B0183374EE0940709F4C90156
:1018F000280F391F3695279530931B0120931A0125
:1019000037990DC081E08093B40680911A019091BF
:101910001B01889790931B0180931A0102C01092BB
:10192000B40620911A0130911B0184E03695279569
:101930008A95E1F720542093B706223A18F01092C6
:10194000B50609C0253910F481E003C02D3918F41B
:1019500085E08093B506C130A9F59091B706EAE21B
:10196000F3E08AE52191921718F48A50D9F78CE2B6
:101970002091B5062111822F2091B406C22FC80FE5
:10198000211103C0923C08F0C4E6C09319018BEB0F
:1019900092E00E94750A1F92CF938FE691E09F9389
:1019A0008F9388EF97E09F938F930E94D5240F9099
:1019B0000F900F900F900F900F9088EF97E0CF91BE
:1019C0000C941D0BCF9108953F98479A81E00C9499
:1019D0003B0CCF939091190881E0943009F080E09E
:1019E00080931D018091290187FF0DC00E945A1527
:1019F0008E50914051F18EE091E00E9455158091FA
:101A000063058D7F0CC00E945A158F51914061F083
:101A10008FE191E00E94551580916305826080936B
:101A200063050E94130411C080911D0181110DC036
:101A300080911E01882331F0809129018068809374
:101A4000290103C08CE08093180180911E01882336
:101A500009F400C15D99F7C0CAE10E94350A0196F8
:101A600011F0C150D1F780911801823031F481E03A
:101A70000E943B0C83E0809318018091B306882379
:101A800021F10E94D00B813301F58AEC92E00E9493
:101A90001D0BFC0122812A33C1F441E150E060EAD0
:101AA00076E00E94C824892B31F01092B30681E0C1
:101AB0008093B8060AC08DED92E00E941D0B8091C4
:101AC0001C018F3010F01092B3068091BE06811178
:101AD00099C08091BB069091BC060E943A21893E34
:101AE000934008F48FC00E942E219093BC068093EF
:101AF000BB068091B806811105C08091B3068111A3
:101B00002FC008C08091B2068F5F8093B2068370A9
:101B1000A1F33DC00E94D00B813321F481E080937A
:101B2000B8061CC08033E1F41092B8068091BD065F
:101B30008F5F8093BD0690911D01911111C090910E
:101B40001801992369F08A3558F05D9A8091C9008F
:101B5000877F8093C90084E0809318011092BD06AE
:101B600080911C01882399F0843629F410921C017D
:101B70000E94D9030CC08F5F80931C01843120F434
:101B80008091B806882319F084E680931C01809127
:101B9000B1068F5F8093B106877021F48091B406FF
:101BA0000E943B0C80911D0181112CC080911C0171
:101BB000811128C08091B9069091BA060196909340
:101BC000BA068093B90620911801213039F40F9795
:101BD00028F00E94860B82E0809318018091180102
:101BE000833081F48091B9069091BA06883293428D
:101BF00048F084E0809318015D9A8091C900877F46
:101C00008093C9008091B6068823D9F08C3079F092
:101C1000823119F48AE093E00CC0853161F40E94AE
:101C2000D70B80E30E94B30B81E30E94B30B8FEECE
:101C300092E00E941D0B1092B60685E293E00E948E
:101C40001D0B0E948A0B80911801823018F4CF91ED
:101C50000C943309CF910895CF93DF93C82F0E943E
:101C6000A220D82F0E94BC16C53191F198F4CC3037
:101C700059F118F4C530F1F1A8C0C23129F1C331CE
:101C800009F0A3C09091180181E089278093180181
:101C900060E069C0C93109F44CC028F4C63101F1D3
:101CA000C83141F092C0CC3B09F460C0C03C09F49B
:101CB0007AC08BC080911E01882341F09091290148
:101CC00090589093290182C0C093B60681E07EC0EF
:101CD000D0FF7BC0C093B60681E080931C0176C024
:101CE00080911C01811102C081E001C084E68093D3
:101CF0001C01ECCF8D2F837251F0DD7DD13031F49A
:101D00008BE29CEF9093010880930008FFCFDC30BA
:101D100039F48AEA9BEB9093240880932308FFCF41
:101D200082E39FE00E94EC1A82E39FE10E94EC1A9A
:101D3000CDCF8091190160E090E00E94F81AD0FFA9
:101D40000BC08DE290E00E94EC1A60E080911A01D5
:101D500090911B010E94F81A8DE290E00E94EC1A0B
:101D600060E08091B8060E94FA16B0CF0E94D00BB6
:101D7000813309F0ABCF8AEC92E00E941D0BFC018D
:101D800082818A3309F0A2CF81E08093B3068093E9
:101D90001C011092B80691E1A0EAB6E001900D9204
:101DA0009A95E1F713C080911D0181118FCF5D9A43
:101DB0008091C900877F8093C9008AE080931801D1
:101DC0001092B8060E94311F81CF80E0DF91CF9141
:101DD0000895CF93DF93CDB7DEB729970FB6F89468
:101DE000DEBF0FBECDBF96E0E2E3F1E0DE0111966B
:101DF00001900D929A95E1F72091380130913901C7
:101E000040913A012F8338874987282F30E08B3063
:101E100018F0ECEFFFEF02C0E1E0F0E0EC0FFD1F87
:101E2000E20FF31F808129960FB6F894DEBF0FBE34
:101E3000CDBFDF91CF910C942C0ECF9390E080E832
:101E40000FB6F89480936100909361000FBE0E94DA
:101E5000EA010E9402137894CFEF80911908C150D3
:101E6000843029F083E00E941921C111F6CF8091BE
:101E70001E01882321F00E94DB0B0E94E40C0E94CB
:101E8000AD150E94DA09C1E080911801843038F460
:101E9000A895823010F40E94B7150E94E90C809139
:101EA0001801823040F480911E018111EDCF8091A4
:101EB0001908843049F30E94E5090E94DA090E945A
:101EC0002203882309F31092BA061092B9060E94E1
:101ED0000809C093180180911E01882339F05D988C
:101EE0008091C90088608093C900CECF8091190885
:101EF000853051F60E948311C7CF8091D006089596
:101F00008FEF9091E800815095FD06C09AE69A9572
:101F1000F1F700C08111F5CF8091E80085FB88279B
:101F200080F991E089270895CF93DF9300D01F9225
:101F3000CDB7DEB7209119082430B9F423E0298306
:101F40009B838A832093E9000E94800F81110DC03A
:101F500040E050E063E070E0CE0101960E949811ED
:101F60008091E8008E778093E8000F900F900F909B
:101F7000DF91CF910895CF93DF9300D01F92CDB71B
:101F8000DEB7209119082430C1F422E029839B8315
:101F90008A8383E08093E9000E94800F81110DC045
:101FA00040E050E063E070E0CE0101960E9498119D
:101FB0008091E8008E778093E8000F900F900F904B
:101FC000DF91CF910895CF93DF93209119082430AA
:101FD000A1F4EC0182E08093E9000E94800F81115E
:101FE0000CC040E050E065E070E0CE010E94981126
:101FF0008091E8008E778093E800DF91CF9108957B
:10200000CF93DF93EC01909119089430B9F580914A
:10201000290181718131B9F49093E9008FEF90919A
:10202000E800815095FD06C095E19A95F1F7000012
:102030008111F5CF8091E80085FF20C040E050E09D
:1020400060E170E00BC081E08093E9000E94800FA6
:10205000811114C040E050E068E070E0CE010E94C1
:1020600098118091E8008E778093E80080E1FE016E
:10207000A0ECB6E001900D928A95E1F7DF91CF9147
:10208000089580911808811109C00E94A7120E942A
:1020900002138091E20084608093E2000895109220
:1020A000180808950895089542E061EC81E00E94C7
:1020B000411242E061EC82E00E94411242E061EC98
:1020C00083E00E94411242E161EC84E00C944112F1
:1020D00080911B08833009F455C030F4813071F0D1
:1020E000823009F48EC008958A3009F47AC08B30AA
:1020F00009F460C0893009F09CC020C080911A08A2
:10210000813A09F096C08091E800877F8093E800CB
:1021100080911E0890911F08892B21F460E180ECCA
:1021200096E003C060E080E090E070E00E94E31180
:102130008091E8008B778093E800089580911A08D9
:10214000813209F076C080911E0890911F08009797
:1021500019F0039709F06DC08091E800877F8093A4
:10216000E8008091E80082FD05C080911908811186
:10217000F8CF5FC08091F1008093D0068091E80095
:102180008B7753C080911A08813A09F052C0809130
:102190001E0890911F08892B09F04BC08091E80020
:1021A000877F8093E8008091E80080FFFCCF8091DA
:1021B000290136C080911A088132D9F580911E0814
:1021C00090911F08892BA9F58091E800877F809363
:1021D000E8000E94551280911C08809329010C94FC
:1021E000BC1680911A08813221F58091E800877F22
:1021F0008093E8000E94551280911D088093D106BB
:10220000089580911A08813AA1F48091E800877FAF
:102210008093E8008091E80080FFFCCF8091D10698
:102220008093F1008091E8008E778093E8000C9411
:10223000551208958091D0068093BF061092D00663
:1022400080E00E9418040E9413160C94BC160C9493
:102250001A110E94060A8091BF068093D006089545
:102260000C942911292F332723303105C1F058F45C
:102270002130310579F022303105E9F58DE690E025
:1022800028E933E03CC021323105C1F0223231056A
:1022900011F131C082E190E025E034E030C09927AF
:1022A0008330910540F5FC01EE0FFF1FE65BFC4F0C
:1022B00020813181FC01E95BFC4F1AC06430D8F405
:1022C000E62FF0E0EE0FFF1FE15CFC4F2081318133
:1022D00089E090E014C0643070F470E0FB01EE0F10
:1022E000FF1FE95CFC4F20813181FB01ED5CFC4F5D
:1022F000808190E004C080E090E020E030E0FA01CE
:1023000031832083089519BC82E089BD09B400FEA1
:10231000FDCF8091D8008F7D8093D8008091E00020
:1023200082608093E0008091E00081FDFCCF089501
:10233000CF92DF92EF92FF920F931F93CF93DF9391
:10234000EC018B017A010E947412811133C0E114F7
:10235000F10439F0F70180819181081B190BC80F36
:10236000D91FC12CD12C0115110519F18091E8005C
:1023700085FD16C08091E8008E778093E800E11417
:10238000F10449F0F70180819181C80ED91ED182F4
:10239000C08285E00FC00E947412882321F30AC016
:1023A00089918093F10001501109FFEFCF1ADF0AE4
:1023B000DACF80E0DF91CF911F910F91FF90EF90E6
:1023C000DF90CF90089520912008309121082617A2
:1023D000370748F06115710539F42091E8002E7730
:1023E0002093E80001C0B901FC0120E061157105EE
:1023F00079F1809119088823F1F18530F1F180910C
:10240000E80083FD3CC08091E80082FD2EC08091F1
:10241000E80080FFEBCF2091F3008091F20090E084
:10242000922B6115710551F08830910538F4219196
:102430002093F100615071090196F3CF21E00897D4
:1024400009F020E08091E8008E778093E800CECFFD
:102450002111CFCF0AC080911908882361F08530FF
:1024600061F08091E80083FD0AC08091E80082FF5E
:10247000F2CF80E0089582E0089583E0089581E03E
:1024800008958F708093E900EBEEF0E08081816029
:102490008083EDEEF0E010826093EC004083809149
:1024A000EE00881F8827881F089580911A0887FFEB
:1024B00011C08091E80082FD05C08091190881114A
:1024C000F8CF11C08091E8008B770BC0809119087C
:1024D000882349F08091E80080FFF8CF8091E800E0
:1024E0008E778093E80008952091E4003091E50014
:1024F00095E64091EC00842F817040FF23C08091CD
:10250000E80080FD1DC080911908882399F085306E
:1025100099F08091EB0085FD11C04091E40050914D
:10252000E5002417350729F3915011F09A01E1CF06
:1025300084E0089582E0089583E0089581E008959D
:1025400080E008954091E80042FFDDCF08950E94A9
:1025500013130E941B13E0EEF0E080818160808302
:10256000E8EDF0E080818F77808319BCA7EDB0E0C3
:102570008C918E7F8C9380818F7E8083109218083F
:1025800008950F931F93CF93DF930E9413130E941C
:102590001B13C8EDD0E088818F778883888180689D
:1025A000888388818F7D888319BC109219081092C6
:1025B00016081092170800EE10E0F80180818B7F5A
:1025C000808388818160888342E060E080E00E94AF
:1025D0004112E1EEF0E080818E7F8083E2EEF0E058
:1025E000808181608083808188608083F801808120
:1025F0008E7F8083888180618883DF91CF911F9156
:102600000F910895E8EDF0E080818F7E8083E7ED03
:10261000F0E080818160808384E082BF81E08093EC
:1026200018080C94C112E8EDF0E080818E7F808361
:102630001092E20008951092DA001092E1000895DD
:102640001F920F920FB60F9211242F933F934F9327
:102650005F936F937F938F939F93AF93BF93EF930A
:10266000FF938091E10082FF0BC08091E20082FF26
:1026700007C08091E1008B7F8093E1000E9453109E
:102680008091DA0080FF1DC08091D80080FF19C0C2
:102690008091DA008E7F8093DA008091D90019BC96
:1026A00080FF0BC082E089BD09B400FEFDCF81E050
:1026B000809319080E94411004C0109219080E94CA
:1026C0004F108091E10080FF19C08091E20080FFEF
:1026D00015C08091E2008E7F8093E2008091E2003D
:1026E00080618093E2008091D80080628093D8005E
:1026F00019BC85E0809319080E9427118091E100A0
:1027000084FF35C08091E20084FF31C080911D01BB
:10271000811102C00E94C90919BC82E089BD09B4B7
:1027200000FEFDCF8091D8008F7D8093D8008091EE
:10273000E1008F7E8093E1008091E2008F7E8093A4
:10274000E2008091E20081608093E20080911608AF
:10275000882311F084E007C08091E30087FD02C068
:1027600081E001C083E0809319080E9430118091BC
:10277000E10083FF29C08091E20083FF25C08091A2
:10278000E100877F8093E10082E080931908109236
:1027900016088091E1008E7F8093E1008091E20035
:1027A0008E7F8093E2008091E20080618093E2005E
:1027B00042E060E080E00E9441128091F000886079
:1027C0008093F0000E945210FF91EF91BF91AF9162
:1027D0009F918F917F916F915F914F913F912F9139
:1027E0000F900FBE0F901F9018951F920F920FB66B
:1027F0000F9211242F933F934F935F936F937F9387
:102800008F939F93AF93BF93CF93DF93EF93FF93F8
:10281000C091E900CF708091EC00D82FD17080FD7D
:10282000D0E81092E9008091F000877F8093F0005B
:1028300078940E9439141092E9008091F000886029
:102840008093F000CD2BCF70C093E900FF91EF9102
:10285000DF91CF91BF91AF919F918F917F916F91B8
:102860005F914F913F912F910F900FBE0F901F904E
:1028700018951F93CF93DF9300D0CDB7DEB7EAE171
:10288000F8E082E298E02091F10021938E179F07F3
:10289000D1F70E9468108091E80083FFF2C0809118
:1028A0001A0890911B08492F50E04A30510508F052
:1028B000E8C0FA01EA58FF4F0C946624803881F092
:1028C000823809F0DEC080911E088F708093E90085
:1028D0008091EB0085FB882780F91092E90007C002
:1028E00080911708882311F082E001C080E0909168
:1028F000E800977F9093E8008093F1001092F10038
:1029000095C0282F2D7F09F0BCC0882319F0823094
:1029100061F0B7C080911C08813009F0B2C09330DB
:1029200009F080E0809317082BC080911C0881116A
:1029300027C080911E088F7009F4A3C08093E9001E
:102940002091EB0020FF1CC0933021F48091EB001C
:10295000806214C09091EB0090619093EB0021E0B5
:1029600030E0A90102C0440F551F8A95E2F7409359
:10297000EA001092EA008091EB0088608093EB00FF
:102980001092E9008091E800877F53C0811179C0DF
:1029900010911C081F778091E3008078812B809331
:1029A000E3008091E800877F8093E8000E94551241
:1029B0008091E80080FFFCCF8091E30080688093E5
:1029C000E300111102C082E001C083E08093190886
:1029D00058C08058823008F054C0AE014F5F5F4F3E
:1029E00060911E0880911C0890911D080E94321170
:1029F000BC01892B09F445C09091E800977F909322
:102A0000E80089819A810E94E3118091E8008B7728
:102A10008093E80036C08038A1F58091E800877F78
:102A20008093E800809116088093F1008091E8007F
:102A30008E778093E8000E94551223C0811121C037
:102A400080911C0890911D0899270297D4F48091D9
:102A5000E800877F8093E80080911C088093160827
:102A60000E94551280911608811106C08091E300E2
:102A700087FD02C081E001C084E0809319080E94B4
:102A800054108091E80083FF0AC08091E800877F9E
:102A90008093E8008091EB0080628093EB000F90C0
:102AA0000F90DF91CF911F9108959093D706809357
:102AB000D60608958091D6069091D7060895E091A4
:102AC000D606F091D706309721F00190F081E02DE5
:102AD000099480E00895E091D606F091D7063097EA
:102AE00021F00280F381E02D09940895E091D6064B
:102AF000F091D706309721F00480F581E02D0994FC
:102B000008952091D4063091D5062817390771F021
:102B10009093D5068093D406E091D606F091D7061F
:102B2000309721F00680F781E02D099408952091D7
:102B3000D2063091D3062817390771F09093D30647
:102B40008093D206E091D606F091D706309721F017
:102B50000084F185E02D099408950E9425210E94AA
:102B600021020E945C030E9446230C9491230E9440
:102B70002C0280E090E00E9414160E9414090E942A
:102B800047228091F006882389F08091EE0690918B
:102B9000EF060E943A218C34910540F01092ED0628
:102BA00089ED96E00E942C071092F0060E945F15B6
:102BB0009091D8068917A1F10E945F158093D806DD
:102BC00084FF2CC0E091F006F0E0E752F94F9081CD
:102BD000990F990F8370892B80830E942E219093E7
:102BE000EF068093EE068091ED068F5F8093ED06F1
:102BF0008430B0F08091D906803441F48091F006A1
:102C0000823020F487E490E00E94EC1A1092ED06E6
:102C10008091F0068F5F8093F00608950C94162142
:102C200008950C9418040895CF93DF9300D000D03A
:102C300000D0CDB7DEB7FC01892B39F40E942E21DC
:102C4000816060E05FEF4FEF05C04081518162819C
:102C500083819481FE01319626E0DF011D922A9541
:102C6000E9F7782F9D838C838D819E810E94B61D0C
:102C700026960FB6F894DEBF0FBECDBFDF91CF9181
:102C80000895CF93882349F1803B29F484EE91E0A5
:102C9000CF910C94641EC82F8CEF8C0F813A20F0DA
:102CA00080E58C0F8E3250F48C2F0E940823811106
:102CB00014C061E08C2F0E9457200CC080E28C0F62
:102CC000883058F4C77081E001C0880FCA95EAF7D0
:102CD0000E94A520CF910C94DC20CF9108958823E9
:102CE00051F19CEF980F913A20F090E5980F9E32A9
:102CF00020F460E00E9457200DC090E2980F9830B9
:102D000058F4877091E001C0990F8A95EAF7892FEE
:102D10000E94AB200C94DC209BE5980F933020F4AC
:102D200080E090E00C948115885A873120F480E08F
:102D300090E00C9497150895882321F00E94A52017
:102D40000C94DC200895882321F00E94AB200C9481
:102D5000DC2008950E94C2200E9498200E94DC205E
:102D60000E94FC220E943C2280E090E00E9481159B
:102D700080E090E00C9497150E94B2200C94AA1663
:102D8000CF93DF9300D000D01F92CDB7DEB70E9463
:102D9000E91F292F22952F702C3030F42A30A0F40F
:102DA0002250223030F01DC02C30A9F02F3099F085
:102DB00018C0853A28F4843090F4823028F40FC08B
:102DC00090E2980F983058F0843058F0853A38F0F7
:102DD000803F39F404C093FB882780F903C081E069
:102DE00001C080E00F900F900F900F900F90DF9137
:102DF000CF910895811101C08AE0662311F0885AAD
:102E000001C0835E90E00C94EC1ACF92DF92EF92B7
:102E1000FF920F931F93CF93DF9300D000D01F92A8
:102E2000CDB7DEB76C0185E0F601DE0111960190A9
:102E30000D928A95E1F7F6012381348189819A8187
:102E40002115310531F09F3F31F491E08F3F19F4A6
:102E500003C091E001C090E090FD95C3F601F280BF
:102E6000E580E2948FE0E8222230310559F0722F9C
:102E70003D832C8349815A816F2D8D810E94E91FEA
:102E80008C0102C009811A810E94E81F0E94E21E83
:102E9000E12FE295EF708E2F90E0FC01E058FF4F9C
:102EA0000C946624812F807F1F70882311F0129567
:102EB000107FFF2021F10E94A220812390918007A2
:102EC000892B80938007112351F0002319F081E0B2
:102ED00080937E07812F0E94B5200E94DC20802FE6
:102EE0000F900F900F900F900F90DF91CF911F9147
:102EF0000F91FF90EF90DF90CF900C94411690913E
:102F00008007812F809589238093800710927E0708
:102F1000802F0E946F16112309F435C3812F0E9460
:102F2000BB200F900F900F900F900F90DF91CF91DB
:102F30001F910F91FF90EF90DF90CF900C94DC20C9
:102F4000812F807F1F70803211F01295107F002337
:102F500019F0013009F12BC0FF20A9F0EE2061F13A
:102F6000F1E0812FEF1229C00F900F900F900F907A
:102F70000F90DF91CF911F910F91FF90EF90DF9015
:102F8000CF900C94C520EE2021F021E0E21609F448
:102F9000FAC20E94C82054C0FF20F1F082E08E15D2
:102FA00008F4F1C20E94A220812331F049C0FF2021
:102FB00009F444C0E11015C0812F0F900F900F90BD
:102FC0000F900F90DF91CF911F910F91FF90EF9095
:102FD000DF90CF900C949C16E1E0EE1508F4D3C27C
:102FE0002FC0F601858180FF13C08F708583E4CFE9
:102FF000003F09F4B4C108F08FC1003E08F094C14D
:10300000FF2009F409C2EE2009F4F5C113FDEFC158
:10301000802F0E944116093309F0B5C282E30F9058
:103020000F900F900F900F90DF91CF911F910F9104
:10303000FF90EF90DF90CF900C941921E110F4C134
:10304000812F7EC1812F86958695837019F08130FE
:10305000B9F099C2FF2019F0C801937002C080E056
:1030600090E00F900F900F900F900F90DF91CF9105
:103070001F910F91FF90EF90DF90CF900C949715D8
:10308000FF20C1F0C80193708115F3E09F07A4F001
:1030900089EE91E00E94641E60E0802F82958F701F
:1030A0000E94FA1660E0802F8F700E94FA1687EE59
:1030B00091E0E1C180E090E00F900F900F900F90B1
:1030C0000F90DF91CF911F910F91FF90EF90DF90C4
:1030D000CF900C948115802FFF2081F00E948721D2
:1030E0000E943C22063408F04EC2E02FF0E0E35785
:1030F000F84F81E0808380938C0745C20E94D521E0
:103100000E943C22063408F03EC2202F30E0F90134
:10311000E357F84F1082002311F0C90102C084EF79
:1031200090E560E00F900F900F900F900F90DF915F
:10313000CF911F910F91FF90EF90DF90CF900C9463
:10314000D11A812F837009F070C0F1101CC2202F9A
:10315000229526952770220F220F602F6F70862FE1
:1031600090E0A0E0B0E06C017D01022E04C0CC0C28
:10317000DD1CEE1CFF1C0A94D2F704FF12C08FE086
:1031800090E0A0E0B0E004C0880F991FAA1FBB1F09
:103190002A95D2F7BC01CD016095709580959095E8
:1031A00003C060E070E0CB011695169513701230E5
:1031B000B1F040F56C297D298E299F29113031F11C
:1031C0000F900F900F900F900F90DF91CF911F9164
:1031D0000F91FF90EF90DF90CF900C94FD1E6C2923
:1031E0007D298E299F290F900F900F900F900F909F
:1031F000DF91CF911F910F91FF90EF90DF90CF90D3
:103200000C94171F0E94FD1EC701B6010F900F906E
:103210000F900F900F90DF91CF911F910F91FF9022
:10322000EF90DF90CF900C94E31EFF2019F0812FD8
:10323000817001C08695882309F4A5C1202F2295AD
:1032400026952770220F220F602F6F70862F90E037
:10325000A0E0B0E06C017D01022E04C0CC0CDD1CAE
:10326000EE1CFF1C0A94D2F704FF12C08FE090E01E
:10327000A0E0B0E004C0880F991FAA1FBB1F2A95C9
:10328000D2F7BC01CD01609570958095909503C0F3
:1032900060E070E0CB011695169513701230B1F016
:1032A00040F56C297D298E299F29113031F10F902D
:1032B0000F900F900F900F90DF91CF911F910F9172
:1032C000FF90EF90DF90CF900C94C41F6C297D2964
:1032D0008E299F290F900F900F900F900F90DF91E4
:1032E000CF911F910F91FF90EF90DF90CF900C94B2
:1032F000D61F0E94C41FC701B6010F900F900F90F8
:103300000F900F90DF91CF911F910F91FF90EF9051
:10331000DF90CF900C94B21F023F09F441C0D8F166
:10332000033F09F442C06CCE0F70812F8F71FF20D4
:1033300021F00E944B1F802F40CE0E946C1F802FD7
:103340000F900F900F900F900F90DF91CF911F91E2
:103350000F91FF90EF90DF90CF900C94A316FF2079
:10336000A9F021E02E1508F40EC1812F8F710F9066
:103370000F900F900F900F90DF91CF911F910F91B1
:10338000FF90EF90DF90CF900C94911F82E08E150C
:1033900008F4F9C0EACFFF2029F0812F8F712DC0EA
:1033A000FF20D9F3812F8F7151C0FF2089F0812F29
:1033B0008F710F900F900F900F900F90DF91CF9122
:1033C0001F910F91FF90EF90DF90CF900C94361FDC
:1033D0000F900F900F900F900F90DF91CF911F9152
:1033E0000F91FF90EF90DF90CF900C94311FF6017A
:1033F000858180FF0DCE812F87700F900F900F90E9
:103400000F900F90DF91CF911F910F91FF90EF9050
:10341000DF90CF900C944B1FEE20B1F013FF04C04F
:10342000F601858180FD10C0802F0F900F900F90C6
:103430000F900F90DF91CF911F910F91FF90EF9020
:10344000DF90CF900C946F16812F87700F900F90A4
:103450000F900F900F90DF91CF911F910F91FF90E0
:10346000EF90DF90CF900C946C1F412F4F70602F26
:10347000C6010E94CD010F900F900F900F900F90FA
:10348000DF91CF911F910F91FF90EF90DF90CF9040
:103490000C94641EF11077C0002341F0812F8F70CF
:1034A000843021F0107F902F9F70192B1F701230E5
:1034B000C9F1A0F4112339F1113009F064C00F9063
:1034C0000F900F900F900F90DF91CF911F910F9160
:1034D000FF90EF90DF90CF900C94C123133089F1CF
:1034E000143009F050C0802F0F900F900F900F9064
:1034F0000F90DF91CF911F910F91FF90EF90DF9090
:10350000CF900C9426240F900F900F900F900F9057
:10351000DF91CF911F910F91FF90EF90DF90CF90AF
:103520000C94A6230F900F900F900F900F90DF91A7
:10353000CF911F910F91FF90EF90DF90CF900C945F
:10354000E4230F900F900F900F900F90DF91CF9189
:103550001F910F91FF90EF90DF90CF900C94032478
:10356000412F4F70602FC6010F900F900F900F905A
:103570000F90DF91CF911F910F91FF90EF90DF900F
:10358000CF900C9422010F900F900F900F900F90FE
:10359000DF91CF911F910F91FF90EF90DF90CF902F
:1035A0000895CF93DF9300D000D000D0CDB7DEB721
:1035B00089839A836B8382E090E09D838C83CE0124
:1035C00001960E94051726960FB6F894DEBF0FBE2F
:1035D000CDBFDF91CF910895CF93DF93EC0161E0F0
:1035E0000E94D11A60E0CE01DF91CF910C94D11AE4
:1035F000BF92CF92DF92EF92FF920F931F93CF93E0
:10360000DF936C01B62EC5E0D0E000E117E28AE05E
:10361000E82EF12CC601B8010E943E24CB01009790
:1036200031F0B7010E943E246B2D0E94FA16C801AA
:10363000B7010E943E248B01219761F7DF91CF9162
:103640001F910F91FF90EF90DF90CF90BF90089562
:10365000CF93DF9300D000D01F92CDB7DEB70F908D
:103660000F900F900F900F90DF91CF910895CF930F
:10367000DF9300D000D000D0CDB7DEB726960FB6CE
:10368000F894DEBF0FBECDBFDF91CF9108951F9399
:10369000CF93DF93C091F10616E08091F206C81730
:1036A00099F0D0E01C9FF0011D9FF00D1124ED500A
:1036B000F94F4081518162817381848195810E949B
:1036C000371B2196C770E9CFDF91CF911F910895E5
:1036D0004091230750912407609125077091260798
:1036E00080912707909128070C94371B0F931F9305
:1036F000CF93DF938091280782958F7009F05DC08A
:1037000080912507882309F458C08091F106109113
:10371000F2066091230770912407C0912607D0918B
:10372000270791E06F3F09F090E0292F06E081170D
:1037300009F443C0209721F07F3F21F030E003C01F
:1037400031E001C0322F90E030FD34C0089FF0011D
:10375000099FF00D1124DF01AD50B94F11963C9136
:103760001197371327C03C91361324C012963C9111
:10377000129731111FC013964D915C9114974C1BF9
:103780005D0B483C5105B0F4809128078F70806133
:1037900080932807E850F94F80818F708061808383
:1037A00083E297E00E940517DF91CF911F910F915F
:1037B0000C94471B01968770BACFDF91CF911F9170
:1037C0000F9108959F92AF92BF92CF92DF92EF92A6
:1037D000FF920F931F93CF93DF93CDB7DEB761971F
:1037E0000FB6F894DEBF0FBECDBF8C0185E0F801A7
:1037F000DE011D9601900D928A95E1F7F801408156
:103800005181F280C380D480909123076091240776
:1038100020912607309127072115310531F06F3FA0
:1038200031F481E09F3F19F403C081E001C080E0E2
:10383000F82FF1709F2E80FD52C183E2A82E87E001
:10384000B82EE0902507F601E21BF30BEE2009F4F9
:10385000E8C080912807E83CF10508F0A4C0282FB3
:10386000207F09F053C0561313C0491311C0EF2C29
:10387000F1100EC08F708061809328070E94681B32
:10388000C5010E94051780912807F80185835BC157
:10389000C114D10431F05F3F31F481E04F3F19F49E
:1038A00003C081E001C080E080FD03C081E08F257E
:1038B00002C080E090E0F82FF170EF2E80FF1CC076
:1038C0008091F1062091F20636E0821709F418C1C2
:1038D00090E0389FF001399FF00D1124ED50F94F21
:1038E0006181561306C06081461303C06281F612DF
:1038F00003C001968770E9CFEF2CFF2009F423C1A4
:103900008091280781608093280762C0561306C003
:10391000491304C0F11002C0F801A7C04D875E87AB
:10392000FF867C2DD98AC88A6F2D89890E94C0168E
:10393000882399F1FF2089F120912807822F829511
:103940008F7090E0029774F0809123079091240784
:1039500098878F831986DB86CA862C87CE010796C7
:103960000E94051786E0F801A3E2B7E001900D92EE
:103970008A95E1F70E94761B0E94681B11C05617BA
:1039800049F14D875E87FF867C2DD98AC88A6F2DC5
:1039900089890E94C01681112CC0C8010E94051798
:1039A000EE24E394D0C0282F207F49F77C2DD98ABC
:1039B000C88A6F2D89890E94281B83E297E00E94A4
:1039C000051786E0F50111928A95E9F70E94681BB8
:1039D000E12CB9C04913D5CFF110D3CFF8018583BD
:1039E000C8010E94051786E0F50111928A95E9F752
:1039F000AAC0FF2091F220912807822F82958F7014
:103A000090E002970CF4AECF8091230790912407A9
:103A10009A8389831B82DD82CC822E83CE0101961C
:103A20009FCFE83CF10508F04BC0EF2CFF2009F4D4
:103A3000B4CF561330C049132EC02091280720FD63
:103A400021C0822F82958F70482F50E0411551057B
:103A5000C9F0F80125834F30510541F08F5F982F51
:103A60009295907F822F8F70892B8583C8010E9449
:103A7000051786E0F801A3E2B7E001900D928A9560
:103A8000E1F72AC086E0F801A3E2B7E001900D92C9
:103A90008A95E1F758C04D875E87FF867C2DD98ACD
:103AA000C88A6F2D89890E94C01681115BCF8091D1
:103AB0002807816080932807C8010E94051743C02A
:103AC0007C2DD98AC88A6F2D89890E94281B86E09F
:103AD000F50111928A95E9F70E94681B34C0FF2016
:103AE00009F45BCF4D875E87FF867C2DD98AC88A13
:103AF0006F2D89890E94C016882309F44ECF32CFDA
:103B00007C2DD98AC88A6F2D89890E94E91F292FA7
:103B100022952F70223028F49F7039F0811105C052
:103B20000BC0243028F49F7049F4805E883020F068
:103B3000C8010E9405179E2CE92C05C0F80195814B
:103B4000907F99F7F9CF8E2D61960FB6F894DEBF6E
:103B50000FBECDBFDF91CF911F910F91FF90EF90DE
:103B6000DF90CF90BF90AF909F9008951F93CF9319
:103B7000DF93CDB7DEB72C970FB6F894DEBF0FBE3C
:103B8000CDBF4F83588769877A878B879C87CE0103
:103B900007960E94E21B8823D1F09F8188852A85A1
:103BA0003B85232B31F08F3F31F481E09F3F19F4A7
:103BB00003C081E001C080E080FD47C04F8158858F
:103BC00069857A858B859C850E94371B3EC086E07F
:103BD000FE013796DE01119601900D928A95E1F76C
:103BE000FF81E8856A857B856115710531F0EF3FBE
:103BF00031F481E0FF3F19F403C081E001C080E0AF
:103C000080FD23C02091F20630E0C9010196877043
:103C100099274091F10650E084179507F1F1F98357
:103C2000EA837D836C8396E0929FD001939FB00DD1
:103C30001124AD50B94FFE01319601900D929A9525
:103C4000E1F78093F2060E94471B16E08091F1068F
:103C50009091F206891771F1189FC00111248D50BF
:103C6000994F0E94E21B882329F1E091F1061E9FE3
:103C7000F0011124ED50F94F40815181628173812F
:103C8000848195810E94371B8091F10690E0019616
:103C9000877099278093F106D9CF0E94BC161092A5
:103CA000F2061092F106E3E2F7E086E0DF011D92F2
:103CB0008A95E9F72C960FB6F894DEBF0FBECDBFFC
:103CC000DF91CF911F910895EF92FF921F93CF93B1
:103CD000DF939C01892B09F465C0E9012196F90164
:103CE0001491193709F43FC0C0F4143740F414306C
:103CF00008F053C08FEF810F823000F153C01437AA
:103D000009F050C07901F2E0EF0EF11CFE01849140
:103D10000E941921E7019E01E0CF133828F41138E1
:103D200068F4103801F13EC01338B9F0143F08F0C0
:103D300039C01F77812F90E0926031C0FE018591DC
:103D40009491612F6170E901133018F4229699273C
:103D500001C023960E94D11ADECFFE018591949175
:103D6000E90123961CC0FE01E590F490E901239639
:103D700084E00E949C16103841F461E081E00E94CA
:103D8000FA16F0EAEF1AF6E8FF0A61E0C7010E94AE
:103D9000F81A84E00E94A316BECF812F90E00E9403
:103DA000EC1AB9CFDF91CF911F91FF90EF9008955A
:103DB0006093690770936A0780936B0790936C0711
:103DC0000C940B0408950F931F9300912A011091F6
:103DD0002B0120912C0130912D01602B712B822B16
:103DE000932B60932A0170932B0180932C01909365
:103DF0002D011F910F910C940F040F931F930091AD
:103E00002A0110912B0120912C0130912D0160236A
:103E100071238223932360932A0170932B01809353
:103E20002C0190932D011F910F910C940F040F936F
:103E30001F9300912A0110912B0120912C013091A8
:103E40002D01602771278227932760932A017093A1
:103E50002B0180932C0190932D011F910F910C94B5
:103E60000F0460E070E0CB010C94D81E0F931F93F9
:103E700041E050E060E070E08A019B0104C0000F67
:103E8000111F221F331F8A95D2F7C901B8011F9154
:103E90000F910C94D81E0F931F9341E050E060E007
:103EA00070E004C0440F551F661F771F8A95D2F734
:103EB0008091690790916A07A0916B07B0916C0798
:103EC0008A019B01082B192B2A2B3B2BC901B80116
:103ED0001F910F910C94D81E0F931F9341E050E057
:103EE00060E070E004C0440F551F661F771F8A957D
:103EF000D2F74095509560957095809169079091A3
:103F00006A07A0916B07B0916C078A019B01082397
:103F100019232A233B23C901B8011F910F910C9447
:103F2000D81E0F931F9341E050E060E070E004C0A2
:103F3000440F551F661F771F8A95D2F78091690736
:103F400090916A07A0916B07B0916C078A019B0161
:103F5000082719272A273B27C901B8011F910F916C
:103F60000C94D81E0F931F930091690710916A0754
:103F700020916B0730916C07602B712B822B932B58
:103F80001F910F910C94D81E0F931F9300916907F6
:103F900010916A0720916B0730916C0760237123A1
:103FA000822393231F910F910C94D81E0F931F937C
:103FB0000091690710916A0720916B0730916C0797
:103FC00060277127822793271F910F910C94D81E89
:103FD00008958F929F92AF92BF92DF92EF92FF92DD
:103FE0000F931F93CF93DF9300D000D01F92CDB7D4
:103FF000DEB78A016623D1F18090690790906A0745
:10400000A0906B07B0906C0780912A0190912B01D2
:10401000A0912C01B0912D01882A992AAA2ABB2AA5
:104020008FE1E82EF12CD501C4010E2C04C0B69509
:10403000A795979587950A94D2F780FD06C081E0F1
:10404000E81AF10880F7D12C07C0DE2CB8018E2DBC
:104050000E946F21019799F380E1189FF0011124CC
:10406000E75DF84FE00FF11DD08209C080E1189F95
:10407000F0011124E75DF84FE40FF11DD0800983B2
:104080001A8369817A818D2D0E946F210F900F9084
:104090000F900F900F90DF91CF911F910F91FF9094
:1040A000EF90DF90BF90AF909F908F900895909188
:1040B000290191799131F1F4382F3695369536955D
:1040C0003F30A8F5E0912E01F0912F01282F2770A5
:1040D00081E090E001C0880F2A95EAF7E30FF11D17
:1040E000662319F09181892B03C0809591818923E2
:1040F0008183089520912E0130912F01F90171964D
:104100004FEF9EE05291552331F0851305C06111A8
:104110000EC0108201C0492F9150A0F7662339F0DC
:10412000F901E40FF11D47FDFA9582830895089582
:10413000E0912E01F0912F0180E1DF011D928A951F
:10414000E9F7089580918207089590918207892B5D
:1041500080938207089580959091820789238093A8
:104160008207089510928207089590918107892B04
:10417000809381070895809590918107892380938A
:104180008107089510928107089580936D0708951F
:1041900010926D07089580912E0190912F01FC01DE
:1041A00031969C01205F3F4F80E0919191118F5F8C
:1041B000E217F307D1F70895E0912E01F0912F0156
:1041C000809182078083E0912E01F0912F019081F0
:1041D00080918107892B8083E0912E01F0912F013E
:1041E000809180078095908189238083E0912E01C2
:1041F000F0912F0180917F078095908189238083A2
:1042000080916D07882361F0E0912E01F0912F01DC
:104210009081892B80830E94CB20811110926D07A1
:1042200080912E0190912F010C946B150C94111616
:104230000895882341F0EFE9FFE03197F1F700C0DE
:1042400000008150F6CFA895089582E084BD93E0E8
:1042500095BD9DE797BD80936E0008952FB7F894A4
:104260008091830790918407A0918507B09186077C
:104270002FBF08959C014FB7F894809183079091C8
:104280008407A0918507B09186074FBF821B930BCF
:10429000089578941F920F920FB60F9211248F9366
:1042A0009F93AF93BF938091830790918407A091D0
:1042B0008507B09186070196A11DB11D80938307E4
:1042C00090938407A0938507B0938607BF91AF9121
:1042D0009F918F910F900FBE0F901F901895CF93C5
:1042E000C82FCB010E941701803819F480E090E0BC
:1042F0000CC0EC2FF0E0FE2FEE27E050F04AE80F64
:10430000F11DE80FF11D85919491CF910895803FA3
:1043100008F44AC0803F11F49FEF03C0813F21F4AD
:1043200091E09093D8073BC0823F11F49FEF03C008
:10433000833F21F491E09093D70731C0893F70F417
:1043400021E030E09CE0980F01C0220F9A95EAF737
:104350009091D607292B2093D60721C0893F11F4CD
:1043600091E003C08A3F21F49FEF9093D90717C0D3
:104370008B3F11F49FEF03C08C3F21F491E09093A9
:10438000DA070DC021E030E093E0980F01C0220F62
:104390009A95EAF79091D307292B2093D307895F49
:1043A000843010F41092D4070895803F08F463C05D
:1043B000803F39F48091D80787FF5DC01092D807FD
:1043C0000895813F29F48091D8071816BCF3089509
:1043D000823F39F48091D70787FF4DC01092D707ED
:1043E0000895833F29F48091D7071816BCF30895E8
:1043F000893F88F4845F21E030E0A90102C0440FC6
:10440000551F8A95E2F7CA0180959091D6078923B6
:104410008093D6070895893F39F48091D9071816FB
:1044200054F51092D90708958A3F29F48091D9074D
:1044300087FF21C0F6CF8B3F39F48091DA0787FFE1
:104440001AC01092DA0708958C3F29F48091DA0798
:104450001816BCF308958D5F21E030E0A90102C079
:10446000440F551F8A95E2F7CA0180959091D307B2
:1044700089238093D307089586ED97E00E947615EF
:104480000E942E21909389078093880708950F93A7
:104490001F93CF93DF9380918C078823D9F180916C
:1044A0008A0790918B070E943A212091310130E0D8
:1044B0002817390778F50E94B8248F70825E8093A0
:1044C00031010DE817E0C0E0D0E090E0F801819103
:1044D0008F01882369F0CC2319F08C2F9D2F02C007
:1044E00084EF90E56091300170E00E94D11A91E074
:1044F0002196C634D10551F72091300181E0822701
:104500008093300190938C070E942E2190938B070B
:1045100080938A0780918807909189070E943A21A9
:10452000AC019091D507923019F028E230E002C03A
:1045300025E030E04217530708F459C0D091D9075D
:10454000C091DA072091D7078091D807822B8D2B55
:104550008C2B19F41092D5074AC0923020F49F5F3B
:104560009093D50744C08091D4078F5F8093D40780
:104570008F7021F01092D9071092DA070E943C2226
:10458000D093D907C093DA07809187078F5F809314
:1045900087078D3060F18091290187FD02C080E09E
:1045A00001C085E0809387079091D307292F220FC0
:1045B000220F290FE6EDF7E03CEE44E181818823EC
:1045C00089F0992311F021830DC018162CF48F5F08
:1045D00085312CF0418306C081508C3E14F08183DC
:1045E00001C03183319687E0EA3DF80739F7DF9162
:1045F000CF911F910F910895E6EDF7E085E0DF017F
:104600001D928A95E9F71092D307089580E00895E6
:10461000CF9390917E07911135C0C82F8091DB0711
:10462000882319F0813051F02AC0E0912E01F091D9
:104630002F0180818252823030F508C0E0912E0136
:10464000F0912F01808182528230A0F48C2F0E9441
:104650002C0E81110AC0C13151F40E941821909191
:10466000290180E189278093290191E001C090E030
:10467000917009C08C2F0E94062391E004C0109213
:10468000DB0701C090E0892FCF910895E1E8F0E0C9
:104690008081886080838081816080838FB7F89477
:1046A0009AE79093890092E1909388008FBF0895D4
:1046B000EFE6F0E080818260808308956DEE7EEF0A
:1046C00080E090E00E94BA2760E082E090E00E94E3
:1046D0009C2760E083E090E00E949C2760E084E0FB
:1046E00090E00E949C2760E085E090E00E949C277B
:1046F00060E086E090E00C949C2780E090E00E94CF
:10470000962721E08D3E9E4F09F020E0822F0895EC
:1047100086E090E00C948827682F86E090E00C9467
:104720009C270E947D23811102C00E945E230E946B
:10473000882380932208811102C081E005C080FF98
:1047400002C0869501C080E00C943E04809122084E
:10475000982F9695292F30E08170283031054CF440
:104760009F5F990F892B8160809322080E948C2380
:1047700003C08061809322088091220886950C9462
:104780003E048091220880FF1EC0982F9695292F05
:1047900030E02230310594F09158990F8170892BC7
:1047A000809322088E7F91E009F490E080912208A6
:1047B00090FB80F9809322080E948C23809122082C
:1047C00086950C943E04089580912208982F909528
:1047D000917090FB80F980932208992339F0982FEB
:1047E0009E7F21F48170826080932208809122084C
:1047F0000E948C238091220880FF02C0869501C010
:1048000080E00C943E0490912208892F86958F5F5A
:104810008F779170893028F4880F892B8093220834
:1048200002C090932208809122088E7F91E009F4C3
:1048300090E08091220890FB80F9809322080E94EA
:104840008C238091220886950C943E04880F9091C9
:1048500022089170892B809322088E7F91E009F4C1
:1048600090E08091220890FB80F9809322080E94BA
:104870008C238091220886950C943E04AA1BBB1BB6
:1048800051E107C0AA1FBB1FA617B70710F0A61B50
:10489000B70B881F991F5A95A9F780959095BC0171
:1048A000CD01089597FB072E16F4009407D077FDED
:1048B00009D00E943E2407FC05D03EF490958195D6
:1048C0009F4F0895709561957F4F0895EE0FFF1FDC
:1048D0000590F491E02D09948F929F92AF92BF9230
:1048E000CF92DF92EF92FF92CF93DF93EC0168813A
:1048F00079818A819B81611571058105910521F47A
:1049000064E279ED8BE597E02DE133EF41E050E093
:104910000E94D02749015A019B01AC01A7EAB1E4EA
:104920000E94EF276B017C01ACEEB4EFA50194016E
:104930000E94FD27DC01CB018C0D9D1DAE1DBF1D0E
:10494000B7FF03C00197A109B04888839983AA8360
:10495000BB839F77DF91CF91FF90EF90DF90CF9057
:10496000BF90AF909F908F9008950E946C240895FF
:1049700080E091E00E946C240895A0E0B0E0809374
:10498000000190930101A0930201B09303010895E7
:10499000FB01DC0104C08D910190801921F441508C
:1049A0005040C8F7881B990B0895AEE0B0E0EBEDDE
:1049B000F4E20C9410280D891E8986E08C831A83FA
:1049C00009838FEF9FE79E838D83AE01475E5F4F24
:1049D0006F89788DCE0101960E94F724EF81F885CA
:1049E000E00FF11F10822E96E4E00C942C28ABE02F
:1049F000B0E0EDEFF4E20C9402286C017B018A0137
:104A0000FC0117821682838181FFCCC1CE01019601
:104A10003C01F6019381F70193FD859193FF81910C
:104A20007F01882309F4BAC1853239F493FD859159
:104A300093FF81917F01853229F4B60190E00E94B5
:104A4000EE26E7CF912C212C312CFFE1F315D8F085
:104A50008B3279F038F4803279F08332A1F4232D4F
:104A600020611DC08D3261F0803369F4232D2160F7
:104A700016C0832D8260382EE32DE4603E2E2AC0BE
:104A8000F32DF8601DC037FC2DC020ED280F2A3013
:104A900040F08E32B9F436FC81C1232D2064322ED1
:104AA00019C036FE06C08AE0989E200D1124922E71
:104AB00011C0EAE02E9E200D1124222EF32DF0626B
:104AC0003F2E08C08C3621F4832D8068382E02C01A
:104AD000883641F4F70193FD859193FF81917F0121
:104AE0008111B3CF982F9F7D9554933028F40C5F9C
:104AF0001F4F9FE399830DC0833631F0833771F0E8
:104B0000833509F059C021C0F801808189830E5F87
:104B10001F4F88248394912C530113C02801F2E085
:104B20004F0E511CF801A080B18036FE03C0692DE4
:104B300070E002C06FEF7FEFC5010E94E3264C01D9
:104B40008201F32DFF773F2E16C0280122E0420E8E
:104B5000511CF801A080B18036FE03C0692D70E0C1
:104B600002C06FEF7FEFC5010E94D8264C01F32DE4
:104B7000F0683F2E820133FC1BC0822D90E0881626
:104B80009906B0F4B60180E290E00E94EE262A94E5
:104B9000F4CFF50137FC859137FE81915F01B601B5
:104BA00090E00E94EE2621102A9421E0821A9108BA
:104BB0008114910471F7E8C0843611F0893641F50B
:104BC000F80137FE07C060817181828193810C5F9B
:104BD0001F4F08C060817181072E000C880B990B54
:104BE0000E5F1F4FF32DFF763F2E97FF09C0909564
:104BF0008095709561957F4F8F4F9F4FF0683F2E46
:104C00002AE030E0A3010E942A27882E861845C09A
:104C1000853731F4232D2F7EB22E2AE030E025C0D7
:104C2000932D997FB92E8F36C1F018F4883579F01D
:104C3000B5C0803719F0883721F0B0C0E92FE061A6
:104C4000BE2EB4FE0DC0FB2DF460BF2E09C034FE95
:104C50000AC0292F2660B22E06C028E030E005C029
:104C600020E130E002C020E132E0F801B7FE07C0E9
:104C700060817181828193810C5F1F4F06C06081CA
:104C8000718180E090E00E5F1F4FA3010E942A27F0
:104C9000882E8618FB2DFF773F2E36FE0DC0232D64
:104CA0002E7FA22E891458F434FE0BC032FC09C0AA
:104CB000832D8E7EA82E05C0B82CA32C03C0B82C43
:104CC00001C0B92CA4FE0FC0FE01E80DF11D8081CA
:104CD000803321F49A2D997EA92E09C0A2FE06C028
:104CE000B394B39404C08A2D867809F0B394A3FCDE
:104CF00011C0A0FE06C0B21488F4280C922C9B1898
:104D00000EC0B21460F4B60180E290E00E94EE267C
:104D1000B394F7CFB21418F42B1802C0982C212C9E
:104D2000A4FE10C0B60180E390E00E94EE26A2FE31
:104D300017C0A1FC03C088E790E002C088E590E0BE
:104D4000B6010CC08A2D867859F0A1FE02C08BE214
:104D500001C080E2A7FC8DE2B60190E00E94EE2641
:104D6000891438F4B60180E390E00E94EE269A940C
:104D7000F7CF8A94F301E80DF11D8081B60190E030
:104D80000E94EE268110F5CF222009F442CEB60112
:104D900080E290E00E94EE262A94F6CFF60186810A
:104DA000978102C08FEF9FEF2B96E2E10C941E28B3
:104DB000FC010590615070400110D8F780959095E6
:104DC0008E0F9F1F0895FC016150704001900110EB
:104DD000D8F7809590958E0F9F1F08950F931F937E
:104DE000CF93DF93FB01238121FD03C08FEF9FEF62
:104DF0002CC022FF16C0468157812481358142177D
:104E0000530744F4A081B1819D012F5F3F4F31834F
:104E100020838C93268137812F5F3F4F37832683F2
:104E200014C08B01EC01FB010084F185E02D099594
:104E3000892BE1F6D80116968D919C9117970196D2
:104E400017969C938E931697CE01DF91CF911F9169
:104E50000F910895FA01AA27283051F1203181F1EC
:104E6000E8946F936E7F6E5F7F4F8F4F9F4FAF4F72
:104E7000B1E03ED0B4E03CD0670F781F891F9A1F85
:104E8000A11D680F791F8A1F911DA11D6A0F711D39
:104E9000811D911DA11D20D009F468943F912AE045
:104EA000269F11243019305D3193DEF6CF0108952D
:104EB000462F4770405D4193B3E00FD0C9F7F6CF5E
:104EC000462F4F70405D4A3318F0495D31FD405226
:104ED000419302D0A9F7EACFB4E0A69597958795BC
:104EE00077956795BA95C9F700976105710508959B
:104EF0009B01AC010A2E0694579547953795279547
:104F0000BA95C9F7620F731F841F951FA01D0895DE
:104F1000F999FECF92BD81BDF89A992780B5089581
:104F2000A6E1B0E044E050E00C94C227A8E1B0E074
:104F300042E050E00C94C227262FF999FECF92BD93
:104F400081BDF89A019700B4021639F01FBA20BD4E
:104F50000FB6F894FA9AF99A0FBE08950396272F80
:104F60000E949D270E949C27252F0E949D27242F69
:104F70000C949D270196272F0E949D270C949C2717
:104F8000DC01CB01FC01F999FECF06C0F2BDE1BD09
:104F9000F89A319600B40D9241505040B8F70895F8
:104FA000052E97FB1EF400940E94E72757FD07D0BB
:104FB0000E94392807FC03D04EF40C94E727509543
:104FC0004095309521953F4F4F4F5F4F08959095F5
:104FD0008095709561957F4F8F4F9F4F08950E94E8
:104FE0005B28A59F900DB49F900DA49F800D911DEF
:104FF00011240895B7FF0C94EF270E94EF27821B1E
:10500000930B08952F923F924F925F926F927F92EF
:105010008F929F92AF92BF92CF92DF92EF92FF92C8
:105020000F931F93CF93DF93CDB7DEB7CA1BDB0B74
:105030000FB6F894DEBF0FBECDBF09942A88398819
:1050400048885F846E847D848C849B84AA84B98420
:10505000C884DF80EE80FD800C811B81AA81B9812C
:10506000CE0FD11D0FB6F894DEBF0FBECDBFED0140
:105070000895A1E21A2EAA1BBB1BFD010DC0AA1F99
:10508000BB1FEE1FFF1FA217B307E407F50720F0B1
:10509000A21BB30BE40BF50B661F771F881F991F2C
:1050A0001A9469F760957095809590959B01AC0175
:1050B000BD01CF010895A29FB001B39FC001A39F7E
:1050C000700D811D1124911DB29F700D811D112441
:0850D000911D0895F894FFCF33
:1050D8000100000001010107FC018046FFFF310AC1
:1050E8002E0BBE0A340A830A010C730E0104017DDB
:1050F8000F0010E30FBB0F940F01010000006E07B3
:10510800011E1813120C15BC19C01A41542B424C1D
:1051180045484944434F4E54524F4C4B45593D2501
:10512800640A0041542B424C454849444D4F55535D
:10513800454D4F56453D25642C25642C25642C256A
:10514800640A00425554544F4E3D25640A004154A8
:105158002B424C454B4559424F415244434F4445DD
:105168003D0030302D30300A00253032582D303097
:105178002D253032582D253032582D253032582DD6
:10518800253032582D253032582D253032580A0016
:1051980041542B464143544F525952455345540AA2
:1051A8000041542B424C45484944454E3D300A0085
:1051B80041542B424C45484944454E3D310A004133
:1051C800542B4741504445564E414D453D004C6F88
:1051D8007569736520424C450041542B474150473F
:1051E8004554434F4E4E0A0041542B4741504445C5
:1051F8004C424F4E44530A0041540A004154453D25
:10520800300A0041542B47415053544152544144B1
:10521800560A0041542B4741545441444453455283
:10522800564943453D555549443D363135390A00BF
:1052380041542B47415454414444434841523D55FD
:105248005549443D3078324131392C50524F504500
:1052580052544945533D31362C4D494E5F4C454ECD
:105268003D312C56414C55453D390A0041542B429D
:10527800415544524154453D37363830300A004193
:10528800542B48574144433D360A0041542B47416B
:105298005454434841523D312C0041542B424C4513
:1052A80047455450454552414444520A0041542B05
:1052B800474150444953434F4E4E4543540A0041D9
:1052C800542B474150534554414456444154413D61
:1052D80030322D30312D30360A0041542B474150A1
:1052E800534554414456444154413D30322D3031A8
:1052F8002D30340A0041545A0A00BDB6B3ADAAA7EE
:10530800A4A19D404D3639D304860450041704AA3D
:1053180003C303DC03F503040A369403880350032C
:1053280036034C006F0075006900730065002000AB
:105338004B006500790062006F0061007200640034
:10534800200028005500530042005F0044004D0033
:1053580033005300290000000A03590041004E00A1
:10536800470000000403090409026D00040100A0BD
:10537800FA090400000103010100092111010001DB
:105388002240000705810308000109040100010308
:10539800010200092111010001224D0007058203C5
:1053A800080001090402000103000000092111019D
:1053B80000012236000705830308000A09040300D8
:1053C800010300000009211101000122390007052D
:1053D80084031000011201100100000008EDFE41D5
:1053E8002101000102000105010906A101050719B3
:1053F800E029E715002501950875018102050819BE
:10540800012905950575019102950175039101051D
:10541800071900297715002501957875018102C0C3
:1054280005010980A101850216010026B7001A01AD
:10543800002AB700751095018100C0050C0901A16B
:10544800018503160100269C021A01002A9C027598
:105458001095018100C005010902A1010901A100FF
:105468000509190129051500250195057501810210
:105478009501750381010501093009311581257FE1
:1054880095027508810609381581257F95017508EB
:105498008106050C0A38021581257F95017508815A
:1054A80006C0C005010906A101050719E029E7158D
:1054B800002501950875018102950175088101058E
:1054C8000819012905950575019102950175039142
:1054D800010507190029FF150026FF009506750824
:0454E8008100C0007F
:106000003601EA40E900E24004000500060007000E
:10601000080009000A000B000C000D000E000F0024
:1060200010001100120013001400150016001700D4
:10603000180019001A001B001C001D001E001F0084
:106040002000210022002300240025002600270034
:1060500000F101F500F52B002C002D002E002F0083
:106060003000310032003300340035003600370094
:10607000F1A32BAA3A003B003C003D003E003F004C
:1060800040004100420043004400450046004700F4
:10609000480049004A004B004C004D004E004F00A4
:1060A0005000510000F32AA154005500560057003B
:1060B000580059005A005B005C005D005E005F0004
:1060C000600061006200630064002CA1850067002D
:1060D000F450F550F650F750F850F950FA506F0060
:1060E0007000710072007300890087008A008B00C5
:1060F000E000E100E200E3002BAAE500E300E70096
:106100000000010001000100010043004100010006
:106110002000010092412F00250030002D002E00AC
:1061200001003300260027001E002100010022008C
:10613000240042001F00400023003F003A003B00C3
:106140003C003D003E003F00400041004200430053
:10615000280035002A0001000100440045005200DB
:1061600049000100010001004F00290036003700FE
:1061700051000100010001000100010001000100C7
:106180000100010001000100010001000100010007
:106190000100010001000100010001000100E940CF
:1061A000E240EA404B00010053009245010001002B
:1061B00001000100010001000100010001000100D7
:1061C00001000100010001000100010001000100C7
:1061D00001000100010001000100010001000100B7
:1061E000010001000100010049000100010001005F
:1061F00001000100010001002B000100010001006D
:1062000011110100010001004C0002F03D004D00A1
:106210004A003E00FA503A00490001002D002E00CD
:10622000010033002F00300046003B004E00F950C3
:106230006F4019084B004700704048000100010002
:106240000100010001000100010001000100010046
:1062500034003900010001000100010001000100CB
:1062600001006400010001000100010001000100C3
:106270000100010001000100010001000100010016
:106280000100010001000100010001000100010006
:106290000100010001000100010001000100E40013
:1062A000E600E700380001000100010001000100E4
:1062B00001000100010001000100010001000100D6
:1062C00001000100010001000100010001000100C6
:1062D00001000100010001000100010001000100B6
:1062E00001000100010001000100010001000100A6
:1062F00001000100010001002BA201002C0001009F
:106300000300010001000100F25003D0F850F350E7
:10631000F5500AF40AF60AF80100010001000BFC2E
:106320000100010001000100F4500AF0F1500AF2EE
:10633000010002D0F050F6500100F75001000100BA
:106340000100010001000100010001000100010045
:106350000100010001000100010001000100010035
:106360000100010001000100010001000100010025
:106370000100010001000100010001000100010015
:106380000100010001000100010001000100010005
:1063900001000100010001000100010001000100F5
:1063A00001000100010001000100010001000100E5
:1063B00001000100010001000100010001000100D5
:1063C00001000100010001000100010001000100C5
:1063D00001000100010001000100010001000100B5
:1063E00001000100010001000100010001000100A5
:1063F00001000100010003F00100010001000100A3
:10640000160001000100010001000100010001006F
:106410000100010001000100010001000100010074
:106420000100010001000100010001000100010064
:106430000100010001000100010001000100010054
:106440000100010001000100010001000100010044
:106450000100010001000100010001000100010034
:106460000100010001000100010001000100010024
:106470000100010001000100010001000100010014
:106480000100010001000100010001000100010004
:1064900001000100010001000100010001000100F4
:1064A00001000100010001000100010001000100E4
:1064B00001000100010001000100010001000100D4
:1064C00001000100010001000100010001000100C4
:1064D00001000100010001000100010001000100B4
:1064E00001000100010001000100010001000100A4
:1064F0000100010001000100010001000100010094
:106500000002010001000100010001000100010082
:106510000100010001000100010001000100010073
:106520000100010001000100010001000100010063
:106530000100010001000100010001000100010053
:106540000100010001000100010001000100010043
:106550000100010001000100010001000100010033
:106560000100010001000100010001000100010023
:106570000100010001000100010001000100010013
:106580000100010001000100010001000100010003
:1065900001000100010001000100010001000100F3
:1065A00001000100010001000100010001000100E3
:1065B00001000100010001000100010001000100D3
:1065C00001000100010001000100010001000100C3
:1065D00001000100010001000100010001000100B3
:1065E00001000100010001000100010001000100A3
