:100000000C9400010C941D010C941D010C941D0115
:100010000C941D010C941D010C941D010C941D01E8
:100020000C941D010C941D010C9455140C942A156C
:100030000C940C0B0C941D010C941D010C941D01CF
:100040000C941D010C9462050C941D010C941D016F
:100050000C941D010C946F210C941D010C941D0136
:100060000C941D010C94A30A0C941D010C941D0109
:100070000C941D010C941D010C941D010C941D0188
:100080000C941D010C941D010C941D010C941D0178
:100090000C941D010C941D010C941D010C941D0168
:1000A0000C941D010C941D010C941D01EA07F4072A
:1000B000F407FD07FD070A080A081E081E08D709ED
:1000C000E009E009E009E009E209E209E209E509DD
:1000D000E509E509E509E509E509E809E809E809A7
:1000E000E809E809E809EB09EB09EB099315B615EE
:1000F0007616B6157616FB151E167616401653168E
:10010000F118F1183F193F19C1190C1A9C1B9C1BBF
:10011000351A9C1B941994190E1B231B9C1B891BBD
:100120002921201F22231E682D24253526272E6AEB
:100130002B15081A171C1469132A18300C122F6B70
:10014000390907160A0B048033280D310E0F34804D
:1001500079061B1D19056480384C105236377D8096
:100160007880807A65117B807C4F2C517F7E508017
:10017000FFEF8000000000000101010202030405FE
:10018000050607090A0B0C0E0F1112141517191B7F
:100190001D1F212325282A2C2F313436393B3E417F
:1001A0004346494C4F5255585A5D6164676A6D70B9
:1001B0007376797C7F8386898C8F9295989B9EA29B
:1001C000A5A7AAADB0B3B6B9BCBEC1C4C6C9CBCE93
:1001D000D0D3D5D7DADCDEE0E2E4E6E8EAEBEDEE18
:1001E000F0F1F3F4F5F6F8F9FAFAFBFCFDFDFEFE8A
:1001F000FEFFFFFF626200280083150874320000D2
:1002000011241FBECFEFDAE0DEBFCDBF15E0A0E0C6
:10021000B1E0EAE0F1E502C005900D92A432B10729
:10022000D9F728E0A4E2B5E001C01D92AC3AB207CC
:10023000E1F70E9446100C9483280C940000E82FEC
:10024000F0E080E1989FE00DF11D1124E05EFE4F8B
:10025000849108950F931F93CF93DF938C01C62F42
:10026000D42F0E94C920F8019281C130C1F028F03A
:10027000C43021F1C53051F136C0992391F09D2F42
:100280009270D0FD90622D2F2470982321F080FD74
:1002900002C085E30EC0822349F489E20AC09111AD
:1002A00003C0809124051BC082FF02C08DE301C002
:1002B00081E280932405809124050DC0992321F0CB
:1002C000827289F48CE207C08CE209C0992331F074
:1002D00085FD09C082E50E94E41703C082E50E9403
:1002E00012180E940321F8018281882381F1C33012
:1002F000A9F048F4C23059F585E0DF91CF911F9104
:100300000F910C946C0FCA30D9F0CB3001F58D2FC2
:10031000DF91CF911F910F910C9412109091DB05FA
:1003200081E089278093DB059091100888E8892770
:1003300080931008DF91CF911F910F910C94980436
:100340008D2FDF91CF911F910F910C94C207DF91F8
:10035000CF911F910F910895611107C0FC01828117
:10036000882319F080E09FE5089580E090E00895EB
:1003700080912905811102C081E008952B98EAE25D
:10038000F5E022E031E088E0299A000029982B9AD4
:100390008150D1F780E18A95F1F79FB19170932751
:1003A0008FB186958170832741914913E5CF918163
:1003B0008913E2CF215039F795E080E0811102C026
:1003C0002B9A01C02B98299A000029988F5F8830BA
:1003D000A9F7915091F780E18A95F1F79FB1937059
:1003E00081E0933009F480E00895E5E6FEE7E491CA
:1003F000EC3429F4109206011092210108958DB178
:100400008B7B8DB98EB184648EB981E00E943F21CF
:10041000629B109221018091AC089091AD088A3ABC
:100420009B4BA9F480912101882389F06E9A7698DC
:10043000559A5D98549A5C9A8FEF91E12AE7815022
:1004400090402040E1F700C000000C94CD0A0895D0
:100450000E94910784B18A6084B985B18A6085B9A8
:1004600080B38C7F80BB81B3836081BB08954F9242
:100470005F926F927F928F929F92AF92BF92CF9234
:10048000DF92EF92FF920F931F93CF93DF938091B0
:100490002905882351F00E94B801882309F406C178
:1004A0001092290581E0809328052B9A88E2299AE9
:1004B000000029988150D9F72B98299A0000299893
:1004C00028E02A95F1F70FEC15E0812C40E5642E29
:1004D000712C8EE295E055245394CC24C394D12CF6
:1004E0008092CE057C01912CB92CB69490FE05C06B
:1004F00038E0B30E799BD7C002C0789BD4C0C0E06F
:10050000D0E0A090CE0541E04A1508F451C08B2DF3
:10051000877F482E97E089134BC0809126059091E4
:1005200027050E9460218139914028F0A11001C067
:10053000412C4092250521E0209709F420E081E03C
:1005400090E0B7E0BB1202C080E090E0880F991FF6
:10055000865D9A4FFC01EA0DF11D3081231303C023
:10056000C0E0D0E025C02083CD2BD1F72A2D252552
:10057000FC01E20FF11D80818111F2CF80912505F0
:10058000880F8A0D80932505877090E0A11003C025
:1005900020E030E002C027E030E08217930701F747
:1005A0000E9454219093270580932605CFEFDBEF1F
:1005B000F7018081918196958795C82BD92BD1839E
:1005C000C083C038D10571F481E0870DFAE0F715DA
:1005D00040F480E5EEE2F5E0DF011D928A95E9F74F
:1005E00065C0782EB7E0BB1538F42B9A299A000025
:1005F0002998E8E0EA95F1F7C60102C0880F991F33
:10060000BA94E2F7D7012D913D917D01409104010B
:10061000509105012417350740F0F8012081318100
:10062000822B932B9183808311C02130F4E03F070C
:1006300068F480959095D8014D915C911197842331
:1006400095238D939C93232B09F46A949394C7016B
:10065000B0E19B1249CF83940E5F1F4FE5E08E12ED
:100660003FCF611004C081E0809329051FC08091B5
:100670000E0182FD0BC08091AB0880FD07C08CE0AD
:1006800090E0909334078093330704C010923407AE
:100690001092330780912805882341F01092280595
:1006A0000E94370203C0C0E0D0E82BCF81E0DF9189
:1006B000CF911F910F91FF90EF90DF90CF90BF905F
:1006C000AF909F908F907F906F905F904F90089524
:1006D000E82FF0E0EE0FFF1FE153FA4F8081918188
:1006E0000895CF93C0E00E94B417C81710F4CF5FED
:1006F000FACFCF91089580911B018A3030F10E948A
:100700003702EEE2F5E080E090E021913191232B79
:1007100039F0823211F0853211F49C5901C09F5F8B
:100720008F5F803591F780912101983C41F48111D0
:100730000FC081E080931B018093200108958111F7
:1007400006C081E0911104C002C00C94B80180E0A1
:10075000089580912C0184FD08C08FEF9FEB90934A
:1007600005018093040180E007C08FEF9BEF909319
:1007700005018093040186E060E00C949D18549A72
:100780005C98E0E0F2E6E491E093DD05E1E0F2E67A
:1007900084918093DE05E0E0F3E6E491E093DF05E9
:1007A0008F3F19F481E08093DA05EF3F19F481E07F
:1007B0008093D905E2E0F2E685919591A591B491F7
:1007C0008093700890936F08A09371080895811129
:1007D00002C05C9A0FC0813039F49091AB0890FD53
:1007E00009C03E9A469806C0823021F490910E01CD
:1007F00092FF599821E030E0A90102C0440F551F33
:100800008A95E2F7CA019091DC05892B8093DC057B
:100810000895811102C05C980FC0813039F4909125
:10082000AB0890FD09C03E98469A06C0823021F47C
:1008300090910E0192FF599A21E030E0A90102C087
:10084000440F551F8A95E2F7CA0180959091DC0507
:1008500089238093DC050895EF92FF920F931F93F5
:10086000CF93DF93D82F0DED15E0C0E0E62EF12CED
:10087000DD2331F0F80180818D1B883088F401C0C0
:100880008C2F970102C0359527958A95E2F720FFB6
:1008900004C08C2F0E94E70303C08C2F0E94090420
:1008A000CF5F0F5F1F4FC33019F7DF91CF911F91BB
:1008B0000F91FF90EF9008956091DC0580E00C941B
:1008C0002C04CF92DF92FF920F931F93CF93DF936D
:1008D000F82E0DED15E0C0E0D0E0CC24C394D12C6F
:1008E000F80181918F018F110DC02091DC05C601A7
:1008F0000C2E01C0880F0A94EAF782278093DC054A
:100900000E945C042196C330D10551F7DF91CF914D
:100910001F910F91FF90DF90CF900895682F6695FB
:1009200081E00C942C04682F669589E00C942C04CB
:100930006091DB0585E10C942C04682F80E10E9416
:100940002C040C949804F894E0E9F0E0808181682C
:100950008083E1E9F0E08081836080838FEF90E025
:10096000909399008093980081E00E943F213E9AE5
:1009700078940895F8943E98E0E9F0E080818E77CD
:100980008083E1E9F0E080818C7F80838FEF90E0CD
:10099000909399008093980078941092E3050895BD
:1009A000CF939091DA05992341F08091AB088E7F27
:1009B0008093AB0810926E082DC0C82F0E9485232B
:1009C000C73090F4C430D0F4C13020F110926E08DA
:1009D0001092E5050E94A304EC2FF0E0E059FE4FD1
:1009E000E491E093080119C0C930A0F40E94A30467
:1009F00010926E0881E08093E5050FC081E080933E
:100A00006E081092E5050E94A30487E08C1B80937A
:100A1000E60503C0CF910C94BA04CF91089590E0FD
:100A200020919800309199008217930721F09093BC
:100A30009900809398000895FC019091AB0890FF75
:100A400018C082818823A9F0892F8E7F8E3039F4D7
:100A50008091E4058A508A3050F48AE008C08031E1
:100A600041F48091E405865F863708F086E780933D
:100A7000E40508958091E505882319F18091E20548
:100A80008F5F863018F48093E20508951092E20596
:100A90008091E405E82FF0E0EC58FE4FE491E093FC
:100AA00008019091AB089E7F9E3021F48E3748F468
:100AB0008F5F05C0903129F4823018F08150809307
:100AC000E40508951F920F920FB60F9211242F93F1
:100AD0003F934F935F936F937F938F939F93AF93C6
:100AE000BF93EF93FF938091AB0880FF69C0809123
:100AF000E30591E08E3740F02091330730913407C1
:100B00002D30310508F490E090FF30C09091E10560
:100B10009F5F923018F49093E10552C01092E10566
:100B200020913307309134072D30310520F0882390
:100B300029F0815001C08F5F8093E305E091E305C8
:100B4000F0E0EC58FE4FE4918091080120E031E0A4
:100B5000281B3109E29FC001E39F900D112497FFEC
:100B600002C081509F4F892F809528C080916E08C8
:100B7000882301F18091E0058F5F8093E0059091DB
:100B8000E6059817B8F41092E0058091E405E82F87
:100B9000F0E0EC58FE4FE491E093080190910701DA
:100BA000890F8093E4058F3711F0811103C091956F
:100BB000909307010E943A05809108010E940F0559
:100BC000FF91EF91BF91AF919F918F917F916F9125
:100BD0005F914F913F912F910F900FBE0F901F90FB
:100BE00018952BB1362F309523233BB1632B3FB79C
:100BF000F894FC018DE08150E1F0919148E06BB9EF
:100C000097FF2BB9990F000000C02BB9000000C05E
:100C100000C000C000C000C000C000C000C000C0D4
:100C200000C000C000C000C000C000C04A9539F735
:100C3000E2CF3FBF0895509A61E070E00C94F10557
:100C40009D5F811524E0920710F09350FACF08952C
:100C5000EF92FF920F931F93CF93DF9300D000D0BA
:100C60001F92CDB7DEB7062F142F79010E94200600
:100C7000492F9430B8F5602F70E0869F9001879FD0
:100C8000300D1124832F9927A12FB0E08A9FF00106
:100C90008B9FF00D9A9FF00D112420E031E0261B70
:100CA000370B2A9FC0012B9F900D3A9F900D112466
:100CB0009C839983892F8F0F8D838A831F1B1B83AE
:100CC000842F90E0FE01E80FF91F3181FE01E80F4B
:100CD000F91F2081FE01E80FF91F8281F70181834E
:100CE000308322830F900F900F900F900F90DF9121
:100CF000CF911F910F91FF90EF9008958AE090E0BF
:100D00000C94A927AB01BC018AE090E00C94C727A2
:100D100060910D0170910E0180910F019091100171
:100D20000C9482068CE0E2E7F8E0DF011D928A95E0
:100D3000E9F7089520917208309173084091740882
:100D40008091F50591E08B3740F060913307709109
:100D500034076D30710508F490E090FD1DC080915E
:100D60001F018823D1F120937B0830937C084093A6
:100D70007D08209378083093790840937A0820936F
:100D80007508309376084093770820937208309363
:100D900073084093740843C060913307709134071F
:100DA0006D30710568F0843018F084508093F5053B
:100DB000E091F505F0E0EC58FE4FA2E7B8E002C084
:100DC0008C5FF4CF8C919491899FC00111249D93E5
:100DD00088E0AE37B807B1F7C2CF8091DC0582FF5B
:100DE0001EC080916F0890917008A0917108809347
:100DF0007B0890937C08A0937D088093780890935B
:100E00007908A0937A088093750890937608A09348
:100E100077088093720890937308A093740882E710
:100E200098E00C941B0620910E0122FF15C02EE7BE
:100E300038E00E942806E2E7F8E080917E08909171
:100E40007F08A091800881939193A19388E0EE3769
:100E5000F80799F70C949A0608950F931F93CF9370
:100E6000DF93162FD42F0E942006082FC92F8091C0
:100E70000E0182FF23C0887F883029F44D2F612F17
:100E8000802F0E94130700930D01C37080910E0103
:100E90008C7FC82BC0930E0110930F01D0931001CB
:100EA00060910D0170910E0180910F0190911001E0
:100EB000DF91CF911F910F910C948206DF91CF911A
:100EC0001F910F91089590910E0192FD04C0599ABF
:100ED0001092F50511C087FD04C087311CF080E039
:100EE00001C086E1880F880F880F90910E019770DE
:100EF000892B80930E01599860910D0170910E011C
:100F000080910F01909110010E94820690910E0134
:100F10004091100160910F0180910D0193700C942C
:100F20002D070E94AA23811104C00E948B230E94D6
:100F300088060E947E0660930D0170930E018093D7
:100F40000F019093100180911001811103C08FE770
:100F500080931001519A80910E0186958695869511
:100F60000C946307EEE0F1E0808182FB222720F9F8
:100F700091E0922790FB82F98083869586958695ED
:100F80000C946307CF92DF92EF92FF920F931F931F
:100F9000CF93DF93D82FE0900D0180910E018370E5
:100FA000F82EC0900F0140911001042FD0FF02C015
:100FB000CFEF01C0C1E00E94C92081FDC1958D2FF6
:100FC00090E08930910508F04CC0FC01EA5AFF4FCF
:100FD0000C947F24DF91CF911F910F91FF90EF90A0
:100FE000DF90CF900C94B20780910E018695869584
:100FF00086958C0F0E94630734C080910D0120916B
:101000000E01922F93707C0124E1C202E00CF11CCE
:10101000112429C080910F0191E1C90260011124BE
:10102000C80ED11C2FEFC216D10409F01CF4D7FC56
:1010300027C019C0CC24CA94D12C15C080911001AE
:1010400091E1C902A00111248A01080F111D0F3F6F
:10105000110509F01CF417FD16C005C00FEF10E0D4
:1010600002C0D33098F0402F6C2DC701DF91CF9193
:101070001F910F91FF90EF90DF90CF900C942D0770
:10108000C12CD12CF0CF00E010E0EDCFDF91CF915B
:101090001F910F91FF90EF90DF90CF900895E2E7BE
:1010A000F8E0818360834283339698E0EE37F90756
:1010B000C1F70C949A06FC019091740780818036E8
:1010C00049F581818B3B21F4CF0103960C94C70C29
:1010D000933019F482810C946307943021F4438196
:1010E00062810C944F089530A9F4843068F4A82FDD
:1010F000B0E084819381228111962C9311979C9367
:1011000012968C930C949A068F3F21F482819381DE
:101110000C94C51B0895CF93C82FE091F405F0E01F
:10112000EC58FE4F449190910E0160910F01809117
:101130000D0193700E94130730910C012091F4056A
:101140003C9F200D11242093F4052C1738F08C2F90
:1011500090E0820F911D8F3791051CF031953093EF
:101160000C01CF910895CF93C82FEDE0F1E04381BA
:1011700062818091F2059091F3050E94130780919E
:10118000F2059091F30523E0C29F800D911D11247B
:101190000E9420069093F3058093F205CF91089565
:1011A000EF92FF921F93CF93DF93182F169580FD38
:1011B000119582E7E82E88E0F82EC0E0D0E080911B
:1011C000F0059091F10597014091100160910F0198
:1011D0008C0F9D1F0E942806E09623E0E20EF11C72
:1011E000C03CD10561F70E949A068091F00590916C
:1011F000F10520E1129F8019910911240E94200617
:101200009093F1058093F005DF91CF911F91FF90AE
:10121000EF900895FF920F931F93CF93DF939091D8
:10122000EF059F5F282F2695291740F09093EF0533
:10123000DF91CF911F910F91FF900895C82F1092C9
:10124000EF050E949206C0FF02C0CFEF01C0C1E0CF
:1012500000E010E0D0E0F0900B012F2D2D0F27FFC4
:1012600002C02C5F03C024300CF02450022E000C6E
:10127000330BC901880F991F280F391F2E58374F7C
:1012800080910D0140910E01942F937040911001B7
:1012900060910F01800F911F0E942806DC0F0E5CE9
:1012A0001F4F04361105B9F6CF0DC5301CF0109252
:1012B0000B0108C0C7FD03C0C0930B0103C084E04D
:1012C00080930B01DF91CF911F910F91FF900C94B0
:1012D0009A069091EE059F5F891718F09093EE059E
:1012E00008951092EE050E94920690E020E0809111
:1012F0000A01820F843098F490E0FC01EE0FFF1F8A
:101300008E0F9F1FFC01EE58F74F80917E08909141
:101310007F08A091800880839183A28391E02F5F52
:10132000243029F791110E949A0690910901809129
:101330000A01890F80930A018D5F8730B0F0919583
:10134000909309018091EC059091ED0588960E949B
:1013500020069093ED058093EC052EE738E0409150
:10136000100160910F010C94280608958091D90511
:10137000882331F0599A80910E018B7F80930E0162
:10138000599935C090910E0192FF28C080912E0787
:10139000811124C0892F869586958695E82FF0E0E7
:1013A000E731F10520F5E15AFF4F0C947F2440917D
:1013B000100160910F0180910D0193700C9413073F
:1013C0000C948B0884500C94B30886500C94D0086D
:1013D0008E500C940A0983510C94690980911F0165
:1013E000811103C08091DC0581110C949A06089547
:1013F0005C980E94BA04599A1092F505089580915C
:101400002E07811104C00E94BE230E9491070E94F2
:101410005C0480911B01843018F081E080931F01EF
:101420000895599918C08091EA059091EB050E94A2
:101430006021899780F00E9454219093EB0580935E
:10144000EA0580911F01882321F0809121018111FB
:1014500002C00C94B60908958091E8059091E905C1
:101460000E9460218739910508F451C00E945421DF
:101470009093E9058093E8058091E7058F5F80935D
:10148000E70590912E079923C1F0843008F43FC0FE
:10149000913011F080E001C083E08093E705379B35
:1014A00008C00E94BA04599A9BB180E189278BB980
:1014B000089510922E070C94FF0980911F01882334
:1014C00031F159988091E705813031F45C980E94A0
:1014D00092060E949A060FC0833069F45C9A80914C
:1014E0003107882319F060E840E002C060E040E87E
:1014F00080E00E944F08909131078091E70591119B
:1015000002C0853010F48B3010F01092E70508957A
:101510002091F6058091F705821759F030E0F90126
:10152000E850FA4F80812F5F3F4F2093F60590E0FF
:1015300008958FEF9FEF08959091C80095FFFCCF1D
:101540008093CE0008951F920F920FB60F92112430
:101550002F933F934F938F939F93EF93FF9380919C
:10156000F70590E09C012F5F3F4F4091F605421731
:1015700041F03091CE00FC01E850FA4F30832093C7
:10158000F705FF91EF919F918F914F913F912F918F
:101590000F900FBE0F901F9018950E945F188091BA
:1015A0001B01823050F48FE19EE40197F1F700C0F7
:1015B00000000E94DC130E94DE0AFFCF9EE088E15B
:1015C0000FB6F894A895809360000FBE90936000CA
:1015D00008958091A2088430E1F081E08093F806BC
:1015E00029E488E190E00FB6F894A8958093600014
:1015F0000FBE209360000E94F80983B7817F84604A
:1016000083BF83B7816083BF7894889583B78E7FCB
:1016100083BF08950C94FF091F920F920FB60F928B
:1016200011248F939F93AF93BF938091F8068130DD
:1016300099F48091150890911608A0911708B0911F
:1016400018088096A11DB11D809315089093160867
:10165000A0931708B0931808BF91AF919F918F91F5
:101660000F900FBE0F901F9018958091130708954B
:1016700008950F931F93CF930E9454218C01C0E0D3
:10168000C8010E9460214E9708F50E94880A8F3F8A
:101690002FEF9207C9F0AC0155274D305105A1F04D
:1016A0002C2F30E04A30510551F4C23030F0F901AE
:1016B000E850F94F80818F3449F08FE590E0F901CF
:1016C000E650F94F8083CF5FC731D0F2EC2FF0E0C6
:1016D000E650F94F10828AEF96E0CF911F910F915B
:1016E0000895CF93CAE10E94880A019611F0C15073
:1016F000D1F7CF9108950F931F93CF93DF935D9907
:101700000AC08C010E94710BE8018991882319F0AD
:101710000E949C0AFACFDF91CF911F910F910895FB
:101720009C012F5631092230310528F02A57310902
:101730002230310560F420911607211103C02FEFEC
:1017400020931607909315078093140702C01092F8
:10175000160720911707211116C09F938F938EE3D0
:1017600091E09F938F9381E898E09F938F930E94DD
:10177000EE240F900F900F900F900F900F9081E834
:1017800098E00C947B0B0895CF93DF93EC0180914C
:101790001707811132C08C81282F082E000C330BC3
:1017A0003F938F938B81282F082E000C330B3F9390
:1017B0008F938A81282F082E000C330B3F938F9331
:1017C0008981282F082E000C330B3F938F9386E5D9
:1017D00091E09F938F9381E898E09F938F930E946D
:1017E000EE2481E898E00E947B0B8DB79EB70C96A3
:1017F0000FB6F8949EBF0FBE8DBF80911707811161
:101800001FC08881909112078917D1F08093120729
:101810001F928F9386E791E09F938F938FE898E0D4
:101820009F938F930E94EE240F900F900F900F9034
:101830000F900F9081E898E0DF91CF910C947B0B93
:10184000DF91CF9108950E947B0B0C94390BCF93BD
:10185000DF93EC0186E90E943F21CE01DF91CF9119
:101860000C94230C80911807882321F010921807FC
:101870000C9403210895CF93DF9320911807211131
:1018800052C02091170721114EC0EC0181E891E070
:101890000E947B0B209731F485E991E0DF91CF9195
:1018A0000C947B0B8F811F928F938E811F928F934D
:1018B0008D811F928F938C811F928F938B811F92AA
:1018C0008F938A811F928F9388811F928F938CE9C7
:1018D00091E09F938F9381E898E09F938F930E946C
:1018E000EE2481E898E00E947B0B80E58A95F1F771
:1018F0008DB79EB742960FB6F8949EBF0FBE8DBFB0
:101900008881811110C08A81833531F0893331F0AB
:10191000873449F482E103C080E101C081E1DF91B5
:10192000CF910C946104DF91CF91089580E090E015
:101930000C943B0C809116078823D9F0823020F05C
:1019400081508093160708952091F9062F5F209308
:10195000F906809114079091150730E04FE451E0AB
:10196000481B590B2417350720F01092F9060C94E8
:10197000900B089583EC91E00C94270C803319F4BC
:1019800084ED91E002C083EE91E00C94270CCF939C
:10199000DF93EC0182EF91E00E947B0BCE010E946D
:1019A0007B0B8AE991E0DF91CF910C94270C81E0C9
:1019B00092E00C94C70C8FE092E00E94230CFC0193
:1019C000808108958EE192E00C94270C559A5D98E1
:1019D0000E944B21F89487E68093CC001092CD00B2
:1019E0008091C90080698093C9008091C900886096
:1019F0008093C9008091CA008093CA008091C8007A
:101A000082608093C80078948EE292E00E94270C56
:101A10008EE292E00E94230CFC018081813421F44B
:101A20008181843591F505C08F3479F581818B34BE
:101A300061F50E94BA0C8EE292E00E94270C82E3CC
:101A400092E00E94270C0E94D70C83EE91E00E9446
:101A5000270C89E392E00E94270C0E94E20C89E4A3
:101A600092E00E94270C86E692E00E94270C82EA10
:101A700092E00E94270C86EB92E00E94270C1092C5
:101A8000AD081092AC080E94CD0AF8948CE08093C7
:101A9000CC0078948EE292E00C94270CCF93599965
:101AA00003C0882309F4A0C0C82F89EC92E00E94EB
:101AB000230CFC01628180ED860F8A3008F05EC045
:101AC000408150E04053510984E6849FD001859FB6
:101AD000B00D1124818190E0C0974AE0489F9001A9
:101AE000499F300D11242A0F3B1F260F311D43E063
:101AF000220F331F4A95E1F72A5432402C3C40E133
:101B0000340788F480911D0190911E0183374EE0C7
:101B1000940709F4C901280F391F3695279530938A
:101B20001E0120931D0137990DC081E080932D0780
:101B300080911D0190911E01889790931E018093C2
:101B40001D0102C010922D0720911D0130911E0130
:101B500084E0369527958A95E1F720542093300745
:101B6000223A18F010922E0709C0253910F481E0AE
:101B700003C02D3918F485E080932E07C130A1F5FC
:101B800090913007E7E4F3E08AE52191921718F489
:101B90008A50D9F78CE220912E072111822F2091B3
:101BA0002D07820F211103C0923C08F084E6809338
:101BB0001C011F928F9385ED92E09F938F9381E894
:101BC00098E09F938F930E94EE2481E898E00E9412
:101BD000230C0F900F900F900F900F900F9081E8B3
:101BE00098E0CF910C94230CCF9108953F98479A99
:101BF00081E00C944E0DCF939091A20881E0943037
:101C000009F080E08093200180912C0187FF1CC0A7
:101C10000E9490168151914059F081E191E00E941B
:101C20008B168091DB058D7F8093DB050E949804E5
:101C300080913207811129C080912001882329F1E8
:101C400080912C018F7707C0943061F09091210131
:101C5000992321F0806880932C0117C08CE0809339
:101C60001B0113C00E9490168252914071F082E2D3
:101C700091E00E948B168091DB0582608093DB05EA
:101C80000E94980481E0809332078091210188238B
:101C900009F420C15D9915C10E94710B80911B014F
:101CA000823031F481E00E944E0D83E080931B016D
:101CB000C0912C07CC2309F446C00E94DB0C813371
:101CC00009F041C087EE92E00E94230CFC010190D4
:101CD0000020E9F79F01255131092817390799F5A7
:101CE000C13081F422E020932C07C0931F01109291
:101CF000310721E1FC01A9E1B7E001900D922A959D
:101D0000E1F721C041E150E069E177E00E94E12480
:101D1000892B59F080912C078F5F853090F01092BD
:101D20002C0781E0809331070EC08AEF92E00E9479
:101D3000230C80911F018F3018F010922C0703C0E4
:101D400082E080932C0780913807811199C080919F
:101D50003507909136070E946021893E934008F430
:101D60008FC00E945421909336078093350780914D
:101D70003107811105C080912C0781112FC008C047
:101D800080912B078F5F80932B078370A1F33DC059
:101D90000E94DB0C813321F481E0809331071CC069
:101DA0008033E1F410923107809137078F5F809381
:101DB000370790912001911111C090911B01992337
:101DC00069F08A3558F05D9A8091C900877F8093C9
:101DD000C90084E080931B011092370780911F0196
:101DE000882399F0843629F410921F010E945C0424
:101DF0000CC08F5F80931F01843120F480913107E4
:101E0000882319F084E680931F0180912A078F5F51
:101E100080932A07877021F480912D070E944E0D30
:101E20008091200181112CC080911F01811128C057
:101E300080913307909134070196909334078093F3
:101E4000330720911B01213039F40F9728F00E94AD
:101E5000960C82E080931B0180911B01833081F4FA
:101E600080913307909134078832934248F084E0A0
:101E700080931B015D9A8091C900877F8093C90080
:101E800080912F078823D9F08C3099F0823119F492
:101E900087E293E010C0853181F40E94E20C80E378
:101EA0000E94BE0C81E30E94BE0C82E493E00E947B
:101EB000230C8CE093E00E94230C10922F070E94C9
:101EC0009A0C80911B01823028F40E94320CCF9131
:101ED0000C942C0ACF910895CF93DF93C82F0E94C2
:101EE000C920D82F0E945F18C53191F198F4CC30E9
:101EF00061F118F4C530F1F18FC0C23131F1C33155
:101F000009F08AC090911B0181E0892780931B0111
:101F100060E069C0C93109F44CC028F4C63101F150
:101F2000C83141F079C0CC3B09F460C0C03C09F431
:101F300061C072C080912101882309F46FC0909123
:101F40002C01905890932C016AC0C0932F0766C053
:101F5000D0FF62C0C0932F0781E080931F015FC054
:101F600080911F01811102C081E001C084E680934D
:101F70001F0154C08D2F837251F0DD7DD13031F4BB
:101F80008BE29CEF9093010880930008FFCFDC3038
:101F900039F48AEA9BEB9093AD088093AC08FFCFAD
:101FA00082E39FE00E94C51B82E39FE10E94C51B64
:101FB00035C080911C0160E090E00E94D11BD0FFF1
:101FC0000BC08DE290E00E94C51B60E080911D0176
:101FD00090911E010E94D11B8DE290E00E94C51BD2
:101FE00060E0809131070E949D1818C081E08093C5
:101FF0002C0715C080912001811110C05D9A80913D
:10200000C900877F8093C9008AE080931B011092EA
:1020100031070E94CC1F02C080E001C081E0DF9147
:10202000CF910895CF93DF93CDB7DEB729970FB641
:10203000F894DEBF0FBECDBF96E0E5E3F1E0DE0130
:10204000119601900D929A95E1F720913B01309104
:102050003C0140913D012F8338874987282F30E08C
:102060008B3018F0ECEFFFEF02C0E1E0F0E0EC0F96
:10207000FD1FE20FF31F808129960FB6F894DEBF93
:102080000FBECDBFDF91CF910C946C0FCF9390E03A
:1020900080E80FB6F89480936100909361000FBEC2
:1020A0000E94F5010E9437147894809121018823C1
:1020B00021F00E94E60C0E94F60DCFEF8091A2085D
:1020C000C150843029F084E00E943F21C111F6CF35
:1020D0000E94E3160E94DE0AC1E080911B01843059
:1020E00038F4A895823010F40E94ED160E94FB0D82
:1020F00080911B01823040F4809121018111EDCF4C
:102100008091A208843049F30E94E90A0E94DE0A05
:102110000E947B03882309F310923407109233073F
:102120000E94FF0980912101882389F0C0931B013F
:10213000C09318075D988091C90083FD03C084E6B1
:102140000E943F218091C90088608093C9008091DE
:102150003207882311F28091A208853009F0BDCFA3
:102160000E94B812BACF80914A0708958FEF9091DC
:10217000E800815095FD06C09AE69A95F1F700C0F7
:102180008111F5CF8091E80085FB882780F991E0E7
:1021900089270895CF93DF9300D01F92CDB7DEB784
:1021A0002091A2082430B9F423E029839B838A83F9
:1021B0002093E9000E94B61081110DC040E050E06C
:1021C00063E070E0CE0101960E94CD128091E8009C
:1021D0008E778093E8000F900F900F90DF91CF9152
:1021E0000895CF93DF9300D01F92CDB7DEB7209133
:1021F000A2082430C1F422E029839B838A8383E0F0
:102200008093E9000E94B61081110DC040E050E0BB
:1022100063E070E0CE0101960E94CD128091E8004B
:102220008E778093E8000F900F900F90DF91CF9101
:102230000895CF93DF932091A2082430A1F4EC01FC
:1022400082E08093E9000E94B61081110CC040E04A
:1022500050E065E070E0CE010E94CD128091E80070
:102260008E778093E800DF91CF910895CF93DF932D
:10227000EC019091A2089430B9F580912C01817104
:102280008131B9F49093E9008FEF9091E80081508B
:1022900095FD06C095E19A95F1F700008111F5CF03
:1022A0008091E80085FF20C040E050E060E170E0F0
:1022B0000BC081E08093E9000E94B610811114C028
:1022C00040E050E068E070E0CE010E94CD128091C5
:1022D000E8008E778093E80080E1FE01AAE3B7E092
:1022E00001900D928A95E1F7DF91CF910895809149
:1022F000A108811109C00E94DC130E94371480914B
:10230000E20084608093E20008951092A10808958D
:10231000089542E061EC81E00E94761342E061ECB6
:1023200082E00E94761342E061EC83E00E94761323
:1023300042E161EC84E00C9476138091A408833030
:1023400009F455C030F4813071F0823009F48EC048
:1023500008958A3009F47AC08B3009F460C089305E
:1023600009F09CC020C08091A308813A09F096C072
:102370008091E800877F8093E8008091A708909182
:10238000A808892B21F460E18AE397E003C060E0AC
:1023900080E090E070E00E9418138091E8008B7755
:1023A0008093E80008958091A308813209F076C0F7
:1023B0008091A7089091A808009719F0039709F059
:1023C0006DC08091E800877F8093E8008091E800ED
:1023D00082FD05C08091A2088111F8CF5FC0809175
:1023E000F10080934A078091E8008B7753C0809179
:1023F000A308813A09F052C08091A7089091A808DB
:10240000892B09F04BC08091E800877F8093E8001A
:102410008091E80080FFFCCF80912C0136C0809134
:10242000A3088132D9F58091A7089091A808892B3B
:10243000A9F58091E800877F8093E8000E948A13C5
:102440008091A50880932C010C945F188091A308BB
:10245000813221F58091E800877F8093E8000E9417
:102460008A138091A60880934B0708958091A30852
:10247000813AA1F48091E800877F8093E800809101
:10248000E80080FFFCCF80914B078093F1008091A2
:10249000E8008E778093E8000C948A130895809169
:1024A0004A078093390710924A0780E00E949D04F2
:1024B0000E94B6170C945F180C944F120E940A0BDE
:1024C0008091390780934A0708950C945E12292F52
:1024D000332723303105C1F058F42130310579F02C
:1024E00022303105E9F58DE690E029EA33E03CC081
:1024F00021323105C1F02232310511F131C082E1C2
:1025000090E026E134E030C099278330910540F512
:10251000FC01EE0FFF1FE959FC4F20813181FC01C6
:10252000EC59FC4F1AC06430D8F4E62FF0E0EE0FFF
:10253000FF1FE45AFC4F2081318189E090E014C0F4
:10254000643070F470E0FB01EE0FFF1FEC5AFC4F9B
:1025500020813181FB01E05BFC4F808190E004C071
:1025600080E090E020E030E0FA013183208308959C
:1025700019BC82E089BD09B400FEFDCF8091D8006E
:102580008F7D8093D8008091E00082608093E0008E
:102590008091E00081FDFCCF0895CF92DF92EF9211
:1025A000FF920F931F93CF93DF93EC018B017A017E
:1025B0000E94A913811133C0E114F10439F0F7012D
:1025C00080819181081B190BC80FD91FC12CD12CF8
:1025D0000115110519F18091E80085FD16C0809163
:1025E000E8008E778093E800E114F10449F0F701E8
:1025F00080819181C80ED91ED182C08285E00FC032
:102600000E94A913882321F30AC089918093F100C5
:1026100001501109FFEFCF1ADF0ADACF80E0DF9116
:10262000CF911F910F91FF90EF90DF90CF90089581
:102630002091A9083091AA082617370748F061159C
:10264000710539F42091E8002E772093E80001C04D
:10265000B901FC0120E06115710579F18091A208B2
:102660008823F1F18530F1F18091E80083FD3CC0D1
:102670008091E80082FD2EC08091E80080FFEBCFC2
:102680002091F3008091F20090E0922B611571058A
:1026900051F08830910538F421912093F100615078
:1026A00071090196F3CF21E0089709F020E08091AD
:1026B000E8008E778093E800CECF2111CFCF0AC0FB
:1026C0008091A208882361F0853061F08091E80054
:1026D00083FD0AC08091E80082FFF2CF80E0089578
:1026E00082E0089583E0089581E008958F708093DB
:1026F000E900EBEEF0E0808181608083EDEEF0E0B8
:1027000010826093EC0040838091EE00881F882740
:10271000881F08958091A30887FF11C08091E80069
:1027200082FD05C08091A2088111F8CF11C080916F
:10273000E8008B770BC08091A208882349F0809134
:10274000E80080FFF8CF8091E8008E778093E80062
:1027500008952091E4003091E50095E64091EC0069
:10276000842F817040FF23C08091E80080FD1DC050
:102770008091A208882399F0853099F08091EB0030
:1027800085FD11C04091E4005091E5002417350704
:1027900029F3915011F09A01E1CF84E0089582E08D
:1027A000089583E0089581E0089580E008954091C0
:1027B000E80042FFDDCF08950E9448140E945014A3
:1027C000E0EEF0E0808181608083E8EDF0E08081E0
:1027D0008F77808319BCA7EDB0E08C918E7F8C93AE
:1027E00080818F7E80831092A10808950F931F939C
:1027F000CF93DF930E9448140E945014C8EDD0E09C
:1028000088818F77888388818068888388818F7D9D
:10281000888319BC1092A20810929F081092A008F9
:1028200000EE10E0F80180818B7F808388818160D9
:10283000888342E060E080E00E947613E1EEF0E001
:1028400080818E7F8083E2EEF0E0808181608083F2
:10285000808188608083F80180818E7F8083888179
:1028600080618883DF91CF911F910F910895E8EDEA
:10287000F0E080818F7E8083E7EDF0E080818160F1
:10288000808384E082BF81E08093A1080C94F613DA
:10289000E8EDF0E080818E7F80831092E200089561
:1028A0001092DA001092E10008951F920F920FB675
:1028B0000F9211242F933F934F935F936F937F93C6
:1028C0008F939F93AF93BF93EF93FF938091E1001A
:1028D00082FF0BC08091E20082FF07C08091E1007F
:1028E0008B7F8093E1000E948A168091DA0080FF3E
:1028F0001DC08091D80080FF19C08091DA008E7FC2
:102900008093DA008091D90019BC80FF0BC082E06F
:1029100089BD09B400FEFDCF81E08093A2080E942A
:10292000771104C01092A2080E9485118091E100E5
:1029300080FF19C08091E20080FF15C08091E20005
:102940008E7F8093E2008091E20080618093E200BC
:102950008091D80080628093D80019BC85E0809374
:10296000A2080E945C128091E10084FF35C0809132
:10297000E20084FF31C080912001823010F40E9477
:10298000CD0A19BC82E089BD09B400FEFDCF80915B
:10299000D8008F7D8093D8008091E1008F7E809356
:1029A000E1008091E2008F7E8093E2008091E2005E
:1029B00081608093E20080919F08882311F084E079
:1029C00007C08091E30087FD02C081E001C083E081
:1029D0008093A2080E9465128091E10083FF29C0C4
:1029E0008091E20083FF25C08091E100877F809382
:1029F000E10082E08093A20810929F088091E1009C
:102A00008E7F8093E1008091E2008E7F8093E200D0
:102A10008091E20080618093E20042E060E080E02B
:102A20000E9476138091F00088608093F0000E94ED
:102A30008811FF91EF91BF91AF919F918F917F91FD
:102A40006F915F914F913F912F910F900FBE0F901B
:102A50001F9018951F920F920FB60F9211242F936B
:102A60003F934F935F936F937F938F939F93AF9316
:102A7000BF93CF93DF93EF93FF93C091E900CF70A3
:102A80008091EC00D82FD17080FDD0E81092E90041
:102A90008091F000877F8093F00078940E946E15FB
:102AA0001092E9008091F00088608093F000CD2BB7
:102AB000CF70C093E900FF91EF91DF91CF91BF916B
:102AC000AF919F918F917F916F915F914F913F91C6
:102AD0002F910F900FBE0F901F9018951F93CF93BB
:102AE000DF9300D0CDB7DEB7E3EAF8E08BEA98E0F9
:102AF0002091F10021938E179F07D1F70E949D111D
:102B00008091E80083FFF2C08091A3089091A4080F
:102B1000492F50E04A30510508F0E8C0FA01EA5860
:102B2000FF4F0C947F24803881F0823809F0DEC09A
:102B30008091A7088F708093E9008091EB0085FB5E
:102B4000882780F91092E90007C08091A0088823A7
:102B500011F082E001C080E09091E800977F9093AF
:102B6000E8008093F1001092F10095C0282F2D7F8E
:102B700009F0BCC0882319F0823061F0B7C08091A1
:102B8000A508813009F0B2C0933009F080E080934D
:102B9000A0082BC08091A508811127C08091A708AB
:102BA0008F7009F4A3C08093E9002091EB0020FF0F
:102BB0001CC0933021F48091EB00806214C090918E
:102BC000EB0090619093EB0021E030E0A90102C09E
:102BD000440F551F8A95E2F74093EA001092EA00ED
:102BE0008091EB0088608093EB001092E900809167
:102BF000E800877F53C0811179C01091A5081F7725
:102C00008091E3008078812B8093E3008091E8003D
:102C1000877F8093E8000E948A138091E80080FFFC
:102C2000FCCF8091E30080688093E300111102C023
:102C300082E001C083E08093A20858C080588230AF
:102C400008F054C0AE014F5F5F4F6091A7088091BC
:102C5000A5089091A6080E946712BC01892B09F46F
:102C600045C09091E800977F9093E80089819A8110
:102C70000E9418138091E8008B778093E80036C09B
:102C80008038A1F58091E800877F8093E8008091EB
:102C90009F088093F1008091E8008E778093E80090
:102CA0000E948A1323C0811121C08091A5089091B0
:102CB000A60899270297D4F48091E800877F809333
:102CC000E8008091A50880939F080E948A13809154
:102CD0009F08811106C08091E30087FD02C081E05A
:102CE00001C084E08093A2080E9489118091E800CD
:102CF00083FF0AC08091E800877F8093E80080917D
:102D0000EB0080628093EB000F900F90DF91CF91EA
:102D10001F91089508959093510780935007089547
:102D200080915007909151070895E0915007F091DC
:102D30005107309721F00190F081E02D099480E057
:102D40000895E0915007F0915107309721F00280EB
:102D5000F381E02D09940895E0915007F091510717
:102D6000309721F00480F581E02D09940895209199
:102D70004E0730914F072817390771F090934F078E
:102D800080934E07E0915007F0915107309721F062
:102D90000680F781E02D0994089520914C07309129
:102DA0004D072817390771F090934D0780934C0712
:102DB000E0915007F0915107309721F00084F185A0
:102DC000E02D099408950E944B210E9428020E9440
:102DD000BF030E9473230C94BE238F929F92AF92E5
:102DE000BF92CF92DF92EF92FF920F931F93CF93F8
:102DF000DF9300D000D01F92CDB7DEB70E9437021C
:102E00000AE617E0F12C8F2D0E9468034C01F801AF
:102E1000A080B180A826B926A114B10439F4F39496
:102E20000E5F1F4FF5E0FF12EECF33C08091140804
:102E300081FD0E947103E12CCC24C394D12CC501E7
:102E40008C219D21892BF1F0E982FA8221E0C401D5
:102E50008C219D21892B09F420E02B830E94542191
:102E600081609D838C83CE0101960E94B717CE01AD
:102E700001960E941C05F801808191818C259D2579
:102E800091838083E394CC0CDD1CF0E1EF12D7CF6B
:102E9000C6CF80E090E00E94B7170E94110A0E94FE
:102EA0006D2280917407882389F080916807909142
:102EB00069070E9460218C34910540F010926707E9
:102EC00083E597E00E945B08109274070E949516B4
:102ED000909152078917A1F10E949516809352078D
:102EE00084FF2CC0E0917407F0E0ED5AF84F908118
:102EF000990F990F8370892B80830E94542190939E
:102F0000690780936807809167078F5F80936707E1
:102F10008430B0F080915307803641F4809174077B
:102F2000823020F487E490E00E94C51B109267076E
:102F3000809174078F5F8093740702C00E943D21C7
:102F40000F900F900F900F900F90DF91CF911F91E6
:102F50000F91FF90EF90DF90CF90BF90AF909F9038
:102F60008F9008950C949D0485E008950895CF9363
:102F7000DF9300D000D000D0CDB7DEB7FC01892BA5
:102F800039F40E945421816060E05FEF4FEF05C08B
:102F900040815181628183819481FE01319626E0D6
:102FA000DF011D922A95E9F7782F9D838C838D810F
:102FB0009E810E948F1E26960FB6F894DEBF0FBE2C
:102FC000CDBFDF91CF910895CF93882349F1803B06
:102FD00029F484EF91E0CF910C943D1FC82F8CEF22
:102FE0008C0F813A20F080E58C0F8E3250F48C2FBC
:102FF0000E943523811114C061E08C2F0E947E2035
:103000000CC080E28C0F883058F4C77081E001C09A
:10301000880FCA95EAF70E94CC20CF910C94032127
:10302000CF910895882351F19CEF980F913A20F0A9
:1030300090E5980F9E3220F460E00E947E200DC043
:1030400090E2980F983058F4877091E001C0990F82
:103050008A95EAF7892F0E94D2200C9403219BE5E0
:10306000980F933020F480E090E00C94B716885AC3
:10307000873120F480E090E00C94CD1608958823E9
:1030800021F00E94CC200C9403210895882321F084
:103090000E94D2200C94032108950E94E9200E94EE
:1030A000BF200E9403210E9429230E94622280E007
:1030B00090E00E94B71680E090E00C94CD160E943C
:1030C000D9200C944D18CF93DF9300D000D01F92DD
:1030D000CDB7DEB70E941520292F22952F702C30F6
:1030E00030F42A30A0F42250223030F01DC02C30B1
:1030F000A9F02F3099F018C0853A28F4843090F464
:10310000823028F40FC090E2980F983058F0843045
:1031100058F0853A38F0803F39F404C093FB882793
:1031200080F903C081E001C080E00F900F900F9004
:103130000F900F90DF91CF910895811101C08AE027
:10314000662311F0885A01C0835E90E00C94C51B81
:10315000CF92DF92EF92FF920F931F93CF93DF9363
:1031600000D000D01F92CDB7DEB76C0185E0F6012C
:10317000DE01119601900D928A95E1F7F601238107
:10318000348189819A812115310531F09F3F31F4D5
:1031900091E08F3F19F403C091E001C090E090FDF1
:1031A000CBC2F601F280058102950F702230310505
:1031B00061F0722F3D832C8349815A816F2D8D815F
:1031C0000E941520E82E192F02C0E9801A81E12FF4
:1031D000E295EF708E2F90E0FC01E058FF4F0C94C9
:1031E0007F24812F807F1F70882311F01295107F1C
:1031F000FF2021F10E94C920812390911108892B81
:1032000080931108112351F0EE2019F081E0809392
:103210000F08812F0E94DC200E9403218E2D0F9029
:103220000F900F900F900F90DF91CF911F910F9102
:10323000FF90EF90DF90CF900C94E41790911108DD
:10324000812F809589238093110810920F088E2D6D
:103250000E941218112309F46FC2812F0E94E220EC
:103260000F900F900F900F900F90DF91CF911F91C3
:103270000F91FF90EF90DF90CF900C940321812F5E
:10328000807F1F70803211F01295107FEE2021F0A8
:10329000F1E0EF16F9F028C0FF20A1F0812F002304
:1032A00049F1013039F50F900F900F900F900F906A
:1032B000DF91CF911F910F91FF90EF90DF90CF9012
:1032C0000C94EC20002319F0013009F435C20E945F
:1032D000EF2055C0FF20E9F0043008F02DC20E9415
:1032E000C920812331F04BC0FF2009F446C00111F1
:1032F00014C0812F0F900F900F900F900F90DF91BF
:10330000CF911F910F91FF90EF90DF90CF900C9491
:103310003F18033008F010C232C0F601858180FFEB
:1033200016C08F708583E5CFF0EFEF1609F4E8C083
:10333000FE1508F4C4C020EEE21608F0C5C0FF2058
:1033400009F438C1002309F427C113FD21C18E2DD2
:103350000E94E417F9E3EF12EFC182E30F900F90A0
:103360000F900F900F90DF91CF911F910F91FF90D1
:10337000EF90DF90CF900C943F21011123C1812F5A
:10338000B0C0812F86958695837019F08130C1F089
:10339000D3C1FF2021F08E2D912F937002C080E0C9
:1033A00090E00F900F900F900F900F90DF91CF91C2
:1033B0001F910F91FF90EF90DF90CF900C94CD165E
:1033C000FF20C9F08E2D912F9370811523E0920775
:1033D000A4F089EF91E00E943D1F60E08E2D829560
:1033E0008F700E949D1860E08E2D8F700E949D1836
:1033F00087EF91E019C180E090E00F900F900F905F
:103400000F900F90DF91CF911F910F91FF90EF9050
:10341000DF90CF900C94B7168E2DFF2089F00E947C
:10342000AD210E94622285E48E1508F485C1EE2D3F
:10343000F0E0E15EF74F81E0808380931E087CC15D
:103440000E94FB210E946222E5E4EE1508F474C19B
:103450002E2D30E0F901E15EF74F1082EE2011F0E1
:10346000C901CCC084EF90E5C9C0F11065C19E2DA3
:103470009F70892FE294E69427E0E22211F420E085
:1034800001C024E001C0880F2A95EAF7212F23709C
:1034900011F460E005C01C7061E0183009F456C0FA
:1034A0000F900F900F900F900F90DF91CF911F9181
:1034B0000F91FF90EF90DF90CF900C94B71F81EFAA
:1034C000E81609F452C03BCF0E2D0F70812F8F717B
:1034D000FF2021F00E94EC1F802F0CCF0E94FD1FC7
:1034E000802F0F900F900F900F900F90DF91CF9142
:1034F0001F910F91FF90EF90DF90CF900C944618A2
:10350000FF20A1F0033008F017C1812F8F710F90B9
:103510000F900F900F900F90DF91CF911F910F910F
:10352000FF90EF90DF90CF900C94EC1F043008F0E8
:1035300003C11F71812F0E94FD1F033009F0FCC0E1
:1035400061E081E001C0880F1A95EAF70F900F90B3
:103550000F900F900F90DF91CF911F910F91FF90DF
:10356000EF90DF90CF900C940D20F110CECF812FF3
:103570008F710F900F900F900F900F90DF91CF9160
:103580001F910F91FF90EF90DF90CF900C94FD1F53
:10359000F601858180FFDBCE012F0770802F0E940E
:1035A000EC1F14FFC9C069817A81802F0E94952188
:1035B00061E025C00023B1F013FF04C0F60185814E
:1035C00080FD10C08E2D0F900F900F900F900F90D8
:1035D000DF91CF911F910F91FF90EF90DF90CF90EF
:1035E0000C941218012F0770802F0E94FD1F14FFEA
:1035F000A3C069817A81802F0E94952160E00F909D
:103600000F900F900F900F90DF91CF911F910F911E
:10361000FF90EF90DF90CF900C94AA1B412F4F703A
:103620006E2DC6010E94AC010F900F900F900F906D
:103630000F90DF91CF911F910F91FF90EF90DF904E
:10364000CF900C943D1FF11077C0EE2041F0812FF8
:103650008F70843021F0107F9E2D9F70192B1F706A
:103660001230C9F1A0F4112339F1113009F064C00E
:103670000F900F900F900F900F90DF91CF911F91AF
:103680000F91FF90EF90DF90CF900C94EE231330CA
:1036900089F1143009F050C08E2D0F900F900F90CB
:1036A0000F900F90DF91CF911F910F91FF90EF90AE
:1036B000DF90CF900C9453240F900F900F900F90A9
:1036C0000F90DF91CF911F910F91FF90EF90DF90BE
:1036D000CF900C94D3230F900F900F900F900F90DA
:1036E000DF91CF911F910F91FF90EF90DF90CF90DE
:1036F0000C9411240F900F900F900F900F90DF916A
:10370000CF911F910F91FF90EF90DF90CF900C948D
:103710003024412F4F706E2DC6010F900F900F90E7
:103720000F900F90DF91CF911F910F91FF90EF902D
:10373000DF90CF900C942A010F900F900F900F9074
:103740000F90DF91CF911F910F91FF90EF90DF903D
:10375000CF900895CF93DF9300D000D000D0CDB7A5
:10376000DEB789839A836B8382E090E09D838C83AC
:10377000CE0101960E94A81826960FB6F894DEBFD7
:103780000FBECDBFDF91CF910895CF93DF93EC01B2
:1037900061E00E94AA1B60E0CE01DF91CF910C9402
:1037A000AA1BBF92CF92DF92EF92FF920F931F93CB
:1037B000CF93DF936C01B62EC5E0D0E000E117E2B5
:1037C0008AE0E82EF12CC601B8010E946B24CB01DF
:1037D000009731F0B7010E946B246B2D0E949D1859
:1037E000C801B7010E946B248B01219761F7DF911B
:1037F000CF911F910F91FF90EF90DF90CF90BF90EE
:103800000895CF93DF9300D000D01F92CDB7DEB7DD
:103810000F900F900F900F900F90DF91CF91089520
:10382000CF93DF9300D000D000D0CDB7DEB726967F
:103830000FB6F894DEBF0FBECDBFDF91CF910895D4
:103840001F93CF93DF93C091750716E080917607A1
:10385000C81799F0D0E01C9FF0011D9FF00D1124B6
:10386000E958F84F4081518162817381848195814B
:103870000E94101C2196C770E9CFDF91CF911F9154
:1038800008954091A7075091A8076091A9077091EA
:10389000AA078091AB079091AC070C94101C0F9372
:1038A0001F93CF93DF938091AC0782958F7009F0BF
:1038B0005DC08091A907882309F458C080917507DD
:1038C000109176076091A7077091A807C091AA0789
:1038D000D091AB0791E06F3F09F090E0292F06E00F
:1038E000811709F443C0209721F07F3F21F030E099
:1038F00003C031E001C0322F90E030FD34C0089F9A
:10390000F001099FF00D1124DF01A958B84F11965D
:103910003C911197371327C03C91361324C012965F
:103920003C91129731111FC013964D915C911497E1
:103930004C1B5D0B483C5105B0F48091AC078F7077
:1039400080618093AC07E458F84F80818F7080616C
:10395000808387EA97E00E94A818DF91CF911F919A
:103960000F910C94201C01968770BACFDF91CF91F4
:103970001F910F9108959F92AF92BF92CF92DF92C5
:10398000EF92FF920F931F93CF93DF93CDB7DEB7E4
:1039900061970FB6F894DEBF0FBECDBF8C0185E0F6
:1039A000F801DE011D9601900D928A95E1F7F8016C
:1039B00040815181F280C380D4809091A7076091AB
:1039C000A8072091AA073091AB072115310531F0E6
:1039D0006F3F31F481E09F3F19F403C081E001C0E3
:1039E00080E0F82FF1709F2E80FD52C187EAA82E4B
:1039F00087E0B82EE090A907F601E21BF30BEE205A
:103A000009F4E8C08091AC07E83CF10508F0A4C0D7
:103A1000282F207F09F053C0561313C0491311C03B
:103A2000EF2CF1100EC08F7080618093AC070E9464
:103A3000411CC5010E94A8188091AC07F80185833C
:103A40005BC1C114D10431F05F3F31F481E04F3FDD
:103A500019F403C081E001C080E080FD03C081E073
:103A60008F2502C080E090E0F82FF170EF2E80FFEC
:103A70001CC0809175072091760736E0821709F403
:103A800018C190E0389FF001399FF00D1124E958DA
:103A9000F84F6181561306C06081461303C06281EE
:103AA000F61203C001968770E9CFEF2CFF2009F4CE
:103AB00023C18091AC0781608093AC0762C056132C
:103AC00006C0491304C0F11002C0F801A7C04D8719
:103AD0005E87FF867C2DD98AC88A6F2D89890E94CE
:103AE0006318882399F1FF2089F12091AC07822F78
:103AF00082958F7090E0029774F08091A707909163
:103B0000A80798878F831986DB86CA862C87CE0103
:103B100007960E94A81886E0F801A7EAB7E001908E
:103B20000D928A95E1F70E944F1C0E94411C11C022
:103B3000561749F14D875E87FF867C2DD98AC88A42
:103B40006F2D89890E94631881112CC0C8010E94C1
:103B5000A818EE24E394D0C0282F207F49F77C2DAD
:103B6000D98AC88A6F2D89890E94011C87EA97E04B
:103B70000E94A81886E0F50111928A95E9F70E9443
:103B8000411CE12CB9C04913D5CFF110D3CFF801B6
:103B90008583C8010E94A81886E0F50111928A95D4
:103BA000E9F7AAC0FF2091F22091AC07822F8295FD
:103BB0008F7090E002970CF4AECF8091A7079091A0
:103BC000A8079A8389831B82DD82CC822E83CE0153
:103BD00001969FCFE83CF10508F04BC0EF2CFF2089
:103BE00009F4B4CF561330C049132EC02091AC074E
:103BF00020FD21C0822F82958F70482F50E0411503
:103C00005105C9F0F80125834F30510541F08F5F10
:103C1000982F9295907F822F8F70892B8583C80172
:103C20000E94A81886E0F801A7EAB7E001900D927B
:103C30008A95E1F72AC086E0F801A7EAB7E001908B
:103C40000D928A95E1F758C04D875E87FF867C2DDF
:103C5000D98AC88A6F2D89890E94631881115BCF28
:103C60008091AC0781608093AC07C8010E94A818BE
:103C700043C07C2DD98AC88A6F2D89890E94011C76
:103C800086E0F50111928A95E9F70E94411C34C043
:103C9000FF2009F45BCF4D875E87FF867C2DD98A94
:103CA000C88A6F2D89890E946318882309F44ECF32
:103CB00032CF7C2DD98AC88A6F2D89890E94152020
:103CC000292F22952F70223028F49F7039F081110E
:103CD00005C00BC0243028F49F7049F4805E883002
:103CE00020F0C8010E94A8189E2CE92C05C0F801FC
:103CF0009581907F99F7F9CF8E2D61960FB6F89444
:103D0000DEBF0FBECDBFDF91CF911F910F91FF900E
:103D1000EF90DF90CF90BF90AF909F9008951F934A
:103D2000CF93DF93CDB7DEB72C970FB6F894DEBFF5
:103D30000FBECDBF4F83588769877A878B879C8753
:103D4000CE0107960E94BB1C8823D1F09F818885F5
:103D50002A853B85232B31F08F3F31F481E09F3F53
:103D600019F403C081E001C080E080FD47C04F81AD
:103D7000588569857A858B859C850E94101C3EC07C
:103D800086E0FE013796DE01119601900D928A952C
:103D9000E1F7FF81E8856A857B856115710531F062
:103DA000EF3F31F481E0FF3F19F403C081E001C02F
:103DB00080E080FD23C02091760730E0C9010196A4
:103DC000877099274091750750E084179507F1F1A6
:103DD000F983EA837D836C8396E0929FD001939F61
:103DE000B00D1124A958B84FFE01319601900D92E3
:103DF0009A95E1F7809376070E94201C16E0809147
:103E0000750790917607891771F1189FC0011124E9
:103E10008958984F0E94BB1C882329F1E0917507AF
:103E20001E9FF0011124E958F84F408151816281B1
:103E30007381848195810E94101C8091750790E0A8
:103E400001968770992780937507D9CF0E945F18D4
:103E50001092760710927507E7EAF7E086E0DF0137
:103E60001D928A95E9F72C960FB6F894DEBF0FBE27
:103E7000CDBFDF91CF911F910895CF92DF92EF9246
:103E8000FF921F93CF93DF937C010E94320CE114C9
:103E9000F10409F464C0E7012196F7011491193780
:103EA00009F43EC0B8F4143740F4143008F052C09E
:103EB0008FEF810F8230F8F052C0143709F04FC0F5
:103EC000F2E0EF0EF11CFE0184910E943F21E70118
:103ED0007E01E1CF133828F4113868F4103801F16D
:103EE0003EC01338B9F0143F08F039C01F77812F56
:103EF00090E0926031C0FE0185919491612F6170D4
:103F0000E701133018F42296992701C023960E94E6
:103F1000AA1BDECFFE0185919491E70123961CC078
:103F2000FE01C590D490E701239684E00E943F18DB
:103F3000103841F461E081E00E949D18F0EACF1A48
:103F4000F6E8DF0A61E0C6010E94D11B84E00E940E
:103F50004618BECF812F90E00E94C51BB9CFDF91DC
:103F6000CF911F91FF90EF90DF90CF900895E62FB3
:103F7000F0E0E35DFE4F8083611105C080912D016B
:103F80000E94930407C090912E0180912F01892BEC
:103F90000E948E040C944D1862E080E00C94B71FD0
:103FA00021E030E0A90102C0440F551F8A95E2F7D5
:103FB000CA0190912F0162E0892B0C94B71F21E078
:103FC00030E001C0220F8A95EAF7209580912F01F9
:103FD00062E082230C94B71F90913001981306C0C1
:103FE0009091FD079F5F9093FD0705C091E090932E
:103FF000FD07809330010C94D01F909130019813ED
:104000000AC09091FD0791509093FD07911103C054
:1040100093E6909330010C94DF1FE62FF0E0E35D10
:10402000FE4F908189270C94B71FAF92BF92DF9209
:10403000EF92FF920F931F93CF93DF9300D000D0A6
:104040001F92CDB7DEB78A016623C9F1A0902D017A
:1040500080912E01A82A80912F01A82A80913001F9
:10406000883028F087E0E82EF12CB12C08C0BA0186
:104070000E9495210197B1F3D090300116C0DE2C3B
:10408000C5010E2C02C0959587950A94E2F780FD34
:1040900006C081E0E81AF10891F7D12C06C0B801FA
:1040A0008E2D0E9495210197A1F380E1189FF001C8
:1040B0001124E355F84FE00FF11DD08209C080E1D3
:1040C000189FF0011124E355F84FE40FF11DD08043
:1040D00009831A8369817A818D2D0E9495210F9021
:1040E0000F900F900F900F90DF91CF911F910F9134
:1040F000FF90EF90DF90BF90AF90089590912C01CA
:1041000091799131F1F4382F3695369536953F30C7
:10411000A8F5E0913101F0913201282F277081E05C
:1041200090E001C0880F2A95EAF7E30FF11D66239E
:1041300019F09181892B03C0809591818923818316
:1041400008952091310130913201F90171964FEFBC
:104150009EE05291552331F0851305C061110EC0C8
:10416000108201C0492F9150A0F7662339F0F90160
:10417000E40FF11D47FDFA95828308950895E091BB
:104180003101F091320180E1DF011D928A95E9F75A
:10419000089580911308089590911308892B8093B6
:1041A000130808958095909113088923809313082C
:1041B000089510921308089590911208892B809306
:1041C000120808958095909112088923809312080F
:1041D00008951092120808958093FE070895109292
:1041E000FE0708958091310190913201FC013196D2
:1041F0009C01205F3F4F80E0919191118F5FE2170A
:10420000F307D1F70895E0913101F09132018091E7
:1042100013088083E0913101F09132019081809107
:104220001208892B8083E0913101F0913201809155
:1042300011088095908189238083E0913101F0916C
:10424000320180911008809590818923808380912C
:10425000FE07882361F0E0913101F09132019081F5
:10426000892B80830E94F22081111092FE07809199
:104270003101909132010C94A1160C94B21788234D
:1042800041F0EFE9FFE03197F1F700C00000815005
:10429000F6CFA895089582E084BD93E095BD9DE793
:1042A00097BD80936E0008952FB7F89480911508FC
:1042B00090911608A0911708B09118082FBF089583
:1042C0009C014FB7F8948091150890911608A09121
:1042D0001708B09118084FBF821B930B089578946C
:1042E0001F920F920FB60F9211248F939F93AF934B
:1042F000BF938091150890911608A0911708B0916E
:1043000018080196A11DB11D8093150890931608F9
:10431000A0931708B0931808BF91AF919F918F9108
:104320000F900FBE0F901F901895CF93C82FCB0101
:104330000E941F01803819F480E090E00CC0EC2F3F
:10434000F0E0FE2FEE27E050F04AE80FF11DE80FF5
:10435000F11D85919491CF910895803F08F44AC052
:10436000803F11F49FEF03C0813F21F491E09093CF
:104370006A083BC0823F11F49FEF03C0833F21F4E2
:1043800091E09093690831C0893F70F421E030E0FA
:104390009CE0980F01C0220F9A95EAF79091680867
:1043A000292B2093680821C0893F11F491E003C0B4
:1043B0008A3F21F49FEF90936B0817C08B3F11F455
:1043C0009FEF03C08C3F21F491E090936C080DC0E7
:1043D00021E030E093E0980F01C0220F9A95EAF7B0
:1043E00090916508292B20936508895F843010F42B
:1043F000109266080895803F08F463C0803F39F446
:1044000080916A0887FF5DC010926A080895813F15
:1044100029F480916A081816BCF30895823F39F494
:104420008091690887FF4DC0109269080895833F05
:1044300029F4809169081816BCF30895893F88F41F
:10444000845F21E030E0A90102C0440F551F8A9526
:10445000E2F7CA01809590916808892380936808E3
:104460000895893F39F480916B08181654F510921D
:104470006B0808958A3F29F480916B0887FF21C05B
:10448000F6CF8B3F39F480916C0887FF1AC01092E9
:104490006C0808958C3F29F480916C081816BCF3C1
:1044A00008958D5F21E030E0A90102C0440F551F3F
:1044B0008A95E2F7CA0180959091650889238093D7
:1044C0006508089588E698E00E94AC160E94542181
:1044D00090931B0880931A0808950F931F93CF930E
:1044E000DF9380911E088823D9F180911C08909158
:1044F0001D080E9460212091340130E028173907FF
:1045000078F50E94D1248F70825E809334010FE190
:1045100018E0C0E0D0E090E0F80181918F0188239D
:1045200069F0CC2319F08C2F9D2F02C084EF90E509
:104530006091330170E00E94AA1B91E02196C6347D
:10454000D10551F72091330181E082278093330117
:1045500090931E080E94542190931D0880931C087C
:1045600080911A0890911B080E946021AC019091E3
:104570006708923019F028E230E002C025E030E010
:104580004217530708F460C0D0916B08C0916C08C3
:104590002091690880916A08822B8D2B8C2B19F44D
:1045A0001092670851C0923020F49F5F9093670883
:1045B0004BC0809166088F5F809366088F7021F0F2
:1045C00010926B0810926C080E946222D0936B08C4
:1045D000C0936C08809119088F5F809319088D3003
:1045E00098F180912C0187FD02C080E001C085E038
:1045F0008093190890916508292F220F220F290F07
:10460000E8E6F8E03CEE44E181818823C1F099239B
:1046100049F0181614F08FEF01C081E0829F802DC1
:1046200011240AC018162CF48F5F85312CF04183B9
:1046300006C081508C3E14F0818301C031833196D5
:1046400088E0EC36F80701F7DF91CF911F910F91C9
:104650000895E8E6F8E085E0DF011D928A95E9F724
:1046600010926508089580E00895CF9390910F0807
:10467000911135C0C82F80916D08882319F08130C1
:1046800051F02AC0E0913101F091320180818252D3
:10469000823030F508C0E0913101F0913201808123
:1046A00082528230A0F48C2F0E946C0F81110AC0BC
:1046B000C13151F40E94A90390912C0180E1892716
:1046C00080932C0191E001C090E0917009C08C2F83
:1046D0000E94332391E004C010926D0801C090E065
:1046E000892FCF910895E1E8F0E080818860808390
:1046F0008081816080838FB7F8949AE790938900D6
:1047000092E1909388008FBF0895EFE6F0E08081FA
:104710008260808308956DEE7EEF80E090E00E94DD
:10472000D32760E082E090E00E94B52760E083E05C
:1047300090E00E94B52760E084E090E00E94B527F9
:1047400060E085E090E00E94B52760E086E090E0C0
:104750000C94B52780E090E00E94AF2721E08D3EC9
:104760009E4F09F020E0822F089586E090E00C949F
:10477000A127682F86E090E00C94B5270E94AA2319
:10478000811102C00E948B230E94B5238093AB0845
:10479000811102C081E005C080FF02C0869501C082
:1047A00080E00C94D0048091AB08982F9695292F27
:1047B00030E08170283031054CF49F5F990F892BD0
:1047C00081608093AB080E94B92303C0806180930D
:1047D000AB088091AB0886950C94D0048091AB080F
:1047E00080FF1EC0982F9695292F30E0223031058A
:1047F00094F09158990F8170892B8093AB088E7F2C
:1048000091E009F490E08091AB0890FB80F98093EF
:10481000AB080E94B9238091AB0886950C94D00414
:1048200008958091AB08982F9095917090FB80F936
:104830008093AB08992339F0982F9E7F21F48170E3
:1048400082608093AB088091AB080E94B92380916D
:10485000AB0880FF02C0869501C080E00C94D004B4
:104860009091AB08892F86958F5F8F7791708930F3
:1048700028F4880F892B8093AB0802C09093AB0873
:104880008091AB088E7F91E009F490E08091AB08B5
:1048900090FB80F98093AB080E94B9238091AB080C
:1048A00086950C94D004880F9091AB089170892B59
:1048B0008093AB088E7F91E009F490E08091AB0883
:1048C00090FB80F98093AB080E94B9238091AB08DC
:1048D00086950C94D004AA1BBB1B51E107C0AA1FEC
:1048E000BB1FA617B70710F0A61BB70B881F991F91
:1048F0005A95A9F780959095BC01CD010895EE0FCA
:10490000FF1F0590F491E02D09948F929F92AF9232
:10491000BF92CF92DF92EF92FF92CF93DF93EC01A1
:10492000688179818A819B81611571058105910575
:1049300021F464E279ED8BE597E02DE133EF41E07E
:1049400050E00E94E92749015A019B01AC01A7EA06
:10495000B1E40E9408286B017C01ACEEB4EFA50124
:1049600094010E941628DC01CB018C0D9D1DAE1D0B
:10497000BF1DB7FF03C00197A109B0488883998381
:10498000AA83BB839F77DF91CF91FF90EF90DF9059
:10499000CF90BF90AF909F908F9008950E948524F4
:1049A000089580E091E00E9485240895A0E0B0E0A1
:1049B0008093000190930101A0930201B093030141
:1049C0000895FB01DC0104C08D910190801921F450
:1049D00041505040C8F7881B990B0895AEE0B0E0F5
:1049E000E4EFF4E20C9429280D891E8986E08C837B
:1049F0001A8309838FEF9FE79E838D83AE01475E05
:104A00005F4F6F89788DCE0101960E941025EF814E
:104A1000F885E00FF11F10822E96E4E00C944528F3
:104A2000ABE0B0E0E6E1F5E20C941B286C017B0101
:104A30008A01FC0117821682838181FFCCC1CE01DD
:104A400001963C01F6019381F70193FD859193FF57
:104A500081917F01882309F4BAC1853239F493FD2D
:104A6000859193FF81917F01853229F4B60190E011
:104A70000E940727E7CF912C212C312CFFE1F31561
:104A8000D8F08B3279F038F4803279F08332A1F4A7
:104A9000232D20611DC08D3261F0803369F4232DF8
:104AA000216016C0832D8260382EE32DE4603E2EF7
:104AB0002AC0F32DF8601DC037FC2DC020ED280F53
:104AC0002A3040F08E32B9F436FC81C1232D2064A7
:104AD000322E19C036FE06C08AE0989E200D1124A1
:104AE000922E11C0EAE02E9E200D1124222EF32DCD
:104AF000F0623F2E08C08C3621F4832D8068382E5A
:104B000002C0883641F4F70193FD859193FF8191AE
:104B10007F018111B3CF982F9F7D9554933028F456
:104B20000C5F1F4F9FE399830DC0833631F08337AD
:104B300071F0833509F059C021C0F8018081898363
:104B40000E5F1F4F88248394912C530113C02801BA
:104B5000F2E04F0E511CF801A080B18036FE03C078
:104B6000692D70E002C06FEF7FEFC5010E94FC2647
:104B70004C018201F32DFF773F2E16C0280122E061
:104B8000420E511CF801A080B18036FE03C0692D91
:104B900070E002C06FEF7FEFC5010E94F1264C016B
:104BA000F32DF0683F2E820133FC1BC0822D90E074
:104BB00088169906B0F4B60180E290E00E940727BB
:104BC0002A94F4CFF50137FC859137FE81915F017E
:104BD000B60190E00E94072721102A9421E0821A52
:104BE00091088114910471F7E8C0843611F0893678
:104BF00041F5F80137FE07C06081718182819381A0
:104C00000C5F1F4F08C060817181072E000C880B5C
:104C1000990B0E5F1F4FF32DFF763F2E97FF09C0B4
:104C200090958095709561957F4F8F4F9F4FF0685D
:104C30003F2E2AE030E0A3010E944327882E8618E9
:104C400045C0853731F4232D2F7EB22E2AE030E087
:104C500025C0932D997FB92E8F36C1F018F4883571
:104C600079F0B5C0803719F0883721F0B0C0E92F4E
:104C7000E061BE2EB4FE0DC0FB2DF460BF2E09C056
:104C800034FE0AC0292F2660B22E06C028E030E08C
:104C900005C020E130E002C020E132E0F801B7FEBB
:104CA00007C060817181828193810C5F1F4F06C0B4
:104CB0006081718180E090E00E5F1F4FA3010E9430
:104CC0004327882E8618FB2DFF773F2E36FE0DC01A
:104CD000232D2E7FA22E891458F434FE0BC032FCF3
:104CE00009C0832D8E7EA82E05C0B82CA32C03C02E
:104CF000B82C01C0B92CA4FE0FC0FE01E80DF11DB7
:104D00008081803321F49A2D997EA92E09C0A2FEBC
:104D100006C0B394B39404C08A2D867809F0B39486
:104D2000A3FC11C0A0FE06C0B21488F4280C922C7B
:104D30009B180EC0B21460F4B60180E290E00E94AD
:104D40000727B394F7CFB21418F42B1802C0982C8D
:104D5000212CA4FE10C0B60180E390E00E9407273A
:104D6000A2FE17C0A1FC03C088E790E002C088E55E
:104D700090E0B6010CC08A2D867859F0A1FE02C0E1
:104D80008BE201C080E2A7FC8DE2B60190E00E94B8
:104D90000727891438F4B60180E390E00E940727C2
:104DA0009A94F7CF8A94F301E80DF11D8081B60142
:104DB00090E00E9407278110F5CF222009F442CE0F
:104DC000B60180E290E00E9407272A94F6CFF60110
:104DD0008681978102C08FEF9FEF2B96E2E10C94C2
:104DE0003728FC010590615070400110D8F780957C
:104DF00090958E0F9F1F0895FC01615070400190A7
:104E00000110D8F7809590958E0F9F1F08950F93EE
:104E10001F93CF93DF93FB01238121FD03C08FEF0D
:104E20009FEF2CC022FF16C0468157812481358117
:104E30004217530744F4A081B1819D012F5F3F4F7A
:104E4000318320838C93268137812F5F3F4F3783B7
:104E5000268314C08B01EC01FB010084F185E02D59
:104E60000995892BE1F6D80116968D919C9117979B
:104E7000019617969C938E931697CE01DF91CF9152
:104E80001F910F910895FA01AA27283051F120317E
:104E900081F1E8946F936E7F6E5F7F4F8F4F9F4FCE
:104EA000AF4FB1E03ED0B4E03CD0670F781F891F10
:104EB0009A1FA11D680F791F8A1F911DA11D6A0FDE
:104EC000711D811D911DA11D20D009F468943F9191
:104ED0002AE0269F11243019305D3193DEF6CF0190
:104EE0000895462F4770405D4193B3E00FD0C9F756
:104EF000F6CF462F4F70405D4A3318F0495D31FDC3
:104F00004052419302D0A9F7EACFB4E0A695979515
:104F1000879577956795BA95C9F7009761057105EB
:104F200008959B01AC010A2E069457954795379535
:104F30002795BA95C9F7620F731F841F951FA01D8F
:104F40000895F999FECF92BD81BDF89A992780B551
:104F50000895A6E1B0E044E050E00C94DB27A8E11E
:104F6000B0E042E050E00C94DB27262FF999FECF09
:104F700092BD81BDF89A019700B4021639F01FBAAC
:104F800020BD0FB6F894FA9AF99A0FBE08950396C9
:104F9000272F0E94B6270E94B527252F0E94B627EB
:104FA000242F0C94B6270196272F0E94B6270C9425
:104FB000B527DC01CB01FC01F999FECF06C0F2BD9B
:104FC000E1BDF89A319600B40D9241505040B8F7C7
:104FD0000895052E97FB1EF400940E94002857FDAB
:104FE00007D00E94522807FC03D04EF40C940028EE
:104FF00050954095309521953F4F4F4F5F4F089505
:1050000090958095709561957F4F8F4F9F4F089534
:105010000E947428A59F900DB49F900DA49F800DB1
:10502000911D11240895B7FF0C9408280E940828A8
:10503000821B930B08952F923F924F925F926F9233
:105040007F928F929F92AF92BF92CF92DF92EF9218
:10505000FF920F931F93CF93DF93CDB7DEB7CA1B99
:10506000DB0B0FB6F894DEBF0FBECDBF09942A88C4
:10507000398848885F846E847D848C849B84AA846C
:10508000B984C884DF80EE80FD800C811B81AA81F9
:10509000B981CE0FD11D0FB6F894DEBF0FBECDBFC4
:1050A000ED010895A1E21A2EAA1BBB1BFD010DC044
:1050B000AA1FBB1FEE1FFF1FA217B307E407F507C8
:1050C00020F0A21BB30BE40BF50B661F771F881FA4
:1050D000991F1A9469F760957095809590959B013A
:1050E000AC01BD01CF010895A29FB001B39FC001E3
:1050F000A39F700D811D1124911DB29F700D811D04
:0A5100001124911D0895F894FFCFCB
:10510A0001000000FFBF0101FF0103FE018046FF0D
:10511A00FF350B3B0CC40B380B900B0178730E0157
:10512A000401B31036111911F110CA10110101004E
:10513A0063FF07011E1813120C15BC19C01A41543B
:10514A002B424C45484944434F4E54524F4C4B45D1
:10515A00593D25640A0041542B424C454849444D67
:10516A004F5553454D4F56453D25642C25642C25F6
:10517A00642C25640A00425554544F4E3D25640A56
:10518A000041542B424C454B4559424F41524443EE
:10519A004F44453D0030302D30300A00253032581A
:1051AA002D30302D253032582D253032582D2530CE
:1051BA0032582D253032582D253032582D2530328F
:1051CA00580A0041542B464143544F5259524553B1
:1051DA0045540A0041542B424C45484944454E3DEA
:1051EA00300A0041542B424C45484944454E3D3112
:1051FA000A0041542B4741504445564E414D453DC6
:10520A00004D696E69726120763220424C45004138
:10521A00542B474150474554434F4E4E0A00415480
:10522A002B47415044454C424F4E44530A00415487
:10523A000A004154453D300A0041542B474150531E
:10524A00544152544144560A0041542B4741545444
:10525A00414444534552564943453D555549443DB9
:10526A00363135390A0041542B474154544144449C
:10527A00434841523D555549443D307832413139D0
:10528A002C50524F504552544945533D31362C4DBE
:10529A00494E5F4C454E3D312C56414C55453D39A2
:1052AA000A0041542B424C45504F5745524C4556E3
:1052BA00454C3D340A0041542B4241554452415415
:1052CA00453D37363830300A0041542B485741445F
:1052DA00433D360A0041542B4741545443484152F6
:1052EA003D312C25640A0041542B424C4547455414
:1052FA0050454552414444520A0041542B474150BB
:10530A00444953434F4E4E4543540A0041542B4798
:10531A004150534554414456444154413D30322D45
:10532A0030312D30360A0041542B474150534554F1
:10533A00414456444154413D30322D30312D3034B0
:10534A000A0041545A0A00BDB6B3ADAAA7A4A19D4A
:10535A00404D3639E404970461042804BB03D4039E
:10536A00ED030604040A2AA50399036D032A034DD3
:10537A000069006E00690072006100200076003248
:10538A0000200028005500530042005F0044004EF0
:10539A000031004A00290000000A03590044004B6A
:1053AA0000420000000403090409026D0004010020
:1053BA00A0FA0904000001030101000921110100FA
:1053CA0001224000070581030800010904010001C8
:1053DA0003010200092111010001224D0007058283
:1053EA000308000109040200010300000009211159
:1053FA000100012236000705830308000A09040395
:10540A0000010300000009211101000122390007EF
:10541A000584031000011201100100000008EDFECE
:10542A00602101000102000105010906A101050729
:10543A0019E029E71500250195087501810205087B
:10544A0019012905950575019102950175039101C7
:10545A00050719002977150025019578750181023C
:10546A00C005010980A101850216010026B7001AAC
:10547A0001002AB700751095018100C0050C0901C9
:10548A00A1018503160100269C021A01002A9C022A
:10549A00751095018100C005010902A1010901A148
:1054AA0000050919012905150025019505750181D0
:1054BA00029501750381010501093009311581251C
:1054CA007F95027508810609381581257F95017532
:1054DA00088106050C0A38021581257F9501750891
:1054EA008106C0C005010906A101050719E029E7DF
:1054FA00150025019508750181029501750881013C
:10550A00050819012905950575019102950175038B
:10551A0091010507190029FF150026FF0095067558
:04552A00088100C034
:1060000021E6EA40E940E2400400050006000700FE
:10601000080009000A000B000C000D000E000F0024
:1060200010001100120013001400150016001700D4
:10603000180019001A001B001C001D001E001F0084
:106040002000210022002300240025002600270034
:10605000280000F5E2402BAB04F02D002E002F00AD
:1060600030002A0032003300340031283600370077
:1060700038002BA23A003B003C003D003E003F00B0
:1060800040004100420043004400450046004700F4
:10609000480049004A004B004FA94D004E004F00F8
:1060A0005000510052322AA15400550056005700AA
:1060B000580059005A005B005C005D005E005F0004
:1060C0006000610062006300640076008500670084
:1060D000F350F250EA40E940F850F950FA506F009E
:1060E0007000710072007300890087008A008B00C5
:1060F0002BAAE100E200E0005000523251005000B3
:10610000F505010001000100010000D001D00100EF
:1061100001000AF40AF60AF80100010092410100A8
:10612000010001000100010001000AF001000AF273
:10613000010002D001000100010001003A003B0013
:106140003C003D003E003F00400041004200430053
:1061500028003500CD400BF52C0044004500B6402A
:10616000B540CD4001000100010001000100010027
:106170000100010001000100010001000100010017
:106180000100010001000100010001000100010007
:106190000100010001000100010001000100E940CF
:1061A000E24001000100010053009245010001009E
:1061B00001000100010001000100010001000100D7
:1061C00001000100010001000100010001000100C7
:1061D00001000100010001000100010001000100B7
:1061E000010001000100010049000100010001005F
:1061F00001000100010001000100E940EA40E24025
:106200001100FF00FF0001004C0002F03D004D00B6
:106210004A003E0044003A00490001002D002E00D3
:10622000010033002F00300046003B004E003C00D0
:106230006F40190C4B0047007040480011F00BFBF9
:106240000100010001000100010001000100004700
:1062500034000100640039000100B00001000100B9
:10626000010031000100010001003100310038005F
:106270000100010001000100010001000100010016
:106280000100010001000100010001000100010006
:1062900001000100010001000BFC01000100E4000D
:1062A000E600E7000100010001000100010001001B
:1062B00001000100010001000100010001000100D6
:1062C00001000100010001000100010001000100C6
:1062D00001000100010001000100010001000100B6
:1062E00001000100010001000100010001000100A6
:1062F00001000100010001000100010003F00100A4
:106300001500010001000100F2500100FB50F350A4
:10631000F550FA50010001000100010001000100E8
:10632000010001000100F650F450F950F150010055
:106330000100FC50F050F8500100F750010001003E
:106340000100010001000100010001000100FD50F9
:1063500001000100010001000100FE50FF50F45057
:10636000F5500100010001000100010001000100E1
:106370000100010001000100010001000100010015
:106380000100010001000100010001000100010005
:1063900001000100010001000100010001000100F5
:1063A00001000100010001000100010001000100E5
:1063B00001000100010001000100010001000100D5
:1063C00001000100010001000100010001000100C5
:1063D00001000100010001000100010001000100B5
:1063E00001000100010001000100010001000100A5
:1063F00001000100010003F00100010001000100A3
:10640000160001000100010001000100010001006F
:106410000100010001000100010001000100010074
:106420000100010001000100010001000100010064
:106430000100010001000100010001000100010054
:106440000100010001000100010001000100010044
:106450000100010001000100010001000100010034
:106460000100010001000100010001000100010024
:106470000100010001000100010001000100010014
:106480000100010001000100010001000100010004
:1064900001000100010001000100010001000100F4
:1064A00001000100010001000100010001000100E4
:1064B00001000100010001000100010001000100D4
:1064C00001000100010001000100010001000100C4
:1064D00001000100010001000100010001000100B4
:1064E00001000100010001000100010001000100A4
:1064F0000100010001000100010001000100010094
:106500000002010001000100010001000100010082
:106510000100010001000100010001000100010073
:106520000100010001000100010001000100010063
:106530000100010001000100010001000100010053
:106540000100010001000100010001000100010043
:106550000100010001000100010001000100010033
:106560000100010001000100010001000100010023
:106570000100010001000100010001000100010013
:106580000100010001000100010001000100010003
:1065900001000100010001000100010001000100F3
:1065A00001000100010001000100010001000100E3
