:100000000C9400010C941D010C941D010C941D0115
:100010000C941D010C941D010C941D010C941D01E8
:100020000C941D010C941D010C94FD130C94D2141E
:100030000C94C00A0C941D010C941D010C941D011C
:100040000C941D010C9476050C941D010C941D015B
:100050000C941D010C942D220C941D010C941D0177
:100060000C941D010C94570A0C941D010C941D0155
:100070000C941D010C941D010C941D010C941D0188
:100080000C941D010C941D010C941D010C941D0178
:100090000C941D010C941D010C941D010C941D0168
:1000A0000C941D010C941D010C941D015D07670744
:1000B00067077007700783078307970797079209F9
:1000C0009B099B099B099B099D099D099D09A00905
:1000D000A009A009A009A009A009A309A309A309CF
:1000E000A309A309A309A609A609A6093B155E153C
:1000F0001E165E151E16A315C6151E16E815FB1551
:10010000301830187E187E1800194919A11BA11B40
:100110007F19A11BD618D618131B281BA11B8E1BD9
:100120002921201F22231E682D24253526272E6AEB
:100130002B15081A171C1469132A18300C122F6B70
:10014000390907160A0B048033280D310E0F34804D
:1001500079061B1D19056480384C105236377D8096
:100160007880807A65117B807C4F2C517F7E508017
:10017000FFEF8000000000000101010202030405FE
:10018000050607090A0B0C0E0F1112141517191B7F
:100190001D1F212325282A2C2F313436393B3E417F
:1001A0004346494C4F5255585A5D6164676A6D70B9
:1001B0007376797C7F8386898C8F9295989B9EA29B
:1001C000A5A7AAADB0B3B6B9BCBEC1C4C6C9CBCE93
:1001D000D0D3D5D7DADCDEE0E2E4E6E8EAEBEDEE18
:1001E000F0F1F3F4F5F6F8F9FAFAFBFCFDFDFEFE8A
:1001F000FEFFFFFF626200280083150874320000D2
:1002000011241FBECFEFDAE0DEBFCDBF15E0A0E0C6
:10021000B1E0EEEAF2E502C005900D92AA30B10716
:10022000D9F728E0AAE0B5E001C01D92A833B207D3
:10023000E1F70E94F30F0C9455290C940000E82F6D
:10024000F0E080E1989FE00DF11D1124E05EFE4F8B
:10025000849108950F931F93CF93DF938C01C62F42
:10026000D42F0E948621F8019281C130C1F028F07C
:10027000C43021F1C53051F136C0992391F09D2F42
:100280009270D0FD90622D2F2470982321F080FD74
:1002900002C085E30EC0822349F489E20AC09111AD
:1002A00003C080910A051BC082FF02C08DE301C01C
:1002B00081E280930A0580910A050DC0992321F0FF
:1002C000827289F48CE207C08CE209C0992331F074
:1002D00085FD09C082E50E941F1703C082E50E94C8
:1002E0004D170E94C021F8018281882381F1C3301B
:1002F000A9F048F4C23059F585E0DF91CF911F9104
:100300000F910C94190FCA30D9F0CB3001F58D2F15
:10031000DF91CF911F910F910C94BF0F90917405B5
:1003200081E08927809374059091A00788E8892748
:100330008093A007DF91CF911F910F910C94BD0482
:100340008D2FDF91CF911F910F910C943607DF9184
:10035000CF911F910F910895611107C0FC01828117
:10036000882319F080E09FE5089580E090E00895EB
:100370000F931F93CF93DF93883018F4789B05C0B9
:1003800002C0799B02C0C0E001C0C0E8D091640502
:10039000D23008F04EC0082F077F073009F049C05F
:1003A000182F80910C0590910D050E941E22813915
:1003B000914028F0D11101C000E000930B0521E02D
:1003C000C11101C020E081E090E0173011F480E01D
:1003D00090E0880F991F825F9A4FFC01ED0FF11D8D
:1003E0003081231302C0C0E024C02083C111FBCFA1
:1003F00021E02D27FC01E20FF11D80818111F3CF57
:1004000080910B05880F8D0F80930B05877090E00E
:10041000D11103C020E030E002C027E030E028170F
:10042000390709F70E94122290930D0580930C055D
:10043000CBEF8C2FDF91CF911F910F910895E5E6BF
:10044000FEE7E491EC3429F41092040110921E01AD
:1004500008958DB18B7B8DB98EB184648EB981E0A6
:100460000E94FD21629B10921E018091380890919C
:1004700039088A3A9B4BC9F410923908109238080F
:1004800080911E01882389F06E9A7698559A5D981E
:10049000549A5C9A8FEF91E12AE781509040204076
:1004A000E1F700C000000C94810A08950E94EF0655
:1004B00084B18A6084B985B18A6085B980B38C7F44
:1004C00080BB81B3836081BB08952F923F924F928E
:1004D0005F926F927F928F929F92AF92BF92CF92D4
:1004E000DF92EF92FF920F931F93CF93DF93CDB7DD
:1004F000DEB727970FB6F894DEBF0FBECDBF0E94C0
:10050000122220916205309163058217930709F446
:10051000D7C090936305809362052B9A88E2299A4D
:10052000000029988150D9F72B98299A0000299822
:1005300028E02A95F1F735E6C32E35E0D32EE12CDD
:10054000F12C412CA12CB12C42E1842E45E0942EBB
:1005500066246394712C2E2CE09264058401312C66
:10056000C701880F991FFC01EB59FA4FFF83EE83F7
:10057000532C569430FE02C0F8E05F0E852D0E9489
:10058000B801F80190819695892B80838038D9F441
:10059000442039F043941082F7E0F51508F084C048
:1005A00015C085E0B82E852D0E94B801F801908114
:1005B0009695982B9083882319F0BA94B110F3CFB5
:1005C000580144244394F7E0F51538F42B9A299AFE
:1005D0000000299828E02A95F1F7F6012081318161
:1005E000C301052C02C0880F991F0A94E2F7F80195
:1005F00040814B3F20F0822B932BF60108C0433003
:1006000040F48095909582239323EE81FF8191831E
:100610008083EE81FF818081918182179307A1F011
:1006200059822A8281E04B3F08F480E08B830E944C
:10063000122281609D838C83CE0101960E94F21666
:10064000CE0101960E942A0533940F5F1F4FF0E1FF
:100650003F128ECF20E1820E911CF6018191919183
:100660006F01892B99F080910B0182FD0BC0809165
:10067000370880FD07C02CE030E03093CB06209394
:10068000CA0604C01092CB061092CA063FEFE31AC6
:10069000F30A85E0E816F10409F05DCF96E09415C1
:1006A00078F4F50110820CC0F60120813181C3017C
:1006B000052C02C0880F991F0A94E2F740E0A1CFF1
:1006C00081E027960FB6F894DEBF0FBECDBFDF9155
:1006D000CF911F910F91FF90EF90DF90CF90BF903F
:1006E000AF909F908F907F906F905F904F903F90D2
:1006F0002F900895809118018A3038F10E94650288
:10070000E2E1F5E080E090E02191222339F08232AD
:1007100011F0853211F49C5901C09F5F8F5F8035C5
:1007200099F780911E01983C51F4882311F081E0E3
:10073000089581E08093180180931D01089581112F
:100740003AC081E0911138C036C02B98EEE0F5E058
:1007500022E031E088E0299A000029982B9A815004
:10076000D1F78DE08A95F1F700009FB19170932742
:100770008FB186958170832741914913D8CF91819C
:100780008913D5CF215031F795E080E0811102C067
:100790002B9A01C02B98299A000029988F5F8830E6
:1007A000A9F7915091F780E18A95F1F79FB1937085
:1007B00081E0933009F480E00895549A5C98E0E079
:1007C000F2E6E491E0937605E1E0F2E6849180932D
:1007D0007705E0E0F3E6E491E09378058F3F19F4C4
:1007E00081E080937305EF3F19F481E080937205F7
:1007F000E2E0F2E685919591A591B4918093700520
:1008000090936F05A09371050895CF93C82F811120
:1008100002C05C9A18C0813039F48091370880FD9D
:1008200012C03E9A46980FC0823069F480910B0145
:1008300082FD09C059984091710560916F058091C2
:1008400070050E94CA0781E090E001C0880FCA9538
:10085000EAF790917505892B80937505CF910895DE
:10086000811102C05C980FC0813039F49091370833
:1008700090FD09C03E98469A06C0823021F49091BE
:100880000B0192FF599A21E030E0A90102C0440F08
:10089000551F8A95E2F7CA018095909175058923C5
:1008A000809375050895EF92FF920F931F93CF9356
:1008B000DF93D82F06E715E0C0E0E62EF12CDD230C
:1008C00031F0F80180818D1B883088F401C08C2FB5
:1008D000970102C0359527958A95E2F720FF04C05D
:1008E0008C2F0E94050403C08C2F0E943004CF5F20
:1008F0000F5F1F4FC33019F7DF91CF911F910F91F9
:10090000FF90EF9008956091750580E00C9453047A
:10091000CF92DF92FF920F931F93CF93DF93F82E26
:1009200006E715E0C0E0D0E0CC24C394D12CF80158
:1009300081918F018F110DC020917505C6010C2E7C
:1009400001C0880F0A94EAF78227809375050E94F8
:1009500083042196C330D10551F7DF91CF911F91C8
:100960000F91FF90DF90CF900895669581E00C94F1
:100970005304669589E00C9453046091740585E1F5
:100980000C945304682F80E10E9453040C94BD041E
:10099000F8943E9AE0E9F0E0808181688083E1E9A3
:1009A000F0E080818360808378940895F8943E9885
:1009B000E0E9F0E080818E778083E1E9F0E08081FA
:1009C0008C7F8083109299001092980078940895FB
:1009D000CF9390917305992341F0809137088E7FD2
:1009E000809337081092FD0730C0C82F0E9443241F
:1009F000C730A8F4C430E8F4C13038F11092FD07D4
:100A000010927D050E94C804EC2FF0E0E059FE4FE3
:100A1000E491F0E0F0939900E093980019C0C93098
:100A2000A0F40E94C8041092FD0781E080937D0528
:100A30000FC081E08093FD0710927D050E94C804DD
:100A400087E08C1B80937E0503C0CF910C94D60465
:100A5000CF910895FC019091370890FF18C08281D2
:100A60008823A9F0892F8E7F8E3039F480917C0500
:100A70008A508A3050F48AE008C0803141F4809175
:100A80007C05865F863708F086E780937C050895AD
:100A900080917D05882349F180917B058F5F8630A9
:100AA00018F480937B05089510927B05E0917C05F6
:100AB000F0E0EC58FE4FE491F0E0F0939900E09301
:100AC0009800809137088E7F8E3031F480917C05BC
:100AD0008E3758F48F5F07C0803139F480917C05E0
:100AE000823018F0815080937C0508951F920F92F8
:100AF0000FB60F9211242F933F934F935F936F93F1
:100B00007F938F939F93AF93BF93EF93FF938091C6
:100B1000FD07882361F18091790590917A0501960E
:100B200090937A058093790520917E0530E028170F
:100B30003907E8F410927A0510927905E0917C0566
:100B4000F0E0EC58FE4FE491F0E0F0939900E09370
:100B500098009091050180917C05890F80937C0518
:100B60008F3711F0811103C09195909305010E9478
:100B70004805FF91EF91BF91AF919F918F917F9128
:100B80006F915F914F913F912F910F900FBE0F90FA
:100B90001F9018952BB1362F309523233BB1632B33
:100BA0003FB7F894FC018DE08150E1F0919148E06D
:100BB0006BB997FF2BB9990F000000C02BB900004B
:100BC00000C000C000C000C000C000C000C000C025
:100BD00000C000C000C000C000C000C000C04A95F6
:100BE00039F7E2CF3FBF0895509A61E070E00C946E
:100BF000CA05EF92FF920F931F93CF93DF9300D01C
:100C000000D01F92CDB7DEB7F90170E0869F90014A
:100C1000879F300D1124232F3327042F10E0209FAE
:100C2000D001219FB00D309FB00D112420E031E0A4
:100C30007901E61AF70AE09E9001E19E300DF09EE0
:100C4000300D11243C833983832F8B0F8D838A834E
:100C50004B1B4B83892F90E063E070E00E942925B5
:100C6000DE01A80FB91F12963C91DE01A80FB91F33
:100C700011962C91DE01A80FB91F13968C918183D8
:100C8000308322830F900F900F900F900F90DF9181
:100C9000CF911F910F91FF90EF9008958AE090E01F
:100CA0000C947B28AB01BC018AE090E00C9499285D
:100CB0008CE0EEEFF7E0DF011D928A95E9F70895E9
:100CC000EEEFF7E0808123E0829FC001112495952B
:100CD000879595958795819388E0EA30F80791F795
:100CE0008EEF97E00C94F40520910B0122FF15C0C4
:100CF0002AE038E00E94F905EEEFF7E080910A085B
:100D000090910B08A0910C0881939193A19388E096
:100D1000EA30F80799F70C94600608950F931F9333
:100D2000CF93DF9320910B0122FF24C0D42F162FE5
:100D3000C92F082F287F283011F40E9474060093D1
:100D40000A01C37090910B019C7FC92BC0930B01CA
:100D500010930C01D0930D0160910A0170910B0169
:100D600080910C0190910D01DF91CF911F910F9116
:100D70000C945206DF91CF911F910F91089590919D
:100D80000B0192FF2BC087FD04C087311CF080E06F
:100D900001C086E1880F880F880F90910B01977032
:100DA000892B80930B0160910A0170910B01809156
:100DB0000C0190910D010E94520690910B01892F18
:100DC00086958695869509F0599840910D01609118
:100DD0000C0180910A0193700C948E0608950E9474
:100DE0004E0660930A0170930B0180930C0190935F
:100DF0000D0180910D01811103C08FE780930D01DA
:100E0000519A80910B0182FF05C086958695869543
:100E10000C94BF060E946006599A089580910B01B8
:100E200082FB222720F991E0922790FB82F98093A0
:100E30000B0160910A0170910B0180910C0190915E
:100E40000D010E94520680910B0182FF05C086951C
:100E5000869586950C94BF060E9458060E946006EF
:100E600080912E08843009F0599A0895CF92DF922C
:100E7000EF92FF920F931F93CF93DF93C82ED090E2
:100E80000A01D0910B01D370E0900C0140910D014B
:100E9000042F80FF02C0CFEF01C0C1E00E94862175
:100EA00081FDC1954C2D50E04930510508F052C0EC
:100EB000FA01EA5AFF4F0C945125DF91CF911F910F
:100EC0000F91FF90EF90DF90CF900C940E078091E0
:100ED0000B018695869586958C0F0E94BF063AC0B9
:100EE00080910A0120910B01922F93709D5F24E164
:100EF000C202800D911D112460E073E00E943D2527
:100F0000D82ED92F2AC080910C0191E1C90270011D
:100F10001124E80EF11C2FEFE216F10409F01CF485
:100F2000F7FC29C01AC0EE24EA94F12C16C0809177
:100F30000D0191E1C902A00111248A01080F111DC0
:100F40000F3F110509F01CF417FD18C006C00FEF84
:100F500010E003C022E02C15A0F4402F6E2D8D2D43
:100F60009D2FDF91CF911F910F91FF90EF90DF9018
:100F7000CF900C948E06E12CF12CEFCF00E010E026
:100F8000ECCFDF91CF911F910F91FF90EF90DF9009
:100F9000CF900895EEEFF7E081836083428333962C
:100FA00098E0EA30F907C1F70C946006FC019091D3
:100FB00001078081803649F581818B3B21F4CF0187
:100FC00003960C947B0C933019F482810C94BF0629
:100FD000943021F4438162810C94CA079530A9F4BE
:100FE000843068F4A82FB0E0848193812281119627
:100FF0002C9311979C9312968C930C9460068F3FC0
:1010000021F4828193810C94CA1B0895CF93C82F39
:10101000E0918C05F0E0EC58FE4F449190910B016B
:1010200060910C0180910A0193700E9474063091C6
:10103000090120918C053C9F200D112420938C05E3
:101040002C1738F08C2F90E0820F911D8F3791056F
:101050001CF0319530930901CF910895CF93C82F9B
:10106000EAE0F1E04381628180918A0590918B05ED
:101070000E94740680918A0590918B0523E0C29F9F
:10108000800D911D112460E073E00E94292590934A
:101090008B0580938A05CF910895AF92BF92CF922E
:1010A000DF92EF92FF920F931F93CF93DF93082F5E
:1010B000182F16956EEFC62E67E0D62EE12CF12C78
:1010C000A12C73E0B72E80918805909189058E0D33
:1010D0009F1DC0E0D3E0B5010E94292596014091F3
:1010E0000D0160910C010E94F90580E3E80EF11CEE
:1010F00083E0C80ED11C80ECE816F10421F70E94B1
:1011000060068091880590918905212F30E000FFCD
:1011100008C054E0220F331F5A95E1F7820F931F46
:1011200008C09D5F44E0220F331F4A95E1F7821B00
:10113000930BBE010E942925909389058093880511
:10114000DF91CF911F910F91FF90EF90DF90CF90A3
:10115000BF90AF900895CF92DF92EF92FF920F93DE
:101160001F93CF93DF93909187059F5F282F26953C
:10117000291758F090938705DF91CF911F910F9118
:10118000FF90EF90DF90CF900895C82F10928705C1
:101190000E945806C0FF02C01FEF01C011E054E0DA
:1011A000D52E00E064E0E62EF12CC0E0D3E0C09044
:1011B00008011003C00111248C0D911DC7FC9A95E4
:1011C0000496B7010E943D259C01220F331F820F18
:1011D000931F9C012250384F80910A0140910B01CE
:1011E000942F937042E3049F800D911D1124BE0142
:1011F0000E943D2540910D0160910C010E94F9056E
:101200000F5FDA94D110D3CF1C0D15301CF0109263
:10121000080108C017FD03C01093080103C084E053
:1012200080930801DF91CF911F910F91FF90EF9074
:10123000DF90CF900C946006909186059F5F891790
:1012400018F0909386050895109286050E9458061E
:1012500020E030E090E080910701A901480F511D86
:1012600087FD5A9544305105A8F4820F837090E0B1
:10127000FC01EE0FFF1F8E0F9F1FFC01E250F84F85
:1012800080910A0890910B08A0910C0880839183AB
:10129000A28391E02F5F3F4F24303105E1F6911199
:1012A0000E9460069091060180910701890F80934A
:1012B00007018D5F8730C0F0919590930601809172
:1012C000840590918505889660E073E00E94292549
:1012D00090938505809384052AE038E040910D01C4
:1012E00060910C010C94F905089580917205882392
:1012F00031F0599A80910B018B7F80930B01909173
:101300000B0192FF26C0599924C0892F8695869596
:101310008695E82FF0E0E731F105D8F4E15AFF4F68
:101320000C94512540910D0160910C0180910A01AE
:1013300093700C9474060C94060884500C942E0838
:1013400086500C944D088D500C94AB0883510C942E
:101350001C0908955C980E94D604599A08958091BA
:10136000C506811104C00E947C240E94EF060E94E1
:10137000830480911801843018F081E080931C016F
:10138000089559991CC080918205909183050E940F
:101390001E228997A0F00E941222909383058093C9
:1013A00082058091C50681110AC080911C018823A5
:1013B00021F080911E01811102C00C9475090895DD
:1013C00080918005909181050E941E2287399105A8
:1013D00008F451C00E9412229093810580938005E9
:1013E00080917F058F5F80937F059091C50699233B
:1013F000C1F0843008F43FC0913011F080E001C0AA
:1014000083E080937F05379B08C00E94D604599AD9
:101410009BB180E189278BB908951092C5060C9481
:10142000AF0980911C01882331F1599880917F0583
:10143000813031F45C980E9458060E9460060FC00B
:10144000833069F45C9A8091C806882319F060E8BB
:1014500040E002C060E040E880E00E94CA0790914E
:10146000C80680917F05911102C0853010F48B3041
:1014700010F010927F05089520918D0580918E05C2
:10148000821759F030E0F901E157FA4F80812F5F60
:101490003F4F20938D0590E008958FEF9FEF0895C3
:1014A0009091C80095FFFCCF8093CE0008951F92C5
:1014B0000F920FB60F9211242F933F934F938F9358
:1014C0009F93EF93FF9380918E0590E09C012F5F97
:1014D0003F4F40918D05421741F03091CE00FC0105
:1014E000E157FA4F308320938E05FF91EF919F9142
:1014F0008F914F913F912F910F900FBE0F901F90A2
:1015000018950E949A1780911801823050F48FE14B
:101510009EE40197F1F700C000000E9484130E942E
:10152000920AFFCF9EE088E10FB6F894A8958093C9
:1015300060000FBE90936000089580912E08843063
:10154000E1F081E080938F0629E488E190E00FB616
:10155000F894A895809360000FBE209360000E94CD
:10156000AA0983B7817F846083BF83B7816083BF0B
:101570007894889583B78E7F83BF08950C94AF09C4
:101580001F920F920FB60F9211248F939F93AF93D8
:10159000BF9380918F06813099F48091A407909138
:1015A000A507A091A607B091A7078096A11DB11D20
:1015B0008093A4079093A507A093A607B093A707CD
:1015C000BF91AF919F918F910F900FBE0F901F9081
:1015D00018958091AA06089508950F931F93CF93AD
:1015E0000E9412228C01C0E0C8010E941E224E9768
:1015F00008F50E943C0A8F3F2FEF9207C9F0AC011B
:1016000055274D305105A1F02C2F30E04A305105BF
:1016100051F4C23030F0F901E157F94F80818F3435
:1016200049F08FE590E0F901EF56F94F8083CF5FE5
:10163000C731D0F2EC2FF0E0EF56F94F108281E97C
:1016400096E0CF911F910F910895CF93CAE10E9428
:101650003C0A019611F0C150D1F7CF9108950F9334
:101660001F93CF93DF935D990AC08C010E94250BD5
:10167000E8018991882319F00E94500AFACFDF917E
:10168000CF911F910F9108959C012F56310922305F
:10169000310528F02A5731092230310560F42091B4
:1016A000AD06211103C02FEF2093AD069093AC0639
:1016B0008093AB0602C01092AD062091AE062111B8
:1016C00016C09F938F938BE391E09F938F938DE050
:1016D00098E09F938F930E94C0250F900F900F90DA
:1016E0000F900F900F908DE098E00C942F0B0895C1
:1016F000CF93DF93EC018091AE06811132C08C81D3
:10170000282F082E000C330B3F938F938B81282FAB
:10171000082E000C330B3F938F938A81282F082EBD
:10172000000C330B3F938F938981282F082E000CD8
:10173000330B3F938F9383E591E09F938F938DE0DD
:1017400098E09F938F930E94C0258DE098E00E94BF
:101750002F0B8DB79EB70C960FB6F8949EBF0FBE99
:101760008DBF8091AE0681111FC088819091A9061E
:101770008917D1F08093A9061F928F9383E791E098
:101780009F938F938BE198E09F938F930E94C02546
:101790000F900F900F900F900F900F908DE098E0AA
:1017A000DF91CF910C942F0BDF91CF9108950E9480
:1017B0002F0B0C94ED0ACF93DF93EC0186E90E9486
:1017C000FD21CE01DF91CF910C94D70B8091AF0614
:1017D000882321F01092AF060C94C0210895CF9376
:1017E000DF932091AF06211152C02091AE06211146
:1017F0004EC0EC018EE791E00E942F0B209731F450
:1018000082E991E0DF91CF910C942F0B8F811F9291
:101810008F938E811F928F938D811F928F938C81D6
:101820001F928F938B811F928F938A811F928F9328
:1018300088811F928F9389E991E09F938F938DE028
:1018400098E09F938F930E94C0258DE098E00E94BE
:101850002F0B80E58A95F1F78DB79EB742960FB6AC
:10186000F8949EBF0FBE8DBF8881811110C08A8100
:10187000833531F0893331F0873449F482E103C094
:1018800080E101C081E1DF91CF910C948804DF9168
:10189000CF91089580E090E00C94EF0B8091AD061D
:1018A0008823D9F0823020F081508093AD060895CE
:1018B000209190062F5F209390068091AB06909127
:1018C000AC0630E048E051E0481B590B24173507BF
:1018D00020F0109290060C94440B089580EC91E057
:1018E0000C94DB0B803319F481ED91E002C080EEA3
:1018F00091E00C94DB0BCF93DF93EC018FEE91E042
:101900000E942F0BCE010E942F0B87E991E0DF91FF
:10191000CF910C94DB0B8EEF91E00C947B0C8CE060
:1019200092E00E94D70BFC01808108958BE192E048
:101930000C94DB0B559A5D980E940922F89487E677
:101940008093CC001092CD008091C9008069809373
:10195000C9008091C90088608093C9008091CA0045
:101960008093CA008091C80082608093C8007894F8
:101970008BE292E00E94DB0B8BE292E00E94D70B9D
:10198000FC018081813421F48181843551F505C0C9
:101990008F3439F581818B3421F50E946E0C8BE2F6
:1019A00092E00E94DB0B8FE292E00E94DB0B0E9430
:1019B0008B0C80EE91E00E94DB0B86E392E00E94AC
:1019C000DB0B0E94960C86E492E00E94DB0B83E620
:1019D00092E00E94DB0B8FE992E00E94DB0B0E94F9
:1019E000810AF8948CE08093CC0078948BE292E0AA
:1019F0000C94DB0BCF93599903C0882309F4A1C041
:101A0000C82F82EB92E00E94D70BFC01628180ED2F
:101A1000860F8A3008F05EC0408150E04053510983
:101A200084E6849FD001859FB00D1124818190E0D0
:101A3000C0974AE0489F9001499F300D11242A0F1A
:101A40003B1F260F311D43E0220F331F4A95E1F75C
:101A50002A5432402C3C40E1340788F480911A012A
:101A600090911B0183374EE0940709F4C901280FB8
:101A7000391F3695279530931B0120931A0137990A
:101A80000DC081E08093C40680911A0190911B01E2
:101A9000889790931B0180931A0102C01092C4068C
:101AA00020911A0130911B0184E0369527958A9583
:101AB000E1F720542093C706223A18F01092C50689
:101AC00009C0253910F481E003C02D3918F485E0F0
:101AD0008093C506C130A9F59091C706EDE2F3E009
:101AE0008AE52191921718F48A50D9F78CE2209157
:101AF000C5062111822F2091C406C22FC80F2111C3
:101B000003C0923C08F0C4E6C09319018EEB92E04A
:101B10000E942F0B1F92CF938FE691E09F938F939C
:101B20008DE098E09F938F930E94C0250F900F90B7
:101B30000F900F900F900F908DE098E0CF910C9444
:101B4000D70BCF9108953F98479A81E00C94FA0CF7
:101B5000CF9390912E0881E0943009F080E080933B
:101B60001D018091290187FF1CC00E9438168E50EC
:101B7000914059F08EE091E00E94331680917405F7
:101B80008D7F809374050E94BD048091C9068111E8
:101B900029C080911D01882329F1809129018F7727
:101BA00007C0943061F090911E01992321F0806864
:101BB0008093290117C08CE08093180113C00E9404
:101BC00038168F51914071F08FE191E00E943316E9
:101BD000809174058260809374050E94BD0481E049
:101BE0008093C90680911E01882309F420C15D9964
:101BF00015C10E94250B80911801823031F481E0DB
:101C00000E94FA0C83E080931801C091C306CC2394
:101C100009F446C00E948F0C813309F041C08DEC5D
:101C200092E00E94D70BFC0101900020E9F79F0190
:101C3000255131092817390799F5C13081F422E07F
:101C40002093C306C0931C011092C80621E1FC0139
:101C5000A0EBB6E001900D922A95E1F721C041E199
:101C600050E060EB76E00E94B325892B59F080911B
:101C7000C3068F5F853090F01092C30681E0809399
:101C8000C8060EC080EE92E00E94D70B80911C0126
:101C90008F3018F01092C30603C082E08093C30611
:101CA0008091CF06811199C08091CC069091CD068C
:101CB0000E941E22893E934008F48FC00E94122287
:101CC0009093CD068093CC068091C806811105C003
:101CD0008091C30681112FC008C08091C2068F5F1A
:101CE0008093C2068370A1F33DC00E948F0C8133A4
:101CF00021F481E08093C8061CC08033E1F4109287
:101D0000C8068091CE068F5F8093CE0690911D010C
:101D1000911111C090911801992369F08A3558F0FA
:101D20005D9A8091C900877F8093C90084E0809389
:101D300018011092CE0680911C01882399F08436F8
:101D400029F410921C010E9483040CC08F5F8093C1
:101D50001C01843120F48091C806882319F084E6A0
:101D600080931C018091C1068F5F8093C1068770AC
:101D700021F48091C4060E94FA0C80911D0181110A
:101D80002CC080911C01811128C08091CA069091BD
:101D9000CB0601969093CB068093CA06209118013A
:101DA000213039F40F9728F00E944A0C82E080938A
:101DB000180180911801833081F48091CA069091B6
:101DC000CB068832934248F084E0809318015D9AF4
:101DD0008091C900877F8093C9008091C6068823BF
:101DE000D9F08C3099F0823119F48DE093E010C075
:101DF000853181F40E94960C80E30E94720C81E38D
:101E00000E94720C88E293E00E94D70B82EF92E06E
:101E10000E94D70B1092C6060E944E0C80911801AA
:101E2000823028F40E94E60BCF910C94E009CF9108
:101E30000895CF93DF93C82F0E948621D82F0E9448
:101E40009A17C53191F198F4CC3061F118F4C5308E
:101E5000F1F18FC0C23131F1C33109F08AC09091E4
:101E6000180181E089278093180160E069C0C931B9
:101E700009F44CC028F4C63101F1C83141F079C0F1
:101E8000CC3B09F460C0C03C09F461C072C08091D1
:101E90001E01882309F46FC09091290190589093F6
:101EA00029016AC0C093C60666C0D0FF62C0C09355
:101EB000C60681E080931C015FC080911C018111E6
:101EC00002C081E001C084E680931C0154C08D2FC4
:101ED000837251F0DD7DD13031F48BE29CEF909331
:101EE000010880930008FFCFDC3039F48AEA9BEBCD
:101EF0009093390880933808FFCF82E39FE00E94D7
:101F0000CA1B82E39FE10E94CA1B35C08091190160
:101F100060E090E00E94D61BD0FF0BC08DE290E005
:101F20000E94CA1B60E080911A0190911B010E94DF
:101F3000D61B8DE290E00E94CA1B60E08091C8062B
:101F40000E94D81718C081E08093C30615C0809105
:101F50001D01811110C05D9A8091C900877F809317
:101F6000C9008AE0809318011092C8060E941520CB
:101F700002C080E001C081E0DF91CF910895CF934E
:101F8000DF93CDB7DEB729970FB6F894DEBF0FBE4B
:101F9000CDBF96E0E2E3F1E0DE01119601900D92F3
:101FA0009A95E1F7209138013091390140913A0139
:101FB0002F8338874987282F30E08B3018F0ECEFDB
:101FC000FFEF02C0E1E0F0E0EC0FFD1FE20FF31FB6
:101FD000808129960FB6F894DEBF0FBECDBFDF918A
:101FE000CF910C94190FCF9390E080E80FB6F8943E
:101FF00080936100909361000FBE0E941F020E94B7
:10200000DF137894CFEF80912E08843049F08091CF
:102010001E01811103C086E00E94FD21C15099F785
:1020200080911E01882321F00E949A0C0E94A30D2A
:102030000E948B160E94920AC1E0809118018430A0
:1020400038F4A895823010F40E9495160E94A80DCD
:1020500080911801823040F480911E018111EDCFF2
:1020600080912E08843049F30E949D0A0E94920AB2
:102070000E947A03882309F31092CB061092CA06B5
:102080000E94AF09C093180180911E01882341F07E
:10209000C093AF065D988091C90088608093C900A5
:1020A0008091C906882349F280912E08853029F64F
:1020B0000E946012C2CF8091E10608958FEF909147
:1020C000E800815095FD06C09AE69A95F1F700C0A8
:1020D0008111F5CF8091E80085FB882780F991E098
:1020E00089270895CF93DF9300D01F92CDB7DEB735
:1020F00020912E082430B9F423E029839B838A831E
:102100002093E9000E945E1081110DC040E050E074
:1021100063E070E0CE0101960E9475128091E800A4
:102120008E778093E8000F900F900F90DF91CF9102
:102130000895CF93DF9300D01F92CDB7DEB72091E3
:102140002E082430C1F422E029839B838A8383E014
:102150008093E9000E945E1081110DC040E050E0C4
:1021600063E070E0CE0101960E9475128091E80054
:102170008E778093E8000F900F900F90DF91CF91B2
:102180000895CF93DF9320912E082430A1F4EC0121
:1021900082E08093E9000E945E1081110CC040E053
:1021A00050E065E070E0CE010E9475128091E80079
:1021B0008E778093E800DF91CF910895CF93DF93DE
:1021C000EC0190912E089430B9F58091290181712C
:1021D0008131B9F49093E9008FEF9091E80081503C
:1021E00095FD06C095E19A95F1F700008111F5CFB4
:1021F0008091E80085FF20C040E050E060E170E0A1
:102200000BC081E08093E9000E945E10811114C030
:1022100040E050E068E070E0CE010E9475128091CD
:10222000E8008E778093E80080E1FE01A1EDB6E042
:1022300001900D928A95E1F7DF91CF9108958091F9
:102240002D08811109C00E9484130E94DF13809120
:10225000E20084608093E200089510922D080895B2
:10226000089542E061EC81E00E941E1342E061ECBF
:1022700082E00E941E1342E061EC83E00E941E1384
:1022800042E161EC84E00C941E13809130088330AD
:1022900009F455C030F4813071F0823009F48EC0F9
:1022A00008958A3009F47AC08B3009F460C089300F
:1022B00009F09CC020C080912F08813A09F096C097
:1022C0008091E800877F8093E800809133089091A7
:1022D0003408892B21F460E181ED96E003C060E0D1
:1022E00080E090E070E00E94C0128091E8008B775F
:1022F0008093E800089580912F08813209F076C01C
:102300008091330890913408009719F0039709F0F1
:102310006DC08091E800877F8093E8008091E8009D
:1023200082FD05C080912E088111F8CF5FC0809199
:10233000F1008093E1068091E8008B7753C0809193
:102340002F08813A09F052C08091330890913408E7
:10235000892B09F04BC08091E800877F8093E800CB
:102360008091E80080FFFCCF8091290136C08091E8
:102370002F088132D9F58091330890913408892B48
:10238000A9F58091E800877F8093E8000E943213CE
:1023900080913108809329010C949A1780912F081D
:1023A000813221F58091E800877F8093E8000E94C8
:1023B0003213809132088093E206089580912F08AD
:1023C000813AA1F48091E800877F8093E8008091B2
:1023D000E80080FFFCCF8091E2068093F1008091BD
:1023E000E8008E778093E8000C9432130895809172
:1023F000E1068093D0061092E10680E00E94C204BC
:102400000E94F1160C949A170C94F7110E94BE0AC0
:102410008091D0068093E10608950C940612292F2E
:10242000332723303105C1F058F42130310579F0DC
:1024300022303105E9F58DE690E02FE833E03CC02D
:1024400021323105C1F02232310511F131C082E172
:1024500090E02CEF33E030C099278330910540F5B0
:10246000FC01EE0FFF1FE35BFC4F20813181FC017B
:10247000E65BFC4F1AC06430D8F4E62FF0E0EE0FB4
:10248000FF1FEE5BFC4F2081318189E090E014C09A
:10249000643070F470E0FB01EE0FFF1FE65CFC4F50
:1024A00020813181FB01EA5CFC4F808190E004C017
:1024B00080E090E020E030E0FA013183208308954D
:1024C00019BC82E089BD09B400FEFDCF8091D8001F
:1024D0008F7D8093D8008091E00082608093E0003F
:1024E0008091E00081FDFCCF0895CF92DF92EF92C2
:1024F000FF920F931F93CF93DF93EC018B017A012F
:102500000E945113811133C0E114F10439F0F70135
:1025100080819181081B190BC80FD91FC12CD12CA8
:102520000115110519F18091E80085FD16C0809113
:10253000E8008E778093E800E114F10449F0F70198
:1025400080819181C80ED91ED182C08285E00FC0E2
:102550000E945113882321F30AC089918093F100CE
:1025600001501109FFEFCF1ADF0ADACF80E0DF91C7
:10257000CF911F910F91FF90EF90DF90CF90089532
:1025800020913508309136082617370748F0611535
:10259000710539F42091E8002E772093E80001C0FE
:1025A000B901FC0120E06115710579F180912E08D7
:1025B0008823F1F18530F1F18091E80083FD3CC082
:1025C0008091E80082FD2EC08091E80080FFEBCF73
:1025D0002091F3008091F20090E0922B611571053B
:1025E00051F08830910538F421912093F100615029
:1025F00071090196F3CF21E0089709F020E080915E
:10260000E8008E778093E800CECF2111CFCF0AC0AB
:1026100080912E08882361F0853061F08091E80078
:1026200083FD0AC08091E80082FFF2CF80E0089528
:1026300082E0089583E0089581E008958F7080938B
:10264000E900EBEEF0E0808181608083EDEEF0E068
:1026500010826093EC0040838091EE00881F8827F1
:10266000881F089580912F0887FF11C08091E8008E
:1026700082FD05C080912E088111F8CF11C0809194
:10268000E8008B770BC080912E08882349F0809159
:10269000E80080FFF8CF8091E8008E778093E80013
:1026A00008952091E4003091E50095E64091EC001A
:1026B000842F817040FF23C08091E80080FD1DC001
:1026C00080912E08882399F0853099F08091EB0055
:1026D00085FD11C04091E4005091E50024173507B5
:1026E00029F3915011F09A01E1CF84E0089582E03E
:1026F000089583E0089581E0089580E00895409171
:10270000E80042FFDDCF08950E94F0130E94F81305
:10271000E0EEF0E0808181608083E8EDF0E0808190
:102720008F77808319BCA7EDB0E08C918E7F8C935E
:1027300080818F7E808310922D0808950F931F93C0
:10274000CF93DF930E94F0130E94F813C8EDD0E0FE
:1027500088818F77888388818068888388818F7D4E
:10276000888319BC10922E0810922B0810922C0806
:1027700000EE10E0F80180818B7F8083888181608A
:10278000888342E060E080E00E941E13E1EEF0E00A
:1027900080818E7F8083E2EEF0E0808181608083A3
:1027A000808188608083F80180818E7F808388812A
:1027B00080618883DF91CF911F910F910895E8ED9B
:1027C000F0E080818F7E8083E7EDF0E080818160A2
:1027D000808384E082BF81E080932D080C949E1357
:1027E000E8EDF0E080818E7F80831092E200089512
:1027F0001092DA001092E10008951F920F920FB626
:102800000F9211242F933F934F935F936F937F9376
:102810008F939F93AF93BF93EF93FF938091E100CA
:1028200082FF0BC08091E20082FF07C08091E1002F
:102830008B7F8093E1000E9432168091DA0080FF46
:102840001DC08091D80080FF19C08091DA008E7F72
:102850008093DA008091D90019BC80FF0BC082E020
:1028600089BD09B400FEFDCF81E080932E080E944F
:102870001F1104C010922E080E942D118091E100BA
:1028800080FF19C08091E20080FF15C08091E200B6
:102890008E7F8093E2008091E20080618093E2006D
:1028A0008091D80080628093D80019BC85E0809325
:1028B0002E080E9404128091E10084FF35C08091AF
:1028C000E20084FF31C080911D01823010F40E942B
:1028D000810A19BC82E089BD09B400FEFDCF809158
:1028E000D8008F7D8093D8008091E1008F7E809307
:1028F000E1008091E2008F7E8093E2008091E2000F
:1029000081608093E20080912B08882311F084E09D
:1029100007C08091E30087FD02C081E001C083E031
:1029200080932E080E940D128091E10083FF29C040
:102930008091E20083FF25C08091E100877F809332
:10294000E10082E080932E0810922B088091E10034
:102950008E7F8093E1008091E2008E7F8093E20081
:102960008091E20080618093E20042E060E080E0DC
:102970000E941E138091F00088608093F0000E94F6
:102980003011FF91EF91BF91AF919F918F917F9106
:102990006F915F914F913F912F910F900FBE0F90CC
:1029A0001F9018951F920F920FB60F9211242F931C
:1029B0003F934F935F936F937F938F939F93AF93C7
:1029C000BF93CF93DF93EF93FF93C091E900CF7054
:1029D0008091EC00D82FD17080FDD0E81092E900F2
:1029E0008091F000877F8093F00078940E94161504
:1029F0001092E9008091F00088608093F000CD2B68
:102A0000CF70C093E900FF91EF91DF91CF91BF911B
:102A1000AF919F918F917F916F915F914F913F9176
:102A20002F910F900FBE0F901F9018951F93CF936B
:102A3000DF9300D0CDB7DEB7EFE2F8E087E398E0B0
:102A40002091F10021938E179F07D1F70E94451125
:102A50008091E80083FFF2C080912F0890913008A8
:102A6000492F50E04A30510508F0E8C0FA01EA5811
:102A7000FF4F0C945125803881F0823809F0DEC078
:102A8000809133088F708093E9008091EB0085FB83
:102A9000882780F91092E90007C080912C088823CC
:102AA00011F082E001C080E09091E800977F909360
:102AB000E8008093F1001092F10095C0282F2D7F3F
:102AC00009F0BCC0882319F0823061F0B7C0809152
:102AD0003108813009F0B2C0933009F080E0809372
:102AE0002C082BC080913108811127C080913308B8
:102AF0008F7009F4A3C08093E9002091EB0020FFC0
:102B00001CC0933021F48091EB00806214C090913E
:102B1000EB0090619093EB0021E030E0A90102C04E
:102B2000440F551F8A95E2F74093EA001092EA009D
:102B30008091EB0088608093EB001092E900809117
:102B4000E800877F53C0811179C0109131081F7749
:102B50008091E3008078812B8093E3008091E800EE
:102B6000877F8093E8000E9432138091E80080FF05
:102B7000FCCF8091E30080688093E300111102C0D4
:102B800082E001C083E080932E0858C080588230D4
:102B900008F054C0AE014F5F5F4F609133088091E1
:102BA0003108909132080E940F12BC01892B09F460
:102BB00045C09091E800977F9093E80089819A81C1
:102BC0000E94C0128091E8008B778093E80036C0A5
:102BD0008038A1F58091E800877F8093E80080919C
:102BE0002B088093F1008091E8008E778093E800B5
:102BF0000E94321323C0811121C08091310890912D
:102C0000320899270297D4F48091E800877F809357
:102C1000E8008091310880932B080E943213809144
:102C20002B08811106C08091E30087FD02C081E07E
:102C300001C084E080932E080E9431118091E80049
:102C400083FF0AC08091E800877F8093E80080912D
:102C5000EB0080628093EB000F900F90DF91CF919B
:102C60001F91089508959093E8068093E7060895CC
:102C70008091E7069091E8060895E091E706F091CB
:102C8000E806309721F00190F081E02D099480E072
:102C90000895E091E706F091E806309721F0028070
:102CA000F381E02D09940895E091E706F091E8069C
:102CB000309721F00480F581E02D0994089520914A
:102CC000E5063091E6062817390771F09093E6067D
:102CD0008093E506E091E706F091E806309721F051
:102CE0000680F781E02D099408952091E306309144
:102CF000E4062817390771F09093E4068093E30601
:102D0000E091E706F091E806309721F00084F18524
:102D1000E02D099408950E9409220E9456020E9403
:102D2000DD030E9431240C947C240E94650280E023
:102D300090E00E94F2160E94C1090E942B2380910C
:102D40000107882389F08091FF06909100070E9477
:102D50001E228C34910540F01092FE068AEE96E019
:102D60000E94D607109201070E943D169091E90635
:102D70008917A1F10E943D168093E90684FF2CC0BB
:102D8000E0910107F0E0E651F94F9081990F990F1A
:102D90008370892B80830E94122290930007809376
:102DA000FF068091FE068F5F8093FE068430B0F0B0
:102DB0008091EA06803641F480910107823020F448
:102DC00087E490E00E94CA1B1092FE0680910107E2
:102DD0008F5F8093010708950C94FA2108950C9455
:102DE000C2040895CF93DF9300D000D000D0CDB7B8
:102DF000DEB7FC01892B39F40E941222816060E069
:102E00005FEF4FEF05C040815181628183819481E2
:102E1000FE01319626E0DF011D922A95E9F7782F11
:102E20009D838C838D819E810E94941E26960FB671
:102E3000F894DEBF0FBECDBFDF91CF910895CF9341
:102E4000882349F1803B29F484EF91E0CF910C94E1
:102E5000421FC82F8CEF8C0F813A20F080E58C0F39
:102E60008E3250F48C2F0E94F323811114C061E044
:102E70008C2F0E943B210CC080E28C0F883058F4CC
:102E8000C77081E001C0880FCA95EAF70E948921C6
:102E9000CF910C94C021CF910895882351F19CEFDC
:102EA000980F913A20F090E5980F9E3220F460E060
:102EB0000E943B210DC090E2980F983058F4877023
:102EC00091E001C0990F8A95EAF7892F0E948F211E
:102ED0000C94C0219BE5980F933020F480E090E0A3
:102EE0000C945F16885A873120F480E090E00C94AF
:102EF00075160895882321F00E9489210C94C02121
:102F00000895882321F00E948F210C94C0210895F8
:102F10000E94A6210E947C210E94C0210E94E723DA
:102F20000E94202380E090E00E945F1680E090E005
:102F30000C9475160E9496210C948817CF93DF93FA
:102F400000D000D01F92CDB7DEB70E94CD20292F30
:102F500022952F702C3030F42A30A0F422502230E9
:102F600030F01DC02C30A9F02F3099F018C0853AF0
:102F700028F4843090F4823028F40FC090E2980F47
:102F8000983058F0843058F0853A38F0803F39F462
:102F900004C093FB882780F903C081E001C080E072
:102FA0000F900F900F900F900F90DF91CF91089599
:102FB000811101C08AE0662311F0885A01C0835E46
:102FC00090E00C94CA1BCF92DF92EF92FF920F9386
:102FD0001F93CF93DF9300D000D01F92CDB7DEB701
:102FE0006C0185E0F601DE01119601900D928A9543
:102FF000E1F7F6012381348189819A812115310518
:1030000031F09F3F31F491E08F3F19F403C091E01C
:1030100001C090E090FD95C3F601F280E580E29456
:103020008FE0E8222230310559F0722F3D832C8346
:1030300049815A816F2D8D810E94CD208C0102C063
:1030400009811A810E94CC200E94C61FE12FE295BF
:10305000EF708E2F90E0FC01E058FF4F0C9451254B
:10306000812F807F1F70882311F01295107FFF2021
:1030700021F10E94862181239091A107892B8093C1
:10308000A107112351F0002319F081E080939F07DD
:10309000812F0E9499210E94C021802F0F900F90B4
:1030A0000F900F900F90DF91CF911F910F91FF9094
:1030B000EF90DF90CF900C941F179091A107812F74
:1030C000809589238093A10710929F07802F0E94EB
:1030D0004D17112309F435C3812F0E949F210F90B2
:1030E0000F900F900F900F90DF91CF911F910F9144
:1030F000FF90EF90DF90CF900C94C021812F807FC4
:103100001F70803211F01295107F002319F00130EA
:1031100009F12BC0FF20A9F0EE2061F1F1E0812F31
:10312000EF1229C00F900F900F900F900F90DF912A
:10313000CF911F910F91FF90EF90DF90CF900C9463
:10314000A921EE2021F021E0E21609F4FAC20E9442
:10315000AC2154C0FF20F1F082E08E1508F4F1C2DA
:103160000E948621812331F049C0FF2009F444C028
:10317000E11015C0812F0F900F900F900F900F90BE
:10318000DF91CF911F910F91FF90EF90DF90CF9043
:103190000C947A17E1E0EE1508F4D3C22FC0F601C3
:1031A000858180FF13C08F708583E4CF003F09F4D1
:1031B000B4C108F08FC1003E08F094C1FF2009F4AB
:1031C00009C2EE2009F4F5C113FDEFC1802F0E9462
:1031D0001F17093309F0B5C282E30F900F900F90CB
:1031E0000F900F90DF91CF911F910F91FF90EF9073
:1031F000DF90CF900C94FD21E110F4C1812F7EC1AE
:10320000812F86958695837019F08130B9F099C227
:10321000FF2019F0C801937002C080E090E00F9089
:103220000F900F900F900F90DF91CF911F910F9102
:10323000FF90EF90DF90CF900C947516FF20C1F0B7
:10324000C80193708115F3E09F07A4F089EF91E026
:103250000E94421F60E0802F82958F700E94D817D5
:1032600060E0802F8F700E94D81787EF91E0E1C156
:1032700080E090E00F900F900F900F900F90DF91F3
:10328000CF911F910F91FF90EF90DF90CF900C9412
:103290005F16802FFF2081F00E946B220E94202366
:1032A000063408F04EC2E02FF0E0E255F84F81E01E
:1032B00080838093AD0745C20E94B9220E942023DB
:1032C000063408F03EC2202F30E0F901E255F84FF5
:1032D0001082002311F0C90102C084EF90E560E084
:1032E0000F900F900F900F900F90DF91CF911F9143
:1032F0000F91FF90EF90DF90CF900C94AF1B812F38
:10330000837009F070C0F1101CC2202F2295269501
:103310002770220F220F602F6F70862F90E0A0E0A1
:10332000B0E06C017D01022E04C0CC0CDD1CEE1C53
:10333000FF1C0A94D2F704FF12C08FE090E0A0E0D7
:10334000B0E004C0880F991FAA1FBB1F2A95D2F7AF
:10335000BC01CD01609570958095909503C060E0AB
:1033600070E0CB011695169513701230B1F040F550
:103370006C297D298E299F29113031F10F900F90F2
:103380000F900F900F90DF91CF911F910F91FF90B1
:10339000EF90DF90CF900C94E11F6C297D298E294E
:1033A0009F290F900F900F900F900F90DF91CF916A
:1033B0001F910F91FF90EF90DF90CF900C94FB1F27
:1033C0000E94E11FC701B6010F900F900F900F9060
:1033D0000F90DF91CF911F910F91FF90EF90DF90B1
:1033E000CF900C94C71FFF2019F0812F817001C06E
:1033F0008695882309F4A5C1202F2295269527704C
:10340000220F220F602F6F70862F90E0A0E0B0E0B7
:103410006C017D01022E04C0CC0CDD1CEE1CFF1CD7
:103420000A94D2F704FF12C08FE090E0A0E0B0E071
:1034300004C0880F991FAA1FBB1F2A95D2F7BC0191
:10344000CD01609570958095909503C060E070E027
:10345000CB011695169513701230B1F040F56C291A
:103460007D298E299F29113031F10F900F900F90F7
:103470000F900F90DF91CF911F910F91FF90EF90E0
:10348000DF90CF900C94A8206C297D298E299F294C
:103490000F900F900F900F900F90DF91CF911F9191
:1034A0000F91FF90EF90DF90CF900C94BA200E9484
:1034B000A820C701B6010F900F900F900F900F90AA
:1034C000DF91CF911F910F91FF90EF90DF90CF9000
:1034D0000C949620023F09F441C0D8F1033F09F44F
:1034E00042C06CCE0F70812F8F71FF2021F00E949F
:1034F0002F20802F40CE0E945020802F0F900F90C1
:103500000F900F900F90DF91CF911F910F91FF902F
:10351000EF90DF90CF900C948117FF20A9F021E06D
:103520002E1508F40EC1812F8F710F900F900F9000
:103530000F900F90DF91CF911F910F91FF90EF901F
:10354000DF90CF900C94752082E08E1508F4F9C0BE
:10355000EACFFF2029F0812F8F712DC0FF20D9F3F2
:10356000812F8F7151C0FF2089F0812F8F710F90B3
:103570000F900F900F900F90DF91CF911F910F91AF
:10358000FF90EF90DF90CF900C941A200F900F9047
:103590000F900F900F90DF91CF911F910F91FF909F
:1035A000EF90DF90CF900C941520F601858180FF7D
:1035B0000DCE812F87700F900F900F900F900F906E
:1035C000DF91CF911F910F91FF90EF90DF90CF90FF
:1035D0000C942F20EE20B1F013FF04C0F60185817A
:1035E00080FD10C0802F0F900F900F900F900F90C4
:1035F000DF91CF911F910F91FF90EF90DF90CF90CF
:103600000C944D17812F87700F900F900F900F9093
:103610000F90DF91CF911F910F91FF90EF90DF906E
:10362000CF900C945020412F4F70602FC6010E9404
:10363000AC010F900F900F900F900F90DF91CF91F2
:103640001F910F91FF90EF90DF90CF900C94421F4D
:10365000F11077C0002341F0812F8F70843021F06A
:10366000107F902F9F70192B1F701230C9F1A0F49A
:10367000112339F1113009F064C00F900F900F90B1
:103680000F900F90DF91CF911F910F91FF90EF90CE
:10369000DF90CF900C94AC24133089F1143009F0F2
:1036A00050C0802F0F900F900F900F900F90DF91D0
:1036B000CF911F910F91FF90EF90DF90CF900C94DE
:1036C00011250F900F900F900F900F90DF91CF91D9
:1036D0001F910F91FF90EF90DF90CF900C94912469
:1036E0000F900F900F900F900F90DF91CF911F913F
:1036F0000F91FF90EF90DF90CF900C94CF240F901C
:103700000F900F900F900F90DF91CF911F910F911D
:10371000FF90EF90DF90CF900C94EE24412F4F70EC
:10372000602FC6010F900F900F900F900F90DF91B8
:10373000CF911F910F91FF90EF90DF90CF900C945D
:103740002A010F900F900F900F900F90DF91CF9163
:103750001F910F91FF90EF90DF90CF900895CF933E
:10376000DF9300D000D000D0CDB7DEB789839A8335
:103770006B8382E090E09D838C83CE0101960E9452
:10378000E31726960FB6F894DEBF0FBECDBFDF91CC
:10379000CF910895CF93DF93EC0161E00E94AF1BBE
:1037A00060E0CE01DF91CF910C94AF1BBF92CF921E
:1037B000DF92EF92FF920F931F93CF93DF936C01F1
:1037C000B62EC5E0D0E000E117E28AE0E82EF12C49
:1037D000C601B8010E942925CB01009731F0B7013D
:1037E0000E9429256B2D0E94D817C801B7010E949D
:1037F00029258B01219761F7DF91CF911F910F91BF
:10380000FF90EF90DF90CF90BF900895CF93DF931C
:1038100000D000D01F92CDB7DEB70F900F900F9061
:103820000F900F90DF91CF910895CF93DF9300D049
:1038300000D000D0CDB7DEB726960FB6F894DEBF25
:103840000FBECDBFDF91CF9108951F93CF93DF932C
:10385000C091020716E080910307C81799F0D0E0E5
:103860001C9FF0011D9FF00D1124EC5FF84F40816B
:10387000518162817381848195810E94151C2196FA
:10388000C770E9CFDF91CF911F9108954091340720
:10389000509135076091360770913707809138074E
:1038A000909139070C94151C0F931F93CF93DF93BE
:1038B0008091390782958F7009F05DC0809136073D
:1038C000882309F458C08091020710910307609182
:1038D000340770913507C0913707D091380791E0D0
:1038E0006F3F09F090E0292F06E0811709F443C0EB
:1038F000209721F07F3F21F030E003C031E001C08C
:10390000322F90E030FD34C0089FF001099FF00D88
:103910001124DF01AC5FB84F11963C91119737131A
:1039200027C03C91361324C012963C911297311156
:103930001FC013964D915C9114974C1B5D0B483C36
:103940005105B0F4809139078F70806180933907F9
:10395000E75FF84F80818F708061808384E397E018
:103960000E94E317DF91CF911F910F910C94251CBA
:1039700001968770BACFDF91CF911F910F91089573
:103980009F92AF92BF92CF92DF92EF92FF920F93EE
:103990001F93CF93DF93CDB7DEB761970FB6F8943F
:1039A000DEBF0FBECDBF8C0185E0F801DE011D96A4
:1039B00001900D928A95E1F7F80140815181F280E2
:1039C000C380D480909134076091350720913707E8
:1039D000309138072115310531F06F3F31F481E026
:1039E0009F3F19F403C081E001C080E0F82FF1701F
:1039F0009F2E80FD52C184E3A82E87E0B82EE09070
:103A00003607F601E21BF30BEE2009F4E8C08091C3
:103A10003907E83CF10508F0A4C0282F207F09F001
:103A200053C0561313C0491311C0EF2CF1100EC030
:103A30008F708061809339070E94461CC5010E94E7
:103A4000E31780913907F80185835BC1C114D10464
:103A500031F05F3F31F481E04F3F19F403C081E062
:103A600001C080E080FD03C081E08F2502C080E0BE
:103A700090E0F82FF170EF2E80FF1CC080910207BC
:103A80002091030736E0821709F418C190E0389FAF
:103A9000F001399FF00D1124EC5FF84F618156134E
:103AA00006C06081461303C06281F61203C001960E
:103AB0008770E9CFEF2CFF2009F423C180913907EB
:103AC00081608093390762C0561306C0491304C051
:103AD000F11002C0F801A7C04D875E87FF867C2DDC
:103AE000D98AC88A6F2D89890E949E17882399F1E7
:103AF000FF2089F120913907822F82958F7090E005
:103B0000029774F0809134079091350798878F83DE
:103B10001986DB86CA862C87CE0107960E94E3179A
:103B200086E0F801A4E3B7E001900D928A95E1F7F1
:103B30000E94541C0E94461C11C0561749F14D8723
:103B40005E87FF867C2DD98AC88A6F2D89890E945D
:103B50009E1781112CC0C8010E94E317EE24E39444
:103B6000D0C0282F207F49F77C2DD98AC88A6F2D95
:103B700089890E94061C84E397E00E94E31786E08F
:103B8000F50111928A95E9F70E94461CE12CB9C013
:103B90004913D5CFF110D3CFF8018583C8010E9416
:103BA000E31786E0F50111928A95E9F7AAC0FF2094
:103BB00091F220913907822F82958F7090E00297C1
:103BC0000CF4AECF80913407909135079A838983A6
:103BD0001B82DD82CC822E83CE0101969FCFE83CF2
:103BE000F10508F04BC0EF2CFF2009F4B4CF5613B9
:103BF00030C049132EC02091390720FD21C0822FEB
:103C000082958F70482F50E041155105C9F0F80199
:103C100025834F30510541F08F5F982F9295907F0B
:103C2000822F8F70892B8583C8010E94E31786E05D
:103C3000F801A4E3B7E001900D928A95E1F72AC05C
:103C400086E0F801A4E3B7E001900D928A95E1F7D0
:103C500058C04D875E87FF867C2DD98AC88A6F2D14
:103C600089890E949E1781115BCF809139078160FD
:103C700080933907C8010E94E31743C07C2DD98A7D
:103C8000C88A6F2D89890E94061C86E0F501119271
:103C90008A95E9F70E94461C34C0FF2009F45BCFE7
:103CA0004D875E87FF867C2DD98AC88A6F2D8989CA
:103CB0000E949E17882309F44ECF32CF7C2DD98ADB
:103CC000C88A6F2D89890E94CD20292F22952F70B7
:103CD000223028F49F7039F0811105C00BC02430C8
:103CE00028F49F7049F4805E883020F0C8010E945B
:103CF000E3179E2CE92C05C0F8019581907F99F778
:103D0000F9CF8E2D61960FB6F894DEBF0FBECDBFF2
:103D1000DF91CF911F910F91FF90EF90DF90CF90A7
:103D2000BF90AF909F9008951F93CF93DF93CDB72F
:103D3000DEB72C970FB6F894DEBF0FBECDBF4F8312
:103D4000588769877A878B879C87CE0107960E9460
:103D5000C01C8823D1F09F8188852A853B85232B31
:103D600031F08F3F31F481E09F3F19F403C081E0CF
:103D700001C080E080FD47C04F81588569857A8504
:103D80008B859C850E94151C3EC086E0FE013796FF
:103D9000DE01119601900D928A95E1F7FF81E88589
:103DA0006A857B856115710531F0EF3F31F481E063
:103DB000FF3F19F403C081E001C080E080FD23C013
:103DC0002091030730E0C90101968770992740913F
:103DD000020750E084179507F1F1F983EA837D83A8
:103DE0006C8396E0929FD001939FB00D1124AC5F3D
:103DF000B84FFE01319601900D929A95E1F78093AC
:103E000003070E94251C16E080910207909103078A
:103E1000891771F1189FC00111248C5F984F0E947F
:103E2000C01C882329F1E09102071E9FF001112494
:103E3000EC5FF84F4081518162817381848195816B
:103E40000E94151C8091020790E0019687709927C7
:103E500080930207D9CF0E949A17109203071092FD
:103E60000207E4E3F7E086E0DF011D928A95E9F7B7
:103E70002C960FB6F894DEBF0FBECDBFDF91CF9169
:103E80001F910895CF92DF92EF92FF921F93CF93ED
:103E9000DF937C010E94E60BE114F10409F464C095
:103EA000E7012196F7011491193709F43EC0B8F4DF
:103EB000143740F4143008F052C08FEF810F823075
:103EC000F8F052C0143709F04FC0F2E0EF0EF11CC9
:103ED000FE0184910E94FD21E7017E01E1CF1338AC
:103EE00028F4113868F4103801F13EC01338B9F0E5
:103EF000143F08F039C01F77812F90E0926031C0E5
:103F0000FE0185919491612F6170E701133018F4DF
:103F10002296992701C023960E94AF1BDECFFE0197
:103F200085919491E70123961CC0FE01C590D49021
:103F3000E701239684E00E947A17103841F461E08B
:103F400081E00E94D817F0EACF1AF6E8DF0A61E0B4
:103F5000C6010E94D61B84E00E948117BECF812F2C
:103F600090E00E94CA1BB9CFDF91CF911F91FF90C3
:103F7000EF90DF90CF90089560938A0770938B073E
:103F800080938C0790938D070C94B50408950F933C
:103F90001F9300912A0110912B0120912C01309147
:103FA0002D01602B712B822B932B60932A01709330
:103FB0002B0180932C0190932D011F910F910C9454
:103FC000B9040F931F9300912A0110912B012091A6
:103FD0002C0130912D016023712382239323609360
:103FE0002A0170932B0180932C0190932D011F9136
:103FF0000F910C94B9040F931F9300912A01109113
:104000002B0120912C0130912D01602771278227EF
:10401000932760932A0170932B0180932C01909336
:104020002D011F910F910C94B90460E070E0CB0159
:104030000C94BC1F0F931F9341E050E060E070E0D0
:104040008A019B0104C0000F111F221F331F8A9594
:10405000D2F7C901B8011F910F910C94BC1F0F93A7
:104060001F9341E050E060E070E004C0440F551F32
:10407000661F771F8A95D2F780918A0790918B07E8
:10408000A0918C07B0918D078A019B01082B192BF9
:104090002A2B3B2BC901B8011F910F910C94BC1F17
:1040A0000F931F9341E050E060E070E004C0440FC4
:1040B000551F661F771F8A95D2F7409550956095DA
:1040C000709580918A0790918B07A0918C07B09191
:1040D0008D078A019B01082319232A233B23C90149
:1040E000B8011F910F910C94BC1F0F931F9341E0D7
:1040F00050E060E070E004C0440F551F661F771F5A
:104100008A95D2F780918A0790918B07A0918C07AE
:10411000B0918D078A019B01082719272A273B2781
:10412000C901B8011F910F910C94BC1F0F931F93ED
:1041300000918A0710918B0720918C0730918D0791
:10414000602B712B822B932B1F910F910C94BC1F12
:104150000F931F9300918A0710918B0720918C0772
:1041600030918D0760237123822393231F910F9138
:104170000C94BC1F0F931F9300918A0710918B071B
:1041800020918C0730918D07602771278227932714
:104190001F910F910C94BC1F08958F929F92AF9224
:1041A000BF92DF92EF92FF920F931F93CF93DF9313
:1041B00000D000D01F92CDB7DEB78A016623D1F1BF
:1041C00080908A0790908B07A0908C07B0908D0705
:1041D00080912A0190912B01A0912C01B0912D0189
:1041E000882A992AAA2ABB2A8FE1E82EF12CD50128
:1041F000C4010E2C04C0B695A795979587950A948F
:10420000D2F780FD06C081E0E81AF10880F7D12CD2
:1042100007C0DE2CB8018E2D0E945322019799F31E
:1042200080E1189FF0011124E65CF84FE00FF11DCA
:10423000D08209C080E1189FF0011124E65CF84F9C
:10424000E40FF11DD08009831A8369817A818D2D55
:104250000E9453220F900F900F900F900F90DF91BC
:10426000CF911F910F91FF90EF90DF90BF90AF9093
:104270009F908F9008959091290191799131F1F457
:10428000382F3695369536953F30A8F5E0912E01BA
:10429000F0912F01282F277081E090E001C0880F56
:1042A0002A95EAF7E30FF11D662319F09181892B16
:1042B00003C08095918189238183089520912E01E7
:1042C00030912F01F90171964FEF9EE052915523E5
:1042D00031F0851305C061110EC0108201C0492F55
:1042E0009150A0F7662339F0F901E40FF11D47FD65
:1042F000FA95828308950895E0912E01F0912F019F
:1043000080E1DF011D928A95E9F708958091A30766
:1043100008959091A307892B8093A3070895809512
:104320009091A30789238093A30708951092A30770
:1043300008959091A207892B8093A20708958095F4
:104340009091A20789238093A20708951092A20753
:10435000089580938E07089510928E070895809196
:104360002E0190912F01FC0131969C01205F3F4F5F
:1043700080E0919191118F5FE217F307D1F70895D3
:10438000E0912E01F0912F018091A3078083E091AD
:104390002E01F0912F0190818091A207892B8083BB
:1043A000E0912E01F0912F018091A10780959081DD
:1043B00089238083E0912E01F0912F018091A00745
:1043C000809590818923808380918E07882361F076
:1043D000E0912E01F0912F019081892B80830E9422
:1043E000AF21811110928E0780912E0190912F01A3
:1043F0000C9449160C94EF160895882341F0EFE9C8
:10440000FFE03197F1F700C000008150F6CFA8958A
:10441000089582E084BD93E095BD9DE797BD8093AC
:104420006E0008952FB7F8948091A4079091A50786
:10443000A091A607B091A7072FBF08959C014FB781
:10444000F8948091A4079091A507A091A607B09138
:10445000A7074FBF821B930B089578941F920F926A
:104460000FB60F9211248F939F93AF93BF938091B8
:10447000A4079091A507A091A607B091A707019660
:10448000A11DB11D8093A4079093A507A093A60733
:10449000B093A707BF91AF919F918F910F900FBEDF
:1044A0000F901F901895CF93C82FCB010E941F012A
:1044B000803819F480E090E00CC0EC2FF0E0FE2F83
:1044C000EE27E050F04AE80FF11DE80FF11D85914D
:1044D0009491CF910895803F08F44AC0803F11F431
:1044E0009FEF03C0813F21F491E09093F9073BC017
:1044F000823F11F49FEF03C0833F21F491E090933A
:10450000F80731C0893F70F421E030E09CE0980F5B
:1045100001C0220F9A95EAF79091F707292B209373
:10452000F70721C0893F11F491E003C08A3F21F4CD
:104530009FEF9093FA0717C08B3F11F49FEF03C0D2
:104540008C3F21F491E09093FB070DC021E030E017
:1045500093E0980F01C0220F9A95EAF79091F40723
:10456000292B2093F407895F843010F41092F5070B
:104570000895803F08F463C0803F39F48091F907C3
:1045800087FF5DC01092F9070895813F29F480915B
:10459000F9071816BCF30895823F39F48091F807A3
:1045A00087FF4DC01092F8070895833F29F480914A
:1045B000F8071816BCF30895893F88F4845F21E05A
:1045C00030E0A90102C0440F551F8A95E2F7CA01E5
:1045D00080959091F70789238093F7070895893F85
:1045E00039F48091FA07181654F51092FA070895D5
:1045F0008A3F29F48091FA0787FF21C0F6CF8B3FCD
:1046000039F48091FB0787FF1AC01092FB070895C9
:104610008C3F29F48091FB071816BCF308958D5F39
:1046200021E030E0A90102C0440F551F8A95E2F74E
:10463000CA0180959091F40789238093F407089527
:1046400087EF97E00E9454160E9412229093AA07C7
:104650008093A90708950F931F93CF93DF938091C1
:10466000AD078823D9F18091AB079091AC070E94E8
:104670001E222091310130E02817390778F50E9479
:10468000A3258F70825E809331010EEA17E0C0E0AF
:10469000D0E090E0F80181918F01882369F0CC236C
:1046A00019F08C2F9D2F02C084EF90E560913001AE
:1046B00070E00E94AF1B91E02196C634D10551F7FE
:1046C0002091300181E08227809330019093AD07E3
:1046D0000E9412229093AC078093AB078091A907A8
:1046E0009091AA070E941E22AC019091F607923089
:1046F00019F028E230E002C025E030E0421753070D
:1047000008F460C0D091FA07C091FB072091F80728
:104710008091F907822B8D2B8C2B19F41092F607C0
:1047200051C0923020F49F5F9093F6074BC0809168
:10473000F5078F5F8093F5078F7021F01092FA07CD
:104740001092FB070E942023D093FA07C093FB0727
:104750008091A8078F5F8093A8078D3098F1809192
:10476000290187FD02C080E001C085E08093A80791
:104770009091F407292F220F220F290FE7EFF7E07E
:104780003CEE44E181818823C1F0992349F0181659
:1047900014F08FEF01C081E0829F802D11240AC0A8
:1047A00018162CF48F5F85312CF0418306C08150A0
:1047B0008C3E14F0818301C03183319687E0EB3F5A
:1047C000F80701F7DF91CF911F910F910895E7EF5F
:1047D000F7E085E0DF011D928A95E9F71092F40772
:1047E000089580E00895CF9390919F07911135C06F
:1047F000C82F8091FC07882319F0813051F02AC01E
:10480000E0912E01F0912F0180818252823030F5AB
:1048100008C0E0912E01F0912F01808182528230F8
:10482000A0F48C2F0E94190F81110AC0C13151F4DC
:104830000E94FC219091290180E189278093290120
:1048400091E001C090E0917009C08C2F0E94F1238B
:1048500091E004C01092FC0701C090E0892FCF9135
:104860000895E1E8F0E08081886080838081816044
:1048700080838FB7F8949AE79093890092E19093A0
:1048800088008FBF0895EFE6F0E08081826080832A
:1048900008956DEE7EEF80E090E00E94A52860E034
:1048A00082E090E00E94872860E083E090E00E9430
:1048B000872860E084E090E00E94872860E085E03F
:1048C00090E00E94872860E086E090E00C948728C2
:1048D00080E090E00E94812821E08D3E9E4F09F00B
:1048E00020E0822F089586E090E00C947328682FD2
:1048F00086E090E00C9487280E946824811102C011
:104900000E9449240E94732480933708811102C0B9
:1049100081E005C080FF02C0869501C080E00C9454
:10492000E80480913708982F9695292F30E0817000
:10493000283031054CF49F5F990F892B816080935B
:1049400037080E94772403C08061809337088091E4
:10495000370886950C94E8048091370880FF1EC0C4
:10496000982F9695292F30E02230310594F09158F8
:10497000990F8170892B809337088E7F91E009F41D
:1049800090E08091370890FB80F9809337080E946F
:1049900077248091370886950C94E80408958091D7
:1049A0003708982F9095917090FB80F98093370885
:1049B000992339F0982F9E7F21F481708260809333
:1049C0003708809137080E9477248091370880FF4C
:1049D00002C0869501C080E00C94E80490913708ED
:1049E000892F86958F5F8F779170893028F4880F93
:1049F000892B8093370802C090933708809137083D
:104A00008E7F91E009F490E08091370890FB80F967
:104A1000809337080E9477248091370886950C94FC
:104A2000E804880F909137089170892B809337089C
:104A30008E7F91E009F490E08091370890FB80F937
:104A4000809337080E9477248091370886950C94CC
:104A5000E804AA1BBB1B51E107C0AA1FBB1FA61776
:104A6000B70710F0A61BB70B881F991F5A95A9F717
:104A700080959095BC01CD01089597FB072E16F403
:104A8000009407D077FD09D00E94292507FC05D0A6
:104A90003EF4909581959F4F0895709561957F4F55
:104AA0000895EE0FFF1F0590F491E02D09948F9269
:104AB0009F92AF92BF92CF92DF92EF92FF92CF93ED
:104AC000DF93EC01688179818A819B816115710591
:104AD0008105910521F464E279ED8BE597E02DE104
:104AE00033EF41E050E00E94BB2849015A019B018D
:104AF000AC01A7EAB1E40E94DA286B017C01ACEEBC
:104B0000B4EFA50194010E94E828DC01CB018C0DD3
:104B10009D1DAE1DBF1DB7FF03C00197A109B04881
:104B200088839983AA83BB839F77DF91CF91FF907E
:104B3000EF90DF90CF90BF90AF909F908F900895AF
:104B40000E945725089580E091E00E94572508951E
:104B5000A0E0B0E08093000190930101A0930201D6
:104B6000B09303010895FB01DC0104C08D91019015
:104B7000801921F441505040C8F7881B990B0895C3
:104B8000AEE0B0E0E6ECF5E20C94FB280D891E895E
:104B900086E08C831A8309838FEF9FE79E838D8342
:104BA000AE01475E5F4F6F89788DCE0101960E94FE
:104BB000E225EF81F885E00FF11F10822E96E4E0E8
:104BC0000C941729ABE0B0E0E8EEF5E20C94ED2888
:104BD0006C017B018A01FC0117821682838181FFAF
:104BE000CCC1CE0101963C01F6019381F70193FD02
:104BF000859193FF81917F01882309F4BAC18532A1
:104C000039F493FD859193FF81917F01853229F4D9
:104C1000B60190E00E94D927E7CF912C212C312CAE
:104C2000FFE1F315D8F08B3279F038F4803279F067
:104C30008332A1F4232D20611DC08D3261F08033B9
:104C400069F4232D216016C0832D8260382EE32D58
:104C5000E4603E2E2AC0F32DF8601DC037FC2DC045
:104C600020ED280F2A3040F08E32B9F436FC81C195
:104C7000232D2064322E19C036FE06C08AE0989E8D
:104C8000200D1124922E11C0EAE02E9E200D112439
:104C9000222EF32DF0623F2E08C08C3621F4832D96
:104CA0008068382E02C0883641F4F70193FD859163
:104CB00093FF81917F018111B3CF982F9F7D9554F0
:104CC000933028F40C5F1F4F9FE399830DC0833608
:104CD00031F0833771F0833509F059C021C0F801F4
:104CE000808189830E5F1F4F88248394912C530108
:104CF00013C02801F2E04F0E511CF801A080B180D2
:104D000036FE03C0692D70E002C06FEF7FEFC50172
:104D10000E94CE274C018201F32DFF773F2E16C053
:104D2000280122E0420E511CF801A080B18036FE1D
:104D300003C0692D70E002C06FEF7FEFC5010E94D4
:104D4000C3274C01F32DF0683F2E820133FC1BC0BA
:104D5000822D90E088169906B0F4B60180E290E0CA
:104D60000E94D9272A94F4CFF50137FC859137FEAC
:104D700081915F01B60190E00E94D92721102A9409
:104D800021E0821A91088114910471F7E8C08436F9
:104D900011F0893641F5F80137FE07C06081718155
:104DA000828193810C5F1F4F08C060817181072E43
:104DB000000C880B990B0E5F1F4FF32DFF763F2ED3
:104DC00097FF09C090958095709561957F4F8F4FA3
:104DD0009F4FF0683F2E2AE030E0A3010E94152883
:104DE000882E861845C0853731F4232D2F7EB22EAC
:104DF0002AE030E025C0932D997FB92E8F36C1F07F
:104E000018F4883579F0B5C0803719F0883721F06B
:104E1000B0C0E92FE061BE2EB4FE0DC0FB2DF460E2
:104E2000BF2E09C034FE0AC0292F2660B22E06C04C
:104E300028E030E005C020E130E002C020E132E0AF
:104E4000F801B7FE07C060817181828193810C5F98
:104E50001F4F06C06081718180E090E00E5F1F4FA0
:104E6000A3010E941528882E8618FB2DFF773F2E60
:104E700036FE0DC0232D2E7FA22E891458F434FE49
:104E80000BC032FC09C0832D8E7EA82E05C0B82C25
:104E9000A32C03C0B82C01C0B92CA4FE0FC0FE0186
:104EA000E80DF11D8081803321F49A2D997EA92E81
:104EB00009C0A2FE06C0B394B39404C08A2D8678BC
:104EC00009F0B394A3FC11C0A0FE06C0B21488F48C
:104ED000280C922C9B180EC0B21460F4B60180E22C
:104EE00090E00E94D927B394F7CFB21418F42B188E
:104EF00002C0982C212CA4FE10C0B60180E390E0E3
:104F00000E94D927A2FE17C0A1FC03C088E790E049
:104F100002C088E590E0B6010CC08A2D867859F071
:104F2000A1FE02C08BE201C080E2A7FC8DE2B601C7
:104F300090E00E94D927891438F4B60180E390E00C
:104F40000E94D9279A94F7CF8A94F301E80DF11DB6
:104F50008081B60190E00E94D9278110F5CF2220F0
:104F600009F442CEB60180E290E00E94D9272A944B
:104F7000F6CFF6018681978102C08FEF9FEF2B96C7
:104F8000E2E10C940929FC01059061507040011088
:104F9000D8F7809590958E0F9F1F0895FC01615062
:104FA000704001900110D8F7809590958E0F9F1F4B
:104FB00008950F931F93CF93DF93FB01238121FD6E
:104FC00003C08FEF9FEF2CC022FF16C04681578190
:104FD000248135814217530744F4A081B1819D019A
:104FE0002F5F3F4F318320838C93268137812F5F42
:104FF0003F4F3783268314C08B01EC01FB010084F3
:10500000F185E02D0995892BE1F6D80116968D9151
:105010009C911797019617969C938E931697CE01A5
:10502000DF91CF911F910F910895FA01AA2728309F
:1050300051F1203181F1E8946F936E7F6E5F7F4F65
:105040008F4F9F4FAF4FB1E03ED0B4E03CD0670FE1
:10505000781F891F9A1FA11D680F791F8A1F911D34
:10506000A11D6A0F711D811D911DA11D20D009F484
:1050700068943F912AE0269F11243019305D3193C6
:10508000DEF6CF010895462F4770405D4193B3E0AF
:105090000FD0C9F7F6CF462F4F70405D4A3318F056
:1050A000495D31FD4052419302D0A9F7EACFB4E007
:1050B000A6959795879577956795BA95C9F70097BF
:1050C0006105710508959B01AC010A2E0694579560
:1050D000479537952795BA95C9F7620F731F841FB7
:1050E000951FA01D0895F999FECF92BD81BDF89A34
:1050F000992780B50895A6E1B0E044E050E00C9413
:10510000AD28A8E1B0E042E050E00C94AD28262F95
:10511000F999FECF92BD81BDF89A019700B40216AD
:1051200039F01FBA20BD0FB6F894FA9AF99A0FBE5B
:1051300008950396272F0E9488280E948728252FEC
:105140000E948828242F0C9488280196272F0E94DB
:1051500088280C948728DC01CB01FC01F999FECF4B
:1051600006C0F2BDE1BDF89A319600B40D924150EF
:105170005040B8F70895052E97FB1EF400940E9446
:10518000D22857FD07D00E94242907FC03D04EF4F3
:105190000C94D22850954095309521953F4F4F4F14
:1051A0005F4F089590958095709561957F4F8F4FD3
:1051B0009F4F08950E944629A59F900DB49F900D82
:1051C000A49F800D911D11240895B7FF0C94DA2837
:1051D0000E94DA28821B930B08952F923F924F92E0
:1051E0005F926F927F928F929F92AF92BF92CF9277
:1051F000DF92EF92FF920F931F93CF93DF93CDB780
:10520000DEB7CA1BDB0B0FB6F894DEBF0FBECDBFF7
:1052100009942A88398848885F846E847D848C84C8
:105220009B84AA84B984C884DF80EE80FD800C81D1
:105230001B81AA81B981CE0FD11D0FB6F894DEBFB4
:105240000FBECDBFED010895A1E21A2EAA1BBB1B14
:10525000FD010DC0AA1FBB1FEE1FFF1FA217B30742
:10526000E407F50720F0A21BB30BE40BF50B661F58
:10527000771F881F991F1A9469F76095709580951C
:1052800090959B01AC01BD01CF010895A29FB00193
:10529000B39FC001A39F700D811D1124911DB29F6A
:0E52A000700D811D1124911D0895F894FFCF0B
:1052AE000100000001010103FC018046FFFFE90A35
:1052BE00EF0B780BEC0A440B010C730E0104015B2F
:1052CE0010DE10C1109910721001010000008F073E
:1052DE00011E1813120C15BC19C01A41542B424C46
:1052EE0045484944434F4E54524F4C4B45593D252A
:1052FE00640A0041542B424C454849444D4F555386
:10530E00454D4F56453D25642C25642C25642C2592
:10531E00640A00425554544F4E3D25640A004154D0
:10532E002B424C454B4559424F415244434F444505
:10533E003D0030302D30300A00253032582D3030BF
:10534E002D253032582D253032582D253032582DFE
:10535E00253032582D253032582D253032580A003E
:10536E0041542B464143544F525952455345540ACA
:10537E000041542B424C45484944454E3D300A00AD
:10538E0041542B424C45484944454E3D310A00415B
:10539E00542B4741504445564E414D453D004D69B5
:1053AE006E69726120763220424C450041542B4783
:1053BE004150474554434F4E4E0A0041542B4741EE
:1053CE005044454C424F4E44530A0041540A00414A
:1053DE0054453D300A0041542B47415053544152DD
:1053EE00544144560A0041542B47415454414444BD
:1053FE00534552564943453D555549443D36313541
:10540E00390A0041542B47415454414444434841C6
:10541E00523D555549443D3078324131392C505228
:10542E004F504552544945533D31362C4D494E5FF0
:10543E004C454E3D312C56414C55453D390A0041A7
:10544E00542B42415544524154453D373638303045
:10545E000A0041542B48574144433D360A004154FB
:10546E002B47415454434841523D312C0041542B5B
:10547E00424C4547455450454552414444520A001A
:10548E0041542B474150444953434F4E4E4543548C
:10549E000A0041542B474150534554414456444110
:1054AE0054413D30322D30312D30360A0041542BCF
:1054BE00474150534554414456444154413D303286
:1054CE002D30312D30340A0041545A0A00BDB6B386
:1054DE00ADAAA7A4A19D404D3639CA047D04470448
:1054EE000E04A103BA03D303EC03040A2A8B037F31
:1054FE000353032A034D0069006E006900720061B8
:10550E000020007600320020002800550053004293
:10551E00005F0044004D0035003900290000000AEC
:10552E0003590044004B0042000000040309040923
:10553E00026D00040100A0FA09040000010301013C
:10554E000009211101000122400007058103080016
:10555E0001090401000103010200092111010001EA
:10556E00224D000705820308000109040200010311
:10557E0000000009211101000122360007058303F6
:10558E0008000A09040300010300000009211101AB
:10559E0000012239000705840310000112011001D9
:1055AE0000000008EDFE602101000102000105016E
:1055BE000906A101050719E029E71500250195083F
:1055CE0075018102050819012905950575019102DC
:1055DE00950175039101050719002977150025011D
:1055EE00957875018102C005010980A10185021619
:1055FE00010026B7001A01002AB700751095018127
:10560E0000C0050C0901A1018503160100269C02AC
:10561E001A01002A9C02751095018100C00501092E
:10562E0002A1010901A1000509190129051500258D
:10563E000195057501810295017503810105010929
:10564E003009311581257F950275088106093815B7
:10565E0081257F950175088106050C0A3802158192
:10566E00257F950175088106C0C005010906A101B7
:10567E00050719E029E71500250195087501810236
:10568E009501750881010508190129059505750112
:10569E0091029501750391010507190029FF150067
:0A56AE0026FF00950675088100C074
:1060000021E6EA40E940E2400400050006000700FE
:10601000080009000A000B000C000D000E000F0024
:1060200010001100120013001400150016001700D4
:10603000180019001A001B001C001D001E001F0084
:106040002000210022002300240025002600270034
:10605000280000F5E2402BAB04F02D002E002F00AD
:1060600030002A0032003300340031283600370077
:1060700038002BA23A003B003C003D003E003F00B0
:1060800040004100420043004400450046004700F4
:10609000480049004A004B004FA94D004E004F00F8
:1060A0005000510052322AA15400550056005700AA
:1060B000580059005A005B005C005D005E005F0004
:1060C0006000610062006300640076008500670084
:1060D000F350F250EA40E940F850F950FA506F009E
:1060E0007000710072007300890087008A008B00C5
:1060F0002BAAE100E200E0005000523251005000B3
:10610000F505010001000100010000D001D00100EF
:1061100001000AF40AF60AF80100010092410100A8
:10612000010001000100010001000AF001000AF273
:10613000010002D001000100010001003A003B0013
:106140003C003D003E003F00400041004200430053
:1061500028003500CD400BF52C0044004500B6402A
:10616000B540CD4001000100010001000100010027
:106170000100010001000100010001000100010017
:106180000100010001000100010001000100010007
:106190000100010001000100010001000100E940CF
:1061A000E24001000100010053009245010001009E
:1061B00001000100010001000100010001000100D7
:1061C00001000100010001000100010001000100C7
:1061D00001000100010001000100010001000100B7
:1061E000010001000100010049000100010001005F
:1061F00001000100010001000100E940EA40E24025
:106200001100FF00FF0001004C0002F03D004D00B6
:106210004A003E0044003A00490001002D002E00D3
:10622000010033002F00300046003B004E003C00D0
:106230006F4019084B0047007040480011F00BFBFD
:106240000100010001000100010001000100004700
:1062500034000100640039000100B00001000100B9
:10626000010031000100010001003100310038005F
:106270000100010001000100010001000100010016
:106280000100010001000100010001000100010006
:1062900001000100010001000BFC01000100E4000D
:1062A000E600E7000100010001000100010001001B
:1062B00001000100010001000100010001000100D6
:1062C00001000100010001000100010001000100C6
:1062D00001000100010001000100010001000100B6
:1062E00001000100010001000100010001000100A6
:1062F00001000100010001000100010003F00100A4
:106300001500010001000100F2500100FB50F350A4
:10631000F550FA50010001000100010001000100E8
:10632000010001000100F650F450F950F150010055
:106330000100FC50F050F8500100F750010001003E
:106340000100010001000100010001000100FD50F9
:1063500001000100010001000100FE50FF50F45057
:10636000F5500100010001000100010001000100E1
:106370000100010001000100010001000100010015
:106380000100010001000100010001000100010005
:1063900001000100010001000100010001000100F5
:1063A00001000100010001000100010001000100E5
:1063B00001000100010001000100010001000100D5
:1063C00001000100010001000100010001000100C5
:1063D00001000100010001000100010001000100B5
:1063E00001000100010001000100010001000100A5
:1063F00001000100010003F00100010001000100A3
:10640000160001000100010001000100010001006F
:106410000100010001000100010001000100010074
