:100000000C94F5000C9412010C9412010C94120142
:100010000C9412010C9412010C9412010C94120114
:100020000C9412010C9412010C9430120C940513D0
:100030000C94EC080C9412010C9412010C94120113
:100040000C9412010C9412010C9412010C941201E4
:100050000C9412010C9477200C9412010C94120150
:100060000C9412010C9483080C9412010C9412014C
:100070000C9412010C9412010C9412010C941201B4
:100080000C9412010C9412010C9412010C941201A4
:100090000C9412010C9412010C9412010C94120194
:1000A0000C9412010C9412010C94120156015D0182
:1000B000620167016C01710176018F05990599054F
:1000C000A205A205B505B505C905C905C907D20729
:1000D000D207D207D207D407D407D407D707D70748
:1000E000D707D707D707D707DA07DA07DA07DA0714
:1000F000DA07DA07DD07DD07DD076E139113511408
:1001000091135114D613F91351141B142E14CA163B
:10011000CA16181718179A17E317EA19EA190A18CE
:10012000EA1970177017C219EA19EA19D7192914B0
:100130001A0815171C180C12352A2B041607090A61
:100140000B0D0E0F3328791D1B06190511103637BC
:10015000387D68787A65692C6A137E7F7C6B000035
:1001600000000101010202030405050607090A0B4C
:100170000C0E0F1112141517191B1D1F21232528F2
:100180002A2C2F313436393B3E414346494C4F529D
:1001900055585A5D6164676A6D707376797C7F83A8
:1001A00086898C8F9295989B9EA2A5A7AAADB0B385
:1001B000B6B9BCBEC1C4C6C9CBCED0D3D5D7DADCA4
:1001C000DEE0E2E4E6E8EAEBEDEEF0F1F3F4F5F67A
:1001D000F8F9FAFAFBFCFDFDFEFEFEFFFFFF62628E
:1001E0000028008315087432000011241FBECFEFD1
:1001F000DAE0DEBFCDBF15E0A0E0B1E0E2E4FDE46F
:1002000002C005900D92A034B107D9F728E0A0E410
:10021000B5E001C01D92AE33B207E1F70E94260E91
:100220000C949F260C940000E82FF0E08CE0989F3F
:10023000E00DF11D1124E25DFE4F849108950F93AE
:100240001F93CF93DF938C01C62FD42F0E94CF1F13
:10025000F8019281C13029F0F8F0C43009F459C096
:1002600063C0992309F452C09D2F9270D0FD906213
:10027000982321F080FD02C085E307C09D2F947074
:10028000892311F08DE301C089E2809342058091BA
:1002900042050E94B91546C04D2F50E04730510528
:1002A00058F5FA01EA5AFF4F0C94AF2229E2209345
:1002B000410525E3209340051FC024E3209340051A
:1002C00028E218C028E32093400527E313C028E361
:1002D0002093400522E50EC023E3209340052FE044
:1002E00009C021E3209340052AE204C028E32093BB
:1002F000400526E320934105992341F085FF03C083
:1003000080914005C2CF80914105BFCF80914205C9
:1003100007C0992321F0827239F48CE2BACF8CE2C3
:100320000E94E7150E940920F8018281882381F14B
:10033000C330A9F048F4C23059F585E0DF91CF9180
:100340001F910F910C944C0DCA30D9F0CB3001F5B0
:100350008D2FDF91CF911F910F910C94F20D909101
:10036000810581E089278093810590918F0788E836
:10037000892780938F07DF91CF911F910F910C9464
:10038000F6038D2FDF91CF911F910F910C9468058B
:10039000DF91CF911F910F910895611107C0FC016A
:1003A0008281882319F080E09FE5089580E090E045
:1003B0000895E82FF0E0EE0FFF1FEF5BFE4FA081E6
:1003C000B0E090969C918181892311F480E8089592
:1003D00080E00895E9E3F1E090E0A081B0E091963B
:1003E0003C9191972181891711F08F3F11F4232BB4
:1003F00002C02095232391962C939F5F32969430D0
:1004000061F708955198599A23982B9A81E00E9498
:1004100047201B9B10921C0180913E0890913F0841
:100420008A3A9B4BA9F480911C01882389F0539A46
:100430005B98559A5D98229A2A9A8FEF91E12AE764
:10044000815090402040E1F700C000000C94AD08BE
:1004500008950E942105A1E4B1E0EC91F0E091A1A2
:1004600011962C911197822F8095982391A382A1A8
:10047000822B82A3129681E0A935B80771F70895FF
:100480005F926F927F928F929F92AF92BF92CF9224
:10049000DF92EF92FF920F931F93CF93DF930E940F
:1004A0005C2020917305309174058217930709F43D
:1004B0007FC0909374058093730505E715E0612C68
:1004C000712CE12CF12C93E4C92E95E0D92EAA24AD
:1004D000A394B12C862D0E94EA0180E18A95F1F760
:1004E000E601812C912C582C882D0E94D9019881ED
:1004F0009695892B88838038C9F4772019F07394F6
:10050000188214C085E0F82EE0E1EA95F1F7852D18
:100510000E94D90198819695982B9883882319F089
:10052000FA94F110F1CF7E0177247394C501082C61
:1005300002C0880F991F0A94E2F729912B3F30F0EF
:10054000F80120813181822B932B09C0233048F49C
:1005500080959095F80120813181822393239183A6
:100560008083FFEF8F1A9F0A8CE08816910409F0B0
:10057000BACFECE0CE0ED11CF801819191918F01A0
:10058000892B69F08091090182FD05C09092D20605
:100590008092D10604C01092D2061092D1066394C4
:1005A000F4E06F1297CF86E0871510F4F701108200
:1005B00081E0DF91CF911F910F91FF90EF90DF903D
:1005C000CF90BF90AF909F908F907F906F905F90F3
:1005D0000895E82FF0E0EE0FFF1FEB58FA4F8081EF
:1005E000918108950895CF93809116018A3040F14A
:1005F0000E944002E3E4F5E080E090E021912223B4
:1006000039F0803111F0833111F49C5901C09F5FA2
:100610008F5F803399F780911C01983C51F48823B7
:1006200011F081E01DC081E08093160180931B01D1
:1006300017C0811103C081E0911112C080E010C089
:100640008FEF0E94EA0180E18A95F1F7C0E08C2FDC
:100650000E94D9018111E5CFCF5FCC30C1F7EECF39
:10066000CF910895229A2A98E0E0F2E6E491E0938F
:100670008305E0E0F3E6E491E0938505EF3F19F4AC
:1006800081E080938005E2E0F2E685919591A59165
:10069000B49180937E0590937D05A0937F05089586
:1006A000CF93C82F811102C02A9A0FC0823069F4FB
:1006B0008091090182FD09C05C9840917F0560919D
:1006C0007D0580917E050E94FC0581E090E001C0DF
:1006D000880FCA95EAF790918205892B809382054D
:1006E000CF910895811102C02A9806C0823021F46A
:1006F0009091090192FF5C9A21E030E0A90102C0CB
:10070000440F551F8A95E2F7CA01809590918205A2
:100710008923809382050895EF92FF920F931F9390
:10072000CF93DF93D82F03E815E0C0E0E62EF12C3D
:10073000DD2331F0F80180818D1B883088F401C001
:100740008C2F970102C0359527958A95E2F720FFF7
:1007500004C08C2F0E94500303C08C2F0E94720390
:10076000CF5F0F5F1F4FC33019F7DF91CF911F91FC
:100770000F91FF90EF9008956091820580E00C94B6
:100780008C03CF92DF92FF920F931F93CF93DF934F
:10079000F82E03E815E0C0E0D0E0CC24C394D12CBF
:1007A000F80181918F018F110DC020918205C60142
:1007B0000C2E01C0880F0A94EAF7822780938205E5
:1007C0000E94BC032196C330D10551F7DF91CF9130
:1007D0001F910F91FF90DF90CF900895669581E073
:1007E0000C948C03669589E00C948C0360918105D0
:1007F00085E10C948C03682F80E10E948C030C949B
:10080000F6032BB1362F309523233BB1632B3FB733
:10081000F894FC0185E28150E1F0919148E06BB9D8
:1008200097FF2BB9990F000000C02BB9000000C042
:1008300000C000C000C000C000C000C000C000C0B8
:1008400000C000C000C000C000C000C04A9539F719
:10085000E2CF3FBF0895509A61E00C940104EF92FB
:10086000FF920F931F93CF93DF9300D000D01F927E
:10087000CDB7DEB7F90170E0869F9001879F300DFC
:100880001124232F3327042F10E0209FD001219F14
:10089000B00D309FB00D112420E031E07901E61A4F
:1008A000F70AE09E9001E19E300DF09E300D11247C
:1008B0003C833983832F8B0F8D838A834B1B4B8320
:1008C000892F90E063E070E00E948722DE01A80F8C
:1008D000B91F12963C91DE01A80FB91F11962C91F9
:1008E000DE01A80FB91F13968C9181833083228378
:1008F0000F900F900F900F900F90DF91CF911F915D
:100900000F91FF90EF9008958AE090E00C94D1252C
:10091000AB01BC018AE090E00C94E92584E2EDEEA5
:10092000F7E0DF011D928A95E9F70895EDEEF7E013
:10093000808123E0829FC00111249595879595952C
:100940008795819388E0E131F80791F78DEE97E084
:100950000C942B042091090122FF15C021E138E0FD
:100960000E942F04EDEEF7E080911108909112089B
:10097000A091130881939193A19388E0E131F80746
:1009800099F70C94960408950F931F93CF93DF93D8
:100990002091090122FF24C0D42F162FC92F082F20
:1009A000287F283011F40E94AA0400930801C37024
:1009B000909109019C7FC92BC093090110930A01F2
:1009C000D0930B01609108017091090180910A0197
:1009D00090910B01DF91CF911F910F910C9488049E
:1009E000DF91CF911F910F9108959091090192FF8E
:1009F00027C087FD04C087311CF080E001C086E17C
:100A0000880F880F880F909109019770892B809328
:100A10000901609108017091090180910A0190918A
:100A20000B010E9488049091090192FD5C9840910D
:100A30000B0160910A018091080193700C94C40429
:100A400008950E94840460930801709309018093C3
:100A50000A0190930B0180910B01811103C08FE774
:100A600080930B01549A8091090182FF05C08695FD
:100A7000869586950C94F5040E9496045C9A0895D8
:100A80008091090182FB222720F991E0922790FBB7
:100A900082F98093090160910801709109018091A8
:100AA0000A0190910B010E9488048091090182FF44
:100AB00005C08695869586950C94F5040E948E0453
:100AC0000E94960480913508843009F05C9A08955C
:100AD000CF92DF92EF92FF920F931F93CF93DF930A
:100AE000C82ED0900801D0910901D370E0900A017E
:100AF00040910B01042F80FF02C0CFEF01C0C1E085
:100B00000E94CF1F81FDC1954C2D50E04930510509
:100B100008F052C0FA01E35AFF4F0C94AF22DF9164
:100B2000CF911F910F91FF90EF90DF90CF900C9499
:100B30004005809109018695869586958C0F0E94C7
:100B4000F5043AC08091080120910901922F937019
:100B50009D5F24E1C202800D911D112460E073E0CD
:100B60000E949B22D82ED92F2AC080910A0191E1A0
:100B7000C90270011124E80EF11C2FEFE216F104F6
:100B800009F01CF4F7FC29C01AC0EE24EA94F12CF9
:100B900016C080910B0191E1C902A00111248A01C4
:100BA000080F111D0F3F110509F01CF417FD18C0A7
:100BB00006C00FEF10E003C022E02C15A0F4402F78
:100BC0006E2D8D2D9D2FDF91CF911F910F91FF9055
:100BD000EF90DF90CF900C94C404E12CF12CEFCF78
:100BE00000E010E0ECCFDF91CF911F910F91FF90CB
:100BF000EF90DF90CF900895EDEEF7E08183608372
:100C00004283339698E0E131F907C1F70C949604DA
:100C1000FC01909110078081803449F581818B3BE4
:100C200021F4CF0103960C94A70A933019F4828122
:100C30000C94F504943021F4438162810C94FC05FA
:100C40009530A9F48C3068F4A82FB0E084819381AA
:100C5000228111962C9311979C9312968C930C944D
:100C600096048F3F21F4828193810C94131A089586
:100C7000CF93C82FE0919305F0E0E25AFE4F4491E4
:100C80009091090160910A018091080193700E947E
:100C9000AA0430910701209193053C9F200D112457
:100CA000209393052C1738F08C2F90E0820F911D24
:100CB0008F3791051CF0319530930701CF9108953E
:100CC000CF93C82FE8E0F1E04381628180919105E4
:100CD000909192050E94AA048091910590919205AD
:100CE00023E0C29F800D911D112460E073E00E94FB
:100CF00087229093920580939105CF910895AF92AA
:100D0000BF92CF92DF92EF92FF920F931F93CF93F8
:100D1000DF93082F182F16956DEEC62E67E0D62E9E
:100D2000E12CF12CA12C73E0B72E80918F059091CE
:100D300090058E0D9F1DC0E0D3E0B5010E94872273
:100D4000960140910B0160910A010E942F0480E3FB
:100D5000E80EF11C83E0C80ED11C80E4E81682E0A6
:100D6000F80619F70E94960480918F0590919005DE
:100D7000212F30E000FF08C054E0220F331F5A95A6
:100D8000E1F7820F931F08C09D5F44E0220F331FDD
:100D90004A95E1F7821B930BBE010E948722909334
:100DA000900580938F05DF91CF911F910F91FF9058
:100DB000EF90DF90CF90BF90AF900895CF92DF92E9
:100DC000EF92FF920F931F93CF93DF9390918E0535
:100DD0009F5F282F2695291758F090938E05DF9155
:100DE000CF911F910F91FF90EF90DF90CF900895DA
:100DF000C82F10928E050E948E04C0FF02C01FEF04
:100E000001C011E054E0D52E00E06CE0E62EF12C9C
:100E1000C0E0D3E0C09006011003C00111248C0D86
:100E2000911DC7FC9A950C96B7010E949B229C01CC
:100E3000220F331F820F931F9C012351384F809143
:100E4000080140910901942F937042E3049F800DA3
:100E5000911D1124BE010E949B2240910B016091C3
:100E60000A010E942F040F5FDA94D110D3CF1C0D1A
:100E70001D301CF01092060108C017FD03C010932E
:100E8000060103C08CE080930601DF91CF911F9192
:100E90000F91FF90EF90DF90CF900C94960490917B
:100EA0008D059F5F891718F090938D050895109216
:100EB0008D050E948E0420E030E090E04CE08091AF
:100EC0000501B901680F711D87FD7A956C307105B8
:100ED000C0F4820F642F0E947B22892F90E0FC01D6
:100EE000EE0FFF1F8E0F9F1FFC01E351F84F809103
:100EF000110890911208A091130880839183A28316
:100F000091E02F5F3F4F24303105C9F691110E94C7
:100F100096049091040180910501890F8093050149
:100F20008D5F8F30C0F091959093040180918B0577
:100F300090918C05889660E073E00E9487229093E0
:100F40008C0580938B0521E138E040910B01609185
:100F50000A010C942F04089580918005882331F0B4
:100F60005C9A809109018B7F80930901909109011E
:100F700092FF26C05C9924C0892F86958695869518
:100F8000E82FF0E0E731F105D8F4EA59FF4F0C946F
:100F9000AF2240910B0160910A018091080193708A
:100FA0000C94AA040C94380684500C946006865065
:100FB0000C947F068D500C94DE0683510C944F07E1
:100FC00008952A985C9A08950E9421050E94BC0306
:100FD00080911601843018F081E080931A01089501
:100FE0005C991CC08091890590918A050E946820B7
:100FF0008997A0F00E945C2090938A0580938905D0
:101000008091CC0681110AC080911A01882321F0B9
:1010100080911C01811102C00C94AC07089580914D
:101020008705909188050E9468208739910508F40A
:101030004EC00E945C209093880580938705809124
:1010400086058F5F809386059091CC069923A9F041
:101050008430E8F1913011F080E001C083E08093AA
:101060008605199B06C05C9A95B184E0892785B9ED
:1010700008951092CC060C94E40780911A018823FD
:1010800031F15C9880918605813031F42A980E9474
:101090008E040E9496040FC0833069F42A9A8091CE
:1010A000CF06882319F060E840E002C060E040E825
:1010B00080E00E94FC059091CF06809186059111F9
:1010C00002C0853010F48B3010F010928605089520
:1010D0002091940580919505821759F030E0F9012F
:1010E000EA56FA4F80812F5F3F4F2093940590E09E
:1010F00008958FEF9FEF08959091C80095FFFCCF62
:101100008093CE0008951F920F920FB60F92112474
:101110002F933F934F938F939F93EF93FF938091E0
:10112000950590E09C012F5F3F4F40919405421739
:1011300041F03091CE00FC01EA56FA4F3083209303
:101140009505FF91EF919F918F914F913F912F9135
:101150000F900FBE0F901F9018950E94341680912B
:101160001601823050F48FE19EE40197F1F700C040
:1011700000000E94B7110E94BE08FFCF9EE088E1E8
:101180000FB6F894A895809360000FBE909360000E
:101190000895809135088430E1F081E080939606CF
:1011A00029E488E190E00FB6F894A8958093600058
:1011B0000FBE209360000E94E10783B7817F8460A7
:1011C00083BF83B7816083BF7894889583B78E7F10
:1011D00083BF08950C94E4071F920F920FB60F92ED
:1011E00011248F939F93AF93BF9380919606813084
:1011F00099F48091940790919507A0919607B091EA
:1012000097078096A11DB11D809394079093950731
:10121000A0939607B0939707BF91AF919F918F913D
:101220000F900FBE0F901F9018958091B1060895F2
:1012300008950F931F93CF930E945C208C01C0E010
:10124000C8010E9468204E9708F50E9468088F3FE9
:101250002FEF9207C9F0AC0155274D305105A1F091
:101260002C2F30E04A30510551F4C23030F0F901F2
:10127000EA56F94F80818F3449F08FE590E0F9010B
:10128000E856F94F8083CF5FC731D0F2EC2FF0E002
:10129000E856F94F108288E996E0CF911F910F919F
:1012A0000895CF93CAE10E946808019611F0C150D9
:1012B000D1F7CF9108950F931F93CF93DF935D994B
:1012C0000AC08C010E945109E8018991882319F014
:1012D0000E947C08FACFDF91CF911F910F91089562
:1012E0009C012F5631092230310528F02A57310947
:1012F0002230310560F42091B406211103C02FEF94
:101300002093B4069093B3068093B20602C0109265
:10131000B4062091B506211116C09F938F9389E5DD
:1013200091E09F938F9384E198E09F938F930E9425
:101330001E230F900F900F900F900F900F9084E14D
:1013400098E00C945B090895CF93DF93EC018091B2
:10135000B506811132C08C81282F082E000C330B6A
:101360003F938F938B81282F082E000C330B3F93D4
:101370008F938A81282F082E000C330B3F938F9375
:101380008981282F082E000C330B3F938F9381E720
:1013900091E09F938F9384E198E09F938F930E94B5
:1013A0001E2384E198E00E945B098DB79EB70C96DE
:1013B0000FB6F8949EBF0FBE8DBF8091B506811108
:1013C0001FC088819091B0068917D1F08093B00634
:1013D0001F928F9381E991E09F938F9382E298E02F
:1013E0009F938F930E941E230F900F900F900F904A
:1013F0000F900F9084E198E0DF91CF910C945B09FE
:10140000DF91CF9108950E945B090C941909CF9345
:10141000DF93EC0186E90E944720CE01DF91CF9156
:101420000C94030A8091B606882321F01092B60628
:101430000C9409200895CF93DF932091B6062111D3
:1014400052C02091B50621114EC0EC018CE991E00B
:101450000E945B09209731F480EB91E0DF91CF91FE
:101460000C945B098F811F928F938E811F928F93B3
:101470008D811F928F938C811F928F938B811F92EE
:101480008F938A811F928F9388811F928F9387EB0E
:1014900091E09F938F9384E198E09F938F930E94B4
:1014A0001E2384E198E00E945B0980E58A95F1F7AC
:1014B0008DB79EB742960FB6F8949EBF0FBE8DBFF4
:1014C0008881811110C08A81833531F0893331F0F0
:1014D000873449F482E103C080E101C081E1DF91FA
:1014E000CF910C94C103DF91CF91089580E090E0FB
:1014F0000C941B0A8091B4068823D9F0823020F026
:1015000081508093B4060895209197062F5F209311
:1015100097068091B2069091B30630E04FE451E017
:10152000481B590B2417350720F0109297060C948E
:10153000700908958EED91E00C94070A803319F438
:101540008FEE91E002C08EEF91E00C94070ACF93EA
:10155000DF93EC018DE092E00E945B09CE010E94D6
:101560005B0985EB91E0DF91CF910C94070A8CE148
:1015700092E00C94A70A8AE292E00E94030AFC011E
:101580008081089589E392E00C94070A559A5D984A
:101590000E945320F89487E68093CC001092CD00EF
:1015A0008091C90080698093C9008091C9008860DA
:1015B0008093C9008091CA008093CA008091C800BE
:1015C00082608093C800789489E492E00E94070AC0
:1015D00089E492E00E94030AFC018081813421F4B5
:1015E0008181843591F505C08F3479F581818B3403
:1015F00061F50E949A0A89E492E00E94070A8DE44C
:1016000092E00E94070A0E94B70A8EEF91E00E94C2
:10161000070A84E592E00E94070A0E94C20A84E653
:1016200092E00E94070A81E892E00E94070A8DEB8F
:1016300092E00E94070A81ED92E00E94070A109250
:101640003F0810923E080E94AD08F8948CE0809309
:10165000CC00789489E492E00C94070ACF935C99CB
:1016600003C0882309F4A0C0C82F84EE92E00E9432
:10167000030AFC01628180ED860F8A3008F05EC0AB
:10168000408150E04053510984E6849FD001859FFA
:10169000B00D1124818190E0C0974AE0489F9001ED
:1016A000499F300D11242A0F3B1F260F311D43E0A7
:1016B000220F331F4A95E1F72A5432402C3C40E177
:1016C000340788F4809118019091190183374EE016
:1016D000940709F4C901280F391F369527953093CF
:1016E00019012093180119990DC081E08093CB0650
:1016F0008091180190911901889790931901809316
:10170000180102C01092CB062091180130911901E6
:1017100084E0369527958A95E1F720542093CE06EC
:10172000223A18F01092CC0609C0253910F481E055
:1017300003C02D3918F485E08093CC06C130A1F5A3
:101740009091CE06E2E6F3E08AE52191921718F433
:101750008A50D9F78CE22091CC062111822F20915A
:10176000CB06820F211103C0923C08F084E68093DF
:1017700017011F928F9380EF92E09F938F9384E1E4
:1017800098E09F938F930E941E2384E198E00E942B
:10179000030A0F900F900F900F900F900F9084E11D
:1017A00098E0CF910C94030ACF9108952198299A3B
:1017B00081E00C942E0BCF939091350881E094300A
:1017C00009F080E080931B018091270187FF1CC0F6
:1017D0000E946B148C50914059F08CE091E00E9473
:1017E0006614809181058D7F809381050E94F603A8
:1017F0008091D006811129C080911B01882329F195
:10180000809127018F7707C0943061F090911C017F
:10181000992321F080688093270117C08CE0809382
:10182000160113C00E946B148D51914071F08DE12F
:1018300091E00E9466148091810582608093810509
:101840000E94F60381E08093D00680911C018823DA
:1018500009F420C15D9915C10E94510980911601BA
:10186000823031F481E00E942E0B83E080931601D8
:10187000C091CA06CC2309F446C00E94BB0A81333A
:1018800009F041C082E093E00E94030AFC0101904C
:101890000020E9F79F01255131092817390799F5EB
:1018A000C13081F422E02093CA06C0931A0110923D
:1018B000CF0621E1FC01A7EBB6E001900D922A953D
:1018C000E1F721C041E150E067EB76E00E9411238F
:1018D000892B59F08091CA068F5F853090F0109265
:1018E000CA0681E08093CF060EC085E193E00E9496
:1018F000030A80911A018F3018F01092CA0603C0B3
:1019000082E08093CA068091D606811199C08091A9
:10191000D3069091D4060E946820893E934008F433
:101920008FC00E945C209093D4068093D306809150
:10193000CF06811105C08091CA0681112FC008C051
:101940008091C9068F5F8093C9068370A1F33DC063
:101950000E94BB0A813321F481E08093CF061CC032
:101960008033E1F41092CF068091D5068F5F80938B
:10197000D50690911B01911111C0909116019923E8
:1019800069F08A3558F05D9A8091C900877F80930D
:10199000C90084E0809316011092D50680911A0147
:1019A000882399F0843629F410921A010E94BC030E
:1019B0000CC08F5F80931A01843120F48091CF0690
:1019C000882319F084E680931A018091C8068F5FFE
:1019D0008093C806877021F48091CB060E942E0B5D
:1019E00080911B0181112CC080911A01811128C0A6
:1019F0008091D1069091D20601969093D206809361
:101A0000D10620911601213039F40F9728F00E9459
:101A1000760A82E08093160180911601833081F46A
:101A20008091D1069091D2068832934248F084E0AA
:101A3000809316015D9A8091C900877F8093C900C9
:101A40008091CD068823D9F08C3099F0823119F439
:101A500082E493E010C0853181F40E94C20A80E3E1
:101A60000E949E0A81E30E949E0A8DE593E00E94F7
:101A7000030A87E293E00E94030A1092CD060E94B7
:101A80007A0A80911601823028F40E94120ACF91BE
:101A90000C940F08CF910895CF93DF93C82F0E9425
:101AA000CF1FD82F0E943416C53191F198F4CC3055
:101AB00061F118F4C530F1F18FC0C23131F1C33199
:101AC00009F08AC09091160181E089278093160160
:101AD00060E069C0C93109F44CC028F4C63101F195
:101AE000C83141F079C0CC3B09F460C0C03C09F476
:101AF00061C072C080911C01882309F46FC090916D
:101B000027019058909327016AC0C093CD0666C004
:101B1000D0FF62C0C093CD0681E080931A015FC000
:101B200080911A01811102C081E001C084E6809396
:101B30001A0154C08D2F837251F0DD7DD13031F404
:101B40008BE29CEF9093010880930008FFCFDC307C
:101B500039F48AEA9BEB90933F0880933E08FFCFCD
:101B600082E39FE00E94131A82E39FE10E94131A0E
:101B700035C08091170160E090E00E941F1AD0FFED
:101B80000BC08DE290E00E94131A60E08091180172
:101B9000909119010E941F1A8DE290E00E94131A81
:101BA00060E08091CF060E94721618C081E0809399
:101BB000CA0615C080911B01811110C05D9A8091E9
:101BC000C900877F8093C9008AE080931601109234
:101BD000CF060E945E1E02C080E001C081E0DF915E
:101BE000CF910895CF93DF93CDB7DEB729970FB686
:101BF000F894DEBF0FBECDBF96E0E0E3F1E0DE017A
:101C0000119601900D929A95E1F72091360130914D
:101C10003701409138012F8338874987282F30E0DA
:101C20008B3018F0ECEFFFEF02C0E1E0F0E0EC0FDA
:101C3000FD1FE20FF31F808129960FB6F894DEBFD7
:101C40000FBECDBFDF91CF910C944C0DCF9390E0A0
:101C500080E80FB6F89480936100909361000FBE06
:101C60000E9402020E9412127894CFEF80913508F0
:101C7000843049F080911C01811103C088E00E94EA
:101C80004720C15099F780911C01882321F00E94C0
:101C9000C60A0E94D60B0E94BE140E94BE08C1E074
:101CA00080911601843038F4A895823010F40E9497
:101CB000C4140E94DB0B80911601823040F48091A5
:101CC0001C018111EDCF80913508843049F30E94C9
:101CD000C9080E94BE080E94F302882309F31092EB
:101CE000D2061092D1060E94E407C093160180919B
:101CF0001C01882341F0C093B6065D988091C9000D
:101D000088608093C9008091D006882349F2809131
:101D10003508853029F60E949310C2CF8091E806DD
:101D200008958FEF9091E800815095FD06C09AE6E6
:101D30009A95F1F700C08111F5CF8091E80085FBFD
:101D4000882780F991E089270895CF93DF9300D009
:101D50001F92CDB7DEB7209135082430B9F423E0C7
:101D600029839B838A832093E9000E94910E81112D
:101D70000DC040E050E063E070E0CE0101960E94AB
:101D8000A8108091E8008E778093E8000F900F9064
:101D90000F90DF91CF910895CF93DF9300D01F92E2
:101DA000CDB7DEB7209135082430C1F422E0298375
:101DB0009B838A8383E08093E9000E94910E8111C6
:101DC0000DC040E050E063E070E0CE0101960E945B
:101DD000A8108091E8008E778093E8000F900F9014
:101DE0000F90DF91CF910895CF93DF932091350825
:101DF0002430A1F4EC0182E08093E9000E94910E6E
:101E000081110CC040E050E065E070E0CE010E941E
:101E1000A8108091E8008E778093E800DF91CF9141
:101E20000895CF93DF93EC01909135089430B9F584
:101E30008091270181718131B9F49093E9008FEF8E
:101E40009091E800815095FD06C095E19A95F1F7D3
:101E500000008111F5CF8091E80085FF20C040E0AF
:101E600050E060E170E00BC081E08093E9000E94E7
:101E7000910E811114C040E050E068E070E0CE01A6
:101E80000E94A8108091E8008E778093E80080E19E
:101E9000FE01A8EDB6E001900D928A95E1F7DF9181
:101EA000CF91089580913408811109C00E94B71123
:101EB0000E9412128091E20084608093E2000895F3
:101EC000109234080895089542E061EC81E00E9488
:101ED000511142E061EC82E00E94511142E061EC5C
:101EE00083E00E94511142E161EC84E00C945111B5
:101EF00080913708833009F455C030F4813071F097
:101F0000823009F48EC008958A3009F47AC08B308B
:101F100009F460C0893009F09CC020C08091360867
:101F2000813A09F096C08091E800877F8093E800AD
:101F300080913A0890913B08892B21F460E188ED6B
:101F400096E003C060E080E090E070E00E94F31053
:101F50008091E8008B778093E8000895809136089F
:101F6000813209F076C080913A0890913B08009741
:101F700019F0039709F06DC08091E800877F809386
:101F8000E8008091E80082FD05C08091350881114C
:101F9000F8CF5FC08091F1008093E8068091E8005F
:101FA0008B7753C080913608813A09F052C08091F6
:101FB0003A0890913B08892B09F04BC08091E800CA
:101FC000877F8093E8008091E80080FFFCCF8091BC
:101FD000270136C0809136088132D9F580913A08C0
:101FE00090913B08892BA9F58091E800877F809329
:101FF000E8000E94651180913808809327010C94B5
:10200000341680913608813221F58091E800877F6F
:102010008093E8000E946511809139088093E90659
:10202000089580913608813AA1F48091E800877F75
:102030008093E8008091E80080FFFCCF8091E90662
:102040008093F1008091E8008E778093E8000C94F3
:10205000651108958091E8068093D7061092E806EE
:1020600080E00E94FB030E948B150C9434160C94A4
:102070002A100E94EA088091D7068093E806089506
:102080000C943910292F332723303105C1F058F42F
:102090002130310579F022303105E9F58DE690E007
:1020A00024EC33E03CC021323105C1F0223231054D
:1020B00011F131C082E190E021E334E030C0992792
:1020C0008330910540F5FC01EE0FFF1FEE57FC4FEA
:1020D00020813181FC01E158FC4F1AC06430D8F4F2
:1020E000E62FF0E0EE0FFF1FE958FC4F2081318111
:1020F00089E090E014C0643070F470E0FB01EE0FF2
:10210000FF1FE159FC4F20813181FB01E559FC4F54
:10211000808190E004C080E090E020E030E0FA01AF
:1021200031832083089519BC82E089BD09B400FE83
:10213000FDCF8091D8008F7D8093D8008091E00002
:1021400082608093E0008091E00081FDFCCF0895E3
:10215000CF92DF92EF92FF920F931F93CF93DF9373
:10216000EC018B017A010E948411811133C0E114CA
:10217000F10439F0F70180819181081B190BC80F18
:10218000D91FC12CD12C0115110519F18091E8003E
:1021900085FD16C08091E8008E778093E800E114F9
:1021A000F10449F0F70180819181C80ED91ED182D6
:1021B000C08285E00FC00E948411882321F30AC0E9
:1021C00089918093F10001501109FFEFCF1ADF0AC6
:1021D000DACF80E0DF91CF911F910F91FF90EF90C8
:1021E000DF90CF90089520913C0830913D0826174C
:1021F000370748F06115710539F42091E8002E7712
:102200002093E80001C0B901FC0120E061157105CF
:1022100079F1809135088823F1F18530F1F18091D1
:10222000E80083FD3CC08091E80082FD2EC08091D3
:10223000E80080FFEBCF2091F3008091F20090E066
:10224000922B6115710551F08830910538F4219178
:102250002093F100615071090196F3CF21E00897B6
:1022600009F020E08091E8008E778093E800CECFDF
:102270002111CFCF0AC080913508882361F08530C5
:1022800061F08091E80083FD0AC08091E80082FF40
:10229000F2CF80E0089582E0089583E0089581E020
:1022A00008958F708093E900EBEEF0E0808181600B
:1022B0008083EDEEF0E010826093EC00408380912B
:1022C000EE00881F8827881F08958091360887FFB1
:1022D00011C08091E80082FD05C080913508811110
:1022E000F8CF11C08091E8008B770BC08091350842
:1022F000882349F08091E80080FFF8CF8091E800C2
:102300008E778093E80008952091E4003091E500F5
:1023100095E64091EC00842F817040FF23C08091AE
:10232000E80080FD1DC080913508882399F0853034
:1023300099F08091EB0085FD11C04091E40050912F
:10234000E5002417350729F3915011F09A01E1CFE8
:1023500084E0089582E0089583E0089581E008957F
:1023600080E008954091E80042FFDDCF08950E948B
:1023700023120E942B12E0EEF0E0808181608083C6
:10238000E8EDF0E080818F77808319BCA7EDB0E0A5
:102390008C918E7F8C9380818F7E80831092340805
:1023A00008950F931F93CF93DF930E9423120E94EF
:1023B0002B12C8EDD0E088818F7788838881806870
:1023C000888388818F7D888319BC1092350810928C
:1023D00032081092330800EE10E0F80180818B7F04
:1023E000808388818160888342E060E080E00E9491
:1023F0005111E1EEF0E080818E7F8083E2EEF0E02B
:10240000808181608083808188608083F801808101
:102410008E7F8083888180618883DF91CF911F9137
:102420000F910895E8EDF0E080818F7E8083E7EDE5
:10243000F0E080818160808384E082BF81E08093CE
:1024400034080C94D111E8EDF0E080818E7F808318
:102450001092E20008951092DA001092E1000895BF
:102460001F920F920FB60F9211242F933F934F9309
:102470005F936F937F938F939F93AF93BF93EF93EC
:10248000FF938091E10082FF0BC08091E20082FF08
:1024900007C08091E1008B7F8093E1000E9465146A
:1024A0008091DA0080FF1DC08091D80080FF19C0A4
:1024B0008091DA008E7F8093DA008091D90019BC78
:1024C00080FF0BC082E089BD09B400FEFDCF81E032
:1024D000809335080E94520F04C0109235080E9464
:1024E000600F8091E10080FF19C08091E20080FFC1
:1024F00015C08091E2008E7F8093E2008091E2001F
:1025000080618093E2008091D80080628093D8003F
:1025100019BC85E0809335080E9437108091E10056
:1025200084FF35C08091E20084FF31C080911B019F
:10253000823010F40E94AD0819BC82E089BD09B454
:1025400000FEFDCF8091D8008F7D8093D8008091D0
:10255000E1008F7E8093E1008091E2008F7E809386
:10256000E2008091E20081608093E2008091320875
:10257000882311F084E007C08091E30087FD02C04A
:1025800081E001C083E0809335080E944010809173
:10259000E10083FF29C08091E20083FF25C0809184
:1025A000E100877F8093E10082E0809335081092FC
:1025B00032088091E1008E7F8093E1008091E200FB
:1025C0008E7F8093E2008091E20080618093E20040
:1025D00042E060E080E00E9451118091F00088604C
:1025E0008093F0000E94630FFF91EF91BF91AF9134
:1025F0009F918F917F916F915F914F913F912F911B
:102600000F900FBE0F901F9018951F920F920FB64C
:102610000F9211242F933F934F935F936F937F9368
:102620008F939F93AF93BF93CF93DF93EF93FF93DA
:10263000C091E900CF708091EC00D82FD17080FD5F
:10264000D0E81092E9008091F000877F8093F0003D
:1026500078940E9449131092E9008091F0008860FC
:102660008093F000CD2BCF70C093E900FF91EF91E4
:10267000DF91CF91BF91AF919F918F917F916F919A
:102680005F914F913F912F910F900FBE0F901F9030
:1026900018951F93CF93DF9300D0CDB7DEB7E6E355
:1026A000F8E08EE398E02091F10021938E179F07C8
:1026B000D1F70E94780F8091E80083FFF2C08091EB
:1026C000360890913708492F50E04A30510508F0FC
:1026D000E8C0FA01E358FF4F0C94AF22803881F034
:1026E000823809F0DEC080913A088F708093E9004B
:1026F0008091EB0085FB882780F91092E90007C0E4
:1027000080913308882311F082E001C080E090912D
:10271000E800977F9093E8008093F1001092F10019
:1027200095C0282F2D7F09F0BCC0882319F0823076
:1027300061F0B7C080913808813009F0B2C09330A1
:1027400009F080E0809333082BC080913808811114
:1027500027C080913A088F7009F4A3C08093E900E4
:102760002091EB0020FF1CC0933021F48091EB00FE
:10277000806214C09091EB0090619093EB0021E097
:1027800030E0A90102C0440F551F8A95E2F740933B
:10279000EA001092EA008091EB0088608093EB00E1
:1027A0001092E9008091E800877F53C0811179C0C1
:1027B000109138081F778091E3008078812B8093F7
:1027C000E3008091E800877F8093E8000E94651114
:1027D0008091E80080FFFCCF8091E30080688093C7
:1027E000E300111102C082E001C083E0809335084C
:1027F00058C08058823008F054C0AE014F5F5F4F20
:1028000060913A0880913808909139080E944210EE
:10281000BC01892B09F445C09091E800977F909303
:10282000E80089819A810E94F3108091E8008B77FB
:102830008093E80036C08038A1F58091E800877F5A
:102840008093E800809132088093F1008091E80045
:102850008E778093E8000E94651123C0811121C00A
:10286000809138089091390899270297D4F4809183
:10287000E800877F8093E8008091380880933208D1
:102880000E94651180913208811106C08091E30099
:1028900087FD02C081E001C084E0809335080E947A
:1028A000640F8091E80083FF0AC08091E800877F71
:1028B0008093E8008091EB0080628093EB000F90A2
:1028C0000F90DF91CF911F91089508959093EF0697
:1028D0008093EE0608958091EE069091EF0608959C
:1028E000E091EE06F091EF06309721F00190F08133
:1028F000E02D099480E00895E091EE06F091EF0656
:10290000309721F00280F381E02D09940895E09141
:10291000EE06F091EF06309721F00480F581E02D6E
:10292000099408952091EC063091ED062817390797
:1029300071F09093ED068093EC06E091EE06F09135
:10294000EF06309721F00680F781E02D0994089575
:102950002091EA063091EB062817390771F0909321
:10296000EB068093EA06E091EE06F091EF063097D1
:1029700021F00084F185E02D099408950E945320F0
:102980000E9429020C9432038F929F92AF92BF92C1
:10299000CF92DF92EF92FF920F931F93CF93DF932B
:1029A00000D000D01F92CDB7DEB70E94400208E0F1
:1029B00017E0F12C8F2D0E94E9024C01F801A08054
:1029C000B180A826B926A114B10439F4F3940E5F9E
:1029D0001F4FF4E0FF12EECF33C08091930781FDCB
:1029E0000E94F202E12CCC24C394D12CC5018C218D
:1029F0009D21892BF1F0E982FA8221E0C4018C212A
:102A00009D21892B09F420E02B830E945C208160AA
:102A10009D838C83CE0101960E948C15CE01019678
:102A20000E944320F801808191818C259D2591830E
:102A30008083E394CC0CDD1CFCE0EF12D7CFC6CF33
:102A400080E090E00E948C150E94F0070E947521A2
:102A500080911007882389F08091060790910707DD
:102A60000E9468208C34910540F01092050781EF98
:102A700096E00E940806109210070E947014909130
:102A8000F0068917A1F10E9470148093F00684FF6C
:102A90002CC0E0911007F0E0EF50F94F9081990FB2
:102AA000990F8370892B80830E945C209093070785
:102AB00080930607809105078F5F80930507843018
:102AC000B0F08091F106803441F48091100782309B
:102AD00020F487E490E00E94131A10920507809179
:102AE00010078F5F8093100702C00E9444200F9050
:102AF0000F900F900F900F90DF91CF911F910F913A
:102B0000FF90EF90DF90CF90BF90AF909F908F900D
:102B100008950C94FB030895CF93DF9300D000D069
:102B200000D0CDB7DEB7FC01892B39F40E945C20C0
:102B3000816060E05FEF4FEF05C0408151816281AD
:102B400083819481FE01319626E0DF011D922A9552
:102B5000E9F7782F9D838C838D819E810E94DD1CF7
:102B600026960FB6F894DEBF0FBECDBFDF91CF9192
:102B70000895CF93882349F1803B29F48EED91E0AD
:102B8000CF910C948B1DC82F8CEF8C0F813A20F0C5
:102B900080E58C0F8E3250F48C2F0E943D228111E3
:102BA00014C061E08C2F0E94841F0CC080E28C0F47
:102BB000883058F4C77081E001C0880FCA95EAF7E1
:102BC0000E94D21FCF910C940920CF9108958823A1
:102BD00051F19CEF980F913A20F090E5980F9E32BA
:102BE00020F460E00E94841F0DC090E2980F98309E
:102BF00058F4877091E001C0990F8A95EAF7892F00
:102C00000E94D81F0C9409209BE5980F933020F464
:102C100080E090E00C949214885A873120F480E090
:102C200090E00C94A8140895882321F00E94D21FEC
:102C30000C9409200895882321F00E94D81F0C9439
:102C4000092008950E94EF1F0E94C51F0E940920BD
:102C50000E9431220E946A2180E090E00E9492143A
:102C600080E090E00C94A8140E94DF1F0C942216C0
:102C7000CF93DF9300D000D01F92CDB7DEB70E9474
:102C8000161F292F22952F702C3030F42A30A0F4F3
:102C90002250223030F01DC02C30A9F02F3099F096
:102CA00018C0853A28F4843090F4823028F40FC09C
:102CB00090E2980F983058F0843058F0853A38F008
:102CC000803F39F404C093FB882780F903C081E07A
:102CD00001C080E00F900F900F900F900F90DF9148
:102CE000CF910895811101C08AE0662311F0885ABE
:102CF00001C0835E90E00C94131ACF92DF92EF92A2
:102D0000FF920F931F93CF93DF9300D000D01F92B9
:102D1000CDB7DEB76C0185E0F601DE0111960190BA
:102D20000D928A95E1F7F6012381348189819A8198
:102D30002115310531F09F3F31F491E08F3F19F4B7
:102D400003C091E001C090E090FD44C3F601F28021
:102D5000E580E2948FE0E8222230310559F0722FAD
:102D60003D832C8349815A816F2D8D810E94161FCE
:102D70008C0102C009811A810E94151F0E940F1E3A
:102D8000E12FE295EF708E2F90E0FC01E957FF4FA5
:102D90000C94AF22812F807F1F70882311F0129531
:102DA000107FFF2021F10E94CF1F81239091900777
:102DB000892B80939007112351F0002319F081E0B3
:102DC00080938E07812F0E94E21F0E940920802F8E
:102DD0000F900F900F900F900F90DF91CF911F9158
:102DE0000F91FF90EF90DF90CF900C94B9159091D8
:102DF0009007812F809589238093900710928E07EA
:102E0000802F0E94E715112309F4E4C2812F0E944C
:102E1000E81F0F900F900F900F900F90DF91CF91C0
:102E20001F910F91FF90EF90DF90CF900C940920AD
:102E3000812F807F1F70803211F01295107F002348
:102E400019F0013009F12BC0FF20A9F0EE2061F14B
:102E5000F1E0812FEF1229C00F900F900F900F908B
:102E60000F90DF91CF911F910F91FF90EF90DF9026
:102E7000CF900C94F21FEE2021F021E0E21609F42D
:102E8000A9C20E94F51F54C0FF20F1F082E08E1508
:102E900008F4A0C20E94CF1F812331F049C0FF2057
:102EA00009F444C0E11015C0812F0F900F900F90CE
:102EB0000F900F90DF91CF911F910F91FF90EF90A6
:102EC000DF90CF900C941416E1E0EE1508F482C266
:102ED0002FC0F601858180FF13C08F708583E4CFFA
:102EE000003F09F4A5C108F080C1003E08F085C18B
:102EF000FF2009F413C2EE2009F402C213FDFCC145
:102F0000802F0E94B915093309F064C282E30F9043
:102F10000F900F900F900F90DF91CF911F910F9115
:102F2000FF90EF90DF90CF900C944720E110FEC10E
:102F3000812F6FC1812F86958695837019F081301E
:102F4000B9F048C2FF2019F0C801937002C080E0B8
:102F500090E00F900F900F900F900F90DF91CF9116
:102F60001F910F91FF90EF90DF90CF900C94A814D9
:102F7000FF20C1F0C80193708115F3E09F07A4F012
:102F800083EE91E00E948B1D60E0802F82958F7010
:102F90000E94721660E0802F8F700E94721681EE80
:102FA00091E0F6C180E090E00F900F900F900F90AD
:102FB0000F90DF91CF911F910F91FF90EF90DF90D5
:102FC000CF900C949214802FFF2081F00E94B520A6
:102FD0000E946A21063408F0FDC1E02FF0E0E256BD
:102FE000F84F81E0808380939D07F4C10E94032104
:102FF0000E946A21063408F0EDC1202F30E0F9016B
:10300000E256F84F1082002311F0C901ABC184EFE2
:1030100090E5A8C1812F837009F070C0F110DAC16A
:10302000202F229526952770220F220F602F6F7078
:10303000862F90E0A0E0B0E06C017D01022E04C07C
:10304000CC0CDD1CEE1CFF1C0A94D2F704FF12C04E
:103050008FE090E0A0E0B0E004C0880F991FAA1FA5
:10306000BB1F2A95D2F7BC01CD0160957095809564
:10307000909503C060E070E0CB0116951695137033
:103080001230B1F040F56C297D298E299F2911302D
:1030900031F10F900F900F900F900F90DF91CF9123
:1030A0001F910F91FF90EF90DF90CF900C942A1E0C
:1030B0006C297D298E299F290F900F900F900F90DA
:1030C0000F90DF91CF911F910F91FF90EF90DF90C4
:1030D000CF900C94441E0E942A1EC701B6010F9087
:1030E0000F900F900F900F90DF91CF911F910F9144
:1030F000FF90EF90DF90CF900C94101EFF2019F0FE
:10310000812F817001C08695882309F463C1202F27
:10311000229526952770220F220F602F6F70862F21
:1031200090E0A0E0B0E06C017D01022E04C0CC0C68
:10313000DD1CEE1CFF1C0A94D2F704FF12C08FE0C6
:1031400090E0A0E0B0E004C0880F991FAA1FBB1F49
:103150002A95D2F7BC01CD01609570958095909528
:1031600003C060E070E0CB01169516951370123025
:10317000B1F040F56C297D298E299F29113031F15C
:103180000F900F900F900F900F90DF91CF911F91A4
:103190000F91FF90EF90DF90CF900C94F11E6C296F
:1031A0007D298E299F290F900F900F900F900F90DF
:1031B000DF91CF911F910F91FF90EF90DF90CF9013
:1031C0000C94031F0E94F11EC701B6010F900F90CF
:1031D0000F900F900F90DF91CF911F910F91FF9063
:1031E000EF90DF90CF900C94DF1E023F09F44FC0A8
:1031F000D8F1033F09F45EC07BCE0F70812F8F7131
:10320000FF2021F00E94781E802F4FCE0E94991E31
:10321000802F0F900F900F900F900F90DF91CF9114
:103220001F910F91FF90EF90DF90CF900C941B16A1
:10323000FF20A9F021E02E1508F4CCC0812F8F715A
:103240000F900F900F900F900F90DF91CF911F91E3
:103250000F91FF90EF90DF90CF900C94BE1E82E014
:103260008E1508F4B7C0EACFFF2099F0812F8F7137
:103270000F900F900F900F900F90DF91CF911F91B3
:103280000F91FF90EF90DF90CF900C94781EFF206D
:1032900069F3812F8F710F900F900F900F900F9007
:1032A000DF91CF911F910F91FF90EF90DF90CF9022
:1032B0000C94991EFF2089F0812F8F710F900F9031
:1032C0000F900F900F90DF91CF911F910F91FF9072
:1032D000EF90DF90CF900C94631E0F900F900F90A3
:1032E0000F900F90DF91CF911F910F91FF90EF9072
:1032F000DF90CF900C945E1EF601858180FF00CE9A
:10330000012F0770802F0E94781E14FF63C069810F
:103310007A81802F0E949D2061E025C0EE20B1F0CF
:1033200013FF04C0F601858180FD10C0802F0F902F
:103330000F900F900F900F90DF91CF911F910F91F1
:10334000FF90EF90DF90CF900C94E715012F07705E
:10335000802F0E94991E14FF3DC069817A81802FC1
:103360000E949D2060E00F900F900F900F900F90A3
:10337000DF91CF911F910F91FF90EF90DF90CF9051
:103380000C94F819412F4F70602FC6010E94CD0197
:103390000F900F900F900F900F90DF91CF911F9192
:1033A0000F91FF90EF90DF90CF900C948B1D412FE9
:1033B0004F70602FC6010F900F900F900F900F90DD
:1033C000DF91CF911F910F91FF90EF90DF90CF9001
:1033D0000C941F010F900F900F900F900F90DF91A2
:1033E000CF911F910F91FF90EF90DF90CF900895B4
:1033F000CF93DF9300D000D000D0CDB7DEB7898364
:103400009A836B8382E090E09D838C83CE0101964A
:103410000E947D1626960FB6F894DEBF0FBECDBF74
:10342000DF91CF910895CF93DF93EC0161E00E948B
:10343000F81960E0CE01DF91CF910C94F819BF929A
:10344000CF92DF92EF92FF920F931F93CF93DF9370
:103450006C01B62EC5E0D0E000E117E28AE0E82E6C
:10346000F12CC601B8010E948722CB01009731F0F0
:10347000B7010E9487226B2D0E947216C801B70106
:103480000E9487228B01219761F7DF91CF911F91D5
:103490000F91FF90EF90DF90CF90BF900895CF9362
:1034A000DF9300D000D01F92CDB7DEB70F900F9002
:1034B0000F900F900F90DF91CF910895CF93DF93EE
:1034C00000D000D000D0CDB7DEB726960FB6F89466
:1034D000DEBF0FBECDBFDF91CF9108951F93CF9375
:1034E000DF93C091110716E080911207C81799F079
:1034F000D0E01C9FF0011D9FF00D1124ED5EF84FF0
:103500004081518162817381848195810E945E1A1C
:103510002196C770E9CFDF91CF911F910895409117
:103520004307509144076091450770914607809189
:103530004707909148070C945E1A0F931F93CF93FF
:10354000DF938091480782958F7009F05DC080916C
:103550004507882309F458C080911107109112077C
:103560006091430770914407C0914607D091470787
:1035700091E06F3F09F090E0292F06E0811709F4F0
:1035800043C0209721F07F3F21F030E003C031E0BD
:1035900001C0322F90E030FD34C0089FF001099F38
:1035A000F00D1124DF01AD5EB84F11963C911197DB
:1035B000371327C03C91361324C012963C911297C2
:1035C00031111FC013964D915C9114974C1B5D0BEC
:1035D000483C5105B0F4809148078F70806180931A
:1035E0004807E85EF84F80818F708061808383E4B4
:1035F00097E00E947D16DF91CF911F910F910C945F
:103600006E1A01968770BACFDF91CF911F910F91FB
:1036100008959F92AF92BF92CF92DF92EF92FF9266
:103620000F931F93CF93DF93CDB7DEB761970FB69C
:10363000F894DEBF0FBECDBF8C0185E0F801DE013E
:103640001D9601900D928A95E1F7F8014081518114
:10365000F280C380D4809091430760914407209109
:103660004607309147072115310531F06F3F31F49E
:1036700081E09F3F19F403C081E001C080E0F82F92
:10368000F1709F2E80FD52C183E4A82E87E0B82EF2
:10369000E0904507F601E21BF30BEE2009F4E8C0C9
:1036A00080914807E83CF10508F0A4C0282F207F4E
:1036B00009F053C0561313C0491311C0EF2CF11079
:1036C0000EC08F708061809348070E948F1AC501D9
:1036D0000E947D1680914807F80185835BC1C11463
:1036E000D10431F05F3F31F481E04F3F19F403C062
:1036F00081E001C080E080FD03C081E08F2502C031
:1037000080E090E0F82FF170EF2E80FF1CC08091D8
:1037100011072091120736E0821709F418C190E0D2
:10372000389FF001399FF00D1124ED5EF84F618153
:10373000561306C06081461303C06281F61203C0AF
:1037400001968770E9CFEF2CFF2009F423C1809107
:10375000480781608093480762C0561306C049132A
:1037600004C0F11002C0F801A7C04D875E87FF8634
:103770007C2DD98AC88A6F2D89890E9438168823A2
:1037800099F1FF2089F120914807822F82958F704F
:1037900090E0029774F080914307909144079887D6
:1037A0008F831986DB86CA862C87CE0107960E94F6
:1037B0007D1686E0F801A3E4B7E001900D928A95AA
:1037C000E1F70E949D1A0E948F1A11C0561749F105
:1037D0004D875E87FF867C2DD98AC88A6F2D89899F
:1037E0000E94381681112CC0C8010E947D16EE245B
:1037F000E394D0C0282F207F49F77C2DD98AC88A2E
:103800006F2D89890E944F1A83E497E00E947D16EC
:1038100086E0F50111928A95E9F70E948F1AE12C52
:10382000B9C04913D5CFF110D3CFF8018583C801B2
:103830000E947D1686E0F50111928A95E9F7AAC0EB
:10384000FF2091F220914807822F82958F7090E09F
:1038500002970CF4AECF80914307909144079A836E
:1038600089831B82DD82CC822E83CE0101969FCF7D
:10387000E83CF10508F04BC0EF2CFF2009F4B4CF71
:10388000561330C049132EC02091480720FD21C097
:10389000822F82958F70482F50E041155105C9F055
:1038A000F80125834F30510541F08F5F982F929595
:1038B000907F822F8F70892B8583C8010E947D168F
:1038C00086E0F801A3E4B7E001900D928A95E1F754
:1038D0002AC086E0F801A3E4B7E001900D928A9532
:1038E000E1F758C04D875E87FF867C2DD98AC88A4C
:1038F0006F2D89890E94381681115BCF809148070E
:10390000816080934807C8010E947D1643C07C2DCA
:10391000D98AC88A6F2D89890E944F1A86E0F501DD
:1039200011928A95E9F70E948F1A34C0FF2009F49A
:103930005BCF4D875E87FF867C2DD98AC88A6F2D25
:1039400089890E943816882309F44ECF32CF7C2D06
:10395000D98AC88A6F2D89890E94161F292F22951E
:103960002F70223028F49F7039F0811105C00BC0F0
:10397000243028F49F7049F4805E883020F0C8011C
:103980000E947D169E2CE92C05C0F8019581907F40
:1039900099F7F9CF8E2D61960FB6F894DEBF0FBE62
:1039A000CDBFDF91CF911F910F91FF90EF90DF90EE
:1039B000CF90BF90AF909F9008951F93CF93DF93C8
:1039C000CDB7DEB72C970FB6F894DEBF0FBECDBFD4
:1039D0004F83588769877A878B879C87CE010796A4
:1039E0000E94091B8823D1F09F8188852A853B8509
:1039F000232B31F08F3F31F481E09F3F19F403C056
:103A000081E001C080E080FD47C04F815885698515
:103A10007A858B859C850E945E1A3EC086E0FE01F9
:103A20003796DE01119601900D928A95E1F7FF819C
:103A3000E8856A857B856115710531F0EF3F31F4CA
:103A400081E0FF3F19F403C081E001C080E080FD08
:103A500023C02091120730E0C90101968770992791
:103A60004091110750E084179507F1F1F983EA833B
:103A70007D836C8396E0929FD001939FB00D1124BB
:103A8000AD5EB84FFE01319601900D929A95E1F727
:103A9000809312070E946E1A16E080911107909190
:103AA0001207891771F1189FC00111248D5E984F7C
:103AB0000E94091B882329F1E09111071E9FF00144
:103AC0001124ED5EF84F40815181628173818481C0
:103AD00095810E945E1A8091110790E0019687708F
:103AE000992780931107D9CF0E943416109212079C
:103AF00010921107E3E4F7E086E0DF011D928A955A
:103B0000E9F72C960FB6F894DEBF0FBECDBFDF915C
:103B1000CF911F910895CF92DF92EF92FF921F9362
:103B2000CF93DF937C010E94120AE114F10409F49F
:103B300064C0E7012196F7011491193709F43EC0DA
:103B4000B8F4143740F4143008F052C08FEF810FEE
:103B50008230F8F052C0143709F04FC0F2E0EF0E97
:103B6000F11CFE0184910E944720E7017E01E1CF14
:103B7000133828F4113868F4103801F13EC01338B6
:103B8000B9F0143F08F039C01F77812F90E09260A0
:103B900031C0FE0185919491612F6170E70113306E
:103BA00018F42296992701C023960E94F819DECFB7
:103BB000FE0185919491E70123961CC0FE01C590FA
:103BC000D490E701239684E00E941416103841F443
:103BD00061E081E00E947216F0EACF1AF6E8DF0A8F
:103BE00061E0C6010E941F1A84E00E941B16BECF2E
:103BF000812F90E00E94131AB9CFDF91CF911F91CE
:103C0000FF90EF90DF90CF900895609379077093C5
:103C10007A0780937B0790937C070C94EE030895BA
:103C20000F931F93009128011091290120912A01DF
:103C300030912B01602B712B822B932B60932801E9
:103C40007093290180932A0190932B011F910F916A
:103C50000C94F2030F931F930091280110912901F6
:103C600020912A0130912B01602371238223932319
:103C7000609328017093290180932A0190932B016E
:103C80001F910F910C94F2030F931F930091280141
:103C90001091290120912A0130912B016027712771
:103CA00082279327609328017093290180932A012A
:103CB00090932B011F910F910C94F20360E070E040
:103CC000CB010C94051E0F931F9341E050E060E080
:103CD00070E08A019B0104C0000F111F221F331FD7
:103CE0008A95D2F7C901B8011F910F910C94051E56
:103CF0000F931F9341E050E060E070E004C0440F78
:103D0000551F661F771F8A95D2F78091790790918A
:103D10007A07A0917B07B0917C078A019B01082B51
:103D2000192B2A2B3B2BC901B8011F910F910C9421
:103D3000051E0F931F9341E050E060E070E004C067
:103D4000440F551F661F771F8A95D2F740955095EF
:103D5000609570958091790790917A07A0917B0783
:103D6000B0917C078A019B01082319232A233B2356
:103D7000C901B8011F910F910C94051E0F931F9359
:103D800041E050E060E070E004C0440F551F661F42
:103D9000771F8A95D2F78091790790917A07A09141
:103DA0007B07B0917C078A019B01082719272A27E6
:103DB0003B27C901B8011F910F910C94051E0F9369
:103DC0001F930091790710917A0720917B0730911A
:103DD0007C07602B712B822B932B1F910F910C94DE
:103DE000051E0F931F930091790710917A07209178
:103DF0007B0730917C0760237123822393231F91DB
:103E00000F910C94051E0F931F9300917907109149
:103E10007A0720917B0730917C07602771278227E2
:103E200093271F910F910C94051E08958F929F92D6
:103E3000AF92BF92DF92EF92FF920F931F93CF93B7
:103E4000DF9300D000D01F92CDB7DEB78A01662382
:103E5000D1F18090790790907A07A0907B07B0907D
:103E60007C078091280190912901A0912A01B091AD
:103E70002B01882A992AAA2ABB2A8FE1E82EF12C45
:103E8000D501C4010E2C04C0B695A79597958795CA
:103E90000A94D2F780FD06C081E0E81AF10880F7A5
:103EA000D12C07C0DE2CB8018E2D0E949D200197D9
:103EB00099F38CE0189FF0011124E75BF84FE00FB5
:103EC000F11DD08209C08CE0189FF0011124E75B3E
:103ED000F84FE40FF11DD08009831A8369817A813C
:103EE0008D2D0E949D200F900F900F900F900F909E
:103EF000DF91CF911F910F91FF90EF90DF90BF90D6
:103F0000AF909F908F900895909127019179913172
:103F1000F1F4382F3695369536953F30A8F5E09177
:103F20002C01F0912D01282F277081E090E001C035
:103F3000880F2A95EAF7E30FF11D662319F09181A6
:103F4000892B03C0809591818923818308952091D5
:103F50002C0130912D01F90171964FEF9EE05291A5
:103F6000552331F0851305C061110EC0108201C0C8
:103F7000492F9150A0F7662339F0F901E40FF11DA4
:103F800047FDFA95828308950895E0912C01F09100
:103F90002D0180E1DF011D928A95E9F70895809156
:103FA0009207089590919207892B80939207089524
:103FB000809590919207892380939207089510929B
:103FC0009207089590919107892B80939107089506
:103FD000809590919107892380939107089510927D
:103FE0009107089580937D07089510927D070895A5
:103FF00080912C0190912D01FC0131969C01205F54
:104000003F4F80E0919191118F5FE217F307D1F755
:104010000895E0912C01F0912D0180919207808309
:10402000E0912C01F0912D01908180919107892BD5
:104030008083E0912C01F0912D0180919007809573
:10404000908189238083E0912C01F0912D01809152
:104050008F07809590818923808380917D078823B5
:1040600061F0E0912C01F0912D019081892B8083EA
:104070000E94F81F811110927D0780912C01909170
:104080002D010C947C1408950C94891508958823AF
:1040900041F0EFE9FFE03197F1F700C000008150F7
:1040A000F6CFA895089582E084BD93E095BD9DE785
:1040B00097BD80936E0008952FB7F8948091940770
:1040C00090919507A0919607B09197072FBF0895FB
:1040D0009C014FB7F8948091940790919507A09117
:1040E0009607B09197074FBF821B930B0895789462
:1040F0001F920F920FB60F9211248F939F93AF933D
:10410000BF938091940790919507A0919607B091E5
:1041100097070196A11DB11D809394079093950771
:10412000A0939607B0939707BF91AF919F918F91FE
:104130000F900FBE0F901F901895CF93C82FCB01F3
:104140000E941401803819F480E090E00CC0EC2F3C
:10415000F0E0FE2FEE27E050F04AE80FF11DE80FE7
:10416000F11D85919491CF910895803F08F44AC044
:10417000803F11F49FEF03C0813F21F491E09093C1
:10418000E9073BC0823F11F49FEF03C0833F21F456
:1041900091E09093E80731C0893F70F421E030E06E
:1041A0009CE0980F01C0220F9A95EAF79091E707DB
:1041B000292B2093E70721C0893F11F491E003C028
:1041C0008A3F21F49FEF9093EA0717C08B3F11F4C9
:1041D0009FEF03C08C3F21F491E09093EB070DC05B
:1041E00021E030E093E0980F01C0220F9A95EAF7A2
:1041F0009091E407292B2093E407895F843010F421
:104200001092E5070895803F08F463C0803F39F4B9
:104210008091E90787FF5DC01092E9070895813F0B
:1042200029F48091E9071816BCF30895823F39F408
:104230008091E80787FF4DC01092E8070895833FFB
:1042400029F48091E8071816BCF30895893F88F493
:10425000845F21E030E0A90102C0440F551F8A9518
:10426000E2F7CA0180959091E70789238093E707D9
:104270000895893F39F48091EA07181654F5109291
:10428000EA0708958A3F29F48091EA0787FF21C051
:10429000F6CF8B3F39F48091EB0787FF1AC010925D
:1042A000EB0708958C3F29F48091EB071816BCF3B7
:1042B00008958D5F21E030E0A90102C0440F551F31
:1042C0008A95E2F7CA0180959091E407892380934B
:1042D000E407089587EE97E00E9487140E945C200F
:1042E00090939A078093990708950F931F93CF9304
:1042F000DF9380919D078823D9F180919B0790914E
:104300009C070E94682020912F0130E02817390770
:1043100078F50E9401238F70825E80932F010EE951
:1043200017E0C0E0D0E090E0F80181918F01882390
:1043300069F0CC2319F08C2F9D2F02C084EF90E5FB
:1043400060912E0170E00E94F81991E02196C63428
:10435000D10551F720912E0181E0822780932E0113
:1043600090939D070E945C2090939C0780939B07ED
:104370008091990790919A070E946820AC019091D2
:10438000E607923019F028E230E002C025E030E084
:104390004217530708F460C0D091EA07C091EB07B9
:1043A0002091E8078091E907822B8D2B8C2B19F443
:1043B0001092E60751C0923020F49F5F9093E60779
:1043C0004BC08091E5078F5F8093E5078F7021F0E8
:1043D0001092EA071092EB070E946A21D093EA0735
:1043E000C093EB07809198078F5F809398078D307B
:1043F00098F18091270187FD02C080E001C085E02F
:10440000809398079091E407292F220F220F290FFC
:10441000E7EEF7E03CEE44E181818823C1F0992387
:1044200049F0181614F08FEF01C081E0829F802DB3
:1044300011240AC018162CF48F5F85312CF04183AB
:1044400006C081508C3E14F0818301C031833196C7
:1044500087E0EB3EF80701F7DF91CF911F910F91B5
:104460000895E7EEF7E085E0DF011D928A95E9F710
:104470001092E407089580E00895CF9390918E07FD
:10448000911135C0C82F8091EC07882319F0813035
:1044900051F02AC0E0912C01F0912D0180818252CF
:1044A000823030F508C0E0912C01F0912D0180811F
:1044B00082528230A0F48C2F0E944C0D81110AC0D0
:1044C000C13151F40E9446209091270180E1892753
:1044D0008093270191E001C090E0917009C08C2F7A
:1044E0000E943B2291E004C01092EC0701C090E0D2
:1044F000892FCF910895991B79E004C0991F9617D1
:1045000008F0961B881F7A95C9F780950895AA1B15
:10451000BB1B51E107C0AA1FBB1FA617B70710F0AE
:10452000A61BB70B881F991F5A95A9F780959095E0
:10453000BC01CD01089597FB072E16F4009407D017
:1045400077FD09D00E94872207FC05D03EF49095A4
:1045500081959F4F0895709561957F4F0895EE0F57
:10456000FF1F0590F491E02D09948F929F92AF92D6
:10457000BF92CF92DF92EF92FF92CF93DF93EC0145
:10458000688179818A819B81611571058105910519
:1045900021F464E279ED8BE597E02DE133EF41E022
:1045A00050E00E94052649015A019B01AC01A7EA8F
:1045B000B1E40E9424266B017C01ACEEB4EFA501AE
:1045C00094010E943226DC01CB018C0D9D1DAE1D95
:1045D000BF1DB7FF03C00197A109B0488883998325
:1045E000AA83BB839F77DF91CF91FF90EF90DF90FD
:1045F000CF90BF90AF909F908F9008950E94B5226A
:10460000089580E091E00E94B5220895A0E0B0E016
:104610008093000190930101A0930201B0930301E4
:104620000895FB01DC0104C08D910190801921F4F3
:1046300041505040C8F7881B990B0895AEE0B0E098
:10464000E4E2F3E20C9445260D891E8986E08C8312
:104650001A8309838FEF9FE79E838D83AE01475EA8
:104660005F4F6F89788DCE0101960E944023EF81C4
:10467000F885E00FF11F10822E96E4E00C9461267D
:10468000ABE0B0E0E6E4F3E20C9437266C017B018A
:104690008A01FC0117821682838181FFCCC1CE0181
:1046A00001963C01F6019381F70193FD859193FFFB
:1046B00081917F01882309F4BAC1853239F493FDD1
:1046C000859193FF81917F01853229F4B60190E0B5
:1046D0000E943725E7CF912C212C312CFFE1F315D7
:1046E000D8F08B3279F038F4803279F08332A1F44B
:1046F000232D20611DC08D3261F0803369F4232D9C
:10470000216016C0832D8260382EE32DE4603E2E9A
:104710002AC0F32DF8601DC037FC2DC020ED280FF6
:104720002A3040F08E32B9F436FC81C1232D20644A
:10473000322E19C036FE06C08AE0989E200D112444
:10474000922E11C0EAE02E9E200D1124222EF32D70
:10475000F0623F2E08C08C3621F4832D8068382EFD
:1047600002C0883641F4F70193FD859193FF819152
:104770007F018111B3CF982F9F7D9554933028F4FA
:104780000C5F1F4F9FE399830DC0833631F0833751
:1047900071F0833509F059C021C0F8018081898307
:1047A0000E5F1F4F88248394912C530113C028015E
:1047B000F2E04F0E511CF801A080B18036FE03C01C
:1047C000692D70E002C06FEF7FEFC5010E942C25BC
:1047D0004C018201F32DFF773F2E16C0280122E005
:1047E000420E511CF801A080B18036FE03C0692D35
:1047F00070E002C06FEF7FEFC5010E9421254C01E0
:10480000F32DF0683F2E820133FC1BC0822D90E017
:1048100088169906B0F4B60180E290E00E94372530
:104820002A94F4CFF50137FC859137FE81915F0121
:10483000B60190E00E94372521102A9421E0821AC7
:1048400091088114910471F7E8C0843611F089361B
:1048500041F5F80137FE07C0608171818281938143
:104860000C5F1F4F08C060817181072E000C880B00
:10487000990B0E5F1F4FF32DFF763F2E97FF09C058
:1048800090958095709561957F4F8F4F9F4FF06801
:104890003F2E2AE030E0A3010E947325882E86185F
:1048A00045C0853731F4232D2F7EB22E2AE030E02B
:1048B00025C0932D997FB92E8F36C1F018F4883515
:1048C00079F0B5C0803719F0883721F0B0C0E92FF2
:1048D000E061BE2EB4FE0DC0FB2DF460BF2E09C0FA
:1048E00034FE0AC0292F2660B22E06C028E030E030
:1048F00005C020E130E002C020E132E0F801B7FE5F
:1049000007C060817181828193810C5F1F4F06C057
:104910006081718180E090E00E5F1F4FA3010E94D3
:104920007325882E8618FB2DFF773F2E36FE0DC08F
:10493000232D2E7FA22E891458F434FE0BC032FC96
:1049400009C0832D8E7EA82E05C0B82CA32C03C0D1
:10495000B82C01C0B92CA4FE0FC0FE01E80DF11D5A
:104960008081803321F49A2D997EA92E09C0A2FE60
:1049700006C0B394B39404C08A2D867809F0B3942A
:10498000A3FC11C0A0FE06C0B21488F4280C922C1F
:104990009B180EC0B21460F4B60180E290E00E9451
:1049A0003725B394F7CFB21418F42B1802C0982C03
:1049B000212CA4FE10C0B60180E390E00E943725B0
:1049C000A2FE17C0A1FC03C088E790E002C088E502
:1049D00090E0B6010CC08A2D867859F0A1FE02C085
:1049E0008BE201C080E2A7FC8DE2B60190E00E945C
:1049F0003725891438F4B60180E390E00E9437250A
:104A00009A94F7CF8A94F301E80DF11D8081B601E5
:104A100090E00E9437258110F5CF222009F442CE84
:104A2000B60180E290E00E9437252A94F6CFF60185
:104A30008681978102C08FEF9FEF2B96E2E10C9465
:104A40005326FC010590615070400110D8F7809505
:104A500090958E0F9F1F0895FC016150704001904A
:104A60000110D8F7809590958E0F9F1F08950F9392
:104A70001F93CF93DF93FB01238121FD03C08FEFB1
:104A80009FEF2CC022FF16C04681578124813581BB
:104A90004217530744F4A081B1819D012F5F3F4F1E
:104AA000318320838C93268137812F5F3F4F37835B
:104AB000268314C08B01EC01FB010084F185E02DFD
:104AC0000995892BE1F6D80116968D919C9117973F
:104AD000019617969C938E931697CE01DF91CF91F6
:104AE0001F910F910895FA01AA27283051F1203122
:104AF00081F1E8946F936E7F6E5F7F4F8F4F9F4F72
:104B0000AF4FB1E03ED0B4E03CD0670F781F891FB3
:104B10009A1FA11D680F791F8A1F911DA11D6A0F81
:104B2000711D811D911DA11D20D009F468943F9134
:104B30002AE0269F11243019305D3193DEF6CF0133
:104B40000895462F4770405D4193B3E00FD0C9F7F9
:104B5000F6CF462F4F70405D4A3318F0495D31FD66
:104B60004052419302D0A9F7EACFB4E0A6959795B9
:104B7000879577956795BA95C9F70097610571058F
:104B800008959B01AC010A2E0694579547953795D9
:104B90002795BA95C9F7620F731F841F951FA01D33
:104BA0000895A6E1B0E044E050E00C94F725262FEC
:104BB000F999FECF92BD81BDF89A019700B4021613
:104BC00039F01FBA20BD0FB6F894FA9AF99A0FBEC1
:104BD00008950396272F0E94D8250E94D725252FB8
:104BE0000E94D825242F0C94D825DC01CB01FC0190
:104BF000F999FECF06C0F2BDE1BDF89A319600B436
:104C00000D9241505040B8F70895052E97FB1EF4C1
:104C100000940E941C2657FD07D00E946E2607FCB8
:104C200003D04EF40C941C26509540953095219558
:104C30003F4F4F4F5F4F08959095809570956195C8
:104C40007F4F8F4F9F4F08950E949026A59F900DF4
:104C5000B49F900DA49F800D911D11240895B7FF5E
:104C60000C9424260E942426821B930B08952F92D5
:104C70003F924F925F926F927F928F929F92AF92EC
:104C8000BF92CF92DF92EF92FF920F931F93CF9339
:104C9000DF93CDB7DEB7CA1BDB0B0FB6F894DEBFD0
:104CA0000FBECDBF09942A88398848885F846E84F6
:104CB0007D848C849B84AA84B984C884DF80EE8040
:104CC000FD800C811B81AA81B981CE0FD11D0FB649
:104CD000F894DEBF0FBECDBFED010895A1E21A2EFC
:104CE000AA1BBB1BFD010DC0AA1FBB1FEE1FFF1F90
:104CF000A217B307E407F50720F0A21BB30BE40BE0
:104D0000F50B661F771F881F991F1A9469F7609526
:104D10007095809590959B01AC01BD01CF010895E0
:104D2000A29FB001B39FC001A39F700D811D1124EC
:104D3000911DB29F700D811D1124911D0895F8944D
:024D4000FFCFA3
:104D420001000000010BFC018046FFFF15091B0A50
:104D5200A409180970090178730E0104018E0E115D
:104D62000FF40ECC0EA50E01010000007E07011EFD
:104D72001813120C15BC19C01A0F100F020F010CD8
:104D82004009400980031003200340064006800CBE
:104D9200040F800F4003010F2041542B424C454821
:104DA2004944434F4E54524F4C4B45593D25640A9A
:104DB2000041542B424C454849444D4F5553454DB3
:104DC2004F56453D25642C25642C25642C25640A08
:104DD20000425554544F4E3D25640A0041542B4223
:104DE2004C454B4559424F415244434F44453D0087
:104DF20030302D30300A00253032582D30302D25FC
:104E02003032582D253032582D253032582D25304C
:104E120032582D253032582D253032580A0041544F
:104E22002B464143544F525952455345540A00416F
:104E3200542B424C45484944454E3D300A004154AA
:104E42002B424C45484944454E3D310A0041542BC2
:104E52004741504445564E414D453D0050656172B3
:104E62006C7920763220424C450041542B47415008
:104E7200474554434F4E4E0A0041542B474150443C
:104E8200454C424F4E44530A0041540A0041544596
:104E92003D300A0041542B47415053544152544132
:104EA20044560A0041542B4741545441444453450B
:104EB20052564943453D555549443D363135390AE7
:104EC2000041542B47415454414444434841523DCC
:104ED200555549443D3078324131392C50524F506A
:104EE2004552544945533D31362C4D494E5F4C4550
:104EF2004E3D312C56414C55453D390A0041542B0B
:104F0200424C45504F5745524C4556454C3D340A4C
:104F12000041542B42415544524154453D373638A5
:104F220030300A0041542B48574144433D360A0071
:104F320041542B47415454434841523D312C25643E
:104F42000A0041542B424C45474554504545524175
:104F52004444520A0041542B474150444953434F61
:104F62004E4E4543540A0041542B47415053455439
:104F7200414456444154413D30322D30312D30367A
:104F82000A0041542B474150534554414456444131
:104F920054413D30322D30312D30340A0041545AC3
:104FA2000A00BDB6B3ADAAA7A4A19D404D3639FFF4
:104FB20004B2047C044304D603EF0308042104046E
:104FC2000A2AC003B40388032A0350006500610063
:104FD20072006C0079002000760032002000280068
:104FE2005500530042005F0044004D0043004E0054
:104FF200290000000A03590044004B00420000004F
:105002000403090409026D00040100A0FA09040066
:1050120000010301010009211101000122400007E2
:1050220005810308000109040100010301020009CE
:105032002111010001224D00070582030800010928
:1050420004020001030000000921110100012236BF
:10505200000705830308000A090403000103000096
:105062000009211101000122390007058403100003
:10507200011201100100000008EDFE4222010001B0
:1050820002000105010906A101050719E029E7153A
:105092000025019508750181020508190129059568
:1050A2000575019102950175039101050719002902
:1050B2007715002501957875018102C005010980E7
:1050C200A101850216010026B7001A01002AB700C5
:1050D200751095018100C0050C0901A10185031617
:1050E2000100269C021A01002A9C0275109501817A
:1050F20000C005010902A1010901A1000509190168
:105102002905150025019505750181029501750393
:1051120081010501093009311581257F9502750844
:10512200810609381581257F950175088106050CD0
:105132000A38021581257F950175088106C0C005D0
:10514200010906A101050719E029E71500250195C6
:105152000875018102950175088101050819012967
:1051620005950575019102950175039101050719D0
:105172000029FF150026FF00950675088100C00072
:106000003601EA40E900E24004000500060007000E
:10601000080009000A000B000C000D000E000F0024
:1060200010001100120013001400150016001700D4
:10603000180019001A001B001C001D001E001F0084
:106040002000210022002300240025002600270034
:1060500000F101F5E2402BAA2CA12D002E002F000B
:10606000300031003200330034002A0036A33728D4
:1060700000F339003A003B003C003D003E003F0089
:1060800040004100420043004400450046004700F4
:10609000480049004A004B004C004D004E004F00A4
:1060A0005000510052002AA15400550056005700DC
:1060B000580059005A005B005C005D005E005F0004
:1060C0006000610062006300640076008500670084
:1060D000F250F350EA40E940F850F950FA506F009E
:1060E0007000710072007300890087008A008B00C5
:1060F000E000E100E200E30051004F322CA9500023
:106100000000010001000100010043004100010006
:106110002000010092412F00250030002D002E00AC
:1061200001003300260027001E002100010022008C
:10613000240042001F00400023003F003A003B00C3
:106140003C003D003E003F00400041004200430053
:106150002800350001000100010044004500520004
:1061600049000100010001004F002A0036003700FD
:1061700038000100010001000100010001000100E0
:106180000100010001000100010001000100010007
:106190000100010001000100010001000100E940CF
:1061A000E240EA404B00010053009245010001002B
:1061B00001000100010001000100010001000100D7
:1061C00001000100010001000100010001000100C7
:1061D00001000100010001000100010001000100B7
:1061E000010001000100010049000100010001005F
:1061F0000100010001000100010001000100010097
:106200001101FF00FF0001004C0002F03D004D00B5
:106210004A003E0044003A00490001002D002E00D3
:10622000010033002F00300046003B004E003C00D0
:106230006F4019084B004700704048000100010002
:106240000100010001000100010001000100010046
:1062500034003900CD4001000100010001000100BF
:1062600001000100010001000100640001000100C3
:1062700038000100010001000100010001000100DF
:106280000100010001000100010001000100010006
:106290000100010001000100010001000100E40013
:1062A000E600E7000100010001000100010001001B
:1062B00001000100010001000100010001000100D6
:1062C00001000100010001000100010001000100C6
:1062D00001000100B640B5400100010001000100CD
:1062E00001000100010001000100010001000100A6
:1062F00001000100010001002BA201002C0001009F
:106300000000010001000100F25002D0F850F350EB
:10631000F5500AF40AF60AF80100010001000BFC2E
:1063200000D001D001000100F4500AF0F1500AF24F
:1063300001000BFBF050F6500100F7500100010086
:106340000100010001000100010001000100010045
:106350000100010001000100010001000100010035
:106360000100010001000100010001000100010025
:106370000100010001000100010001000100010015
:106380000100010001000100010001000100010005
:1063900001000100010001000100010001000100F5
:1063A00001000100010001000100010001000100E5
:1063B00001000100010001000100010001000100D5
:1063C00001000100010001000100010001000100C5
:1063D00001000100010001000100010001000100B5
:1063E00001000100010001000100010001000100A5
:1063F00001000100010003F00100010001000100A3
:106400000000010001000100010001000100010085
:106410000100010001000100010001000100010074
:106420000100010001000100010001000100010064
:106430000100010001000100010001000100010054
:106440000100010001000100010001000100010044
:106450000100010001000100010001000100010034
:106460000100010001000100010001000100010024
:106470000100010001000100010001000100010014
:106480000100010001000100010001000100010004
:1064900001000100010001000100010001000100F4
:1064A00001000100010001000100010001000100E4
:1064B00001000100010001000100010001000100D4
:1064C00001000100010001000100010001000100C4
:1064D00001000100010001000100010001000100B4
:1064E00001000100010001000100010001000100A4
:1064F0000100010001000100010001000100010094
:106500000002010001000100010001000100010082
:106510000100010001000100010001000100010073
:106520000100010001000100010001000100010063
:106530000100010001000100010001000100010053
:106540000100010001000100010001000100010043
:106550000100010001000100010001000100010033
:106560000100010001000100010001000100010023
:106570000100010001000100010001000100010013
:106580000100010001000100010001000100010003
:1065900001000100010001000100010001000100F3
:1065A00001000100010001000100010001000100E3
:1065B00001000100010001000100010001000100D3
:1065C00001000100010001000100010001000100C3
:1065D00001000100010001000100010001000100B3
:1065E00001000100010001000100010001000100A3
:1065F0000100010001000100010001000100010093
:106600000100010001000100010001000100010082
:106610000100010001000100010001000100010072
:106620000100010001000100010001000100010062
:106630000100010001000100010001000100010052
:106640000100010001000100010001000100010042
:106650000100010001000100010001000100010032
:106660000100010001000100010001000100010022
:106670000100010001000100010001000100010012
:106680000100010001000100010001000100010002
:1066900001000100010001000100010001000100F2
:1066A00001000100010001000100010001000100E2
:1066B00001000100010001000100010001000100D2
:1066C00001000100010001000100010001000100C2
:1066D00001000100010001000100010001000100B2
:1066E00001000100010001000100010001000100A2
:1066F0000100010001000100010001000100010092
:106700000000010001000100010001000100010082
:106710000100010001000100010001000100010071
:106720000100010001000100010001000100010061
:106730000100010001000100010001000100010051
:106740000100010001000100010001000100010041
:106750000100010001000100010001000100010031
:106760000100010001000100010001000100010021
:106770000100010001000100010001000100010011
:106780000100010001000100010001000100010001
:1067900001000100010001000100010001000100F1
:1067A00001000100010001000100010001000100E1
:1067B00001000100010001000100010001000100D1
:1067C00001000100010001000100010001000100C1
:1067D00001000100010001000100010001000100B1
:1067E00001000100010001000100010001000100A1
:1067F0000100010001000100010001000100010091
:00000001FF
