:100000000C94B5000C94D4000C94D4000C94D4003F
:100010000C94D4000C94D4000C94D4000C94D40010
:100020000C94D4000C94D4000C94221C0C94FE1C50
:100030000C94C2120C94D4000C94D4000C94D400F0
:100040000C94D4000C94D4000C94D4000C94D400E0
:100050000C94D4000C94862A0C94D4000C94D400F4
:100060000C94D4000C9455120C94D4000C94D4002D
:100070000C94D4000C94D4000C94D4000C94D400B0
:100080000C94D4000C94D4000C94D4000C94D400A0
:100090000C94FA040C94D40035083F083F08480833
:1000A000480855085508690869088B088B088B08AB
:1000B0008B087C086F1178117A117C117E117E11EA
:1000C0008211851188118A118C118C118F118F1159
:1000D00092119211921192119511951195119511FC
:1000E000981198116B1D8E1D4E1E8E1D4E1ED31D18
:1000F000F61D4E1E181E2B1EC720C72015211521C8
:100100009721E021E723E7230722E7236D216D21D3
:10011000BF23E723E723D423291E1F2021222324E2
:100120002526272D2E2A2B141A0815171C180C12F9
:10013000132F303139041607090A0B0D0E0F333413
:100140002880791D1B06190511103637387D524C51
:10015000787B7A80802C8080807E7C50514F6262D8
:100160000028008315087432000011241FBECFEF51
:10017000D0E2DEBFCDBF15E0A0E0B1E0EAEBF1E6F2
:1001800000E00BBF02C007900D92A03FB107D9F766
:100190002BE0A0EFB5E001C01D92A939B207E1F74D
:1001A0000E9409180C94DB300C940000E82FF0E05A
:1001B0008EE0989FE00DF11D1124E85EFE4F8491C2
:1001C00008950F931F93CF93DF938C01C62FD42FE5
:1001D0000E94CC29F8019281C130C1F028F0C430CE
:1001E00021F1C53051F136C0992391F09D2F9270C5
:1001F000D0FD90622D2F2470982321F080FD02C045
:1002000085E30EC0822349F489E20AC0911103C03C
:100210008091F0051BC082FF02C08DE301C081E226
:100220008093F0058091F0050DC0992321F0827232
:1002300089F48CE207C08CE209C0992331F085FD76
:1002400009C082E50E94B61F03C082E50E94E41F38
:100250000E94062AF8018281882389F1C330B1F017
:1002600050F4C23061F585E090E0DF91CF911F91AD
:100270000F910C942217CA30D9F0CB3001F58D2F95
:10028000DF91CF911F910F910C94D51790915C063F
:1002900081E0892780935C069091EF0988E889279F
:1002A0008093EF09DF91CF911F910F910C94B603CA
:1002B0008D2FDF91CF911F910F910C940D08DF913D
:1002C000CF911F910F91089580E090E008958830BC
:1002D00018F420B130E003C02FB130E08850A901FC
:1002E00002C0559547958A95E2F740FF02C080E02D
:1002F000089580E808958091990B90919A0B8A3A1D
:100300009B4BC9F480912D018823A9F0539A5B98E7
:10031000549A5C98249A2C9A8FEF91E12AE78150A5
:1003200090402040E1F700C000005C9A8091C90035
:10033000877F8093C90008958091990B90919A0BC3
:100340008A3A9B4B31F410929A0B1092990B0E94AF
:10035000701485B7806885BF85B7806885BF0E94A7
:100360009004299A219A80E50E9459040E94D0079E
:100370000E94622A8FEC97E00197F1F700C000001D
:1003800080B3807C80BB81B38F6381BB81B111B8A6
:1003900082B18FEF82B908956F927F928F929F9270
:1003A000AF92BF92CF92DF92EF92FF920F931F9383
:1003B000CF93DF930E946B2A209137063091380645
:1003C0008217930709F46AC0909338068093370622
:1003D000C9E3D6E0E12CF12C81EFC82E85E0D82EC0
:1003E00088248394912C2CE0622E712C87B1282FC5
:1003F000207EC4010E2C01C0880F0A94EAF7822BDC
:1004000087B980E18A95F1F7560100E010E0802F6E
:100410000E946701F50190819695892B81935F0178
:100420009401002E02C0220F331F0A94E2F790912C
:100430000401891728F088819981282B392B08C05D
:10044000853040F42095309588819981282339237F
:10045000398328830F5F1F4F0E301105C1F6FEE070
:10046000CF0ED11C89919991892B81F080910B013C
:1004700082FD05C070921A096092190907C0807F39
:100480008031C1F310921A09109219098FEFE81AFE
:10049000F80AE5E0EE16F10409F0A8CF81E0DF915B
:1004A000CF911F910F91FF90EF90DF90CF90BF9071
:1004B000AF909F908F907F906F900895E82FF0E01D
:1004C000EE0FFF1FE75CF94F808191810895089539
:1004D000CF93809127018A3028F10E94CC01E1EF6F
:1004E000F5E080E090E02191222339F0803211F094
:1004F000833211F49C5901C09F5F8F5F863499F756
:1005000080912D01983C39F4811103C08AE10E9449
:10051000221781E017C0811103C081E0911112C040
:1005200080E010C087B18F6187B980E18A95F1F7CB
:10053000C0E08C2F0E9467018111EBCFCF5FCE30DE
:10054000C1F7EECFCF9108958091380184FD05C0A9
:100550008FEB8093040180E004C08BEF8093040153
:1005600086E060E00C946F20249A2C98E0E0FAEF8B
:10057000E491E0935E06E1E0FAEFE491E0935F0638
:10058000E0E0FBEFE491E0936006EF3F19F481E0D7
:1005900080935B06A3E4B6E080E090E0FC01EE5FB0
:1005A000F740459155916591749111964C9311972F
:1005B0005C9312966C93129793951396811528E08D
:1005C000920761F70895CF93C82F811102C02C9A2A
:1005D0002BC0813071F480910B0182FF299A209108
:1005E0004806409146066091470680E20E94EF036C
:1005F0001BC08230C9F480910B0182FD15C0289880
:10060000E4E9FAE089EA9AE02091490630914A0645
:1006100040914B062193319341938E179F07A1F789
:1006200084E99AE00E94EB0381E090E001C0880F2A
:10063000CA95EAF790915D06892B80935D06CF916C
:100640000895CF93C82F811102C02C980CC081301F
:1006500039F420E040E060E080E20E94EF0303C054
:10066000823009F4289A81E090E001C0880FCA9591
:10067000EAF7809590915D06892380935D06CF917E
:100680000895EF92FF920F931F93CF93DF93D82F8C
:100690000EE516E0C0E0E62EF12CDD2331F0F80186
:1006A00080818D1B883088F401C08C2F970102C097
:1006B000359527958A95E2F720FF04C08C2F0E947C
:1006C000E30203C08C2F0E942103CF5F0F5F1F4FF7
:1006D000C33019F7DF91CF911F910F91FF90EF90E9
:1006E000089560915D0680E00C944103CF92DF9203
:1006F000FF920F931F93CF93DF93F82E0EE516E032
:10070000C0E0D0E0CC24C394D12CF80181918F01BA
:100710008F110DC020915D06C6010C2E01C0880FFF
:100720000A94EAF7822780935D060E94710321965E
:10073000C330D10551F7DF91CF911F910F91FF90F9
:10074000DF90CF900895669581E00E9441038091EB
:100750000B018C7F843229F4299A289881E08093B8
:100760003C070895669589E00C94410360915C060E
:1007700085E10C944103682F80E10E9441030C94B1
:10078000B60328B1362F3095232338B1632B3FB7FA
:10079000F894FC0186E18150E1F0919148E068B95C
:1007A00097FF28B9990F000000C028B9000000C0C9
:1007B00000C000C000C000C000C000C000C000C039
:1007C00000C000C000C000C000C000C04A9539F79A
:1007D000E2CF3FBF08953E9A60E40C94C103E82F36
:1007E000E295E37090E3E99FF00111248F70EA59DC
:1007F000F94FE80FF11D60A3408B208381E08093C7
:1008000026070895880F8093800A6093810A409399
:10081000820A88EF8093620A8091620A8F3F39F0E2
:1008200040E063E080E89AE00E94A604F5CF0895D6
:10083000CF93DF93C82FD62F45EC6EEF0E940204B2
:100840004D2F6DEF8C2FDF91CF910C9402040F93FD
:100850001F93CF93DF93C82F8B0161E070E090E08E
:100860000E941804CC0FC093800AE80110E008EF42
:100870001093810AE2E8FAE0DE018D9181938AE02B
:10088000E239F807D1F70093620A8091620A8F3F3C
:1008900039F040E062E180E89AE00E94A604F5CFDA
:1008A000105F6096103C21F7DF91CF911F910F915F
:1008B0000895CF93DF93C82F63E00E94180440E0AF
:1008C00060E08C2F0E94020441E060E08C2F0E94C7
:1008D000020440EC61E08C2F0E9402048FE19EE450
:1008E0000197F1F700C0000060E08C2F0E9418040F
:1008F000D0E04FEF6D2F8C2F0E940204DF5FD931C3
:10090000C1F7DF91CF91089580912607882339F0B0
:100910001092260766E676E080E50C942704089599
:10092000E1E6FAE010828FEF818312821092B90023
:1009300082E08093B80085E08093BC000895909198
:10094000610A9D7F81E009F080E008950F931F9375
:10095000CF93DF93182FD92FC62F042F653110F0B6
:1009600081E043C00E949F04811105C082E08A9506
:10097000F1F700C0F7CF0093630AE12FFD2FA6E641
:10098000BAE06C2F70E0CD0186569A408617970723
:100990001CF481918D93F7CF70937F0A60937E0A48
:1009A0001092650A1092640A8091610A8230B1F453
:1009B00081E08093610A8091640A9091650A9C01AC
:1009C0002F5F3F4F3093650A2093640AFC01EA5978
:1009D000F54F80818093BB0085E804C081E080935F
:1009E000610A85EA8093BC0080E0DF91CF911F917E
:1009F0000F9108951F920F920FB60F9211240BB60C
:100A00000F922F933F934F938F939F93EF93FF9367
:100A10008091B900887F883239F180F4803109F4FF
:100A2000A2C030F4882309F4A2C08830E9F0A6C03F
:100A30008831B9F0803209F483C0A0C0803491F1CC
:100A400038F4803309F47CC0883309F479C096C047
:100A50008035C1F1883509F458C0883409F08EC05A
:100A60006FC083E08093610A2091640A3091650A27
:100A700080917E0A90917F0A281739070CF056C0A2
:100A80008091640A9091650A9C012F5F3F4F3093DB
:100A9000650A2093640AFC01EA59F54F808180932E
:100AA000BB002EC084E08093610A80917A0A909105
:100AB0007B0A019720917C0A30917D0A281739071B
:100AC000FCF419C080917C0A90917D0A9C012F5FF3
:100AD0003F4F30937D0A20937C0A4091BB00FC017C
:100AE000E35BF54F408380917A0A90917B0A0197EE
:100AF000281739072CF488EF8093620A85EC3CC0F4
:100B000088EF8093620A85E837C080917C0A9091D3
:100B10007D0A9C012F5F3F4F30937D0A20937C0A12
:100B20002091BB00FC01E35BF54F20838091630AB9
:100B3000882311F08FEF0BC01092610A8FEF10C065
:100B40008091630A882339F08091B900887F80936F
:100B5000620A85EA11C01092610A8091B900887F0B
:100B60008093620A08C082E08093610A07C01092F5
:100B7000620A1092610A85E98093BC00FF91EF91AF
:100B80009F918F914F913F912F910F900BBE0F909E
:100B90000FBE0F901F9018959D5F811524E092075E
:100BA00010F09350FACF0895EF92FF920F931F9396
:100BB000CF93DF9300D000D01F92CDB7DEB7062FC2
:100BC000142F79010E94CC05492F9430B8F5602F7D
:100BD00070E0869F9001879F300D1124832F992705
:100BE000A12FB0E08A9FF0018B9FF00D9A9FF00D2E
:100BF000112420E031E0261B370B2A9FC0012B9FD8
:100C0000900D3A9F900D11249C839983892F8F0F0B
:100C10008D838A831F1B1B83842F90E0FE01E80FC6
:100C2000F91F3181FE01E80FF91F2081FE01E80F55
:100C3000F91F8281F7018183308322830F900F9007
:100C40000F900F900F90DF91CF911F910F91FF9018
:100C5000EF900895CF93DF9300D000D01F92CDB7CF
:100C6000DEB7FA0193E0899F90011124232F330FFF
:100C7000330B1C821982982F990F890F8150869F00
:100C8000C00111249D839A83691B6B83DE01A20F2F
:100C9000B31F13968C918183DE01A20FB31F1296AE
:100CA0008C918083DE01A20FB31F11968C918283F9
:100CB0000F900F900F900F900F90DF91CF910895AC
:100CC0008AE090E00C943830AB01BC018AE090E0FF
:100CD0000C94563060910A0170910B0180910C01C7
:100CE00090910D010C94640680ECECEAFAE0DF01CF
:100CF0001D928A95E9F785E1E4E9FAE0DF011D92AA
:100D00008A95E9F708950F931F93CF93DF9380910E
:100D10000B0182FF0E94740680911409811106C0A4
:100D2000299A80915B06811101C0289820911909A8
:100D300030911A0980914B072D30310520F0843015
:100D400038F0845003C08C3718F48C5F80934B07C5
:100D5000E0914B07CFEFCE0F80910E01811105C0BE
:100D600080915B06882391F14FC0CE3738F02D304B
:100D7000310520F40CEA1AE0D0E01BC0F0E0E057A7
:100D8000FE4F2081ECEAFAE08081829FC0011124AD
:100D900091934BE0EC36F407B9F7ECCF80915D0608
:100DA000882361F0D03251F4DF5F0D5F1F4FD034E4
:100DB000B9F280912B018111F5CFF0CFF80122819A
:100DC000408161818D2F0E94EF03EECF20911909A0
:100DD00030911A09A0914B07B0E0E4E9FAE0A0577E
:100DE000BE4FCE37C8F02D303105B0F4808143E0DE
:100DF000849FC0011124959587959595879581933A
:100E00008AE0E93AF80769F784E99AE0DF91CF913F
:100E10001F910F910C94EB0380819C91899FC001DD
:100E200011249083E3CF20910B0122FF1DC02CE6FB
:100E30003BE00E94D405ACEABAE0E4E9FAE080E0E5
:100E400020916C0B30916D0B40916E0B873018F434
:100E50002083318342832D933D934D938F5F33964F
:100E6000803471F70C94830608950F931F93CF93EA
:100E7000DF93162FD42F0E94CC05082FC92F809105
:100E80000B0182FF23C0887F883029F44D2F612F0A
:100E9000802F0E94130700930A01C37080910B01F9
:100EA0008C7FC82BC0930B0110930C01D0930D01C4
:100EB00060910A0170910B0180910C0190910D01DC
:100EC000DF91CF911F910F910C946406DF91CF9128
:100ED0001F910F91089590910B0192FD07C00E9400
:100EE00074060E9483062998289A45C0882321F019
:100EF000893118F081E001C088E190910B01977071
:100F0000282F220F220F220F922B90930B01299A48
:100F100090915B06911101C02898813071F49091F5
:100F20000B0140910D0160910C0180910A019370B9
:100F30000E9435070E9483061EC0823051F480E46F
:100F4000EBE9F7E0DF011D928A95E9F70E9474064C
:100F500012C0843059F46091D9097091DA098091F6
:100F6000DB099091DC090E94A30305C089508230FF
:100F700010F410923D0760910A0170910B0180916D
:100F80000C0190910D010E94640690910B0140911B
:100F90000D0160910C0180910A0193700C9435074A
:100FA0000E94A42C811104C00E948A2C0E946A060F
:100FB00089E090E00E94303091E0811101C090E022
:100FC00090930E010E94600660930A0170930B01DA
:100FD00080930C0190930D0180910D01811103C04C
:100FE0008FE780930D0184B1836084B980910B01F8
:100FF0008695869586950C946B07EBE0F1E08081F1
:1010000082FB222720F991E0922790FB82F98083CE
:101010008695869586950C946B07CF92DF92EF921A
:10102000FF920F931F93CF93DF93D82FE0900A0185
:1010300080910B018370F82EC0900C0140910D013E
:10104000042FD0FF02C0CFEF01C0C1E00E94CC2925
:1010500081FDC1958D2F90E08E30910508F05BC029
:10106000FC01E45BFF4F0C94D72CDF91CF911F91D3
:101070000F91FF90EF90DF90CF900C94FD0780913F
:101080000B018695869586958C0F0E946B0743C051
:1010900080910A0120910B01922F93707C0124E131
:1010A000C202E00CF11C112438C080910C0191E1C6
:1010B000C90260011124C80ED11C2FEFC216D10441
:1010C00009F01CF4D7FC36C028C0CC24CA94D12C1B
:1010D00024C080910D0191E1C902A00111248A016F
:1010E000080F111D0F3F110509F01CF417FD25C055
:1010F00014C00FEF10E011C00E9474060E94830616
:1011000060910E0181E0682760930E0189E090E014
:101110000E94443002C0D33098F0402F6C2DC7019C
:10112000DF91CF911F910F91FF90EF90DF90CF90C3
:101130000C943507C12CD12CF0CF00E010E0EDCF9E
:10114000DF91CF911F910F91FF90EF90DF90CF90A3
:10115000089590915B06992319F0ECEAFAE00BC030
:10116000E4E9FAE081836083428333969AE0E93AC6
:10117000F907C1F7F2CF81836083428333969BE006
:10118000EC36F907C1F70C948306FC0190915A09DB
:101190008081843649F581818B3B21F4CF01039610
:1011A0000C947D14933019F482810C946B07943065
:1011B00021F4438162810C94A9089530A9F4873009
:1011C00068F4A82FB0E084819381228111962C933A
:1011D00011979C9312968C930C9483068F3F21F465
:1011E000828193810C9410240895EF92FF920F93C3
:1011F0001F93CF9390910B0192FF76C0C62F987FDB
:10120000903179F529990AC090911409911106C07D
:10121000299A90915B06911101C028989EE0899FC0
:10122000F0011124E65BFE4FEC0FF11D008110E090
:10123000EC2EE694F12CF701ED5AF84F8EE78083FF
:10124000F801E556F84F80830E942B2DF701E45BEF
:10125000F84F8083F801E65AF84F80838FE7809338
:101260004B0780910B01887F8831F1F529990AC0DD
:1012700080911409811106C0299A80915B06811121
:1012800001C0289820913E07822F90E0019683703C
:101290009927FC01EB5BF84F30813E3F7CF4FC0169
:1012A000E15CF84F808180314CF081E0820F843026
:1012B00018F480933E0702C010923E0780913E07CB
:1012C00090E0FC01E15CF84FC083FC01EB5BF84F60
:1012D000C0830E942B2DE0913E07F0E0E65AF84FC4
:1012E00080838FE780934B07CF911F910F91FF90E1
:1012F000EF900895CF93C82FE0913B07F0E0E057BF
:10130000FE4F90910B01408160910C0180910A0188
:1013100093700E9413073091090120913B073C9F75
:10132000200D112420933B072C1738F08C2F90E0D0
:10133000820F911D8F3791051CF031953093090173
:10134000CF910895CF92DF92EF92FF920F931F9368
:10135000CF93DF93CBE9D7E03AE5E32E37E0F32EE6
:101360000CEA1AE080E0E881E23068F0F0E0E05753
:10137000FE4FA8016081F70180810E942A068881C2
:101380008250888381E02196FFEFEF1AFF0A0D5FFC
:101390001F4F97E0CB3DD90731F7C3E5D7E09CE479
:1013A000C92E97E0D92E24E9E22E2AE0F22E1881E8
:1013B000123068F0E12FF0E0E057FE4FA7016081A6
:1013C000F60180810E942A061250188381E021963E
:1013D000FFEFCF1ADF0A93E0E90EF11CE7E0CA3510
:1013E000DE0729F7811113C080910B01887F8031BE
:1013F00071F48091900B843051F080915D068111E1
:1014000006C080912B01811102C02998289ADF9192
:10141000CF911F910F91FF90EF90DF90CF900C94A0
:1014200083066F927F928F92EF92FF920F931F939A
:10143000CF93DF9380913A0710923A078F3F09F4D8
:10144000B3C00E9474067AE5E72E77E0F72EC5E474
:10145000D7E00FE317E049EA5AE06FEFF701819117
:101460007F010E942A0628812E3F94F127FD2EC07D
:10147000A22F022E000CBB0BA65BBE4F35E08C9159
:1014800090E0FC01EE0FFF1F8E0F9F1FFC01E45543
:10149000F54F6090A90A7090AA0A8090AB0A60820A
:1014A0007182828231501E963111E9CF822F85954B
:1014B000082E000C990BFC01EE0FFF1F8E0F9F1FD3
:1014C000FC01EC56F54F60827182828221502883A4
:1014D000F80120812031BCF52E3094F5A22F022E88
:1014E000000CBB0BA65BBE4F35E08C9190E0FC017D
:1014F000EE0FFF1F8E0F9F1FFC01E455F54F60900C
:10150000A90A7090AA0A8090AB0A608271828282D6
:1015100031501E963111E9CF822F27FF02C081E0A2
:10152000820F8595082E000C990BFC01EE0FFF1F12
:101530008E0F9F1FFC01EC56F54F608271828282F4
:101540002F5FF801208321960F5F1F4FF7E0C9340A
:10155000DF0709F080CF80913E0790E0FC01EB5B54
:10156000F84F20812E3FACF4FC01E15CF84F808104
:1015700080317CF08091900B843059F080915D0631
:10158000811107C080912B01811103C02998289AED
:101590000BC0DF91CF911F910F91FF90EF908F9033
:1015A0007F906F900C948306DF91CF911F910F91E4
:1015B000FF90EF908F907F906F900895CF92DF9281
:1015C000EF92CF93DF93209139072F5F422F50E0A6
:1015D00090E0880F991F481759071CF4209339078A
:1015E00003C1109239070E947406909119018091ED
:1015F0001B01981330C090911A0180911C0198131F
:101600002AC080915B0780935A070E942B2D65E0CA
:1016100070E00E94C32C80931B010E942B2D6DE073
:1016200070E00E94C32C80931C0180934507E091D9
:101630001B019EE0E99FF0011124E65BFE4FE80FDD
:10164000F11D8081803419F481E080931B010E9498
:101650002B2D80935B0749EA5AE06FEF80915A0780
:101660000E942A06CFE0D1E02BE131E0DE014EE01E
:10167000EC9111968C9111974E9FF0011124E65B2D
:10168000FE4FE80FF11D808190E0FC01EE0FFF1F7F
:101690008E0F9F1FFC01E455F54FC090A90AD09012
:1016A000AA0AE090AB0AC082D182E28212962A177F
:1016B0003B07F1F649EA5AE06FEF80915B070E9421
:1016C0002A06E0911B0180911C019EE0E99FF00138
:1016D0001124E65BFE4FE80FF11D808190E0FC01D4
:1016E000EE0FFF1F8E0F9F1FFC01E455F54F8091F9
:1016F000A90A9091AA0AA091AB0A80839183A28340
:10170000E4E9FAE08091A90A9091AA0AA091AB0AB3
:1017100081939193A1938AE0E93AF80799F70E949F
:10172000830689E191E0EFE0F1E0228120832381CB
:10173000218332968E179F07C1F79091190120914E
:101740001B0180911A01921721F1291710F021E055
:1017500001C02FEFE5E1F1E0422F022E000C550B06
:10176000490F511D688170E04617570761F43981B0
:10177000831309C0282F30E02C30310514F48F5F1B
:1017800031C081502FC02296EC17FD0759F7920FF8
:1017900021C020911C01821739F1281710F021E097
:1017A00001C02FEFE5E1F1E0422F022E000C550BB6
:1017B000480F511D3881931310C0698170E046179E
:1017C000570759F4292F30E02430310514F49F5F76
:1017D00001C091509093190107C02296EC17FD07A4
:1017E00049F7820F80931A01DF91CF91EF90DF903C
:1017F000CF900895EF92FF920F931F93CF93DF93B3
:101800000E94740680913C07882309F46FC01092EF
:101810003C078091D9090E94402A082F882309F4A7
:101820005DC0873041F486EB8093AA0A8093A90AB1
:101830008093AB0A0DC090E0019729EA3AE04FEFA0
:101840006FEF9695982F8827979587950E94D405D6
:101850003AE4E32E31E0F32E10E0C0E0D0E06C2F4C
:10186000712F802F0E94AC2A0297B0F0F701EC0F85
:10187000FD1F808190E0FC01EE0FFF1F8E0F9F1F68
:10188000FC01E455F54F8091A90A9091AA0AA09114
:10189000AB0A80839183A2832196CE30D105F9F6DD
:1018A0001F5F8EE0E80EF11C1530B9F6E4E9FAE0AE
:1018B00089EA9AE02091A90A3091AA0A4091AB0ADC
:1018C0002193319341938E179F07A1F7DF91CF9119
:1018D0001F910F91FF90EF900C9483060E94830656
:1018E0008091900B843011F02998289ADF91CF9144
:1018F0001F910F91FF90EF9008950F931F93CF9337
:10190000DF93209138072F5F422F50E090E0880F3F
:10191000991F841795071CF02093380732C0109246
:1019200038070E942B2D8C010E942B2D6EE070E059
:101930000E94C32CC82FC80165E070E00E94C32C30
:101940009EE0899FF0011124E65BFE4FEC0FF11D34
:10195000008110E0F801E556F84F8081823088F46C
:101960008EE78083C695D0E0FE01ED5AF84F808364
:101970000E942B2DF801E65AF84F8083C45BD84FA4
:101980008883DF91CF911F910F910C94A2096F92E0
:101990007F928F92DF92EF92FF920F931F93CF93DC
:1019A000DF93909137079F5F90933707891708F06F
:1019B00084C00E9474060E942B2D6EE070E00E948D
:1019C000C32CEC01DD27FE01E556F84F8081811123
:1019D00009C087E080830E942B2DC65AD84F888388
:1019E000109237070BE917E06AE5E62E67E0F62E5E
:1019F000C0E0D0E07EE0D72EF8018081882309F492
:101A000046C049EA5AE06FEFF70180810E942A063A
:101A10008C2F869590E036E0DC01AA0FBB1F8A0F61
:101A20009B1FDC01AC56B54FF8012081832F821B30
:101A30008530D8F4FE01D89EE00DF11D1124E65B3F
:101A4000FE4F808190E0FC01EE0FFF1F8E0F9F1F65
:101A5000FC01E455F54F6090A90A7090AA0A8090A5
:101A6000AB0A6082718282820CC0853051F4609032
:101A7000A90A7090AA0A8090AB0A6D927D928C920E
:101A800012973F5F383081F62150F801208321966C
:101A90000F5F1F4FFFEFEF1AFF0ACE30D10509F09D
:101AA000ABCFDF91CF911F910F91FF90EF90DF901F
:101AB0008F907F906F900C948306DF91CF911F9150
:101AC0000F91FF90EF90DF908F907F906F9008952F
:101AD0002F923F924F925F926F927F928F929F923E
:101AE000AF92BF92CF92DF92EF92FF920F931F932C
:101AF000CF93DF93809136078F5F809336078823DB
:101B000009F4EBC080ECECEAFAE0DF011D928A9563
:101B1000E9F780913D07882341F0809135078823BC
:101B200031F1815080933507D8C085E080933D071F
:101B300084E180933507CBE9D7E00AE517E030E18F
:101B4000C32E44E9E42E4AE0F42E55E1D52EC99285
:101B50000E942B2DF80181938F01D701ED2D1D924D
:101B6000EA95E9F7F7E0C03ADF0789F7D6CFCBE986
:101B7000D7E00AE517E0812C912CBEE05B2E85E0D2
:101B8000E82EF12C94E0692E712C29E0C22ED12C84
:101B9000482C8881813118F010923D079EC088231F
:101BA00009F47CC049EA5AE06FEFD8018C910E9499
:101BB0002A064EE0589C9001599C300D1124265B5A
:101BC0003E4F8881B42FB81BBE30B0F4F901EB0F43
:101BD000F11D808190E0FC01EE0FFF1F8E0F9F1F13
:101BE000FC01E455F54F8091A90A9091AA0AA091B1
:101BF000AB0A80839183A2834F5F413111F70E942A
:101C00002B2D5C010E942B2D9C01C501B7010E9468
:101C1000C32C481609F442C0C901B7010E94C32C65
:101C20004816E1F1888181508883811137C0809105
:101C30003D07815080933D07882381F1482F50E074
:101C40009301241B350B220F331FF901EE0FFF1FE9
:101C50002E0F3F1FF901EC56F54F2090A90A309046
:101C6000AA0A4090AB0A2082318242828130B1F0D0
:101C7000440F551FC601841B950BFC01EE0FFF1F7F
:101C80008E0F9F1FFC01EC56F54F8091A90A909191
:101C9000AA0AA091AB0A80839183A283EFEF8E1AE8
:101CA0009E0A21960F5F1F4FF5E08F16910409F0F1
:101CB0006FCFDF91CF911F910F91FF90EF90DF9049
:101CC000CF90BF90AF909F908F907F906F905F90DC
:101CD0004F903F902F900C948306DF91CF911F91EE
:101CE0000F91FF90EF90DF90CF90BF90AF909F90BB
:101CF0008F907F906F905F904F903F902F900895BE
:101D00002F923F924F925F926F927F928F929F920B
:101D1000AF92BF92CF92DF92EF92FF920F931F93F9
:101D2000CF93DF9300D000D0CDB7DEB780913407DA
:101D30008F5F80933407882309F425C180913D0784
:101D4000882369F10E942B2D66E070E00E94C32C6D
:101D5000382E0E942B2D66E070E00E94C32C282EA6
:101D60000E942B2D66E070E00E94C32C89830E94A4
:101D70002B2D66E070E00E94C32C8A83B5E4EB2E25
:101D8000B7E0FB2E0FE317E08AE4C82E81E0D82EDF
:101D9000A12CB12C1C821B829EE0492E0FC085E035
:101DA00080933D07E5E4F7E0AFE3B7E08DE0119203
:101DB0008D9327E0EB34F207D1F7C4CFD7016C90B5
:101DC000F801708076144CF5FB81F530D1F020E0FD
:101DD00030E0F601E20FF31F818190E0FC01EE0F8D
:101DE000FF1F8E0F9F1FFC01E455F54FDF0183E0BD
:101DF0001D928A95E9F72F5F3F4F2C30310549F747
:101E000006C0A7E9BAE0EFE01D92EA95E9F7D7012D
:101E10001C922DE0F801208388C080910A01209156
:101E20000B01922F93708A0D9B1D0E94CC054C01D3
:101E30005B803514A1F13981351589F167FC2FC01C
:101E400084E08515B8F0AB81BC814A9EF0014B9EC1
:101E5000F00D1124E65BFE4FE60DF11D67FCFA95CF
:101E6000208130E0C901880F991F280F391F2455A0
:101E7000354F0CC0262D2595022E000C330BC901C1
:101E8000880F991F280F391F2C56354F4FEF60913F
:101E90000C01C4010E94D4056394F7016082C4015F
:101EA000845D9E4F0E94CC05251499F1FA81F515A9
:101EB00081F1171474F524E02515B8F0AB81BC81CD
:101EC0004A9EF0014B9EF00D1124E65BFE4FE70D9C
:101ED000F11D77FCFA95208130E0A901440F551FD0
:101EE000240F351F2455354F0CC0272D2595022E64
:101EF000000C330BA901440F551F240F351F2C561E
:101F0000354F4FEF60910C010E94D4057A94F8018F
:101F10007082D7018C918E3024F4F8018081811178
:101F200004C010923D070E9474062B813C812F5FF4
:101F30003F4F3C832B833FEFE31AF30A0F5F1F4FA2
:101F400080E8A80EB11C9EE0C90ED11CAB81BC81FB
:101F5000169709F033CF0F900F900F900F90DF91ED
:101F6000CF911F910F91FF90EF90DF90CF90BF9096
:101F7000AF909F908F907F906F905F904F903F9029
:101F80002F900C9483060F900F900F900F90DF917D
:101F9000CF911F910F91FF90EF90DF90CF90BF9066
:101FA000AF909F908F907F906F905F904F903F90F9
:101FB0002F900895CF93C82FEAE0F1E0438162812A
:101FC00080913207909133070E9413078091320766
:101FD0009091330723E0C29F800D911D11240E9430
:101FE000CC059093330780933207CF9108956F9279
:101FF0007F928F92EF92FF921F93CF93DF93182FD0
:10200000169580FD11954AE4E42E41E0F42EC0E0DF
:10201000D0E080913007909131078C0F9D1F0E9476
:10202000CC0529EA3AE040910D0160910C010E9433
:10203000D405D70125E08C9190E0FC01EE0FFF1F45
:102040008E0F9F1FFC01E455F54F6090A90A709018
:10205000AA0A8090AB0A60827182828221501E9609
:102060002111E9CFE0962FEFE21AF20AC03A82E09E
:10207000D80779F60E948306809130079091310746
:1020800020E1129F8019910911240E94CC059093A0
:10209000310780933007DF91CF911F91FF90EF9030
:1020A0008F907F906F900895EF92FF920F931F9300
:1020B000CF93DF9390912F079F5F282F26952917A5
:1020C00048F090932F07DF91CF911F910F91FF90D0
:1020D000EF900895C82F10922F070E947406C0FF3A
:1020E00002C01FEF01C011E0C0E0D0E0F12C009170
:1020F0000801202F2F0D27FF02C0295F03C02730C2
:102100000CF02750022E000C330BC901880F991FC9
:10211000280F391F2C56354F80910A0140910B0131
:10212000942F937040910D0160910C018C0F9D1FB5
:102130000E94D405E09007012E2D2F0D27FF02C02D
:10214000205C03C020340CF02054022E000C330B12
:10215000C901880F991F280F391F2455354F8091C9
:102160000A0140910B01942F937040910D016091F1
:102170000C018C0F9D1F0E94D405F10EE296CC320B
:1021800081E0D80709F0B3CF010F08301CF010929E
:10219000080108C007FD03C00093080103C087E0E1
:1021A000809308011E0D11341CF01092070108C025
:1021B00017FD03C01093070103C080E4809307015B
:1021C000DF91CF911F910F91FF90EF900C948306B8
:1021D000CF92DF92EF9290912E079F5F891718F0B0
:1021E00090932E075FC010922E070E94740690E015
:1021F00040E080910601840F8E3058F590E0DC01BC
:10220000A65BBE4F55E02C9130E0F901EE0FFF1FA9
:102210002E0F3F1FF901E455F54FC090A90AD09049
:10222000AA0AE090AB0AC082D182E28251501E9687
:102230005111E9CF019695958795FC01EE0FFF1F8F
:102240008E0F9F1FFC01EC56F54FC082D182E282B7
:1022500091E04F5F463069F691110E94830690919C
:10226000050180910601890F809306018B5F833100
:10227000C8F091959093050180912C0790912D07BE
:1022800088960E94CC0590932D0780932C0729EA0D
:102290003AE040910D0160910C01EF90DF90CF90FA
:1022A0000C94D405EF90DF90CF900895299B43C004
:1022B00090910B0192FF3FC08091140981113BC0A6
:1022C000892F869586958695482F50E0FA0131979B
:1022D000E831F10580F5E65AFF4F0C94D72C409178
:1022E0000D0160910C0180910A0193700C94130709
:1022F0000C94A2090C94110A0C94FA0B90E0049728
:102300000C94DE0A82E00C947D0C81E00C94C70CE6
:102310000C94680D0C94800E89500C947A098B50A3
:102320000C94DA0F8D500C94F70F83510C945410C9
:1023300087510C94E81008952C982998289A0895AC
:102340001092610A0E94D0070E94710380912701B8
:10235000843018F081E080932B010895FC01809176
:102360002701843038F48281882321F060818181C3
:102370000C94F5080895299B16C080912A07909126
:102380002B070E94772A899770F00E946B2A9093FE
:102390002B0780932A0780911409811102C00E94A3
:1023A00056110C9484040895809128079091290770
:1023B0000E94772A8739910508F45BC00E946B2A36
:1023C0009093290780932807809127078F5F809338
:1023D000270790911409992301F1843008F449C02A
:1023E000913011F080E001C083E0809327077E9B4D
:1023F00010C00E9474060E948306289A20E040E0E4
:1024000060E880E20E94EF0395B182E0892785B9F8
:102410000895109214090C94A01180912B01882327
:1024200041F1299A80912707813031F420E040E082
:1024300060E080E20E94EF0380912707833069F417
:1024400080911709882319F040E820E002C040E09D
:1024500020E860E080E20E94EF03909117098091EC
:102460002707911102C0853010F48B3010F01092C4
:10247000270708952091DC078091DD07821759F026
:1024800030E0F901E252F84F80812F5F3F4F2093F7
:10249000DC0790E008958FEF9FEF08959091C800BA
:1024A00095FFFCCF8093CE0008951F920F920FB638
:1024B0000F9211240BB60F922F933F934F938F934C
:1024C0009F93EF93FF938091DD0790E09C012F5F36
:1024D0003F4F4091DC07421741F03091CE00FC01A4
:1024E000E252F84F30832093DD07FF91EF919F91E7
:1024F0008F914F913F912F910F900BBE0F900FBE78
:102500000F901F9018950E943120809127018230F2
:1025100050F48FE19EE40197F1F700C000000E94A3
:10252000A61B0E949412FFCF9EE088E10FB6F8949C
:10253000A895809360000FBE9093600008958091ED
:10254000900B8430E1F081E08093DE0829E488E19B
:1025500090E00FB6F894A895809360000FBE20938A
:1025600060000E949C1183B7817F846083BF83B722
:10257000816083BF7894889583B78E7F83BF0895E9
:102580000C94A0111F920F920FB60F9211248F93EB
:102590009F93AF93BF938091DE08813099F480912F
:1025A000F4099091F509A091F609B091F709809688
:1025B000A11DB11D8093F4099093F509A093F6092C
:1025C000B093F709BF91AF919F918F910F900FBE7C
:1025D0000F901F9018958091F908089508950F9312
:1025E0001F93CF930E946B2A8C01C0E0C8010E9408
:1025F000772A4E9708F50E943A128F3F2FEF9207E5
:10260000C9F0AC0155274D305105A1F02C2F30E019
:102610004A30510551F4C23030F0F901E252F74F1F
:1026200080818F3449F08FE590E0F901E052F74F57
:102630008083CF5FC731D0F2EC2FF0E0E052F74F4C
:10264000108280EE98E0CF911F910F910895CF9363
:10265000CAE10E943A12019611F0C150D1F7CF9110
:1026600008950F931F93CF93DF935C990AC08C0159
:102670000E942713E8018991882319F00E944E12C5
:10268000FACFDF91CF911F910F9108959C012F56A2
:1026900031092230310528F02A573109223031051D
:1026A00060F42091FC08211103C02FEF2093FC0857
:1026B0009093FB088093FA0802C01092FC082091C6
:1026C000FD08211116C09F938F9380E192E09F93A4
:1026D0008F938FE69BE09F938F930E94472D0F90DF
:1026E0000F900F900F900F900F908FE69BE00C943F
:1026F00031130895CF93DF93EC018091FD08811190
:1027000032C08C81282F082E000C330B3F938F93FF
:102710008B81282F082E000C330B3F938F938A81D7
:10272000282F082E000C330B3F938F938981282F7D
:10273000082E000C330B3F938F9388E292E09F9317
:102740008F938FE69BE09F938F930E94472D8FE698
:102750009BE00E9431138DB79EB70C960FB6F8948C
:102760009EBF0FBE8DBF8091FD0881111FC0888163
:102770009091F8088917D1F08093F8081F928F93F1
:1027800088E492E09F938F938DE79BE09F938F93D4
:102790000E94472D0F900F900F900F900F900F9069
:1027A0008FE69BE0DF91CF910C943113DF91CF91B5
:1027B00008950E9431130C94EF12CF93DF93EC0134
:1027C00086E90E94562ACE01DF91CF910C94D9134D
:1027D0008091FE08882321F01092FE080C94062AAE
:1027E0000895CF93DF932091FE08211152C02091CC
:1027F000FD0821114EC0EC0183E592E00E943113E7
:10280000209731F487E692E0DF91CF910C94311359
:102810008F811F928F938E811F928F938D811F9234
:102820008F938C811F928F938B811F928F938A81BC
:102830001F928F9388811F928F938EE692E09F93D1
:102840008F938FE69BE09F938F930E94472D8FE697
:102850009BE00E94311380E58A95F1F78DB79EB712
:1028600042960FB6F8949EBF0FBE8DBF888181112E
:1028700010C08A81833531F0893331F0873449F4CF
:1028800082E103C080E101C081E1DF91CF910C942E
:102890007603DF91CF91089580E090E00C94F113DE
:1028A0008091FC088823D9F0823020F081508093F9
:1028B000FC0808952091DF082F5F2093DF088091A6
:1028C000FA089091FB0830E04FE451E0481B590BA7
:1028D0002417350720F01092DF080C944613089552
:1028E00085E992E00C94DD13803319F486EA92E0D6
:1028F00002C085EB92E00C94DD13CF93DF93EC01E3
:1029000084EC92E00E943113CE010E9431138CE6D8
:1029100092E0DF91CF910C94DD1383ED92E00C9463
:102920007D148FED92E00E94D913FC0180810895FF
:102930008EEE92E00C94DD13549A5C980E94622A09
:10294000F89487E68093CC001092CD008091C90066
:1029500080698093C9008091C90088608093C90014
:102960008091CA008093CA008091C80082608093E1
:10297000C80078948EEF92E00E94DD138EEF92E013
:102980000E94D913FC018081813421F48181843536
:1029900091F505C08F3479F581818B3461F50E9402
:1029A00070148EEF92E00E94DD1382E093E00E94AB
:1029B000DD130E948D1485EB92E00E94DD1389E007
:1029C00093E00E94DD130E94981489E193E00E9435
:1029D000DD1386E393E00E94DD1382E793E00E941B
:1029E000DD1386E893E00E94DD1310929A0B10929B
:1029F000990B0E948312F8948CE08093CC00789419
:102A00008EEF92E00C94DD13CF93299903C08823B5
:102A100009F4A0C0C82F89E993E00E94D913FC01F2
:102A2000628180ED860F8A3008F05EC0408150E000
:102A30004053510984E6849FD001859FB00D112435
:102A4000818190E0C0974AE0489F9001499F300DF6
:102A500011242A0F3B1F260F311D43E0220F331F85
:102A60004A95E1F72A5432402C3C40E1340788F47F
:102A70008091290190912A0183374EE0940709F44F
:102A8000C901280F391F3695279530932A012093C5
:102A900029017E990DC081E080931309809129015D
:102AA00090912A01889790932A018093290102C06E
:102AB000109213092091290130912A0184E0369562
:102AC00027958A95E1F7205420931609223A18F0A9
:102AD0001092140909C0253910F481E003C02D3982
:102AE00018F485E080931409C130A1F5909116097E
:102AF000E7E1F4E08AE52191921718F48A50D9F7BA
:102B00008CE2209114092111822F20911309820F48
:102B1000211103C0923C08F084E6809328011F92A3
:102B20008F9385EA93E09F938F938FE69BE09F932B
:102B30008F930E94472D8FE69BE00E94D9130F9040
:102B40000F900F900F900F900F908FE69BE0CF911A
:102B50000C94D913CF91089586988E9A81E00C94A5
:102B60000415CF939091900B81E0943009F080E0B0
:102B700080932C018091380187FF1CC00E94681E41
:102B80008D51914059F08DE191E00E94631E80913A
:102B90005C068D7F80935C060E94B60380911809C5
:102BA000811129C080912C01882329F1809138015D
:102BB0008F7707C0943061F090912D01992321F017
:102BC00080688093380117C08CE08093270113C080
:102BD0000E94681E8E52914071F08EE291E00E9438
:102BE000631E80915C06826080935C060E94B6033F
:102BF00081E08093180980912D01882309F420C178
:102C00005C9915C10E94271380912701823031F40D
:102C100081E00E94041583E080932701C09112098E
:102C2000CC2309F446C00E949114813309F041C0BD
:102C300087EB93E00E94D913FC0101900020E9F793
:102C40009F01255131092817390799F5C13081F4C1
:102C500022E020931209C0932B011092170921E161
:102C6000FC01AFEFB8E001900D922A95E1F721C089
:102C700041E150E06FEF78E00E943A2D892B59F046
:102C8000809112098F5F853090F01092120981E0D7
:102C9000809317090EC08AEC93E00E94D9138091AB
:102CA0002B018F3018F01092120903C082E080933C
:102CB000120980911E09811199C080911B09909180
:102CC0001C090E94772A893E934008F48FC00E9415
:102CD0006B2A90931C0980931B098091170981111D
:102CE00005C08091120981112FC008C0809111097F
:102CF0008F5F809311098370A1F33DC00E949114EE
:102D0000813321F481E0809317091CC08033E1F402
:102D10001092170980911D098F5F80931D09909172
:102D20002C01911111C090912701992369F08A35E6
:102D300058F05C9A8091C900877F8093C90084E035
:102D40008093270110921D0980912B01882399F00F
:102D5000843629F410922B010E9471030CC08F5FFE
:102D600080932B01843120F480911709882319F076
:102D700084E680932B01809110098F5F8093100966
:102D8000877021F4809113090E94041580912C0111
:102D900081112CC080912B01811128C080911909CB
:102DA00090911A09019690931A098093190920911C
:102DB0002701213039F40F9728F00E944C1482E04B
:102DC0008093270180912701833081F48091190934
:102DD00090911A098832934248F084E08093270149
:102DE0005C9A8091C900877F8093C9008091150902
:102DF0008823D9F08C3099F0823119F487EF93E071
:102E000010C0853181F40E94981480E30E947414EC
:102E100081E30E94741482E194E00E94D9138CED46
:102E200093E00E94D913109215090E9450148091CA
:102E30002701823028F40E94E813CF910C94D4111A
:102E4000CF910895CF93DF93C82F0E94CC29D82F1C
:102E50000E943120C631A9F170F4C23139F130F449
:102E6000C53009F44AC0CC3009F199C0C33199F199
:102E7000C531F9F094C0CA31B1F130F4C83159F01C
:102E8000C93109F459C08BC0CC3B09F472C0C03CB5
:102E900009F473C084C080912D01882309F481C096
:102EA000909138019058909338017CC0C0931509D7
:102EB00078C0D0FF74C0C093150981E080932B01C6
:102EC00071C080912B01811102C081E001C084E6B4
:102ED00080932B0166C09091270181E08927809320
:102EE000270160E043C0D0FD02C061E001C06DEB8E
:102EF00080E290E00E944430FFCF8D2F837251F02A
:102F0000DD7DD13031F48BE29CEF9093010880930A
:102F10000008FFCFDC3039F48AEA9BEB90939A0BE0
:102F20008093990BFFCF82E39FE00E94102482E3FD
:102F30009FE10E94102435C08091280160E090E05C
:102F40000E941C24D0FF0BC08DE290E00E94102450
:102F500060E08091290190912A010E941C248DE259
:102F600090E00E94102460E0809117090E946F2079
:102F700018C081E08093120915C080912C01811145
:102F800010C05C9A8091C900877F8093C9008AE055
:102F900080932701109217090E945B2802C080E0ED
:102FA00001C081E0DF91CF910895CF93DF93CDB73A
:102FB000DEB729970FB6F894DEBF0FBECDBF96E0FF
:102FC000E1E4F1E0DE01119601900D929A95E1F7AE
:102FD0002091470130914801409149012F83388762
:102FE0004987282F30E08B3018F0ECEFFFEF02C05C
:102FF000E1E0F0E0EC0FFD1FE20FF31F8081299666
:103000000FB6F894DEBF0FBECDBFDF91CF910C9409
:103010002217CF9390E080E80FB6F8948093610078
:10302000909361000FBE0E947B010E94061C789461
:1030300080E290E00E9430308D3B11F410922D011F
:1030400080912D01882321F00E949C140E94AC15D0
:10305000CFEF8091900BC150843029F084E00E9422
:10306000562AC111F6CF0E94BB1E0E949412C1E0E5
:1030700080912701843038F4A895823010F40E94A2
:10308000C11E0E94B11580912701823040F48091C9
:103090002D018111EDCF8091900B843049F30E9476
:1030A0009F120E9494120E946802882309F31092D2
:1030B0001A09109219090E94A01180912D018823EC
:1030C00089F0C0932701C093FE085C988091C900E5
:1030D00083FD03C084E60E94562A8091C90088605F
:1030E0008093C90080911809882311F28091900B78
:1030F000853009F0BDCF0E94831ABACF8091300984
:1031000008958FEF9091E800815095FD06C09AE6F2
:103110009A95F1F700C08111F5CF8091E80085FB09
:10312000882780F991E089270895CF93DF9300D015
:103130001F92CDB7DEB72091900B2430B9F423E075
:1031400029839B838A832093E9000E94811881113F
:103150000DC040E050E063E070E0CE0101960E94B7
:10316000991A8091E8008E778093E8000F900F9075
:103170000F90DF91CF910895CF93DF9300D01F92EE
:10318000CDB7DEB72091900B2430C1F422E0298323
:103190009B838A8383E08093E9000E9481188111D8
:1031A0000DC040E050E063E070E0CE0101960E9467
:1031B000991A8091E8008E778093E8000F900F9025
:1031C0000F90DF91CF910895CF93DF932091900BD3
:1031D0002430A1F4EC0182E08093E9000E94811880
:1031E00081110CC040E050E065E070E0CE010E942B
:1031F000991A8091E8008E778093E800DF91CF9153
:103200000895CF93DF93EC019091900B9430B9F532
:103210008091380181718131B9F49093E9008FEF89
:103220009091E800815095FD06C095E19A95F1F7DF
:1032300000008111F5CF8091E80085FF20C040E0BB
:1032400050E060E170E00BC081E08093E9000E94F3
:103250008118811114C040E050E068E070E0CE01B8
:103260000E94991A8091E8008E778093E80080E1AF
:10327000FE01A0E2B9E001900D928A95E1F7DF919D
:10328000CF91089580918F0B811109C00E94A61BD8
:103290000E94061C8091E20084608093E200089501
:1032A00010928F0B0895089542E061EC81E00E9436
:1032B000401B42E061EC82E00E94401B42E061EC76
:1032C00083E00E94401B42E161EC84E00C94401BCF
:1032D0008091920B833009F455C030F4813071F045
:1032E000823009F48EC008958A3009F47AC08B3098
:1032F00009F460C0893009F09CC020C08091910B16
:10330000813A09F096C08091E800877F8093E800B9
:103310008091950B9091960B892B21F460E180E2CE
:1033200099E003C060E080E090E070E00E94E41A61
:103330008091E8008B778093E80008958091910B4D
:10334000813209F076C08091950B9091960B009791
:1033500019F0039709F06DC08091E800877F809392
:10336000E8008091E80082FD05C08091900B8111FA
:10337000F8CF5FC08091F100809330098091E80020
:103380008B7753C08091910B813A09F052C08091A4
:10339000950B9091960B892B09F04BC08091E8001A
:1033A000877F8093E8008091E80080FFFCCF8091C8
:1033B000380136C08091910B8132D9F58091950BFF
:1033C0009091960B892BA9F58091E800877F8093D7
:1033D000E8000E94541B8091930B809338010C9459
:1033E00031208091910B813221F58091E800877F17
:1033F0008093E8000E94541B8091940B80933109C4
:1034000008958091910B813AA1F48091E800877F23
:103410008093E8008091E80080FFFCCF8091310923
:103420008093F1008091E8008E778093E8000C94FF
:10343000541B08958091300980931F091092300920
:1034400080E00E94BB030E94881F0C9431200C94E2
:103450001A1A0E94C01280911F09809330090895A2
:103460000C94291A292F332723303105C1F058F441
:103470002130310579F022303105E9F58DE690E013
:1034800025E734E03CC021323105C1F0223231055C
:1034900011F131C082E190E022EE34E030C0992792
:1034A0008330910540F5FC01EE0FFF1FE95CFB4FF7
:1034B00020813181FC01EC5CFB4F1AC06430D8F4F0
:1034C000E62FF0E0EE0FFF1FE45DFB4F208131811E
:1034D00089E090E014C0643070F470E0FB01EE0FFE
:1034E000FF1FEC5DFB4F20813181FB01E05EFB4F54
:1034F000808190E004C080E090E020E030E0FA01BC
:103500003183208308958CE089BD8EE089BD09B4A4
:1035100000FEFDCF8091D8008F7D8093D8008091F0
:10352000E00082608093E0008091E00081FDFCCFAC
:103530000895CF92DF92EF92FF920F931F93CF9354
:10354000DF93EC018B017A010E94731B811133C060
:10355000E114F10439F0F70180819181081B190B06
:10356000C80FD91FC12CD12C0115110519F180915B
:10357000E80085FD16C08091E8008E778093E80012
:10358000E114F10449F0F70180819181C80ED91E40
:10359000D182C08285E00FC00E94731B882321F373
:1035A0000AC089918093F10001501109FFEFCF1AF1
:1035B000DF0ADACF80E0DF91CF911F910F91FF906A
:1035C000EF90DF90CF9008952091970B3091980B5A
:1035D0002617370748F06115710539F42091E80086
:1035E0002E772093E80001C0B901FC0120E06115AD
:1035F000710569F18091900B8823E1F18530E1F14B
:103600008091E80083FD3AC08091E80082FD2CC0E3
:103610008091E80080FFEBCF8091F2009091F30061
:103620006115710551F08830910538F4219120938E
:10363000F100615071090196F3CF21E0089709F07C
:1036400020E08091E8008E778093E800D0CF2111B0
:10365000D1CF0AC08091900B882361F0853061F052
:103660008091E80083FD0AC08091E80082FFF2CFDC
:1036700080E0089582E0089583E0089581E0089550
:103680008F708093E900EBEEF0E0808181608083B1
:10369000EDEEF0E010826093EC0040838091EE004C
:1036A000881F8827881F08958091910B87FF11C07C
:1036B0008091E80082FD05C08091900B8111F8CFC8
:1036C00011C08091E8008B770BC08091900B88230C
:1036D00049F08091E80080FFF8CF8091E8008E7774
:1036E0008093E80008952091E4003091E50095E68C
:1036F0004091EC00842F817040FF23C08091E8004E
:1037000080FD1DC08091900B882399F0853099F041
:103710008091EB0085FD11C04091E4005091E500DF
:103720002417350729F3915011F09A01E1CF84E075
:10373000089582E0089583E0089581E0089580E08F
:1037400008954091E80042FFDDCF08950E94151CC6
:103750000E941D1CE0EEF0E0808181608083E8ED36
:10376000F0E080818F77808319BCA7EDB0E08C9169
:103770008E7F8C9380818F7E808310928F0B089533
:103780000F931F93CF93DF930E94151C0E941D1C63
:10379000C8EDD0E088818F778883888180688883AE
:1037A00088818F7D8883E7EDF0E080818068808369
:1037B00019BC1092900B10928D0B10928E0B00EE94
:1037C00010E0F80180818B7F80838881816088830D
:1037D00042E060E080E00E94401BE1EEF0E080818A
:1037E0008E7F8083E2EEF0E0808181608083808143
:1037F00088608083F80180818E7F808388818061EA
:103800008883DF91CF911F910F910895E8EDF0E04B
:1038100080818F7E8083E7EDF0E08081816080830E
:1038200081E080938F0B0C94C01BE8EDF0E0808169
:103830008C7F80831092E20008951092DA0010923B
:10384000E10008951F920F920FB60F9211240BB64C
:103850000F922F933F934F935F936F937F938F9329
:103860009F93AF93BF93EF93FF938091E10082FF0B
:103870000BC08091E20082FF07C08091E1008B7F46
:103880008093E1000E94621E8091DA0080FF1FC0D9
:103890008091D80080FF1BC08091DA008E7F8093DA
:1038A000DA008091D90080FF0DC08CE089BD8EE0E8
:1038B00089BD09B400FEFDCF81E08093900B0E948A
:1038C000421905C019BC1092900B0E9450198091AA
:1038D000E10080FF19C08091E20080FF15C0809157
:1038E000E2008E7F8093E2008091E200806180930D
:1038F000E2008091D80080628093D80019BC85E0F6
:103900008093900B0E94271A8091E10084FF36C0BB
:103910008091E20084FF32C080912C01823010F44B
:103920000E9483128CE089BD8EE089BD09B400FE3F
:10393000FDCF8091D8008F7D8093D8008091E100E9
:103940008F7E8093E1008091E2008F7E8093E20081
:103950008091E20081608093E20080918D0B88234A
:1039600011F084E007C08091E30087FD02C081E090
:1039700001C083E08093900B0E94301A8091E10097
:1039800083FF29C08091E20083FF25C08091E10080
:10399000877F8093E10082E08093900B10928D0BE3
:1039A0008091E1008E7F8093E1008091E2008E7F24
:1039B0008093E2008091E20080618093E20042E027
:1039C00060E080E00E94401B8091F000886080935E
:1039D000F0000E945319FF91EF91BF91AF919F9119
:1039E0008F917F916F915F914F913F912F910F90A8
:1039F0000BBE0F900FBE0F901F9018951F920F9245
:103A00000FB60F9211240BB60F922F933F934F9343
:103A10005F936F937F938F939F93AF93BF93CF9356
:103A2000DF93EF93FF93C091E900CF708091EC009A
:103A3000D82FD17080FDD0E81092E9008091F0007D
:103A4000877F8093F00078940E94461D1092E900D1
:103A50008091F00088608093F000CD2BCF70C093F0
:103A6000E900FF91EF91DF91CF91BF91AF919F91CD
:103A70008F917F916F915F914F913F912F910F9017
:103A80000BBE0F900FBE0F901F9018951F93CF93F2
:103A9000DF9300D0CDB7DEB7E1E9FBE089E99BE039
:103AA0002091F10021938E179F07D1F70E9468198A
:103AB0008091E80083FFF2C08091910B9091920B6E
:103AC000492F50E04A30510508F0E8C0FA01EE589D
:103AD000FF4F0C94D72C803881F0823809F0DEC07B
:103AE0008091950B8F708093E9008091EB0085FBAE
:103AF000882780F91092E90007C080918E0B8823F7
:103B000011F082E001C080E09091E800977F9093EF
:103B1000E8008093F1001092F10095C0282F2D7FCE
:103B200009F0BCC0882319F0823061F0B7C08091E1
:103B3000930B813009F0B2C0933009F080E080939C
:103B40008E0B2BC08091930B811127C08091950B18
:103B50008F7009F4A3C08093E9002091EB0020FF4F
:103B60001CC0933021F48091EB00806214C09091CE
:103B7000EB0090619093EB0021E030E0A90102C0DE
:103B8000440F551F8A95E2F74093EA001092EA002D
:103B90008091EB0088608093EB001092E9008091A7
:103BA000E800877F53C0811179C01091930B1F7774
:103BB0008091E3008078812B8093E3008091E8007E
:103BC000877F8093E8000E94541B8091E80080FF6B
:103BD000FCCF8091E30080688093E300111102C064
:103BE00082E001C083E08093900B58C080588230FF
:103BF00008F054C0AE014F5F5F4F6091950B80910C
:103C0000930B9091940B0E94321ABC01892B09F4FA
:103C100045C09091E800977F9093E80089819A8150
:103C20000E94E41A8091E8008B778093E80036C008
:103C30008038A1F58091E800877F8093E80080912B
:103C40008D0B8093F1008091E8008E778093E800DF
:103C50000E94541B23C0811121C08091930B90912D
:103C6000940B99270297D4F48091E800877F809382
:103C7000E8008091930B80938D0B0E94541B8091E0
:103C80008D0B811106C08091E30087FD02C081E0A9
:103C900001C084E08093900B0E9454198091E80049
:103CA00083FF0AC08091E800877F8093E8008091BD
:103CB000EB0080628093EB000F900F90DF91CF912B
:103CC0001F910895089590933709809336090895B8
:103CD00080913609909137090895E0913609F09165
:103CE0003709309721F00190F081E02D099480E0B0
:103CF0000895E0913609F0913709309721F002805C
:103D0000F381E02D09940895E0913609F091370987
:103D1000309721F00480F581E02D099408952091D9
:103D20003409309135092817390771F09093350916
:103D300080933409E0913609F0913709309721F0EA
:103D40000680F781E02D0994089520913209309181
:103D500033092817390771F090933309809332099A
:103D6000E0913609F0913709309721F00084F18510
:103D7000E02D099408950E94622A0E949C010C94EF
:103D8000B4028F929F92AF92BF92CF92DF92EF9246
:103D9000FF920F931F93CF93DF9300D000D01F9219
:103DA000CDB7DEB70E94CC0100E519E0F12C8F2DD4
:103DB0000E945E024C01F801A080B180A826B926BD
:103DC000A114B10439F4F3940E5F1F4FF5E0FF1214
:103DD000EECF33C08091F30981FD0E946702E12C90
:103DE000CC24C394D12CC5018C219D21892BF1F0C9
:103DF000E982FA8221E0C4018C219D21892B09F4FA
:103E000020E02B830E946B2A81609D838C83CE01EE
:103E100001960E94891FCE0101960E94AE11F80101
:103E2000808191818C259D2591838083E394CC0CA6
:103E3000DD1CFEE0EF12D7CFC6CF80E090E00E94FD
:103E4000891F0E94BB110E94842B80915A098823EC
:103E500089F080914E0990914F090E94772A8C3405
:103E6000910540F010924D0989E399E00E94C50840
:103E700010925A090E946D1E909138098917A1F17C
:103E80000E946D1E8093380984FF2CC0E0915A096E
:103E9000F0E0E75CF64F9081990F990F8370892BC2
:103EA00080830E946B2A90934F0980934E098091E2
:103EB0004D098F5F80934D098430B0F080913909AE
:103EC000843641F480915A09823020F487E490E0EE
:103ED0000E94102410924D0980915A098F5F80939F
:103EE0005A0902C00E94542A0F900F900F900F9011
:103EF0000F90DF91CF911F910F91FF90EF90DF9086
:103F0000CF90BF90AF909F908F9008950C94BB037B
:103F10000895CF93DF9300D000D000D0CDB7DEB7A7
:103F2000FC01892B39F40E946B2A816060E05FEF0D
:103F30004FEF05C040815181628183819481FE01F0
:103F4000319626E0DF011D922A95E9F7782F9D83AF
:103F50008C838D819E810E94DA2626960FB6F89476
:103F6000DEBF0FBECDBFDF91CF910895CF938823E1
:103F700049F1803B29F48EE591E0CF910C9488279C
:103F8000C82F8CEF8C0F813A20F080E58C0F8E3299
:103F900050F48C2F0E944C2C811114C061E08C2FA6
:103FA0000E9481290CC080E28C0F883058F4C770C1
:103FB00081E001C0880FCA95EAF70E94CF29CF910E
:103FC0000C94062ACF910895882351F19CEF980F05
:103FD000913A20F090E5980F9E3220F460E00E9424
:103FE00081290DC090E2980F983058F4877091E0C5
:103FF00001C0990F8A95EAF7892F0E94D5290C9460
:10400000062A9BE5980F933020F480E090E00C9412
:104010008F1E885A873120F480E090E00C94A51E12
:104020000895882321F00E94CF290C94062A089530
:10403000882321F00E94D5290C94062A08950E9415
:10404000EC290E94C2290E94062A0E94402C0E944C
:10405000792B80E090E00E948F1E80E090E00C942D
:10406000A51E0E94DC290C941F20CF93DF9300D063
:1040700000D01F92CDB7DEB70E941329292F2295B9
:104080002F702C3030F42A30A0F42250223030F03F
:104090001DC02C30A9F02F3099F018C0853A28F4B3
:1040A000843090F4823028F40FC090E2980F98305A
:1040B00058F0843058F0853A38F0803F39F404C025
:1040C00093FB882780F903C081E001C080E00F9056
:1040D0000F900F900F900F90DF91CF910895811165
:1040E00001C08AE0662311F0885A01C0835E90E027
:1040F0000C941024CF92DF92EF92FF920F931F93B4
:10410000CF93DF9300D000D01F92CDB7DEB76C0104
:1041100085E0F601DE01119601900D928A95E1F796
:10412000F6012381348189819A812115310531F08D
:104130009F3F31F491E08F3F19F403C091E001C03B
:1041400090E090FD44C3F601F280E580E2948FE0B8
:10415000E8222230310559F0722F3D832C834981AA
:104160005A816F2D8D810E9413298C0102C0098113
:104170001A810E9412290E940C28E12FE295EF700B
:104180008E2F90E0FC01E458FF4F0C94D72C812F28
:10419000807F1F70882311F01295107FFF2021F17E
:1041A0000E94CC2981239091F009892B8093F009FA
:1041B000112351F0002319F081E08093EE09812F43
:1041C0000E94DF290E94062A802F0F900F900F90E7
:1041D0000F900F90DF91CF911F910F91FF90EF9073
:1041E000DF90CF900C94B61F9091F009812F8095AD
:1041F00089238093F0091092EE09802F0E94E41F1A
:10420000112309F4E4C2812F0E94E5290F900F9039
:104210000F900F900F90DF91CF911F910F91FF9012
:10422000EF90DF90CF900C94062A812F807F1F7033
:10423000803211F01295107F002319F0013009F13E
:104240002BC0FF20A9F0EE2061F1F1E0812FEF12E9
:1042500029C00F900F900F900F900F90DF91CF918A
:104260001F910F91FF90EF90DF90CF900C94EF296A
:10427000EE2021F021E0E21609F4A9C20E94F22901
:1042800054C0FF20F1F082E08E1508F4A0C20E9415
:10429000CC29812331F049C0FF2009F444C0E1104A
:1042A00015C0812F0F900F900F900F900F90DF91FE
:1042B000CF911F910F91FF90EF90DF90CF900C94D2
:1042C0001120E1E0EE1508F482C22FC0F6018581CD
:1042D00080FF13C08F708583E4CF003F09F4A5C130
:1042E00008F080C1003E08F085C1FF2009F413C228
:1042F000EE2009F402C213FDFCC1802F0E94B61FFC
:10430000093309F064C282E30F900F900F900F9071
:104310000F90DF91CF911F910F91FF90EF90DF9061
:10432000CF900C94562AE110FEC1812F6FC1812FCE
:1043300086958695837019F08130B9F048C2FF20C8
:1043400019F0C801937002C080E090E00F900F90C8
:104350000F900F900F90DF91CF911F910F91FF90D1
:10436000EF90DF90CF900C94A51EFF20C1F0C80104
:1043700093708115F3E09F07A4F083E691E00E941B
:10438000882760E0802F82958F700E946F2060E008
:10439000802F8F700E946F2081E691E0F6C180E04F
:1043A00090E00F900F900F900F900F90DF91CF91B2
:1043B0001F910F91FF90EF90DF90CF900C948F1E84
:1043C000802FFF2081F00E94C42A0E94792B06349E
:1043D00008F0FDC1E02FF0E0E250F64F81E080836D
:1043E0008093FD09F4C10E94122B0E94792B0634A0
:1043F00008F0EDC1202F30E0F901E250F64F1082B5
:10440000002311F0C901ABC184EF90E5A8C1812F51
:10441000837009F070C0F110DAC1202F2295269523
:104420002770220F220F602F6F70862F90E0A0E080
:10443000B0E06C017D01022E04C0CC0CDD1CEE1C32
:10444000FF1C0A94D2F704FF12C08FE090E0A0E0B6
:10445000B0E004C0880F991FAA1FBB1F2A95D2F78E
:10446000BC01CD01609570958095909503C060E08A
:1044700070E0CB011695169513701230B1F040F52F
:104480006C297D298E299F29113031F10F900F90D1
:104490000F900F900F90DF91CF911F910F91FF9090
:1044A000EF90DF90CF900C9427286C297D298E29DE
:1044B0009F290F900F900F900F900F90DF91CF9149
:1044C0001F910F91FF90EF90DF90CF900C944128B7
:1044D0000E942728C701B6010F900F900F900F90F0
:1044E0000F90DF91CF911F910F91FF90EF90DF9090
:1044F000CF900C940D28FF2019F0812F817001C0FE
:104500008695882309F463C1202F2295269527706C
:10451000220F220F602F6F70862F90E0A0E0B0E096
:104520006C017D01022E04C0CC0CDD1CEE1CFF1CB6
:104530000A94D2F704FF12C08FE090E0A0E0B0E050
:1045400004C0880F991FAA1FBB1F2A95D2F7BC0170
:10455000CD01609570958095909503C060E070E006
:10456000CB011695169513701230B1F040F56C29F9
:104570007D298E299F29113031F10F900F900F90D6
:104580000F900F90DF91CF911F910F91FF90EF90BF
:10459000DF90CF900C94EE286C297D298E299F29DD
:1045A0000F900F900F900F900F90DF91CF911F9170
:1045B0000F91FF90EF90DF90CF900C9400290E9414
:1045C000EE28C701B6010F900F900F900F900F903B
:1045D000DF91CF911F910F91FF90EF90DF90CF90DF
:1045E0000C94DC28023F09F44FC0D8F1033F09F4D2
:1045F0005EC07BCE0F70812F8F71FF2021F00E9453
:104600007528802F4FCE0E949628802F0F900F90F4
:104610000F900F900F90DF91CF911F910F91FF900E
:10462000EF90DF90CF900C941820FF20A9F021E0AC
:104630002E1508F4CCC0812F8F710F900F900F9022
:104640000F900F90DF91CF911F910F91FF90EF90FE
:10465000DF90CF900C94BB2882E08E1508F4B7C091
:10466000EACFFF2099F0812F8F710F900F900F905C
:104670000F900F90DF91CF911F910F91FF90EF90CE
:10468000DF90CF900C947528FF2069F3812F8F71F4
:104690000F900F900F900F900F90DF91CF911F917F
:1046A0000F91FF90EF90DF90CF900C949628FF2011
:1046B00089F0812F8F710F900F900F900F900F90B6
:1046C000DF91CF911F910F91FF90EF90DF90CF90EE
:1046D0000C9460280F900F900F900F900F90DF9127
:1046E000CF911F910F91FF90EF90DF90CF900C949E
:1046F0005B28F601858180FF00CE012F0770802F97
:104700000E94752814FF63C069817A81802F0E94FE
:10471000AC2A61E025C0EE20B1F013FF04C0F60121
:10472000858180FD10C0802F0F900F900F900F900B
:104730000F90DF91CF911F910F91FF90EF90DF903D
:10474000CF900C94E41F012F0770802F0E949628B1
:1047500014FF3DC069817A81802F0E94AC2A60E0FD
:104760000F900F900F900F900F90DF91CF911F91AE
:104770000F91FF90EF90DF90CF900C94F523412F95
:104780004F70602FC6010E9464010F900F900F9030
:104790000F900F90DF91CF911F910F91FF90EF90AD
:1047A000DF90CF900C948827412F4F70602FC60167
:1047B0000F900F900F900F900F90DF91CF911F915E
:1047C0000F91FF90EF90DF90CF900C94E1000F904D
:1047D0000F900F900F900F90DF91CF911F910F913D
:1047E000FF90EF90DF90CF900895CF93DF9300D0AC
:1047F00000D000D0CDB7DEB789839A836B8382E087
:1048000090E09D838C83CE0101960E947A202696AB
:104810000FB6F894DEBF0FBECDBFDF91CF910895E4
:10482000CF93DF93EC0161E00E94F52360E0CE01BD
:10483000DF91CF910C94F523BF92CF92DF92EF924C
:10484000FF920F931F93CF93DF936C01B62EC5E0B9
:10485000D0E000E117E28AE0E82EF12CC601B801B1
:104860000E94AF2CCB01009731F0B7010E94AF2C12
:104870006B2D0E946F20C801B7010E94AF2C8B01E5
:10488000219761F7DF91CF911F910F91FF90EF90EA
:10489000DF90CF90BF900895CF93DF9300D000D0EA
:1048A0001F92CDB7DEB70F900F900F900F900F9023
:1048B000DF91CF910895CF93DF9300D000D000D047
:1048C000CDB7DEB726960FB6F894DEBF0FBECDBFCC
:1048D000DF91CF9108951F93CF93DF93C0915B0930
:1048E00016E080915C09C81799F0D0E01C9FF00198
:1048F0001D9FF00D1124E35AF64F408151816281D2
:104900007381848195810E945B242196C770E9CFD1
:10491000DF91CF911F91089540918D0950918E099B
:1049200060918F09709190098091910990919209FD
:104930000C945B240F931F93CF93DF938091920984
:1049400082958F7009F05DC080918F09882309F4EA
:1049500058C080915B0910915C0960918D0970913C
:104960008E09C0919009D091910991E06F3F09F0B3
:1049700090E0292F06E0811709F443C0209721F029
:104980007F3F21F030E003C031E001C0322F90E0E2
:1049900030FD34C0089FF001099FF00D1124DF01A4
:1049A000A35AB64F11963C911197371327C03C91EB
:1049B000361324C012963C91129731111FC01396E2
:1049C0004D915C9114974C1B5D0B483C5105B0F424
:1049D000809192098F70806180939209EE59F64F11
:1049E00080818F70806180838DE899E00E947A20B9
:1049F000DF91CF911F910F910C946B2401968770DA
:104A0000BACFDF91CF911F910F9108959F92AF92EE
:104A1000BF92CF92DF92EF92FF920F931F93CF93AB
:104A2000DF93CDB7DEB761970FB6F894DEBF0FBE48
:104A3000CDBF8C0185E0F801DE011D9601900D923D
:104A40008A95E1F7F80140815181F280C380D480DA
:104A500090918D0960918E09209190093091910972
:104A60002115310531F06F3F31F481E09F3F19F49A
:104A700003C081E001C080E0F82FF1709F2E80FD1F
:104A800052C18DE8A82E89E0B82EE0908F09F6017A
:104A9000E21BF30BEE2009F4E8C080919209E83C98
:104AA000F10508F0A4C0282F207F09F053C0561349
:104AB00013C0491311C0EF2CF1100EC08F7080612C
:104AC000809392090E948C24C5010E947A208091D3
:104AD0009209F80185835BC1C114D10431F05F3FB5
:104AE00031F481E04F3F19F403C081E001C080E060
:104AF00080FD03C081E08F2502C080E090E0F82FA8
:104B0000F170EF2E80FF1CC080915B0920915C0941
:104B100036E0821709F418C190E0389FF001399F00
:104B2000F00D1124E35AF64F6181561306C06081DF
:104B3000461303C06281F61203C001968770E9CF65
:104B4000EF2CFF2009F423C18091920981608093AA
:104B5000920962C0561306C0491304C0F11002C086
:104B6000F801A7C04D875E87FF867C2DD98AC88A49
:104B70006F2D89890E943520882399F1FF2089F1C2
:104B800020919209822F82958F7090E0029774F0A5
:104B900080918D0990918E0998878F831986DB8685
:104BA000CA862C87CE0107960E947A2086E0F801FB
:104BB000ADE8B9E001900D928A95E1F70E949A2440
:104BC0000E948C2411C0561749F14D875E87FF86DD
:104BD0007C2DD98AC88A6F2D89890E943520811140
:104BE0002CC0C8010E947A20EE24E394D0C0282F64
:104BF000207F49F77C2DD98AC88A6F2D89890E9428
:104C00004C248DE899E00E947A2086E0F50111920B
:104C10008A95E9F70E948C24E12CB9C04913D5CFBD
:104C2000F110D3CFF8018583C8010E947A2086E075
:104C3000F50111928A95E9F7AAC0FF2091F220911F
:104C40009209822F82958F7090E002970CF4AECF7C
:104C500080918D0990918E099A8389831B82DD82D0
:104C6000CC822E83CE0101969FCFE83CF10508F05F
:104C70004BC0EF2CFF2009F4B4CF561330C04913BA
:104C80002EC02091920920FD21C0822F82958F7025
:104C9000482F50E041155105C9F0F80125834F30E8
:104CA000510541F08F5F982F9295907F822F8F70E2
:104CB000892B8583C8010E947A2086E0F801ADE83F
:104CC000B9E001900D928A95E1F72AC086E0F801DB
:104CD000ADE8B9E001900D928A95E1F758C04D8793
:104CE0005E87FF867C2DD98AC88A6F2D89890E94AC
:104CF000352081115BCF8091920981608093920968
:104D0000C8010E947A2043C07C2DD98AC88A6F2DA1
:104D100089890E944C2486E0F50111928A95E9F771
:104D20000E948C2434C0FF2009F45BCF4D875E873E
:104D3000FF867C2DD98AC88A6F2D89890E943520EB
:104D4000882309F44ECF32CF7C2DD98AC88A6F2DA3
:104D500089890E941329292F22952F70223028F447
:104D60009F7039F0811105C00BC0243028F49F706A
:104D700049F4805E883020F0C8010E947A209E2C81
:104D8000E92C05C0F8019581907F99F7F9CF8E2D18
:104D900061960FB6F894DEBF0FBECDBFDF91CF9105
:104DA0001F910F91FF90EF90DF90CF90BF90AF9049
:104DB0009F9008951F93CF93DF93CDB7DEB72C97C5
:104DC0000FB6F894DEBF0FBECDBF4F8358876987FB
:104DD0007A878B879C87CE0107960E9406258823B9
:104DE000D1F09F8188852A853B85232B31F08F3F29
:104DF00031F481E09F3F19F403C081E001C080E0FD
:104E000080FD47C04F81588569857A858B859C8553
:104E10000E945B243EC086E0FE013796DE011196BB
:104E200001900D928A95E1F7FF81E8856A857B857F
:104E30006115710531F0EF3F31F481E0FF3F19F466
:104E400003C081E001C080E080FD23C020915C09A7
:104E500030E0C90101968770992740915B0950E0C5
:104E600084179507F1F1F983EA837D836C8396E0DB
:104E7000929FD001939FB00D1124A35AB64FFE010B
:104E8000319601900D929A95E1F780935C090E940A
:104E90006B2416E080915B0990915C09891771F190
:104EA000189FC0011124835A964F0E94062588231B
:104EB00029F1E0915B091E9FF0011124E35AF64F9E
:104EC0004081518162817381848195810E945B243C
:104ED00080915B0990E001968770992780935B0928
:104EE000D9CF0E94312010925C0910925B09EDE845
:104EF000F9E086E0DF011D928A95E9F72C960FB65E
:104F0000F894DEBF0FBECDBFDF91CF911F91089502
:104F1000CF92DF92EF92FF921F93CF93DF937C01AA
:104F20000E94E813E114F10409F464C0E70121963A
:104F3000F7011491193709F43EC0B8F4143740F45E
:104F4000143008F052C08FEF810F8230F8F052C059
:104F5000143709F04FC0F2E0EF0EF11CFE0184910E
:104F60000E94562AE7017E01E1CF133828F4113858
:104F700068F4103801F13EC01338B9F0143F08F05E
:104F800039C01F77812F90E0926031C0FE0185917A
:104F90009491612F6170E701133018F422969927DC
:104FA00001C023960E94F523DECFFE0185919491E6
:104FB000E70123961CC0FE01C590D490E70123961B
:104FC00084E00E941120103841F461E081E00E94E9
:104FD0006F20F0EACF1AF6E8DF0A61E0C6010E940E
:104FE0001C2484E00E941820BECF812F90E00E94F4
:104FF0001024B9CFDF91CF911F91FF90EF90DF90F8
:10500000CF9008956093D9097093DA098093DB09F2
:105010009093DC090C94A30308950F931F930091C0
:10502000390110913A0120913B0130913C01602BF4
:10503000712B822B932B6093390170933A018093EB
:105040003B0190933C011F910F910C94B2030F937D
:105050001F930091390110913A0120913B01309149
:105060003C01602371238223932360933901709361
:105070003A0180933B0190933C011F910F910C9456
:10508000B2030F931F930091390110913A012091BF
:105090003B0130913C016027712782279327609361
:1050A000390170933A0180933B0190933C011F9129
:1050B0000F910C94B20360E070E0CB010C940228D5
:1050C0000F931F9341E050E060E070E08A019B0184
:1050D00004C0000F111F221F331F8A95D2F7C90188
:1050E000B8011F910F910C9402280F931F9341E078
:1050F00050E060E070E004C0440F551F661F771F4A
:105100008A95D2F78091D9099091DA09A091DB09AB
:10511000B091DC098A019B01082B192B2A2B3B2B10
:10512000C901B8011F910F910C9402280F931F938E
:1051300041E050E060E070E004C0440F551F661F7E
:10514000771F8A95D2F7409550956095709580911C
:10515000D9099091DA09A091DB09B091DC098A01A3
:105160009B01082319232A233B23C901B8011F915E
:105170000F910C9402280F931F9341E050E060E0E0
:1051800070E004C0440F551F661F771F8A95D2F741
:105190008091D9099091DA09A091DB09B091DC09DD
:1051A0008A019B01082719272A273B27C901B80133
:1051B0001F910F910C9402280F931F930091D9090E
:1051C0001091DA092091DB093091DC09602B712BF9
:1051D000822B932B1F910F910C9402280F931F93F6
:1051E0000091D9091091DA092091DB093091DC098D
:1051F00060237123822393231F910F910C94022823
:105200000F931F930091D9091091DA092091DB09BE
:105210003091DC0960277127822793271F910F9116
:105220000C94022808958F929F92AF92BF92DF92C2
:10523000EF92FF920F931F93CF93DF9300D000D094
:105240001F92CDB7DEB78A016623D1F18090D909CC
:105250009090DA09A090DB09B090DC0980913901C7
:1052600090913A01A0913B01B0913C01882A992A82
:10527000AA2ABB2A8FE1E82EF12CD501C4010E2CFD
:1052800004C0B695A795979587950A94D2F780FDA7
:1052900006C081E0E81AF10880F7D12C07C0DE2CA7
:1052A000B8018E2D0E94AC2A019799F38EE0189FC9
:1052B000F0011124ED56F64FE00FF11DD08209C028
:1052C0008EE0189FF0011124ED56F64FE40FF11D0A
:1052D000D08009831A8369817A818D2D0E94AC2A3E
:1052E0000F900F900F900F900F90DF91CF911F9123
:1052F0000F91FF90EF90DF90BF90AF909F908F90B5
:1053000008959091380191799131F1F4382F3695C3
:10531000369536953F30A8F5E0913D01F0913E017C
:10532000282F277081E090E001C0880F2A95EAF7C6
:10533000E30FF11D662319F09181892B03C080953D
:10534000918189238183089520913D0130913E010F
:10535000F90171964FEF9EE05291552331F085137C
:1053600005C061110EC0108201C0492F9150A0F7F5
:10537000662339F0F901E40FF11D47FDFA958283A8
:1053800008950895E0913D01F0913E0180E1DF0133
:105390001D928A95E9F708958091F20908959091F8
:1053A000F209892B8093F209089580959091F20972
:1053B00089238093F20908951092F209089590913B
:1053C000F109892B8093F109089580959091F10955
:1053D00089238093F10908951092F109089580932B
:1053E000DD0908951092DD09089580913D019091A5
:1053F0003E01FC0131969C01205F3F4F80E091917E
:1054000091118F5FE217F307D1F70895E0913D0105
:10541000F0913E018091F2098083E0913D01F0918D
:105420003E0190818091F109892B8083E0913D01BB
:10543000F0913E018091F0098095908189238083CD
:10544000E0913D01F0913E018091EF0980959081BE
:10545000892380838091DD09882361F0E0913D01FB
:10546000F0913E019081892B80830E94F529811162
:105470001092DD0980913D0190913E010C94791EBE
:10548000982F92959F7019F0892F24E001C020E099
:10549000982F9695969511F02E5F892F982F9695B7
:1054A00009F02F5F822F08950C94861F882341F006
:1054B000EFE9FFE03197F1F700C000008150F6CF2F
:1054C000A895089582E084BD93E095BD9DE797BDC2
:1054D00080936E0008952FB7F8948091F40990910D
:1054E000F509A091F609B091F7092FBF08959C0125
:1054F0004FB7F8948091F4099091F509A091F609BD
:10550000B091F7094FBF821B930B089578941F92B7
:105510000F920FB60F9211248F939F93AF93BF9367
:105520008091F4099091F509A091F609B091F709DD
:105530000196A11DB11D8093F4099093F509A093E4
:10554000F609B093F709BF91AF919F918F910F909A
:105550000FBE0F901F901895CF93C82FCB010E94BC
:10556000D600803819F480E090E00CC0EC2FF0E019
:10557000FE2FEE27E050F840E80FF11DE80FF11D77
:1055800085919491CF910895803F08F44AC0803F5F
:1055900011F49FEF03C0813F21F491E09093490AF9
:1055A0003BC0823F11F49FEF03C0833F21F491E0A1
:1055B0009093480A31C0893F70F421E030E09CE0CC
:1055C000980F01C0220F9A95EAF79091470A292B6C
:1055D0002093470A21C0893F11F491E003C08A3F1C
:1055E00021F49FEF90934A0A17C08B3F11F49FEF6D
:1055F00003C08C3F21F491E090934B0A0DC021E051
:1056000030E093E0980F01C0220F9A95EAF790914D
:10561000440A292B2093440A895F843010F41092A5
:10562000450A0895803F08F463C0803F39F48091B3
:10563000490A87FF5DC01092490A0895813F29F405
:105640008091490A1816BCF30895823F39F480917D
:10565000480A87FF4DC01092480A0895833F29F4F5
:105660008091480A1816BCF30895893F88F4845F36
:1056700021E030E0A90102C0440F551F8A95E2F7EE
:10568000CA0180959091470A89238093470A08951B
:10569000893F39F480914A0A181654F510924A0A43
:1056A00008958A3F29F480914A0A87FF21C0F6CFE6
:1056B0008B3F39F480914B0A87FF1AC010924B0A36
:1056C00008958C3F29F480914B0A1816BCF3089575
:1056D0008D5F21E030E0A90102C0440F551F8A957B
:1056E000E2F7CA0180959091440A89238093440A85
:1056F000089587E49AE00E94841E0E946B2A90938A
:10570000FA098093F90908950F931F93CF93DF93BC
:105710008091FD098823D9F18091FB099091FC09C2
:105720000E94772A2091400130E02817390778F548
:105730000E942B2D8F70825E809340010EEF19E046
:10574000C0E0D0E090E0F80181918F01882369F0FA
:10575000CC2319F08C2F9D2F02C084EF90E560912F
:105760003F0170E00E94F52391E02196C634D105F7
:1057700051F720913F0181E0822780933F01909370
:10578000FD090E946B2A9093FC098093FB0980918C
:10579000F9099091FA090E94772AAC019091460A82
:1057A000923019F028E230E002C025E030E04217E4
:1057B000530708F460C0D0914A0AC0914B0A209167
:1057C000480A8091490A822B8D2B8C2B19F4109258
:1057D000460A51C0923020F49F5F9093460A4BC016
:1057E0008091450A8F5F8093450A8F7021F0109257
:1057F0004A0A10924B0A0E94792BD0934A0AC0930E
:105800004B0A8091F8098F5F8093F8098D3098F1E9
:105810008091380187FD02C080E001C085E080935F
:10582000F8099091440A292F220F220F290FE7E44B
:10583000FAE03CEE44E181818823C1F0992349F0EC
:10584000181614F08FEF01C081E0829F802D112483
:105850000AC018162CF48F5F85312CF0418306C0E6
:1058600081508C3E14F0818301C0318331968AE0EF
:10587000EB34F80701F7DF91CF911F910F91089555
:10588000E7E4FAE085E0DF011D928A95E9F71092DE
:10589000440A089580E00895CF939091EE09911104
:1058A00035C0C82F80914C0A882319F0813051F0FF
:1058B0002AC0E0913D01F0913E0180818252823008
:1058C00030F508C0E0913D01F0913E0180818252A7
:1058D0008230A0F48C2F0E94221781110AC0C1319E
:1058E00051F40E94A4029091380180E189278093AD
:1058F000380191E001C090E0917009C08C2F0E94A6
:105900004A2C91E004C010924C0A01C090E0892F0B
:10591000CF9108956DEE7EEF80E090E00E946230BE
:1059200060E082E090E00E94443060E083E090E03C
:105930000E94443060E084E090E00E94443060E0E7
:1059400085E090E00C94443080E090E00E943E308E
:1059500021E08D3E9E4F09F020E0822F0895AA1B82
:10596000BB1B51E107C0AA1FBB1FA617B70710F04A
:10597000A61BB70B881F991F5A95A9F7809590957C
:10598000BC01CD01089597FB072E16F4009407D0B3
:1059900077FD09D00E94AF2C07FC05D03EF490950E
:1059A00081959F4F0895709561957F4F0895EE0FF3
:1059B000FF1F0024001C0BBE0790F691E02D0994F8
:1059C0008F929F92AF92BF92CF92DF92EF92FF920F
:1059D000CF93DF93EC01688179818A819B81611586
:1059E00071058105910521F464E279ED8BE597E07D
:1059F0002DE133EF41E050E00E94783049015A0137
:105A00009B01AC01A7EAB1E40E9497306B017C01D5
:105A1000ACEEB4EFA50194010E94A530DC01CB01EE
:105A20008C0D9D1DAE1DBF1DB7FF03C00197A109C1
:105A3000B04888839983AA83BB839F77DF91CF91F6
:105A4000FF90EF90DF90CF90BF90AF909F908F909E
:105A500008950C94E02C80E091E00C94E02CA0E000
:105A6000B0E08093000190930101A0930201B093F4
:105A700003010895FB01DC0104C08D9101908019A0
:105A800021F441505040C8F7881B990B08950F939B
:105A90001F93CF93DF93CDB7DEB72E970FB6F89451
:105AA000DEBF0FBECDBF0D891E8986E08C831A83B1
:105AB00009838FEF9FE79E838D83AE01475E5F4F23
:105AC0006F89788DCE0101960E94762DEF81F88541
:105AD000E00FF11F10822E960FB6F894DEBF0FBEB6
