:100000000C94B5000C94D4000C94D4000C94D4003F
:100010000C94D4000C94D4000C94D4000C94D40010
:100020000C94D4000C94D4000C948B1C0C94671D7D
:100030000C940C130C94D4000C94D4000C94D400A5
:100040000C94D4000C94D4000C94D4000C94D400E0
:100050000C94D4000C9459290C94D4000C94D40022
:100060000C94D4000C94A7120C94D4000C94D400DB
:100070000C94D4000C94D4000C94D4000C94D400B0
:100080000C94D4000C94D4000C94D4000C94D400A0
:100090000C942F050C94D4005C08660866086F0861
:1000A0006F087C087C0890089008B208B208B20873
:1000B000B208A308AC11B511B711B911BB11BB112E
:1000C000BF11C211C511C711C911C911CC11CC1171
:1000D000CF11CF11CF11CF11D211D211D211D21114
:1000E000D511D511D41DF71DB71EF71DB71E3C1E27
:1000F0005F1EB71E811E941E2E212E217C217C2185
:10010000FE2149227223722372227223D121D1212E
:100110004A23722372235F23291E1F2021222324B6
:100120002526272D2E2A2B141A0815171C180C12F9
:10013000132F303139041607090A0B0D0E0F333413
:100140002880791D1B06190511103637387D524C51
:10015000787B7A80802C8080807E7C50514F6262D8
:100160000028008315087432000011241FBECFEF51
:10017000D0E2DEBFCDBF15E0A0E0B1E0E0E6FFE5F4
:1001800000E00BBF02C007900D92A43FB107D9F762
:100190002BE0A4EFB5E001C01D92AD39B207E1F745
:1001A0000E9472180C94AE2F0C940000E82FF0E01F
:1001B0008EE0989FE00DF11D1124E85EFE4F8491C2
:1001C00008950F931F93CF93DF938C01C62FD42FE5
:1001D0000E949F28F8019281C130C1F028F0C430FC
:1001E00021F1C53051F136C0992391F09D2F9270C5
:1001F000D0FD90622D2F2470982321F080FD02C045
:1002000085E30EC0822349F489E20AC0911103C03C
:100210008091F4051BC082FF02C08DE301C081E222
:100220008093F4058091F4050DC0992321F082722A
:1002300089F48CE207C08CE209C0992331F085FD76
:1002400009C082E50E94212003C082E50E944F2060
:100250000E94D928F8018281882309F43FC0C33065
:1002600081F050F4C230D1F585E090E0DF91CF917C
:100270001F910F910C948C17CA30A9F0CB30D1F09C
:100280002DC09091620681E089278093620690914B
:10029000F30988E889278093F309DF91CF911F91B3
:1002A0000F910C94EB038D2FDF91CF911F910F9144
:1002B0000C943408DC3059F48091940B843039F07C
:1002C0000E94A9060E94B806299A0E94B9048D2F9F
:1002D000DF91CF911F910F910C943E18DF91CF9138
:1002E0001F910F91089580E090E0089580B18F3FB5
:1002F00059F42FB130E0209530952F73332781E0EA
:10030000232B19F480E0089581E0089580919D0BDE
:1003100090919E0B8A3A9B4BC9F480912E018823C1
:10032000A9F0539A5B98549A5C98249A2C9A8FEF70
:1003300091E12AE7815090402040E1F700C00000A1
:100340005C9A8091C900877F8093C900089580914D
:100350009D0B90919E0B8A3A9B4B31F410929E0B11
:1003600010929D0B0E94E71485B7806885BF85B702
:10037000806885BF0E94C504299A219A80E50E9461
:100380008E040E94F7070E9435298FEC97E00197B1
:10039000F1F700C0000080B3807C80BB81B38F6325
:1003A00081BB81B111B882B18FEF82B90895CF922C
:1003B000DF92EF92FF920F931F93CF93DF93809181
:1003C000F605882351F00E947601882309F4A0C025
:1003D0001092F60581E08093F5058091F505811175
:1003E0000EC00E943E2920913D0630913E068217A4
:1003F000930709F48DC090933E0680933D06EFE38A
:10040000F6E060E070E086E4F82EA7EFB5E001E0EA
:1004100010E087B1282F207EC801062E01C0880F6A
:100420000A94EAF7822B87B980E18A95F1F7E09088
:100430000401ED0140E050E0483048F480B190E024
:10044000042E02C0959587950A94E2F70AC08FB1F1
:1004500090E09A012850310902C0959587952A9518
:10046000E2F780FF02C090E001C090E888818695A5
:10047000892B89939801042E02C0220F331F0A94FE
:10048000E2F78E1538F080819181282B392B31834A
:1004900020830DC0893058F420953095C080D180DC
:1004A0002C213D2131832083811101C0FA944F5FBB
:1004B0005F4F4E30510509F0BFCF1E966F5F7F4FE3
:1004C00032966530710509F0A4CFF11007C087B1ED
:1004D0008F6187B981E08093F6051AC080910B0186
:1004E00082FD07C08CE090E0909321098093200961
:1004F00007C0807F8031B1F310922109109220094A
:100500008091F505882321F01092F5050E94D7010E
:1005100081E0DF91CF911F910F91FF90EF90DF90DD
:10052000CF900895E82FF0E0EE0FFF1FE15CF94F48
:10053000808191810895CF93C0E00E94F11FC81778
:1005400010F4CF5FFACFCF910895809128018A30BF
:1005500020F10E94D701E7EFF5E080E090E02191E3
:10056000222339F0803211F0833211F49C5901C0FA
:100570009F5F8F5F863499F780912E01983C39F404
:10058000811114C08AE10E948C1781E008958111C5
:100590000CC081E091110AC008C087B18F6187B992
:1005A00080E18A95F1F70C94760180E008958091BE
:1005B000390184FD05C08FEB8093040180E004C005
:1005C00087EF8093040186E060E00C94DA20249A9F
:1005D0002C98E0E0FAEFE491E0936406E1E0FAEFB2
:1005E000E491E0936506E0E0FBEFE491E0936606BA
:1005F000EF3F19F481E080936106A9E4B6E080E062
:1006000090E0FC01EE5FF740459155916591749142
:1006100011964C9311975C9312966C931297939545
:100620001396811528E0920761F70895CF93C82F9C
:10063000811102C02C9A2BC0813071F480910B0182
:1006400082FF299A20914E0640914C0660914D06FA
:1006500080E20E9424041BC08230C9F480910B0107
:1006600082FD15C02898E8E9FAE08DEA9AE0209129
:100670004F0630915006409151062193319341939A
:100680008E179F07A1F788E99AE00E94200481E075
:1006900090E001C0880FCA95EAF790916306892B14
:1006A00080936306CF910895CF93C82F811102C024
:1006B0002C980CC0813039F420E040E060E080E20A
:1006C0000E94240403C0823009F4289A81E090E05B
:1006D00001C0880FCA95EAF7809590916306892337
:1006E00080936306CF910895EF92FF920F931F932B
:1006F000CF93DF93D82F04E616E0C0E0E62EF12C6E
:10070000DD2331F0F80180818D1B883088F401C031
:100710008C2F970102C0359527958A95E2F720FF27
:1007200004C08C2F0E94160303C08C2F0E94540318
:10073000CF5F0F5F1F4FC33019F7DF91CF911F912C
:100740000F91FF90EF9008956091630680E00C9404
:100750007403CF92DF92FF920F931F93CF93DF9397
:10076000F82E04E616E0C0E0D0E0CC24C394D12CEF
:10077000F80181918F018F110DC020916306C60190
:100780000C2E01C0880F0A94EAF782278093630633
:100790000E94A4032196C330D10551F7DF91CF9178
:1007A0001F910F91FF90DF90CF900895682F66956D
:1007B00081E00E94740380910B018C7F843229F4C4
:1007C000299A289881E0809342070895682F6695BA
:1007D00089E00C9474036091620685E10C947403C3
:1007E000682F80E10E9474030C94EB0328B1362F2C
:1007F0003095232338B1632B3FB7F894FC0186E191
:100800008150E1F0919148E068B997FF28B9990FBC
:10081000000000C028B9000000C000C000C000C037
:1008200000C000C000C000C000C000C000C000C0C8
:1008300000C000C000C04A9539F7E2CF3FBF08951D
:100840003E9A60E40C94F603E82FE295E37090E39F
:10085000E99FF00111248F70E459F94FE80FF11D61
:1008600060A3408B208381E080932C070895880F3C
:100870008093840A6093850A4093860A88EF809368
:10088000660A8091660A8F3F39F040E063E084E8B1
:100890009AE00E94DB04F5CF0895CF93DF93C82F31
:1008A000D62F45EC6EEF0E9437044D2F6DEF8C2F45
:1008B000DF91CF910C9437040F931F93CF93DF9365
:1008C000C82F8B0161E070E090E00E944D04CC0FD6
:1008D000C093840AE80110E008EF1093850AE6E867
:1008E000FAE0DE018D9181938AE0E639F807D1F7CD
:1008F0000093660A8091660A8F3F39F040E062E11A
:1009000084E89AE00E94DB04F5CF105F6096103C0B
:1009100021F7DF91CF911F910F910895CF93DF932E
:10092000C82F63E00E944D0440E060E08C2F0E94DD
:10093000370441E060E08C2F0E94370440EC61E016
:100940008C2F0E9437048FE19EE40197F1F700C0DD
:10095000000060E08C2F0E944D04D0E04FEF6D2F1F
:100960008C2F0E943704DF5FD931C1F7DF91CF911F
:10097000089580912C07882339F010922C076CE69B
:1009800076E080E50C945C040895E5E6FAE01082D8
:100990008FEF818312821092B90082E08093B800B9
:1009A00085E08093BC0008959091650A9D7F81E069
:1009B00009F080E008950F931F93CF93DF93182FD2
:1009C000D92FC62F042F653110F081E043C00E945B
:1009D000D404811105C082E08A95F1F700C0F7CFF9
:1009E0000093670AE12FFD2FAAE6BAE06C2F70E0B2
:1009F000CD018A569A40861797071CF481918D93F2
:100A0000F7CF7093830A6093820A1092690A10925A
:100A1000680A8091650A8230B1F481E08093650AAA
:100A20008091680A9091690A9C012F5F3F4F309333
:100A3000690A2093680AFC01E659F54F808180938A
:100A4000BB0085E804C081E08093650A85EA809355
:100A5000BC0080E0DF91CF911F910F9108951F920C
:100A60000F920FB60F9211240BB60F922F933F9354
:100A70004F938F939F93EF93FF938091B900887F5B
:100A8000883239F180F4803109F4A2C030F488232F
:100A900009F4A2C08830E9F0A6C08831B9F08032EC
:100AA00009F483C0A0C0803491F138F4803309F494
:100AB0007CC0883309F479C096C08035C1F188358F
:100AC00009F458C0883409F08EC06FC083E0809369
:100AD000650A2091680A3091690A8091820A909192
:100AE000830A281739070CF056C08091680A909144
:100AF000690A9C012F5F3F4F3093690A2093680A6F
:100B0000FC01E659F54F80818093BB002EC084E044
:100B10008093650A80917E0A90917F0A01972091C7
:100B2000800A3091810A28173907FCF419C0809196
:100B3000800A9091810A9C012F5F3F4F3093810A78
:100B40002093800A4091BB00FC01EF5AF54F40838F
:100B500080917E0A90917F0A0197281739072CF41B
:100B600088EF8093660A85EC3CC088EF8093660A24
:100B700085E837C08091800A9091810A9C012F5F9F
:100B80003F4F3093810A2093800A2091BB00FC01E3
:100B9000EF5AF54F20838091670A882311F08FEF79
:100BA0000BC01092650A8FEF10C08091670A8823EE
:100BB00039F08091B900887F8093660A85EA11C078
:100BC0001092650A8091B900887F8093660A08C0F8
:100BD00082E08093650A07C01092660A1092650A47
:100BE00085E98093BC00FF91EF919F918F914F9188
:100BF0003F912F910F900BBE0F900FBE0F901F9043
:100C000018959D5F811524E0920710F09350FACF5C
:100C10000895EF92FF920F931F93CF93DF9300D02D
:100C200000D01F92CDB7DEB7062F142F79010E9496
:100C30000106492F9430B8F5602F70E0869F90012F
:100C4000879F300D1124832F9927A12FB0E08A9F11
:100C5000F0018B9FF00D9A9FF00D112420E031E000
:100C6000261B370B2A9FC0012B9F900D3A9F900D9A
:100C700011249C839983892F8F0F8D838A831F1B57
:100C80001B83842F90E0FE01E80FF91F3181FE01E4
:100C9000E80FF91F2081FE01E80FF91F8281F7019B
:100CA0008183308322830F900F900F900F900F90CD
:100CB000DF91CF911F910F91FF90EF900895CF9307
:100CC000DF9300D000D01F92CDB7DEB7FA0193E0DA
:100CD000899F90011124232F330F330B1C8219821B
:100CE000982F990F890F8150869FC00111249D83F1
:100CF0009A83691B6B83DE01A20FB31F13968C913D
:100D00008183DE01A20FB31F12968C918083DE01D6
:100D1000A20FB31F11968C9182830F900F900F90AA
:100D20000F900F90DF91CF9108958AE090E00C949E
:100D30000B2FAB01BC018AE090E00C94292F60914D
:100D40000A0170910B0180910C0190910D010C949E
:100D5000990680ECE0EBFAE0DF011D928A95E9F755
:100D600085E1E8E9FAE0DF011D928A95E9F7089547
:100D70000F931F93CF9380910B0182FF0E94A906CE
:100D80008091510791E08B3740F0209120093091FC
:100D900021092D30310508F490E020910E0190FDDD
:100DA0000AC021113CC080ECE0EBFAE0DF011D92AB
:100DB0008A95E9F734C040912009509121094D30BE
:100DC000510520F0843028F0845001C08C5F80935E
:100DD0005107E0915107211107C0F0E0EF56FE4F97
:100DE0003081E8E9FAE011C0AE2FB0E0AF56BE4F57
:100DF0003C91A0EBBAE08C91839FC00111249D939C
:100E00008BE0A037B807B9F7E8CF8081839FC00196
:100E100011249193AAE0ED3AFA07B9F7C2CF00EB9B
:100E20001AE0C0E080912C01811104C0809163061A
:100E3000882311F0C03239F0F801228140816181AC
:100E40008C2F0E942404CF5F0D5F1F4FC03451F7D9
:100E500080916106882339F088E99AE0CF911F914B
:100E60000F910C942004E8E9FAE0808123E0829F4E
:100E7000C0011124959587959595879581938AE072
:100E8000ED3AF80791F7E8CF20910B0122FF1DC042
:100E900020E73BE00E940906A0EBBAE0E8E9FAE0AF
:100EA00080E02091700B3091710B4091720B873074
:100EB00018F42083318342832D933D934D938F5FAC
:100EC0003396803471F70C94B80608950F931F93EE
:100ED000CF93DF93162FD42F0E940106082FC92F1E
:100EE00080910B0182FF23C0887F883029F44D2F29
:100EF000612F802F0E94440700930A01C3708091E4
:100F00000B018C7FC82BC0930B0110930C01D09365
:100F10000D0160910A0170910B0180910C0190917B
:100F20000D01DF91CF911F910F910C949906DF91E4
:100F3000CF911F910F91089590910B0192FD03C0E5
:100F40000E94A90624C0882321F0893118F081E08D
:100F500001C088E190910B019770282F220F220F7A
:100F6000220F922B90930B01299A90916106911177
:100F700001C02898813071F490910B0140910D01CE
:100F800060910C0180910A0193700E9466070E9493
:100F9000B80618C0823051F480E4E1EAF7E0DF01DE
:100FA0001D928A95E9F70E94A9060CC0843029F4A5
:100FB00080913A010E94D60305C08950823010F416
:100FC0001092430760910A0170910B0180910C010E
:100FD00090910D010E94990690910B0140910D0195
:100FE00060910C0180910A0193700C9466070E9435
:100FF000772B811104C00E945D2B0E949F0689E01F
:1010000090E00E94032F91E0811101C090E0909345
:101010000E010E94950660930A0170930B01809364
:101020000C0190930D0180910D01811103C08FE798
:1010300080930D0184B1836084B980910B01869502
:10104000869586950C949C07EBE0F1E0808182FB0D
:10105000222720F991E0922790FB82F980838695E0
:10106000869586950C949C07CF92DF92EF92FF9223
:101070000F931F93CF93DF93D82FE0900A018091B5
:101080000B018370F82EC0900C0140910D01042FCC
:10109000D0FF02C0CFEF01C0C1E00E949F2881FDB8
:1010A000C1958D2F90E08E30910508F05BC0FC015A
:1010B000E45BFF4F0C94AA2BDF91CF911F910F910E
:1010C000FF90EF90DF90CF900C94240880910B015B
:1010D0008695869586958C0F0E949C0743C08091CB
:1010E0000A0120910B01922F93707C0124E1C2022E
:1010F000E00CF11C112438C080910C0191E1C9026F
:1011000060011124C80ED11C2FEFC216D10409F0C2
:101110001CF4D7FC36C028C0CC24CA94D12C24C0DF
:1011200080910D0191E1C902A00111248A01080FEB
:10113000111D0F3F110509F01CF417FD25C014C047
:101140000FEF10E011C00E94A9060E94B80660913E
:101150000E0181E0682760930E0189E090E00E9413
:10116000172F02C0D33098F0402F6C2DC701DF91AC
:10117000CF911F910F91FF90EF90DF90CF900C9443
:101180006607C12CD12CF0CF00E010E0EDCFDF914D
:10119000CF911F910F91FF90EF90DF90CF90089526
:1011A00090916106992319F0E0EBFAE00BC0E8E9B1
:1011B000FAE081836083428333969AE0ED3AF9073F
:1011C000C1F7F2CF81836083428333969BE0E0379F
:1011D000F907C1F70C94B806FC0190916109808170
:1011E000843649F581818B3B21F4CF0103960C9421
:1011F000F414933019F482810C949C07943021F4F8
:10120000438162810C94D0089530A9F4873068F44A
:10121000A82FB0E084819381228111962C9311979D
:101220009C9312968C930C94B8068F3F21F4828184
:1012300093810C949B230895EF92FF920F931F9339
:10124000CF9390910B0192FF76C0C62F987F90317B
:1012500079F529990AC090911B09911106C0299A24
:1012600090916106911101C028989EE0899FF0013C
:101270001124E55BFE4FEC0FF11D008110E0EC2E18
:10128000E694F12CF701E75AF84F8EE78083F801D6
:10129000EF55F84F80830E94FE2BF701EE5AF84F6E
:1012A0008083F801E05AF84F80838FE780935107DD
:1012B00080910B01887F8831F1F529990AC08091CE
:1012C0001B09811106C0299A80916106811101C014
:1012D000289820914407822F90E0019683709927E7
:1012E000FC01E55BF84F30813E3F7CF4FC01EB5B99
:1012F000F84F808180314CF081E0820F843018F407
:101300008093440702C0109244078091440790E004
:10131000FC01EB5BF84FC083FC01E55BF84FC08339
:101320000E94FE2BE0914407F0E0E05AF84F8083E2
:101330008FE780935107CF911F910F91FF90EF900E
:101340000895CF93C82FE0914107F0E0EF56FE4F8C
:1013500090910B01408160910C0180910A01937082
:101360000E94440730910901209141073C9F200DC4
:101370001124209341072C1738F08C2F90E0820F16
:10138000911D8F3791051CF0319530930901CF9154
:101390000895CF92DF92EF92FF920F931F93CF9316
:1013A000DF93C1EAD7E030E6E32E37E0F32E00EB1F
:1013B0001AE080E0E881E23068F0F0E0EF56FE4F9E
:1013C000A8016081F70180810E945F0688818250B8
:1013D000888381E02196FFEFEF1AFF0A0D5F1F4F10
:1013E00097E0C13ED90731F7C9E5D7E092E5C92EAC
:1013F00097E0D92E28E9E22E2AE0F22E1881123049
:1014000068F0E12FF0E0EF56FE4FA7016081F60192
:1014100080810E945F061250188381E02196FFEFC1
:10142000CF1ADF0A93E0E90EF11CE7E0C036DE07D1
:1014300029F7811113C080910B01887F803171F4ED
:101440008091940B843051F080916306811106C025
:1014500080912C01811102C02998289ADF91CF91A7
:101460001F910F91FF90EF90DF90CF900C94B806F2
:101470006F927F928F92EF92FF920F931F93CF9371
:10148000DF9380914007109240078F3F09F4B3C06B
:101490000E94A90670E6E72E77E0F72ECBE4D7E0AE
:1014A00005E417E04DEA5AE06FEFF70181917F0103
:1014B0000E945F0628812E3F94F127FD2EC0A22FA7
:1014C000022E000CBB0BA55BBE4F35E08C9190E06B
:1014D000FC01EE0FFF1F8E0F9F1FFC01E055F54F23
:1014E0006090AD0A7090AE0A8090AF0A60827182FF
:1014F000828231501E963111E9CF822F8595082EB8
:10150000000C990BFC01EE0FFF1F8E0F9F1FFC01BB
:10151000E856F54F60827182828221502883F8015B
:1015200020812031BCF52E3094F5A22F022E000C24
:10153000BB0BA55BBE4F35E08C9190E0FC01EE0F3C
:10154000FF1F8E0F9F1FFC01E055F54F6090AD0A05
:101550007090AE0A8090AF0A6082718282823150B0
:101560001E963111E9CF822F27FF02C081E0820F42
:101570008595082E000C990BFC01EE0FFF1F8E0FB6
:101580009F1FFC01E856F54F6082718282822F5FB7
:10159000F801208321960F5F1F4FF7E0CF34DF075C
:1015A00009F080CF8091440790E0FC01E55BF84FA3
:1015B00020812E3FACF4FC01EB5BF84F8081803141
:1015C0007CF08091940B843059F0809163068111F6
:1015D00007C080912C01811103C02998289A0BC063
:1015E000DF91CF911F910F91FF90EF908F907F909F
:1015F0006F900C94B806DF91CF911F910F91FF90DF
:10160000EF908F907F906F900895CF92DF92EF923E
:10161000CF93DF9320913F072F5F422F50E090E060
:10162000880F991F481759071CF420933F0703C1DF
:1016300010923F070E94A9069091190180911B0109
:10164000981330C090911A0180911C0198132AC000
:1016500080916107809360070E94FE2B65E070E037
:101660000E94962B80931B010E94FE2B6DE070E080
:101670000E94962B80931C0180934B07E0911B01E5
:101680009EE0E99FF0011124E55BFE4FE80FF11D9C
:101690008081803419F481E080931B010E94FE2B2D
:1016A000809361074DEA5AE06FEF809160070E94D6
:1016B0005F06CFE0D1E02BE131E0DE014EE0EC91BE
:1016C00011968C9111974E9FF0011124E55BFE4F0E
:1016D000E80FF11D808190E0FC01EE0FFF1F8E0FDF
:1016E0009F1FFC01E055F54FC090AD0AD090AE0AA7
:1016F000E090AF0AC082D182E28212962A173B079D
:10170000F1F64DEA5AE06FEF809161070E945F06A3
:10171000E0911B0180911C019EE0E99FF0011124E2
:10172000E55BFE4FE80FF11D808190E0FC01EE0FBC
:10173000FF1F8E0F9F1FFC01E055F54F8091AD0AF2
:101740009091AE0AA091AF0A80839183A283E8E9C9
:10175000FAE08091AD0A9091AE0AA091AF0A819310
:101760009193A1938AE0ED3AF80799F70E94B806A1
:1017700089E191E0EFE0F1E0228120832381218360
:1017800032968E179F07C1F79091190120911B0186
:1017900080911A01921721F1291710F021E001C060
:1017A0002FEFE5E1F1E0422F022E000C550B490F1F
:1017B000511D688170E04617570761F43981831322
:1017C00009C0282F30E02C30310514F48F5F31C070
:1017D00081502FC02296EC17FD0759F7920F21C0B8
:1017E00020911C01821739F1281710F021E001C067
:1017F0002FEFE5E1F1E0422F022E000C550B480FD0
:10180000511D3881931310C0698170E04617570746
:1018100059F4292F30E02430310514F49F5F01C0C2
:1018200091509093190107C02296EC17FD0749F7D4
:10183000820F80931A01DF91CF91EF90DF90CF90CC
:101840000895EF92FF920F931F93CF93DF930E941F
:10185000A90680914207882309F46FC010924207BD
:1018600080913A010E941329082F882309F45DC052
:10187000873041F486EB8093AE0A8093AD0A809363
:10188000AF0A0DC090E001972DEA3AE04FEF6FEFFD
:101890009695982F8827979587950E9409063BE48F
:1018A000E32E31E0F32E10E0C0E0D0E06C2F712F7A
:1018B000802F0E947F290297B0F0F701EC0FFD1FE7
:1018C000808190E0FC01EE0FFF1F8E0F9F1FFC0137
:1018D000E055F54F8091AD0A9091AE0AA091AF0A04
:1018E00080839183A2832196CE30D105F9F61F5FC4
:1018F0008EE0E80EF11C1530B9F6E8E9FAE08DEA61
:101900009AE02091AD0A3091AE0A4091AF0A21933E
:10191000319341938E179F07A1F7DF91CF911F91CC
:101920000F91FF90EF900C94B8060E94B80680913A
:10193000940B843011F02998289ADF91CF911F9150
:101940000F91FF90EF9008950F931F93CF93DF9324
:1019500020913E072F5F422F50E090E0880F991FA3
:10196000841795071CF020933E0732C010923E0763
:101970000E94FE2B8C010E94FE2B6EE070E00E9404
:10198000962BC82FC80165E070E00E94962B9EE060
:10199000899FF0011124E55BFE4FEC0FF11D0081E2
:1019A00010E0F801EF55F84F8081823088F48EE71F
:1019B0008083C695D0E0FE01E75AF84F80830E94ED
:1019C000FE2BF801E05AF84F8083CE5AD84F888317
:1019D000DF91CF911F910F910C94C9096F927F9263
:1019E0008F92DF92EF92FF920F931F93CF93DF932B
:1019F00090913D079F5F90933D07891708F084C041
:101A00000E94A9060E94FE2B6EE070E00E94962BB9
:101A1000EC01DD27FE01EF55F84F8081811109C0EF
:101A200087E080830E94FE2BC05AD84F8883109293
:101A30003D0701EA17E060E6E62E67E0F62EC0E01B
:101A4000D0E07EE0D72EF8018081882309F446C0DB
:101A50004DEA5AE06FEFF70180810E945F068C2FFC
:101A6000869590E036E0DC01AA0FBB1F8A0F9B1F12
:101A7000DC01A856B54FF8012081832F821B8530E9
:101A8000D8F4FE01D89EE00DF11D1124E55BFE4F58
:101A9000808190E0FC01EE0FFF1F8E0F9F1FFC0165
:101AA000E055F54F6090AD0A7090AE0A8090AF0A95
:101AB0006082718282820CC0853051F46090AD0AE0
:101AC0007090AE0A8090AF0A6D927D928C921297C0
:101AD0003F5F383081F62150F801208321960F5F57
:101AE0001F4FFFEFEF1AFF0ACE30D10509F0ABCF41
:101AF000DF91CF911F910F91FF90EF90DF908F902A
:101B00007F906F900C94B806DF91CF911F910F9149
:101B1000FF90EF90DF908F907F906F9008952F92BD
:101B20003F924F925F926F927F928F929F92AF926D
:101B3000BF92CF92DF92EF92FF920F931F93CF93BA
:101B4000DF9380913C078F5F80933C07882309F4E3
:101B5000EBC080ECE0EBFAE0DF011D928A95E9F73B
:101B600080914307882341F080913B07882331F11E
:101B7000815080933B07D8C085E08093430784E180
:101B800080933B07C1EAD7E000E617E030E1C32EBF
:101B900048E9E42E4AE0F42E55E1D52EC9920E9480
:101BA000FE2BF80181938F01D701ED2D1D92EA954F
:101BB000E9F7F7E0C63ADF0789F7D6CFC1EAD7E001
:101BC00000E617E0812C912CBEE05B2E85E0E82E2C
:101BD000F12C94E0692E712C29E0C22ED12C482CD6
:101BE0008881813118F0109243079EC0882309F440
:101BF0007CC04DEA5AE06FEFD8018C910E945F06DD
:101C00004EE0589C9001599C300D1124255B3E4FAD
:101C10008881B42FB81BBE30B0F4F901EB0FF11D71
:101C2000808190E0FC01EE0FFF1F8E0F9F1FFC01D3
:101C3000E055F54F8091AD0A9091AE0AA091AF0AA0
:101C400080839183A2834F5F413111F70E94FE2B65
:101C50005C010E94FE2B9C01C501B7010E94962BDE
:101C6000481609F442C0C901B7010E94962B4816D4
:101C7000E1F1888181508883811137C080914307C9
:101C8000815080934307882381F1482F50E09301CE
:101C9000241B350B220F331FF901EE0FFF1F2E0FF0
:101CA0003F1FF901E856F54F2090AD0A3090AE0A7B
:101CB0004090AF0A2082318242828130B1F0440FDD
:101CC000551FC601841B950BFC01EE0FFF1F8E0FE5
:101CD0009F1FFC01E856F54F8091AD0A9091AE0A26
:101CE000A091AF0A80839183A283EFEF8E1A9E0AA0
:101CF00021960F5F1F4FF5E08F16910409F06FCF0B
:101D0000DF91CF911F910F91FF90EF90DF90CF90D7
:101D1000BF90AF909F908F907F906F905F904F900B
:101D20003F902F900C94B806DF91CF911F910F91A7
:101D3000FF90EF90DF90CF90BF90AF909F908F90EB
:101D40007F906F905F904F903F902F9008952F92CB
:101D50003F924F925F926F927F928F929F92AF923B
:101D6000BF92CF92DF92EF92FF920F931F93CF9388
:101D7000DF9300D000D0CDB7DEB780913A078F5FF8
:101D800080933A07882309F425C18091430788236B
:101D900069F10E94FE2B66E070E00E94962B382EBF
:101DA0000E94FE2B66E070E00E94962B282E0E9477
:101DB000FE2B66E070E00E94962B89830E94FE2B2A
:101DC00066E070E00E94962B8A83BBE4EB2EB7E0BE
:101DD000FB2E05E417E08BE4C82E81E0D82EA12C61
:101DE000B12C1C821B829EE0492E0FC085E080939F
:101DF0004307EBE4F7E0A5E4B7E08DE011928D93A3
:101E000027E0E135F207D1F7C4CFD7016C90F80194
:101E1000708076144CF5FB81F530D1F020E030E095
:101E2000F601E20FF31F818190E0FC01EE0FFF1F2E
:101E30008E0F9F1FFC01E055F54FDF0183E01D92DF
:101E40008A95E9F72F5F3F4F2C30310549F706C0DF
:101E5000ABE9BAE0EFE01D92EA95E9F7D7011C92F1
:101E60002DE0F801208388C080910A0120910B01A8
:101E7000922F93708A0D9B1D0E9401064C015B807E
:101E80003514A1F13981351589F167FC2FC084E043
:101E90008515B8F0AB81BC814A9EF0014B9EF00DD8
:101EA0001124E55BFE4FE60DF11D67FCFA952081DC
:101EB00030E0C901880F991F280F391F2055354F71
:101EC0000CC0262D2595022E000C330BC901880F5E
:101ED000991F280F391F2856354F4FEF60910C017D
:101EE000C4010E9409066394F7016082C401845D05
:101EF0009E4F0E940106251499F1FA81F51581F192
:101F0000171474F524E02515B8F0AB81BC814A9E06
:101F1000F0014B9EF00D1124E55BFE4FE70DF11D26
:101F200077FCFA95208130E0A901440F551F240F5A
:101F3000351F2055354F0CC0272D2595022E000C3E
:101F4000330BA901440F551F240F351F2856354F59
:101F50004FEF60910C010E9409067A94F80170829B
:101F6000D7018C918E3024F4F8018081811104C056
:101F7000109243070E94A9062B813C812F5F3F4F9F
:101F80003C832B833FEFE31AF30A0F5F1F4F80E878
:101F9000A80EB11C9EE0C90ED11CAB81BC81169766
:101FA00009F033CF0F900F900F900F90DF91CF91EA
:101FB0001F910F91FF90EF90DF90CF90BF90AF9067
:101FC0009F908F907F906F905F904F903F902F9059
:101FD0000C94B8060F900F900F900F90DF91CF9157
:101FE0001F910F91FF90EF90DF90CF90BF90AF9037
:101FF0009F908F907F906F905F904F903F902F9029
:102000000895CF93C82FEAE0F1E043816281809187
:102010003807909139070E944407809138079091C2
:10202000390723E0C29F800D911D11240E940106F3
:102030009093390780933807CF9108956F927F92DC
:102040008F92EF92FF920F931F93CF93DF93E82E1F
:10205000E69480FDE194CBE4D1E000E010E0F12CC7
:102060008091360790913707800F911F0E940106DB
:102070002DEA3AE040910D0160910C010E940906A1
:10208000F0FE14C08F2D869590E0FC01EE0FFF1F2F
:102090008E0F9F1FFC01E856F54F8091AD0A90917D
:1020A000AE0AA091AF0A80839183A283DE0125E06E
:1020B0008C9190E0FC01EE0FFF1F8E0F9F1FFC0123
:1020C000E055F54F6090AD0A7090AE0A8090AF0A6F
:1020D00060827182828221501E962111E9CFF39491
:1020E000005D1F4F21962EE0F212BACF0E94B80673
:1020F000809136079091370720E1E29E801991097F
:1021000011240E9401069093370780933607DF91D0
:10211000CF911F910F91FF90EF908F907F906F90D4
:102120000895EF92FF920F931F93CF93DF939091B7
:1021300035079F5F282F2695291748F0909335077C
:10214000DF91CF911F910F91FF90EF900895C82FCD
:10215000109235070E94A906C0FF02C01FEF01C000
:1021600011E0C0E0D0E0F12C00910801202F2F0DEC
:1021700027FF02C0295F03C027300CF02750022E32
:10218000000C330BC901880F991F280F391F2856DF
:10219000354F80910A0140910B01942F937040912B
:1021A0000D0160910C018C0F9D1F0E940906E090AB
:1021B00007012E2D2F0D27FF02C0205C03C0203405
:1021C0000CF02054022E000C330BC901880F991F0C
:1021D000280F391F2055354F80910A0140910B017E
:1021E000942F937040910D0160910C018C0F9D1FF5
:1021F0000E940906F10EE296CC3281E0D80709F080
:10220000B3CF010F08301CF01092080108C007FD81
:1022100003C00093080103C087E0809308011E0DEE
:1022200011341CF01092070108C017FD03C0109371
:10223000070103C080E480930701DF91CF911F91D4
:102240000F91FF90EF900C94B806CF92DF92EF922F
:10225000909134079F5F891718F0909334075FC0FF
:10226000109234070E94A90690E040E08091060198
:10227000840F8E3058F590E0DC01A55BBE4F55E031
:102280002C9130E0F901EE0FFF1F2E0F3F1FF901D7
:10229000E055F54FC090AD0AD090AE0AE090AF0A7D
:1022A000C082D182E28251501E965111E9CF01962F
:1022B00095958795FC01EE0FFF1F8E0F9F1FFC0168
:1022C000E856F54FC082D182E28291E04F5F4630FE
:1022D00069F691110E94B80690910501809106015E
:1022E000890F809306018B5F8331C8F0919590939D
:1022F0000501809132079091330788960E9401066C
:1023000090933307809332072DEA3AE040910D0114
:1023100060910C01EF90DF90CF900C940906EF9044
:10232000DF90CF900895299B43C090910B0192FFBD
:102330003FC080911B0981113BC0892F86958695EE
:102340008695482F50E0FA013197E831F10580F584
:10235000E65AFF4F0C94AA2B40910D0160910C019D
:1023600080910A0193700C9444070C94C9090C9451
:10237000380A0C94210C90E004970C94050B82E031
:102380000C94A40C81E00C94EE0C0C948F0D0C9426
:10239000A70E89500C94A1098B500C9401108D50FC
:1023A0000C941E1083510C94911087510C9425119C
:1023B0000895109251072C982998289A0895109200
:1023C000650A0E94F7070E94A403809128018430C7
:1023D00018F081E080932C010895FC018091280180
:1023E000843038F48281882321F0608181810C94CB
:1023F0001C09089580912801823040F5299B26C050
:1024000080913007909131070E944A298997F0F016
:102410000E943E29909331078093300780911B09D9
:10242000811102C00E9493110E94B90480910B0196
:1024300082FD0CC01092510780916306811106C085
:1024400080912C01811102C02998289A08958091C9
:102450002E0790912F070E944A298739910508F489
:102460005BC00E943E2990932F0780932E07809196
:102470002D078F5F80932D0790911B09992301F100
:10248000843008F449C0913011F080E001C083E04D
:1024900080932D077E9B10C00E94A9060E94B8065B
:1024A000289A20E040E060E880E20E94240495B190
:1024B00082E0892785B9089510921B090C94DF11D9
:1024C00080912C01882341F1299A80912D07813038
:1024D00031F420E040E060E080E20E94240480913A
:1024E0002D07833069F480911E09882319F040E894
:1024F00020E002C040E020E860E080E20E94240486
:1025000090911E0980912D07911102C0853010F421
:102510008B3010F010922D0708959091E207809172
:10252000E307891751F0E92FF0E0EC51F84F808173
:102530009F5F9093E20790E008958FEF9FEF0895DB
:102540009091C80095FFFCCF8093CE0008951F9214
:102550000F920FB60F9211240BB60F928F939F9389
:10256000EF93FF93E091E30781E08E0F9091E207F4
:10257000891741F09091CE00F0E0EC51F84F908334
:102580008093E307FF91EF919F918F910F900BBE86
:102590000F900FBE0F901F9018950E949C20809165
:1025A0002801823050F48FE19EE40197F1F700C0DA
:1025B00000000E940F1C0E94DE12FFCF9EE088E107
:1025C0000FB6F894A895809360000FBE90936000BA
:1025D00008958091940B8430E1F081E08093E408C9
:1025E00029E488E190E00FB6F894A8958093600004
:1025F0000FBE209360000E94D91183B7817F846051
:1026000083BF83B7816083BF7894889583B78E7FBB
:1026100083BF08950C94DF111F920F920FB60F9293
:1026200011248F939F93AF93BF938091E4088130DF
:1026300099F48091F8099091F909A091FA09B09163
:10264000FB098096A11DB11D8093F8099093F909AB
:10265000A093FA09B093FB09BF91AF919F918F911D
:102660000F900FBE0F901F9018958091FF0808954E
:1026700008950F931F93CF930E943E298C01C0E0D1
:10268000C8010E944A294E9708F50E948D128F3F7B
:102690002FEF9207C9F0AC0155274D305105A1F03D
:1026A0002C2F30E04A30510551F4C23030F0F9019E
:1026B000EC51F74F80818F3449F08FE590E0F901BC
:1026C000EA51F74F8083CF5FC731D0F2EC2FF0E0B3
:1026D000EA51F74F108286EE98E0CF911F910F914B
:1026E0000895CF93C9E10E948D12019611F0C15057
:1026F000D0F7C0930309CF9108950F931F93CF9301
:10270000DF935C991EC0092F182F80910309811156
:1027100010C0CFEF08C0CC2361F00E94711388E293
:102720008A95F1F7C150809103098823A1F3CC2346
:1027300041F0C12FD02F8991882319F00E94A01257
:10274000FACFDF91CF911F910F9108959C012F56E1
:1027500031092230310528F02A573109223031055C
:1027600060F420910209211103C02FEF2093020988
:10277000909301098093000902C0109202092091F0
:102780000409211116C09F938F9381E192E09F93DA
:102790008F9383E79BE09F938F930E941A2C0F9057
:1027A0000F900F900F900F900F9083E79BE00C9489
:1027B0007D130895CF93DF93EC018091040981117B
:1027C00032C08C81282F082E000C330B3F938F933F
:1027D0008B81282F082E000C330B3F938F938A8117
:1027E000282F082E000C330B3F938F938981282FBD
:1027F000082E000C330B3F938F9389E292E09F9356
:102800008F9383E79BE09F938F930E941A2C83E71B
:102810009BE00E947D138DB79EB70C960FB6F8947F
:102820009EBF0FBE8DBF8091040981111FC088819A
:102830009091FE088917D1F08093FE081F928F9324
:1028400089E492E09F938F9381E89BE09F938F931D
:102850000E941A2C0F900F900F900F900F900F90D6
:1028600083E79BE0DF91CF910C947D13DF91CF91B3
:1028700008950E947D130C943913CF93DF93EC01DC
:1028800086E90E942929CE01DF91CF910C94391459
:1028900080910509882321F0109205090C94D9280C
:1028A0000895CF93DF9320910509211169C02091EC
:1028B0000409211165C0EC0184E592E00E947D13BA
:1028C000FE01CE010896219121111AC08E179F0793
:1028D000D1F788E692E00E94391442E050E06FE6BA
:1028E00072E00E940D2C892B21F481E080931D0160
:1028F00047C010921D01109221091092200940C07A
:10290000209739F38F811F928F938E811F928F931F
:102910008D811F928F938C811F928F938B811F9239
:102920008F938A811F928F9388811F928F9382E762
:1029300092E09F938F9383E79BE09F938F930E94F6
:102940001A2C83E79BE00E947D138DB79EB74296B9
:102950000FB6F8949EBF0FBE8DBF8881811110C045
:102960008A81833531F0893331F0873449F482E14B
:1029700003C080E101C081E1DF91CF910C94A903F4
:10298000DF91CF91089580E090E00C9451148091F4
:1029900002098823D9F0823020F081508093020907
:1029A00008952091E5082F5F2093E50880910009A4
:1029B0009091010930E04FE451E0481B590B241776
:1029C000350720F01092E5080C94A613089589E9C4
:1029D00092E00C943D14803319F48AEA92E002C02C
:1029E00089EB92E00C943D14CF93DF93EC0188ECDB
:1029F00092E00E947D13CE010E947D138DE692E04D
:102A0000DF91CF910C943D1487ED92E00C94F41477
:102A100083EE92E00E943914FC018081089582EFD8
:102A200092E00C943D14549A5C980E943529F894D5
:102A300087E68093CC008091C90080698093C900AB
:102A40008091C90088608093C9008091CA008093FA
:102A5000CA008091C80082608093C800789482E0A8
:102A600093E00E943D1482E093E00E943914FC013F
:102A70008081813421F48181843591F505C08F34C2
:102A800079F581818B3461F50E94E71482E093E04F
:102A90000E943D1486E093E00E943D140E940415BC
:102AA00089EB92E00E943D148DE093E00E943D147A
:102AB0000E940F158DE193E00E943D148AE393E09C
:102AC0000E943D1486E793E00E943D148AE893E05B
:102AD0000E94391410929E0B10929D0B0E94CD12F1
:102AE000F8948CE08093CC00789482E093E00C948E
:102AF0003914CF93299903C0882309F496C0C82FAD
:102B00008DE993E00E943914FC018081833308F43D
:102B100056C0228190ED920F9A3008F050C02A5191
:102B200044E6849F200D112481819AE0899F200D25
:102B30001124213208F443C030E02F5C3E4F63E0A3
:102B4000220F331F6A95E1F780912A0190912B01A2
:102B500083374EE0940709F4C901280F391FC901D2
:102B60009695879590932B0180932A0154E0369592
:102B700027955A95E1F74FEC420F40931D097E9936
:102B80000CC041E040931A098037904110F42B5358
:102B900001C0265320931D0902C010921A0980918A
:102BA0001D09823918F010921B0909C08A3710F4E8
:102BB00081E003C08A3818F485E080931B09C13096
:102BC000A1F590911D09EBE1F4E08AE521919217BE
:102BD00018F48A50D9F78CE220911B092111822F19
:102BE00020911A09820F211103C0943D08F084E658
:102BF000809329011F928F9389EA93E09F938F938B
:102C000083E79BE09F938F930E941A2C83E79BE0BE
:102C10000E9439140F900F900F900F900F900F900B
:102C200083E79BE0CF910C943914CF910895869857
:102C30008E9A81E00C947915CF939091940B81E05A
:102C4000943009F080E080932D018091390187FF55
:102C50001CC00E94D11E8E51914059F08EE191E02E
:102C60000E94CC1E809162068D7F809362060E9436
:102C7000EB0380911F09811129C080912D018823C8
:102C800029F1809139018F7707C0943061F09091DC
:102C90002E01992321F080688093390117C08CE0C0
:102CA0008093280113C00E94D11E8F52914071F071
:102CB0008FE291E00E94CC1E809162068260809338
:102CC00062060E94EB0381E080931F0980912E0130
:102CD000882309F41FC15C9914C10E94711380916B
:102CE0001D01811105C080911E0981110E94C3142C
:102CF00080912801823031F481E00E94791583E0CF
:102D000080932801C0911909CC2309F441C00E9485
:102D100008158133E9F58BEB93E00E943914FC012F
:102D200001900020E9F79F01255131092817390743
:102D300079F5C13081F422E020931909C0932C0168
:102D400010921E0921E1FC01A6E0B9E001900D926C
:102D50002A95E1F71DC041E150E066E079E00E946C
:102D60000D2C892B51F0809119098F5F80931909DF
:102D7000853070F0109219090BC08EEC93E00E9420
:102D8000391480912C018F30A8F782E080931909C3
:102D900080912509811194C0809122099091230985
:102DA0000E944A29883E934008F48AC00E943E2926
:102DB000909323098093220980911E09811105C0F7
:102DC0008091190981112FC008C0809118098F5F67
:102DD000809318098370A1F33DC00E9408158133C8
:102DE00021F481E080931E091CC08033E1F410922D
:102DF0001E09809124098F5F8093240990912D01F1
:102E0000911111C090912801992369F08A3558F0E9
:102E10005C9A8091C900877F8093C90084E0809389
:102E200028011092240980912C01882399F084367E
:102E300029F410922C010E94A4030CC08F5F809390
:102E40002C01843120F480911E09882319F084E636
:102E500080932C01809117098F5F809317098770E9
:102E600021F480911A090E94791580912D01811118
:102E700027C080912C01811123C08091200990915D
:102E8000210901969093210980932009209128011E
:102E9000213031F48F30910518F022E02093280181
:102EA00020912801233061F48832934248F084E075
:102EB000809328015C9A8091C900877F8093C90024
:102EC00080911C098823D9F08C3099F0823119F453
:102ED0008BEF93E010C0853181F40E940F1580E3E1
:102EE0000E94EB1481E30E94EB1486E194E00E94BF
:102EF000391480EE93E00E94391410921C090E944C
:102F0000C71480912801823028F40E944814CF9180
:102F10000C942712CF910895CF93DF93C82F0E946E
:102F20009F28D82F0E949C20C631A1F170F4C23195
:102F300031F130F4C53009F47CC0CC3001F198C0D7
:102F4000C33191F1C531F1F093C0CA31A9F128F430
:102F5000C83151F0C931D1F18BC0CC3B09F453C019
:102F6000C03C09F454C084C080912E01882309F428
:102F700081C0909139019058909339017CC0C093E1
:102F80001C0978C0D0FF74C0C0931C0981E08093F5
:102F90002C0171C080912C01811102C081E001C01F
:102FA00084E680932C0166C09091280181E08927F6
:102FB0008093280160E024C0D0FD02C061E001C020
:102FC0006DEB80E290E00E94172FFFCF80912901E6
:102FD00060E090E00E94A723D0FF0BC08DE290E05C
:102FE0000E949B2360E080912A0190912B010E9416
:102FF000A7238DE290E00E949B2360E080911E0950
:103000000E94DA2037C081E08093190934C0809192
:103010002D0181112FC05C9A8091C900877F809318
:10302000C9008AE08093280110921E090E94A227FD
:1030300021C08D2F837251F0DD7DD13031F48BE2D0
:103040009CEF9093010880930008FFCFDC3039F4A7
:103050008AEA9BEB90939E0B80939D0BFFCF82E3BC
:103060009FE00E949B2382E39FE10E949B2302C07A
:1030700080E001C081E0DF91CF910895CF93DF938D
:10308000CDB7DEB729970FB6F894DEBF0FBECDBF20
:1030900096E0E2E4F1E0DE01119601900D929A953E
:1030A000E1F7209148013091490140914A012F8375
:1030B00038874987282F30E08B3018F0ECEFFFEF8E
:1030C00002C0E1E0F0E0EC0FFD1FE20FF31F808192
:1030D00029960FB6F894DEBF0FBECDBFDF91CF911A
:1030E0000C948C17CF9390E080E80FB6F8948093FF
:1030F0006100909361000FBE0E9486010E946F1CC8
:10310000789480E290E00E94032F8D3B11F410929E
:103110002E0180912E01882321F00E9413150E9418
:103120001716CFEF8091940BC150843029F084E0C2
:103130000E942929C111F6CF0E94241F0E94DE128D
:10314000C1E080912801843038F4A895823010F4D1
:103150000E942A1F0E941C1680912801823040F490
:1031600080912E018111EDCF8091940B843049F331
:103170000E94E9120E94DE120E94A502882309F330
:1031800010922109109220090E94DF1180912E01D6
:10319000882389F0C0932801C09305095C98809129
:1031A000C90083FD03C084E60E9429298091C900DB
:1031B00088608093C90080911F09882311F2809153
:1031C000940B853009F0BDCF0E94EC1ABACF8091E4
:1031D000370908958FEF9091E800815095FD06C062
:1031E0009AE69A95F1F700C08111F5CF8091E80039
:1031F00085FB882780F991E089270895CF93DF9395
:1032000000D01F92CDB7DEB72091940B2430B9F4D3
:1032100023E029839B838A832093E9000E94EA1894
:1032200081110DC040E050E063E070E0CE010196F6
:103230000E94021B8091E8008E778093E8000F9037
:103240000F900F90DF91CF910895CF93DF9300D02F
:103250001F92CDB7DEB72091940B2430C1F422E049
:1032600029839B838A8383E08093E9000E94EA1884
:1032700081110DC040E050E063E070E0CE010196A6
:103280000E94021B8091E8008E778093E8000F90E7
:103290000F900F90DF91CF910895CF93DF932091FE
:1032A000940B2430A1F4EC0182E08093E9000E94A9
:1032B000EA1881110CC040E050E065E070E0CE01FA
:1032C0000E94021B8091E8008E778093E800DF91D6
:1032D000CF910895CF93DF93EC019091940B9430AC
:1032E000B9F58091390181718131B9F49093E90088
:1032F0008FEF9091E800815095FD06C095E19A9579
:10330000F1F700008111F5CF8091E80085FF20C022
:1033100040E050E060E170E00BC081E08093E900A4
:103320000E94EA18811114C040E050E068E070E0AB
:10333000CE010E94021B8091E8008E778093E80006
:1033400080E1FE01A7E2B9E001900D928A95E1F7D4
:10335000DF91CF9108958091930B811109C00E9454
:103360000F1C0E946F1C8091E20084608093E20039
:1033700008951092930B0895089542E061EC81E066
:103380000E94A91B42E061EC82E00E94A91B42E07E
:1033900061EC83E00E94A91B42E161EC84E00C94A3
:1033A000A91B8091960B833009F455C030F481300D
:1033B00071F0823009F48EC008958A3009F47AC021
:1033C0008B3009F460C0893009F09CC020C0809126
:1033D000950B813A09F096C08091E800877F809331
:1033E000E8008091990B90919A0B892B21F460E170
:1033F00087E299E003C060E080E090E070E00E9426
:103400004D1B8091E8008B778093E80008958091B0
:10341000950B813209F076C08091990B90919A0BAF
:10342000009719F0039709F06DC08091E800877F3D
:103430008093E8008091E80082FD05C08091940BA4
:103440008111F8CF5FC08091F1008093370980919E
:10345000E8008B7753C08091950B813A09F052C0F8
:103460008091990B90919A0B892B09F04BC0809118
:10347000E800877F8093E8008091E80080FFFCCF20
:103480008091390136C08091950B8132D9F58091B8
:10349000990B90919A0B892BA9F58091E800877F71
:1034A0008093E8000E94BD1B8091970B80933901A7
:1034B0000C949C208091950B813221F58091E8003D
:1034C000877F8093E8000E94BD1B8091980B8093BA
:1034D000380908958091950B813AA1F48091E80014
:1034E000877F8093E8008091E80080FFFCCF809187
:1034F00038098093F1008091E8008E778093E8008E
:103500000C94BD1B08958091370980932609109271
:10351000370980E00E94F0030E94F31F0C949C2066
:103520000C94831A0E940A1380912609809337090C
:1035300008950C94921A292F332723303105C1F0B6
:1035400058F42130310579F022303105E9F58DE666
:1035500090E029E734E03CC021323105C1F022324D
:10356000310511F131C082E190E026EE34E030C047
:1035700099278330910540F5FC01EE0FFF1FE55CB4
:10358000FB4F20813181FC01E85CFB4F1AC06430A5
:10359000D8F4E62FF0E0EE0FFF1FE05DFB4F208137
:1035A000318189E090E014C0643070F470E0FB0178
:1035B000EE0FFF1FE85DFB4F20813181FB01EC5DC9
:1035C000FB4F808190E004C080E090E020E030E09C
:1035D000FA013183208308958CE089BD8EE089BD96
:1035E00009B400FEFDCF8091D8008F7D8093D80074
:1035F0008091E00082608093E0008091E00081FD96
:10360000FCCF0895CF92DF92EF92FF920F931F931A
:10361000CF93DF93EC018B017A010E94DC1B8111B7
:1036200033C0E114F10439F0F70180819181081B66
:10363000190BC80FD91FC12CD12C0115110519F177
:103640008091E80085FD16C08091E8008E77809318
:10365000E800E114F10449F0F70180819181C80E7E
:10366000D91ED182C08285E00FC00E94DC1B882356
:1036700021F30AC089918093F10001501109FFEFF5
:10368000CF1ADF0ADACF80E0DF91CF911F910F913F
:10369000FF90EF90DF90CF90089520919B0B309199
:1036A0009C0B2617370748F06115710539F42091F6
:1036B000E8002E772093E80001C0B901FC0120E06A
:1036C0006115710569F18091940B8823E1F18530D2
:1036D000E1F18091E80083FD3AC08091E80082FD2D
:1036E0002CC08091E80080FFEBCF8091F200909198
:1036F000F3006115710551F08830910538F421917E
:103700002093F100615071090196F3CF21E00897F1
:1037100009F020E08091E8008E778093E800D0CF18
:103720002111D1CF0AC08091940B882361F085309C
:1037300061F08091E80083FD0AC08091E80082FF7B
:10374000F2CF80E0089582E0089583E0089581E05B
:1037500008958F708093E900EBEEF0E08081816046
:103760008083EDEEF0E010826093EC004083809166
:10377000EE00881F8827881F08958091950B87FF8A
:1037800011C08091E80082FD05C08091940B8111E9
:10379000F8CF11C08091E8008B770BC08091940B1B
:1037A000882349F08091E80080FFF8CF8091E800FD
:1037B0008E778093E80008952091E4003091E50031
:1037C00095E64091EC00842F817040FF23C08091EA
:1037D000E80080FD1DC08091940B882399F085300E
:1037E00099F08091EB0085FD11C04091E40050916B
:1037F000E5002417350729F3915011F09A01E1CF24
:1038000084E0089582E0089583E0089581E00895BA
:1038100080E008954091E80042FFDDCF08950E94C6
:103820007E1C0E94861CE0EEF0E080818160808337
:10383000E8EDF0E080818F77808319BCA7EDB0E0E0
:103840008C918E7F8C9380818F7E80831092930BDE
:1038500008950F931F93CF93DF930E947E1C0E94C5
:10386000861CC8EDD0E088818F7788838881806846
:10387000888388818F7D8883E7EDF0E08081806890
:10388000808319BC1092940B1092910B1092920BA2
:1038900000EE10E0F80180818B7F80838881816059
:1038A000888342E060E080E00E94A91BE1EEF0E046
:1038B00080818E7F8083E2EEF0E080818160808372
:1038C000808188608083F80180818E7F80838881F9
:1038D00080618883DF91CF911F910F910895E8ED6A
:1038E000F0E080818F7E8083E7EDF0E08081816071
:1038F000808381E08093930B0C94291CE8EDF0E029
:1039000080818C7F80831092E20008951092DA000B
:103910001092E10008951F920F920FB60F9211249A
:103920000BB60F922F933F934F935F936F937F93B9
:103930008F939F93AF93BF93EF93FF938091E10099
:1039400082FF0BC08091E20082FF07C08091E100FE
:103950008B7F8093E1000E94CB1E8091DA0080FF74
:103960001FC08091D80080FF1BC08091DA008E7F3D
:103970008093DA008091D90080FF0DC08CE089BD72
:103980008EE089BD09B400FEFDCF81E08093940BE9
:103990000E94AB1905C019BC1092940B0E94B91972
:1039A0008091E10080FF19C08091E20080FF15C086
:1039B0008091E2008E7F8093E2008091E20080613E
:1039C0008093E2008091D80080628093D80019BC77
:1039D00085E08093940B0E94901A8091E10084FF0F
:1039E00036C08091E20084FF32C080912D01823088
:1039F00010F40E94CD128CE089BD8EE089BD09B41F
:103A000000FEFDCF8091D8008F7D8093D8008091FB
:103A1000E1008F7E8093E1008091E2008F7E8093B1
:103A2000E2008091E20081608093E2008091910B3E
:103A3000882311F084E007C08091E30087FD02C075
:103A400081E001C083E08093940B0E94991A8091D9
:103A5000E10083FF29C08091E20083FF25C08091AF
:103A6000E100877F8093E10082E08093940B1092C5
:103A7000910B8091E1008E7F8093E1008091E200C4
:103A80008E7F8093E2008091E20080618093E2006B
:103A900042E060E080E00E94A91B8091F000886015
:103AA0008093F0000E94BC19FF91EF91BF91AF91FC
:103AB0009F918F917F916F915F914F913F912F9146
:103AC0000F900BBE0F900FBE0F901F9018951F9276
:103AD0000F920FB60F9211240BB60F922F933F93B4
:103AE0004F935F936F937F938F939F93AF93BF9306
:103AF000CF93DF93EF93FF93C091E900CF70809154
:103B0000EC00D82FD17080FDD0E81092E9008091B0
:103B1000F000877F8093F00078940E94AF1D109290
:103B2000E9008091F00088608093F000CD2BCF7089
:103B3000C093E900FF91EF91DF91CF91BF91AF91D9
:103B40009F918F917F916F915F914F913F912F91B5
:103B50000F900BBE0F900FBE0F901F9018951F93E4
:103B6000CF93DF9300D0CDB7DEB7E5E9FBE08DE979
:103B70009BE02091F10021938E179F07D1F70E94BF
:103B8000D1198091E80083FFF2C08091950B90914C
:103B9000960B492F50E04A30510508F0E8C0FA0171
:103BA000EE58FF4F0C94AA2B803881F0823809F030
:103BB000DEC08091990B8F708093E9008091EB00BB
:103BC00085FB882780F91092E90007C08091920B4D
:103BD000882311F082E001C080E09091E800977F97
:103BE0009093E8008093F1001092F10095C0282F87
:103BF0002D7F09F0BCC0882319F0823061F0B7C076
:103C00008091970B813009F0B2C0933009F080E0C9
:103C10008093920B2BC08091970B811127C08091CC
:103C2000990B8F7009F4A3C08093E9002091EB00F9
:103C300020FF1CC0933021F48091EB00806214C0FF
:103C40009091EB0090619093EB0021E030E0A901AE
:103C500002C0440F551F8A95E2F74093EA00109284
:103C6000EA008091EB0088608093EB001092E900FD
:103C70008091E800877F53C0811179C01091970B24
:103C80001F778091E3008078812B8093E3008091FF
:103C9000E800877F8093E8000E94BD1B8091E800C8
:103CA00080FFFCCF8091E30080688093E3001111D6
:103CB00002C082E001C083E08093940B58C080581A
:103CC000823008F054C0AE014F5F5F4F6091990B96
:103CD0008091970B9091980B0E949B1ABC01892BA5
:103CE00009F445C09091E800977F9093E80089819E
:103CF0009A810E944D1B8091E8008B778093E800A9
:103D000036C08038A1F58091E800877F8093E80075
:103D10008091910B8093F1008091E8008E778093E1
:103D2000E8000E94BD1B23C0811121C08091970B28
:103D30009091980B99270297D4F48091E800877F9F
:103D40008093E8008091970B8093910B0E94BD1B9C
:103D50008091910B811106C08091E30087FD02C024
:103D600081E001C084E08093940B0E94BD19809192
:103D7000E80083FF0AC08091E800877F8093E80015
:103D80008091EB0080628093EB000F900F90DF91A9
:103D9000CF911F910895089590933E0980933D0916
:103DA000089580913D0990913E090895E0913D0963
:103DB000F0913E09309721F00190F081E02D0994B7
:103DC00080E00895E0913D09F0913E09309721F09F
:103DD0000280F381E02D09940895E0913D09F0916E
:103DE0003E09309721F00480F581E02D0994089573
:103DF00020913B0930913C092817390771F09093C5
:103E00003C0980933B09E0913D09F0913E093097D0
:103E100021F00680F781E02D099408952091390959
:103E200030913A092817390771F090933A09809335
:103E30003909E0913D09F0913E09309721F0008465
:103E4000F185E02D099408950E9435290E94A7016B
:103E50000C94E7028F929F92AF92BF92CF92DF9223
:103E6000EF92FF920F931F93CF93DF9300D000D078
:103E70001F92CDB7DEB70E94D70107E519E0F12CFC
:103E80008F2D0E9492024C01F801A080B180A826DB
:103E9000B926A114B10439F4F3940E5F1F4FF5E075
:103EA000FF12EECF33C08091F70981FD0E949B0283
:103EB000E12CCC24C394D12CC5018C219D21892BCC
:103EC000F1F0E982FA8221E0C4018C219D21892B45
:103ED00009F420E02B830E943E2981609D838C831E
:103EE000CE0101960E94F41FCE0101960E94ED11B1
:103EF000F801808191818C259D2591838083E394B5
:103F0000CC0CDD1CFEE0EF12D7CFC6CF80E090E0F6
:103F10000E94F41F0E94FA110E94572A80916109A1
:103F2000882389F080915509909156090E944A2969
:103F30008C34910540F01092540980E499E00E947D
:103F4000EC08109261090E94D61E90913F098917D2
:103F5000A1F10E94D61E80933F0984FF2CC0E091FE
:103F60006109F0E0E05CF64F9081990F990F837042
:103F7000892B80830E943E2990935609809355098E
:103F8000809154098F5F809354098430B0F0809100
:103F90004009843641F480916109823020F487E43D
:103FA00090E00E949B2310925409809161098F5FD9
:103FB0008093610902C00E9427290F900F900F90F3
:103FC0000F900F90DF91CF911F910F91FF90EF9085
:103FD000DF90CF90BF90AF909F908F9008950C94FA
:103FE000F00385E008950895CF93DF9300D000D0CB
:103FF00000D0CDB7DEB7FC01892B39F40E943E29F1
:10400000816060E05FEF4FEF05C0408151816281C8
:1040100083819481FE01319626E0DF011D922A956D
:10402000E9F7782F9D838C838D819E810E94652680
:1040300026960FB6F894DEBF0FBECDBFDF91CF91AD
:104040000895CF93882349F1803B29F48EE591E0D0
:10405000CF910C941327C82F8CEF8C0F813A20F04E
:1040600080E58C0F8E3250F48C2F0E941F2B811113
:1040700014C061E08C2F0E9454280CC080E28C0F89
:10408000883058F4C77081E001C0880FCA95EAF7FC
:104090000E94A228CF910C94D928CF91089588230B
:1040A00051F19CEF980F913A20F090E5980F9E32D5
:1040B00020F460E00E9454280DC090E2980F9830E0
:1040C00058F4877091E001C0990F8A95EAF7892F1B
:1040D0000E94A8280C94D9289BE5980F933020F4CF
:1040E00080E090E00C94F81E885A873120F480E03C
:1040F00090E00C940E1F0895882321F00E94A228BE
:104100000C94D9280895882321F00E94A8280C94A3
:10411000D92808950E94BF280E9495280E94D92876
:104120000E94132B0E944C2A80E090E00E94F81E0F
:1041300080E090E00C940E1F0E94AF280C948A201F
:10414000CF93DF9300D000D01F92CDB7DEB70E948F
:10415000EB27292F22952F702C3030F42A30A0F431
:104160002250223030F01DC02C30A9F02F3099F0B1
:1041700018C0853A28F4843090F4823028F40FC0B7
:1041800090E2980F983058F0843058F0853A38F023
:10419000803F39F404C093FB882780F903C081E095
:1041A00001C080E00F900F900F900F900F90DF9163
:1041B000CF910895811101C08AE0662311F0885AD9
:1041C00001C0835E90E00C949B23CF92DF92EF922C
:1041D000FF920F931F93CF93DF9300D000D01F92D5
:1041E000CDB7DEB76C0185E0F601DE0111960190D6
:1041F0000D928A95E1F7F6012381348189819A81B4
:104200002115310531F09F3F31F491E08F3F19F4D2
:1042100003C091E001C090E090FD64C2F601F2801D
:10422000058102950F702230310561F0722F3D83B8
:104230002C8349815A816F2D8D810E94EB27E82EB6
:10424000192F02C0E9801A81E12FE295EF708E2FBD
:1042500090E0FC01E458FF4F0C94AA2B812F807F43
:104260001F70882311F01295107FFF2021F10E940A
:104270009F2881239091F409892B8093F4091123BD
:1042800051F0EE2019F081E08093F209812F0E9415
:10429000B2280E94D9288E2D0F900F900F900F906A
:1042A0000F90DF91CF911F910F91FF90EF90DF90D2
:1042B000CF900C9421209091F409812F809589232F
:1042C0008093F4091092F2098E2D0E944F20112341
:1042D00009F408C2812F0E94B8280F900F900F9008
:1042E0000F900F90DF91CF911F910F91FF90EF9062
:1042F000DF90CF900C94D928812F807F1F7080325F
:1043000011F01295107FEE2021F0F1E0EF16F9F098
:1043100028C0FF20A1F0812F002349F1013039F599
:104320000F900F900F900F900F90DF91CF911F91F2
:104330000F91FF90EF90DF90CF900C94C228002354
:1043400019F0013009F4CEC10E94C52855C0FF20E4
:10435000E9F0043008F0C6C10E949F28812331F0A3
:104360004BC0FF2009F446C0011114C0812F0F90EB
:104370000F900F900F900F90DF91CF911F910F91A1
:10438000FF90EF90DF90CF900C947C20033008F0EA
:10439000A9C132C0F601858180FF16C08F70858368
:1043A000E5CFF0EFEF1609F4E7C0FE1508F4C3C03F
:1043B00020EEE21608F0C4C0FF2009F437C1002344
:1043C00009F426C113FD20C18E2D0E942120F9E39E
:1043D000EF1288C182E30F900F900F900F900F9013
:1043E000DF91CF911F910F91FF90EF90DF90CF90D1
:1043F0000C942929011122C1812FAFC0812F8695EC
:104400008695837019F08130C1F06CC1FF2021F0D6
:104410008E2D912F937002C080E090E00F900F904E
:104420000F900F900F90DF91CF911F910F91FF9000
:10443000EF90DF90CF900C940E1FFF20C9F08E2DCF
:10444000912F9370811523E09207A4F083E691E009
:104450000E94132760E08E2D82958F700E94DA20D3
:1044600060E08E2D8F700E94DA2081E691E018C105
:1044700080E090E00F900F900F900F900F90DF91E1
:10448000CF911F910F91FF90EF90DF90CF900C9400
:10449000F81E8E2DFF2089F00E9497290E944C2A39
:1044A00085E48E1508F41EC1EE2DF0E0EE5FF54FA9
:1044B00081E080838093010A15C10E94E5290E9452
:1044C0004C2AE5E4EE1508F40DC12E2D30E0F9017B
:1044D000EE5FF54F1082EE2011F0C901CBC084EFE2
:1044E00090E5C8C0F110FEC08E2D8F70E294E69466
:1044F00027E0E22211F420E001C024E001C0880F8F
:104500002A95EAF7212F237011F460E005C01C7092
:1045100061E0183009F456C00F900F900F900F9083
:104520000F90DF91CF911F910F91FF90EF90DF904F
:10453000CF900C948D2781EFE81609F452C03CCF40
:104540000E2D0F70812F8F71FF2021F00E94C22746
:10455000802F0DCF0E94D327802F0F900F900F90A8
:104560000F900F90DF91CF911F910F91FF90EF90DF
:10457000DF90CF900C948320FF20A1F0033008F04F
:10458000B1C0812F8F710F900F900F900F900F90EF
:10459000DF91CF911F910F91FF90EF90DF90CF901F
:1045A0000C94C227043008F09DC01F71812F0E9417
:1045B000D327033009F096C061E081E001C0880F85
:1045C0001A95EAF70F900F900F900F900F90DF91D0
:1045D000CF911F910F91FF90EF90DF90CF900C94AF
:1045E000E327F110CECF812F8F710F900F900F9096
:1045F0000F900F90DF91CF911F910F91FF90EF904F
:10460000DF90CF900C94D327F601858180FFDCCE1C
:10461000012F0770802F0E94C22714FF63C0698199
:104620007A81802F0E947F2961E025C00023B1F0AC
:1046300013FF04C0F601858180FD10C08E2D0F9000
:104640000F900F900F900F90DF91CF911F910F91CE
:10465000FF90EF90DF90CF900C944F20012F0770C8
:10466000802F0E94D32714FF3DC069817A81802F5B
:104670000E947F2960E00F900F900F900F900F9095
:10468000DF91CF911F910F91FF90EF90DF90CF902E
:104690000C948023412F4F706E2DC6010E94730130
:1046A0000F900F900F900F900F90DF91CF911F916F
:1046B0000F91FF90EF90DF90CF900C941327412F34
:1046C0004F706E2DC6010F900F900F900F900F90AE
:1046D000DF91CF911F910F91FF90EF90DF90CF90DE
:1046E0000C94E1000F900F900F900F900F90DF91BE
:1046F000CF911F910F91FF90EF90DF90CF90089591
:10470000CF93DF9300D000D000D0CDB7DEB7898340
:104710009A836B8382E090E09D838C83CE01019627
:104720000E94E52026960FB6F894DEBF0FBECDBFDF
:10473000DF91CF910895CF93DF93EC0161E00E9468
:10474000802360E0CE01DF91CF910C948023BF9253
:10475000CF92DF92EF92FF920F931F93CF93DF934D
:104760006C01B62EC5E0D0E000E117E28AE0E82E49
:10477000F12CC601B8010E94822BCB01009731F0C9
:10478000B7010E94822B6B2D0E94DA20C801B7016D
:104790000E94822B8B01219761F7DF91CF911F91AE
:1047A0000F91FF90EF90DF90CF90BF900895CF933F
:1047B000DF9300D000D01F92CDB7DEB70F900F90DF
:1047C0000F900F900F90DF91CF910895CF93DF93CB
:1047D00000D000D000D0CDB7DEB726960FB6F89443
:1047E000DEBF0FBECDBFDF91CF9108951F93CF9352
:1047F000DF93C091620916E080916309C81799F0B0
:10480000D0E01C9FF0011D9FF00D1124EC59F64FD4
:104810004081518162817381848195810E94E62368
:104820002196C770E9CFDF91CF911F9108954091F4
:10483000940950919509609196097091970980911A
:104840009809909199090C94E6230F931F93CF93A5
:10485000DF938091990982958F7009F05DC08091F6
:104860009609882309F458C0809162091091630960
:104870006091940970919509C0919709D091980918
:1048800091E06F3F09F090E0292F06E0811709F4CD
:1048900043C0209721F07F3F21F030E003C031E09A
:1048A00001C0322F90E030FD34C0089FF001099F15
:1048B000F00D1124DF01AC59B64F11963C911197C0
:1048C000371327C03C91361324C012963C9112979F
:1048D00031111FC013964D915C9114974C1B5D0BC9
:1048E000483C5105B0F4809199098F7080618093A4
:1048F0009909E759F64F80818F708061808384E940
:1049000099E00E94E520DF91CF911F910F910C94C7
:10491000F62301968770BACFDF91CF911F910F9147
:1049200008959F92AF92BF92CF92DF92EF92FF9243
:104930000F931F93CF93DF93CDB7DEB761970FB679
:10494000F894DEBF0FBECDBF8C0185E0F801DE011B
:104950001D9601900D928A95E1F7F80140815181F1
:10496000F280C380D4809091940960919509209140
:104970009709309198092115310531F06F3F31F4D5
:1049800081E09F3F19F403C081E001C080E0F82F6F
:10499000F1709F2E80FD52C184E9A82E89E0B82EC7
:1049A000E0909609F601E21BF30BEE2009F4E8C053
:1049B00080919909E83CF10508F0A4C0282F207FD8
:1049C00009F053C0561313C0491311C0EF2CF11056
:1049D0000EC08F708061809399090E941724C501D1
:1049E0000E94E52080919909F80185835BC1C1147B
:1049F000D10431F05F3F31F481E04F3F19F403C03F
:104A000081E001C080E080FD03C081E08F2502C00D
:104A100080E090E0F82FF170EF2E80FF1CC08091B5
:104A200062092091630936E0821709F418C190E009
:104A3000389FF001399FF00D1124EC59F64F618138
:104A4000561306C06081461303C06281F61203C08C
:104A500001968770E9CFEF2CFF2009F423C18091E4
:104A6000990981608093990962C0561306C0491361
:104A700004C0F11002C0F801A7C04D875E87FF8611
:104A80007C2DD98AC88A6F2D89890E94A02088230D
:104A900099F1FF2089F120919909822F82958F70D9
:104AA00090E0029774F0809194099091950998870D
:104AB0008F831986DB86CA862C87CE0107960E94D3
:104AC000E52086E0F801A4E9B9E001900D928A950D
:104AD000E1F70E9425240E94172411C0561749F1BE
:104AE0004D875E87FF867C2DD98AC88A6F2D89897C
:104AF0000E94A02081112CC0C8010E94E520EE2454
:104B0000E394D0C0282F207F49F77C2DD98AC88A0A
:104B10006F2D89890E94D72384E999E00E94E520BE
:104B200086E0F50111928A95E9F70E941724E12C9D
:104B3000B9C04913D5CFF110D3CFF8018583C8018F
:104B40000E94E52086E0F50111928A95E9F7AAC056
:104B5000FF2091F220919909822F82958F7090E029
:104B600002970CF4AECF80919409909195099A83A5
:104B700089831B82DD82CC822E83CE0101969FCF5A
:104B8000E83CF10508F04BC0EF2CFF2009F4B4CF4E
:104B9000561330C049132EC02091990920FD21C021
:104BA000822F82958F70482F50E041155105C9F032
:104BB000F80125834F30510541F08F5F982F929572
:104BC000907F822F8F70892B8583C8010E94E520FA
:104BD00086E0F801A4E9B9E001900D928A95E1F729
:104BE0002AC086E0F801A4E9B9E001900D928A9507
:104BF000E1F758C04D875E87FF867C2DD98AC88A29
:104C00006F2D89890E94A02081115BCF8091990925
:104C1000816080939909C8010E94E52043C07C2DE2
:104C2000D98AC88A6F2D89890E94D72386E0F50129
:104C300011928A95E9F70E94172434C0FF2009F4E5
:104C40005BCF4D875E87FF867C2DD98AC88A6F2D02
:104C500089890E94A020882309F44ECF32CF7C2D71
:104C6000D98AC88A6F2D89890E94EB27292F22951E
:104C70002F70223028F49F7039F0811105C00BC0CD
:104C8000243028F49F7049F4805E883020F0C801F9
:104C90000E94E5209E2CE92C05C0F8019581907FAB
:104CA00099F7F9CF8E2D61960FB6F894DEBF0FBE3F
:104CB000CDBFDF91CF911F910F91FF90EF90DF90CB
:104CC000CF90BF90AF909F9008951F93CF93DF93A5
:104CD000CDB7DEB72C970FB6F894DEBF0FBECDBFB1
:104CE0004F83588769877A878B879C87CE01079681
:104CF0000E9491248823D1F09F8188852A853B8555
:104D0000232B31F08F3F31F481E09F3F19F403C032
:104D100081E001C080E080FD47C04F8158856985F2
:104D20007A858B859C850E94E6233EC086E0FE0145
:104D30003796DE01119601900D928A95E1F7FF8179
:104D4000E8856A857B856115710531F0EF3F31F4A7
:104D500081E0FF3F19F403C081E001C080E080FDE5
:104D600023C02091630930E0C9010196877099271B
:104D70004091620950E084179507F1F1F983EA83C5
:104D80007D836C8396E0929FD001939FB00D112498
:104D9000AC59B64FFE01319601900D929A95E1F70C
:104DA000809363090E94F62316E080916209909136
:104DB0006309891771F1189FC00111248C59964F0E
:104DC0000E949124882329F1E09162091E9FF0013D
:104DD0001124EC59F64F40815181628173818481A5
:104DE00095810E94E6238091620990E00196877088
:104DF000992780936209D9CF0E949C201092630961
:104E000010926209E4E9F9E086E0DF011D928A95DB
:104E1000E9F72C960FB6F894DEBF0FBECDBFDF9139
:104E2000CF911F910895CF92DF92EF92FF921F933F
:104E3000CF93DF937C010E944814E114F10409F43C
:104E400064C0E7012196F7011491193709F43EC0B7
:104E5000B8F4143740F4143008F052C08FEF810FCB
:104E60008230F8F052C0143709F04FC0F2E0EF0E74
:104E7000F11CFE0184910E942929E7017E01E1CF06
:104E8000133828F4113868F4103801F13EC0133893
:104E9000B9F0143F08F039C01F77812F90E092607D
:104EA00031C0FE0185919491612F6170E70113304B
:104EB00018F42296992701C023960E948023DECF02
:104EC000FE0185919491E70123961CC0FE01C590D7
:104ED000D490E701239684E00E947C20103841F4AE
:104EE00061E081E00E94DA20F0EACF1AF6E8DF0AFA
:104EF00061E0C6010E94A72384E00E948320BECF08
:104F0000812F90E00E949B23B9CFDF91CF911F9119
:104F1000FF90EF90DF90CF900895E62FF0E0E65CF1
:104F2000FE4F8083611105C080913A010E94E60323
:104F300007C090913B0180913C01892B0E94D603D0
:104F40000C948A2062E080E00C948D2721E030E010
:104F5000A90102C0440F551F8A95E2F7CA0190913A
:104F60003C0162E0892B0C948D2721E030E001C0E8
:104F7000220F8A95EAF7209580913C0162E0822316
:104F80000C948D2790913D01981306C09091E009F3
:104F90009F5F9093E00905C091E09093E0098093B2
:104FA0003D010C94A62790913D0198130AC0909161
:104FB000E00991509093E009911103C093E690931A
:104FC0003D010C94B527E62FF0E0E65CFE4F9081A2
:104FD00089270C948D27AF92BF92DF92EF92FF92B8
:104FE0000F931F93CF93DF9300D000D01F92CDB7C4
:104FF000DEB78A016623C9F1A0903A0180913B0196
:10500000A82A80913C01A82A80913D01883028F08F
:1050100087E0E82EF12CB12C08C0BA010E947F294C
:105020000197B1F3D0903D0116C0DE2CC5010E2CC6
:1050300002C0959587950A94E2F780FD06C081E04D
:10504000E81AF10891F7D12C06C0B8018E2D0E9404
:105050007F290197A1F38EE0189FF0011124E656F5
:10506000F64FE00FF11DD08209C08EE0189FF001CD
:105070001124E656F64FE40FF11DD08009831A8300
:1050800069817A818D2D0E947F290F900F900F905A
:105090000F900F90DF91CF911F910F91FF90EF90A4
:1050A000DF90BF90AF90089590913901917991313F
:1050B000F1F4382F3695369536953F30A8F5E091C6
:1050C0003E01F0913F01282F277081E090E001C060
:1050D000880F2A95EAF7E30FF11D662319F09181F5
:1050E000892B03C080959181892381830895209124
:1050F0003E0130913F01F90171964FEF9EE05291D0
:10510000552331F0851305C061110EC0108201C016
:10511000492F9150A0F7662339F0F901E40FF11DF2
:1051200047FDFA95828308950895E0913E01F0913C
:105130003F0180E1DF011D928A95E9F70895809192
:10514000F60908959091F609892B8093F609089540
:1051500080959091F60989238093F609089510921D
:10516000F60908959091F509892B8093F509089522
:1051700080959091F50989238093F50908951092FF
:10518000F50908958093E10908951092E1090895C1
:1051900080913E0190913F01FC0131969C01205F7E
:1051A0003F4F80E0919191118F5FE217F307D1F7A4
:1051B0000895E0913E01F0913F018091F6098083CE
:1051C000E0913E01F0913F0190818091F509892B9A
:1051D0008083E0913E01F0913F018091F409809538
:1051E000908189238083E0913E01F0913F0180917D
:1051F000F30980959081892380838091E109882338
:1052000061F0E0913E01F0913F019081892B808314
:105210000E94C82881111092E10980913E0190916D
:105220003F010C94E21E982F92959F7019F0892FE0
:1052300024E001C020E0982F9695969511F02E5FFE
:10524000892F982F969509F02F5F822F08950C943F
:10525000EF1F882341F0EFE9FFE03197F1F700C03D
:1052600000008150F6CFA895089582E084BD93E0B8
:1052700095BD9DE797BD80936E0008952FB7F89474
:105280008091F8099091F909A091FA09B091FB0970
:105290002FBF08959C014FB7F8948091F809909121
:1052A000F909A091FA09B091FB094FBF821B930B3A
:1052B000089578941F920F920FB60F9211248F9336
:1052C0009F93AF93BF938091F8099091F909A091B2
:1052D000FA09B091FB090196A11DB11D8093F8094F
:1052E0009093F909A093FA09B093FB09BF91AF918C
:1052F0009F918F910F900FBE0F901F901895CF9395
:10530000C82FCB010E94D600803819F480E090E0CD
:105310000CC0EC2FF0E0FE2FEE27E050F840E80F35
:10532000F11DE80FF11D85919491CF910895803F73
:1053300008F44AC0803F11F49FEF03C0813F21F47D
:1053400091E090934D0A3BC0823F11F49FEF03C060
:10535000833F21F491E090934C0A31C0893F70F46F
:1053600021E030E09CE0980F01C0220F9A95EAF707
:1053700090914B0A292B20934B0A21C0893F11F4AD
:1053800091E003C08A3F21F49FEF90934E0A17C02B
:105390008B3F11F49FEF03C08C3F21F491E0909379
:1053A0004F0A0DC021E030E093E0980F01C0220FBA
:1053B0009A95EAF79091480A292B2093480A895F29
:1053C000843010F41092490A0895803F08F463C0B5
:1053D000803F39F480914D0A87FF5DC010924D0ADD
:1053E0000895813F29F480914D0A1816BCF3089561
:1053F000823F39F480914C0A87FF4DC010924C0ACD
:105400000895833F29F480914C0A1816BCF308953F
:10541000893F88F4845F21E030E0A90102C0440F95
:10542000551F8A95E2F7CA01809590914B0A89230E
:1054300080934B0A0895893F39F480914E0A1816DB
:1054400054F510924E0A08958A3F29F480914E0A2D
:1054500087FF21C0F6CF8B3F39F480914F0A87FF39
:105460001AC010924F0A08958C3F29F480914F0A78
:105470001816BCF308958D5F21E030E0A90102C049
:10548000440F551F8A95E2F7CA0180959091480A0A
:1054900089238093480A08958BE49AE00E94ED1EC8
:1054A0000E943E299093FE098093FD0908950F9371
:1054B0001F93CF93DF938091010A8823D9F18091C4
:1054C000FF099091000A0E944A292091410130E091
:1054D0002817390778F50E94FE2B8F70825E809323
:1054E000410102E01AE0C0E0D0E090E0F8018191D3
:1054F0008F01882369F0CC2319F08C2F9D2F02C0D7
:1055000084EF90E56091400170E00E94802391E07B
:105510002196C634D10551F72091400181E08227C0
:10552000809340019093010A0E943E299093000AC3
:105530008093FF098091FD099091FE090E944A29FC
:10554000AC0190914A0A923019F028E230E002C092
:1055500025E030E04217530708F460C0D0914E0AAE
:10556000C0914F0A20914C0A80914D0A822B8D2BBD
:105570008C2B19F410924A0A51C0923020F49F5F8C
:1055800090934A0A4BC08091490A8F5F8093490AE1
:105590008F7021F010924E0A10924F0A0E944C2AEE
:1055A000D0934E0AC0934F0A8091FC098F5F80937D
:1055B000FC098D3098F18091390187FD02C080E0AF
:1055C00001C085E08093FC099091480A292F220FA1
:1055D000220F290FEBE4FAE03CEE44E181818823BD
:1055E000C1F0992349F0181614F08FEF01C081E043
:1055F000829F802D11240AC018162CF48F5F8531EC
:105600002CF0418306C081508C3E14F0818301C090
:10561000318331968AE0EF34F80701F7DF91CF91BB
:105620001F910F910895EBE4FAE085E0DF011D92F0
:105630008A95E9F71092480A089580E00895CF937B
:105640009091F209911135C0C82F8091500A88239A
:1056500019F0813051F02AC0E0913E01F0913F01F4
:1056600080818252823030F508C0E0913E01F09195
:105670003F01808182528230A0F48C2F0E948C17CF
:1056800081110AC0C13151F40E94D70290913901B1
:1056900080E189278093390191E001C090E0917009
:1056A00009C08C2F0E941D2B91E004C01092500A5B
:1056B00001C090E0892FCF9108956DEE7EEF80E0DC
:1056C00090E00E94352F60E082E090E00E94172F6A
:1056D00060E083E090E00E94172F60E084E090E0BB
:1056E0000E94172F60E085E090E00C94172F80E077
:1056F00090E00E94112F21E08D3E9E4F09F020E0A6
:10570000822F0895AA1BBB1B51E107C0AA1FBB1F14
:10571000A617B70710F0A61BB70B881F991F5A953D
:10572000A9F780959095BC01CD01089597FB072EB0
:1057300016F4009407D077FD09D00E94822B07FC55
:1057400005D03EF4909581959F4F08957095619591
:105750007F4F0895EE0FFF1F0024001C0BBE079023
:10576000F691E02D09948F929F92AF92BF92CF92C3
:10577000DF92EF92FF92CF93DF93EC016881798102
:105780008A819B81611571058105910521F464E28F
:1057900079ED8BE597E02DE133EF41E050E00E9499
:1057A0004B2F49015A019B01AC01A7EAB1E40E94C9
:1057B0006A2F6B017C01ACEEB4EFA50194010E944D
:1057C000782FDC01CB018C0D9D1DAE1DBF1DB7FFD9
:1057D00003C00197A109B04888839983AA83BB833A
:1057E0009F77DF91CF91FF90EF90DF90CF90BF90A8
:1057F000AF909F908F9008950C94B32B80E091E030
:105800000C94B32BA0E0B0E08093000190930101D1
:10581000A0930201B09303010895FB01DC0104C0D1
:105820008D910190801921F441505040C8F7881B98
:10583000990B08950F931F93CF93DF93CDB7DEB7E6
:105840002E970FB6F894DEBF0FBECDBF0D891E890F
:1058500086E08C831A8309838FEF9FE79E838D8375
:10586000AE01475E5F4F6F89788DCE0101960E9431
:10587000492CEF81F885E00FF11F10822E960FB6AC
:10588000F894DEBF0FBECDBFDF91CF911F910F9176
:1058900008952F923F924F925F926F927F928F92D4
:1058A0009F92AF92BF92CF92DF92EF92FF920F93AF
:1058B0001F93CF93DF93CDB7DEB72B970FB6F89436
:1058C000DEBF0FBECDBF6C017B018A01FC011782D8
:1058D0001682838181FFCCC1CE0101963C01F60185
:1058E0009381F70193FD859193FF81917F01882337
:1058F00009F4BAC1853239F493FD859193FF819102
:105900007F01853229F4B60190E00E94692EE7CF2D
:10591000912C212C312CFFE1F315D8F08B3279F04A
:1059200038F4803279F08332A1F4232D20611DC038
:105930008D3261F0803369F4232D216016C0832DF0
:105940008260382EE32DE4603E2E2AC0F32DF860ED
:105950001DC037FC2DC020ED280F2A3040F08E32BC
:10596000B9F436FC81C1232D2064322E19C036FED5
:1059700006C08AE0989E200D1124922E11C0EAE004
:105980002E9E200D1124222EF32DF0623F2E08C0F2
:105990008C3621F4832D8068382E02C0883641F47D
:1059A000F70193FD859193FF81917F018111B3CF21
:1059B000982F9F7D9554933028F40C5F1F4F9FE3E1
:1059C00099830DC0833631F0833771F0833509F048
:1059D00059C021C0F801808189830E5F1F4F882440
:1059E0008394912C530113C02801F2E04F0E511CF7
:1059F000F801A080B18036FE03C0692D70E002C0BE
:105A00006FEF7FEFC5010E945E2E4C018201F32DE6
:105A1000FF773F2E16C0280122E0420E511CF801EC
:105A2000A080B18036FE03C0692D70E002C06FEF28
:105A30007FEFC5010E94532E4C01F32DF0683F2EDD
:105A4000820133FC1BC0822D90E088169906B0F4C9
:105A5000B60180E290E00E94692E2A94F4CFF5010D
:105A600037FC859137FE81915F01B60190E00E947D
:105A7000692E21102A9421E0821A91088114910440
:105A800071F7E8C0843611F0893641F5F80137FE28
:105A900007C060817181828193810C5F1F4F08C0B4
:105AA00060817181072E000C880B990B0E5F1F4FD0
:105AB000F32DFF763F2E97FF09C090958095709546
:105AC00061957F4F8F4F9F4FF0683F2E2AE030E067
:105AD000A3010E94A52E882E861845C0853731F473
