:100000000C9402010C941F010C941F010C941F010D
:100010000C941F010C941F010C941F010C941F01E0
:100020000C941F010C941F010C94DD120C94B2135C
:100030000C9473090C941F010C941F010C941F0164
:100040000C941F010C9419040C941F010C941F01B3
:100050000C941F010C94E21F0C941F010C941F01BF
:100060000C941F010C9412090C941F010C941F0195
:100070000C941F010C941F010C941F010C941F0180
:100080000C941F010C941F010C941F010C941F0170
:100090000C941F010C941F010C941F010C941F0160
:1000A0000C941F010C941F010C941F016906730628
:1000B00073067C067C06890689069D069D064D080A
:1000C00056085608560856085808580858085B0835
:1000D0005B085B085B085B085B085E085E085E08FF
:1000E0005E085E085E086108610861081B143E1422
:1000F000FE143E14FE148314A614FE14C814DB145C
:1001000064176417B217B21734187F180F1A0F1A32
:10011000A8180F1A07180718811996190F1AFC1931
:10012000464780484F4E4D4B454A5251507C4C49B2
:100130004431287D652A302F432E347F3833132DE8
:10014000414227120F377E3640260C0E100D18251F
:100150003E3F241C0B1105233D170A2C19091522BB
:100160003C062108071B161A3B201D7A04141F3A6F
:10017000291E7B7879392B3500000000010101022E
:1001800002030405050607090A0B0C0E0F111214D1
:100190001517191B1D1F212325282A2C2F31343612
:1001A000393B3E414346494C4F5255585A5D616474
:1001B000676A6D707376797C7F8386898C8F929560
:1001C000989B9EA2A5A7AAADB0B3B6B9BCBEC1C448
:1001D000C6C9CBCED0D3D5D7DADCDEE0E2E4E6E8A0
:1001E000EAEBEDEEF0F1F3F4F5F6F8F9FAFAFBFCD0
:1001F000FDFDFEFEFEFFFFFF626200280083150882
:100200007432000011241FBECFEFDAE0DEBFCDBF95
:1002100015E0A0E0B1E0E4EEFDE402C005900D922F
:10022000A832B107D9F728E0A8E2B5E001C01D92D5
:10023000A53DB207E1F70E94CE0E0C94F0260C9477
:100240000000E82FF0E088E0989FE00DF11D1124F8
:10025000E05EFE4F849108950F931F93CF93DF9339
:100260008C01C62FD42F0E943C1FF8019281C1300F
:10027000C1F028F0C43021F1C53051F136C09923C6
:1002800091F09D2F9270D0FD90622D2F24709823B5
:1002900021F080FD02C085E30EC0822349F489E28B
:1002A0000AC0911103C0809128051BC082FF02C0C3
:1002B0008DE301C081E280932805809128050DC05F
:1002C000992321F0827289F48CE207C08CE209C084
:1002D000992331F085FD09C082E50E94571603C0BD
:1002E00082E50E9485160E94761FF801828188238C
:1002F00089F1C330B1F050F4C23061F585E090E08F
:10030000DF91CF911F910F910C94F30DCA30D9F06A
:10031000CB3001F58D2FDF91CF911F910F910C9470
:100320009A0E9091E80581E089278093E8059091E5
:10033000240888E8892780932408DF91CF911F91B2
:100340000F910C94CD038D2FDF91CF911F910F91C1
:100350000C944106DF91CF911F910F910895611187
:1003600007C0FC018281882319F080E09FE5089591
:1003700080E090E008952B9888E5299A000029985C
:100380008150D9F70895CF9324982C9A81E00E9448
:10039000B21F1C9B05C0109205011092210132C0B2
:1003A000C1E0C09305016A98729A25982D9A85E05C
:1003B0000E94B21F629903C01092210102C0C09333
:1003C00021018091D5089091D6088A3A9B4BD1F4AF
:1003D0001092D6081092D50880912101882391F0BF
:1003E000259A2D98559A5D98549A5C9A8FEF91E1D1
:1003F0002AE7815090402040E1F700C00000CF91F3
:100400000C943409CF9108950E94100684B18A603B
:1004100084B9229885B18E6085B90895BF92CF9234
:10042000DF92EF92FF920F931F93CF93DF93809110
:100430002A05882339F01A999FC010922A0581E075
:10044000809329058091290581110EC00E94C71F44
:100450002091DB053091DC058217930709F48CC0ED
:100460009093DC058093DB052B9A88E5299A0000A0
:1004700029988150D9F72B98299A0000299828E0CB
:100480002A95F1F7EDEDF5E038E50BE215E043E8EC
:1004900055E0EE24E394F12C7AE0C72EEA01D8016E
:1004A00060E070E01A9B02C080E001C080E89881A3
:1004B0009695892B88832B9A299A0000299888E0A1
:1004C0008A95F1F7C701062E01C0880F0A94EAF752
:1004D000D990209104012D1540F42C91211112C0C6
:1004E0009081892B8083CC9217C023E0B22EBD145B
:1004F00098F080959081892380832C9121110AC0E6
:1005000031500AC093E0B92EBD1430F0809590812F
:100510008923808321502C9311966F5F7F4F683021
:10052000710509F0BFCF485F5F4F085F1F4F3196DD
:1005300025E04B3D520709F0B1CF311106C00E94B2
:10054000BB0181E080932A0517C080910D0182FDD7
:1005500007C08CE090E090933F0780933E0704C073
:1005600010923F0710923E0780912905882321F0C1
:10057000109229050E940E0281E0DF91CF911F9118
:100580000F91FF90EF90DF90CF90BF900895E82FEC
:10059000F0E0E352FA4F80810895089580911B01A5
:1005A0008A3028F10E940E02E3E8F5E080E090E056
:1005B0002191222339F0282F2F7E2D3211F49C59BE
:1005C00001C09F5F8F5F883599F780912101983C2A
:1005D00041F481111AC081E080931B0180932001B6
:1005E0000895811111C081E091110FC00DC00E94CA
:1005F000BB018DE08A95F1F7000083B182FB88276B
:1006000080F991E08927089580E0089580912C0178
:1006100084FD05C08FEB8093040180E004C08BEF64
:100620008093040186E060E00C9410178AB1806D1D
:100630008AB98BB18F728BB9E0E0F2E6E491AAEE51
:10064000B5E0EC93E0E0F3E6E4911196EC931197BA
:10065000E0E0F4E6E4911296EC930895813039F0ED
:1006600020F0823029F45C9A03C05F9A01C05E9A40
:1006700021E030E0A90102C0440F551F8A95E2F73E
:10068000CA019091E905892B8093E905089581308D
:1006900039F020F0823029F45C9803C05F9801C0E3
:1006A0005E9821E030E0A90102C0440F551F8A95F1
:1006B000E2F7CA0180959091E90589238093E905C5
:1006C0000895EF92FF920F931F93CF93DF93D82F4C
:1006D0000AEE15E0C0E0E62EF12CDD2331F0F80142
:1006E00080818D1B883088F401C08C2F970102C057
:1006F000359527958A95E2F720FF04C08C2F0E943C
:100700002E0303C08C2F0E944703CF5F0F5F1F4F44
:10071000C33019F7DF91CF911F910F91FF90EF90A8
:1007200008956091E90580E00C946103CF92DF9217
:10073000FF920F931F93CF93DF93F82E0AEE15E0ED
:10074000C0E0D0E0CC24C394D12CF80181918F017A
:100750008F110DC02091E905C6010C2E01C0880F34
:100760000A94EAF782278093E9050E949103219673
:10077000C330D10551F7DF91CF911F910F91FF90B9
:10078000DF90CF900895682F669581E00C94610307
:10079000682F669589E00C9461036091E80585E116
:1007A0000C946103682F80E10E9461030C94CD03D7
:1007B000F8943E98E0E9F0E080818E778083E1E96B
:1007C000F0E080818C7F80838FEF90E090939900A0
:1007D00080939800789408950C94D80390E0209129
:1007E0009800309199008217930721F09093990017
:1007F000809398000895FC019091D40890FF18C050
:1008000082818823A9F0892F8E7F8E3039F48091E0
:10081000F0058A508A3050F48AE008C0803141F4F3
:100820008091F005865F863708F086E78093F005B3
:1008300008951F920F920FB60F9211242F933F939A
:100840004F935F936F937F938F939F93AF93BF93D8
:10085000EF93FF938091EF0591E08E3740F0209168
:100860003E0730913F072D30310508F490E090FFAE
:1008700030C09091EE059F5F923018F49093EE0592
:100880004BC01092EE0520913E0730913F072D306E
:10089000310520F0882329F0815001C08F5F8093BB
:1008A000EF05E091EF05F0E0E858FE4FE49180910C
:1008B000070120E031E0281B3109E29FC001E39FDE
:1008C000900D112497FF02C081509F4F892F809572
:1008D00021C0809182088823D9F08091ED05109283
:1008E000ED058F3FA9F08091F005E82FF0E0E85882
:1008F000FE4FE491E093070190910601890F8093E8
:10090000F0058F3711F0811103C091959093060186
:10091000809107010E94EE03FF91EF91BF91AF918B
:100920009F918F917F916F915F914F913F912F9107
:100930000F900FBE0F901F9018952BB1362F30954A
:1009400023233BB1632B3FB7F894FC0185E2815030
:10095000E1F0919148E06BB997FF2BB9990F000036
:1009600000C02BB9000000C000C000C000C000C023
:1009700000C000C000C000C000C000C000C000C077
:1009800000C000C04A9539F7E2CF3FBF0895519AA1
:1009900062E00C949D049D5F811524E0920710F0A5
:1009A0009350FACF0895EF92FF920F931F93CF9336
:1009B000DF9300D000D01F92CDB7DEB7062F142FE3
:1009C00079010E94CB04492F9430B8F5602F70E074
:1009D000869F9001879F300D1124832F9927A12F87
:1009E000B0E08A9FF0018B9FF00D9A9FF00D1124CB
:1009F00020E031E0261B370B2A9FC0012B9F900D72
:100A00003A9F900D11249C839983892F8F0F8D839A
:100A10008A831F1B1B83842F90E0FE01E80FF91FC0
:100A20003181FE01E80FF91F2081FE01E80FF91F57
:100A30008281F7018183308322830F900F900F9082
:100A40000F900F90DF91CF911F910F91FF90EF903A
:100A500008958AE090E00C941626AB01BC018AE070
:100A600090E00C94342660910C0170910D018091FE
:100A70000E0190910F010C942D0584E2E3E8F8E05B
:100A8000DF011D928A95E9F7089580911F0188235F
:100A900019F0E3E8F8E034C08091FF0591E08B376E
:100AA00040F020913E0730913F072D30310508F48A
:100AB00090E090FFEECF90911B01992351F320918C
:100AC0003E0730913F072D30310568F0843018F033
:100AD00084508093FF05E091FF05F0E0E858FE4F59
:100AE000A3E8B8E002C08C5FF4CF8C919491899F09
:100AF000C00111249D9328E0A73AB207B1F7C9CFEE
:100B0000808123E0829FC00111249595879595955A
:100B10008795819388E0E73AF80791F783E898E0B2
:100B20000C94C70420910D0122FF15C027EA38E07C
:100B30000E94D304E3E8F8E08091A7089091A80808
:100B4000A091A90881939193A19388E0E73AF807CF
:100B500099F70C94450508950F931F93CF93DF9356
:100B6000162FD42F0E94CB04082FC92F80910D017E
:100B700082FF23C0887F883029F44D2F612F802F7A
:100B80000E94920500930C01C37080910D018C7F2F
:100B9000C82BC0930D0110930E01D0930F016091EB
:100BA0000C0170910D0180910E0190910F01DF9168
:100BB000CF911F910F910C942D05DF91CF911F9133
:100BC0000F91089590910D0192FD04C0589A1092D2
:100BD000FF0511C087FD04C087311CF080E001C013
:100BE00086E1880F880F880F90910D019770892BEF
:100BF00080930D01589860910C0170910D018091C6
:100C00000E0190910F010E942D0590910D014091D0
:100C10000F0160910E0180910C0193700C94AC0552
:100C20000E941722811104C00E94F8210E943305FE
:100C30000E94290560930C0170930D0180930E01B1
:100C400090930F0180910F01811103C08FE7809372
:100C50000F01509A80910D018695869586950C948A
:100C6000E205EDE0F1E0808182FB222720F991E0AE
:100C7000922790FB82F980838695869586950C94C1
:100C8000E205CF92DF92EF92FF920F931F93CF93E3
:100C9000DF93D82FE0900C0180910D018370F82E26
:100CA000C0900E0140910F01042FD0FF02C0CFEF82
:100CB00001C0C1E00E943C1F81FDC1958D2F90E0D5
:100CC0008930910508F04CC0FC01EA5AFF4F0C94A2
:100CD000EC22DF91CF911F910F91FF90EF90DF9069
:100CE000CF900C94310680910D018695869586955E
:100CF0008C0F0E94E20534C080910C0120910D01FF
:100D0000922F93707C0124E1C202E00CF11C1124AB
:100D100029C080910E0191E1C90260011124C80E21
:100D2000D11C2FEFC216D10409F01CF4D7FC27C048
:100D300019C0CC24CA94D12C15C080910F0191E127
:100D4000C902A00111248A01080F111D0F3F1105CE
:100D500009F01CF417FD16C005C00FEF10E002C02B
:100D6000D33098F0402F6C2DC701DF91CF911F91A8
:100D70000F91FF90EF90DF90CF900C94AC05C12CB9
:100D8000D12CF0CF00E010E0EDCFDF91CF911F919B
:100D90000F91FF90EF90DF90CF900895E3E8F8E097
:100DA000818360834283339698E0E73AF907C1F77D
:100DB0000C944505FC01909180078081803649F5AF
:100DC00081818B3B21F4CF0103960C945B0B933014
:100DD00019F482810C94E205943021F443816281FC
:100DE0000C94CE069530A9F48C3068F4A82FB0E0AE
:100DF00084819381228111962C9311979C93129652
:100E00008C930C9445058F3F21F4828193810C943F
:100E1000381A0895CF93C82FE091FE05F0E0E85806
:100E2000FE4F449190910D0160910E0180910C0153
:100E300093700E94920530910B012091FE053C9F1A
:100E4000200D11242093FE052C1738F08C2F90E0F4
:100E5000820F911D8F3791051CF0319530930B0156
:100E6000CF910895CF93C82FECE0F1E043816281E8
:100E70008091FC059091FD050E9492058091FC05F2
:100E80009091FD0523E0C29F800D911D11240E94C9
:100E9000CB049093FD058093FC05CF910895EF92CC
:100EA000FF921F93CF93DF93182F169580FD119516
:100EB00083E8E82E88E0F82EC0E0D0E08091FA05C3
:100EC0009091FB05970140910F0160910E018C0FED
:100ED0009D1F0E94D304E09623E0E20EF11CC03473
:100EE00082E0D80759F70E9445058091FA05909154
:100EF000FB0520E1129F8019910911240E94CB0467
:100F00009093FB058093FA05DF91CF911F91FF909D
:100F1000EF900895FF920F931F93CF93DF939091DB
:100F2000F9059F5F282F2695291740F09093F90522
:100F3000DF91CF911F910F91FF900895C82F1092CC
:100F4000F9050E943D05C0FF02C0CFEF01C0C1E01E
:100F500000E010E0D0E0F0900A012F2D2D0F27FFC8
:100F600002C0245F03C02C300CF02C50022E000C69
:100F7000330BC901880F991F280F391F2D57374F81
:100F800080910C0140910D01942F937040910F01BD
:100F900060910E01800F911F0E94D304DC0F0E5C44
:100FA0001F4F083C1105B9F6CF0DCD301CF0109243
:100FB0000A0108C0C7FD03C0C0930A0103C08CE04A
:100FC00080930A01DF91CF911F910F91FF900C94B4
:100FD00045059091F8059F5F891718F09093F805E3
:100FE00008951092F8050E943D0590E020E0809160
:100FF0000901820F8C3098F490E0FC01EE0FFF1F86
:101000008E0F9F1FFC01ED57F74F8091A70890911D
:10101000A808A091A90880839183A28391E02F5F03
:10102000243029F791110E94450590910801809183
:101030000901890F809309018D5F8F30B0F0919580
:10104000909308018091F6059091F70588960E948B
:10105000CB049093F7058093F60527EA38E040919A
:101060000F0160910E010C94D304089558992DC07E
:1010700090910D0192FF28C080913907811124C001
:10108000892F869586958695E82FF0E0E731F10562
:10109000E0F4E15AFF4F0C94EC2240910F01609173
:1010A0000E0180910C0193700C9492050C940A0728
:1010B00084500C94320786500C944F078D500C943A
:1010C0008A0783510C94E907589A08958BB18F725F
:1010D0008BB90E94D803589A1092FF0508950E9478
:1010E00010060E94910380911B01843018F081E06A
:1010F00080931F010895589918C08091F40590912C
:10110000F5050E94D31F899780F00E94C71F909316
:10111000F5058093F40580911F01882321F08091CB
:101120002101811102C00C94360808958091F205C6
:101130009091F3050E94D31F8739910508F457C099
:101140000E94C71F9093F3058093F2058091F105EB
:101150008F5F8093F105909139079923C1F0843016
:1011600008F445C0913011F080E001C083E0809325
:10117000F105379B08C00E94D803589A9BB180E1C3
:1011800089278BB90895109239070C946F088091C4
:101190001F01882361F158988091F105813041F455
:1011A0008BB18F7A8BB90E943D050E94450513C013
:1011B000833089F45C9A80913C0781115E9A80911A
:1011C0003C07882319F06FEF40E002C060E04FEF6A
:1011D00080E00E94CE0690913C078091F10591112C
:1011E00002C0853010F48B3010F01092F105089594
:1011F0009091000680910106891751F0E92FF0E0E7
:10120000EE5FF94F80819F5F9093000690E0089514
:101210008FEF9FEF08959091C80095FFFCCF8093CA
:10122000CE0008951F920F920FB60F9211248F9344
:101230009F93EF93FF93E091010681E08E0F9091D1
:101240000006891741F09091CE00F0E0EE5FF94F73
:10125000908380930106FF91EF919F918F910F9062
:101260000FBE0F901F9018950E94D21680911B01FF
:10127000823050F48FE19EE40197F1F700C0000046
:101280000E9464120E944509FFCF9EE088E10FB6DC
:10129000F894A895809360000FBE90936000089525
:1012A0008091CB088430E1F081E08093020729E44B
:1012B00088E190E00FB6F894A895809360000FBE87
:1012C000209360000E94660883B7817F846083BF9B
:1012D00083B7816083BF7894889583B78E7F83BFFF
:1012E00008950C946F081F920F920FB60F9211245D
:1012F0008F939F93AF93BF9380910207813099F4AE
:101300008091290890912A08A0912B08B0912C086F
:101310008096A11DB11D8093290890932A08A0935F
:101320002B08B0932C08BF91AF919F918F910F9094
:101330000FBE0F901F90189580911D070895089576
:101340000F931F93CF930E94C71F8C01C0E0C80169
:101350000E94D31F4E9708F50E94F8088F3F2FEF89
:101360009207C9F0AC0155274D305105A1F02C2F43
:1013700030E04A30510551F4C23030F0F901EE5FEF
:10138000F84F80818F3449F08FE590E0F901EC5FF0
:10139000F84F8083CF5FC731D0F2EC2FF0E0EC5FE5
:1013A000F84F108284E097E0CF911F910F9108953C
:1013B000CF93C9E10E94F808019611F0C150D0F70F
:1013C000C0932107CF9108950F931F93CF93DF937D
:1013D0005D991EC0092F182F80912107811110C01F
:1013E000CFEF08C0CC2361F00E94D80988E28A952B
:1013F000F1F7C150809121078823A1F3CC2341F05C
:10140000C12FD02F8991882319F00E940B09FACFA0
:10141000DF91CF911F910F9108959C012F563109B3
:101420002230310528F02A5731092230310560F485
:1014300020912007211103C02FEF209320079093C4
:101440001F0780931E0702C01092200720912207D9
:10145000211116C09F938F938EE391E09F938F93FA
:101460008AEA98E09F938F930E945B230F900F90DE
:101470000F900F900F900F908AEA98E00C94E40977
:101480000895CF93DF93EC0180912207811132C040
:101490008C81282F082E000C330B3F938F938B8168
:1014A000282F082E000C330B3F938F938A81282F0F
:1014B000082E000C330B3F938F938981282F082E21
:1014C000000C330B3F938F9386E591E09F938F93AE
:1014D0008AEA98E09F938F930E945B238AEA98E0C0
:1014E0000E94E4098DB79EB70C960FB6F8949EBF84
:1014F0000FBE8DBF8091220781111FC088819091FE
:101500001C078917D1F080931C071F928F9386E7E1
:1015100091E09F938F9388EB98E09F938F930E9425
:101520005B230F900F900F900F900F900F908AEA0F
:1015300098E0DF91CF910C94E409DF91CF91089569
:101540000E94E4090C94A009CF93DF93EC0186E993
:101550000E94B21FCE01DF91CF910C94A00A80911E
:101560002307882321F0109223070C94761F0895F7
:10157000CF93DF9320912307211169C02091220787
:10158000211165C0EC0181E891E00E94E409FE01AF
:10159000CE010896219121111AC08E179F07D1F70D
:1015A00085E991E00E94A00A42E050E06CE971E018
:1015B0000E944E23892B21F481E08093100147C0C3
:1015C0001092100110923F0710923E0740C02097E2
:1015D00039F38F811F928F938E811F928F938D810C
:1015E0001F928F938C811F928F938B811F928F9369
:1015F0008A811F928F9388811F928F938FE991E048
:101600009F938F938AEA98E09F938F930E945B2326
:101610008AEA98E00E94E4098DB79EB742960FB619
:10162000F8949EBF0FBE8DBF8881811110C08A8142
:10163000833531F0893331F0873449F482E103C0D6
:1016400080E101C081E1DF91CF910C949603DF919D
:10165000CF91089580E090E00C94B80A8091200723
:101660008823D9F0823020F081508093200708959C
:10167000209103072F5F2093030780911E0790910D
:101680001F0730E04FE451E0481B590B2417350782
:1016900020F0109203070C940D0A089586EC91E057
:1016A0000C94A40A803319F487ED91E002C086EE11
:1016B00091E00C94A40ACF93DF93EC0185EF91E0C5
:1016C0000E94E409CE010E94E4098AE991E0DF91D9
:1016D000CF910C94A40A84E092E00C945B0B82E11D
:1016E00092E00E94A00AFC018081089581E292E0CC
:1016F0000C94A40A559A5D980E94BE1FF89487E640
:101700008093CC008091C90080698093C90080914A
:10171000C90088608093C9008091CA008093CA0084
:101720008091C80082608093C800789481E392E041
:101730000E94A40A81E392E00E94A00AFC01808139
:10174000813421F48181843591F505C08F3479F598
:1017500081818B3461F50E944E0B81E392E00E94FF
:10176000A40A85E392E00E94A40A0E946B0B86EE15
:1017700091E00E94A40A8CE392E00E94A40A0E94D5
:10178000760B8CE492E00E94A40A89E692E00E9423
:10179000A40A85EA92E00E94A40A89EB92E00E94E2
:1017A000A00A1092D6081092D5080E943409F89425
:1017B0008CE08093CC00789481E392E00C94A00AB2
:1017C000CF93589903C0882309F496C0C82F8CEC96
:1017D00092E00E94A00AFC018081833308F456C085
:1017E000228190ED920F9A3008F050C02A5144E6C1
:1017F000849F200D112481819AE0899F200D11245E
:10180000213208F443C030E02F5C3E4F63E0220FEA
:10181000331F6A95E1F780911D0190911E01833776
:101820004EE0940709F4C901280F391FC9019695A4
:10183000879590931E0180931D0154E0369527955E
:101840005A95E1F74FEC420F40933B0737990CC094
:1018500041E0409338078037904110F4285401C08C
:101860002C5320933B0702C01092380780913B070E
:10187000823918F01092390709C08A3710F481E0D4
:1018800003C08A3818F485E080933907C130A1F588
:1018900090913B07EAE4F3E08AE52191921718F46E
:1018A0008A50D9F78CE2209139072111822F20919B
:1018B0003807820F211103C0943D08F084E680931D
:1018C0001C011F928F9388ED92E09F938F938AEA79
:1018D00098E09F938F930E945B238AEA98E00E948E
:1018E000A00A0F900F900F900F900F900F908AEA20
:1018F00098E0CF910C94A00ACF9108953F98479A11
:1019000081E00C94E00BCF939091CB0881E0943070
:1019100009F080E08093200180912C0187FF1CC09A
:101920000E9418158151914059F081E191E00E9487
:1019300013158091E8058D7F8093E8050E94CD0303
:1019400080913D07811129C080912001882329F1D0
:1019500080912C018F7707C0943061F09091210124
:10196000992321F0806880932C0117C08CE080932C
:101970001B0113C00E9418158252914071F082E23F
:1019800091E00E9413158091E80582608093E8053C
:101990000E94CD0381E080933D078091210188233F
:1019A00009F41FC15D9914C10E94D80980911001EA
:1019B000811105C080913C0781110E942A0B809102
:1019C0001B01823031F481E00E94E00B83E08093C0
:1019D0001B01C0913707CC2309F441C00E946F0B53
:1019E0008133E9F58AEE92E00E94A00AFC010190A1
:1019F0000020E9F79F01255131092817390779F5AA
:101A0000C13081F422E020933707C0931F01109268
:101A10003C0721E1FC01A4E2B7E001900D922A9578
:101A2000E1F71DC041E150E064E277E00E944E23FF
:101A3000892B51F0809137078F5F8093370785306E
:101A400070F0109237070BC08DEF92E00E94A00A51
:101A500080911F018F30A8F782E080933707809133
:101A60004307811194C080914007909141070E94E3
:101A7000D31F883E934008F48AC00E94C71F9093EA
:101A800041078093400780913C07811105C08091F8
:101A9000370781112FC008C0809136078F5F809370
:101AA00036078370A1F33DC00E946F0B813321F490
:101AB00081E080933C071CC08033E1F410923C0726
:101AC000809142078F5F809342079091200191118E
:101AD00011C090911B01992369F08A3558F05D9AE5
:101AE0008091C900877F8093C90084E080931B01A7
:101AF0001092420780911F01882399F0843629F4BF
:101B000010921F010E9491030CC08F5F80931F01F0
:101B1000843120F480913C07882319F084E6809377
:101B20001F01809135078F5F80933507877021F4FF
:101B3000809138070E94E00B80912001811127C01D
:101B400080911F01811123C080913E0790913F0732
:101B5000019690933F0780933E0720911B0121300F
:101B600031F48F30910518F022E020931B01209171
:101B70001B01233061F48832934248F084E0809363
:101B80001B015D9A8091C900877F8093C900809175
:101B90003A078823D9F08C3099F0823119F48AE21F
:101BA00093E010C0853181F40E94760B80E30E949F
:101BB000520B81E30E94520B85E493E00E94A00A3D
:101BC0008FE093E00E94A00A10923A070E942E0B29
:101BD00080911B01823028F40E94AF0ACF910C94AF
:101BE0009608CF910895CF93DF93C82F0E943C1F92
:101BF000D82F0E94D216C63199F170F4C23129F162
:101C000030F4C53009F471C0CC30F9F08DC0C33167
:101C100089F1C531E9F088C0CB3128F4C93190F59C
:101C2000C83141F081C0CC3B09F449C0C03C09F443
:101C30004AC07AC080912101882309F477C090912D
:101C40002C01905890932C0172C0C0933A076EC03B
:101C5000D0FF6AC0C0933A0781E080931F0167C03C
:101C600080911F01811102C081E001C084E6809350
:101C70001F015CC090911B0181E0892780931B01AB
:101C800060E01AC080911C0160E090E00E94441A5C
:101C9000D0FF0BC08DE290E00E94381A60E0809186
:101CA0001D0190911E010E94441A8DE290E00E9455
:101CB000381A60E080913C070E94101737C081E01D
:101CC0008093370734C08091200181112FC05D9A25
:101CD0008091C900877F8093C9008AE080931B01AF
:101CE00010923C070E943F1E21C08D2F837251F03D
:101CF000DD7DD13031F48BE29CEF9093010880932D
:101D00000008FFCFDC3039F48AEA9BEB9093D608C9
:101D10008093D508FFCF82E39FE00E94381A82E3C8
:101D20009FE10E94381A02C080E001C081E0DF918B
:101D3000CF910895CF93DF93CDB7DEB729970FB634
:101D4000F894DEBF0FBECDBF96E0E5E3F1E0DE0123
:101D5000119601900D929A95E1F720913B013091F7
:101D60003C0140913D012F8338874987282F30E07F
:101D70008B3018F0ECEFFFEF02C0E1E0F0E0EC0F89
:101D8000FD1FE20FF31F808129960FB6F894DEBF86
:101D90000FBECDBFDF91CF910C94F30DCF9390E0A8
:101DA00080E80FB6F89480936100909361000FBEB5
:101DB0000E94C3010E94BF12789480912101882360
:101DC00021F00E947A0B0E947E0CCFEF8091CB080D
:101DD000C150843029F084E00E94B21FC111F6CFB7
:101DE0000E946B150E944509C1E080911B0184305F
:101DF00038F4A895823010F40E9475150E94830C67
:101E000080911B01823040F4809121018111EDCF3E
:101E10008091CB08843049F30E9450090E94450903
:101E20000E94CE02882309F310923F0710923E07CA
:101E30000E946F0880912101882389F0C0931B01C3
:101E4000C09323075D988091C90083FD03C084E699
:101E50000E94B21F8091C90088608093C900809160
:101E60003D07882311F28091CB08853009F0BDCF62
:101E70000E944011BACF8091550708958FEF90913D
:101E8000E800815095FD06C09AE69A95F1F700C0EA
:101E90008111F5CF8091E80085FB882780F991E0DA
:101EA00089270895CF93DF9300D01F92CDB7DEB777
:101EB0002091CB082430B9F423E029839B838A83C3
:101EC0002093E9000E943E0F81110DC040E050E0D8
:101ED00063E070E0CE0101960E9455118091E80008
:101EE0008E778093E8000F900F900F90DF91CF9145
:101EF0000895CF93DF9300D01F92CDB7DEB7209126
:101F0000CB082430C1F422E029839B838A8383E0B9
:101F10008093E9000E943E0F81110DC040E050E027
:101F200063E070E0CE0101960E9455118091E800B7
:101F30008E778093E8000F900F900F90DF91CF91F4
:101F40000895CF93DF932091CB082430A1F4EC01C6
:101F500082E08093E9000E943E0F81110CC040E0B6
:101F600050E065E070E0CE010E9455118091E800DC
:101F70008E778093E800DF91CF910895CF93DF9320
:101F8000EC019091CB089430B9F580912C018171CE
:101F90008131B9F49093E9008FEF9091E80081507E
:101FA00095FD06C095E19A95F1F700008111F5CFF6
:101FB0008091E80085FF20C040E050E060E170E0E3
:101FC0000BC081E08093E9000E943E0F811114C094
:101FD00040E050E068E070E0CE010E945511809131
:101FE000E8008E778093E80080E1FE01A5E4B7E089
:101FF00001900D928A95E1F7DF91CF91089580913C
:10200000CA08811109C00E9464120E94BF12809107
:10201000E20084608093E20008951092CA08089557
:10202000089542E061EC81E00E94FE1142E061EC23
:1020300082E00E94FE1142E061EC83E00E94FE110A
:1020400042E161EC84E00C94FE118091CD08833074
:1020500009F455C030F4813071F0823009F48EC03B
:1020600008958A3009F47AC08B3009F460C0893051
:1020700009F09CC020C08091CC08813A09F096C03C
:102080008091E800877F8093E8008091D00890914C
:10209000D108892B21F460E185E497E003C060E07A
:1020A00080E090E070E00E94A0118091E8008B77C2
:1020B0008093E80008958091CC08813209F076C0C1
:1020C0008091D0089091D108009719F0039709F0FA
:1020D0006DC08091E800877F8093E8008091E800E0
:1020E00082FD05C08091CB088111F8CF5FC080913F
:1020F000F100809355078091E8008B7753C0809161
:10210000CC08813A09F052C08091D0089091D10852
:10211000892B09F04BC08091E800877F8093E8000D
:102120008091E80080FFFCCF80912C0136C0809127
:10213000CC088132D9F58091D0089091D108892BB3
:10214000A9F58091E800877F8093E8000E94121231
:102150008091CE0880932C010C94D2168091CC08EB
:10216000813221F58091E800877F8093E8000E940A
:1021700012128091CF088093560708958091CC0861
:10218000813AA1F48091E800877F8093E8008091F4
:10219000E80080FFFCCF809156078093F10080918A
:1021A000E8008E778093E8000C94121208958091D5
:1021B0005507809344071092550780E00E94D20390
:1021C0000E9429160C94D2160C94D7100E94710903
:1021D000809144078093550708950C94E610292FA9
:1021E000332723303105C1F058F42130310579F01F
:1021F00022303105E9F58DE690E02CEA33E03CC071
:1022000021323105C1F02232310511F131C082E1B4
:1022100090E029E134E030C099278330910540F502
:10222000FC01EE0FFF1FE659FC4F20813181FC01BC
:10223000E959FC4F1AC06430D8F4E62FF0E0EE0FF5
:10224000FF1FE15AFC4F2081318189E090E014C0EA
:10225000643070F470E0FB01EE0FFF1FE95AFC4F91
:1022600020813181FB01ED5AFC4F808190E004C058
:1022700080E090E020E030E0FA013183208308958F
:1022800019BC82E089BD09B400FEFDCF8091D80061
:102290008F7D8093D8008091E00082608093E00081
:1022A0008091E00081FDFCCF0895CF92DF92EF9204
:1022B000FF920F931F93CF93DF93EC018B017A0171
:1022C0000E943112811133C0E114F10439F0F70199
:1022D00080819181081B190BC80FD91FC12CD12CEB
:1022E0000115110519F18091E80085FD16C0809156
:1022F000E8008E778093E800E114F10449F0F701DB
:1023000080819181C80ED91ED182C08285E00FC024
:102310000E943112882321F30AC089918093F10031
:1023200001501109FFEFCF1ADF0ADACF80E0DF9109
:10233000CF911F910F91FF90EF90DF90CF90089574
:102340002091D2083091D3082617370748F061153D
:10235000710539F42091E8002E772093E80001C040
:10236000B901FC0120E06115710579F18091CB087C
:102370008823F1F18530F1F18091E80083FD3CC0C4
:102380008091E80082FD2EC08091E80080FFEBCFB5
:102390002091F3008091F20090E0922B611571057D
:1023A00051F08830910538F421912093F10061506B
:1023B00071090196F3CF21E0089709F020E08091A0
:1023C000E8008E778093E800CECF2111CFCF0AC0EE
:1023D0008091CB08882361F0853061F08091E8001E
:1023E00083FD0AC08091E80082FFF2CF80E008956B
:1023F00082E0089583E0089581E008958F708093CE
:10240000E900EBEEF0E0808181608083EDEEF0E0AA
:1024100010826093EC0040838091EE00881F882733
:10242000881F08958091CC0887FF11C08091E80033
:1024300082FD05C08091CB088111F8CF11C0809139
:10244000E8008B770BC08091CB08882349F08091FE
:10245000E80080FFF8CF8091E8008E778093E80055
:1024600008952091E4003091E50095E64091EC005C
:10247000842F817040FF23C08091E80080FD1DC043
:102480008091CB08882399F0853099F08091EB00FA
:1024900085FD11C04091E4005091E50024173507F7
:1024A00029F3915011F09A01E1CF84E0089582E080
:1024B000089583E0089581E0089580E008954091B3
:1024C000E80042FFDDCF08950E94D0120E94D8128A
:1024D000E0EEF0E0808181608083E8EDF0E08081D3
:1024E0008F77808319BCA7EDB0E08C918E7F8C93A1
:1024F00080818F7E80831092CA0808950F931F9366
:10250000CF93DF930E94D0120E94D812C8EDD0E082
:1025100088818F77888388818068888388818F7D90
:10252000888319BC1092CB081092C8081092C90871
:1025300000EE10E0F80180818B7F808388818160CC
:10254000888342E060E080E00E94FE11E1EEF0E06E
:1025500080818E7F8083E2EEF0E0808181608083E5
:10256000808188608083F80180818E7F808388816C
:1025700080618883DF91CF911F910F910895E8EDDD
:10258000F0E080818F7E8083E7EDF0E080818160E4
:10259000808384E082BF81E08093CA080C947E121D
:1025A000E8EDF0E080818E7F80831092E200089554
:1025B0001092DA001092E10008951F920F920FB668
:1025C0000F9211242F933F934F935F936F937F93B9
:1025D0008F939F93AF93BF93EF93FF938091E1000D
:1025E00082FF0BC08091E20082FF07C08091E10072
:1025F0008B7F8093E1000E9412158091DA0080FFAA
:102600001DC08091D80080FF19C08091DA008E7FB4
:102610008093DA008091D90019BC80FF0BC082E062
:1026200089BD09B400FEFDCF81E08093CB080E94F4
:10263000FF0F04C01092CB080E940D108091E100A2
:1026400080FF19C08091E20080FF15C08091E200F8
:102650008E7F8093E2008091E20080618093E200AF
:102660008091D80080628093D80019BC85E0809367
:10267000CB080E94E4108091E10084FF35C0809176
:10268000E20084FF31C080912001823010F40E946A
:10269000340919BC82E089BD09B400FEFDCF8091E8
:1026A000D8008F7D8093D8008091E1008F7E809349
:1026B000E1008091E2008F7E8093E2008091E20051
:1026C00081608093E2008091C808882311F084E043
:1026D00007C08091E30087FD02C081E001C083E074
:1026E0008093CB080E94ED108091E10083FF29C008
:1026F0008091E20083FF25C08091E100877F809375
:10270000E10082E08093CB081092C8088091E1003C
:102710008E7F8093E1008091E2008E7F8093E200C3
:102720008091E20080618093E20042E060E080E01E
:102730000E94FE118091F00088608093F0000E945A
:102740001010FF91EF91BF91AF919F918F917F9169
:102750006F915F914F913F912F910F900FBE0F900E
:102760001F9018951F920F920FB60F9211242F935E
:102770003F934F935F936F937F938F939F93AF9309
:10278000BF93CF93DF93EF93FF93C091E900CF7096
:102790008091EC00D82FD17080FDD0E81092E90034
:1027A0008091F000877F8093F00078940E94F61368
:1027B0001092E9008091F00088608093F000CD2BAA
:1027C000CF70C093E900FF91EF91DF91CF91BF915E
:1027D000AF919F918F917F916F915F914F913F91B9
:1027E0002F910F900FBE0F901F9018951F93CF93AE
:1027F000DF9300D0CDB7DEB7ECECF8E084ED98E0E5
:102800002091F10021938E179F07D1F70E94251088
:102810008091E80083FFF2C08091CC089091CD08B0
:10282000492F50E04A30510508F0E8C0FA01EA5853
:10283000FF4F0C94EC22803881F0823809F0DEC022
:102840008091D0088F708093E9008091EB0085FB28
:10285000882780F91092E90007C08091C908882371
:1028600011F082E001C080E09091E800977F9093A2
:10287000E8008093F1001092F10095C0282F2D7F81
:1028800009F0BCC0882319F0823061F0B7C0809194
:10289000CE08813009F0B2C0933009F080E0809317
:1028A000C9082BC08091CE08811127C08091D00823
:1028B0008F7009F4A3C08093E9002091EB0020FF02
:1028C0001CC0933021F48091EB00806214C0909181
:1028D000EB0090619093EB0021E030E0A90102C091
:1028E000440F551F8A95E2F74093EA001092EA00E0
:1028F0008091EB0088608093EB001092E90080915A
:10290000E800877F53C0811179C01091CE081F77EE
:102910008091E3008078812B8093E3008091E80030
:10292000877F8093E8000E9412128091E80080FF68
:10293000FCCF8091E30080688093E300111102C016
:1029400082E001C083E08093CB0858C08058823079
:1029500008F054C0AE014F5F5F4F6091D008809186
:10296000CE089091CF080E94EF10BC01892B09F48A
:1029700045C09091E800977F9093E80089819A8103
:102980000E94A0118091E8008B778093E80036C008
:102990008038A1F58091E800877F8093E8008091DE
:1029A000C8088093F1008091E8008E778093E8005A
:1029B0000E94121223C0811121C08091CE089091F3
:1029C000CF0899270297D4F48091E800877F8093FD
:1029D000E8008091CE088093C8080E94121280916E
:1029E000C808811106C08091E30087FD02C081E024
:1029F00001C084E08093CB080E9411108091E80010
:102A000083FF0AC08091E800877F8093E80080916F
:102A1000EB0080628093EB000F900F90DF91CF91DD
:102A20001F910895089590935C0780935B07089524
:102A300080915B0790915C070895E0915B07F091AE
:102A40005C07309721F00190F081E02D099480E03F
:102A50000895E0915B07F0915C07309721F00280C8
:102A6000F381E02D09940895E0915B07F0915C07F4
:102A7000309721F00480F581E02D0994089520918C
:102A8000590730915A072817390771F090935A0760
:102A900080935907E0915B07F0915C07309721F034
:102AA0000680F781E02D0994089520915707309111
:102AB00058072817390771F09093580780935707E4
:102AC000E0915B07F0915C07309721F00084F1857D
:102AD000E02D099408950E94BE1F0E9404020E94E6
:102AE00016030E94E6210C942B22BF92CF92DF9214
:102AF000EF92FF920F931F93CF93DF9300D000D0FC
:102B00001F92CDB7DEB70E940E0205E717E0F12C49
:102B10008F2D0E94C702B82EF801C080C82639F454
:102B2000F3940F5F1F4FFBE0FF12F2CF2AC080919A
:102B3000280881FD0E94CD02D12CEE24E3948C2D37
:102B40008E21C9F0D982FA8291E08B2D8E2109F471
:102B500090E09B830E94C71F81609D838C83CE0180
:102B600001960E942A16CE0101960E94FB03F801ED
:102B700080818E258083D394EE0CF8E0DF12DFCFC6
:102B8000CFCF80E090E00E942A160E947B080E942E
:102B9000E02080918007882389F0809173079091CD
:102BA00074070E94D31F8C34910540F01092720775
:102BB0008EE597E00E94DA06109280070E941D15AC
:102BC00090915D078917A1F10E941D1580935D0703
:102BD00084FF2CC0E0918007F0E0E25AF84F90812A
:102BE000990F990F8370892B80830E94C71F909340
:102BF000740780937307809172078F5F80937207C9
:102C00008430B0F080915E07803641F48091800777
:102C1000823020F487E490E00E94381A1092720704
:102C2000809180078F5F8093800702C00E94B01F51
:102C30000F900F900F900F900F90DF91CF911F91F9
:102C40000F91FF90EF90DF90CF90BF9008950C947C
:102C5000D2030895CF93DF9300D000D000D0CDB73A
:102C6000DEB7FC01892B39F40E94C71F816060E048
:102C70005FEF4FEF05C04081518162818381948174
:102C8000FE01319626E0DF011D922A95E9F7782FA3
:102C90009D838C838D819E810E94021D26960FB696
:102CA000F894DEBF0FBECDBFDF91CF910895CF93D3
:102CB000882349F1803B29F488EF91E0CF910C946F
:102CC000B01DC82F8CEF8C0F813A20F080E58C0F5F
:102CD0008E3250F48C2F0E94A821811114C061E023
:102CE0008C2F0E94F11E0CC080E28C0F883058F4AB
:102CF000C77081E001C0880FCA95EAF70E943F1FA4
:102D0000CF910C94761FCF910895882351F19CEFB9
:102D1000980F913A20F090E5980F9E3220F460E0F1
:102D20000E94F11E0DC090E2980F983058F4877001
:102D300091E001C0990F8A95EAF7892F0E94451FFB
:102D40000C94761F9BE5980F933020F480E090E080
:102D50000C943F15885A873120F480E090E00C9461
:102D600055150895882321F00E943F1F0C94761F6B
:102D70000895882321F00E94451F0C94761F089522
:102D80000E945C1F0E94321F0E94761F0E949C219D
:102D90000E94D52080E090E00E943F1580E090E006
:102DA0000C9455150E944C1F0C94C016CF93DF93C2
:102DB00000D000D01F92CDB7DEB70E94881E292F09
:102DC00022952F702C3030F42A30A0F4225022307B
:102DD00030F01DC02C30A9F02F3099F018C0853A82
:102DE00028F4843090F4823028F40FC090E2980FD9
:102DF000983058F0843058F0853A38F0803F39F4F4
:102E000004C093FB882780F903C081E001C080E003
:102E10000F900F900F900F900F90DF91CF9108952A
:102E2000811101C08AE0662311F0885A01C0835ED7
:102E300090E00C94381ACF92DF92EF92FF920F93AA
:102E40001F93CF93DF9300D000D01F92CDB7DEB792
:102E50006C0185E0F601DE01119601900D928A95D4
:102E6000E1F7F6012381348189819A8121153105A9
:102E700031F09F3F31F491E08F3F19F403C091E0AE
:102E800001C090E090FDCBC2F601F2800581029571
:102E90000F702230310561F0722F3D832C83498100
:102EA0005A816F2D8D810E94881EE82E192F02C035
:102EB000E9801A81E12FE295EF708E2F90E0FC01FE
:102EC000E058FF4F0C94EC22812F807F1F708823E5
:102ED00011F01295107FFF2021F10E943C1F8123E9
:102EE00090912508892B80932508112351F0EE201D
:102EF00019F081E080932308812F0E944F1F0E94C8
:102F0000761F8E2D0F900F900F900F900F90DF91E6
:102F1000CF911F910F91FF90EF90DF90CF900C9485
:102F2000571690912508812F809589238093250835
:102F3000109223088E2D0E948516112309F46FC26A
:102F4000812F0E94551F0F900F900F900F900F90A0
:102F5000DF91CF911F910F91FF90EF90DF90CF9075
:102F60000C94761F812F807F1F70803211F0129594
:102F7000107FEE2021F0F1E0EF16F9F028C0FF20DD
:102F8000A1F0812F002349F1013039F50F900F9006
:102F90000F900F900F90DF91CF911F910F91FF90A5
:102FA000EF90DF90CF900C945F1F002319F0013059
:102FB00009F435C20E94621F55C0FF20E9F00430B9
:102FC00008F02DC20E943C1F812331F04BC0FF202E
:102FD00009F446C0011114C0812F0F900F900F907B
:102FE0000F900F90DF91CF911F910F91FF90EF9075
:102FF000DF90CF900C94B216033008F010C232C0AC
:10300000F601858180FF16C08F708583E5CFF0EFD4
:10301000EF1609F4E8C0FE1508F4C4C020EEE2166D
:1030200008F0C5C0FF2009F438C1002309F427C106
:1030300013FD21C18E2D0E945716F9E3EF12EFC147
:1030400082E30F900F900F900F900F90DF91CF9130
:103050001F910F91FF90EF90DF90CF900C94B21FD3
:10306000011123C1812FB0C0812F86958695837071
:1030700019F08130C1F0D3C1FF2021F08E2D912FA6
:10308000937002C080E090E00F900F900F900F902F
:103090000F90DF91CF911F910F91FF90EF90DF90F4
:1030A000CF900C945515FF20C9F08E2D912F937061
:1030B000811523E09207A4F08DEF91E00E94B01DEE
:1030C00060E08E2D82958F700E94101760E08E2D2B
:1030D0008F700E9410178BEF91E019C180E090E093
:1030E0000F900F900F900F900F90DF91CF911F9145
:1030F0000F91FF90EF90DF90CF900C943F158E2DA5
:10310000FF2089F00E9420200E94D52085E48E15A2
:1031100008F485C1EE2DF0E0ED5CF74F81E080838F
:10312000809332087CC10E946E200E94D520E5E485
:10313000EE1508F474C12E2D30E0F901ED5CF74F67
:103140001082EE2011F0C901CCC084EF90E5C9C017
:10315000F11065C19E2D9F70892FE294E69427E0BF
:10316000E22211F420E001C024E001C0880F2A957A
:10317000EAF7212F237011F460E005C01C7061E0B4
:10318000183009F456C00F900F900F900F900F90C9
:10319000DF91CF911F910F91FF90EF90DF90CF9033
:1031A0000C942A1E81EFE81609F452C03BCF0E2D75
:1031B0000F70812F8F71FF2021F00E945F1E802FE2
:1031C0000CCF0E94701E802F0F900F900F900F90C9
:1031D0000F90DF91CF911F910F91FF90EF90DF90B3
:1031E000CF900C94B916FF20A1F0033008F017C15E
:1031F000812F8F710F900F900F900F900F90DF9194
:10320000CF911F910F91FF90EF90DF90CF900C9492
:103210005F1E043008F003C11F71812F0E94701ED1
:10322000033009F0FCC061E081E001C0880F1A950D
:10323000EAF70F900F900F900F900F90DF91CF91C2
:103240001F910F91FF90EF90DF90CF900C94801E14
:10325000F110CECF812F8F710F900F900F900F90A4
:103260000F90DF91CF911F910F91FF90EF90DF9022
:10327000CF900C94701EF601858180FFDBCE012F6C
:103280000770802F0E945F1E14FFC9C069817A8178
:10329000802F0E94082061E025C00023B1F013FFB9
:1032A00004C0F601858180FD10C08E2D0F900F9017
:1032B0000F900F900F90DF91CF911F910F91FF9082
:1032C000EF90DF90CF900C948516012F0770802F20
:1032D0000E94701E14FFA3C069817A81802F0E9412
:1032E000082060E00F900F900F900F900F90DF91EB
:1032F000CF911F910F91FF90EF90DF90CF900C94A2
:103300001D1A412F4F706E2DC6010E94AF010F9004
:103310000F900F900F900F90DF91CF911F910F9111
:10332000FF90EF90DF90CF900C94B01DF11077C01C
:10333000EE2041F0812F8F70843021F0107F9E2D80
:103340009F70192B1F701230C9F1A0F4112339F1AD
:10335000113009F064C00F900F900F900F900F90F4
:10336000DF91CF911F910F91FF90EF90DF90CF9061
:103370000C945B22133089F1143009F050C08E2D6B
:103380000F900F900F900F900F90DF91CF911F91A2
:103390000F91FF90EF90DF90CF900C94C0220F9090
:1033A0000F900F900F900F90DF91CF911F910F9181
:1033B000FF90EF90DF90CF900C9440220F900F90F1
:1033C0000F900F900F90DF91CF911F910F91FF9071
:1033D000EF90DF90CF900C947E220F900F900F9083
:1033E0000F900F90DF91CF911F910F91FF90EF9071
:1033F000DF90CF900C949D22412F4F706E2DC6010F
:103400000F900F900F900F900F90DF91CF911F9121
:103410000F91FF90EF90DF90CF900C942C010F90C4
:103420000F900F900F900F90DF91CF911F910F9100
:10343000FF90EF90DF90CF900895CF93DF9300D06F
:1034400000D000D0CDB7DEB789839A836B8382E04A
:1034500090E09D838C83CE0101960E941B172696D7
:103460000FB6F894DEBF0FBECDBFDF91CF910895A8
:10347000CF93DF93EC0161E00E941D1A60E0CE0162
:10348000DF91CF910C941D1ABF92CF92DF92EF92F1
:10349000FF920F931F93CF93DF936C01B62EC5E07D
:1034A000D0E000E117E28AE0E82EF12CC601B80175
:1034B0000E94D822CB01009731F0B7010E94D82298
:1034C0006B2D0E941017C801B7010E94D8228B01F2
:1034D000219761F7DF91CF911F910F91FF90EF90AE
:1034E000DF90CF90BF900895CF93DF9300D000D0AE
:1034F0001F92CDB7DEB70F900F900F900F900F90E7
:10350000DF91CF910895CF93DF9300D000D000D00A
:10351000CDB7DEB726960FB6F894DEBF0FBECDBF8F
:10352000DF91CF9108951F93CF93DF93C0918107CF
:1035300016E080918207C81799F0D0E01C9FF00137
:103540001D9FF00D1124ED57F84F4081518162818C
:103550007381848195810E94831A2196C770E9CF77
:10356000DF91CF911F9108954091B3075091B40717
:103570006091B5077091B6078091B7079091B80731
:103580000C94831A0F931F93CF93DF938091B80706
:1035900082958F7009F05DC08091B507882309F48A
:1035A00058C080918107109182076091B307709194
:1035B000B407C091B607D091B70791E06F3F09F00B
:1035C00090E0292F06E0811709F443C0209721F0ED
:1035D0007F3F21F030E003C031E001C0322F90E0A6
:1035E00030FD34C0089FF001099FF00D1124DF0168
:1035F000AD57B84F11963C911197371327C03C91A6
:10360000361324C012963C91129731111FC01396A5
:103610004D915C9114974C1B5D0B483C5105B0F4E7
:103620008091B8078F7080618093B807E857F84F92
:1036300080818F708061808383EB97E00E941B17ED
:10364000DF91CF911F910F910C94931A019687707F
:10365000BACFDF91CF911F910F9108959F92AF92B2
:10366000BF92CF92DF92EF92FF920F931F93CF936F
:10367000DF93CDB7DEB761970FB6F894DEBF0FBE0C
:10368000CDBF8C0185E0F801DE011D9601900D9201
:103690008A95E1F7F80140815181F280C380D4809E
:1036A0009091B3076091B4072091B6073091B707A6
:1036B0002115310531F06F3F31F481E09F3F19F45E
:1036C00003C081E001C080E0F82FF1709F2E80FDE3
:1036D00052C183EBA82E87E0B82EE090B507F60123
:1036E000E21BF30BEE2009F4E8C08091B807E83C38
:1036F000F10508F0A4C0282F207F09F053C056130D
:1037000013C0491311C0EF2CF1100EC08F708061EF
:103710008093B8070E94B41AC5010E941B178091BC
:10372000B807F80185835BC1C114D10431F05F3F54
:1037300031F481E04F3F19F403C081E001C080E023
:1037400080FD03C081E08F2502C080E090E0F82F6B
:10375000F170EF2E80FF1CC08091810720918207BD
:1037600036E0821709F418C190E0389FF001399FC4
:10377000F00D1124ED57F84F6181561306C060819A
:10378000461303C06281F61203C001968770E9CF29
:10379000EF2CFF2009F423C18091B807816080934A
:1037A000B80762C0561306C0491304C0F11002C026
:1037B000F801A7C04D875E87FF867C2DD98AC88A0D
:1037C0006F2D89890E94D616882399F1FF2089F1EF
:1037D0002091B807822F82958F7090E0029774F045
:1037E0008091B3079091B40798878F831986DB8601
:1037F000CA862C87CE0107960E941B1786E0F80127
:10380000A3EBB7E001900D928A95E1F70E94C21AEE
:103810000E94B41A11C0561749F14D875E87FF8682
:103820007C2DD98AC88A6F2D89890E94D61681116C
:103830002CC0C8010E941B17EE24E394D0C0282F8F
:10384000207F49F77C2DD98AC88A6F2D89890E94EB
:10385000741A83EB97E00E941B1786E0F501119222
:103860008A95E9F70E94B41AE12CB9C04913D5CF63
:10387000F110D3CFF8018583C8010E941B1786E0A1
:10388000F50111928A95E9F7AAC0FF2091F22091E3
:10389000B807822F82958F7090E002970CF4AECF1C
:1038A0008091B3079091B4079A8389831B82DD824C
:1038B000CC822E83CE0101969FCFE83CF10508F023
:1038C0004BC0EF2CFF2009F4B4CF561330C049137E
:1038D0002EC02091B80720FD21C0822F82958F70C5
:1038E000482F50E041155105C9F0F80125834F30AC
:1038F000510541F08F5F982F9295907F822F8F70A6
:10390000892B8583C8010E941B1786E0F801A3EB71
:10391000B7E001900D928A95E1F72AC086E0F801A0
:10392000A3EBB7E001900D928A95E1F758C04D875F
:103930005E87FF867C2DD98AC88A6F2D89890E946F
:10394000D61681115BCF8091B80781608093B8074C
:10395000C8010E941B1743C07C2DD98AC88A6F2DCD
:1039600089890E94741A86E0F50111928A95E9F717
:103970000E94B41A34C0FF2009F45BCF4D875E87E4
:10398000FF867C2DD98AC88A6F2D89890E94D61618
:10399000882309F44ECF32CF7C2DD98AC88A6F2D67
:1039A00089890E94881E292F22952F70223028F4A1
:1039B0009F7039F0811105C00BC0243028F49F702E
:1039C00049F4805E883020F0C8010E941B179E2CAD
:1039D000E92C05C0F8019581907F99F7F9CF8E2DDC
:1039E00061960FB6F894DEBF0FBECDBFDF91CF91C9
:1039F0001F910F91FF90EF90DF90CF90BF90AF900D
:103A00009F9008951F93CF93DF93CDB7DEB72C9788
:103A10000FB6F894DEBF0FBECDBF4F8358876987BE
:103A20007A878B879C87CE0107960E942E1B88235E
:103A3000D1F09F8188852A853B85232B31F08F3FEC
:103A400031F481E09F3F19F403C081E001C080E0C0
:103A500080FD47C04F81588569857A858B859C8517
:103A60000E94831A3EC086E0FE013796DE01119661
:103A700001900D928A95E1F7FF81E8856A857B8543
:103A80006115710531F0EF3F31F481E0FF3F19F42A
:103A900003C081E001C080E080FD23C02091820747
:103AA00030E0C9010196877099274091810750E065
:103AB00084179507F1F1F983EA837D836C8396E09F
:103AC000929FD001939FB00D1124AD57B84FFE01C6
:103AD000319601900D929A95E1F7809382070E94AA
:103AE000931A16E08091810790918207891771F1EE
:103AF000189FC00111248D57984F0E942E1B8823B8
:103B000029F1E09181071E9FF0011124ED57F84F34
:103B10004081518162817381848195810E94831AE1
:103B20008091810790E001968770992780938107A3
:103B3000D9CF0E94D2161092820710928107E3EB30
:103B4000F7E086E0DF011D928A95E9F72C960FB623
:103B5000F894DEBF0FBECDBFDF91CF911F910895C6
:103B6000CF92DF92EF92FF921F93CF93DF937C016E
:103B70000E94AF0AE114F10409F464C0E701219640
:103B8000F7011491193709F43EC0B8F4143740F422
:103B9000143008F052C08FEF810F8230F8F052C01D
:103BA000143709F04FC0F2E0EF0EF11CFE018491D2
:103BB0000E94B21FE7017E01E1CF133828F41138CB
:103BC00068F4103801F13EC01338B9F0143F08F022
:103BD00039C01F77812F90E0926031C0FE0185913E
:103BE0009491612F6170E701133018F422969927A0
:103BF00001C023960E941D1ADECFFE01859194918B
:103C0000E70123961CC0FE01C590D490E7012396DE
:103C100084E00E94B216103841F461E081E00E9415
:103C20001017F0EACF1AF6E8DF0A61E0C6010E9439
:103C3000441A84E00E94B916BECF812F90E00E9402
:103C4000381AB9CFDF91CF911F91FF90EF90DF909D
:103C5000CF900895E62FF0E0E35DFE4F8083611181
:103C600005C080912D010E94C80307C090912E01CC
:103C700080912F01892B0E94C3030C94C01662E02F
:103C800080E00C942A1E21E030E0A90102C0440F1C
:103C9000551F8A95E2F7CA0190912F0162E0892BA6
:103CA0000C942A1E21E030E001C0220F8A95EAF729
:103CB000209580912F0162E082230C942A1E90911E
:103CC0003001981306C0909111089F5F90931108DE
:103CD00005C091E090931108809330010C94431E2D
:103CE0009091300198130AC09091110891509093CF
:103CF0001108911103C093E6909330010C94521E69
:103D0000E62FF0E0E35DFE4F908189270C942A1E98
:103D1000AF92BF92DF92EF92FF920F931F93CF93D8
:103D2000DF9300D000D01F92CDB7DEB78A016623A3
:103D3000C9F1A0902D0180912E01A82A80912F0118
:103D4000A82A80913001883028F087E0E82EF12CF5
:103D5000B12C08C0BA010E9408200197B1F3D0909D
:103D6000300116C0DE2CC5010E2C02C0959587953A
:103D70000A94E2F780FD06C081E0E81AF10891F7A5
:103D8000D12C06C0B8018E2D0E9408200197A1F306
:103D900088E0189FF0011124E754F84FE00FF11D5F
:103DA000D08209C088E0189FF0011124E754F84F31
:103DB000E40FF11DD08009831A8369817A818D2DEA
:103DC0000E9408200F900F900F900F900F90DF919E
:103DD000CF911F910F91FF90EF90DF90BF90AF9028
:103DE000089590912C0191799131F1F4382F369505
:103DF000369536953F30A8F5E0913101F0913201CA
:103E0000282F277081E090E001C0880F2A95EAF7FB
:103E1000E30FF11D662319F09181892B03C0809572
:103E2000918189238183089520913101309132015C
:103E3000F90171964FEF9EE05291552331F08513B1
:103E400005C061110EC0108201C0492F9150A0F72A
:103E5000662339F0F901E40FF11D47FDFA958283DD
:103E600008950895E0913101F091320180E1DF0180
:103E70001D928A95E9F708958091270808959091F9
:103E80002708892B8093270808958095909127080B
:103E90008923809327080895109227080895909108
:103EA0002608892B809326080895809590912608EE
:103EB00089238093260808951092260808958093F8
:103EC000120808951092120808958091310190917E
:103ED0003201FC0131969C01205F3F4F80E09191BF
:103EE00091118F5FE217F307D1F70895E091310147
:103EF000F0913201809127088083E0913101F091A7
:103F00003201908180912608892B8083E0913101D4
:103F1000F0913201809125088095908189238083DA
:103F2000E0913101F09132018091240880959081D7
:103F30008923808380911208882361F0E091310108
:103F4000F09132019081892B80830E94651F81113D
:103F50001092120880913101909132010C94291530
:103F60000C942716882341F0EFE9FFE03197F1F731
:103F700000C000008150F6CFA895089582E084BD6E
:103F800093E095BD9DE797BD80936E0008952FB790
:103F9000F8948091290890912A08A0912B08B0915B
:103FA0002C082FBF08959C014FB7F89480912908E1
:103FB00090912A08A0912B08B0912C084FBF821B2A
:103FC000930B089578941F920F920FB60F921124BD
:103FD0008F939F93AF93BF938091290890912A0864
:103FE000A0912B08B0912C080196A11DB11D8093C2
:103FF000290890932A08A0932B08B0932C08BF910E
:10400000AF919F918F910F900FBE0F901F901895B9
:10401000CF93C82FCB010E942101803819F480E092
:1040200090E00CC0EC2FF0E0FE2FEE27E050F04ABD
:10403000E80FF11DE80FF11D85919491CF9108953E
:10404000803F08F44AC0803F11F49FEF03C0813FD6
:1040500021F491E090937E083BC0823F11F49FEFE2
:1040600003C0833F21F491E090937D0831C0893FE4
:1040700070F421E030E09CE0980F01C0220F9A9587
:10408000EAF790917C08292B20937C0821C0893F76
:1040900011F491E003C08A3F21F49FEF90937F08D1
:1040A00017C08B3F11F49FEF03C08C3F21F491E0C8
:1040B000909380080DC021E030E093E0980F01C09C
:1040C000220F9A95EAF790917908292B2093790885
:1040D000895F843010F410927A080895803F08F4C4
:1040E00063C0803F39F480917E0887FF5DC01092E5
:1040F0007E080895813F29F480917E081816BCF34C
:104100000895823F39F480917D0887FF4DC0109259
:104110007D080895833F29F480917D081816BCF32B
:104120000895893F88F4845F21E030E0A90102C04E
:10413000440F551F8A95E2F7CA01809590917C083B
:10414000892380937C080895893F39F480917F0802
:10415000181654F510927F0808958A3F29F480912B
:104160007F0887FF21C0F6CF8B3F39F4809180080C
:1041700087FF1AC01092800808958C3F29F480911F
:1041800080081816BCF308958D5F21E030E0A90186
:1041900002C0440F551F8A95E2F7CA01809590919D
:1041A000790889238093790808958CE798E00E9424
:1041B00034150E94C71F90932F0880932E080895EE
:1041C0000F931F93CF93DF93809132088823D9F107
:1041D00080913008909131080E94D31F20913401C2
:1041E00030E02817390778F50E943E238F70825EF1
:1041F0008093340103E318E0C0E0D0E090E0F801E0
:1042000081918F01882369F0CC2319F08C2F9D2F89
:1042100002C084EF90E56091330170E00E941D1AA6
:1042200091E02196C634D10551F72091330181E008
:10423000822780933301909332080E94C71F909386
:1042400031088093300880912E0890912F080E94A9
:10425000D31FAC0190917B08923019F028E230E036
:1042600002C025E030E04217530708F460C0D09147
:104270007F08C091800820917D0880917E08822B64
:104280008D2B8C2B19F410927B0851C0923020F4A6
:104290009F5F90937B084BC080917A088F5F8093DB
:1042A0007A088F7021F010927F08109280080E9487
:1042B000D520D0937F08C093800880912D088F5F10
:1042C00080932D088D3098F180912C0187FD02C0DC
:1042D00080E001C085E080932D0890917908292F16
:1042E000220F220F290FECE7F8E03CEE44E1818138
:1042F0008823C1F0992349F0181614F08FEF01C0FC
:1043000081E0829F802D11240AC018162CF48F5F43
:1043100085312CF0418306C081508C3E14F081839E
:1043200001C03183319688E0E038F80701F7DF916A
:10433000CF911F910F910895ECE7F8E085E0DF0140
:104340001D928A95E9F710927908089580E0089502
:10435000CF9390912308911135C0C82F8091810887
:10436000882319F0813051F02AC0E0913101F09199
:10437000320180818252823030F508C0E0913101F3
:10438000F0913201808182528230A0F48C2F0E9401
:10439000F30D81110AC0C13151F40E9406039091BE
:1043A0002C0180E1892780932C0191E001C090E0ED
:1043B000917009C08C2F0E94A62191E004C0109238
:1043C000810801C090E0892FCF910895E1E8F0E0E5
:1043D0008081886080838081816080838FB7F8943A
:1043E0009AE79093890092E1909388008FBF089597
:1043F0006DEE7EEF80E090E00E94402660E082E07B
:1044000090E00E94222660E083E090E00E94222655
:1044100060E084E090E00E94222660E085E090E089
:104420000E94222660E086E090E00C94222680E044
:1044300090E00E941C2621E08D3E9E4F09F020E076
:10444000822F089586E090E00C940E26682F86E077
:1044500090E00C9422260E941722811102C00E9433
:10446000F8210E9422228093D408811102C081E0A9
:1044700005C080FF02C0869501C080E00C94EC036B
:104480008091D408982F9695292F30E0817028309C
:1044900031054CF49F5F990F892B81608093D4087C
:1044A0000E94262203C080618093D4088091D408A2
:1044B00086950C94EC038091D40880FF1EC0982F41
:1044C0009695292F30E02230310594F09158990FBC
:1044D0008170892B8093D4088E7F91E009F490E05D
:1044E0008091D40890FB80F98093D4080E94262202
:1044F0008091D40886950C94EC0308958091D4089B
:10450000982F9095917090FB80F98093D40899230F
:1045100039F0982F9E7F21F4817082608093D408B7
:104520008091D4080E9426228091D40880FF02C086
:10453000869501C080E00C94EC039091D408892FFB
:1045400086958F5F8F779170893028F4880F892B3B
:104550008093D40802C09093D4088091D4088E7FB1
:1045600091E009F490E08091D40890FB80F9809369
:10457000D4080E9426228091D40886950C94EC03DE
:10458000880F9091D4089170892B8093D4088E7FE6
:1045900091E009F490E08091D40890FB80F9809339
:1045A000D4080E9426228091D40886950C94EC03AE
:1045B000AA1BBB1B51E107C0AA1FBB1FA617B70749
:1045C00010F0A61BB70B881F991F5A95A9F7809565
:1045D0009095BC01CD010895EE0FFF1F0590F49159
:1045E000E02D09948F929F92AF92BF92CF92DF926B
:1045F000EF92FF92CF93DF93EC01688179818A81FA
:104600009B81611571058105910521F464E279EDC5
:104610008BE597E02DE133EF41E050E00E94562614
:1046200049015A019B01AC01A7EAB1E40E94752639
:104630006B017C01ACEEB4EFA50194010E948326CE
:10464000DC01CB018C0D9D1DAE1DBF1DB7FF03C04E
:104650000197A109B04888839983AA83BB839F7778
:10466000DF91CF91FF90EF90DF90CF90BF90AF9010
:104670009F908F9008950E94F222089580E091E02B
:104680000E94F2220895A0E0B0E080930001909390
:104690000101A0930201B09303010895FB01DC0125
:1046A00004C08D910190801921F441505040C8F709
:1046B000881B990B0895AEE0B0E0E1E6F3E20C94BC
:1046C00096260D891E8986E08C831A8309838FEFD5
:1046D0009FE79E838D83AE01475E5F4F6F89788D24
:1046E000CE0101960E947D23EF81F885E00FF11F36
:1046F00010822E96E4E00C94B226ABE0B0E0E3E842
:10470000F3E20C9488266C017B018A01FC0117827C
:104710001682838181FFCCC1CE0101963C01F60156
:104720009381F70193FD859193FF81917F01882308
:1047300009F4BAC1853239F493FD859193FF8191D3
:104740007F01853229F4B60190E00E947425E7CFFD
:10475000912C212C312CFFE1F315D8F08B3279F01C
:1047600038F4803279F08332A1F4232D20611DC00A
:104770008D3261F0803369F4232D216016C0832DC2
:104780008260382EE32DE4603E2E2AC0F32DF860BF
:104790001DC037FC2DC020ED280F2A3040F08E328E
:1047A000B9F436FC81C1232D2064322E19C036FEA7
:1047B00006C08AE0989E200D1124922E11C0EAE0D6
:1047C0002E9E200D1124222EF32DF0623F2E08C0C4
:1047D0008C3621F4832D8068382E02C0883641F44F
:1047E000F70193FD859193FF81917F018111B3CFF3
:1047F000982F9F7D9554933028F40C5F1F4F9FE3B3
:1048000099830DC0833631F0833771F0833509F019
:1048100059C021C0F801808189830E5F1F4F882411
:104820008394912C530113C02801F2E04F0E511CC8
:10483000F801A080B18036FE03C0692D70E002C08F
:104840006FEF7FEFC5010E9469254C018201F32DB6
:10485000FF773F2E16C0280122E0420E511CF801BE
:10486000A080B18036FE03C0692D70E002C06FEFFA
:104870007FEFC5010E945E254C01F32DF0683F2EAD
:10488000820133FC1BC0822D90E088169906B0F49B
:10489000B60180E290E00E9474252A94F4CFF501DD
:1048A00037FC859137FE81915F01B60190E00E944F
:1048B000742521102A9421E0821A91088114910410
:1048C00071F7E8C0843611F0893641F5F80137FEFA
:1048D00007C060817181828193810C5F1F4F08C086
:1048E00060817181072E000C880B990B0E5F1F4FA2
:1048F000F32DFF763F2E97FF09C090958095709518
:1049000061957F4F8F4F9F4FF0683F2E2AE030E038
:10491000A3010E94B025882E861845C0853731F442
:10492000232D2F7EB22E2AE030E025C0932D997FD3
:10493000B92E8F36C1F018F4883579F0B5C08037BC
:1049400019F0883721F0B0C0E92FE061BE2EB4FE27
:104950000DC0FB2DF460BF2E09C034FE0AC0292F04
:104960002660B22E06C028E030E005C020E130E02D
:1049700002C020E132E0F801B7FE07C0608171811A
:10498000828193810C5F1F4F06C06081718180E03E
:1049900090E00E5F1F4FA3010E94B025882E86185D
:1049A000FB2DFF773F2E36FE0DC0232D2E7FA22E2E
:1049B000891458F434FE0BC032FC09C0832D8E7E5E
:1049C000A82E05C0B82CA32C03C0B82C01C0B92C4C
:1049D000A4FE0FC0FE01E80DF11D8081803321F49B
:1049E0009A2D997EA92E09C0A2FE06C0B394B39455
:1049F00004C08A2D867809F0B394A3FC11C0A0FEF0
:104A000006C0B21488F4280C922C9B180EC0B21465
:104A100060F4B60180E290E00E947425B394F7CF71
:104A2000B21418F42B1802C0982C212CA4FE10C02C
:104A3000B60180E390E00E947425A2FE17C0A1FC9D
:104A400003C088E790E002C088E590E0B6010CC0A2
:104A50008A2D867859F0A1FE02C08BE201C080E267
:104A6000A7FC8DE2B60190E00E947425891438F409
:104A7000B60180E390E00E9474259A94F7CF8A945F
:104A8000F301E80DF11D8081B60190E00E947425CC
:104A90008110F5CF222009F442CEB60180E290E0E9
:104AA0000E9474252A94F6CFF6018681978102C070
:104AB0008FEF9FEF2B96E2E10C94A426FC0105906A
:104AC000615070400110D8F7809590958E0F9F1F10
:104AD0000895FC016150704001900110D8F7809555
:104AE00090958E0F9F1F08950F931F93CF93DF9381
:104AF000FB01238121FD03C08FEF9FEF2CC022FF1C
:104B000016C046815781248135814217530744F4EA
:104B1000A081B1819D012F5F3F4F318320838C9312
:104B2000268137812F5F3F4F3783268314C08B0147
:104B3000EC01FB010084F185E02D0995892BE1F65C
:104B4000D80116968D919C911797019617969C9374
:104B50008E931697CE01DF91CF911F910F910895FB
:104B6000FA01AA27283051F1203181F1E8946F939E
:104B70006E7F6E5F7F4F8F4F9F4FAF4FB1E03ED044
:104B8000B4E03CD0670F781F891F9A1FA11D680FE2
:104B9000791F8A1F911DA11D6A0F711D811D911D15
:104BA000A11D20D009F468943F912AE0269F11248A
:104BB0003019305D3193DEF6CF010895462F4770EE
:104BC000405D4193B3E00FD0C9F7F6CF462F4F7049
:104BD000405D4A3318F0495D31FD4052419302D0A7
:104BE000A9F7EACFB4E0A69597958795779567954D
:104BF000BA95C9F700976105710508959B01AC014D
:104C00000A2E06945795479537952795BA95C9F773
:104C1000620F731F841F951FA01D0895F999FECF81
:104C200092BD81BDF89A992780B50895A6E1B0E0BC
:104C300044E050E00C944826A8E1B0E042E050E0A7
:104C40000C944826262FF999FECF92BD81BDF89A83
:104C5000019700B4021639F01FBA20BD0FB6F894C0
:104C6000FA9AF99A0FBE08950396272F0E942326D9
:104C70000E942226252F0E942326242F0C942326CF
:104C80000196272F0E9423260C942226DC01CB01BB
:104C9000FC01F999FECF06C0F2BDE1BDF89A31964C
:104CA00000B40D9241505040B8F70895052E97FB7F
:104CB0001EF400940E946D2657FD07D00E94BF2667
:104CC00007FC03D04EF40C946D265095409530951A
:104CD00021953F4F4F4F5F4F089590958095709568
:104CE00061957F4F8F4F9F4F08950E94E126A59FAA
:104CF000900DB49F900DA49F800D911D11240895D7
:104D0000B7FF0C9475260E947526821B930B08959D
:104D10002F923F924F925F926F927F928F929F92CB
:104D2000AF92BF92CF92DF92EF92FF920F931F93B9
:104D3000CF93DF93CDB7DEB7CA1BDB0B0FB6F8946A
:104D4000DEBF0FBECDBF09942A88398848885F84AA
:104D50006E847D848C849B84AA84B984C884DF801B
:104D6000EE80FD800C811B81AA81B981CE0FD11DFF
:104D70000FB6F894DEBF0FBECDBFED010895A1E2DE
:104D80001A2EAA1BBB1BFD010DC0AA1FBB1FEE1FC5
:104D9000FF1FA217B307E407F50720F0A21BB30B10
:104DA000E40BF50B661F771F881F991F1A9469F78C
:104DB00060957095809590959B01AC01BD01CF01E8
:104DC0000895A29FB001B39FC001A39F700D811DE4
:104DD0001124911DB29F700D811D1124911D089504
:044DE000F894FFCF75
:104DE40001000000BF0101FF010BFC018046FFFF31
:104DF400019C09B80A410A9F090D0A0178730E0142
:104E040004013B0FBE0FA10F790F520F11010100D6
:104E1400631308011E1813120C15BC19C01A41544F
:104E24002B424C45484944434F4E54524F4C4B45FA
:104E3400593D25640A0041542B424C454849444D90
:104E44004F5553454D4F56453D25642C25642C251F
:104E5400642C25640A00425554544F4E3D25640A7F
:104E64000041542B424C454B4559424F4152444317
:104E74004F44453D0030302D30300A004F4B002563
:104E84003032582D30302D253032582D25303258BF
:104E94002D253032582D253032582D253032582DBD
:104EA400253032580A0041542B464143544F52593D
:104EB40052455345540A0041542B424C45484944F9
:104EC400454E3D300A0041542B424C454849444527
:104ED4004E3D310A0041542B4741504445564E4102
:104EE4004D453D0058696B69692069387820424C0A
:104EF400450041542B474150474554434F4E4E0AB9
:104F04000041542B47415044454C424F4E44530AB0
:104F14000041540A004154453D300A0041542B4796
:104F2400415053544152544144560A0041542B4772
:104F3400415454414444534552564943453D5555C3
:104F440049443D363135390A0041542B47415454C4
:104F5400414444434841523D555549443D307832DB
:104F64004131392C50524F504552544945533D31EB
:104F7400362C4D494E5F4C454E3D312C56414C55D7
:104F8400453D390A0041542B424C45504F57455238
:104F94004C4556454C3D340A0041542B424155443E
:104FA400524154453D37363830300A0041542B487D
:104FB400574144433D360A0041542B47415454431E
:104FC4004841523D312C25640A0041542B424C4542
:104FD40047455450454552414444520A0041542BDC
:104FE400474150444953434F4E4E4543540A0041B0
:104FF400542B474150534554414456444154413D38
:1050040030322D30312D30360A0041542B47415077
:10501400534554414456444154413D30322D30317E
:105024002D30340A0041545A0A00CBBFB6AAA39DBE
:1050340097918A404D3639E7049A0464042B04BEE0
:1050440003D703F0030904040A2AA8039C0370038A
:105054002A03580069006B00690069002000690098
:1050640038007800200028005500530042005F00FB
:1050740044004E0034003700290000000A035900A0
:1050840044004B00420000000403090409026D00BF
:10509400040100A0FA090400000103010100092130
:1050A40011010001224000070581030800010904E1
:1050B40001000103010200092111010001224D0038
:1050C400070582030800010904020001030000002F
:1050D4000921110100012236000705830308000A93
:1050E4000904030001030000000921110100012249
:1050F40039000705840310000112011001000000AB
:1051040008EDFE802101000102000105010906A14C
:1051140001050719E029E7150025019508750181A6
:105124000205081901290595057501910295017576
:105134000391010507190029771500250195787554
:10514400018102C005010980A10185021601002622
:10515400B7001A01002AB700751095018100C00537
:105164000C0901A1018503160100269C021A010005
:105174002A9C02751095018100C005010902A10154
:105184000901A10005091901290515002501950545
:105194007501810295017503810105010930093109
:1051A4001581257F95027508810609381581257FAB
:1051B400950175088106050C0A38021581257F952D
:1051C4000175088106C0C005010906A1010507197A
:1051D400E029E715002501950875018102950175FF
:1051E40008810105081901290595057501910295A4
:1051F40001750391010507190029FF150026FF0019
:08520400950675088100C00049
:106000001E00EA40E940E2400400050006000700E7
:10601000080009000A000B000C000D000E000F0024
:1060200010001100120013001400150016001700D4
:10603000180019001A001B001C001D001E001F0084
:106040002000210022002300240025002600270034
:10605000280029002A002B002C002D002E002F00E4
:106060003000310032003300340035003600370094
:10607000380039003A003B003C003D003E003F0044
:1060800040004100420043004400450046004700F4
:10609000480049004A004B004C004D004E004F00A4
:1060A0005000510052005300540055005600570054
:1060B000580059005A005B005C005D005E005F0004
:1060C00060006100620063006400F1A18500580077
:1060D000E700F550F650F750F850F950FA506F00BD
:1060E00070007100720073002A00E500E600E20013
:1060F000E000E100E200E300E400E500E600E70084
:106100000000010001000100010001000100010088
:1061100001000AF40AF60AF801000100010001007A
:10612000010001000100010001000AF001000AF273
:10613000010001000100010001000BFC0100010051
:106140000100010001000100010001000100010047
:106150000100010001000100010001000100010037
:106160000100010001000100010001000100010027
:106170000100010001000100010001000100010017
:106180000100010001000100010001000100010007
:106190000100010001000100010001000100E940CF
:1061A000E240EA400100010001000100010001009D
:1061B00001000100010001000100010001000100D7
:1061C00001000100010001000100010001000100C7
:1061D00001000100010001000100010001000100B7
:1061E000010001000100010049000100010001005F
:1061F0000100010001000100010001000100010097
:106200001001010001000100010001000100010076
:106210000100010001000100010001000100010076
:106220000100010001000100010001000100010066
:106230000100010001000100010001000100010056
:106240000100010001000100010001000100010046
:106250000100010001000100010001000100010036
:106260000100010001000100010001000100010026
:106270000100010001000100010001000100010016
:106280000100010001000100010001000100010006
:1062900001000100010001000100010001000100F6
:1062A00001000100010001000100010001000100E6
:1062B00001000100010001000100010001000100D6
:1062C00001000100010001000100010001000100C6
:1062D00001000100010001000100010001000100B6
:1062E00001000100010001000100010001000100A6
:1062F0000100010001000100010001000100010096
:106300001102010001000100010001000100010073
:106310000100010001000100010001000100010075
:106320000100010001000100010001000100010065
:106330000100010001000100010001000100010055
:106340000100010001000100010001000100010045
:106350000100010001000100010001000100010035
:106360000100010001000100010001000100010025
:106370000100010001000100010001000100010015
:106380000100010001000100010001000100010005
:1063900001000100010001000100010001000100F5
:1063A00001000100010001000100010001000100E5
:1063B00001000100010001000100010001000100D5
:1063C00001000100010001000100010001000100C5
:1063D00001000100010001000100010001000100B5
:1063E00001000100010001000100010001000100A5
:1063F0000100010001000100010001000100010095
:106400001201010001000100010001000100010072
:106410000100010001000100010001000100010074
:106420000100010001000100010001000100010064
:106430000100010001000100010001000100010054
:106440000100010001000100010001000100010044
:106700000000010001000100010001000100010082
:106710000100010001000100010001000100010071
:106720000100010001000100010001000100010061
:106730000100010001000100010001000100010051
:106740000100010001000100010001000100010041
:106750000100010001000100010001000100010031
:106760000100010001000100010001000100010021
:106770000100010001000100010001000100010011
:106780000100010001000100010001000100010001
:1067900001000100010001000100010001000100F1
:1067A00001000100010001000100010001000100E1
:1067B00001000100010001000100010001000100D1
:1067C00001000100010001000100010001000100C1
:1067D00001000100010001000100010001000100B1
:1067E00001000100010001000100010001000100A1
:1067F0000100010001000100010001000100010091
:00000001FF
