:100000000C94FE000C941B010C941B010C941B011E
:100010000C941B010C941B010C941B010C941B01F0
:100020000C941B010C941B010C9494120C946913F6
:100030000C944A090C941B010C941B010C941B0199
:100040000C941B010C94D7030C941B010C941B0102
:100050000C941B010C9430210C941B010C941B017B
:100060000C941B010C94E1080C941B010C941B01D3
:100070000C941B010C941B010C941B010C941B0190
:100080000C941B010C941B010C941B010C941B0180
:100090000C941B010C941B010C941B010C941B0170
:1000A0000C941B010C941B010C941B013906430694
:1000B00043064C064C06590659066D066D061D088A
:1000C00026082608260826082808280828082B08B5
:1000D0002B082B082B082B082B082E082E082E087F
:1000E0002E082E082E08310831083108D213F513D6
:1000F000B514F513B5143A145D14B5147F149214A5
:100100001F171F176D176D17EF173818A51AA51AA7
:100110005F18A51AC517C517171A2C1AA51A921A0F
:10012000272E352A4A25262D133080314B0C122FCD
:10013000333428804E0E0F8037387D524D10368074
:10014000657F7C50514F807E787A80803A802C7B0E
:10015000791D1B0619051164391607090A0B0D04D0
:100160002B1A0815171C1814291F20212223241EBE
:100170000000000001010102020304050506070951
:100180000A0B0C0E0F1112141517191B1D1F21231A
:1001900025282A2C2F313436393B3E414346494CE1
:1001A0004F5255585A5D6164676A6D707376797CF9
:1001B0007F8386898C8F9295989B9EA2A5A7AAADD6
:1001C000B0B3B6B9BCBEC1C4C6C9CBCED0D3D5D7E7
:1001D000DADCDEE0E2E4E6E8EAEBEDEEF0F1F3F49F
:1001E000F5F6F8F9FAFAFBFCFDFDFEFEFEFFFFFF57
:1001F00062620028008315087432000011241FBEBB
:10020000CFEFDAE0DEBFCDBF15E0A0E0B1E0E0E87F
:10021000F0E502C005900D92A432B107D9F728E0AD
:10022000A4E2B5E001C01D92AA39B207E1F70E942D
:10023000850E0C943E280C940000E82FF0E088E036
:10024000989FE00DF11D1124E05EFE4F849108950A
:100250000F931F93CF93DF938C01C62FD42F0E944F
:100260008A20F8019281C130C1F028F0C43021F118
:10027000C53051F136C0992391F09D2F9270D0FD79
:1002800090622D2F2470982321F080FD02C085E319
:100290000EC0822349F489E20AC0911103C0809103
:1002A00024051BC082FF02C08DE301C081E2809360
:1002B0002405809124050DC0992321F0827289F4D0
:1002C0008CE207C08CE209C0992331F085FD09C09A
:1002D00082E50E940E1603C082E50E943C160E9431
:1002E000C420F8018281882389F1C330B1F050F431
:1002F000C23061F585E090E0DF91CF911F910F91C1
:100300000C94AB0DCA30D9F0CB3001F58D2FDF91B5
:10031000CF911F910F910C94510E9091810581E026
:100320008927809381059091B60788E88927809373
:10033000B607DF91CF911F910F910C948B038D2FF6
:10034000DF91CF911F910F910C941106DF91CF9106
:100350001F910F910895611107C0FC0182818823CC
:1003600019F080E09FE5089580E090E00895CF9334
:1003700024982C9A81E00E9400211C9B05C01092B9
:100380000501109220012EC0C1E0C09305016A98BA
:10039000729A25982D9A85E00E940021629903C0E7
:1003A0001092200102C0C093200180919A08909180
:1003B0009B088A3A9B4BB1F480912001882391F0ED
:1003C000259A2D98559A5D98549A5C9A8FEF91E1F1
:1003D0002AE7815090402040E1F700C00000CF9113
:1003E0000C940B09CF9108950E94E00584B18A60B6
:1003F00084B9229885B18E6085B90895FF920F93D4
:100400001F93CF93DF930E941521209175053091A2
:1004100076058217930709F470C090937605809350
:1004200075052B9A80E5299A29988150E1F72B9838
:10043000299A299888E08A95F1F7E7E7F5E040E006
:1004400050E010E085E295E061E070E0CCE0D0E0C3
:10045000DC0120E030E01A9902C090E801C090E091
:100460008C918695892B8C93803869F481E0810F7B
:100470001B3040F080E5E5E2F5E0DF011D928A9552
:10048000E9F73CC0182F2B9A299A299888E08A9579
:10049000F1F7CB01022E01C0880F0A94EAF70D9103
:1004A000F09004010F1518F09081892B05C00530DC
:1004B00020F48095908189238083CD012F5F3F4F69
:1004C0002830310541F6DA01A958BA4F2C91222380
:1004D00069F020910D0122FD05C0D093D706C0938D
:1004E000D60604C01092D7061092D6064F5F5F4F13
:1004F00031964A30510509F0ABCF81E0DF91CF91C1
:100500001F910F91FF900895E82FF0E0E958FA4FFE
:1005100080810895089580911A018A3028F10E94FF
:10052000FE01E5E2F5E080E090E02191222339F040
:100530008B3311F08E3311F49C5901C09F5F8F5F94
:10054000803599F780912001983C41F481111DC0BC
:1005500081E080931A0180931F010895811114C0D6
:1005600081E0911112C010C02B9880E5299A29983A
:100570008150E1F780E18A95F1F783B182FB88270A
:1005800080F991E08927089580E0089580912B01FA
:1005900084FD05C08FEB8093040180E004C08BEFE5
:1005A0008093040186E060E00C94C7168AB1806DE8
:1005B0008AB98BB18F728BB9E0E0F2E6E491A3E8DF
:1005C000B5E0EC93E0E0F3E6E4911196EC9311973B
:1005D000E0E0F4E6E4911296EC930895813039F06E
:1005E00020F0823029F45C9A03C05F9A01C05E9AC1
:1005F00021E030E0A90102C0440F551F8A95E2F7BF
:10060000CA0190918205892B8093820508958130DB
:1006100039F020F0823029F45C9803C05F9801C063
:100620005E9821E030E0A90102C0440F551F8A9571
:10063000E2F7CA0180959091820589238093820513
:100640000895EF92FF920F931F93CF93DF93D82FCC
:1006500003E815E0C0E0E62EF12CDD2331F0F801CF
:1006600080818D1B883088F401C08C2F970102C0D7
:10067000359527958A95E2F720FF04C08C2F0E94BC
:10068000EE0203C08C2F0E940703CF5F0F5F1F4F46
:10069000C33019F7DF91CF911F910F91FF90EF9029
:1006A00008956091820580E00C942103CF92DF923F
:1006B000FF920F931F93CF93DF93F82E03E815E07B
:1006C000C0E0D0E0CC24C394D12CF80181918F01FB
:1006D0008F110DC020918205C6010C2E01C0880F1C
:1006E0000A94EAF78227809382050E94510321969B
:1006F000C330D10551F7DF91CF911F910F91FF903A
:10070000DF90CF900895669581E00C942103669563
:1007100089E00C9421036091810585E10C9421030B
:10072000682F80E10E9421030C948B03F8943E987B
:10073000E0E9F0E080818E778083E1E9F0E080817C
:100740008C7F80838FEF90E0909399008093980046
:10075000789408950C94960390E02091980030913D
:1007600099008217930721F0909399008093980045
:100770000895FC019091990890FF18C08281882308
:10078000A9F0892F8E7F8E3039F4809189058A50A7
:100790008A3050F48AE008C0803141F480918905A4
:1007A000865F863708F086E78093890508951F9253
:1007B0000F920FB60F9211242F933F934F935F9395
:1007C0006F937F938F939F93AF93BF93EF93FF9319
:1007D0008091880591E08E3740F02091D6063091C7
:1007E000D7062D30310508F490E090FF30C090918D
:1007F00087059F5F923018F4909387054BC0109245
:1008000087052091D6063091D7062D30310520F08E
:10081000882329F0815001C08F5F80938805E09183
:100820008805F0E0E059FE4FE4918091070120E057
:1008300031E0281B3109E29FC001E39F900D112494
:1008400097FF02C081509F4F892F809521C08091D2
:1008500014088823D9F080918605109286058F3F71
:10086000A9F080918905E82FF0E0E059FE4FE4916E
:10087000E093070190910601890F809389058F37D6
:1008800011F0811103C091959093060180910701A9
:100890000E94AC03FF91EF91BF91AF919F918F9117
:1008A0007F916F915F914F913F912F910F900FBE6C
:1008B0000F901F9018952BB1362F309523233BB105
:1008C000632B3FB7F894FC0188E58150E1F09191EA
:1008D00048E06BB997FF2BB9990F000000C02BB906
:1008E000000000C000C000C000C000C000C000C0C8
:1008F00000C000C000C000C000C000C000C000C0F8
:100900004A9539F7E2CF3FBF0895519A62E00C94BF
:100910005B049D5F811524E0920710F09350FACF9D
:100920000895EF92FF920F931F93CF93DF9300D020
:1009300000D01F92CDB7DEB7062F142F79010E9489
:100940008904492F9430B8F5602F70E0869F90019C
:10095000879F300D1124832F9927A12FB0E08A9F04
:10096000F0018B9FF00D9A9FF00D112420E031E0F3
:10097000261B370B2A9FC0012B9F900D3A9F900D8D
:1009800011249C839983892F8F0F8D838A831F1B4A
:100990001B83842F90E0FE01E80FF91F3181FE01D7
:1009A000E80FF91F2081FE01E80FF91F8281F7018E
:1009B0008183308322830F900F900F900F900F90C0
:1009C000DF91CF911F910F91FF90EF9008958AE0F2
:1009D00090E00C946427AB01BC018AE090E00C9499
:1009E000822760910C0170910D0180910E01909110
:1009F0000F010C94EB048AE2E5E1F8E0DF011D92BF
:100A00008A95E9F7089580911E01882391F08091DD
:100A10003C0890913D08A0913E0880933F08909338
:100A20004008A0934108E5E1F8E02FE338E0DF015A
:100A300030C08091980591E08B3740F02091D60628
:100A40003091D7062D30310508F490E090FFDFCFCC
:100A50002091D6063091D7062D30310568F08430CC
:100A600018F0845080939805E0919805F0E0E059E3
:100A7000FE4FA5E1B8E002C08C5FF4CF8C91949159
:100A8000899FC00111249D9388E0AF33B807B1F767
:100A9000BECF98968C9198978695869586A79796BF
:100AA0008C9197978695869585A799968C9199971D
:100AB0008695869587A7139733962E173F0749F794
:100AC00085E198E00C94850420910D0122FF15C06A
:100AD0002CE638E00E949104E5E1F8E080916C0892
:100AE00090916D08A0916E0881939193A19388E0F5
:100AF000EF33F80799F70C94030508950F931F93AC
:100B0000CF93DF93162FD42F0E948904082FC92F6B
:100B100080910D0182FF23C0887F883029F44D2FFA
:100B2000612F802F0E94640500930C01C370809197
:100B30000D018C7FC82BC0930D0110930E01D09333
:100B40000F0160910C0170910D0180910E01909147
:100B50000F01DF91CF911F910F910C94EB04DF9166
:100B6000CF911F910F91089590910D0192FD02C0B8
:100B7000589A11C087FD04C087311CF080E001C085
:100B800086E1880F880F880F90910D019770892B4F
:100B900080930D01589860910C0170910D01809126
:100BA0000E0190910F010E94EB0490910D01409174
:100BB0000F0160910E0180910C0193700C947E05E1
:100BC0000E946523811104C00E9446230E94F10403
:100BD0000E94E70460930C0170930D0180930E0155
:100BE00090930F0180910F01811103C08FE78093D3
:100BF0000F01509A80910D018695869586950C94EB
:100C0000B405EDE0F1E0808182FB222720F991E03C
:100C1000922790FB82F980838695869586950C9421
:100C2000B405CF92DF92EF92FF920F931F93CF9371
:100C3000DF93D82FE0900C0180910D018370F82E86
:100C4000C0900E0140910F01042FD0FF02C0CFEFE2
:100C500001C0C1E00E948A2081FDC1958D2F90E0E6
:100C60008930910508F04CC0FC01EA5AFF4F0C9402
:100C70003A24DF91CF911F910F91FF90EF90DF9079
:100C8000CF900C94010680910D01869586958695EE
:100C90008C0F0E94B40534C080910C0120910D018D
:100CA000922F93707C0124E1C202E00CF11C11240C
:100CB00029C080910E0191E1C90260011124C80E82
:100CC000D11C2FEFC216D10409F01CF4D7FC27C0A9
:100CD00019C0CC24CA94D12C15C080910F0191E188
:100CE000C902A00111248A01080F111D0F3F11052F
:100CF00009F01CF417FD16C005C00FEF10E002C08C
:100D0000D33098F0402F6C2DC701DF91CF911F9108
:100D10000F91FF90EF90DF90CF900C947E05C12C47
:100D2000D12CF0CF00E010E0EDCFDF91CF911F91FB
:100D30000F91FF90EF90DF90CF900895E5E1F8E0FC
:100D4000818360834283339698E0EF33F907C1F7DC
:100D50000C940305FC01909117078081803649F5BA
:100D600081818B3B21F4CF0103960C94050B9330CA
:100D700019F482810C94B405943021F4438162818A
:100D80000C949E069530A9F48E3068F4A82FB0E03C
:100D900084819381228111962C9311979C931296B2
:100DA0008C930C9403058F3F21F4828193810C94E2
:100DB000CE1A0895CF93C82FE0919705F0E0E0593F
:100DC000FE4F449190910D0160910E0180910C01B4
:100DD00093700E94640530910B01209197053C9F10
:100DE000200D1124209397052C1738F08C2F90E0BC
:100DF000820F911D8F3791051CF0319530930B01B7
:100E0000CF910895CF93C82FECE0F1E04381628148
:100E100080919505909196050E94640580919505B5
:100E20009091960523E0C29F800D911D11240E9490
:100E300089049093960580939505CF910895EF923C
:100E4000FF921F93CF93DF93182F169580FD119576
:100E500085E1E82E88E0F82EC0E0D0E0809193058F
:100E600090919405970140910F0160910E018C0FB4
:100E70009D1F0E949104E09623E0E20EF11CC03A0F
:100E800082E0D80759F70E9403058091930590915D
:100E9000940520E1129F8019910911240E94890470
:100EA0009093940580939305DF91CF911F91FF90CC
:100EB000EF900895FF920F931F93CF93DF9390913C
:100EC00092059F5F282F2695291740F09093920551
:100ED000DF91CF911F910F91FF900895C82F10922D
:100EE00092050E94FB04C0FF02C0CFEF01C0C1E029
:100EF00000E010E0D0E0F0900A012F2D2D0F27FF29
:100F000002C0225F03C02E300CF02E50022E000CC7
:100F1000330BC901880F991F280F391F2B5E374FDC
:100F200080910C0140910D01942F937040910F011D
:100F300060910E01800F911F0E949104DC0F0E5CE6
:100F40001F4F083C1105B9F6CF0DCF301CF01092A1
:100F50000A0108C0C7FD03C0C0930A0103C08EE0A8
:100F600080930A01DF91CF911F910F91FF900C9414
:100F70000305909191059F5F891718F09093910553
:100F80000895109291050E94FB0490E020E080916A
:100F90000901820F8E3098F490E0FC01EE0FFF1FE4
:100FA0008E0F9F1FFC01EB5EF74F80916C089091B4
:100FB0006D08A0916E0880839183A28391E02F5FDA
:100FC000243029F791110E94030590910801809126
:100FD0000901890F809309018D5F8131B0F09195EE
:100FE0009093080180918F059091900588960E94BA
:100FF00089049093900580938F052CE638E040910A
:101000000F0160910E010C949104089558992DC020
:1010100090910D0192FF28C08091D106811124C0CA
:10102000892F869586958695E82FF0E0E731F105C2
:10103000E0F4E15AFF4F0C943A2440910F01609183
:101040000E0180910C0193700C9464050C94DA06E7
:1010500084500C94020786500C941F078D500C94FA
:101060005A0783510C94B907589A08958BB18F721F
:101070008BB90E949603589A08950E94E0050E9439
:10108000510380911A01843018F081E080931E0191
:101090000895589918C080918D0590918E050E94F1
:1010A00021214F9780F00E94152190938E05809307
:1010B0008D0580911E01882321F0809120018111EE
:1010C00002C00C940608089580918B0590918C05C0
:1010D0000E9421218739910508F457C00E941521EB
:1010E00090938C0580938B0580918A058F5F809308
:1010F0008A059091D1069923C1F0843008F445C047
:10110000913011F080E001C083E080938A05379B25
:1011100008C00E949603589A9BB180E189278BB939
:1011200008951092D1060C943D0880911E018823E9
:1011300061F1589880918A05813041F48BB18F7AA2
:101140008BB90E94FB040E94030513C0833089F40D
:101150005C9A8091D40681115E9A8091D40688238E
:1011600019F06FEF40E002C060E04FEF80E00E94B6
:101170009E069091D40680918A05911102C0853017
:1011800010F48B3010F010928A0508952091990583
:1011900080919A05821759F030E0F901E556FA4F2F
:1011A00080812F5F3F4F2093990590E008958FEF46
:1011B0009FEF08959091C80095FFFCCF8093CE00DB
:1011C00008951F920F920FB60F9211242F933F9301
:1011D0004F938F939F93EF93FF9380919A0590E0A5
:1011E0009C012F5F3F4F40919905421741F030918C
:1011F000CE00FC01E556FA4F308320939A05FF910B
:10120000EF919F918F914F913F912F910F900FBE32
:101210000F901F9018950E94891680911A018230B4
:1012200050F48FE19EE40197F1F700C000000E94A6
:101230001B120E941C09FFCF9EE088E10FB6F894B4
:10124000A895809360000FBE9093600008958091F0
:1012500090088430E1F081E080939B0629E488E1E6
:1012600090E00FB6F894A895809360000FBE20938D
:1012700060000E94360883B7817F846083BF83B794
:10128000816083BF7894889583B78E7F83BF0895EC
:101290000C943D081F920F920FB60F9211248F935A
:1012A0009F93AF93BF9380919B06813099F4809177
:1012B000BB079091BC07A091BD07B091BE07809677
:1012C000A11DB11D8093BB079093BC07A093BD07E0
:1012D000B093BE07BF91AF919F918F910F900FBEBA
:1012E0000F901F9018958091B606089508950F935A
:1012F0001F93CF930E9415218C01C0E0C8010E946A
:1013000021214E9708F50E94C6088F3F2FEF9207C4
:10131000C9F0AC0155274D305105A1F02C2F30E01C
:101320004A30510551F4C23030F0F901E556F94F19
:1013300080818F3449F08FE590E0F901E356F94F51
:101340008083CF5FC731D0F2EC2FF0E0E356F94F46
:1013500010828DE996E0CF911F910F910895CF9360
:10136000CAE10E94C608019611F0C150D1F7CF9191
:1013700008950F931F93CF93DF935D990AC08C015B
:101380000E94AF09E8018991882319F00E94DA08C8
:10139000FACFDF91CF911F910F9108959C012F56A5
:1013A00031092230310528F02A5731092230310520
:1013B00060F42091B906211103C02FEF2093B906E4
:1013C0009093B8068093B70602C01092B906209198
:1013D000BA06211116C09F938F938DE391E09F93DE
:1013E0008F938FE698E09F938F930E94A9240F908C
:1013F0000F900F900F900F900F908FE698E00C9445
:10140000B9090895CF93DF93EC018091BA06811159
:1014100032C08C81282F082E000C330B3F938F9302
:101420008B81282F082E000C330B3F938F938A81DA
:10143000282F082E000C330B3F938F938981282F80
:10144000082E000C330B3F938F9385E591E09F931B
:101450008F938FE698E09F938F930E94A9248FE645
:1014600098E00E94B9098DB79EB70C960FB6F89414
:101470009EBF0FBE8DBF8091BA0681111FC08881AB
:101480009091B5068917D1F08093B5061F928F937E
:1014900085E791E09F938F938DE798E09F938F93DB
:1014A0000E94A9240F900F900F900F900F900F9013
:1014B0008FE698E0DF91CF910C94B909DF91CF913D
:1014C00008950E94B9090C947709CF93DF93EC013A
:1014D00086E90E940021CE01DF91CF910C94610A30
:1014E0008091BB06882321F01092BB060C94C42087
:1014F0000895CF93DF932091BB06211152C0209114
:10150000BA0621114EC0EC0180E891E00E94B909B1
:10151000209731F484E991E0DF91CF910C94B909DF
:101520008F811F928F938E811F928F938D811F9237
:101530008F938C811F928F938B811F928F938A81BF
:101540001F928F9388811F928F938BE991E09F93D5
:101550008F938FE698E09F938F930E94A9248FE644
:1015600098E00E94B90980E58A95F1F78DB79EB79A
:1015700042960FB6F8949EBF0FBE8DBF8881811131
:1015800010C08A81833531F0893331F0873449F4D2
:1015900082E103C080E101C081E1DF91CF910C9431
:1015A0005603DF91CF91089580E090E00C94790A82
:1015B0008091B9068823D9F0823020F08150809341
:1015C000B906089520919C062F5F20939C06809178
:1015D000B7069091B80630E04FE451E0481B590B34
:1015E0002417350720F010929C060C94CE0908951C
:1015F00082EC91E00C94650A803319F483ED91E05C
:1016000002C082EE91E00C94650ACF93DF93EC0167
:1016100081EF91E00E94B909CE010E94B90989E9E0
:1016200091E0DF91CF910C94650A80E092E00C94F8
:10163000050B8EE092E00E94610AFC018081089512
:101640008DE192E00C94650A559A5D980E940C21F8
:10165000F89487E68093CC001092CD008091C90069
:1016600080698093C9008091C90088608093C90017
:101670008091CA008093CA008091C80082608093E4
:10168000C80078948DE292E00E94650A8DE292E0B3
:101690000E94610AFC018081813421F481818435BA
:1016A00091F505C08F3479F581818B3461F50E9405
:1016B000F80A8DE292E00E94650A81E392E00E94BE
:1016C000650A0E94150B82EE91E00E94650A88E38C
:1016D00092E00E94650A0E94200B88E492E00E943A
:1016E000650A85E692E00E94650A81EA92E00E941E
:1016F000650A85EB92E00E94650A10929B081092A1
:101700009A080E940B09F8948CE08093CC0078949E
:101710008DE292E00C94650ACF93589903C0882318
:1017200009F4A1C0C82F88EC92E00E94610AFC0174
:10173000628180ED860F8A3008F05FC0408150E002
:101740004053510984E6849FD001859FB00D112438
:10175000818190E0C0974AE0489F9001499F300DF9
:1017600011242A0F3B1F260F311D43E0220F331F88
:101770004A95E1F72A5432402C3C40E1340788F482
:1017800080911C0190911D0183374EE0940709F46C
:10179000C901280F391F3695279530931D012093D5
:1017A0001C0137990EC081E08093D00680911C0106
:1017B00090911D018A55910990931D0180931C0100
:1017C00002C01092D00620911C0130911D0184E0CE
:1017D000369527958A95E1F720542093D306223A2F
:1017E00018F01092D10609C0253910F481E003C029
:1017F0002D3918F485E08093D106C130A1F5909180
:10180000D306E6E4F3E08AE52191921718F48A50B2
:10181000D9F78CE22091D1062111822F2091D00698
:10182000820F211103C0923C08F084E680931B01D3
:101830001F928F9384ED92E09F938F938FE698E0B1
:101840009F938F930E94A9248FE698E00E94610ADB
:101850000F900F900F900F900F900F908FE698E0E1
:10186000CF910C94610ACF9108953F98479A81E0F7
:101870000C948C0BCF939091900881E0943009F0F8
:1018800080E080931F0180912B0187FF1CC00E9484
:10189000CF148051914059F080E191E00E94CA1428
:1018A000809181058D7F809381050E948B038091BB
:1018B000D506811129C080911F01882329F18091CB
:1018C0002B018F7707C0943061F09091200199230C
:1018D00021F0806880932B0117C08CE080931A015F
:1018E00013C00E94CF148152914071F081E291E0C7
:1018F0000E94CA14809181058260809381050E94B4
:101900008B0381E08093D50680912001882309F420
:1019100020C15D9915C10E94AF0980911A018230E2
:1019200031F481E00E948C0B83E080931A01C09116
:10193000CF06CC2309F446C00E94190B813309F06D
:1019400041C086EE92E00E94610AFC0101900020F5
:10195000E9F79F01255131092817390799F5C13059
:1019600081F422E02093CF06C0931E011092D4068A
:1019700021E1FC01ACEBB6E001900D922A95E1F774
:1019800021C041E150E06CEB76E00E949C24892B61
:1019900059F08091CF068F5F853090F01092CF067E
:1019A00081E08093D4060EC089EF92E00E94610A24
:1019B00080911E018F3018F01092CF0603C082E094
:1019C0008093CF068091DB06811199C08091D80663
:1019D0009091D9060E942121893E934008F48FC03E
:1019E0000E9415219093D9068093D8068091D40641
:1019F000811105C08091CF0681112FC008C0809150
:101A0000CE068F5F8093CE068370A1F33DC00E9407
:101A1000190B813321F481E08093D4061CC08033FC
:101A2000E1F41092D4068091DA068F5F8093DA0693
:101A300090911F01911111C090911A01992369F0A1
:101A40008A3558F05D9A8091C900877F8093C900DC
:101A500084E080931A011092DA0680911E01882397
:101A600099F0843629F410921E010E9451030CC093
:101A70008F5F80931E01843120F48091D4068823E7
:101A800019F084E680931E018091CD068F5F8093CC
:101A9000CD06877021F48091D0060E948C0B809136
:101AA0001F0181112CC080911E01811128C08091DD
:101AB000D6069091D70601969093D7068093D606C6
:101AC00020911A01213039F40F9728F00E94D40A8E
:101AD00082E080931A0180911A01833081F4809111
:101AE000D6069091D7068832934248F084E08093DE
:101AF0001A015D9A8091C900877F8093C900809107
:101B0000D2068823D9F08C3099F0823119F486E21C
:101B100093E010C0853181F40E94200B80E30E9485
:101B2000FC0A81E30E94FC0A81E493E00E94610ABE
:101B30008BE093E00E94610A1092D2060E94D80ABC
:101B400080911A01823028F40E94700ACF910C947F
:101B50006408CF910895CF93DF93C82F0E948A2005
:101B6000D82F0E948916C53191F198F4CC3061F1DB
:101B700018F4C530F1F18FC0C23131F1C33109F031
:101B80008AC090911A0181E0892780931A0160E050
:101B900069C0C93109F44CC028F4C63101F1C8311B
:101BA00041F079C0CC3B09F460C0C03C09F461C08D
:101BB00072C080912001882309F46FC090912B019D
:101BC000905890932B016AC0C093D20666C0D0FF94
:101BD00062C0C093D20681E080931E015FC08091F5
:101BE0001E01811102C081E001C084E680931E01C4
:101BF00054C08D2F837251F0DD7DD13031F48BE2F2
:101C00009CEF9093010880930008FFCFDC3039F4FB
:101C10008AEA9BEB90939B0880939A08FFCF82E31C
:101C20009FE00E94CE1A82E39FE10E94CE1A35C047
:101C300080911B0160E090E00E94DA1AD0FF0BC097
:101C40008DE290E00E94CE1A60E080911C0190919C
:101C50001D010E94DA1A8DE290E00E94CE1A60E027
:101C60008091D4060E94C71618C081E08093CF06E9
:101C700015C080911F01811110C05D9A8091C9002B
:101C8000877F8093C9008AE080931A011092D4065E
:101C90000E94191F02C080E001C081E0DF91CF9156
:101CA0000895CF93DF93CDB7DEB729970FB6F89499
:101CB000DEBF0FBECDBF96E0E4E3F1E0DE0111969A
:101CC00001900D929A95E1F720913A0130913B01F4
:101CD00040913C012F8338874987282F30E08B3093
:101CE00018F0ECEFFFEF02C0E1E0F0E0EC0FFD1FB9
:101CF000E20FF31F808129960FB6F894DEBF0FBE66
:101D0000CDBFDF91CF910C94AB0DCF9390E080E8E5
:101D10000FB6F89480936100909361000FBE0E940B
:101D2000B7010E947612789480912001882321F0D7
:101D30000E94240B0E94350CCFEF80919008C15077
:101D4000843029F084E00E940021C111F6CF0E9466
:101D500022150E941C09C1E080911A01843038F4D8
:101D6000A895823010F40E942C150E943A0C8091A4
:101D70001A01823040F4809120018111EDCF8091D1
:101D80009008843049F30E9427090E941C090E9490
:101D90008B02882309F31092D7061092D6060E9470
:101DA0003D0880912001882389F0C0931A01C093D7
:101DB000BB065D988091C90083FD03C084E60E9444
:101DC00000218091C90088608093C9008091D50668
:101DD000882311F280919008853009F0BDCF0E94D0
:101DE000F710BACF8091ED0608958FEF9091E8003B
:101DF000815095FD06C09AE69A95F1F700C08111D1
:101E0000F5CF8091E80085FB882780F991E089274C
:101E10000895CF93DF9300D01F92CDB7DEB7209106
:101E200090082430B9F423E029839B838A8320938C
:101E3000E9000E94F50E81110DC040E050E063E022
:101E400070E0CE0101960E940C118091E8008E771F
:101E50008093E8000F900F900F90DF91CF9108953D
:101E6000CF93DF9300D01F92CDB7DEB720919008BB
:101E70002430C1F422E029839B838A8383E080930A
:101E8000E9000E94F50E81110DC040E050E063E0D2
:101E900070E0CE0101960E940C118091E8008E77CF
:101EA0008093E8000F900F900F90DF91CF910895ED
:101EB000CF93DF93209190082430A1F4EC0182E0CD
:101EC0008093E9000E94F50E81110CC040E050E0C3
:101ED00065E070E0CE010E940C118091E8008E77E1
:101EE0008093E800DF91CF910895CF93DF93EC01C9
:101EF000909190089430B9F580912B0181718131D6
:101F0000B9F49093E9008FEF9091E800815095FD2E
:101F100006C095E19A95F1F700008111F5CF809107
:101F2000E80085FF20C040E050E060E170E00BC0B9
:101F300081E08093E9000E94F50E811114C040E019
:101F400050E068E070E0CE010E940C118091E80042
:101F50008E778093E80080E1FE01ADEDB6E0019060
:101F60000D928A95E1F7DF91CF91089580918F08C6
:101F7000811109C00E941B120E9476128091E2001A
:101F800084608093E200089510928F080895089568
:101F900042E061EC81E00E94B51142E061EC82E038
:101FA0000E94B51142E061EC83E00E94B51142E16C
:101FB00061EC84E00C94B51180919208833009F4AF
:101FC00055C030F4813071F0823009F48EC008952C
:101FD0008A3009F47AC08B3009F460C0893009F086
:101FE0009CC020C080919108813A09F096C08091F0
:101FF000E800877F8093E80080919508909196088B
:10200000892B21F460E18DED96E003C060E080E073
:1020100090E070E00E9457118091E8008B778093E8
:10202000E800089580919108813209F076C080918E
:10203000950890919608009719F0039709F06DC0E4
:102040008091E800877F8093E8008091E80082FD1E
:1020500005C0809190088111F8CF5FC08091F10098
:102060008093ED068091E8008B7753C080919108B2
:10207000813A09F052C08091950890919608892B79
:1020800009F04BC08091E800877F8093E800809141
:10209000E80080FFFCCF80912B0136C08091910831
:1020A0008132D9F58091950890919608892BA9F5F0
:1020B0008091E800877F8093E8000E94C911809199
:1020C000930880932B010C9489168091910881329A
:1020D00021F58091E800877F8093E8000E94C91174
:1020E000809194088093EE06089580919108813A3A
:1020F000A1F48091E800877F8093E8008091E80058
:1021000080FFFCCF8091EE068093F1008091E80083
:102110008E778093E8000C94C91108958091ED06A4
:102120008093DC061092ED0680E00E9490030E94EE
:10213000E0150C9489160C948E100E944809809129
:10214000DC068093ED0608950C949D10292F33270B
:1021500023303105C1F058F42130310579F02230B7
:102160003105E9F58DE690E028EA33E03CC0213204
:102170003105C1F02232310511F131C082E190E028
:1021800025E134E030C099278330910540F5FC010A
:10219000EE0FFF1FEA59FC4F20813181FC01ED5900
:1021A000FC4F1AC06430D8F4E62FF0E0EE0FFF1FAA
:1021B000E55AFC4F2081318189E090E014C0643001
:1021C00070F470E0FB01EE0FFF1FED5AFC4F208111
:1021D0003181FB01E15BFC4F808190E004C080E035
:1021E00090E020E030E0FA0131832083089519BCAB
:1021F00082E089BD09B400FEFDCF8091D8008F7DBB
:102200008093D8008091E00082608093E00080910C
:10221000E00081FDFCCF0895CF92DF92EF92FF9214
:102220000F931F93CF93DF93EC018B017A010E94F0
:10223000E811811133C0E114F10439F0F701808114
:102240009181081B190BC80FD91FC12CD12C011566
:10225000110519F18091E80085FD16C08091E80014
:102260008E778093E800E114F10449F0F701808152
:102270009181C80ED91ED182C08285E00FC00E9414
:10228000E811882321F30AC089918093F10001505D
:102290001109FFEFCF1ADF0ADACF80E0DF91CF918B
:1022A0001F910F91FF90EF90DF90CF9008952091B4
:1022B0009708309198082617370748F0611571057F
:1022C00039F42091E8002E772093E80001C0B9018D
:1022D000FC0120E06115710579F180919008882357
:1022E000F1F18530F1F18091E80083FD3CC08091EF
:1022F000E80082FD2EC08091E80080FFEBCF2091A6
:10230000F3008091F20090E0922B6115710551F07D
:102310008830910538F421912093F10061507109C2
:102320000196F3CF21E0089709F020E08091E800C2
:102330008E778093E800CECF2111CFCF0AC0809155
:102340009008882361F0853061F08091E80083FD7A
:102350000AC08091E80082FFF2CF80E0089582E019
:10236000089583E0089581E008958F708093E900D7
:10237000EBEEF0E0808181608083EDEEF0E0108292
:102380006093EC0040838091EE00881F8827881FAF
:1023900008958091910887FF11C08091E80082FD27
:1023A00005C0809190088111F8CF11C08091E8009C
:1023B0008B770BC080919008882349F08091E800CA
:1023C00080FFF8CF8091E8008E778093E800089531
:1023D0002091E4003091E50095E64091EC00842FD7
:1023E000817040FF23C08091E80080FD1DC0809176
:1023F0009008882399F0853099F08091EB0085FD55
:1024000011C04091E4005091E5002417350729F3ED
:10241000915011F09A01E1CF84E0089582E008958F
:1024200083E0089581E0089580E008954091E800F8
:1024300042FFDDCF08950E9487120E948F12E0EEC6
:10244000F0E0808181608083E8EDF0E080818F772B
:10245000808319BCA7EDB0E08C918E7F8C93808136
:102460008F7E808310928F0808950F931F93CF93D0
:10247000DF930E9487120E948F12C8EDD0E08881FE
:102480008F77888388818068888388818F7D88831F
:1024900019BC1092900810928D0810928E0800EED0
:1024A00010E0F80180818B7F808388818160888340
:1024B00042E060E080E00E94B511E1EEF0E0808152
:1024C0008E7F8083E2EEF0E0808181608083808176
:1024D00088608083F80180818E7F8083888180611D
:1024E0008883DF91CF911F910F910895E8EDF0E07F
:1024F00080818F7E8083E7EDF0E080818160808342
:1025000084E082BF81E080938F080C943512E8ED5F
:10251000F0E080818E7F80831092E2000895109217
:10252000DA001092E10008951F920F920FB60F92F9
:1025300011242F933F934F935F936F937F938F93C8
:102540009F93AF93BF93EF93FF938091E10082FF3E
:102550000BC08091E20082FF07C08091E1008B7F79
:102560008093E1000E94C9148091DA0080FF1DC0B1
:102570008091D80080FF19C08091DA008E7F80930F
:10258000DA008091D90019BC80FF0BC082E089BDC0
:1025900009B400FEFDCF81E0809390080E94B60F41
:1025A00004C0109290080E94C40F8091E10080FF47
:1025B00019C08091E20080FF15C08091E2008E7FFB
:1025C0008093E2008091E20080618093E20080913C
:1025D000D80080628093D80019BC85E08093900871
:1025E0000E949B108091E10084FF35C08091E20041
:1025F00084FF31C080911F01823010F40E940B09CA
:1026000019BC82E089BD09B400FEFDCF8091D800DD
:102610008F7D8093D8008091E1008F7E8093E100D0
:102620008091E2008F7E8093E2008091E2008160E1
:102630008093E20080918D08882311F084E007C028
:102640008091E30087FD02C081E001C083E08093B8
:1026500090080E94A4108091E10083FF29C080911E
:10266000E20083FF25C08091E100877F8093E10035
:1026700082E08093900810928D088091E1008E7F17
:102680008093E1008091E2008E7F8093E200809150
:10269000E20080618093E20042E060E080E00E941E
:1026A000B5118091F00088608093F0000E94C70F00
:1026B000FF91EF91BF91AF919F918F917F916F911A
:1026C0005F914F913F912F910F900FBE0F901F90F0
:1026D00018951F920F920FB60F9211242F933F93CC
:1026E0004F935F936F937F938F939F93AF93BF931A
:1026F000CF93DF93EF93FF93C091E900CF70809168
:10270000EC00D82FD17080FDD0E81092E9008091C4
:10271000F000877F8093F00078940E94AD131092B0
:10272000E9008091F00088608093F000CD2BCF709D
:10273000C093E900FF91EF91DF91CF91BF91AF91ED
:102740009F918F917F916F915F914F913F912F91C9
:102750000F900FBE0F901F9018951F93CF93DF938C
:1027600000D0CDB7DEB7E1E9F8E089E998E0209143
:10277000F10021938E179F07D1F70E94DC0F809103
:10278000E80083FFF2C08091910890919208492F50
:1027900050E04A30510508F0E8C0FA01EA58FF4F0E
:1027A0000C943A24803881F0823809F0DEC08091A0
:1027B00095088F708093E9008091EB0085FB882756
:1027C00080F91092E90007C080918E08882311F0EB
:1027D00082E001C080E09091E800977F9093E8004C
:1027E0008093F1001092F10095C0282F2D7F09F001
:1027F000BCC0882319F0823061F0B7C08091930883
:10280000813009F0B2C0933009F080E080938E08E7
:102810002BC080919308811127C0809195088F70FB
:1028200009F4A3C08093E9002091EB0020FF1CC0B5
:10283000933021F48091EB00806214C09091EB0002
:1028400090619093EB0021E030E0A90102C0440FB9
:10285000551F8A95E2F74093EA001092EA008091B2
:10286000EB0088608093EB001092E9008091E80013
:10287000877F53C0811179C0109193081F77809191
:10288000E3008078812B8093E3008091E800877FCC
:102890008093E8000E94C9118091E80080FFFCCF7E
:1028A0008091E30080688093E300111102C082E010
:1028B00001C083E08093900858C08058823008F0AF
:1028C00054C0AE014F5F5F4F6091950880919308AF
:1028D000909194080E94A610BC01892B09F445C070
:1028E0009091E800977F9093E80089819A810E94F7
:1028F00057118091E8008B778093E80036C08038CC
:10290000A1F58091E800877F8093E80080918D0891
:102910008093F1008091E8008E778093E8000E9418
:10292000C91123C0811121C080919308909194080E
:1029300099270297D4F48091E800877F8093E8007C
:102940008091930880938D080E94C91180918D0811
:10295000811106C08091E30087FD02C081E001C0C3
:1029600084E0809390080E94C80F8091E80083FF64
:102970000AC08091E800877F8093E8008091EB0097
:1029800080628093EB000F900F90DF91CF911F91A9
:10299000089508959093F4068093F3060895809126
:1029A000F3069091F4060895E091F306F091F40691
:1029B000309721F00190F081E02D099480E0089596
:1029C000E091F306F091F406309721F00280F38154
:1029D000E02D09940895E091F306F091F406309704
:1029E00021F00480F581E02D099408952091F106ED
:1029F0003091F2062817390771F09093F206809310
:102A0000F106E091F306F091F406309721F006808C
:102A1000F781E02D099408952091EF063091F0069A
:102A20002817390771F09093F0068093EF06E09134
:102A3000F306F091F406309721F00084F185E02D43
:102A4000099408950E940C210E94F4010E94D6026C
:102A50000E9434230C947923BF92CF92DF92EF929D
:102A6000FF920F931F93CF93DF9300D000D01F925C
:102A7000CDB7DEB70E94FE010DE017E0F12C8F2DDF
:102A80000E948402B82EF801C080C82639F4F3945D
:102A90000F5F1F4FFAE0FF12F2CF2AC08091BA07F2
:102AA00081FD0E948A02D12CEE24E3948C2D8E218C
:102AB000C9F0D982FA8291E08B2D8E2109F490E041
:102AC0009B830E94152181609D838C83CE0101969A
:102AD0000E94E115CE0101960E94B903F8018081A0
:102AE0008E258083D394EE0CF8E0DF12DFCFCFCFBA
:102AF00080E090E00E94E1150E9449080E942E2289
:102B000080911707882389F080910B0790910C071B
:102B10000E9421218C34910540F010920A0786EF23
:102B200096E00E94AA06109217070E94D414909172
:102B3000F5068917A1F10E94D4148093F50684FF4D
:102B40002CC0E0911707F0E0EA50F94F9081990FFF
:102B5000990F8370892B80830E94152190930C0715
:102B600080930B0780910A078F5F80930A07843058
:102B7000B0F08091F606803641F4809117078230DC
:102B800020F487E490E00E94CE1A10920A07809108
:102B900017078F5F8093170702C00E94FE200F90D7
:102BA0000F900F900F900F90DF91CF911F910F9189
:102BB000FF90EF90DF90CF90BF9008950C9490031A
:102BC0000895CF93DF9300D000D000D0CDB7DEB70B
:102BD000FC01892B39F40E941521816060E05FEFD0
:102BE0004FEF05C040815181628183819481FE0154
:102BF000319626E0DF011D922A95E9F7782F9D8313
:102C00008C838D819E810E94981D26960FB6F89424
:102C1000DEBF0FBECDBFDF91CF910895CF93882344
:102C200049F1803B29F480EF91E0CF910C94461E4E
:102C3000C82F8CEF8C0F813A20F080E58C0F8E32FC
:102C400050F48C2F0E94F622811114C061E08C2F69
:102C50000E943F200CC080E28C0F883058F4C7706F
:102C600081E001C0880FCA95EAF70E948D20CF91BC
:102C70000C94C420CF910895882351F19CEF980FB4
:102C8000913A20F090E5980F9E3220F460E00E9487
:102C90003F200DC090E2980F983058F4877091E073
:102CA00001C0990F8A95EAF7892F0E9493200C940E
:102CB000C4209BE5980F933020F480E090E00C94C2
:102CC000F614885A873120F480E090E00C940C15BB
:102CD0000895882321F00E948D200C94C42008952B
:102CE000882321F00E9493200C94C42008950E9410
:102CF000AA200E9480200E94C4200E94EA220E94F2
:102D0000232280E090E00E94F61480E090E00C9492
:102D10000C150E949A200C947716CF93DF9300D065
:102D200000D01F92CDB7DEB70E94D11F292F229568
:102D30002F702C3030F42A30A0F42250223030F0A2
:102D40001DC02C30A9F02F3099F018C0853A28F416
:102D5000843090F4823028F40FC090E2980F9830BD
:102D600058F0843058F0853A38F0803F39F404C088
:102D700093FB882780F903C081E001C080E00F90B9
:102D80000F900F900F900F90DF91CF9108958111C8
:102D900001C08AE0662311F0885A01C0835E90E08A
:102DA0000C94CE1ACF92DF92EF92FF920F931F9363
:102DB000CF93DF9300D000D01F92CDB7DEB76C0168
:102DC00085E0F601DE01119601900D928A95E1F7FA
:102DD000F6012381348189819A812115310531F0F1
:102DE0009F3F31F491E08F3F19F403C091E001C09F
:102DF00090E090FDAAC3F601F280E580E2948FE0B6
:102E0000E8222230310559F0722F3D832C8349810D
:102E10005A816F2D8D810E94D11F8C0102C00981C2
:102E20001A810E94D01F0E94CA1EE12FE295EF7006
:102E30008E2F90E0FC01E058FF4F0C943A24812F34
:102E4000807F1F70882311F01295107FFF2021F1E1
:102E50000E948A2081239091B707892B8093B7071E
:102E6000112351F0002319F081E08093B507812FE1
:102E70000E949D200E94C420802F0F900F900F90E1
:102E80000F900F90DF91CF911F910F91FF90EF90D6
:102E9000DF90CF900C940E169091B707812F8095FC
:102EA00089238093B7071092B507802F0E943C16A4
:102EB000112309F44AC3812F0E94A3200F900F9081
:102EC0000F900F900F90DF91CF911F910F91FF9076
:102ED000EF90DF90CF900C94C420812F807F1F70E3
:102EE000803211F01295107F002319F0013009F1A2
:102EF0002BC0FF20A9F0EE2061F1F1E0812FEF124D
:102F000029C00F900F900F900F900F90DF91CF91ED
:102F10001F910F91FF90EF90DF90CF900C94AD2018
:102F2000EE2021F021E0E21609F40FC30E94B02048
:102F300054C0FF20F1F082E08E1508F406C30E9411
:102F40008A20812331F049C0FF2009F444C0E110F8
:102F500015C0812F0F900F900F900F900F90DF9161
:102F6000CF911F910F91FF90EF90DF90CF900C9435
:102F70006916E1E0EE1508F4E8C22FC0F60185817C
:102F800080FF13C08F708583E4CF003F09F4A5C193
:102F900008F080C1003E08F085C1FF2009F413C28B
:102FA000EE2009F402C213FDFCC1802F0E940E1610
:102FB000093309F0CAC282E30F900F900F900F906F
:102FC0000F90DF91CF911F910F91FF90EF90DF90C5
:102FD000CF900C940021E110FEC1812F6FC1812F91
:102FE00086958695837019F08130B9F0AEC2FF20C6
:102FF00019F0C801937002C080E090E00F900F902C
:103000000F900F900F90DF91CF911F910F91FF9034
:10301000EF90DF90CF900C940C15FF20C1F0C80109
:1030200093708115F3E09F07A4F085EF91E00E9473
:10303000461E60E0802F82958F700E94C71660E068
:10304000802F8F700E94C71683EF91E0F6C180E059
:1030500090E00F900F900F900F900F90DF91CF9115
:103060001F910F91FF90EF90DF90CF900C94F6148A
:10307000802FFF2081F00E946E210E9423220634BF
:1030800008F063C2E02FF0E0EB53F84F81E080835B
:103090008093C4075AC20E94BC210E942322063496
:1030A00008F053C2202F30E0F901EB53F84F1082A3
:1030B000002311F0C901ABC184EF90E5A8C1812FB5
:1030C000837009F070C0F11040C2202F2295269520
:1030D0002770220F220F602F6F70862F90E0A0E0E4
:1030E000B0E06C017D01022E04C0CC0CDD1CEE1C96
:1030F000FF1C0A94D2F704FF12C08FE090E0A0E01A
:10310000B0E004C0880F991FAA1FBB1F2A95D2F7F1
:10311000BC01CD01609570958095909503C060E0ED
:1031200070E0CB011695169513701230B1F040F592
:103130006C297D298E299F29113031F10F900F9034
:103140000F900F900F90DF91CF911F910F91FF90F3
:10315000EF90DF90CF900C94E51E6C297D298E298D
:103160009F290F900F900F900F900F90DF91CF91AC
:103170001F910F91FF90EF90DF90CF900C94FF1E66
:103180000E94E51EC701B6010F900F900F900F909F
:103190000F90DF91CF911F910F91FF90EF90DF90F3
:1031A000CF900C94CB1EFF2019F0812F817001C0AD
:1031B0008695882309F4C9C1202F2295269527706A
:1031C000220F220F602F6F70862F90E0A0E0B0E0FA
:1031D0006C017D01022E04C0CC0CDD1CEE1CFF1C1A
:1031E0000A94D2F704FF12C08FE090E0A0E0B0E0B4
:1031F00004C0880F991FAA1FBB1F2A95D2F7BC01D4
:10320000CD01609570958095909503C060E070E069
:10321000CB011695169513701230B1F040F56C295C
:103220007D298E299F29113031F10F900F900F9039
:103230000F900F90DF91CF911F910F91FF90EF9022
:10324000DF90CF900C94AC1F6C297D298E299F298B
:103250000F900F900F900F900F90DF91CF911F91D3
:103260000F91FF90EF90DF90CF900C94BE1F0E94C3
:10327000AC1FC701B6010F900F900F900F900F90E9
:10328000DF91CF911F910F91FF90EF90DF90CF9042
:103290000C949A1F023F09F44FC0D8F1033F09F480
:1032A0005EC07BCE0F70812F8F71FF2021F00E94B6
:1032B000331F802F4FCE0E94541F802F0F900F90EE
:1032C0000F900F900F90DF91CF911F910F91FF9072
:1032D000EF90DF90CF900C947016FF20A9F021E0C2
:1032E0002E1508F432C1812F8F710F900F900F901F
:1032F0000F900F90DF91CF911F910F91FF90EF9062
:10330000DF90CF900C94791F82E08E1508F41DC1D8
:10331000EACFFF2099F0812F8F710F900F900F90BF
:103320000F900F90DF91CF911F910F91FF90EF9031
:10333000DF90CF900C94331FFF2069F3812F8F71A2
:103340000F900F900F900F900F90DF91CF911F91E2
:103350000F91FF90EF90DF90CF900C94541FFF20BF
:1033600089F0812F8F710F900F900F900F900F9019
:10337000DF91CF911F910F91FF90EF90DF90CF9051
:103380000C941E1F0F900F900F900F900F90DF91D5
:10339000CF911F910F91FF90EF90DF90CF900C9401
:1033A000191FF601858180FF00CE012F0770802F45
:1033B0000E94331F14FFC9C069817A81802F0E9447
:1033C000562161E025C0EE20B1F013FF04C0F601E4
:1033D000858180FD10C0802F0F900F900F900F906F
:1033E0000F90DF91CF911F910F91FF90EF90DF90A1
:1033F000CF900C943C16012F0770802F0E94541F11
:1034000014FFA3C069817A81802F0E94562160E059
:103410000F900F900F900F900F90DF91CF911F9111
:103420000F91FF90EF90DF90CF900C94B31A412F43
:103430004F70602FC6010E94AB010F900F900F904C
:103440000F900F90DF91CF911F910F91FF90EF9010
:10345000DF90CF900C94461EF11077C0002341F00E
:10346000812F8F70843021F0107F902F9F70192B47
:103470001F701230C9F1A0F4112339F1113009F095
:1034800064C00F900F900F900F900F90DF91CF912D
:103490001F910F91FF90EF90DF90CF900C94A92394
:1034A000133089F1143009F050C0802F0F900F9025
:1034B0000F900F900F90DF91CF911F910F91FF9080
:1034C000EF90DF90CF900C940E240F900F900F9000
:1034D0000F900F90DF91CF911F910F91FF90EF9080
:1034E000DF90CF900C948E230F900F900F900F9041
:1034F0000F90DF91CF911F910F91FF90EF90DF9090
:10350000CF900C94CC230F900F900F900F900F90B2
:10351000DF91CF911F910F91FF90EF90DF90CF90AF
:103520000C94EB23412F4F70602FC6010F900F902A
:103530000F900F900F90DF91CF911F910F91FF90FF
:10354000EF90DF90CF900C9428010F900F900F9088
:103550000F900F90DF91CF911F910F91FF90EF90FF
:10356000DF90CF900895CF93DF9300D000D000D0AC
:10357000CDB7DEB789839A836B8382E090E09D8329
:103580008C83CE0101960E94D21626960FB6F8942F
:10359000DEBF0FBECDBFDF91CF910895CF93DF93F4
:1035A000EC0161E00E94B31A60E0CE01DF91CF919F
:1035B0000C94B31ABF92CF92DF92EF92FF920F93C7
:1035C0001F93CF93DF936C01B62EC5E0D0E000E1EE
:1035D00017E28AE0E82EF12CC601B8010E942624E9
:1035E000CB01009731F0B7010E9426246B2D0E9479
:1035F000C716C801B7010E9426248B01219761F7E5
:10360000DF91CF911F910F91FF90EF90DF90CF90BE
:10361000BF900895CF93DF9300D000D01F92CDB715
:10362000DEB70F900F900F900F900F90DF91CF911A
:103630000895CF93DF9300D000D000D0CDB7DEB790
:1036400026960FB6F894DEBF0FBECDBFDF91CF91A7
:1036500008951F93CF93DF93C091180716E08091D0
:103660001907C81799F0D0E01C9FF0011D9FF00DBD
:103670001124E65EF84F408151816281738184811B
:1036800095810E94191B2196C770E9CFDF91CF91D8
:103690001F91089540914A0750914B0760914C0744
:1036A00070914D0780914E0790914F070C94191B14
:1036B0000F931F93CF93DF9380914F0782958F7065
:1036C00009F05DC080914C07882309F458C08091AF
:1036D00018071091190760914A0770914B07C09124
:1036E0004D07D0914E0791E06F3F09F090E0292FF0
:1036F00006E0811709F443C0209721F07F3F21F0B5
:1037000030E003C031E001C0322F90E030FD34C022
:10371000089FF001099FF00D1124DF01A65EB84F4C
:1037200011963C911197371327C03C91361324C052
:1037300012963C91129731111FC013964D915C91D6
:1037400014974C1B5D0B483C5105B0F480914F071A
:103750008F70806180934F07E15EF84F80818F709A
:10376000806180838AE497E00E94D216DF91CF9136
:103770001F910F910C94291B01968770BACFDF918E
:10378000CF911F910F9108959F92AF92BF92CF92C8
:10379000DF92EF92FF920F931F93CF93DF93CDB7FA
:1037A000DEB761970FB6F894DEBF0FBECDBF8C01B8
:1037B00085E0F801DE011D9601900D928A95E1F7F2
:1037C000F80140815181F280C380D48090914A07F2
:1037D00060914B0720914D0730914E07211531051F
:1037E00031F06F3F31F481E09F3F19F403C081E075
:1037F00001C080E0F82FF1709F2E80FD52C18AE455
:10380000A82E87E0B82EE0904C07F601E21BF30BE0
:10381000EE2009F4E8C080914F07E83CF10508F07C
:10382000A4C0282F207F09F053C0561313C049139A
:1038300011C0EF2CF1100EC08F70806180934F0784
:103840000E944A1BC5010E94D21680914F07F801C1
:1038500085835BC1C114D10431F05F3F31F481E055
:103860004F3F19F403C081E001C080E080FD03C038
:1038700081E08F2502C080E090E0F82FF170EF2EFC
:1038800080FF1CC0809118072091190736E082172D
:1038900009F418C190E0389FF001399FF00D112410
:1038A000E65EF84F6181561306C06081461303C07F
:1038B0006281F61203C001968770E9CFEF2CFF20DA
:1038C00009F423C180914F07816080934F0762C044
:1038D000561306C0491304C0F11002C0F801A7C076
:1038E0004D875E87FF867C2DD98AC88A6F2D89898E
:1038F0000E948D16882399F1FF2089F120914F07AE
:10390000822F82958F7090E0029774F080914A0721
:1039100090914B0798878F831986DB86CA862C8700
:10392000CE0107960E94D21686E0F801AAE4B7E01D
:1039300001900D928A95E1F70E94581B0E944A1B44
:1039400011C0561749F14D875E87FF867C2DD98AB5
:10395000C88A6F2D89890E948D1681112CC0C801DB
:103960000E94D216EE24E394D0C0282F207F49F77E
:103970007C2DD98AC88A6F2D89890E940A1B8AE406
:1039800097E00E94D21686E0F50111928A95E9F738
:103990000E944A1BE12CB9C04913D5CFF110D3CFF7
:1039A000F8018583C8010E94D21686E0F5011192C4
:1039B0008A95E9F7AAC0FF2091F220914F07822F44
:1039C00082958F7090E002970CF4AECF80914A07F9
:1039D00090914B079A8389831B82DD82CC822E8350
:1039E000CE0101969FCFE83CF10508F04BC0EF2CCB
:1039F000FF2009F4B4CF561330C049132EC02091D4
:103A00004F0720FD21C0822F82958F70482F50E0F4
:103A100041155105C9F0F80125834F30510541F09A
:103A20008F5F982F9295907F822F8F70892B85833F
:103A3000C8010E94D21686E0F801AAE4B7E001901E
:103A40000D928A95E1F72AC086E0F801AAE4B7E072
:103A500001900D928A95E1F758C04D875E87FF86E9
:103A60007C2DD98AC88A6F2D89890E948D16811173
:103A70005BCF80914F07816080934F07C8010E9400
:103A8000D21643C07C2DD98AC88A6F2D89890E949D
:103A90000A1B86E0F50111928A95E9F70E944A1BFC
:103AA00034C0FF2009F45BCF4D875E87FF867C2DF5
:103AB000D98AC88A6F2D89890E948D16882309F4B6
:103AC0004ECF32CF7C2DD98AC88A6F2D89890E942A
:103AD000D11F292F22952F70223028F49F7039F0A2
:103AE000811105C00BC0243028F49F7049F4805E1A
:103AF000883020F0C8010E94D2169E2CE92C05C007
:103B0000F8019581907F99F7F9CF8E2D61960FB6C8
:103B1000F894DEBF0FBECDBFDF91CF911F910F9103
:103B2000FF90EF90DF90CF90BF90AF909F9008955F
:103B30001F93CF93DF93CDB7DEB72C970FB6F894D2
:103B4000DEBF0FBECDBF4F83588769877A878B87CB
:103B50009C87CE0107960E94C41B8823D1F09F81C9
:103B600088852A853B85232B31F08F3F31F481E016
:103B70009F3F19F403C081E001C080E080FD47C091
:103B80004F81588569857A858B859C850E94191B94
:103B90003EC086E0FE013796DE01119601900D923F
:103BA0008A95E1F7FF81E8856A857B856115710556
:103BB00031F0EF3F31F481E0FF3F19F403C081E0C1
:103BC00001C080E080FD23C02091190730E0C901C9
:103BD0000196877099274091180750E08417950740
:103BE000F1F1F983EA837D836C8396E0929FD001A3
:103BF000939FB00D1124A65EB84FFE01319601903F
:103C00000D929A95E1F7809319070E94291B16E0FF
:103C10008091180790911907891771F1189FC001B9
:103C20001124865E984F0E94C41B882329F1E091DD
:103C300018071E9FF0011124E65EF84F4081518164
:103C400062817381848195810E94191B809118077C
:103C500090E001968770992780931807D9CF0E942A
:103C600089161092190710921807EAE4F7E086E027
:103C7000DF011D928A95E9F72C960FB6F894DEBF06
:103C80000FBECDBFDF91CF911F910895CF92DF92EC
:103C9000EF92FF921F93CF93DF937C010E94700AF3
:103CA000E114F10409F464C0E7012196F7011491CD
:103CB000193709F43EC0B8F4143740F4143008F052
:103CC00052C08FEF810F8230F8F052C0143709F0E4
:103CD0004FC0F2E0EF0EF11CFE0184910E94002122
:103CE000E7017E01E1CF133828F4113868F4103869
:103CF00001F13EC01338B9F0143F08F039C01F7706
:103D0000812F90E0926031C0FE0185919491612FE6
:103D10006170E701133018F42296992701C02396A9
:103D20000E94B31ADECFFE0185919491E70123969C
:103D30001CC0FE01C590D490E701239684E00E9448
:103D40006916103841F461E081E00E94C716F0EA7C
:103D5000CF1AF6E8DF0A61E0C6010E94DA1A84E0B1
:103D60000E947016BECF812F90E00E94CE1AB9CF6C
:103D7000DF91CF911F91FF90EF90DF90CF9008954A
:103D80006093A0077093A1078093A2079093A30765
:103D90000C94830308950F931F9300912C011091AD
:103DA0002D0120912E0130912F01602B712B822B40
:103DB000932B60932C0170932D0180932E0190938F
:103DC0002F011F910F910C9487030F931F93009164
:103DD0002C0110912D0120912E0130912F01602393
:103DE00071238223932360932C0170932D01809380
:103DF0002E0190932F011F910F910C9487030F9325
:103E00001F9300912C0110912D0120912E013091D2
:103E10002F01602771278227932760932C017093CD
:103E20002D0180932E0190932F011F910F910C94DF
:103E3000870360E070E0CB010C94C01E0F931F93CA
:103E400041E050E060E070E08A019B0104C0000F97
:103E5000111F221F331F8A95D2F7C901B8011F9184
:103E60000F910C94C01E0F931F9341E050E060E04F
:103E700070E004C0440F551F661F771F8A95D2F764
:103E80008091A0079091A107A091A207B091A307EC
:103E90008A019B01082B192B2A2B3B2BC901B80146
:103EA0001F910F910C94C01E0F931F9341E050E09F
:103EB00060E070E004C0440F551F661F771F8A95AD
:103EC000D2F740955095609570958091A00790919C
:103ED000A107A091A207B091A3078A019B01082323
:103EE00019232A233B23C901B8011F910F910C9478
:103EF000C01E0F931F9341E050E060E070E004C0EB
:103F0000440F551F661F771F8A95D2F78091A0072F
:103F10009091A107A091A207B091A3078A019B01EC
:103F2000082719272A273B27C901B8011F910F919C
:103F30000C94C01E0F931F930091A0071091A1072E
:103F40002091A2073091A307602B712B822B932B1A
:103F50001F910F910C94C01E0F931F930091A00707
:103F60001091A1072091A2073091A307602371232C
:103F7000822393231F910F910C94C01E0F931F93C4
:103F80000091A0071091A1072091A2073091A307EB
:103F900060277127822793271F910F910C94C01ED1
:103FA00008958F929F92AF92BF92DF92EF92FF920D
:103FB0000F931F93CF93DF9300D000D01F92CDB704
:103FC000DEB78A016623D1F18090A0079090A10707
:103FD000A090A207B090A30780912C0190912D0191
:103FE000A0912E01B0912F01882A992AAA2ABB2AD2
:103FF0008FE1E82EF12CD501C4010E2C04C0B6953A
:10400000A795979587950A94D2F780FD06C081E021
:10401000E81AF10880F7D12C07C0DE2CB8018E2DEC
:104020000E945621019799F388E0189FF00111240E
:10403000E05BF84FE00FF11DD08209C088E0189FC7
:10404000F0011124E05BF84FE40FF11DD0800983EB
:104050001A8369817A818D2D0E9456210F900F90CD
:104060000F900F900F90DF91CF911F910F91FF90C4
:10407000EF90DF90BF90AF909F908F9008959091B8
:104080002B0191799131F1F4382F3695369536958B
:104090003F30A8F5E0913001F0913101282F2770D1
:1040A00081E090E001C0880F2A95EAF7E30FF11D47
:1040B000662319F09181892B03C080959181892312
:1040C000818308952091300130913101F901719679
:1040D0004FEF9EE05291552331F0851305C06111D9
:1040E0000EC0108201C0492F9150A0F7662339F00D
:1040F000F901E40FF11D47FDFA95828308950895B3
:10410000E0913001F091310180E1DF011D928A954B
:10411000E9F708958091B90708959091B907892B1F
:104120008093B907089580959091B907892380936A
:10413000B90708951092B90708959091B807892B8F
:104140008093B807089580959091B807892380934C
:10415000B80708951092B80708958093A4070895AA
:104160001092A40708958091300190913101FC01D3
:1041700031969C01205F3F4F80E0919191118F5FBC
:10418000E217F307D1F70895E0913001F091310182
:104190008091B9078083E0913001F09131019081E5
:1041A0008091B807892B8083E0913001F091310133
:1041B0008091B7078095908189238083E0913001B9
:1041C000F09131018091B607809590818923808399
:1041D0008091A407882361F0E0913001F0913101D2
:1041E0009081892B80830E94B32081111092A407B3
:1041F00080913001909131010C94E0140C94DE1503
:10420000882341F0EFE9FFE03197F1F700C00000AB
:104210008150F6CFA895089582E084BD93E095BDC6
:104220009DE797BD80936E0008952FB7F894809115
:10423000BB079091BC07A091BD07B091BE072FBFEF
:1042400008959C014FB7F8948091BB079091BC07EB
:10425000A091BD07B091BE074FBF821B930B08957D
:1042600078941F920F920FB60F9211248F939F9301
:10427000AF93BF938091BB079091BC07A091BD07FE
:10428000B091BE070196A11DB11D8093BB0790930D
:10429000BC07A093BD07B093BE07BF91AF919F919C
:1042A0008F910F900FBE0F901F901895CF93C82F2E
:1042B000CB010E941D01803819F480E090E00CC011
:1042C000EC2FF0E0FE2FEE27E050F04AE80FF11D52
:1042D000E80FF11D85919491CF910895803F08F4E6
:1042E0004AC0803F11F49FEF03C0813F21F491E069
:1042F000909310083BC0823F11F49FEF03C0833FAF
:1043000021F491E090930F0831C0893F70F421E0CF
:1043100030E09CE0980F01C0220F9A95EAF7909147
:104320000E08292B20930E0821C0893F11F491E03B
:1043300003C08A3F21F49FEF9093110817C08B3F71
:1043400011F49FEF03C08C3F21F491E09093120889
:104350000DC021E030E093E0980F01C0220F9A9544
:10436000EAF790910B08292B20930B08895F843082
:1043700010F410920C080895803F08F463C0803F49
:1043800039F48091100887FF5DC0109210080895DD
:10439000813F29F4809110081816BCF30895823FDC
:1043A00039F480910F0887FF4DC010920F080895CF
:1043B000833F29F480910F081816BCF30895893FB4
:1043C00088F4845F21E030E0A90102C0440F551F4A
:1043D0008A95E2F7CA01809590910E08892380930F
:1043E0000E080895893F39F480911108181654F584
:1043F0001092110808958A3F29F48091110887FFCF
:1044000021C0F6CF8B3F39F48091120887FF1AC084
:104410001092120808958C3F29F480911208181602
:10442000BCF308958D5F21E030E0A90102C0440F84
:10443000551F8A95E2F7CA01809590910B08892350
:1044400080930B0808958EE098E00E94EB140E9480
:1044500015219093C1078093C00708950F931F9370
:10446000CF93DF938091C4078823D9F18091C2074D
:104470009091C3070E9421212091330130E0281739
:10448000390778F50E948C248F70825E8093330107
:1044900005EC17E0C0E0D0E090E0F80181918F01D9
:1044A000882369F0CC2319F08C2F9D2F02C084EF54
:1044B00090E56091320170E00E94B31A91E021967C
:1044C000C634D10551F72091320181E082278093D3
:1044D00032019093C4070E9415219093C3078093E3
:1044E000C2078091C0079091C1070E942121AC01B1
:1044F00090910D08923019F028E230E002C025E0DA
:1045000030E04217530708F460C0D0911108C09101
:10451000120820910F0880911008822B8D2B8C2B74
:1045200019F410920D0851C0923020F49F5F9093BF
:104530000D084BC080910C088F5F80930C088F7022
:1045400021F010921108109212080E942322D09399
:104550001108C09312088091BF078F5F8093BF0737
:104560008D3098F180912B0187FD02C080E001C061
:1045700085E08093BF0790910B08292F220F220F0F
:10458000290FEEE0F8E03CEE44E181818823C1F0A0
:10459000992349F0181614F08FEF01C081E0829F33
:1045A000802D11240AC018162CF48F5F85312CF051
:1045B000418306C081508C3E14F0818301C0318359
:1045C000319688E0E231F80701F7DF91CF911F9132
:1045D0000F910895EEE0F8E085E0DF011D928A95E5
:1045E000E9F710920B08089580E00895CF93909119
:1045F000B507911135C0C82F80911308882319F091
:10460000813051F02AC0E0913001F0913101808178
:104610008252823030F508C0E0913001F0913101D2
:10462000808182528230A0F48C2F0E94AB0D8111C8
:104630000AC0C13151F40E94C60290912B0180E161
:10464000892780932B0191E001C090E0917009C00F
:104650008C2F0E94F42291E004C01092130801C034
:1046600090E0892FCF910895E1E8F0E080818860A3
:1046700080838081816080838FB7F8949AE79093DC
:10468000890092E1909388008FBF08956DEE7EEFD0
:1046900080E090E00E948E2760E082E090E00E943F
:1046A000702760E083E090E00E94702760E084E083
:1046B00090E00E94702760E085E090E00E94702703
:1046C00060E086E090E00C94702780E090E00E942B
:1046D0006A2721E08D3E9E4F09F020E0822F089549
:1046E00086E090E00C945C27682F86E090E00C94C4
:1046F00070270E946523811102C00E9446230E94F8
:10470000702380939908811102C081E005C080FF69
:1047100002C0869501C080E00C94AA03809199089C
:10472000982F9695292F30E08170283031054CF470
:104730009F5F990F892B8160809399080E94742351
:1047400003C08061809399088091990886950C94A4
:10475000AA038091990880FF1EC0982F9695292F53
:1047600030E02230310594F09158990F8170892BF7
:10477000809399088E7F91E009F490E080919908E8
:1047800090FB80F9809399080E9474238091990886
:1047900086950C94AA03089580919908982F909576
:1047A000917090FB80F980939908992339F0982FA4
:1047B0009E7F21F48170826080939908809199088E
:1047C0000E9474238091990880FF02C0869501C0E1
:1047D00080E00C94AA0390919908892F86958F5FA9
:1047E0008F779170893028F4880F892B80939908EE
:1047F00002C090939908809199088E7F91E009F406
:1048000090E08091990890FB80F9809399080E942C
:1048100074238091990886950C94AA03880F90912F
:1048200099089170892B809399088E7F91E009F403
:1048300090E08091990890FB80F9809399080E94FC
:1048400074238091990886950C94AA03AA1BBB1B1C
:1048500051E107C0AA1FBB1FA617B70710F0A61B80
:10486000B70B881F991F5A95A9F780959095BC01A1
:10487000CD010895EE0FFF1F0590F491E02D0994EE
:104880008F929F92AF92BF92CF92DF92EF92FF9260
:10489000CF93DF93EC01688179818A819B816115D7
:1048A00071058105910521F464E279ED8BE597E0CE
:1048B0002DE133EF41E050E00E94A42749015A0165
:1048C0009B01AC01A7EAB1E40E94C3276B017C0104
:1048D000ACEEB4EFA50194010E94D127DC01CB011D
:1048E0008C0D9D1DAE1DBF1DB7FF03C00197A10913
:1048F000B04888839983AA83BB839F77DF91CF9148
:10490000FF90EF90DF90CF90BF90AF909F908F90EF
:1049100008950E944024089580E091E00E94402480
:104920000895A0E0B0E08093000190930101A0936E
:104930000201B09303010895FB01DC0104C08D91D5
:104940000190801921F441505040C8F7881B990B01
:104950000895AEE0B0E0EFEAF4E20C94E4270D89AC
:104960001E8986E08C831A8309838FEF9FE79E83DD
:104970008D83AE01475E5F4F6F89788DCE010196C2
:104980000E94CB24EF81F885E00FF11F10822E9654
:10499000E4E00C940028ABE0B0E0E1EDF4E20C942C
:1049A000D6276C017B018A01FC0117821682838164
:1049B00081FFCCC1CE0101963C01F6019381F70144
:1049C00093FD859193FF81917F01882309F4BAC1FA
:1049D000853239F493FD859193FF81917F01853272
:1049E00029F4B60190E00E94C226E7CF912C212C39
:1049F000312CFFE1F315D8F08B3279F038F48032A6
:104A000079F08332A1F4232D20611DC08D3261F035
:104A1000803369F4232D216016C0832D8260382EE7
:104A2000E32DE4603E2E2AC0F32DF8601DC037FC54
:104A30002DC020ED280F2A3040F08E32B9F436FC1C
:104A400081C1232D2064322E19C036FE06C08AE0B3
:104A5000989E200D1124922E11C0EAE02E9E200D6A
:104A60001124222EF32DF0623F2E08C08C3621F443
:104A7000832D8068382E02C0883641F4F70193FDFB
:104A8000859193FF81917F018111B3CF982F9F7DF5
:104A90009554933028F40C5F1F4F9FE399830DC00A
:104AA000833631F0833771F0833509F059C021C066
:104AB000F801808189830E5F1F4F88248394912C95
:104AC000530113C02801F2E04F0E511CF801A080E1
:104AD000B18036FE03C0692D70E002C06FEF7FEF3A
:104AE000C5010E94B7264C018201F32DFF773F2EAE
:104AF00016C0280122E0420E511CF801A080B180AE
:104B000036FE03C0692D70E002C06FEF7FEFC50174
:104B10000E94AC264C01F32DF0683F2E820133FC3D
:104B20001BC0822D90E088169906B0F4B60180E291
:104B300090E00E94C2262A94F4CFF50137FC8591BB
:104B400037FE81915F01B60190E00E94C2262110DC
:104B50002A9421E0821A91088114910471F7E8C027
:104B6000843611F0893641F5F80137FE07C06081BF
:104B70007181828193810C5F1F4F08C060817181B8
:104B8000072E000C880B990B0E5F1F4FF32DFF763D
:104B90003F2E97FF09C090958095709561957F4F46
:104BA0008F4F9F4FF0683F2E2AE030E0A3010E9414
:104BB000FE26882E861845C0853731F4232D2F7E9A
:104BC000B22E2AE030E025C0932D997FB92E8F3682
:104BD000C1F018F4883579F0B5C0803719F08837FE
:104BE00021F0B0C0E92FE061BE2EB4FE0DC0FB2D58
:104BF000F460BF2E09C034FE0AC0292F2660B22EF1
:104C000006C028E030E005C020E130E002C020E12D
:104C100032E0F801B7FE07C0608171818281938123
:104C20000C5F1F4F06C06081718180E090E00E5FD5
:104C30001F4FA3010E94FE26882E8618FB2DFF77AA
:104C40003F2E36FE0DC0232D2E7FA22E891458F440
:104C500034FE0BC032FC09C0832D8E7EA82E05C009
:104C6000B82CA32C03C0B82C01C0B92CA4FE0FC0D3
:104C7000FE01E80DF11D8081803321F49A2D997E8B
:104C8000A92E09C0A2FE06C0B394B39404C08A2D15
:104C9000867809F0B394A3FC11C0A0FE06C0B2143C
:104CA00088F4280C922C9B180EC0B21460F4B60144
:104CB00080E290E00E94C226B394F7CFB21418F4B9
:104CC0002B1802C0982C212CA4FE10C0B60180E342
:104CD00090E00E94C226A2FE17C0A1FC03C088E794
:104CE00090E002C088E590E0B6010CC08A2D86787D
:104CF00059F0A1FE02C08BE201C080E2A7FC8DE268
:104D0000B60190E00E94C226891438F4B60180E30F
:104D100090E00E94C2269A94F7CF8A94F301E80D9E
:104D2000F11D8081B60190E00E94C2268110F5CF6E
:104D3000222009F442CEB60180E290E00E94C22611
:104D40002A94F6CFF6018681978102C08FEF9FEFFC
:104D50002B96E2E10C94F227FC0105906150704023
:104D60000110D8F7809590958E0F9F1F0895FC0134
:104D70006150704001900110D8F7809590958E0F8A
:104D80009F1F08950F931F93CF93DF93FB01238100
:104D900021FD03C08FEF9FEF2CC022FF16C046817C
:104DA0005781248135814217530744F4A081B18192
:104DB0009D012F5F3F4F318320838C932681378164
:104DC0002F5F3F4F3783268314C08B01EC01FB011B
:104DD0000084F185E02D0995892BE1F6D80116961E
:104DE0008D919C911797019617969C938E93169789
:104DF000CE01DF91CF911F910F910895FA01AA275B
:104E0000283051F1203181F1E8946F936E7F6E5F0D
:104E10007F4F8F4F9F4FAF4FB1E03ED0B4E03CD0BB
:104E2000670F781F891F9A1FA11D680F791F8A1F9E
:104E3000911DA11D6A0F711D811D911DA11D20D005
:104E400009F468943F912AE0269F11243019305DBF
:104E50003193DEF6CF010895462F4770405D4193B0
:104E6000B3E00FD0C9F7F6CF462F4F70405D4A33FD
:104E700018F0495D31FD4052419302D0A9F7EACFC5
:104E8000B4E0A6959795879577956795BA95C9F7F4
:104E900000976105710508959B01AC010A2E0694E7
:104EA0005795479537952795BA95C9F7620F731FA0
:104EB000841F951FA01D0895F999FECF92BD81BD55
:104EC000F89A992780B50895A6E1B0E044E050E053
:104ED0000C949627A8E1B0E042E050E00C949627AD
:104EE000262FF999FECF92BD81BDF89A019700B4A3
:104EF000021639F01FBA20BD0FB6F894FA9AF99A43
:104F00000FBE08950396272F0E9471270E947027D5
:104F1000252F0E947127242F0C9471270196272F8B
:104F20000E9471270C947027DC01CB01FC01F999D8
:104F3000FECF06C0F2BDE1BDF89A319600B40D92E5
:104F400041505040B8F70895052E97FB1EF4009489
:104F50000E94BB2757FD07D00E940D2807FC03D0F5
:104F60004EF40C94BB2750954095309521953F4FBA
:104F70004F4F5F4F089590958095709561957F4F45
:104F80008F4F9F4F08950E942F28A59F900DB49F8B
:104F9000900DA49F800D911D11240895B7FF0C94CE
:104FA000C3270E94C327821B930B08952F923F9221
:104FB0004F925F926F927F928F929F92AF92BF9229
:104FC000CF92DF92EF92FF920F931F93CF93DF93D5
:104FD000CDB7DEB7CA1BDB0B0FB6F894DEBF0FBE32
:104FE000CDBF09942A88398848885F846E847D847F
:104FF0008C849B84AA84B984C884DF80EE80FD8081
:105000000C811B81AA81B981CE0FD11D0FB6F894F6
:10501000DEBF0FBECDBFED010895A1E21A2EAA1B7F
:10502000BB1BFD010DC0AA1FBB1FEE1FFF1FA21758
:10503000B307E407F50720F0A21BB30BE40BF50B55
:10504000661F771F881F991F1A9469F760957095DE
:10505000809590959B01AC01BD01CF010895A29F61
:10506000B001B39FC001A39F700D811D1124911D3C
:10507000B29F700D811D1124911D0895F894FFCFEA
:1050800001000000BF0101FF010DFC018046FFFF90
:105090007309790A020A7609CE090178730E0104B0
:1050A00001F20E750F580F300F090F1101000000AB
:1050B000A507011E1813120C15BC19C01A41542B58
:1050C000424C45484944434F4E54524F4C4B45592E
:1050D0003D25640A0041542B424C454849444D4FFC
:1050E0005553454D4F56453D25642C25642C25646C
:1050F0002C25640A00425554544F4E3D25640A0045
:1051000041542B424C454B4559424F415244434F29
:1051100044453D0030302D30300A00253032582DC6
:1051200030302D253032582D253032582D25303253
:10513000582D253032582D253032582D25303258F3
:105140000A0041542B464143544F5259524553454E
:10515000540A0041542B424C45484944454E3D3089
:105160000A0041542B424C45484944454E3D310AC2
:105170000041542B4741504445564E414D453D005A
:1051800058696B69692069367820424C4500415462
:105190002B474150474554434F4E4E0A0041542B34
:1051A00047415044454C424F4E44530A0041540A33
:1051B000004154453D300A0041542B47415053545F
:1051C0004152544144560A0041542B4741545441E2
:1051D0004444534552564943453D555549443D364F
:1051E0003135390A0041542B47415454414444431A
:1051F0004841523D555549443D3078324131392C72
:1052000050524F504552544945533D31362C4D492B
:105210004E5F4C454E3D312C56414C55453D390A6B
:105220000041542B424C45504F5745524C45564532
:105230004C3D340A0041542B42415544524154459F
:105240003D37363830300A0041542B4857414443EB
:105250003D360A0041542B47415454434841523D86
:10526000312C25640A0041542B424C45474554508B
:10527000454552414444520A0041542B4741504451
:105280004953434F4E4E4543540A0041542B474126
:1052900050534554414456444154413D30322D30E1
:1052A000312D30360A0041542B474150534554416B
:1052B0004456444154413D30322D30312D30340A72
:1052C0000041545A0A00BDB6B3ADAAA7A4A19D409F
:1052D0004D3639E304960460042704BA03D303EC83
:1052E000030504040A2AA40398036C032A03580044
:1052F00069006B00690069002000690036007800D1
:10530000200028005500530042005F0044004E007A
:1053100031004300290000000A03590044004B00FB
:10532000420000000403090409026D00040100A00A
:10533000FA09040000010301010009211101000123
:105340002240000705810308000109040100010350
:10535000010200092111010001224D00070582030D
:1053600008000109040200010300000009211101E5
:1053700000012236000705830308000A0904030020
:105380000103000000092111010001223900070575
:1053900084031000011201100100000008EDFEA0BE
:1053A0002101000102000105010906A101050719FB
:1053B000E029E71500250195087501810205081906
:1053C0000129059505750191029501750391010566
:1053D000071900297715002501957875018102C00C
:1053E00005010980A101850216010026B7001A01F6
:1053F000002AB700751095018100C0050C0901A1B4
:10540000018503160100269C021A01002A9C0275E0
:105410001095018100C005010902A1010901A10047
:105420000509190129051500250195057501810258
:105430009501750381010501093009311581257F29
:1054400095027508810609381581257F9501750833
:105450008106050C0A38021581257F9501750881A2
:1054600006C0C005010906A101050719E029E715D5
:1054700000250195087501810295017508810105D6
:10548000081901290595057501910295017503918A
:10549000010507190029FF150026FF00950675086C
:0454A0008100C000C7
:10600000C4ADEA40E940E240040005000600070094
:10601000080009000A000B000C000D000E000F0024
:1060200010001100120013001400150016001700D4
:10603000180019001A001B001C001D001E001F0084
:106040002000210022002300240025002600270034
:10605000280000F52A002BAB04F02D002E002F00A5
:1060600030002A003200330034003100360037009F
:1060700038002BAA3A003B003C003D003E003F00A8
:1060800040004100420043004400450046004700F4
:10609000480049004B004E004FA94D004E004F00F4
:1060A0005000510052002AA15400550056005700DC
:1060B000580059005A005B005C005D005E005F0004
:1060C0006000610062006300640076008500670084
:1060D000F450F550F650F750F850F950FA506F0060
:1060E0007000710072007300890087008A008B00C5
:1060F0000100E100E200E0002BAAE500E300F1A1CD
:1061000001000100010001000100010092410100B5
:1061100001000AF40AF60AF801000100010001007A
:10612000010033000100010001000AF001000AF241
:10613000010001000100010001000BFC3A003B00DE
:106140003C003D003E003F00400041004200430053
:1061500028003500B5400BF52C0044004500010037
:106160000100CD40010001000100B6400100010026
:106170000100010001000100010001000100010017
:106180000100010001000100010001000100010007
:106190000100010001000100010001000100E940CF
:1061A000E240EA4001000100530092450100010075
:1061B00001000100010001000100010001000100D7
:1061C00001000100010001000100010001000100C7
:1061D00001000100010001000100010001000100B7
:1061E000010001000100010049000100010001005F
:1061F00001000100010001002B000100010001006D
:1062000011110100010001004C0002F03D004D00A1
:106210004A003E0044003A00490001002D002E00D3
:10622000010033002F00300046003B004E003C00D0
:106230006F4019084B004700704048000100010002
:106240000100010001000100010001000100004700
:1062500034000100640039000100B00001002F0289
:10626000010031000100010001003100310038005F
:106270000100010001000100010001000100010016
:106280000100010001000100010001000100010006
:1062900001000100010001000BFC01000100E4000D
:1062A000E600E7000100010001000100010001001B
:1062B00001000100010001000100010001000100D6
:1062C00001000100010001000100010001000100C6
:1062D00001000100010001000100010001000100B6
:1062E00001000100010001000100010001000100A6
:1062F00001000100010001002BA2010003F00100D8
:106300001500010001000100F2500100FB50F350A4
:10631000F550FA50010001000100010001000100E8
:10632000010001000100F650F450F950F150010055
:106330000100FC50F050F8500100F750010001003E
:106340000100010001000100010001000100FD50F9
:1063500001000100010001000100FE50FF50F45057
:10636000F5500100010001000100010001000100E1
:106370000100010001000100010001000100010015
:106380000100010001000100010001000100010005
:1063900001000100010001000100010001000100F5
:1063A00001000100010001000100010001000100E5
:1063B00001000100010001000100010001000100D5
:1063C00001000100010001000100010001000100C5
:1063D00001000100010001000100010001000100B5
:1063E00001000100010001000100010001000100A5
:1063F00001000100010003F00100010001000100A3
:10640000160001000100010001000100010001006F
:106410000100010001000100010001000100010074
:106420000100010001000100010001000100010064
:106430000100010001000100010001000100010054
:106440000100010001000100010001000100010044
:106450000100010001000100010001000100010034
:106460000100010001000100010001000100010024
:106470000100010001000100010001000100010014
:106480000100010001000100010001000100010004
:1064900001000100010001000100010001000100F4
:1064A00001000100010001000100010001000100E4
:1064B00001000100010001000100010001000100D4
:1064C00001000100010001000100010001000100C4
:1064D00001000100010001000100010001000100B4
:1064E00001000100010001000100010001000100A4
:1064F0000100010001000100010001000100010094
:106500000002010001000100010001000100010082
:106510000100010001000100010001000100010073
:106520000100010001000100010001000100010063
:106530000100010001000100010001000100010053
:106540000100010001000100010001000100010043
:106550000100010001000100010001000100010033
:106560000100010001000100010001000100010023
:106570000100010001000100010001000100010013
:106580000100010001000100010001000100010003
:1065900001000100010001000100010001000100F3
:1065A00001000100010001000100010001000100E3
:1065B00001000100010001000100010001000100D3
:1065C00001000100010001000100010001000100C3
:1065D00001000100010001000100010001000100B3
:1065E00001000100010001000100010001000100A3
:1065F0000100010001000100010001000100010093
:106600000100010001000100010001000100010082
:106610000100010001000100010001000100010072
:106620000100010001000100010001000100010062
:106630000100010001000100010001000100010052
