:100000000C9402010C941F010C941F010C941F010D
:100010000C941F010C941F010C941F010C941F01E0
:100020000C941F010C941F010C94FE120C94D3131A
:100030000C94B4090C941F010C941F010C941F0123
:100040000C941F010C9455040C941F010C941F0177
:100050000C941F010C9405200C941F010C941F019B
:100060000C941F010C944B090C941F010C941F015C
:100070000C941F010C941F010C941F010C941F0180
:100080000C941F010C941F010C941F010C941F0170
:100090000C941F010C941F010C941F010C941F0160
:1000A0000C941F010C941F010C941F01A106AB06B8
:1000B000AB06B406B406C106C106D506D50685084A
:1000C0008E088E088E088E08900890089008930875
:1000D000930893089308930893089608960896083F
:1000E0009608960896089908990899083C145F1490
:1000F0001F155F141F15A414C7141F15E914FC1451
:1001000087178717D517D5175718A218321A321A1A
:10011000CB18321A2A182A18A419B919321A1F1A18
:10012000464780484F4E4D4B454A5251507C4C49B2
:100130004431287D652A302F432E347F3833132DE8
:10014000414227120F377E3640260C0E100D18251F
:100150003E3F241C0B1105233D170A2C19091522BB
:100160003C062108071B161A3B201D7A04141F3A6F
:10017000291E7B7879392B3500000000010101022E
:1001800002030405050607090A0B0C0E0F111214D1
:100190001517191B1D1F212325282A2C2F31343612
:1001A000393B3E414346494C4F5255585A5D616474
:1001B000676A6D707376797C7F8386898C8F929560
:1001C000989B9EA2A5A7AAADB0B3B6B9BCBEC1C448
:1001D000C6C9CBCED0D3D5D7DADCDEE0E2E4E6E8A0
:1001E000EAEBEDEEF0F1F3F4F5F6F8F9FAFAFBFCD0
:1001F000FDFDFEFEFEFFFFFF626200280083150882
:100200007432000011241FBECFEFDAE0DEBFCDBF95
:1002100015E0A0E0B1E0EAE2FEE402C005900D9234
:10022000A432B107D9F728E0A4E2B5E001C01D92DD
:10023000AE3CB207E1F70E94EF0E0C9413270C942A
:100240000000E82FF0E088E0989FE00DF11D1124F8
:10025000E05EFE4F849108950F931F93CF93DF9339
:100260008C01C62FD42F0E945F1FF8019281C130EC
:10027000C1F028F0C43021F1C53051F136C09923C6
:1002800091F09D2F9270D0FD90622D2F24709823B5
:1002900021F080FD02C085E30EC0822349F489E28B
:1002A0000AC0911103C0809124051BC082FF02C0C7
:1002B0008DE301C081E280932405809124050DC067
:1002C000992321F0827289F48CE207C08CE209C084
:1002D000992331F085FD09C082E50E947A1603C09A
:1002E00082E50E94A8160E94991FF8018281882346
:1002F00089F1C330B1F050F4C23061F585E090E08F
:10030000DF91CF911F910F910C94150ECA30D9F047
:10031000CB3001F58D2FDF91CF911F910F910C9470
:10032000BB0E9091E20581E089278093E2059091D0
:100330001D0888E8892780931D08DF91CF911F91C0
:100340000F910C9409048D2FDF91CF911F910F9184
:100350000C947906DF91CF911F910F91089561114F
:1003600007C0FC018281882319F080E09FE5089591
:1003700080E090E008952B9888E5299A000029985C
:100380008150D9F70895CF9324982C9A81E00E9448
:10039000D51F1C9B05C010920601109221012EC092
:1003A000C1E0C09306016A98729A25982D9A85E05B
:1003B0000E94D51F629903C01092210102C0C09310
:1003C00021018091CE089091CF088A3A9B4BB1F4DD
:1003D00080912101882391F0259A2D98559A5D9856
:1003E000549A5C9A8FEF91E12AE781509040204027
:1003F000E1F700C00000CF910C947509CF910895EA
:100400000E94480684B18A6084B9229885B18E60C2
:1004100085B908957F928F929F92AF92BF92CF92AB
:10042000DF92EF92FF920F931F93CF93DF9300D051
:1004300000D01F92CDB7DEB780912605882339F012
:100440001A99BDC01092260581E0809325052B9A4C
:1004500088E5299A000029988150D9F72B98299A84
:100460000000299858E05A95F1F767EDE62E65E00F
:10047000F62E912C78E5872E712C07E215E0AA2440
:10048000A394B12CC12CD12C4C2D1A9903C020E07F
:1004900030E802C020E030E0D8018D919C911197A6
:1004A00096958795822B932B8D939C9380389105FD
:1004B00071F481E0870DBAE0B71540F488E5E7E212
:1004C000F5E0DF011D928A95E9F77AC0782E2B9A24
:1004D000299A00002998B8E0BA95F1F7C5010C2CCB
:1004E00001C0880F0A94EAF7F801208131816091F8
:1004F0000401709105012617370728F0D7019C9158
:10050000892B8C932CC02130B4E03B0740F58095BB
:10051000F70190818923808380912C0187FF19C086
:1005200021303105B1F449839A821B820E94EA1F6F
:100530008160782F9D838C8349815A816B818D8165
:100540000E94AB1E8F3F910520F4CE0101960E94C0
:100550004D16D8018D919C91892B09F48A940E5FD8
:100560001F4FBFEFCB1ADB0AE8E0CE16D10409F02B
:100570008BCF9394FFEFEF1AFF0A5BE0951282CFC7
:10058000811006C00E94BB0181E08093260517C040
:1005900080910E0182FD07C08CE090E090933807B7
:1005A0008093370704C01092380710923707809164
:1005B0002505882321F0109225050E940A0281E07A
:1005C0000F900F900F900F900F90DF91CF911F9190
:1005D0000F91FF90EF90DF90CF90BF90AF909F90E2
:1005E0008F907F900895E82FF0E0E952FA4F8081D4
:1005F0000895CF93C0E00E944A16C81710F4CF5F49
:10060000FACFCF91089580911B018A3030F10E947A
:100610000A02E7E2F5E080E090E021913191232B9E
:1006200039F0282F2F7E2D3211F49C5901C09F5F85
:100630008F5F883591F780912101983C41F48111B9
:100640001AC081E080931B018093200108958111DD
:1006500011C081E091110FC00DC00E94BB018DE05F
:100660008A95F1F7000083B182FB882780F991E039
:100670008927089580E0089580912C0184FD08C0A9
:100680008FEF9FEB909305018093040180E007C0FA
:100690008FEF9BEF909305018093040186E060E06B
:1006A0000C9433178AB1806D8AB98BB18F728BB974
:1006B000E0E0F2E6E491A4EEB5E0EC93E0E0F3E6EE
:1006C000E4911196EC931197E0E0F4E6E491129630
:1006D000EC930895813039F020F0823029F45C9A4F
:1006E00003C05F9A01C05E9A21E030E0A90102C018
:1006F000440F551F8A95E2F7CA019091E305892BB3
:100700008093E3050895813039F020F0823029F498
:100710005C9803C05F9801C05E9821E030E0A901B9
:1007200002C0440F551F8A95E2F7CA018095909147
:10073000E30589238093E3050895EF92FF920F93D9
:100740001F93CF93DF93D82F04EE15E0C0E0E62E81
:10075000F12CDD2331F0F80180818D1B883088F485
:1007600001C08C2F970102C0359527958A95E2F735
:1007700020FF04C08C2F0E946A0303C08C2F0E94AC
:100780008303CF5F0F5F1F4FC33019F7DF91CF9106
:100790001F910F91FF90EF9008956091E30580E025
:1007A0000C949D03CF92DF92FF920F931F93CF93F0
:1007B000DF93F82E04EE15E0C0E0D0E0CC24C39423
:1007C000D12CF80181918F018F110DC02091E3058B
:1007D000C6010C2E01C0880F0A94EAF78227809385
:1007E000E3050E94CD032196C330D10551F7DF9177
:1007F000CF911F910F91FF90DF90CF900895682FB8
:10080000669581E00C949D03682F669589E00C94B1
:100810009D036091E20585E10C949D03682F80E1C2
:100820000E949D030C940904F8943E98E0E9F0E0DE
:1008300080818E778083E1E9F0E080818C7F808306
:100840008FEF90E0909399008093980078940895AA
:100850000C94140490E02091980030919900821734
:10086000930721F090939900809398000895FC01DC
:100870009091CD0890FF18C082818823A9F0892F1C
:100880008E7F8E3039F48091EA058A508A3050F498
:100890008AE008C0803141F48091EA05865F86379E
:1008A00008F086E78093EA0508951F920F920FB62D
:1008B0000F9211242F933F934F935F936F937F93E6
:1008C0008F939F93AF93BF93EF93FF938091E9052D
:1008D00091E08E3740F020913707309138072D3066
:1008E000310508F490E090FF30C09091E8059F5FDB
:1008F000923018F49093E8054BC01092E8052091CF
:100900003707309138072D30310520F0882329F042
:10091000815001C08F5F8093E905E091E905F0E027
:10092000E858FE4FE4918091080120E031E0281B57
:100930003109E29FC001E39F900D112497FF02C08F
:1009400081509F4F892F809521C080917B088823FB
:10095000D9F08091E7051092E7058F3FA9F08091CB
:10096000EA05E82FF0E0E858FE4FE491E093080133
:1009700090910701890F8093EA058F3711F081115B
:1009800003C0919590930701809108010E942A0469
:10099000FF91EF91BF91AF919F918F917F916F9157
:1009A0005F914F913F912F910F900FBE0F901F902D
:1009B00018952BB1362F309523233BB1632B3FB7CE
:1009C000F894FC0185E28150E1F0919148E06BB927
:1009D00097FF2BB9990F000000C02BB9000000C091
:1009E00000C000C000C000C000C000C000C000C007
:1009F00000C000C000C000C000C000C04A9539F768
:100A0000E2CF3FBF0895519A62E00C94D9049D5FF4
:100A1000811524E0920710F09350FACF0895EF92D9
:100A2000FF920F931F93CF93DF9300D000D01F92BC
:100A3000CDB7DEB7062F142F79010E940705492F85
:100A40009430B8F5602F70E0869F9001879F300D3D
:100A50001124832F9927A12FB0E08A9FF0018B9F4B
:100A6000F00D9A9FF00D112420E031E0261B370B8A
:100A70002A9FC0012B9F900D3A9F900D11249C83BB
:100A80009983892F8F0F8D838A831F1B1B83842F4C
:100A900090E0FE01E80FF91F3181FE01E80FF91F18
:100AA0002081FE01E80FF91F8281F70181833083E5
:100AB00022830F900F900F900F900F90DF91CF91A6
:100AC0001F910F91FF90EF9008958AE090E00C94B1
:100AD0003926AB01BC018AE090E00C945726609166
:100AE0000D0170910E0180910F01909110010C94F5
:100AF000690584E2ECE7F8E0DF011D928A95E9F7E9
:100B0000089580911F01882319F0ECE7F8E030C0C8
:100B10008091F90591E08B3740F0209137073091B3
:100B200038072D30310508F490E090FFEECF20918A
:100B30003707309138072D30310568F0843018F0D0
:100B400084508093F905E091F905F0E0E858FE4FF4
:100B5000ACE7B8E002C08C5FF4CF8C919491899F90
:100B6000C00111249D9328E0A03AB207B1F7CDCF80
:100B7000808123E0829FC0011124959587959595EA
:100B80008795819388E0E03AF80791F78CE798E041
:100B90000C94030520910E0122FF15C020EA38E0D5
:100BA0000E940F05ECE7F8E08091A0089091A10861
:100BB000A091A20881939193A19388E0E03AF8076D
:100BC00099F70C94810508950F931F93CF93DF93AA
:100BD000162FD42F0E940705082FC92F80910E01D0
:100BE00082FF23C0887F883029F44D2F612F802F0A
:100BF0000E94CA0500930D01C37080910E018C7F85
:100C0000C82BC0930E0110930F01D0931001609177
:100C10000D0170910E0180910F0190911001DF91F3
:100C2000CF911F910F910C946905DF91CF911F9186
:100C30000F91089590910E0192FD04C0589A109260
:100C4000F90511C087FD04C087311CF080E001C0A8
:100C500086E1880F880F880F90910E019770892B7D
:100C600080930E01589860910D0170910E01809152
:100C70000F01909110010E94690590910E01409121
:100C8000100160910F0180910D0193700C94E405A7
:100C90000E943A22811104C00E941B220E946F050B
:100CA0000E94650560930D0170930E0180930F0102
:100CB0009093100180911001811103C08FE7809300
:100CC0001001509A80910E018695869586950C9418
:100CD0001A06EEE0F1E0808182FB222720F991E004
:100CE000922790FB82F980838695869586950C9451
:100CF0001A06CF92DF92EF92FF920F931F93CF933A
:100D0000DF93D82FE0900D0180910E018370F82EB3
:100D1000C0900F0140911001042FD0FF02C0CFEF0F
:100D200001C0C1E00E945F1F81FDC1958D2F90E041
:100D30008930910508F04CC0FC01EA5AFF4F0C9431
:100D40000F23DF91CF911F910F91FF90EF90DF90D4
:100D5000CF900C94690680910E01869586958695B4
:100D60008C0F0E941A0634C080910D0120910E0153
:100D7000922F93707C0124E1C202E00CF11C11243B
:100D800029C080910F0191E1C90260011124C80EB0
:100D9000D11C2FEFC216D10409F01CF4D7FC27C0D8
:100DA00019C0CC24CA94D12C15C08091100191E1B6
:100DB000C902A00111248A01080F111D0F3F11055E
:100DC00009F01CF417FD16C005C00FEF10E002C0BB
:100DD000D33098F0402F6C2DC701DF91CF911F9138
:100DE0000F91FF90EF90DF90CF900C94E405C12C11
:100DF000D12CF0CF00E010E0EDCFDF91CF911F912B
:100E00000F91FF90EF90DF90CF900895ECE7F8E01E
:100E1000818360834283339698E0E03AF907C1F713
:100E20000C948105FC01909179078081803649F509
:100E300081818B3B21F4CF0103960C946F0B93308F
:100E400019F482810C941A06943021F44381628152
:100E50000C9406079530A9F48C3068F4A82FB0E004
:100E600084819381228111962C9311979C931296E1
:100E70008C930C9481058F3F21F4828193810C9493
:100E80005B1A0895CF93C82FE091F805F0E0E85879
:100E9000FE4F449190910E0160910F0180910D01E0
:100EA00093700E94CA0530910C012091F8053C9F77
:100EB000200D11242093F8052C1738F08C2F90E08A
:100EC000820F911D8F3791051CF0319530930C01E5
:100ED000CF910895CF93C82FEDE0F1E04381628177
:100EE0008091F6059091F7050E94CA058091F6055C
:100EF0009091F70523E0C29F800D911D11240E945F
:100F000007059093F7058093F605CF910895EF922A
:100F1000FF921F93CF93DF93182F169580FD1195A5
:100F20008CE7E82E88E0F82EC0E0D0E08091F40550
:100F30009091F50597014091100160910F018C0F80
:100F40009D1F0E940F05E09623E0E20EF11CC034C5
:100F500082E0D80759F70E9481058091F4059091AD
:100F6000F50520E1129F8019910911240E940705BF
:100F70009093F5058093F405DF91CF911F91FF9039
:100F8000EF900895FF920F931F93CF93DF9390916B
:100F9000F3059F5F282F2695291740F09093F305BE
:100FA000DF91CF911F910F91FF900895C82F10925C
:100FB000F3050E947905C0FF02C0CFEF01C0C1E078
:100FC00000E010E0D0E0F0900B012F2D2D0F27FF57
:100FD00002C0245F03C02C300CF02C50022E000CF9
:100FE000330BC901880F991F280F391F2458374F19
:100FF00080910D0140910E01942F9370409110014A
:1010000060910F01800F911F0E940F05DC0F0E5C95
:101010001F4F083C1105B9F6CF0DCD301CF01092D2
:101020000B0108C0C7FD03C0C0930B0103C08CE0D7
:1010300080930B01DF91CF911F910F91FF900C9442
:1010400081059091F2059F5F891718F09093F20542
:1010500008951092F2050E94790590E020E08091B9
:101060000A01820F8C3098F490E0FC01EE0FFF1F14
:101070008E0F9F1FFC01E458F74F8091A0089091BC
:10108000A108A091A20880839183A28391E02F5FA1
:10109000243029F791110E948105909109018091D6
:1010A0000A01890F80930A018D5F8F30B0F091950E
:1010B000909309018091F0059091F10588960E9426
:1010C00007059093F1058093F00520EA38E0409100
:1010D000100160910F010C940F05089558992DC0CF
:1010E00090910E0192FF28C080913207811124C097
:1010F000892F869586958695E82FF0E0E731F105F2
:10110000E0F4E15AFF4F0C940F23409110016091DD
:101110000F0180910D0193700C94CA050C94420745
:1011200084500C946A0786500C9487078D500C9459
:10113000C20783510C942108589A08958BB18F727D
:101140008BB90E941404589A1092F90508950E94D0
:1011500048060E94CD0380911B01843018F081E085
:1011600080931F010895589918C08091EE059091C1
:10117000EF050E94F61F899780F00E94EA1F909366
:10118000EF058093EE0580911F01882321F0809167
:101190002101811102C00C946E0808958091EC0524
:1011A0009091ED050E94F61F8739910508F457C00C
:1011B0000E94EA1F9093ED058093EC058091EB056A
:1011C0008F5F8093EB05909132079923C1F08430B3
:1011D00008F445C0913011F080E001C083E08093B5
:1011E000EB05379B08C00E941404589A9BB180E11C
:1011F00089278BB90895109232070C94A708809123
:101200001F01882361F158988091EB05813041F4EA
:101210008BB18F7A8BB90E9479050E94810513C02A
:10122000833089F45C9A8091350781115E9A8091B0
:101230003507882319F06FEF40E002C060E04FEF00
:1012400080E00E940607909135078091EB0591118F
:1012500002C0853010F48B3010F01092EB05089529
:101260002091FA058091FB05821759F030E0F901D1
:10127000E450FA4F80812F5F3F4F2093FA0590E0B2
:1012800008958FEF9FEF08959091C80095FFFCCFD0
:101290008093CE0008951F920F920FB60F921124E3
:1012A0002F933F934F938F939F93EF93FF9380914F
:1012B000FB0590E09C012F5F3F4F4091FA054217DC
:1012C00041F03091CE00FC01E450FA4F308320937E
:1012D000FB05FF91EF919F918F914F913F912F913E
:1012E0000F900FBE0F901F9018950E94F5168091D9
:1012F0001B01823050F48FE19EE40197F1F700C0AA
:1013000000000E9485120E948609FFCF9EE088E1BE
:101310000FB6F894A895809360000FBE909360007C
:1013200008958091C4088430E1F081E08093FC0648
:1013300029E488E190E00FB6F894A89580936000C6
:101340000FBE209360000E949E0883B7817F846057
:1013500083BF83B7816083BF7894889583B78E7F7E
:1013600083BF08950C94A7081F920F920FB60F9297
:1013700011248F939F93AF93BF938091FC0681308C
:1013800099F48091220890912308A0912408B091AB
:1013900025088096A11DB11D8093220890932308F3
:1013A000A0932408B0932508BF91AF919F918F918E
:1013B0000F900FBE0F901F901895809117070895FA
:1013C00008950F931F93CF930E94EA1F8C01C0E0F2
:1013D000C8010E94F61F4E9708F50E9430098F3F02
:1013E0002FEF9207C9F0AC0155274D305105A1F000
:1013F0002C2F30E04A30510551F4C23030F0F90161
:10140000E450F94F80818F3449F08FE590E0F90185
:10141000E250F94F8083CF5FC731D0F2EC2FF0E07C
:10142000E250F94F10828EEF96E0CF911F910F910D
:101430000895CF93CAE10E943009019611F0C1507E
:10144000D1F7CF9108950F931F93CF93DF935D99B9
:101450000AC08C010E94190AE8018991882319F0B9
:101460000E944409FACFDF91CF911F910F91089507
:101470009C012F5631092230310528F02A573109B5
:101480002230310560F420911A07211103C02FEF9B
:1014900020931A07909319078093180702C010929F
:1014A0001A0720911B07211116C09F938F938EE37B
:1014B00091E09F938F9383EA98E09F938F930E948C
:1014C0007E230F900F900F900F900F900F9083EA54
:1014D00098E00C94230A0895CF93DF93EC01809158
:1014E0001B07811132C08C81282F082E000C330B72
:1014F0003F938F938B81282F082E000C330B3F9343
:101500008F938A81282F082E000C330B3F938F93E3
:101510008981282F082E000C330B3F938F9386E58B
:1015200091E09F938F9383EA98E09F938F930E941B
:101530007E2383EA98E00E94230A8DB79EB70C961B
:101540000FB6F8949EBF0FBE8DBF80911B0781110F
:101550001FC08881909116078917D1F080931607D4
:101560001F928F9386E791E09F938F9381EB98E092
:101570009F938F930E947E230F900F900F900F9058
:101580000F900F9083EA98E0DF91CF910C94230A9B
:10159000DF91CF9108950E94230A0C94E109CF9323
:1015A000DF93EC0186E90E94D51FCE01DF91CF9138
:1015B0000C94CB0A80911C07882321F010921C0701
:1015C0000C94991F0895CF93DF9320911C0721114C
:1015D00052C020911B0721114EC0EC0181E891E01F
:1015E0000E94230A209731F485E991E0DF91CF91A1
:1015F0000C94230A8F811F928F938E811F928F9359
:101600008D811F928F938C811F928F938B811F925C
:101610008F938A811F928F9388811F928F938CE979
:1016200091E09F938F9383EA98E09F938F930E941A
:101630007E2383EA98E00E94230A80E58A95F1F7E9
:101640008DB79EB742960FB6F8949EBF0FBE8DBF62
:101650008881811110C08A81833531F0893331F05E
:10166000873449F482E103C080E101C081E1DF9168
:10167000CF910C94D203DF91CF91089580E090E058
:101680000C94E30A80911A078823D9F0823020F065
:10169000815080931A0708952091FD062F5F2093B3
:1016A000FD06809118079091190730E04FE451E052
:1016B000481B590B2417350720F01092FD060C9497
:1016C000380A089583EC91E00C94CF0A803319F422
:1016D00084ED91E002C083EE91E00C94CF0ACF93A9
:1016E000DF93EC0182EF91E00E94230ACE010E9479
:1016F000230A8AE991E0DF91CF910C94CF0A81E02F
:1017000092E00C946F0B8FE092E00E94CB0AFC01F8
:10171000808108958EE192E00C94CF0A559A5D98ED
:101720000E94E11FF89487E68093CC001092CD00D0
:101730008091C90080698093C9008091C900886048
:101740008093C9008091CA008093CA008091C8002C
:1017500082608093C80078948EE292E00E94CF0A63
:101760008EE292E00E94CB0AFC018081813421F458
:101770008181843591F505C08F3479F581818B3471
:1017800061F50E94620B8EE292E00E94CF0A82E332
:1017900092E00E94CF0A0E947F0B83EE91E00E94AC
:1017A000CF0A89E392E00E94CF0A0E948A0B89E463
:1017B00092E00E94CF0A86E692E00E94CF0A82EA77
:1017C00092E00E94CF0A86EB92E00E94CF0A10922C
:1017D000CF081092CE080E947509F8948CE080938F
:1017E000CC0078948EE292E00C94CF0ACF93589973
:1017F00003C0882309F4A1C0C82F89EC92E00E949D
:10180000CB0AFC01628180ED860F8A3008F05FC050
:10181000408150E04053510984E6849FD001859F68
:10182000B00D1124818190E0C0974AE0489F90015B
:10183000499F300D11242A0F3B1F260F311D43E015
:10184000220F331F4A95E1F72A5432402C3C40E1E5
:10185000340788F480911D0190911E0183374EE07A
:10186000940709F4C901280F391F3695279530933D
:101870001E0120931D0137990EC081E0809331072E
:1018800080911D0190911E018A55910990931E012E
:1018900080931D0102C01092310720911D013091EB
:1018A0001E0184E0369527958A95E1F72054209310
:1018B0003407223A18F01092320709C0253910F483
:1018C00081E003C02D3918F485E080933207C130E0
:1018D000A1F590913407E7E4F3E08AE521919217AE
:1018E00018F48A50D9F78CE2209132072111822F07
:1018F00020913107820F211103C0923C08F084E649
:1019000080931C011F928F9385ED92E09F938F939C
:1019100083EA98E09F938F930E947E2383EA98E066
:101920000E94CB0A0F900F900F900F900F900F9086
:1019300083EA98E0CF910C94CB0ACF9108953F9819
:10194000479A81E00C94F60BCF939091C40881E004
:10195000943009F080E08093200180912C0187FF72
:101960001CC00E9439158151914059F081E191E0EC
:101970000E9434158091E2058D7F8093E2050E94DC
:10198000090480913607811129C0809120018823A4
:1019900029F180912C018F7707C0943061F09091EC
:1019A0002101992321F0806880932C0117C08CE0DD
:1019B00080931B0113C00E9439158252914071F02F
:1019C00082E291E00E9434158091E205826080936A
:1019D000E2050E94090481E080933607809121018D
:1019E000882309F420C15D9915C10E94190A8091CC
:1019F0001B01823031F481E00E94F60B83E080937A
:101A00001B01C0913007CC2309F446C00E94830B10
:101A1000813309F041C087EE92E00E94CB0AFC01BD
:101A200001900020E9F79F01255131092817390756
:101A300099F5C13081F422E020933007C0931F0153
:101A40001092350721E1FC01ADE1B7E001900D9264
:101A50002A95E1F721C041E150E06DE177E00E9475
:101A60007123892B59F0809130078F5F853090F07A
:101A70001092300781E0809335070EC08AEF92E024
:101A80000E94CB0A80911F018F3018F0109230070E
:101A900003C082E08093300780913C07811199C098
:101AA0008091390790913A070E94F61F893E934032
:101AB00008F48FC00E94EA1F90933A078093390779
:101AC00080913507811105C08091300781112FC0A9
:101AD00008C080912F078F5F80932F078370A1F339
:101AE0003DC00E94830B813321F481E08093350750
:101AF0001CC08033E1F41092350780913B078F5F63
:101B000080933B0790912001911111C090911B018E
:101B1000992369F08A3558F05D9A8091C900877FD2
:101B20008093C90084E080931B0110923B07809151
:101B30001F01882399F0843629F410921F010E9416
:101B4000CD030CC08F5F80931F01843120F48091FE
:101B50003507882319F084E680931F0180912E07B2
:101B60008F5F80932E07877021F4809131070E9448
:101B7000F60B8091200181112CC080911F018111F1
:101B800028C08091370790913807019690933807C5
:101B90008093370720911B01213039F40F9728F0EB
:101BA0000E943E0B82E080931B0180911B018330D9
:101BB00081F480913707909138078832934248F03A
:101BC00084E080931B015D9A8091C900877F809398
:101BD000C900809133078823D9F08C3099F0823185
:101BE00019F487E293E010C0853181F40E948A0BDA
:101BF00080E30E94660B81E30E94660B82E493E01F
:101C00000E94CB0A8CE093E00E94CB0A109233072B
:101C10000E94420B80911B01823028F40E94DA0A54
:101C2000CF910C94CE08CF910895CF93DF93C82F16
:101C30000E945F1FD82F0E94F516C53191F198F4CC
:101C4000CC3061F118F4C530F1F18FC0C23131F1FF
:101C5000C33109F08AC090911B0181E089278093EC
:101C60001B0160E069C0C93109F44CC028F4C631D9
:101C700001F1C83141F079C0CC3B09F460C0C03CEF
:101C800009F461C072C080912101882309F46FC0FA
:101C900090912C01905890932C016AC0C093330707
:101CA00066C0D0FF62C0C093330781E080931F01FC
:101CB0005FC080911F01811102C081E001C084E6F4
:101CC00080931F0154C08D2F837251F0DD7DD13080
:101CD00031F48BE29CEF9093010880930008FFCFD2
:101CE000DC3039F48AEA9BEB9093CF088093CE08DE
:101CF000FFCF82E39FE00E945B1A82E39FE10E9494
:101D00005B1A35C080911C0160E090E00E94671A68
:101D1000D0FF0BC08DE290E00E945B1A60E08091E2
:101D20001D0190911E010E94671A8DE290E00E94B1
:101D30005B1A60E0809135070E94331718C081E07C
:101D40008093300715C080912001811110C05D9AE9
:101D50008091C900877F8093C9008AE080931B012E
:101D6000109235070E94621E02C080E001C081E02F
:101D7000DF91CF910895CF93DF93CDB7DEB7299749
:101D80000FB6F894DEBF0FBECDBF96E0E5E3F1E0FD
:101D9000DE01119601900D929A95E1F720913B0199
:101DA00030913C0140913D012F8338874987282F8E
:101DB00030E08B3018F0ECEFFFEF02C0E1E0F0E034
:101DC000EC0FFD1FE20FF31F808129960FB6F894E8
:101DD000DEBF0FBECDBFDF91CF910C94150ECF9318
:101DE00090E080E80FB6F8948093610090936100D2
:101DF0000FBE0E94C3010E94E012789480912101DD
:101E0000882321F00E948E0B0E949F0CCFEF8091BF
:101E1000C408C150843029F084E00E94D51FC1114C
:101E2000F6CF0E948C150E948609C1E080911B01AB
:101E3000843038F4A895823010F40E9496150E94E0
:101E4000A40C80911B01823040F48091210181110A
:101E5000EDCF8091C408843049F30E9491090E941B
:101E600086090E940303882309F310923807109211
:101E700037070E94A70880912101882389F0C09329
:101E80001B01C0931C075D988091C90083FD03C0AE
:101E900084E60E94D51F8091C90088608093C900A4
:101EA00080913607882311F28091C408853009F0AB
:101EB000BDCF0E946111BACF80914E0708958FEF78
:101EC0009091E800815095FD06C09AE69A95F1F749
:101ED00000C08111F5CF8091E80085FB882780F94B
:101EE00091E089270895CF93DF9300D01F92CDB75B
:101EF000DEB72091C4082430B9F423E029839B8302
:101F00008A832093E9000E945F0F81110DC040E099
:101F100050E063E070E0CE0101960E94761180915E
:101F2000E8008E778093E8000F900F900F90DF917C
:101F3000CF910895CF93DF9300D01F92CDB7DEB736
:101F40002091C4082430C1F422E029839B838A8332
:101F500083E08093E9000E945F0F81110DC040E093
:101F600050E063E070E0CE0101960E94761180910E
:101F7000E8008E778093E8000F900F900F90DF912C
:101F8000CF910895CF93DF932091C4082430A1F41A
:101F9000EC0182E08093E9000E945F0F81110CC088
:101FA00040E050E065E070E0CE010E947611809143
:101FB000E8008E778093E800DF91CF910895CF936A
:101FC000DF93EC019091C4089430B9F580912C0115
:101FD00081718131B9F49093E9008FEF9091E8001D
:101FE000815095FD06C095E19A95F1F700008111A9
:101FF000F5CF8091E80085FF20C040E050E060E12F
:1020000070E00BC081E08093E9000E945F0F8111B6
:1020100014C040E050E068E070E0CE010E9476110C
:102020008091E8008E778093E80080E1FE01AEE3C6
:10203000B7E001900D928A95E1F7DF91CF91089575
:102040008091C308811109C00E9485120E94E0128C
:102050008091E20084608093E20008951092C308AA
:102060000895089542E061EC81E00E941F1242E071
:1020700061EC82E00E941F1242E061EC83E00E946A
:102080001F1242E161EC84E00C941F128091C6089B
:10209000833009F455C030F4813071F0823009F496
:1020A0008EC008958A3009F47AC08B3009F460C07C
:1020B000893009F09CC020C08091C508813A09F0A0
:1020C00096C08091E800877F8093E8008091C908DE
:1020D0009091CA08892B21F460E18EE397E003C058
:1020E00060E080E090E070E00E94C1118091E80023
:1020F0008B778093E80008958091C508813209F0BC
:1021000076C08091C9089091CA08009719F003978A
:1021100009F06DC08091E800877F8093E80080918E
:10212000E80082FD05C08091C4088111F8CF5FC02E
:102130008091F10080934E078091E8008B7753C027
:102140008091C508813A09F052C08091C9089091E8
:10215000CA08892B09F04BC08091E800877F8093E3
:10216000E8008091E80080FFFCCF80912C0136C010
:102170008091C5088132D9F58091C9089091CA082B
:10218000892BA9F58091E800877F8093E8000E9461
:1021900033128091C70880932C010C94F51680911E
:1021A000C508813221F58091E800877F8093E8009F
:1021B0000E9433128091C80880934F070895809140
:1021C000C508813AA1F48091E800877F8093E800F8
:1021D0008091E80080FFFCCF80914F078093F10051
:1021E0008091E8008E778093E8000C943312089574
:1021F00080914E0780933D0710924E0780E00E9429
:102200000E040E944C160C94F5160C94F8100E94C3
:10221000B20980913D0780934E0708950C940711F1
:10222000292F332723303105C1F058F421303105EF
:1022300079F022303105E9F58DE690E029EA33E0C6
:102240003CC021323105C1F02232310511F131C0DB
:1022500082E190E026E134E030C099278330910597
:1022600040F5FC01EE0FFF1FE959FC4F2081318141
:10227000FC01EC59FC4F1AC06430D8F4E62FF0E0B2
:10228000EE0FFF1FE45AFC4F2081318189E090E07E
:1022900014C0643070F470E0FB01EE0FFF1FEC5AC5
:1022A000FC4F20813181FB01E05BFC4F808190E09D
:1022B00004C080E090E020E030E0FA013183208328
:1022C000089519BC82E089BD09B400FEFDCF80915C
:1022D000D8008F7D8093D8008091E0008260809349
:1022E000E0008091E00081FDFCCF0895CF92DF9265
:1022F000EF92FF920F931F93CF93DF93EC018B012B
:102300007A010E945212811133C0E114F10439F0B4
:10231000F70180819181081B190BC80FD91FC12CAF
:10232000D12C0115110519F18091E80085FD16C029
:102330008091E8008E778093E800E114F10449F081
:10234000F70180819181C80ED91ED182C08285E0BB
:102350000FC00E945212882321F30AC089918093F2
:10236000F10001501109FFEFCF1ADF0ADACF80E048
:10237000DF91CF911F910F91FF90EF90DF90CF9061
:1023800008952091CB083091CC082617370748F0E4
:102390006115710539F42091E8002E772093E8004B
:1023A00001C0B901FC0120E06115710579F180914E
:1023B000C4088823F1F18530F1F18091E80083FDB4
:1023C0003CC08091E80082FD2EC08091E80080FF33
:1023D000EBCF2091F3008091F20090E0922B6115F9
:1023E000710551F08830910538F421912093F10066
:1023F000615071090196F3CF21E0089709F020E0C0
:102400008091E8008E778093E800CECF2111CFCF66
:102410000AC08091C408882361F0853061F0809102
:10242000E80083FD0AC08091E80082FFF2CF80E0DF
:10243000089582E0089583E0089581E008958F7003
:102440008093E900EBEEF0E0808181608083EDEE27
:10245000F0E010826093EC0040838091EE00881FD2
:102460008827881F08958091C50887FF11C0809133
:10247000E80082FD05C08091C4088111F8CF11C029
:102480008091E8008B770BC08091C408882349F0C5
:102490008091E80080FFF8CF8091E8008E778093EC
:1024A000E80008952091E4003091E50095E6409120
:1024B000EC00842F817040FF23C08091E80080FDF4
:1024C0001DC08091C408882399F0853099F08091CF
:1024D000EB0085FD11C04091E4005091E500241708
:1024E000350729F3915011F09A01E1CF84E0089566
:1024F00082E0089583E0089581E0089580E00895E2
:102500004091E80042FFDDCF08950E94F1120E9441
:10251000F912E0EEF0E0808181608083E8EDF0E088
:1025200080818F77808319BCA7EDB0E08C918E7F7E
:102530008C9380818F7E80831092C30808950F93BF
:102540001F93CF93DF930E94F1120E94F912C8EDFE
:10255000D0E088818F7788838881806888838881AC
:102560008F7D888319BC1092C4081092C108109204
:10257000C20800EE10E0F80180818B7F80838881A3
:102580008160888342E060E080E00E941F12E1EEFB
:10259000F0E080818E7F8083E2EEF0E080818160D8
:1025A0008083808188608083F80180818E7F808332
:1025B000888180618883DF91CF911F910F91089569
:1025C000E8EDF0E080818F7E8083E7EDF0E08081B0
:1025D0008160808384E082BF81E08093C3080C9493
:1025E0009F12E8EDF0E080818E7F80831092E20000
:1025F00008951092DA001092E10008951F920F9250
:102600000FB60F9211242F933F934F935F936F93C5
:102610007F938F939F93AF93BF93EF93FF9380919B
:10262000E10082FF0BC08091E20082FF07C0809131
:10263000E1008B7F8093E1000E9433158091DA00E6
:1026400080FF1DC08091D80080FF19C08091DA0002
:102650008E7F8093DA008091D90019BC80FF0BC077
:1026600082E089BD09B400FEFDCF81E08093C408FB
:102670000E94201004C01092C4080E942E10809165
:10268000E10080FF19C08091E20080FF15C08091B9
:10269000E2008E7F8093E2008091E200806180936F
:1026A000E2008091D80080628093D80019BC85E058
:1026B0008093C4080E9405118091E10084FF35C019
:1026C0008091E20084FF31C080912001823010F4BB
:1026D0000E94750919BC82E089BD09B400FEFDCFD6
:1026E0008091D8008F7D8093D8008091E1008F7E0B
:1026F0008093E1008091E2008F7E8093E2008091E0
:10270000E20081608093E2008091C108882311F08B
:1027100084E007C08091E30087FD02C081E001C032
:1027200083E08093C4080E940E118091E10083FF32
:1027300029C08091E20083FF25C08091E100877F5E
:102740008093E10082E08093C4081092C1088091D8
:10275000E1008E7F8093E1008091E2008E7F809384
:10276000E2008091E20080618093E20042E060E05C
:1027700080E00E941F128091F00088608093F0003A
:102780000E943110FF91EF91BF91AF919F918F9176
:102790007F916F915F914F913F912F910F900FBE5D
:1027A0000F901F9018951F920F920FB60F92112441
:1027B0002F933F934F935F936F937F938F939F9349
:1027C000AF93BF93CF93DF93EF93FF93C091E90053
:1027D000CF708091EC00D82FD17080FDD0E810929E
:1027E000E9008091F000877F8093F00078940E9448
:1027F00017141092E9008091F00088608093F00037
:10280000CD2BCF70C093E900FF91EF91DF91CF9175
:10281000BF91AF919F918F917F916F915F914F91F8
:102820003F912F910F900FBE0F901F9018951F93FF
:10283000CF93DF9300D0CDB7DEB7E5ECF8E08DECB9
:1028400098E02091F10021938E179F07D1F70E9405
:1028500046108091E80083FFF2C08091C5089091F6
:10286000C608492F50E04A30510508F0E8C0FA0187
:10287000EA58FF4F0C940F23803881F0823809F01A
:10288000DEC08091C9088F708093E9008091EB00D1
:1028900085FB882780F91092E90007C08091C20863
:1028A000882311F082E001C080E09091E800977FDA
:1028B0009093E8008093F1001092F10095C0282FCA
:1028C0002D7F09F0BCC0882319F0823061F0B7C0B9
:1028D0008091C708813009F0B2C0933009F080E0E0
:1028E0008093C2082BC08091C708811127C08091B6
:1028F000C9088F7009F4A3C08093E9002091EB0010
:1029000020FF1CC0933021F48091EB00806214C042
:102910009091EB0090619093EB0021E030E0A901F1
:1029200002C0440F551F8A95E2F74093EA001092C7
:10293000EA008091EB0088608093EB001092E90040
:102940008091E800877F53C0811179C01091C7083A
:102950001F778091E3008078812B8093E300809142
:10296000E800877F8093E8000E9433128091E8009E
:1029700080FFFCCF8091E30080688093E300111119
:1029800002C082E001C083E08093C40858C0805830
:10299000823008F054C0AE014F5F5F4F6091C908AC
:1029A0008091C7089091C8080E941011BC01892B22
:1029B00009F445C09091E800977F9093E8008981E1
:1029C0009A810E94C1118091E8008B778093E80082
:1029D00036C08038A1F58091E800877F8093E800B9
:1029E0008091C1088093F1008091E8008E778093F8
:1029F000E8000E94331223C0811121C08091C708D2
:102A00009091C80899270297D4F48091E800877FB5
:102A10008093E8008091C7088093C1080E94331218
:102A20008091C108811106C08091E30087FD02C03A
:102A300081E001C084E08093C4080E94321080913C
:102A4000E80083FF0AC08091E800877F8093E80058
:102A50008091EB0080628093EB000F900F90DF91EC
:102A6000CF911F910895089590935507809354072F
:102A7000089580915407909155070895E091540767
:102A8000F0915507309721F00190F081E02D0994E5
:102A900080E00895E0915407F0915507309721F0B8
:102AA0000280F381E02D09940895E0915407F0919C
:102AB0005507309721F00480F581E02D09940895A1
:102AC00020915207309153072817390771F09093DE
:102AD000530780935207E0915407F09155073097C0
:102AE00021F00680F781E02D099408952091500788
:102AF000309151072817390771F09093510780934F
:102B00005007E0915407F0915507309721F0008469
:102B1000F185E02D099408950E94E11F0E940002B2
:102B20000E9452030E9409220C944E22BF92CF921F
:102B3000DF92EF92FF920F931F93CF93DF9300D01A
:102B400000D01F92CDB7DEB70E940A020EE617E052
:102B5000F12C8F2D0E94F302B82EF801C080C826F8
:102B600039F4F3940F5F1F4FFBE0FF12F2CF2AC03E
:102B70008091210881FD0E94F902D12CEE24E3947A
:102B80008C2D8E21C9F0D982FA8291E08B2D8E2175
:102B900009F490E09B830E94EA1F81609D838C83EF
:102BA000CE0101960E944D16CE0101960E94370477
:102BB000F80180818E258083D394EE0CF8E0DF123B
:102BC000DFCFCFCF80E090E00E944D160E94B30887
:102BD0000E94032180917907882389F080916C07F6
:102BE00090916D070E94F61F8C34910540F0109271
:102BF0006B0787E597E00E941207109279070E9401
:102C00003E15909156078917A1F10E943E158093B9
:102C1000560784FF2CC0E0917907F0E0E95AF84F9D
:102C20009081990F990F8370892B80830E94EA1FEE
:102C300090936D0780936C0780916B078F5F8093F3
:102C40006B078430B0F080915707803641F4809153
:102C50007907823020F487E490E00E945B1A10929A
:102C60006B07809179078F5F8093790702C00E947C
:102C7000D31F0F900F900F900F900F90DF91CF9177
:102C80001F910F91FF90EF90DF90CF90BF9008952C
:102C90000C940E048BE008950895CF93DF9300D039
:102CA00000D000D0CDB7DEB7FC01892B39F40E94EB
:102CB000EA1F816060E05FEF4FEF05C04081518106
:102CC000628183819481FE01319626E0DF011D92AD
:102CD0002A95E9F7782F9D838C838D819E810E94B0
:102CE000251D26960FB6F894DEBF0FBECDBFDF912F
:102CF000CF910895CF93882349F1803B29F488EF41
:102D000091E0CF910C94D31DC82F8CEF8C0F813A9A
:102D100020F080E58C0F8E3250F48C2F0E94CB2156
:102D2000811114C061E08C2F0E94141F0CC080E23E
:102D30008C0F883058F4C77081E001C0880FCA95A5
:102D4000EAF70E94621FCF910C94991FCF910895CA
:102D5000882351F19CEF980F913A20F090E5980F5D
:102D60009E3220F460E00E94141F0DC090E2980F84
:102D7000983058F4877091E001C0990F8A95EAF76E
:102D8000892F0E94681F0C94991F9BE5980F933020
:102D900020F480E090E00C946015885A873120F48C
:102DA00080E090E00C9476150895882321F00E942D
:102DB000621F0C94991F0895882321F00E94681FB8
:102DC0000C94991F08950E947F1F0E94551F0E9416
:102DD000991F0E94BF210E94F82080E090E00E948D
:102DE000601580E090E00C9476150E946F1F0C94A3
:102DF000E316CF93DF9300D000D01F92CDB7DEB79C
:102E00000E94AB1E292F22952F702C3030F42A30CF
:102E1000A0F42250223030F01DC02C30A9F02F3009
:102E200099F018C0853A28F4843090F4823028F460
:102E30000FC090E2980F983058F0843058F0853ADF
:102E400038F0803F39F404C093FB882780F903C031
:102E500081E001C080E00F900F900F900F900F90D5
:102E6000DF91CF910895811101C08AE0662311F0AE
:102E7000885A01C0835E90E00C945B1ACF92DF9277
:102E8000EF92FF920F931F93CF93DF9300D000D068
:102E90001F92CDB7DEB76C0185E0F601DE01119619
:102EA00001900D928A95E1F7F601238134818981A1
:102EB0009A812115310531F09F3F31F491E08F3F28
:102EC00019F403C091E001C090E090FDCBC2F6017F
:102ED000F280058102950F702230310561F0722F6A
:102EE0003D832C8349815A816F2D8D810E94AB1EB9
:102EF000E82E192F02C0E9801A81E12FE295EF70C8
:102F00008E2F90E0FC01E058FF4F0C940F23812F8F
:102F1000807F1F70882311F01295107FFF2021F110
:102F20000E945F1F812390911E08892B80931E08A9
:102F3000112351F0EE2019F081E080931C08812FBD
:102F40000E94721F0E94991F8E2D0F900F900F905C
:102F50000F900F90DF91CF911F910F91FF90EF9005
:102F6000DF90CF900C947A1690911E08812F809557
:102F7000892380931E0810921C088E2D0E94A8168B
:102F8000112309F46FC2812F0E94781F0F900F90B8
:102F90000F900F900F90DF91CF911F910F91FF90A5
:102FA000EF90DF90CF900C94991F812F807F1F703E
:102FB000803211F01295107FEE2021F0F1E0EF1633
:102FC000F9F028C0FF20A1F0812F002349F1013042
:102FD00039F50F900F900F900F900F90DF91CF91D8
:102FE0001F910F91FF90EF90DF90CF900C94821F74
:102FF000002319F0013009F435C20E94851F55C025
:10300000FF20E9F0043008F02DC20E945F1F8123E9
:1030100031F04BC0FF2009F446C0011114C0812FCC
:103020000F900F900F900F900F90DF91CF911F9105
:103030000F91FF90EF90DF90CF900C94D516033056
:1030400008F010C232C0F601858180FF16C08F7073
:103050008583E5CFF0EFEF1609F4E8C0FE1508F41C
:10306000C4C020EEE21608F0C5C0FF2009F438C144
:10307000002309F427C113FD21C18E2D0E947A1669
:10308000F9E3EF12EFC182E30F900F900F900F90D2
:103090000F90DF91CF911F910F91FF90EF90DF90F4
:1030A000CF900C94D51F011123C1812FB0C0812F67
:1030B00086958695837019F08130C1F0D3C1FF20C9
:1030C00021F08E2D912F937002C080E090E00F9040
:1030D0000F900F900F900F90DF91CF911F910F9154
:1030E000FF90EF90DF90CF900C947615FF20C9F001
:1030F0008E2D912F9370811523E09207A4F08DEF10
:1031000091E00E94D31D60E08E2D82958F700E9409
:10311000331760E08E2D8F700E9433178BEF91E094
:1031200019C180E090E00F900F900F900F900F90DA
:10313000DF91CF911F910F91FF90EF90DF90CF9093
:103140000C9460158E2DFF2089F00E9443200E9470
:10315000F82085E48E1508F485C1EE2DF0E0E45DDD
:10316000F74F81E0808380932B087CC10E949120DF
:103170000E94F820E5E4EE1508F474C12E2D30E02D
:10318000F901E45DF74F1082EE2011F0C901CCC0C7
:1031900084EF90E5C9C0F11065C19E2D9F70892F05
:1031A000E294E69427E0E22211F420E001C024E05A
:1031B00001C0880F2A95EAF7212F237011F460E0EF
:1031C00005C01C7061E0183009F456C00F900F90D4
:1031D0000F900F900F90DF91CF911F910F91FF9063
:1031E000EF90DF90CF900C944D1E81EFE81609F41C
:1031F00052C03BCF0E2D0F70812F8F71FF2021F019
:103200000E94821E802F0CCF0E94931E802F0F9051
:103210000F900F900F900F90DF91CF911F910F9112
:10322000FF90EF90DF90CF900C94DC16FF20A1F080
:10323000033008F017C1812F8F710F900F900F90FE
:103240000F900F90DF91CF911F910F91FF90EF9012
:10325000DF90CF900C94821E043008F003C11F71E0
:10326000812F0E94931E033009F0FCC061E081E0D1
:1032700001C0880F1A95EAF70F900F900F900F90EA
:103280000F90DF91CF911F910F91FF90EF90DF9002
:10329000CF900C94A31EF110CECF812F8F710F9081
:1032A0000F900F900F900F90DF91CF911F910F9182
:1032B000FF90EF90DF90CF900C94931EF6018581E4
:1032C00080FFDBCE012F0770802F0E94821E14FF2B
:1032D000C9C069817A81802F0E942B2061E025C0BE
:1032E0000023B1F013FF04C0F601858180FD10C0FA
:1032F0008E2D0F900F900F900F900F90DF91CF9128
:103300001F910F91FF90EF90DF90CF900C94A81633
:10331000012F0770802F0E94931E14FFA3C06981A4
:103320007A81802F0E942B2060E00F900F900F90E9
:103330000F900F90DF91CF911F910F91FF90EF9021
:10334000DF90CF900C94401A412F4F706E2DC60124
:103350000E94AF010F900F900F900F900F90DF9190
:10336000CF911F910F91FF90EF90DF90CF900C9431
:10337000D31DF11077C0EE2041F0812F8F70843083
:1033800021F0107F9E2D9F70192B1F701230C9F1F4
:10339000A0F4112339F1113009F064C00F900F909F
:1033A0000F900F900F90DF91CF911F910F91FF9091
:1033B000EF90DF90CF900C947E22133089F114307F
:1033C00009F050C08E2D0F900F900F900F900F901E
:1033D000DF91CF911F910F91FF90EF90DF90CF90F1
:1033E0000C94E3220F900F900F900F900F90DF91AD
:1033F000CF911F910F91FF90EF90DF90CF900C94A1
:1034000063220F900F900F900F900F90DF91CF914C
:103410001F910F91FF90EF90DF90CF900C94A1221D
:103420000F900F900F900F900F90DF91CF911F9101
:103430000F91FF90EF90DF90CF900C94C022412F1E
:103440004F706E2DC6010F900F900F900F900F9040
:10345000DF91CF911F910F91FF90EF90DF90CF9070
:103460000C942C010F900F900F900F900F90DF9104
:10347000CF911F910F91FF90EF90DF90CF90089523
:10348000CF93DF9300D000D000D0CDB7DEB78983D3
:103490009A836B8382E090E09D838C83CE010196BA
:1034A0000E943E1726960FB6F894DEBF0FBECDBF22
:1034B000DF91CF910895CF93DF93EC0161E00E94FB
:1034C000401A60E0CE01DF91CF910C94401ABF9278
:1034D000CF92DF92EF92FF920F931F93CF93DF93E0
:1034E0006C01B62EC5E0D0E000E117E28AE0E82EDC
:1034F000F12CC601B8010E94FB22CB01009731F0EC
:10350000B7010E94FB226B2D0E943317C801B7013F
:103510000E94FB228B01219761F7DF91CF911F91D0
:103520000F91FF90EF90DF90CF90BF900895CF93D1
:10353000DF9300D000D01F92CDB7DEB70F900F9071
:103540000F900F900F90DF91CF910895CF93DF935D
:1035500000D000D000D0CDB7DEB726960FB6F894D5
:10356000DEBF0FBECDBFDF91CF9108951F93CF93E4
:10357000DF93C0917A0716E080917B07C81799F016
:10358000D0E01C9FF0011D9FF00D1124E458F84F6E
:103590004081518162817381848195810E94A61A44
:1035A0002196C770E9CFDF91CF911F910895409187
:1035B000AC075091AD076091AE077091AF07809155
:1035C000B0079091B1070C94A61A0F931F93CF9355
:1035D000DF938091B10782958F7009F05DC0809173
:1035E000AE07882309F458C080917A0710917B07B1
:1035F0006091AC077091AD07C091AF07D091B00753
:1036000091E06F3F09F090E0292F06E0811709F45F
:1036100043C0209721F07F3F21F030E003C031E02C
:1036200001C0322F90E030FD34C0089FF001099FA7
:10363000F00D1124DF01A458B84F11963C91119759
:10364000371327C03C91361324C012963C91129731
:1036500031111FC013964D915C9114974C1B5D0B5B
:10366000483C5105B0F48091B1078F708061809320
:10367000B107EF57F84F80818F70806180838CEAAB
:1036800097E00E943E17DF91CF911F910F910C940C
:10369000B61A01968770BACFDF91CF911F910F9123
:1036A00008959F92AF92BF92CF92DF92EF92FF92D6
:1036B0000F931F93CF93DF93CDB7DEB761970FB60C
:1036C000F894DEBF0FBECDBF8C0185E0F801DE01AE
:1036D0001D9601900D928A95E1F7F8014081518184
:1036E000F280C380D4809091AC076091AD072091A7
:1036F000AF073091B0072115310531F06F3F31F43C
:1037000081E09F3F19F403C081E001C080E0F82F01
:10371000F1709F2E80FD52C18CEAA82E87E0B82E52
:10372000E090AE07F601E21BF30BEE2009F4E8C0CF
:103730008091B107E83CF10508F0A4C0282F207F54
:1037400009F053C0561313C0491311C0EF2CF110E8
:103750000EC08F7080618093B1070E94D71AC50197
:103760000E943E178091B107F80185835BC1C114A7
:10377000D10431F05F3F31F481E04F3F19F403C0D1
:1037800081E001C080E080FD03C081E08F2502C0A0
:1037900080E090E0F82FF170EF2E80FF1CC0809148
:1037A0007A0720917B0736E0821709F418C190E070
:1037B000389FF001399FF00D1124E458F84F6181D2
:1037C000561306C06081461303C06281F61203C01F
:1037D00001968770E9CFEF2CFF2009F423C1809177
:1037E000B10781608093B10762C0561306C04913C8
:1037F00004C0F11002C0F801A7C04D875E87FF86A4
:103800007C2DD98AC88A6F2D89890E94F916882350
:1038100099F1FF2089F12091B107822F82958F7055
:1038200090E0029774F08091AC079091AD07988773
:103830008F831986DB86CA862C87CE0107960E9465
:103840003E1786E0F801ACEAB7E001900D928A9548
:10385000E1F70E94E51A0E94D71A11C0561749F1E4
:103860004D875E87FF867C2DD98AC88A6F2D89890E
:103870000E94F91681112CC0C8010E943E17EE2447
:10388000E394D0C0282F207F49F77C2DD98AC88A9D
:103890006F2D89890E94971A8CEA97E00E943E1743
:1038A00086E0F50111928A95E9F70E94D71AE12C7A
:1038B000B9C04913D5CFF110D3CFF8018583C80122
:1038C0000E943E1786E0F50111928A95E9F7AAC099
:1038D000FF2091F22091B107822F82958F7090E0A6
:1038E00002970CF4AECF8091AC079091AD079A830C
:1038F00089831B82DD82CC822E83CE0101969FCFED
:10390000E83CF10508F04BC0EF2CFF2009F4B4CFE0
:10391000561330C049132EC02091B10720FD21C09D
:10392000822F82958F70482F50E041155105C9F0C4
:10393000F80125834F30510541F08F5F982F929504
:10394000907F822F8F70892B8583C8010E943E173C
:1039500086E0F801ACEAB7E001900D928A95E1F7B4
:103960002AC086E0F801ACEAB7E001900D928A9592
:10397000E1F758C04D875E87FF867C2DD98AC88ABB
:103980006F2D89890E94F91681115BCF8091B10753
:1039900081608093B107C8010E943E1743C07C2D0F
:1039A000D98AC88A6F2D89890E94971A86E0F50105
:1039B00011928A95E9F70E94D71A34C0FF2009F4C2
:1039C0005BCF4D875E87FF867C2DD98AC88A6F2D95
:1039D00089890E94F916882309F44ECF32CF7C2DB5
:1039E000D98AC88A6F2D89890E94AB1E292F2295FA
:1039F0002F70223028F49F7039F0811105C00BC060
:103A0000243028F49F7049F4805E883020F0C8018B
:103A10000E943E179E2CE92C05C0F8019581907FED
:103A200099F7F9CF8E2D61960FB6F894DEBF0FBED1
:103A3000CDBFDF91CF911F910F91FF90EF90DF905D
:103A4000CF90BF90AF909F9008951F93CF93DF9337
:103A5000CDB7DEB72C970FB6F894DEBF0FBECDBF43
:103A60004F83588769877A878B879C87CE01079613
:103A70000E94511B8823D1F09F8188852A853B8530
:103A8000232B31F08F3F31F481E09F3F19F403C0C5
:103A900081E001C080E080FD47C04F815885698585
:103AA0007A858B859C850E94A61A3EC086E0FE0121
:103AB0003796DE01119601900D928A95E1F7FF810C
:103AC000E8856A857B856115710531F0EF3F31F43A
:103AD00081E0FF3F19F403C081E001C080E080FD78
:103AE00023C020917B0730E0C90101968770992798
:103AF00040917A0750E084179507F1F1F983EA8342
:103B00007D836C8396E0929FD001939FB00D11242A
:103B1000A458B84FFE01319601900D929A95E1F7A5
:103B200080937B070E94B61A16E080917A079091E5
:103B30007B07891771F1189FC00111248458984F91
:103B40000E94511B882329F1E0917A071E9FF00102
:103B50001124E458F84F408151816281738184813E
:103B600095810E94A61A80917A0790E0019687704D
:103B7000992780937A07D9CF0E94F51610927B0778
:103B800010927A07ECEAF7E086E0DF011D928A9551
:103B9000E9F72C960FB6F894DEBF0FBECDBFDF91CC
:103BA000CF911F910895CF92DF92EF92FF921F93D2
:103BB000CF93DF937C010E94DA0AE114F10409F447
:103BC00064C0E7012196F7011491193709F43EC04A
:103BD000B8F4143740F4143008F052C08FEF810F5E
:103BE0008230F8F052C0143709F04FC0F2E0EF0E07
:103BF000F11CFE0184910E94D51FE7017E01E1CFF7
:103C0000133828F4113868F4103801F13EC0133825
:103C1000B9F0143F08F039C01F77812F90E092600F
:103C200031C0FE0185919491612F6170E7011330DD
:103C300018F42296992701C023960E94401ADECFDD
:103C4000FE0185919491E70123961CC0FE01C59069
:103C5000D490E701239684E00E94D516103841F4F1
:103C600061E081E00E943317F0EACF1AF6E8DF0A3C
:103C700061E0C6010E94671A84E00E94DC16BECF94
:103C8000812F90E00E945B1AB9CFDF91CF911F91F5
:103C9000FF90EF90DF90CF900895E62FF0E0E35D86
:103CA000FE4F8083611105C080912D010E940404A4
:103CB00007C090912E0180912F01892B0E94FF0354
:103CC0000C94E31662E080E00C944D1E21E030E09D
:103CD000A90102C0440F551F8A95E2F7CA019091CD
:103CE0002F0162E0892B0C944D1E21E030E001C0D1
:103CF000220F8A95EAF7209580912F0162E08223B6
:103D00000C944D1E90913001981306C090910A08B2
:103D10009F5F90930A0805C091E090930A088093F2
:103D200030010C94661E9091300198130AC0909156
:103D30000A08915090930A08911103C093E690935A
:103D400030010C94751EE62FF0E0E35DFE4F90818C
:103D500089270C944D1EAF92BF92DF92EF92FF9293
:103D60000F931F93CF93DF9300D000D01F92CDB756
:103D7000DEB78A016623C9F1A0902D0180912E0142
:103D8000A82A80912F01A82A80913001883028F03C
:103D900087E0E82EF12CB12C08C0BA010E942B203C
:103DA0000197B1F3D090300116C0DE2CC5010E2C66
:103DB00002C0959587950A94E2F780FD06C081E0E0
:103DC000E81AF10891F7D12C06C0B8018E2D0E9497
:103DD0002B200197A1F388E0189FF0011124EE54E5
:103DE000F84FE00FF11DD08209C088E0189FF00164
:103DF0001124EE54F84FE40FF11DD08009831A838B
:103E000069817A818D2D0E942B200F900F900F9049
:103E10000F900F90DF91CF911F910F91FF90EF9036
:103E2000DF90BF90AF90089590912C0191799131DE
:103E3000F1F4382F3695369536953F30A8F5E09158
:103E40003101F0913201282F277081E090E001C00C
:103E5000880F2A95EAF7E30FF11D662319F0918187
:103E6000892B03C0809591818923818308952091B6
:103E7000310130913201F90171964FEF9EE052917C
:103E8000552331F0851305C061110EC0108201C0A9
:103E9000492F9150A0F7662339F0F901E40FF11D85
:103EA00047FDFA95828308950895E0913101F091DC
:103EB000320180E1DF011D928A95E9F70895809132
:103EC0002008089590912008892B80932008089558
:103ED000809590912008892380932008089510925E
:103EE0002008089590911F08892B80931F0808953A
:103EF000809590911F08892380931F080895109240
:103F00001F08089580930B08089510920B080895D8
:103F10008091310190913201FC0131969C01205F2A
:103F20003F4F80E0919191118F5FE217F307D1F736
:103F30000895E0913101F091320180912008808351
:103F4000E0913101F0913201908180911F08892B1D
:103F50008083E0913101F091320180911E088095BB
:103F6000908189238083E0913101F0913201809129
:103F70001D08809590818923808380910B08882378
:103F800061F0E0913101F09132019081892B8083C1
:103F90000E94881F811110920B088091310190912D
:103FA00032010C944A150C944816882341F0EFE92D
:103FB000FFE03197F1F700C000008150F6CFA895DF
:103FC000089582E084BD93E095BD9DE797BD809301
:103FD0006E0008952FB7F8948091220890912308DD
:103FE000A0912408B09125082FBF08959C014FB7D8
:103FF000F8948091220890912308A0912408B09110
:1040000025084FBF821B930B089578941F920F923F
:104010000FB60F9211248F939F93AF93BF9380910C
:10402000220890912308A0912408B09125080196B8
:10403000A11DB11D8093220890932308A09324080A
:10404000B0932508BF91AF919F918F910F900FBEB4
:104050000F901F901895CF93C82FCB010E9421017C
:10406000803819F480E090E00CC0EC2FF0E0FE2FD7
:10407000EE27E050F04AE80FF11DE80FF11D8591A1
:104080009491CF910895803F08F44AC0803F11F485
:104090009FEF03C0813F21F491E0909377083BC0EC
:1040A000823F11F49FEF03C0833F21F491E090938E
:1040B000760831C0893F70F421E030E09CE0980F31
:1040C00001C0220F9A95EAF790917508292B209349
:1040D000750821C0893F11F491E003C08A3F21F4A3
:1040E0009FEF9093780817C08B3F11F49FEF03C0A8
:1040F0008C3F21F491E0909379080DC021E030E0ED
:1041000093E0980F01C0220F9A95EAF790917208F8
:10411000292B20937208895F843010F41092730861
:104120000895803F08F463C0803F39F48091770898
:1041300087FF5DC0109277080895813F29F4809130
:1041400077081816BCF30895823F39F480917608F9
:1041500087FF4DC0109276080895833F29F480911F
:1041600076081816BCF30895893F88F4845F21E02F
:1041700030E0A90102C0440F551F8A95E2F7CA0139
:104180008095909175088923809375080895893FDB
:1041900039F480917808181654F51092780808952B
:1041A0008A3F29F48091780887FF21C0F6CF8B3FA2
:1041B00039F48091790887FF1AC010927908089520
:1041C0008C3F29F4809179081816BCF308958D5F0F
:1041D00021E030E0A90102C0440F551F8A95E2F7A3
:1041E000CA0180959091720889238093720808957E
:1041F00085E798E00E9455150E94EA1F90932808D1
:104200008093270808950F931F93CF93DF93809196
:104210002B088823D9F18091290890912A080E94BF
:10422000F61F2091340130E02817390778F50E94F5
:1042300061238F70825E809334010CE218E0C0E04D
:10424000D0E090E0F80181918F01882369F0CC23C0
:1042500019F08C2F9D2F02C084EF90E560913301FF
:1042600070E00E94401A91E02196C634D10551F7C2
:104270002091330181E082278093330190932B08B2
:104280000E94EA1F90932A088093290880912708AA
:10429000909128080E94F61FAC019091740892300A
:1042A00019F028E230E002C025E030E04217530761
:1042B00008F460C0D0917808C09179082091760800
:1042C00080917708822B8D2B8C2B19F41092740817
:1042D00051C0923020F49F5F909374084BC080913E
:1042E00073088F5F809373088F7021F010927808A5
:1042F000109279080E94F820D0937808C09379082A
:10430000809126088F5F809326088D3098F18091E8
:104310002C0187FD02C080E001C085E08093260863
:1043200090917208292F220F220F290FE5E7F8E05C
:104330003CEE44E181818823C1F0992349F01816AD
:1043400014F08FEF01C081E0829F802D11240AC0FC
:1043500018162CF48F5F85312CF0418306C08150F4
:104360008C3E14F0818301C03183319688E0E937B7
:10437000F80701F7DF91CF911F910F910895E5E7BD
:10438000F8E085E0DF011D928A95E9F71092720846
:10439000089580E00895CF9390911C08911135C045
:1043A000C82F80917A08882319F0813051F02AC0F3
:1043B000E0913101F091320180818252823030F5FA
:1043C00008C0E0913101F091320180818252823047
:1043D000A0F48C2F0E94150E81110AC0C13151F436
:1043E0000E943C0390912C0180E1892780932C014D
:1043F00091E001C090E0917009C08C2F0E94C9210A
:1044000091E004C010927A0801C090E0892FCF910A
:104410000895E1E8F0E08081886080838081816098
:1044200080838FB7F8949AE79093890092E19093F4
:1044300088008FBF08956DEE7EEF80E090E00E94CF
:10444000632660E082E090E00E94452660E083E021
:1044500090E00E94452660E084E090E00E944526BE
:1044600060E085E090E00E94452660E086E090E014
:104470000C94452680E090E00E943F2621E08D3E8E
:104480009E4F09F020E0822F089586E090E00C9482
:104490003126682F86E090E00C9445260E943A224F
:1044A000811102C00E941B220E9445228093CD08E8
:1044B000811102C081E005C080FF02C0869501C065
:1044C00080E00C9428048091CD08982F9695292F90
:1044D00030E08170283031054CF49F5F990F892BB3
:1044E00081608093CD080E94492203C0806180933F
:1044F000CD088091CD0886950C9428048091CD0834
:1045000080FF1EC0982F9695292F30E0223031056C
:1045100094F09158990F8170892B8093CD088E7FEC
:1045200091E009F490E08091CD0890FB80F98093B0
:10453000CD080E9449228091CD0886950C942804CC
:1045400008958091CD08982F9095917090FB80F9F7
:104550008093CD08992339F0982F9E7F21F48170A4
:1045600082608093CD088091CD080E94492280917D
:10457000CD0880FF02C0869501C080E00C9428041D
:104580009091CD08892F86958F5F8F7791708930B4
:1045900028F4880F892B8093CD0802C09093CD0812
:1045A0008091CD088E7F91E009F490E08091CD0854
:1045B00090FB80F98093CD080E9449228091CD081C
:1045C00086950C942804880F9091CD089170892BC2
:1045D0008093CD088E7F91E009F490E08091CD0822
:1045E00090FB80F98093CD080E9449228091CD08EC
:1045F00086950C942804AA1BBB1B51E107C0AA1F77
:10460000BB1FA617B70710F0A61BB70B881F991F73
:104610005A95A9F780959095BC01CD010895EE0FAC
:10462000FF1F0590F491E02D09948F929F92AF9215
:10463000BF92CF92DF92EF92FF92CF93DF93EC0184
:10464000688179818A819B81611571058105910558
:1046500021F464E279ED8BE597E02DE133EF41E061
:1046600050E00E94792649015A019B01AC01A7EA5A
:10467000B1E40E9498266B017C01ACEEB4EFA50179
:1046800094010E94A626DC01CB018C0D9D1DAE1D60
:10469000BF1DB7FF03C00197A109B0488883998364
:1046A000AA83BB839F77DF91CF91FF90EF90DF903C
:1046B000CF90BF90AF909F908F9008950E94152348
:1046C000089580E091E00E9415230895A0E0B0E0F5
:1046D0008093000190930101A0930201B093030124
:1046E0000895FB01DC0104C08D910190801921F433
:1046F00041505040C8F7881B990B0895AEE0B0E0D8
:10470000E4E8F3E20C94B9260D891E8986E08C83D7
:104710001A8309838FEF9FE79E838D83AE01475EE7
:104720005F4F6F89788DCE0101960E94A023EF81A3
:10473000F885E00FF11F10822E96E4E00C94D52648
:10474000ABE0B0E0E6EAF3E20C94AB266C017B014F
:104750008A01FC0117821682838181FFCCC1CE01C0
:1047600001963C01F6019381F70193FD859193FF3A
:1047700081917F01882309F4BAC1853239F493FD10
:10478000859193FF81917F01853229F4B60190E0F4
:104790000E949725E7CF912C212C312CFFE1F315B6
:1047A000D8F08B3279F038F4803279F08332A1F48A
:1047B000232D20611DC08D3261F0803369F4232DDB
:1047C000216016C0832D8260382EE32DE4603E2EDA
:1047D0002AC0F32DF8601DC037FC2DC020ED280F36
:1047E0002A3040F08E32B9F436FC81C1232D20648A
:1047F000322E19C036FE06C08AE0989E200D112484
:10480000922E11C0EAE02E9E200D1124222EF32DAF
:10481000F0623F2E08C08C3621F4832D8068382E3C
:1048200002C0883641F4F70193FD859193FF819191
:104830007F018111B3CF982F9F7D9554933028F439
:104840000C5F1F4F9FE399830DC0833631F0833790
:1048500071F0833509F059C021C0F8018081898346
:104860000E5F1F4F88248394912C530113C028019D
:10487000F2E04F0E511CF801A080B18036FE03C05B
:10488000692D70E002C06FEF7FEFC5010E948C259B
:104890004C018201F32DFF773F2E16C0280122E044
:1048A000420E511CF801A080B18036FE03C0692D74
:1048B00070E002C06FEF7FEFC5010E9481254C01BF
:1048C000F32DF0683F2E820133FC1BC0822D90E057
:1048D00088169906B0F4B60180E290E00E94972510
:1048E0002A94F4CFF50137FC859137FE81915F0161
:1048F000B60190E00E94972521102A9421E0821AA7
:1049000091088114910471F7E8C0843611F089365A
:1049100041F5F80137FE07C0608171818281938182
:104920000C5F1F4F08C060817181072E000C880B3F
:10493000990B0E5F1F4FF32DFF763F2E97FF09C097
:1049400090958095709561957F4F8F4F9F4FF06840
:104950003F2E2AE030E0A3010E94D325882E86183E
:1049600045C0853731F4232D2F7EB22E2AE030E06A
:1049700025C0932D997FB92E8F36C1F018F4883554
:1049800079F0B5C0803719F0883721F0B0C0E92F31
:10499000E061BE2EB4FE0DC0FB2DF460BF2E09C039
:1049A00034FE0AC0292F2660B22E06C028E030E06F
:1049B00005C020E130E002C020E132E0F801B7FE9E
:1049C00007C060817181828193810C5F1F4F06C097
:1049D0006081718180E090E00E5F1F4FA3010E9413
:1049E000D325882E8618FB2DFF773F2E36FE0DC06F
:1049F000232D2E7FA22E891458F434FE0BC032FCD6
:104A000009C0832D8E7EA82E05C0B82CA32C03C010
:104A1000B82C01C0B92CA4FE0FC0FE01E80DF11D99
:104A20008081803321F49A2D997EA92E09C0A2FE9F
:104A300006C0B394B39404C08A2D867809F0B39469
:104A4000A3FC11C0A0FE06C0B21488F4280C922C5E
:104A50009B180EC0B21460F4B60180E290E00E9490
:104A60009725B394F7CFB21418F42B1802C0982CE2
:104A7000212CA4FE10C0B60180E390E00E9497258F
:104A8000A2FE17C0A1FC03C088E790E002C088E541
:104A900090E0B6010CC08A2D867859F0A1FE02C0C4
:104AA0008BE201C080E2A7FC8DE2B60190E00E949B
:104AB0009725891438F4B60180E390E00E94972589
:104AC0009A94F7CF8A94F301E80DF11D8081B60125
:104AD00090E00E9497258110F5CF222009F442CE64
:104AE000B60180E290E00E9497252A94F6CFF60165
:104AF0008681978102C08FEF9FEF2B96E2E10C94A5
:104B0000C726FC010590615070400110D8F78095D0
:104B100090958E0F9F1F0895FC0161507040019089
:104B20000110D8F7809590958E0F9F1F08950F93D1
:104B30001F93CF93DF93FB01238121FD03C08FEFF0
:104B40009FEF2CC022FF16C04681578124813581FA
:104B50004217530744F4A081B1819D012F5F3F4F5D
:104B6000318320838C93268137812F5F3F4F37839A
:104B7000268314C08B01EC01FB010084F185E02D3C
:104B80000995892BE1F6D80116968D919C9117977E
:104B9000019617969C938E931697CE01DF91CF9135
:104BA0001F910F910895FA01AA27283051F1203161
:104BB00081F1E8946F936E7F6E5F7F4F8F4F9F4FB1
:104BC000AF4FB1E03ED0B4E03CD0670F781F891FF3
:104BD0009A1FA11D680F791F8A1F911DA11D6A0FC1
:104BE000711D811D911DA11D20D009F468943F9174
:104BF0002AE0269F11243019305D3193DEF6CF0173
:104C00000895462F4770405D4193B3E00FD0C9F738
:104C1000F6CF462F4F70405D4A3318F0495D31FDA5
:104C20004052419302D0A9F7EACFB4E0A6959795F8
:104C3000879577956795BA95C9F7009761057105CE
:104C400008959B01AC010A2E069457954795379518
:104C50002795BA95C9F7620F731F841F951FA01D72
:104C60000895F999FECF92BD81BDF89A992780B534
:104C70000895A6E1B0E044E050E00C946B26A8E172
:104C8000B0E042E050E00C946B26262FF999FECF5D
:104C900092BD81BDF89A019700B4021639F01FBA8F
:104CA00020BD0FB6F894FA9AF99A0FBE08950396AC
:104CB000272F0E9446260E944526252F0E94462621
:104CC000242F0C9446260196272F0E9446260C94EA
:104CD0004526DC01CB01FC01F999FECF06C0F2BDEF
:104CE000E1BDF89A319600B40D9241505040B8F7AA
:104CF0000895052E97FB1EF400940E94902657FD00
:104D000007D00E94E22607FC03D04EF40C949026B4
:104D100050954095309521953F4F4F4F5F4F0895E7
:104D200090958095709561957F4F8F4F9F4F089517
:104D30000E940427A59F900DB49F900DA49F800D05
:104D4000911D11240895B7FF0C9498260E9498266F
:104D5000821B930B08952F923F924F925F926F9216
:104D60007F928F929F92AF92BF92CF92DF92EF92FB
:104D7000FF920F931F93CF93DF93CDB7DEB7CA1B7C
:104D8000DB0B0FB6F894DEBF0FBECDBF09942A88A7
:104D9000398848885F846E847D848C849B84AA844F
:104DA000B984C884DF80EE80FD800C811B81AA81DC
:104DB000B981CE0FD11D0FB6F894DEBF0FBECDBFA7
:104DC000ED010895A1E21A2EAA1BBB1BFD010DC027
:104DD000AA1FBB1FEE1FFF1FA217B307E407F507AB
:104DE00020F0A21BB30BE40BF50B661F771F881F87
:104DF000991F1A9469F760957095809590959B011D
:104E0000AC01BD01CF010895A29FB001B39FC001C5
:104E1000A39F700D811D1124911DB29F700D811DE6
:0A4E20001124911D0895F894FFCFAE
:104E2A0001000000FFBF0101FF010BFC018046FFEA
:104E3A00FFDD09E30A6C0AE009380A0178730E01FA
:104E4A0004015C0FDF0FC20F9A0F730F11010100EB
:104E5A00630C08011E1813120C15BC19C01A415410
:104E6A002B424C45484944434F4E54524F4C4B45B4
:104E7A00593D25640A0041542B424C454849444D4A
:104E8A004F5553454D4F56453D25642C25642C25D9
:104E9A00642C25640A00425554544F4E3D25640A39
:104EAA000041542B424C454B4559424F41524443D1
:104EBA004F44453D0030302D30300A0025303258FD
:104ECA002D30302D253032582D253032582D2530B1
:104EDA0032582D253032582D253032582D25303272
:104EEA00580A0041542B464143544F525952455394
:104EFA0045540A0041542B424C45484944454E3DCD
:104F0A00300A0041542B424C45484944454E3D31F4
:104F1A000A0041542B4741504445564E414D453DA8
:104F2A000058696B69692069387820424C4500410C
:104F3A00542B474150474554434F4E4E0A00415463
:104F4A002B47415044454C424F4E44530A0041546A
:104F5A000A004154453D300A0041542B4741505301
:104F6A00544152544144560A0041542B4741545427
:104F7A00414444534552564943453D555549443D9C
:104F8A00363135390A0041542B474154544144447F
:104F9A00434841523D555549443D307832413139B3
:104FAA002C50524F504552544945533D31362C4DA1
:104FBA00494E5F4C454E3D312C56414C55453D3985
:104FCA000A0041542B424C45504F5745524C4556C6
:104FDA00454C3D340A0041542B42415544524154F8
:104FEA00453D37363830300A0041542B4857414442
:104FFA00433D360A0041542B4741545443484152D9
:10500A003D312C25640A0041542B424C45474554F6
:10501A0050454552414444520A0041542B4741509D
:10502A00444953434F4E4E4543540A0041542B477B
:10503A004150534554414456444154413D30322D28
:10504A0030312D30360A0041542B474150534554D4
:10505A00414456444154413D30322D30312D303493
:10506A000A0041545A0A00BDB6B3ADAAA7A4A19D2D
:10507A00404D3639E404970461042804BB03D40381
:10508A00ED030604040A2AA50399036D032A0358AB
:10509A000069006B00690069002000690038007827
:1050AA0000200028005500530042005F0044004ED3
:1050BA000031004A00290000000A03590044004B4D
:1050CA0000420000000403090409026D0004010003
:1050DA00A0FA0904000001030101000921110100DD
:1050EA0001224000070581030800010904010001AB
:1050FA0003010200092111010001224D0007058266
:10510A00030800010904020001030000000921113B
:10511A000100012236000705830308000A09040377
:10512A0000010300000009211101000122390007D2
:10513A000584031000011201100100000008EDFEB1
:10514A00802101000102000105010906A1010507EC
:10515A0019E029E71500250195087501810205085E
:10516A0019012905950575019102950175039101AA
:10517A00050719002977150025019578750181021F
:10518A00C005010980A101850216010026B7001A8F
:10519A0001002AB700751095018100C0050C0901AC
:1051AA00A1018503160100269C021A01002A9C020D
:1051BA00751095018100C005010902A1010901A12B
:1051CA0000050919012905150025019505750181B3
:1051DA0002950175038101050109300931158125FF
:1051EA007F95027508810609381581257F95017515
:1051FA00088106050C0A38021581257F9501750874
:10520A008106C0C005010906A101050719E029E7C1
:10521A00150025019508750181029501750881011E
:10522A00050819012905950575019102950175036E
:10523A0091010507190029FF150026FF009506753B
:04524A00088100C017
:106000001E00EA40E940E2400400050006000700E7
:10601000080009000A000B000C000D000E000F0024
:1060200010001100120013001400150016001700D4
:10603000180019001A001B001C001D001E001F0084
:106040002000210022002300240025002600270034
:10605000280029002A002B002C002D002E002F00E4
:106060003000310032003300340035003600370094
:10607000380039003A003B003C003D003E003F0044
:1060800040004100420043004400450046004700F4
:10609000480049004A004B004C004D004E004F00A4
:1060A0005000510052005300540055005600570054
:1060B000580059005A005B005C005D005E005F0004
:1060C00060006100620063006400F1A18500580077
:1060D000E700F550F650F750F850F950FA506F00BD
:1060E00070007100720073002A00E500E600E20013
:1060F000E000E100E200E300E400E500E600E70084
:106100000000010001000100010001000100010088
:1061100001000AF40AF60AF801000100010001007A
:10612000010001000100010001000AF001000AF273
:10613000010001000100010001000BFC0100010051
:106140000100010001000100010001000100010047
:106150000100010001000100010001000100010037
:106160000100010001000100010001000100010027
:106170000100010001000100010001000100010017
:106180000100010001000100010001000100010007
:106190000100010001000100010001000100E940CF
:1061A000E240EA400100010001000100010001009D
:1061B00001000100010001000100010001000100D7
:1061C00001000100010001000100010001000100C7
:1061D00001000100010001000100010001000100B7
:1061E000010001000100010049000100010001005F
:1061F0000100010001000100010001000100010097
:106200001001010001000100010001000100010076
:106210000100010001000100010001000100010076
:106220000100010001000100010001000100010066
:106230000100010001000100010001000100010056
:106240000100010001000100010001000100010046
:106250000100010001000100010001000100010036
:106260000100010001000100010001000100010026
:106270000100010001000100010001000100010016
:106280000100010001000100010001000100010006
:1062900001000100010001000100010001000100F6
:1062A00001000100010001000100010001000100E6
:1062B00001000100010001000100010001000100D6
:1062C00001000100010001000100010001000100C6
:1062D00001000100010001000100010001000100B6
:1062E00001000100010001000100010001000100A6
:1062F0000100010001000100010001000100010096
:106300001102010001000100010001000100010073
:106310000100010001000100010001000100010075
:106320000100010001000100010001000100010065
:106330000100010001000100010001000100010055
:106340000100010001000100010001000100010045
:106350000100010001000100010001000100010035
:106360000100010001000100010001000100010025
:106370000100010001000100010001000100010015
:106380000100010001000100010001000100010005
:1063900001000100010001000100010001000100F5
:1063A00001000100010001000100010001000100E5
:1063B00001000100010001000100010001000100D5
:1063C00001000100010001000100010001000100C5
:1063D00001000100010001000100010001000100B5
:1063E00001000100010001000100010001000100A5
:1063F0000100010001000100010001000100010095
:106400001201010001000100010001000100010072
:106410000100010001000100010001000100010074
:106420000100010001000100010001000100010064
:106430000100010001000100010001000100010054
:106440000100010001000100010001000100010044
:106700000000010001000100010001000100010082
:106710000100010001000100010001000100010071
:106720000100010001000100010001000100010061
:106730000100010001000100010001000100010051
:106740000100010001000100010001000100010041
:106750000100010001000100010001000100010031
:106760000100010001000100010001000100010021
:106770000100010001000100010001000100010011
:106780000100010001000100010001000100010001
:1067900001000100010001000100010001000100F1
:1067A00001000100010001000100010001000100E1
:1067B00001000100010001000100010001000100D1
:1067C00001000100010001000100010001000100C1
:1067D00001000100010001000100010001000100B1
:1067E00001000100010001000100010001000100A1
:1067F0000100010001000100010001000100010091
:00000001FF
