:100000000C94D4000C94F1000C94F1000C94F100C9
:100010000C94F1000C94F1000C94F1000C94F1009C
:100020000C94F1000C94F1000C94690E0C94440FA4
:100030000C94701C0C94F1000C94F1000C94F100E1
:100040000C94F1000C94F1000C94F1000C94F1006C
:100050000C94F1000C942E1C0C94F1000C94F10003
:100060000C94F1000C94D7040C94F1000C94F10062
:100070000C94F1000C94F1000C94F1000C94F1003C
:100080000C94F1000C94F1000C94F1000C94F1002C
:100090000C94F1000C94F1000C94F1000C94F1001C
:1000A0000C94F1000C94F1000C94F100310A330A25
:1000B000350A370A390A3B0A5D0A5D0A5D0A5D0A9C
:1000C0005D0A560A580A5A0AAD0FD00F9010D00F89
:1000D00090101510381090105A106D109D129D122E
:1000E000EB12EB126D13B613A815A815EC13A81597
:1000F000431343138015A815A8159515291E1F2015
:10010000212223242526272D2E2A4A802B141A0843
:1001100015171C180C12132F30314B803904160799
:10012000090A0B0D0E0F333480284E80791D1B06F3
:1001300019051110363738807D524D80787B7A80D2
:10014000802C8080807E7C8050514F80291E1F2013
:10015000212223242526272D2E2A4A802B141A08F3
:1001600015171C180C12132F30314B803904160749
:10017000090A0B800D0E0F3334284E4D791D1B06D6
:1001800019787B7A1036371105387D52808080804F
:10019000808080802C807E7C8050514F626200285D
:1001A000008315087432000011241FBECFEFDAE07F
:1001B000DEBFCDBF15E0A0E0B1E0E8E4F6E402C0A8
:1001C00005900D92A830B107D9F728E0A8E0B5E076
:1001D00001C01D92AF30B207E1F70E945E0A0C9495
:1001E00022230C94000020910501E92FF0E090E01B
:1001F00034E0EE0FFF1F3A95E1F78E0F9F1FFC01D1
:10020000222319F0E45BFE4F02C0E450FF4F8491BB
:100210000895EF92FF921F93CF93DF937C01D62F27
:10022000142F0E94871BC82FF7018281D130C1F0A3
:1002300028F0D43021F1D53059F137C0882391F01E
:10024000812F827010FD80628C2321F0C0FD02C0DE
:1002500085E310C0812F84708C2349F489E20AC0A1
:10026000811103C0809108051CC0C2FF02C08DE34C
:1002700001C081E280930805809108050EC08823A3
:1002800029F08C2F827289F48CE207C08CE209C0BD
:10029000882331F0C5FD09C082E50E948C1103C09E
:1002A00082E50E94BA110E94C11BF7018281882356
:1002B00009F447C0D33051F1DB30D9F1D23009F025
:1002C00040C00E9407128C2F837251F0CD7DC13047
:1002D00031F48BE29CEF9093010880930008FFCFEC
:1002E000CC3039F46AEA7BEB8EEF93E00E94722205
:1002F000FFCF82E39FE00E94D11582E39FE1DF916F
:10030000CF911F91FF90EF900C94D11590916805BB
:1003100081E089278093680590917E0788E8892786
:1003200080937E07DF91CF911F91FF90EF900C9407
:10033000A604812FDF91CF911F91FF90EF900C9435
:10034000280ADF91CF911F91FF90EF9008956111DE
:1003500007C0FC018281882319F080E09FE50895A1
:1003600080E090E0089590910501992341F0883054
:1003700018F47D9B15C012C0799B12C00FC08F303E
:1003800068F4E82FF0E0EE0FFF1FEC5CFE4FA08159
:10039000B0E090969C918181892311F080E00895CE
:1003A00080E80895909105019923A9F08A3049F4D5
:1003B00088E28E9A8C9A00008C988150D1F78E98A2
:1003C00003C08B3021F48E9A8C9A00008C9888E0C0
:1003D0008A95F1F70895EAE2F1E090E0A081B0E0BB
:1003E00091963C9191972181891711F08F3F11F4DB
:1003F000232B02C02095232391962C939F5F329646
:10040000953061F70895CF93DF93E4EAFEE7E49136
:10041000E73911F4109205018091050181110AC09C
:100420005198599A8EEF93E00E945A228A3A9B4B38
:1004300059F50DC03E9A4698C6E0D0E488B18D27A4
:1004400088B982E30E94FE1BC150C1F7E9CF6CEC72
:100450007DED8EEF93E00E94722280911601882339
:1004600099F0519A5998879A8F983E9A469A8FEFA9
:1004700091E12AE7815090402040E1F700C0000060
:10048000DF91CF910C94541CDF91CF91089580910E
:100490000501882351F080B3806580BB80B38D7DDA
:1004A00080BB81B3826781BB0895A4E3B1E0EC9186
:1004B000F0E091A111962C911197822F80959823AD
:1004C00091A382A1822B82A3129681E0A235B80764
:1004D00071F708956F927F928F929F92AF92BF9221
:1004E000CF92DF92EF92FF920F931F93CF93DF9300
:1004F00000D000D01F92CDB7DEB70E94131C209110
:100500005C0530915D058217930709F490C09093C4
:100510005D0580935C0580910501882319F08AE0D0
:100520000E94D2018EE5E82E85E0F82E612C9CE039
:10053000C92E95E0D92E88248394912C862D0E9473
:10054000D20180910501811104C08DE08A95F1F7F7
:100550000000560100E080910501102F882319F05A
:10056000169500FD185F812F0E94B301782E8091AF
:100570000501882329F0183018F08BE00E94D20181
:10058000F50180818695872981935F019FEF980F00
:100590009E3FC0F5F701408151819401012E02C0B8
:1005A000220F331F0A94E2F790910401891720F07B
:1005B000CA01822B932B08C0853040F4C901809575
:1005C000909584239523F70191838083F70180819F
:1005D000918148175907B1F019836A8282239323C6
:1005E00021E0892B09F420E02B830E94131C8160F9
:1005F0009D838C83CE0101960E945F11CE010196EE
:100600000E94FB1B0F5F003109F0A5CFF0E1CF0E78
:10061000D11CF701819191917F01892B21F01092DA
:10062000A9061092A8066394F5E06F1287CF81E0C7
:100630000F900F900F900F900F90DF91CF911F911F
:100640000F91FF90EF90DF90CF90BF90AF909F9071
:100650008F907F906F9008958091210184FD05C057
:100660008FEB8093040180E004C08BEF8093040142
:1006700086E060E00C944512CF93DF9380910501F2
:10068000882309F46BC0809110018A3021F0809199
:100690001601811150C08E9890E080E08C9A000085
:1006A0008C988E9A903149F42DE02A95F1F700004C
:1006B0002FB12272203261F40AC0943149F42DE046
:1006C0002A95F1F700002FB12272223009F48F5FD2
:1006D0009F5F953119F7823011F080E086C090E07D
:1006E00080E0923031F4282F2B7F233011F48E9A42
:1006F00001C08E988C9A00008C988F5F883089F7A3
:100700009F5F953069F78DE08A95F1F700008FB112
:100710008272823211F7809110018A3041F061E0DB
:1007200080E290E00E9460228AE10E94940981E0C8
:10073000809314015AC08E9895E088E08C9A00004E
:100740008C988150D9F79150C1F72DE02A95F1F797
:1007500000008FB182728232E9F5BFCF8FEF0E9425
:10076000D2018DE08A95F1F70000809110018A3066
:1007700021F080911601811127C05498C0E08C2F80
:100780000E94B3018111A9CFCF5FC031C1F782E0D0
:100790000E94D201C0E0D0E08C2F0E94B3018823D8
:1007A00039F0C43011F0C73011F4DF5F01C0DC5FF5
:1007B000CF5FC03189F7D23009F08FCF809110011F
:1007C0008A3009F0B1CFB3CFC0E08C2F0E94B301C3
:1007D000882339F080911001843009F4A8CF81E09A
:1007E00004C0CF5FC03189F778CFDF91CF910895F2
:1007F000469808958091A406811102C00C948C043F
:100800000895089580910A0590910B050E941F1C80
:1008100087399105E0F10E94131C90930B0580939A
:100820000A05809109058F5F809309059091A406C0
:100830009923A1F0843058F1913011F080E001C08B
:1008400083E080930905379B05C098B180E4892730
:1008500088B908951092A4060C94FA03909114019B
:100860009923A9F0813009F44698809109058330D5
:1008700009F4469A9091A70680910905911105C047
:10088000853018F01092090508958B30D8F7089537
:100890003E9A4698E0E0F2E6E491E0936A05089516
:1008A000811101C0469A21E030E0A90102C0440F45
:1008B000551F8A95E2F7CA0190916905892B8093AB
:1008C00069050895811101C0469821E030E0A90131
:1008D00002C0440F551F8A95E2F7CA018095909196
:1008E00069058923809369050895882339F09091DB
:1008F0006A05981B892F983070F401C080E070E081
:1009000002C0759567958A95E2F780E060FD0C94CA
:1009100050040C94620408956091690580E00C9481
:10092000750490916A05981308C09091690581E05B
:100930008927809369050C948C040895669581E05D
:100940000C947504669589E00C94750460916805B3
:1009500085E10C947504682F80E10E9475040C9465
:10096000A604FC012081203631F421812B3B19F4AF
:1009700003960C94C706089520916D0580916E052D
:10098000821759F030E0F901E159FA4F80812F5F69
:100990003F4F20936D0590E008958FEF9FEF0895EE
:1009A0009091C80095FFFCCF8093CE0008951F92D0
:1009B0000F920FB60F9211242F933F934F938F9363
:1009C0009F93EF93FF9380916E0590E09C012F5FC2
:1009D0003F4F40916D05421741F03091CE00FC0130
:1009E000E159FA4F308320936E05FF91EF919F916B
:1009F0008F914F913F912F910F900FBE0F901F90AD
:100A000018958091890608950895EF92FF920F93AB
:100A10001F93CF938C010E94131C7C01C0E0C7017F
:100A20000E941F1C8017910708F50E94BC048F3F8D
:100A30002FEF9207C9F0AC0155274D305105A1F0B9
:100A40002C2F30E04A30510551F4C23030F0F9011A
:100A5000E259F94F80818F3449F08FE590E0F90138
:100A6000E059F94F8083CF5FC731C8F2EC2FF0E037
:100A7000E059F94F108280E796E0CF911F910F91D6
:100A8000FF90EF900895CF93DF93EC018991882335
:100A900019F00E94D004FACFDF91CF9108950E94FF
:100AA000430584E690E00C9405059C012F5631091E
:100AB0002230310528F02A5731092230310588F4D7
:100AC00020918C0630918D06232B31F429E732E0FA
:100AD00030938D0620938C0690938B0680938A0624
:100AE00004C010928D0610928C0620918E06211162
:100AF00024C09F938F9382E591E09F938F9385EE1F
:100B000097E09F938F930E949F1F85EE97E00E942E
:100B10004F0542E050E060E372E00E94921F0F90A8
:100B20000F900F900F900F900F90892B19F4109247
:100B30008E06089581E080938E060895CF93DF930B
:100B4000EC0180918E06811141C08C81282F082EE6
:100B5000000C330B3F938F938B81282F082E000CB2
:100B6000330B3F938F938A81282F082E000C330B71
:100B70003F938F938981282F082E000C330B3F93CE
:100B80008F938AE691E09F938F9385EE97E09F93F2
:100B90008F930E949F1F85EE97E00E944F0542E0D1
:100BA00050E060E372E00E94921F2DB73EB7245FD1
:100BB0003F4F0FB6F8943EBF0FBE2DBF892B19F4DF
:100BC00010928E0603C081E080938E0680918E067F
:100BD00081112BC0888190918806891731F180930B
:100BE00088061F928F938AE891E09F938F9383EFFB
:100BF00097E09F938F930E949F1F85EE97E00E943E
:100C00004F0542E050E060E372E00E94921F0F90B7
:100C10000F900F900F900F900F90892B19F4109256
:100C20008E0603C081E080938E06DF91CF910895F8
:100C3000CF93DF93EC0186E90E94FE1BCE01DF918A
:100C4000CF910C944F05CF93DF932091A7062223D9
:100C500009F45EC020918E0621115AC0EC0185E98D
:100C600091E00E944305209731F489EA91E0DF91F9
:100C7000CF910C944F058F811F928F938E811F927D
:100C80008F938D811F928F938C811F928F938B8175
:100C90001F928F938A811F928F9388811F928F93C7
:100CA00080EB91E09F938F9385EE97E09F938F93D6
:100CB0000E949F1F85EE97E00E944F0545E050E09F
:100CC00067ED71E00E94921F2DB73EB72E5E3F4F39
:100CD0000FB6F8943EBF0FBE2DBF892B21F481E0E3
:100CE00080938E0602C010928E068881811110C0FA
:100CF0008A81833531F0893331F0873449F482E1D8
:100D000003C080E101C081E1DF91CF910C94910497
:100D1000DF91CF91089580E090E00C9423068091BC
:100D20008C0690918D060097F1F08230910530F09D
:100D3000019790938D0680938C06089520916F06FD
:100D40002F5F20936F0680918A0690918B0630E08A
:100D500043EF50E0481B590B2417350720F0109241
:100D60006F060C94550508958DED91E00C941806CE
:100D7000CF93C82F8EEE91E00E94430580E38C0F45
:100D80000E94D0048EEA91E0CF910C941806CF9384
:100D9000DF93EC018BEF91E00E944305CE010E94AE
:100DA00043058EEA91E0DF91CF910C9418068AE01A
:100DB00092E00E944F05FC018081089589E192E054
:100DC0000C941806CF93DF93879A8F980E940A1C81
:100DD000F89487E68093CC001092CD008091C900F2
:100DE00080698093C9008091C90088608093C900A0
:100DF0008091CA008093CA008091C800826080936D
:100E0000C800789489E292E00E94180689E292E094
:100E10000E944F05EC0142E050E06DE272E00E945A
:100E2000921F892B49F042E050E060E372E0CE016E
:100E30000E94921F892BE9F40E94B40689E292E095
:100E40000E94180683E392E00E9418068AE392E06B
:100E50000E94C70681E00E94B80682E492E00E94E8
:100E600018060E94DE0682E592E00E9418060E94A3
:100E7000541CF8948CE08093CC00789489E292E042
:100E80000E94180682E30E94FE1B85E692E00E9403
:100E90004F0545E050E067ED71E00E94921F892BFD
:100EA00071F484E792E00E94180681E992E00E94C2
:100EB00018068DEC92E0DF91CF910C941806DF912B
:100EC000CF910895CF93C82F82ED92E00E944F05F5
:100ED000FC01218180ED820F8A3020F081E0809337
:100EE000AD065BC062816A3308F057C0408150E0B4
:100EF0004053510984E6849FF001859FF00D112431
:100F000030E0205331094AE0429FC001439F900DD9
:100F100011248E0F9F1F860F911D43E0880F991F8C
:100F20004A95E1F78A5492402091120130911301C1
:100F300023374EE0340709F49C01820F931F9695E6
:100F40008795909313018093120137990AC021E08D
:100F50002093A3068A55910990931301809312015F
:100F600002C01092A306809112019091130124E017
:100F7000969587952A95E1F780548093A606823A44
:100F800018F01092A40609C0853910F481E003C05E
:100F90008D3918F485E08093A406C130A9F59091AD
:100FA000A606EEE2F3E08AE52191921718F48A5042
:100FB000D9F78CE22091A4062111822F2091A3065B
:100FC000C22FC80F211103C0923C08F0C4E6C093A1
:100FD00011018EED92E00E9443051F92CF9386E8A7
:100FE00091E09F938F9385EE97E09F938F930E945C
:100FF0009F1F0F900F900F900F900F900F9085EE06
:1010000097E0CF910C944F05CF9108953F98479A60
:1010100081E00C9462070895CF93DF9380912101C2
:1010200087FF19C00E94A9108650914041F086E0C8
:1010300091E00E94A410809168058D7F1BC0809173
:101040001501811127C080910608843019F581E0CF
:10105000809315011FC00E94A9108751914079F01B
:1010600081E08093150187E191E00E94A4108091B6
:1010700068058260809368050E94A6040BC0809179
:101080000608843039F08091210180688093210125
:101090001092150180911601882309F442C18F999D
:1010A00038C180918E068823A1F089E292E00E94E7
:1010B0004F0542E050E060E372E00E94921F892BEE
:1010C00029F410928E060E948B0603C081E0809363
:1010D000AD068091AD068823C1F084E690E00E94C1
:1010E0000505EC0142E050E060E372E00E94921FCF
:1010F000892B59F045E050E067ED71E0CE010E9488
:10110000921F892B11F01092AD0680911001823050
:1011100041F481E00E9462070E940B0883E0809303
:10112000100180919106882321F10E94D706813316
:1011300001F58DEE92E00E944F05FC0122812A33D9
:10114000C1F441E150E062E976E00E94921F892BF0
:1011500031F01092910681E08093A7060AC080E0EA
:1011600093E00E944F05809114018F3010F010928F
:1011700091068091AD0681119DC08091AA06909143
:10118000AB060E941F1C893E934008F493C00E9446
:10119000131C9093AB068093AA068091A706811139
:1011A00005C080919106811133C008C080919006DE
:1011B0008F5F809390068370A1F341C00E94D70691
:1011C000813321F481E08093A7061CC08033E9F4C9
:1011D0001092A7068091AC068F5F8093AC06909129
:1011E0001501911115C090911001992389F08A354C
:1011F00078F08F9A8091C900877F8093C90084E03E
:10120000809310011092AC0603C081E08093AD067C
:1012100080911401882399F0843629F410921401E6
:101220000E948C040CC08F5F80931401843120F4E1
:101230008091A706882319F084E680931401809199
:101240008F068F5F80938F06877021F48091A306AD
:101250000E9462078091150181112CC080911401B8
:10126000811128C08091A8069091A90601969093BB
:10127000A9068093A80620911001213039F4039724
:1012800028F00E948B0682E080931001809110016B
:10129000833081F48091A8069091A9068832934208
:1012A00048F084E0809310018F9A8091C900877F75
:1012B0008093C9008091A506882349F18C3011F0F4
:1012C0008231A1F482E193E00E9443058091A5065A
:1012D000823129F48BE293E00E944F0504C08BED2C
:1012E00092E00E9418061092A50611C0853179F48B
:1012F0000E94DE0680E00E94B80681E00E94B806E7
:101300008DEC92E00E9418068CE08093A5060E9466
:101310008F0680911001823020F4DF91CF910C94E0
:101320000204DF91CF910895CF93DF93C82F0E94DD
:10133000871BD82F0E940712C531C1F1D8F4CC30D9
:1013400089F158F4C53009F07FC08D2F0E948A1BA7
:1013500082E090EF0E94D11545C0C23119F1C3312E
:1013600009F072C09091100181E0892780931001EB
:1013700060E055C0C931B1F128F4C631F9F0C83187
:1013800039F062C0CA3121F1C03C09F44BC05CC0E5
:1013900080911601882341F09091210190589093FB
:1013A000210153C0C093A50681E04FC0D0FF4CC0BF
:1013B000C093A50681E08093140147C08091140179
:1013C000811102C081E001C084E680931401ECCF5A
:1013D000D0FD02C061E001C06DEB80E290E00E94B0
:1013E0006022FFCF8091110160E090E00E94DD1546
:1013F0008D2F8272C9F2D0FF0BC08DE290E00E9467
:10140000D11560E080911201909113010E94DD15C9
:101410008DE290E00E94D11560E08091A7060E94C5
:101420004512C2CF809115018111BECF8F9A809154
:10143000C900877F8093C9008AE0809310011092D1
:10144000A7060E94161AB0CF80E0DF91CF910895D1
:1014500090E08E30910588F5FC01EA5AFF4F0C941C
:10146000301F88E128C083E126C082E124C08CE0DF
:1014700022C085E120C08091A7068823F1F081E099
:1014800080939106809314011092A7068DEE92E04E
:101490000E944F05FC0182818A3379F491E1A2E92F
:1014A000B6E001900D929A95E1F7089589E103C0A5
:1014B00080EC01C08AE10C9494090895CF9390E0E8
:1014C00080E80FB6F89480936100909361000FBE9E
:1014D0000E9403020E944B0E789480E290E00E94EA
:1014E00052228D3B11F410921601CFEF8091060825
:1014F000843059F080911601811102C088E001C04A
:1015000084E00E94FE1BC15089F780911601882358
:1015100021F00E94E2060E9406080E94FC100E9430
:10152000651CC1E080911001823060F48091060852
:10153000853041F08091160181111CC08091150108
:10154000811118C00E94991C0E943C03882391F0CD
:101550001092A9061092A8060E94BA1C809116014A
:10156000882341F08F988091C90088608093C900DA
:10157000C0931001809110018430A0F6A8958230AC
:1015800010F40E9402110E940C08CCCF8091BF067B
:1015900008958FEF9091E800815095FD06C09AE67E
:1015A0009A95F1F700C08111F5CF8091E80085FB95
:1015B000882780F991E089270895CF93DF9300D0A1
:1015C0001F92CDB7DEB7209106082430B9F423E08E
:1015D00029839B838A832093E9000E94C90A811191
:1015E0000DC040E050E063E070E0CE0101960E9443
:1015F000E10C8091E8008E778093E8000F900F90C7
:101600000F90DF91CF910895CF93DF9300D01F9279
:10161000CDB7DEB7209106082430C1F422E029833B
:101620009B838A8383E08093E9000E94C90A811129
:101630000DC040E050E063E070E0CE0101960E94F2
:10164000E10C8091E8008E778093E8000F900F9076
:101650000F90DF91CF910895CF93DF9320910608EB
:101660002430A1F4EC0182E08093E9000E94C90AD1
:1016700081110CC040E050E065E070E0CE010E94B6
:10168000E10C8091E8008E778093E800DF91CF91A4
:101690000895CF93DF93EC01909106089430B9F54B
:1016A0008091210181718131B9F49093E9008FEF2C
:1016B0009091E800815095FD06C095E19A95F1F76B
:1016C00000008111F5CF8091E80085FF20C040E047
:1016D00050E060E170E00BC081E08093E9000E947F
:1016E000C90A811114C040E050E068E070E0CE010A
:1016F0000E94E10C8091E8008E778093E80080E101
:10170000FE01AFEAB6E001900D928A95E1F7DF9114
:10171000CF91089580910508811109C00E94F00DB4
:101720000E944B0E8091E20084608093E200089555
:101730001092050808950895089542E061EC81E053
:101740000E948A0D42E061EC82E00E948A0D42E034
:1017500061EC83E00E948A0D42E161EC84E00C942C
:101760008A0D80910808833009F455C030F4813027
:1017700071F0823009F48EC008958A3009F47AC07D
:101780008B3009F460C0893009F09CC020C0809182
:101790000708813A09F096C08091E800877F80931E
:1017A000E80080910B0890910C08892B21F460E1EE
:1017B0008FEA96E003C060E080E090E070E00E9475
:1017C0002C0D8091E8008B778093E800089580913C
:1017D0000708813209F076C080910B0890910C08BF
:1017E000009719F0039709F06DC08091E800877F9A
:1017F0008093E8008091E80082FD05C08091060892
:101800008111F8CF5FC08091F1008093BF06809175
:10181000E8008B7753C080910708813A09F052C0E5
:1018200080910B0890910C08892B09F04BC0809196
:10183000E800877F8093E8008091E80080FFFCCF7C
:101840008091210136C0809107088132D9F58091BD
:101850000B0890910C08892BA9F58091E800877FEF
:101860008093E8000E949E0D8091090880932101D9
:101870000C94071280910708813221F58091E800CD
:10188000877F8093E8000E949E0D80910A088093D4
:10189000C006089580910708813AA1F48091E8007C
:1018A000877F8093E8008091E80080FFFCCF8091E3
:1018B000C0068093F1008091E8008E778093E80065
:1018C0000C949E0D08958091BF068093AE061092F1
:1018D000BF0680E00E94AB040E945E110C940712C8
:1018E0000C94630C0E94BA1C8091AE068093BF06D4
:1018F00008950C94720C292F332723303105C1F041
:1019000058F42130310579F022303105E9F58DE6C2
:1019100090E02CE833E03CC021323105C1F02232A6
:10192000310511F131C082E190E029EF33E030C0A0
:1019300099278330910540F5FC01EE0FFF1FE25B14
:10194000FC4F20813181FC01E55BFC4F1AC0643003
:10195000D8F4E62FF0E0EE0FFF1FED5BFC4F208187
:10196000318189E090E014C0643070F470E0FB01D4
:10197000EE0FFF1FE55CFC4F20813181FB01E95C2C
:10198000FC4F808190E004C080E090E020E030E0F7
:10199000FA0131832083089519BC82E089BD09B41E
:1019A00000FEFDCF8091D8008F7D8093D80080917C
:1019B000E00082608093E0008091E00081FDFCCF38
:1019C0000895CF92DF92EF92FF920F931F93CF93E0
:1019D000DF93EC018B017A010E94BD0D811133C0B0
:1019E000E114F10439F0F70180819181081B190B92
:1019F000C80FD91FC12CD12C0115110519F18091E7
:101A0000E80085FD16C08091E8008E778093E8009D
:101A1000E114F10449F0F70180819181C80ED91ECB
:101A2000D182C08285E00FC00E94BD0D882321F3C2
:101A30000AC089918093F10001501109FFEFCF1A7C
:101A4000DF0ADACF80E0DF91CF911F910F91FF90F5
:101A5000EF90DF90CF90089520910D0830910E08FF
:101A60002617370748F06115710539F42091E80011
:101A70002E772093E80001C0B901FC0120E0611538
:101A8000710579F1809106088823F1F18530F1F133
:101A90008091E80083FD3CC08091E80082FD2EC06B
:101AA0008091E80080FFEBCF2091F3008091F2005D
:101AB00090E0922B6115710551F08830910538F452
:101AC00021912093F100615071090196F3CF21E03B
:101AD000089709F020E08091E8008E778093E80075
:101AE000CECF2111CFCF0AC080910608882361F0A4
:101AF000853061F08091E80083FD0AC08091E800A4
:101B000082FFF2CF80E0089582E0089583E0089597
:101B100081E008958F708093E900EBEEF0E0808122
:101B200081608083EDEEF0E010826093EC004083F2
:101B30008091EE00881F8827881F089580910708EC
:101B400087FF11C08091E80082FD05C080910608E2
:101B50008111F8CF11C08091E8008B770BC0809184
:101B60000608882349F08091E80080FFF8CF809133
:101B7000E8008E778093E80008952091E40030918A
:101B8000E50095E64091EC00842F817040FF23C072
:101B90008091E80080FD1DC080910608882399F09F
:101BA000853099F08091EB0085FD11C04091E400F3
:101BB0005091E5002417350729F3915011F09A014F
:101BC000E1CF84E0089582E0089583E0089581E004
:101BD000089580E008954091E80042FFDDCF089528
:101BE0000E945C0E0E94640EE0EEF0E08081816055
:101BF0008083E8EDF0E080818F77808319BCA7EDCA
:101C0000B0E08C918E7F8C9380818F7E8083109248
:101C1000050808950F931F93CF93DF930E945C0EE6
:101C20000E94640EC8EDD0E088818F778883888118
:101C30008068888388818F7D888319BC109206080C
:101C4000109203081092040800EE10E0F801808161
:101C50008B7F808388818160888342E060E080E0C0
:101C60000E948A0DE1EEF0E080818E7F8083E2EEBB
:101C7000F0E0808181608083808188608083F801CA
:101C800080818E7F8083888180618883DF91CF917E
:101C90001F910F910895E8EDF0E080818F7E8083A1
:101CA000E7EDF0E080818160808384E082BF81E0A5
:101CB000809305080C940A0EE8EDF0E080818E7F99
:101CC00080831092E20008951092DA001092E100F1
:101CD00008951F920F920FB60F9211242F933F93E6
:101CE0004F935F936F937F938F939F93AF93BF9324
:101CF000EF93FF938091E10082FF0BC08091E2009F
:101D000082FF07C08091E1008B7F8093E1000E94F9
:101D10009C0B8091DA0080FF23C08091D80080FF67
:101D20001FC080911501811102C00E94541C809136
:101D3000DA008E7F8093DA008091D90019BC80FF91
:101D40000BC082E089BD09B400FEFDCF81E0809325
:101D500006080E948A0B04C0109206080E94980B85
:101D60008091E10080FF19C08091E20080FF15C0E2
:101D70008091E2008E7F8093E2008091E20080619A
:101D80008093E2008091D80080628093D80019BCD3
:101D900085E0809306080E94700C8091E10084FF2A
:101DA00035C08091E20084FF31C08091150181111E
:101DB00002C00E94541C19BC82E089BD09B400FE17
:101DC000FDCF8091D8008F7D8093D8008091E10075
:101DD0008F7E8093E1008091E2008F7E8093E2000D
:101DE0008091E20081608093E20080910308882363
:101DF00011F084E007C08091E30087FD02C081E01C
:101E000001C083E0809306080E94790C8091E10074
:101E100083FF29C08091E20083FF25C08091E1000B
:101E2000877F8093E10082E0809306081092030888
:101E30008091E1008E7F8093E1008091E2008E7FAF
:101E40008093E2008091E20080618093E20042E0B2
:101E500060E080E00E948A0D8091F00088608093AD
:101E6000F0000E949B0BFF91EF91BF91AF919F916A
:101E70008F917F916F915F914F913F912F910F9033
:101E80000FBE0F901F9018951F920F920FB60F92D2
:101E900011242F933F934F935F936F937F938F936F
:101EA0009F93AF93BF93CF93DF93EF93FF93C09133
:101EB000E900CF708091EC00D82FD17080FDD0E880
:101EC0001092E9008091F000877F8093F000789471
:101ED0000E94880F1092E9008091F0008860809342
:101EE000F000CD2BCF70C093E900FF91EF91DF910F
:101EF000CF91BF91AF919F918F917F916F915F91A2
:101F00004F913F912F910F900FBE0F901F901895FA
:101F10001F93CF93DF9300D0CDB7DEB7E7E0F8E0B3
:101F20008FE098E02091F10021938E179F07D1F761
:101F30000E94B10B8091E80083FFF2C080910708F6
:101F400090910808492F50E04A30510508F0E8C048
:101F5000FA01EC59FF4F0C94301F803881F0823821
:101F600009F0DEC080910B088F708093E9008091AA
:101F7000EB0085FB882780F91092E90007C080916B
:101F80000408882311F082E001C080E09091E8000D
:101F9000977F9093E8008093F1001092F10095C034
:101FA000282F2D7F09F0BCC0882319F0823061F002
:101FB000B7C080910908813009F0B2C0933009F0B0
:101FC00080E0809304082BC080910908811127C00C
:101FD00080910B088F7009F4A3C08093E9002091D1
:101FE000EB0020FF1CC0933021F48091EB00806255
:101FF00014C09091EB0090619093EB0021E030E0F1
:10200000A90102C0440F551F8A95E2F74093EA00E8
:102010001092EA008091EB0088608093EB001092B0
:10202000E9008091E800877F53C0811179C0109149
:1020300009081F778091E3008078812B8093E3006B
:102040008091E800877F8093E8000E949E0D809138
:10205000E80080FFFCCF8091E30080688093E3007C
:10206000111102C082E001C083E08093060858C0CD
:102070008058823008F054C0AE014F5F5F4F6091CE
:102080000B088091090890910A080E947B0CBC0102
:10209000892B09F445C09091E800977F9093E80060
:1020A00089819A810E942C0D8091E8008B77809322
:1020B000E80036C08038A1F58091E800877F8093E2
:1020C000E800809103088093F1008091E8008E770A
:1020D0008093E8000E949E0D23C0811121C0809151
:1020E000090890910A0899270297D4F48091E80092
:1020F000877F8093E80080910908809303080E94FD
:102100009E0D80910308811106C08091E30087FD38
:1021100002C081E001C084E0809306080E949D0B0C
:102120008091E80083FF0AC08091E800877F809358
:10213000E8008091EB0080628093EB000F900F909D
:10214000DF91CF911F9108959093C6068093C506A5
:1021500008958091C5069091C6060895E091C50640
:10216000F091C606309721F00190F081E02D09949E
:1021700080E00895E091C506F091C606309721F001
:102180000280F381E02D09940895E091C506F09155
:10219000C606309721F00480F581E02D099408955A
:1021A0002091C3063091C4062817390771F0909327
:1021B000C4068093C306E091C506F091C606309729
:1021C00021F00680F781E02D099408952091C10641
:1021D0003091C2062817390771F09093C206809398
:1021E000C106E091C506F091C606309721F0008443
:1021F000F185E02D099408950E940A1C0E9447026F
:102200000C9448040E946A0280E090E00E945F11F2
:102210000E9401040E94C51D8091DF06882389F079
:102220008091DD069091DE060E941F1C8C34910582
:1022300040F01092DC0688EC96E00E94B104109207
:10224000DF060E94AE109091C7068917A1F10E9487
:10225000AE108093C70684FF2CC0E091DF06F0E04B
:10226000E853F94F9081990F990F8370892B8083E0
:102270000E94131C9093DE068093DD068091DC069D
:102280008F5F8093DC068430B0F08091C806803682
:1022900041F48091DF06823020F487E490E00E94D0
:1022A000D1151092DC068091DF068F5F8093DF06E8
:1022B00008950C94FC1B08950C94AB040895CF93DF
:1022C000DF9300D000D000D0CDB7DEB7FC01892B62
:1022D00039F40E94131C816060E05FEF4FEF05C08E
:1022E00040815181628183819481FE01319626E093
:1022F000DF011D922A95E9F7782F9D838C838D81CC
:102300009E810E949B1826960FB6F894DEBF0FBEE2
:10231000CDBFDF91CF910895CF93882349F1803BC2
:1023200029F48CE991E0CF910C944919C82F8CEFD6
:102330008C0F813A20F080E58C0F8E3250F48C2F78
:102340000E94DE1E811114C061E08C2F0E943C1B94
:102350000CC080E28C0F883058F4C77081E001C057
:10236000880FCA95EAF70E948A1BCF910C94C11B73
:10237000CF910895882351F19CEF980F913A20F066
:1023800090E5980F9E3220F460E00E943C1B0DC047
:1023900090E2980F983058F4877091E001C0990F3F
:1023A0008A95EAF7892F0E94901B0C94C11B9BE52C
:1023B000980F933020F480E090E00C94D010885A6D
:1023C000873120F480E090E00C94E6100895882393
:1023D00021F00E948A1B0C94C11B0895882321F0D0
:1023E0000E94901B0C94C11B08950E94A71B0E9481
:1023F0007D1B0E94C11B0E94D21E0E94BA1D80E05C
:1024000090E00E94D01080E090E00C94E6100E94D2
:10241000971B0C94F511CF93DF9300D000D01F923F
:10242000CDB7DEB70E94CE1A292F22952F702C30FF
:1024300030F42A30A0F42250223030F01DC02C306D
:10244000A9F02F3099F018C0853A28F4843090F420
:10245000823028F40FC090E2980F983058F0843002
:1024600058F0853A38F0803F39F404C093FB882750
:1024700080F903C081E001C080E00F900F900F90C1
:102480000F900F90DF91CF910895811101C08AE0E4
:10249000662311F0885A01C0835E90E00C94D11538
:1024A000CF92DF92EF92FF920F931F93CF93DF9320
:1024B00000D000D01F92CDB7DEB76C0185E0F601E9
:1024C000DE01119601900D928A95E1F7F6012381C4
:1024D000348189819A812115310531F09F3F31F492
:1024E00091E08F3F19F403C091E001C090E090FDAE
:1024F0002FC3F601F280E580E2948FE0E8222230DB
:10250000310559F0722F3D832C8349815A816F2DFB
:102510008D810E94CE1A8C0102C009811A810E940D
:10252000CD1A0E94C719E12FE295EF708E2F90E02F
:10253000FC01E259FF4F0C94301F812F807F1F70E8
:10254000882311F01295107FFF2021F10E94871B34
:10255000812390917F07892B80937F07112351F06E
:10256000002319F081E080937D07812F0E949A1B40
:102570000E94C11B802F0F900F900F900F900F9013
:10258000DF91CF911F910F91FF90EF90DF90CF904F
:102590000C948C1190917F07812F809589238093D3
:1025A0007F0710927D07802F0E94BA11112309F432
:1025B000CFC2812F0E94A01B0F900F900F900F9001
:1025C0000F90DF91CF911F910F91FF90EF90DF90CF
:1025D000CF900C94C11B812F807F1F70803211F02F
:1025E0001295107F002319F0013009F12BC0FF2054
:1025F000A9F0EE2061F1F1E0812FEF1229C00F90D8
:102600000F900F900F900F90DF91CF911F910F912E
:10261000FF90EF90DF90CF900C94AA1BEE2021F05A
:1026200021E0E21609F494C20E94AD1B54C0FF20C1
:10263000F1F082E08E1508F48BC20E94871B812383
:1026400031F049C0FF2009F444C0E11015C0812FCA
:102650000F900F900F900F900F90DF91CF911F91DF
:102660000F91FF90EF90DF90CF900C94E711E1E095
:10267000EE1508F46DC22FC0F601858180FF13C0EE
:102680008F708583E4CF003F09F4B4C108F08FC197
:10269000003E08F094C1FF2009F409C2EE2009F4BD
:1026A000F5C113FDEFC1802F0E948C11093309F091
:1026B0004FC282E30F900F900F900F900F90DF9119
:1026C000CF911F910F91FF90EF90DF90CF900C94DE
:1026D000FE1BE110F4C1812F7EC1812F8695869566
:1026E000837019F08130B9F033C2FF2019F0C801AE
:1026F000937002C080E090E00F900F900F900F90C9
:102700000F90DF91CF911F910F91FF90EF90DF908D
:10271000CF900C94E610FF20C1F0C8019370811592
:10272000F3E09F07A4F081EA91E00E94491960E07C
:10273000802F82958F700E94451260E0802F8F70ED
:102740000E9445128FE991E0E1C180E090E00F9096
:102750000F900F900F900F90DF91CF911F910F91DD
:10276000FF90EF90DF90CF900C94D010802FFF203F
:1027700081F00E94F31C0E94BA1D063408F0E8C1E3
:10278000E02FF0E0E357F84F81E0808380938C07DF
:10279000DFC10E94431D0E94BA1D063408F0D8C153
:1027A000202F30E0F901E357F84F1082002311F099
:1027B000C90102C084EF90E560E00F900F900F9088
:1027C0000F900F90DF91CF911F910F91FF90EF909D
:1027D000DF90CF900C94B615812F837009F070C0F4
:1027E000F110B6C1202F229526952770220F220FB7
:1027F000602F6F70862F90E0A0E0B0E06C017D014B
:10280000022E04C0CC0CDD1CEE1CFF1C0A94D2F777
:1028100004FF12C08FE090E0A0E0B0E004C0880F99
:10282000991FAA1FBB1F2A95D2F7BC01CD01609545
:1028300070958095909503C060E070E0CB0116958F
:10284000169513701230B1F040F56C297D298E2950
:102850009F29113031F10F900F900F900F900F9032
:10286000DF91CF911F910F91FF90EF90DF90CF906C
:102870000C94E2196C297D298E299F290F900F90C5
:102880000F900F900F90DF91CF911F910F91FF90BC
:10289000EF90DF90CF900C94FC190E94E219C701D1
:1028A000B6010F900F900F900F900F90DF91CF9186
:1028B0001F910F91FF90EF90DF90CF900C94C8196B
:1028C000FF2019F0812F817001C08695882309F4BB
:1028D0003FC1202F229526952770220F220F602FAF
:1028E0006F70862F90E0A0E0B0E06C017D01022EB9
:1028F00004C0CC0CDD1CEE1CFF1C0A94D2F704FFB4
:1029000012C08FE090E0A0E0B0E004C0880F991FF3
:10291000AA1FBB1F2A95D2F7BC01CD016095709507
:102920008095909503C060E070E0CB0116951695F8
:1029300013701230B1F040F56C297D298E299F2942
:10294000113031F10F900F900F900F900F90DF9199
:10295000CF911F910F91FF90EF90DF90CF900C944B
:10296000A91A6C297D298E299F290F900F900F900D
:102970000F900F90DF91CF911F910F91FF90EF90EB
:10298000DF90CF900C94BB1A0E94A91AC701B60120
:102990000F900F900F900F900F90DF91CF911F919C
:1029A0000F91FF90EF90DF90CF900C94971A023F19
:1029B00009F441C0D8F1033F09F442C06CCE0F7056
:1029C000812F8F71FF2021F00E94301A802F40CE7E
:1029D0000E94511A802F0F900F900F900F900F9020
:1029E000DF91CF911F910F91FF90EF90DF90CF90EB
:1029F0000C94EE11FF20A9F021E02E1508F4A8C0D8
:102A0000812F8F710F900F900F900F900F90DF918B
:102A1000CF911F910F91FF90EF90DF90CF900C948A
:102A2000761A82E08E1508F493C0EACFFF2029F0D1
:102A3000812F8F712DC0FF20D9F3812F8F7151C04D
:102A4000FF2089F0812F8F710F900F900F900F90C2
:102A50000F90DF91CF911F910F91FF90EF90DF903A
:102A6000CF900C941B1A0F900F900F900F900F9017
:102A7000DF91CF911F910F91FF90EF90DF90CF905A
:102A80000C94161AF601858180FF0DCE812F877078
:102A90000F900F900F900F900F90DF91CF911F919B
:102AA0000F91FF90EF90DF90CF900C94301AEE20B2
:102AB000B1F013FF04C0F601858180FD10C0802FA6
:102AC0000F900F900F900F900F90DF91CF911F916B
:102AD0000F91FF90EF90DF90CF900C94BA11812F5F
:102AE00087700F900F900F900F900F90DF91CF9104
:102AF0001F910F91FF90EF90DF90CF900C94511A9F
:102B0000412F4F70602FC6010E94A7010F900F90B8
:102B10000F900F900F90DF91CF911F910F91FF9029
:102B2000EF90DF90CF900C944919412F4F70602F98
:102B3000C6010F900F900F900F900F90DF91CF91E3
:102B40001F910F91FF90EF90DF90CF900C940901AF
:102B50000F900F900F900F900F90DF91CF911F91DA
:102B60000F91FF90EF90DF90CF900895CF93DF9378
:102B700000D000D000D0CDB7DEB789839A836B83B5
:102B800082E090E09D838C83CE0101960E945012DA
:102B900026960FB6F894DEBF0FBECDBFDF91CF9162
:102BA0000895CF93DF93EC0161E00E94B61560E0D9
:102BB000CE01DF91CF910C94B615BF92CF92DF92E8
:102BC000EF92FF920F931F93CF93DF936C01B62E7A
:102BD000C5E0D0E000E117E28AE0E82EF12CC60162
:102BE000B8010E941C1FCB01009731F0B7010E9471
:102BF0001C1F6B2D0E944512C801B7010E941C1FAB
:102C00008B01219761F7DF91CF911F910F91FF9079
:102C1000EF90DF90CF90BF900895CF93DF9300D0D7
:102C200000D01F92CDB7DEB70F900F900F900F908E
:102C30000F90DF91CF910895CF93DF9300D000D014
:102C400000D0CDB7DEB726960FB6F894DEBF0FBE24
:102C5000CDBFDF91CF9108951F93CF93DF93C091A4
:102C6000E00616E08091E106C81799F0D0E01C9FBD
:102C7000F0011D9FF00D1124EE51F94F408151815B
:102C800062817381848195810E941C162196C77090
:102C9000E9CFDF91CF911F91089540911207509194
:102CA0001307609114077091150780911607909192
:102CB00017070C941C160F931F93CF93DF938091EB
:102CC000170782958F7009F05DC0809114078823E3
:102CD00009F458C08091E0061091E1066091120756
:102CE00070911307C0911507D091160791E06F3FBF
:102CF00009F090E0292F06E0811709F443C02097DE
:102D000021F07F3F21F030E003C031E001C0322FDD
:102D100090E030FD34C0089FF001099FF00D1124B0
:102D2000DF01AE51B94F11963C911197371327C06F
:102D30003C91361324C012963C91129731111FC05A
:102D400013964D915C9114974C1B5D0B483C5105BB
:102D5000B0F4809117078F70806180931707E95155
:102D6000F94F80818F708061808382E197E00E94BB
:102D70005012DF91CF911F910F910C942C16019658
:102D80008770BACFDF91CF911F910F9108959F92D5
:102D9000AF92BF92CF92DF92EF92FF920F931F9369
:102DA000CF93DF93CDB7DEB761970FB6F894DEBF50
:102DB0000FBECDBF8C0185E0F801DE011D960190AC
:102DC0000D928A95E1F7F80140815181F280C3802C
:102DD000D4809091120760911307209115073091CC
:102DE00016072115310531F06F3F31F481E09F3F27
:102DF00019F403C081E001C080E0F82FF1709F2E2C
:102E000080FD52C182E1A82E87E0B82EE090140721
:102E1000F601E21BF30BEE2009F4E8C080911707DE
:102E2000E83CF10508F0A4C0282F207F09F053C02A
:102E3000561313C0491311C0EF2CF1100EC08F7040
:102E40008061809317070E944D16C5010E945012A1
:102E500080911707F80185835BC1C114D10431F05B
:102E60005F3F31F481E04F3F19F403C081E001C0BE
:102E700080E080FD03C081E08F2502C080E090E00B
:102E8000F82FF170EF2E80FF1CC08091E00620919A
:102E9000E10636E0821709F418C190E0389FF0018E
:102EA000399FF00D1124EE51F94F6181561306C080
:102EB0006081461303C06281F61203C001968770D9
:102EC000E9CFEF2CFF2009F423C18091170781601F
:102ED0008093170762C0561306C0491304C0F1104F
:102EE00002C0F801A7C04D875E87FF867C2DD98A76
:102EF000C88A6F2D89890E940B12882399F1FF20BF
:102F000089F120911707822F82958F7090E00297A8
:102F100074F0809112079091130798878F83198618
:102F2000DB86CA862C87CE0107960E94501286E067
:102F3000F801A2E1B7E001900D928A95E1F70E94B5
:102F40005B160E944D1611C0561749F14D875E87DA
:102F5000FF867C2DD98AC88A6F2D89890E940B1221
:102F600081112CC0C8010E945012EE24E394D0C0FD
:102F7000282F207F49F77C2DD98AC88A6F2D89890F
:102F80000E940D1682E197E00E94501286E0F50142
:102F900011928A95E9F70E944D16E12CB9C04913A8
:102FA000D5CFF110D3CFF8018583C8010E9450120C
:102FB00086E0F50111928A95E9F7AAC0FF2091F207
:102FC00020911707822F82958F7090E002970CF462
:102FD000AECF80911207909113079A8389831B8249
:102FE000DD82CC822E83CE0101969FCFE83CF10595
:102FF00008F04BC0EF2CFF2009F4B4CF561330C0BB
:1030000049132EC02091170720FD21C0822F8295E1
:103010008F70482F50E041155105C9F0F801258304
:103020004F30510541F08F5F982F9295907F822FFE
:103030008F70892B8583C8010E94501286E0F801A9
:10304000A2E1B7E001900D928A95E1F72AC086E0EF
:10305000F801A2E1B7E001900D928A95E1F758C01E
:103060004D875E87FF867C2DD98AC88A6F2D898916
:103070000E940B1281115BCF8091170781608093B2
:103080001707C8010E94501243C07C2DD98AC88AF4
:103090006F2D89890E940D1686E0F50111928A959F
:1030A000E9F70E944D1634C0FF2009F45BCF4D872D
:1030B0005E87FF867C2DD98AC88A6F2D89890E94F8
:1030C0000B12882309F44ECF32CF7C2DD98AC88ABF
:1030D0006F2D89890E94CE1A292F22952F702230B8
:1030E00028F49F7039F0811105C00BC0243028F4FA
:1030F0009F7049F4805E883020F0C8010E94501211
:103100009E2CE92C05C0F8019581907F99F7F9CFA5
:103110008E2D61960FB6F894DEBF0FBECDBFDF9146
:10312000CF911F910F91FF90EF90DF90CF90BF90C4
:10313000AF909F9008951F93CF93DF93CDB7DEB7E5
:103140002C970FB6F894DEBF0FBECDBF4F835887C4
:1031500069877A878B879C87CE0107960E94C7165E
:103160008823D1F09F8188852A853B85232B31F0E8
:103170008F3F31F481E09F3F19F403C081E001C02B
:1031800080E080FD47C04F81588569857A858B85B1
:103190009C850E941C163EC086E0FE013796DE012B
:1031A000119601900D928A95E1F7FF81E8856A8575
:1031B0007B856115710531F0EF3F31F481E0FF3F10
:1031C00019F403C081E001C080E080FD23C020919C
:1031D000E10630E0C9010196877099274091E00629
:1031E00050E084179507F1F1F983EA837D836C83BE
:1031F00096E0929FD001939FB00D1124AE51B94F2C
:10320000FE01319601900D929A95E1F78093E106C7
:103210000E942C1616E08091E0069091E106891735
:1032200071F1189FC00111248E51994F0E94C71649
:10323000882329F1E091E0061E9FF0011124EE5150
:10324000F94F4081518162817381848195810E940F
:103250001C168091E00690E0019687709927809374
:10326000E006D9CF0E9407121092E1061092E00604
:10327000E2E1F7E086E0DF011D928A95E9F72C96FE
:103280000FB6F894DEBF0FBECDBFDF91CF911F9177
:103290000895EF92FF921F93CF93DF939C01892BA8
:1032A00009F465C0E9012196F9011491193709F46F
:1032B0003FC0C0F4143740F4143008F053C08FEF0F
:1032C000810F823000F153C0143709F050C07901EA
:1032D000F2E0EF0EF11CFE0184910E94FE1BE7015B
:1032E0009E01E0CF133828F4113868F4103801F14A
:1032F0003EC01338B9F0143F08F039C01F77812F52
:1033000090E0926031C0FE0185919491612F6170CF
:10331000E901133018F42296992701C023960E94E0
:10332000B615DECFFE0185919491E90123961CC06C
:10333000FE01E590F490E901239684E00E94E711F4
:10334000103841F461E081E00E944512F0EAEF1A82
:10335000F6E8FF0A61E0C7010E94DD1584E00E94E3
:10336000EE11BECF812F90E00E94D115B9CFDF9131
:10337000CF911F91FF90EF9008956093680770932D
:10338000690780936A0790936B070C949E040895D5
:103390000F931F930091220110912301209124018A
:1033A00030912501602B712B822B932B609322018E
:1033B0007093230180932401909325011F910F9115
:1033C0000C94A2040F931F930091220110912301EA
:1033D00020912401309125016023712382239323BE
:1033E000609322017093230180932401909325011F
:1033F0001F910F910C94A2040F931F93009122012F
:10340000109123012091240130912501602771271B
:1034100082279327609322017093230180932401D4
:10342000909325011F910F910C94A20460E070E02D
:10343000CB010C94BD190F931F9341E050E060E065
:1034400070E08A019B0104C0000F111F221F331F6F
:103450008A95D2F7C901B8011F910F910C94BD193B
:103460000F931F9341E050E060E070E004C0440F10
:10347000551F661F771F8A95D2F780916807909134
:103480006907A0916A07B0916B078A019B01082B1D
:10349000192B2A2B3B2BC901B8011F910F910C94BA
:1034A000BD190F931F9341E050E060E070E004C04D
:1034B000440F551F661F771F8A95D2F74095509588
:1034C000609570958091680790916907A0916A074F
:1034D000B0916B078A019B01082319232A233B2300
:1034E000C901B8011F910F910C94BD190F931F933F
:1034F00041E050E060E070E004C0440F551F661FDB
:10350000771F8A95D2F78091680790916907A091FB
:103510006A07B0916B078A019B01082719272A27A0
:103520003B27C901B8011F910F910C94BD190F934E
:103530001F93009168071091690720916A073091E5
:103540006B07602B712B822B932B1F910F910C9487
:10355000BD190F931F93009168071091690720917F
:103560006A0730916B0760237123822393231F9195
:103570000F910C94BD190F931F9300916807109140
:10358000690720916A0730916B07602771278227AE
:1035900093271F910F910C94BD1908958F929F92BC
:1035A000AF92BF92DF92EF92FF920F931F93CF9350
:1035B000DF9300D000D01F92CDB7DEB78A0166231B
:1035C000D1F18090680790906907A0906A07B09049
:1035D0006B078091220190912301A0912401B09169
:1035E0002501882A992AAA2ABB2A8FE1E82EF12CE4
:1035F000D501C4010E2C04C0B695A7959795879563
:103600000A94D2F780FD06C081E0E81AF10880F73D
:10361000D12C07C0DE2CB8018E2D0E94C41C01974E
:1036200099F380E1189FF0011124E85EF84FE00F54
:10363000F11DD08209C080E1189FF0011124E85EDD
:10364000F84FE40FF11DD08009831A8369817A81D4
:103650008D2D0E94C41C0F900F900F900F900F9013
:10366000DF91CF911F910F91FF90EF90DF90BF906E
:10367000AF909F908F900895909121019179913111
:10368000F1F4382F3695369536953F30A8F5E09110
:103690002601F0912701282F277081E090E001C0DA
:1036A000880F2A95EAF7E30FF11D662319F091813F
:1036B000892B03C08095918189238183089520916E
:1036C000260130912701F90171964FEF9EE052914A
:1036D000552331F0851305C061110EC0108201C061
:1036E000492F9150A0F7662339F0F901E40FF11D3D
:1036F00047FDFA95828308950895E0912601F0919F
:10370000270180E1DF011D928A95E9F708958091F4
:103710008107089590918107892B809381070895EF
:103720008095909181078923809381070895109255
:103730008107089590918007892B809380070895D1
:103740008095909180078923809380070895109237
:103750008007089580936C07089510926C07089570
:103760008091260190912701FC0131969C01205FF8
:103770003F4F80E0919191118F5FE217F307D1F7EE
:103780000895E0912601F0912701809181078083BF
:10379000E0912601F0912701908180918007892B8B
:1037A0008083E0912601F091270180917F07809529
:1037B000908189238083E0912601F09127018091F7
:1037C0007E07809590818923808380916C07882370
:1037D00061F0E0912601F09127019081892B80838F
:1037E0000E94B01B811110926C078091260190916C
:1037F00027010C94BA1008950C945C11882341F0B1
:10380000EFE9FFE03197F1F700C000008150F6CFFB
:10381000A895089582E084BD93E095BD9DE797BD8E
:1038200080936E0008952FB7F8948091820790914D
:103830008307A0918407B09185072FBF08959C014D
:103840004FB7F8948091820790918307A0918407E5
:10385000B09185074FBF821B930B089578941F92F8
:103860000F920FB60F9211248F939F93AF93BF9334
:103870008091820790918307A0918407B09185077A
:103880000196A11DB11D8093820790938307A09399
:103890008407B0938507BF91AF919F918F910F904F
:1038A0000FBE0F901F90189580911001823060F428
:1038B0000E9407128FE19EE40197F1F700C000001B
:1038C0000E94F00D0E94651CFFCF9EE088E10FB6BC
:1038D000F894A895809360000FBE909360000895BF
:1038E0001F920F920FB60F9211248F939F93AF9355
:1038F000BF9380918607813099F4809182079091DF
:103900008307A0918407B09185078096A11DB11D02
:103910008093820790938307A0938407B0938507D1
:10392000BF91AF919F918F910F900FBE0F901F90FD
:103930001895809106088430E1F081E08093860735
:1039400029E488E190E00FB6F894A8958093600090
:103950000FBE209360000E94F80383B7817F8460CC
:1039600083BF83B7816083BF7894889583B78E7F48
:1039700083BF089580910608853011F40E94CC0C15
:103980000E94651C0C94FA03CF93C82FCB010E94B0
:10399000F300803819F480E090E00CC0EC2FF0E0E8
:1039A000FE2FEE27E050F04AE80FF11DE80FF11D61
:1039B00085919491CF9108959091D307992329F0FF
:1039C000892F880F880F890F02C0843140F4662345
:1039D00011F086958695811105C081E0089584E1F6
:1039E0006111F7CF0895803F08F44CC0803F11F477
:1039F0009FEF03C0813F21F491E09093E1073BC02A
:103A0000823F11F49FEF03C0833F21F491E0909334
:103A1000E00731C0893F70F421E030E09CE0980F6E
:103A200001C0220F9A95EAF79091DF07292B209386
:103A3000DF0721C0893F11F491E003C08A3F21F4E0
:103A40009FEF9093E20717C08B3F11F49FEF03C0E5
:103A50008C3F21F491E09093E3070DC021E030E02A
:103A600093E0980F01C0220F9A95EAF79091D3073F
:103A7000292B2093D307895F843020F41092D50737
:103A80001092D4070895803F08F473C0803F49F432
:103A90001092D9078091E10787FF6BC01092E10770
:103AA0000895813F39F41092DA078091E1071816E2
:103AB000ACF30895823F49F41092D7078091E00754
:103AC00087FF57C01092E0070895833F39F41092A2
:103AD000D8078091E0071816ACF30895893F88F461
:103AE000845F21E030E0A90102C0440F551F8A9590
:103AF000E2F7CA0180959091DF0789238093DF0761
:103B00000895893F49F41092DD078091E207181665
:103B100084F51092E20708958A3F39F41092DE0787
:103B20008091E20787FF25C0F4CF8B3F49F41092C4
:103B3000DB078091E30787FF1CC01092E30708951D
:103B40008C3F39F41092DC078091E3071816ACF330
:103B500008958D5F21E030E0A90102C0440F551F98
:103B60008A95E2F7CA0180959091D30789238093C3
:103B7000D30708958FED97E00E94C5100E94131C93
:103B8000909389078093880708950F931F93CF938D
:103B9000DF9380918C078823D9F180918A079091D7
:103BA0008B070E941F1C2091290130E0281739073C
:103BB00078F50E94821F8F70825E809329010DE844
:103BC00017E0C0E0D0E090E0F80181918F018823F8
:103BD00069F0CC2319F08C2F9D2F02C084EF90E563
:103BE0006091280170E00E94B61591E02196C634DC
:103BF000D10551F72091280181E082278093280187
:103C000090938C070E94131C90938B0780938A07D4
:103C100080918807909189070E941F1CAC019091A8
:103C2000D607923019F028E230E002C025E030E0FB
:103C30004217530708F4B1C02091E0071091E10743
:103C4000D091E207C091E307822F812B8D2B8C2B23
:103C500019F41092D607A1C0923020F49F5F909380
:103C6000D6079BC0809187078F5F809387078D3031
:103C700008F475C08091210187FD02C080E001C079
:103C800085E080938707121654F48091D8078F5FE0
:103C90008093D80760E00E94DC1C8093E00780914D
:103CA000E00787FF0BC08091D7078F5F8093D7070E
:103CB00060E00E94DC1C81958093E007111654F4AB
:103CC0008091DA078F5F8093DA0760E00E94DC1C46
:103CD0008093E1078091E10787FF0BC08091D907AE
:103CE0008F5F8093D90760E00E94DC1C81958093F0
:103CF000E1071D1654F48091DD078F5F8093DD0787
:103D000061E00E94DC1C8093E2078091E20787FF5C
:103D10000BC08091DE078F5F8093DE0761E00E9419
:103D2000DC1C81958093E2071C1654F48091DC071B
:103D30008F5F8093DC0761E00E94DC1C8093E307C7
:103D40008091E30787FF0BC08091DB078F5F809333
:103D5000DB0761E00E94DC1C81958093E307D09132
:103D6000E207C091E3078091D4079091D5070196AF
:103D70009093D5078093D40705972CF41092E2070F
:103D80001092E30704C01092D5071092D4070E9446
:103D9000BA1DD093E207C093E307DF91CF911F9143
:103DA0000F910895EFEDF7E085E0DF011D928A9510
:103DB000E9F71092D307089580E00895CF9390918A
:103DC0007D07911135C0C82F8091E407882319F031
:103DD000813051F02AC0E0912601F09127018081C5
:103DE0008252823030F508C0E0912601F09127011F
:103DF000808182528230A0F48C2F0E94940981111C
:103E00000AC0C13151F40E942C039091210180E13C
:103E100089278093210191E001C090E0917009C051
:103E20008C2F0E94DC1E91E004C01092E40701C0B8
:103E300090E0892FCF910895AA1BBB1B51E107C0C9
:103E4000AA1FBB1FA617B70710F0A61BB70B881F2A
:103E5000991F5A95A9F780959095BC01CD010895B9
:103E6000EE0FFF1F0590F491E02D09948F929F9221
:103E7000AF92BF92CF92DF92EF92FF92CF93DF93F8
:103E8000EC01688179818A819B81611571058105C9
:103E9000910521F464E279ED8BE597E02DE133EFB4
:103EA00041E050E00E94882249015A019B01AC0187
:103EB000A7EAB1E40E94A7226B017C01ACEEB4EF4B
:103EC000A50194010E94B522DC01CB018C0D9D1D42
:103ED000AE1DBF1DB7FF03C00197A109B04888837D
:103EE0009983AA83BB839F77DF91CF91FF90EF9057
:103EF000DF90CF90BF90AF909F908F9008950E94D9
:103F0000361F089580E091E00E94361F0895A0E0DA
:103F1000B0E08093000190930101A0930201B0935F
:103F200003010895FB01DC0104C08D91019080190B
:103F300021F441505040C8F7881B990B0895AEE01A
:103F4000B0E0E5EAFFE10C94C8220D891E8986E005
:103F50008C831A8309838FEF9FE79E838D83AE0145
:103F6000475E5F4F6F89788DCE0101960E94C11F19
:103F7000EF81F885E00FF11F10822E96E4E00C949B
:103F8000E422ABE0B0E0E7ECFFE10C94BA226C0174
:103F90007B018A01FC0117821682838181FFCCC1DB
:103FA000CE0101963C01F6019381F70193FD8591C5
:103FB00093FF81917F01882309F4BAC1853239F4D6
:103FC00093FD859193FF81917F01853229F4B6019C
:103FD00090E00E94B821E7CF912C212C312CFFE1F9
:103FE000F315D8F08B3279F038F4803279F08332DF
:103FF000A1F4232D20611DC08D3261F0803369F45E
:10400000232D216016C0832D8260382EE32DE460BD
:104010003E2E2AC0F32DF8601DC037FC2DC020EDC8
:10402000280F2A3040F08E32B9F436FC81C1232D9E
:104030002064322E19C036FE06C08AE0989E200DFC
:104040001124922E11C0EAE02E9E200D1124222E62
:10405000F32DF0623F2E08C08C3621F4832D80684A
:10406000382E02C0883641F4F70193FD859193FF05
:1040700081917F018111B3CF982F9F7D955493300B
:1040800028F40C5F1F4F9FE399830DC0833631F0F6
:10409000833771F0833509F059C021C0F801808160
:1040A00089830E5F1F4F88248394912C530113C082
:1040B0002801F2E04F0E511CF801A080B18036FEBD
:1040C00003C0692D70E002C06FEF7FEFC5010E9451
:1040D000AD214C018201F32DFF773F2E16C0280140
:1040E00022E0420E511CF801A080B18036FE03C0D0
:1040F000692D70E002C06FEF7FEFC5010E94A22121
:104100004C01F32DF0683F2E820133FC1BC0822D41
:1041100090E088169906B0F4B60180E290E00E9423
:10412000B8212A94F4CFF50137FC859137FE8191AF
:104130005F01B60190E00E94B82121102A9421E08D
:10414000821A91088114910471F7E8C0843611F045
:10415000893641F5F80137FE07C06081718182819F
:1041600093810C5F1F4F08C060817181072E000C86
:10417000880B990B0E5F1F4FF32DFF763F2E97FF95
:1041800009C090958095709561957F4F8F4F9F4F97
:10419000F0683F2E2AE030E0A3010E94F421882E2F
:1041A000861845C0853731F4232D2F7EB22E2AE0A4
:1041B00030E025C0932D997FB92E8F36C1F018F4C9
:1041C000883579F0B5C0803719F0883721F0B0C054
:1041D000E92FE061BE2EB4FE0DC0FB2DF460BF2EB2
:1041E00009C034FE0AC0292F2660B22E06C028E07E
:1041F00030E005C020E130E002C020E132E0F8010B
:10420000B7FE07C060817181828193810C5F1F4F6F
:1042100006C06081718180E090E00E5F1F4FA301B6
:104220000E94F421882E8618FB2DFF773F2E36FE44
:104230000DC0232D2E7FA22E891458F434FE0BC0FE
:1042400032FC09C0832D8E7EA82E05C0B82CA32C6D
:1042500003C0B82C01C0B92CA4FE0FC0FE01E80DAC
:10426000F11D8081803321F49A2D997EA92E09C0F9
:10427000A2FE06C0B394B39404C08A2D867809F0D8
:10428000B394A3FC11C0A0FE06C0B21488F4280C9D
:10429000922C9B180EC0B21460F4B60180E290E03C
:1042A0000E94B821B394F7CFB21418F42B1802C0AF
:1042B000982C212CA4FE10C0B60180E390E00E944F
:1042C000B821A2FE17C0A1FC03C088E790E002C09D
:1042D00088E590E0B6010CC08A2D867859F0A1FEE1
:1042E00002C08BE201C080E2A7FC8DE2B60190E043
:1042F0000E94B821891438F4B60180E390E00E944E
:10430000B8219A94F7CF8A94F301E80DF11D8081CA
:10431000B60190E00E94B8218110F5CF222009F467
:1043200042CEB60180E290E00E94B8212A94F6CFF6
:10433000F6018681978102C08FEF9FEF2B96E2E115
:104340000C94D622FC010590615070400110D8F702
:10435000809590958E0F9F1F0895FC0161507040CD
:1043600001900110D8F7809590958E0F9F1F0895AA
:104370000F931F93CF93DF93FB01238121FD03C094
:104380008FEF9FEF2CC022FF16C0468157812481FA
:1043900035814217530744F4A081B1819D012F5FFD
:1043A0003F4F318320838C93268137812F5F3F4F8E
:1043B0003783268314C08B01EC01FB010084F18557
:1043C000E02D0995892BE1F6D80116968D919C91E7
:1043D0001797019617969C938E931697CE01DF91AF
:1043E000CF911F910F910895FA01AA27283051F11A
:1043F000203181F1E8946F936E7F6E5F7F4F8F4F16
:104400009F4FAF4FB1E03ED0B4E03CD0670F781F74
:10441000891F9A1FA11D680F791F8A1F911DA11D59
:104420006A0F711D811D911DA11D20D009F4689492
:104430003F912AE0269F11243019305D3193DEF63A
:10444000CF010895462F4770405D4193B3E00FD0F0
:10445000C9F7F6CF462F4F70405D4A3318F0495DDB
:1044600031FD4052419302D0A9F7EACFB4E0A695BE
:104470009795879577956795BA95C9F700976105E0
:10448000710508959B01AC010A2E06945795479536
:1044900037952795BA95C9F7620F731F841F951F2B
:1044A000A01D0895F999FECF92BD81BDF89A992774
:1044B00080B50895A8E1B0E042E050E00C947A2283
:1044C000262FF999FECF92BD81BDF89A019700B4CD
:1044D000021639F01FBA20BD0FB6F894FA9AF99A6D
:1044E0000FBE08950196272F0E9461220C9460222E
:1044F000DC01CB01FC01F999FECF06C0F2BDE1BDA4
:10450000F89A319600B40D9241505040B8F7089592
:10451000052E97FB1EF400940E949F2257FD07D0A2
:104520000E94F12207FC03D04EF40C949F22509578
:104530004095309521953F4F4F4F5F4F089590958F
:104540008095709561957F4F8F4F9F4F08950E9482
:104550001323A59F900DB49F900DA49F800D911DD6
:1045600011240895B7FF0C94A7220E94A722821B52
:10457000930B08952F923F924F925F926F927F928A
:104580008F929F92AF92BF92CF92DF92EF92FF9263
:104590000F931F93CF93DF93CDB7DEB7CA1BDB0B0F
:1045A0000FB6F894DEBF0FBECDBF09942A883988B4
:1045B00048885F846E847D848C849B84AA84B984BB
:1045C000C884DF80EE80FD800C811B81AA81B981C7
:1045D000CE0FD11D0FB6F894DEBF0FBECDBFED01DB
:1045E0000895A1E21A2EAA1BBB1BFD010DC0AA1F34
:1045F000BB1FEE1FFF1FA217B307E407F50720F04C
:10460000A21BB30BE40BF50B661F771F881F991FC6
:104610001A9469F760957095809590959B01AC010F
:10462000BD01CF010895A29FB001B39FC001A39F18
:10463000700D811D1124911DB29F700D811D1124DB
:08464000911D0895F894FFCFCD
:1046480001000000FB01010523069E050405550530
:10465800010C730E010401C60A490B2C0B040BDD77
:104668000A01010000006D07011E09010920091057
:1046780009400980032003400C0403100F400C403C
:10468800030203040301030803800F010F020F1044
:104698000F2041542B424C45484944434F4E5452F5
:1046A8004F4C4B45593D25640A0041542B424C451B
:1046B8004849444D4F5553454D4F56453D25642C6B
:1046C80025642C25642C25640A00425554544F4E09
:1046D8003D25640A0041542B424C454B4559424FF5
:1046E800415244434F44453D0030302D30300A009C
:1046F800253032582D30302D253032582D25303286
:10470800582D253032582D253032582D2530325825
:104718002D253032580A004552524F520041542B31
:10472800464143544F525952455345540A00415447
:104738002B424C45484944454E3D0041542B474186
:10474800504445564E414D453D0041542B4741503C
:10475800474554434F4E4E0A0041542B474150445D
:10476800454C424F4E44530A0041540A0041545F9D
:104778004F4B004154453D300A0059443637424CAE
:10478800450041542B4741505354415254414456DB
:104798000A0041542B42415544524154453D373655
:1047A8003830300A0041542B474154544348415251
:1047B8003D310A0041542B47415454414444534528
:1047C80052564943453D555549443D363135390AD8
:1047D8000041542B47415454414444434841523DBD
:1047E800555549443D3078324131392C50524F505B
:1047F8004552544945533D31362C4D494E5F4C4541
:104808004E3D312C56414C55453D390A0041545ACC
:104818000A0041542B48574144433D360A0041544D
:104828002B47415454434841523D312C0041542BAD
:10483800424C4547455450454552414444520A006C
:1048480041542B474150444953434F4E4E454354DE
:104858000A0041542B474150534554414456444162
:1048680054413D30322D30312D3000340A00BDB670
:10487800B3ADAAA7A4A19D404D3639C7047A044414
:10488800040B049E03B703D003E903040A26880334
:104898007C035403260359004400360037004200C5
:1048A8004C004500200028005500530042005F00DE
:1048B80044004D0032005200290000000A0359004C
:1048C80044004B00420000000403090409026D0083
:1048D800040100A0FA0904000001030101000921F4
:1048E80011010001224000070581030800010904A5
:1048F80001000103010200092111010001224D00FC
:1049080007058203080001090402000103000000F2
:104918000921110100012236000705830308000A56
:10492800090403000103000000092111010001220C
:10493800390007058403100001120110010000006E
:1049480008EDFE672101000102000105010906A129
:1049580001050719E029E71500250195087501816A
:10496800020508190129059505750191029501753A
:104978000391010507190029771500250195787518
:10498800018102C005010980A101850216010026E6
:10499800B7001A01002AB700751095018100C005FB
:1049A8000C0901A1018503160100269C021A0100C9
:1049B8002A9C02751095018100C005010902A10118
:1049C8000901A10005091901290515002501950509
:1049D80075018102950175038101050109300931CD
:1049E8001581257F95027508810609381581257F6F
:1049F800950175088106050C0A38021581257F95F1
:104A08000175088106C0C005010906A1010507193D
:104A1800E029E715002501950875018102950175C2
:104A28000881010508190129059505750191029567
:104A380001750391010507190029FF150026FF00DC
:084A4800950675088100C0000D
:106000008800EA40E940E24004000500060007007D
:10601000080009000A000B000C000D000E000F0024
:1060200010001100120013001400150016001700D4
:10603000180019001A001B001C001D001E001F0084
:106040002000210022002300240025002600270034
:10605000280029002A002B002C002D002E002F00E4
:106060003000310032003300340035003600370094
:10607000380039003A003B003C003D003E003F0044
:1060800040004100420043004400450046004700F4
:10609000480049004A004B004C004D004E004F00A4
:1060A0005000510052005300540055005600570054
:1060B000580059005A005B005C005D005E005F0004
:1060C0006000610062006300640065008500670095
:1060D000680069006A006B006C006D006E006F0064
:1060E0007000710072007300890087008A008B00C5
:1060F000E000E100E200E300E400E500E600E70084
:106100008800EA40E940E24004000500060007007C
:10611000080009000A000B000C000D000E000F0023
:1061200010001100120013001400150016001700D3
:10613000180019001A001B001C001D001E001F0083
:106140002000210022002300240025002600270033
:10615000280029002A002B002C002D002E002F00E3
:106160003000310032003300340035003600370093
:10617000380039003A003B003C003D003E003F0043
:1061800040004100420043004400450046004700F3
:10619000480049004A004B004C004D004E004F00A3
:1061A0005000510052005300540055005600570053
:1061B000580059005A005B005C005D005E005F0003
:1061C0006000610062006300640065008500670094
:1061D000680069006A006B006C006D006E006F0063
:1061E0007000710072007300890087008A008B00C4
:1061F000E000E100E200E300E400E500E600E70083
:106200001100010001000100010001000100010076
:106210000100010001000100010001000100010076
:106220000100010001000100010001000100010066
:106230000100010001000100010001000100010056
:106240000100010001000100010001000100010046
:106250000100010001000100010001000100010036
:106260000100010001000100010001000100010026
:106270000100010001000100010001000100010016
:106280000100010001000100010001000100010006
:1062900001000100010001000100010001000100F6
:1062A00001000100010001000100010001000100E6
:1062B00001000100010001000100010001000100D6
:1062C00001000100010001000100010001000100C6
:1062D00001000100010001000100010001000100B6
:1062E00001000100010001000100010001000100A6
:1062F0000100010001000100010001000100010096
:106300000100010001000100010001000100010085
:106310000100010001000100010001000100010075
:106320000100010001000100010001000100010065
:106330000100010001000100010001000100010055
:106340000100010001000100010001000100010045
:106350000100010001000100010001000100010035
:106360000100010001000100010001000100010025
:106370000100010001000100010001000100010015
:106380000100010001000100010001000100010005
:1063900001000100010001000100010001000100F5
:1063A00001000100010001000100010001000100E5
:1063B00001000100010001000100010001000100D5
:1063C00001000100010001000100010001000100C5
:1063D00001000100010001000100010001000100B5
:1063E00001000100010001000100010001000100A5
:1063F0000100010001000100010001000100010095
:106400000000010001000100010001000100010085
:106410000100010001000100010001000100010074
:106420000100010001000100010001000100010064
:106430000100010001000100010001000100010054
:106440000100010001000100010001000100010044
:106450000100010001000100010001000100010034
:106460000100010001000100010001000100010024
:106470000100010001000100010001000100010014
:106480000100010001000100010001000100010004
:1064900001000100010001000100010001000100F4
:1064A00001000100010001000100010001000100E4
:1064B00001000100010001000100010001000100D4
:1064C00001000100010001000100010001000100C4
:1064D00001000100010001000100010001000100B4
:1064E00001000100010001000100010001000100A4
:1064F0000100010001000100010001000100010094
:106500000000010001000100010001000100010084
:106510000100010001000100010001000100010073
:106520000100010001000100010001000100010063
:106530000100010001000100010001000100010053
:106540000100010001000100010001000100010043
:106550000100010001000100010001000100010033
:106560000100010001000100010001000100010023
:106570000100010001000100010001000100010013
:106580000100010001000100010001000100010003
:1065900001000100010001000100010001000100F3
:1065A00001000100010001000100010001000100E3
:1065B00001000100010001000100010001000100D3
:1065C00001000100010001000100010001000100C3
:1065D00001000100010001000100010001000100B3
:1065E00001000100010001000100010001000100A3
:1065F0000100010001000100010001000100010093
:106600000100010001000100010001000100010082
:106610000100010001000100010001000100010072
:106620000100010001000100010001000100010062
:106630000100010001000100010001000100010052
:106640000100010001000100010001000100010042
:106650000100010001000100010001000100010032
:106660000100010001000100010001000100010022
:106670000100010001000100010001000100010012
:106680000100010001000100010001000100010002
:1066900001000100010001000100010001000100F2
:1066A00001000100010001000100010001000100E2
:1066B00001000100010001000100010001000100D2
:1066C00001000100010001000100010001000100C2
:1066D00001000100010001000100010001000100B2
:1066E00001000100010001000100010001000100A2
:1066F0000100010001000100010001000100010092
:106700000000010001000100010001000100010082
:106710000100010001000100010001000100010071
:106720000100010001000100010001000100010061
:106730000100010001000100010001000100010051
:106740000100010001000100010001000100010041
:106750000100010001000100010001000100010031
:106760000100010001000100010001000100010021
:106770000100010001000100010001000100010011
:106780000100010001000100010001000100010001
:1067900001000100010001000100010001000100F1
:1067A00001000100010001000100010001000100E1
:1067B00001000100010001000100010001000100D1
:1067C00001000100010001000100010001000100C1
:1067D00001000100010001000100010001000100B1
:1067E00001000100010001000100010001000100A1
:1067F0000100010001000100010001000100010091
:00000001FF
