:100000000C943F020C9486020C9486020C94860297
:100010000C9486020C9486020C9486020C94860240
:100020000C9486020C9486020C940A120C94DC1236
:100030000C9440210C9486020C9486020C94860247
:100040000C9486020C94A3280C9486020C948602CD
:100050000C9486020C94A8200C9486020C948602C0
:100060000C9486020C9486020C9486020C948602F0
:100070000C9486020C9486020C9486020C948602E0
:100080000C9486020C9486020C9486020C948602D0
:100090000C9486020C9486020C9486020C948602C0
:1000A0000C9486020C9486020C94860274037903E5
:1000B0009F039B03AD03A903BB03B7036A066A064C
:1000C00078068106810681068C06940649136B1317
:1000D00059146B135914B013D313591428143B1427
:1000E00078167816A616A6160217201794199419D2
:1000F000421794193D183D18F8180E1994198019D3
:10010000291E1F20212223242526272D2E352A2B88
:10011000141A0815171C180C12132F30314C3904FF
:100120001607090A0B0D0E0F333428324B791D1BAD
:100130000619051110363738647D524E787B7A8067
:1001400065802C807E807F7C50514F001060FF6E58
:10015000645A503C32281E140A968C82786E645A77
:1001600050463C32281E14783C1E1E140A0500001E
:1001700000000101010202030405050607090A0B3C
:100180000C0E0F1112141517191B1D1F21232528E2
:100190002A2C2F313436393B3E414346494C4F528D
:1001A00055585A5D6164676A6D707376797C7F8398
:1001B00086898C8F9295989B9EA2A5A7AAADB0B375
:1001C000B6B9BCBEC1C4C6C9CBCED0D3D5D7DADC94
:1001D000DEE0E2E4E6E8EAEBEDEEF0F1F3F4F5F66A
:1001E000F8F9FAFAFBFCFDFDFEFEFEFFFFFFFFFF44
:1001F000FFFFFEFEFEFDFDFCFBFAFAF9F8F6F5F452
:10020000F3F1F0EEEDEBEAE8E6E4E2E0DEDCDAD78B
:10021000D5D3D0CECBC9C6C4C1BEBCB9B6B3B0ADC0
:10022000AAA7A5A29E9B9895928F8C898683807C95
:10023000797673706D6A6764615D5A5855524F4C98
:10024000494643413E3B393634312F2C2A28252359
:10025000211F1D1B1917151412110F0E0C0B0A0963
:1002600007060505040302020101010000001E0348
:100270005900440050003600300020004B0065005B
:10028000790062006F0061007200640000000A03E0
:10029000590041004E004700000004030904090210
:1002A0006D00040100A032090400000103010100F7
:1002B0000921110100012240000705810308000106
:1002C00009040100010301020009211101000122BA
:1002D0004D000705820308000A090402000103001B
:1002E0000000092111010001221B000705830308FA
:1002F000000A0904030001030000000921110100A4
:1003000001223900070584032000011201100100B9
:10031000000008EDFE606001000102000105010916
:1003200006A101050719E029E715002501950875C3
:1003300001810205081901290595057501910295AC
:1003400001750391010507190029F715002501958D
:10035000F875018102C0050C0901A1018503160190
:1003600000269C021A01002A9C027510950181004A
:10037000C005010902A1010901A10005091901290E
:10038000051500250195057501810295017503810B
:10039000010501093009311581257F950275088114
:1003A0000609381581257F950175088106050C0A17
:1003B00038021581257F950175088106C0C00501A9
:1003C0000906A101050719E029E71500250195088F
:1003D000750181029501750881010508190129053A
:1003E00095057501910295017503910105071900A5
:1003F00029FF150026FF00950675088100C0000042
:1004000000000000000000000101010202020303DD
:10041000040405050606070808090A0B0B0C0D0E57
:100420000F10111213151617191A1B1D1E20222347
:100430002527292B2D2F313335383A3D3F4244476C
:100440004A4D505356595C5F6266696C7074777B95
:100450007E82868A8E9195999DA1A5A9ADB0B4B8EA
:10046000BCC0C3C7CBCED2D5D8DBDFE2E4E7EAEC31
:10047000EFF1F3F5F7F8FAFBFCFDFEFFFFFF1124A7
:100480001FBECFEFDAE0DEBFCDBF04B603FE27C04C
:100490008091100390911103A0911203B091130366
:1004A0008730904BA740B04BD1F4109210031092BC
:1004B0001103109212031092130314BE84B7877FA6
:1004C00084BF0FB6F894A8958091600088618093EE
:1004D0006000109260000FBEE0E0F8E3099511E0C3
:1004E000A0E0B1E0E4ECF7E502C005900D92A03485
:1004F000B107D9F723E0A0E4B1E001C01D92A0311B
:10050000B207E1F70E94AB0D0C94E02B0C940000B5
:100510000FB680959AE0F8947AE57A95F1F708F0AD
:10052000299A08F4299886959A95B1F70FBE0895EF
:100530002FE0929FF0011124E80FF11DE050FF4FD2
:100540009491892F8F7092959F700895CF93C82FA3
:10055000CB010E949802282F30E080E1989FA001F3
:100560001124422B532B4038510519F480E090E0C0
:1005700021C09770E92FF0E088E0C89FE00DF11DE1
:10058000112484E0EE0FFF1F8A95E1F7E20FF31FBD
:10059000EE0FFF1FE050F84925913491C9018B7F80
:1005A000833E910531F480914101882311F020E0D0
:1005B00030E0C901CF9108950F931F93CF938C0121
:1005C000C62FFC0192816230A9F128F4662369F0FC
:1005D0006130C9F078C06C3009F45FC06D3009F447
:1005E0006AC06B3009F06FC046C0992371F00E9459
:1005F000CB1F827231F00E94CB1F80FD02C085E3C9
:1006000010C089E20EC0911105C0809140010E9486
:1006100002160DC00E94CB1F82FF02C08DE301C0F5
:1006200081E280934001809140010E94AA150E94BE
:10063000082049C0992309F446C00E94CB1F80FFBF
:100640000DC00E94B119FFEF20E782E0F150204079
:100650008040E1F700C000000E94CE208FEF0E9492
:10066000CE1F0E9408208FEF0E94D41F0E940820F6
:100670000E94B11928C0992331F18091410191E084
:10068000982790934101992319F081E090E002C0EE
:1006900080E090E00E94300616C09923A1F080917E
:1006A0007C01882321F010927C012B980CC081E002
:1006B00080937C0108C0992331F08091730191E00F
:1006C000982790937301F8018281882309F45DC013
:1006D0008C2F90E0FC013397E830F10508F055C00D
:1006E000EA5AFF4F0C94852BCF911F910F910C94D8
:1006F000C4090E94CB1F81FF19C09091BD02892FB0
:100700008695815C8F739178882319F0880F892BE7
:1007100002C0892F82638093BD028091BD028695BD
:100720008F73CF911F910F910C943709CF911F9127
:100730000F910C9477090E94CB1F81FF05C0CF91C8
:100740001F910F910C94AE08CF911F910F910C94B3
:1007500096080E94CB1F81FF05C0CF911F910F917A
:100760000C94E808CF911F910F910C94CD080E9432
:10077000CB1F81FF05C0CF911F910F910C941D09D4
:10078000CF911F910F910C940209CF911F910F915E
:10079000089584B18F7C84B987B18F7387B95798D6
:1007A000089580E885BF85BF0E9481090E94C90322
:1007B00080B38C7080BB81B3836F81BB6E98769A57
:1007C0008AB1807D8AB98BB18F628BB984B18E7307
:1007D00084B985B1816C85B9ECE4F1E0A2E4B1E0C3
:1007E000119211921D921D9281E0E635F807C1F732
:1007F0000895AF92BF92DF92EF92FF920F931F93F3
:10080000CF93DF931F92CDB7DEB7F2E4EF2EF1E086
:10081000FF2E870140E0DD24D394423061F018F4CC
:10082000413039F004C0433041F0443041F0259A62
:1008300007C03E9A05C03F9A03C0579A01C0249A48
:1008400080EA8A95F1F783B18295869586958370C3
:100850008D2580FBAA24A0F8B12C669903C082E004
:1008600090E002C080E090E0BC016A297B292FB1B2
:10087000022E000C330B20953095C9018827990F63
:10088000881F9927880F991F880F991F862B972BF0
:100890007E9903C0E8E0F0E002C0E0E0F0E08E2BDB
:1008A0009F2B7D9903C0E0E1F0E002C0E0E0F0E0C2
:1008B0008E2B9F2B189903C020E230E002C020E06D
:1008C00030E0BC01622B732B23B1022E000C330BE2
:1008D00020953095C9018827990F881F992736E000
:1008E000880F991F3A95E1F7862B972B489903C0FB
:1008F000E0E8F0E002C0E0E0F0E08E2B9F2B4999A9
:1009000003C0E0E0F1E002C0E0E0F0E08E2B9F2BBE
:100910004A9903C060E072E002C060E070E0862B9C
:10092000972B4B9903C020E034E002C020E030E078
:10093000822B932B4D9903C0E0E0F8E002C0E0E089
:10094000F0E08E2B9F2B7C9903C060E070E102C029
:1009500060E070E0862B972B799903C020E030E2AD
:1009600002C020E030E0822B932B789903C020E076
:1009700030E402C020E030E0822B932BD8012D918F
:100980003C9111972817390729F08D939C9385E0A6
:100990008093000149830E94C90349814F5F0E5F24
:1009A0001F4F453009F039CF809100018823C9F0ED
:1009B000815080930001882339F0EFE9FFE03197FF
:1009C000F1F700C000000DC0ECE4F1E0D7018D911B
:1009D0009D917D0181939193BCE4EB16B1E0FB0600
:1009E000A9F781E00F90DF91CF911F910F91FF90B8
:1009F000EF90DF90BF90AF900895E82FF0E0EE0FFA
:100A0000FF1FE45BFE4F8081918108950895549A01
:100A10005C98A6E5B1E080E0E82FE695F0E0E659C5
:100A2000FF4FFE2FEE27282F217030E0E20FF31F3B
:100A3000459154914D938F5F883071F7089590914F
:100A4000BD0290FD2DC08230A9F08330E9F08130E5
:100A500039F580E090E02FEFFC01EB53FD4F21834F
:100A600003968C339105C1F764E170E085EC92E068
:100A70000C944507E5ECF2E08FEF8083339693E02A
:100A8000E130F907D1F7F0CF80E090E02FEFFC01E3
:100A9000EB53FD4F228303968C339105C1F7E4CFCE
:100AA000811101C05C9A08959091BD0290FD2AC009
:100AB0008230A1F08330D9F0813021F580E090E0E0
:100AC000FC01EB53FD4F118203968C339105C1F766
:100AD00064E170E085EC92E00C944507E5ECF2E00F
:100AE0001082339683E0E130F807D1F7F1CF80E050
:100AF00090E0FC01EB53FD4F128203968C3391057D
:100B0000C1F7E6CF811101C05C980895EF92FF9282
:100B10000F931F93CF9396E5E92E91E0F92EC0E055
:100B2000082F10E0F70191917F0180EF890F83304A
:100B300078F4980102C0359527958A95E2F720FF51
:100B400004C08C2F0E941F0503C08C2F0E945405E7
:100B5000CF5FC83039F7CF911F910F91FF90EF9081
:100B600008958F929F92AF92BF92EF92FF920F9350
:100B70001F93CF934B015C0106E511E0C0E0EE242A
:100B8000E394F12CF80181918F019FEF980F97303A
:100B9000D0F4970102C0220F331F8A95E2F7C901F2
:100BA000092E000CAA0BBB0B88219921AA21BB217D
:100BB000892B8A2B8B2B21F08C2F0E941F0503C0C1
:100BC0008C2F0E945405CF5FC830E1F6CF911F9162
:100BD0000F91FF90EF90BF90AF909F908F900895EE
:100BE0008F929F92AF92BF92EF92FF920F931F93BB
:100BF000CF934B015C0106E511E0C0E0EE24E394E5
:100C0000F12CF80181918F0197EF980F9730D8F46C
:100C10008850970102C0220F331F8A95E2F7C9015D
:100C2000092E000CAA0BBB0B88219921AA21BB21FC
:100C3000892B8A2B8B2B21F08C2F0E941F0503C040
:100C40008C2F0E945405CF5FC830D9F6CF911F91E9
:100C50000F91FF90EF90BF90AF909F908F9008956D
:100C6000EF92FF920F931F93CF9396E5E92E91E0B9
:100C7000F92EC0E0082F10E0F70191917F018BEE73
:100C8000890F883078F4980102C0359527958A95A8
:100C9000E2F720FF04C08C2F0E941F0503C08C2F99
:100CA0000E945405CF5FC83039F7CF911F910F9143
:100CB000FF90EF900895CF93C82F0E9404288C2FA7
:100CC00090E0FC013197E830F105D8F5E25AFF4F8A
:100CD0000C94852B0E942D280E946E280E949B2830
:100CE000EC2FF0E0E55BFE4F8491CF910C943D2812
:100CF0000E946E280E949B280E9433285E98CF9104
:100D000008950E942D280E946E280E94952886E052
:100D10008C1BCF910C94A0280E942D280E9468283B
:100D20000E949B2880E007C00E942D280E9468280E
:100D30000E949B2881E00E948B2881E0CF910C9437
:100D40008F280E946E280E949B2880E00E943D28E8
:100D5000CF910C943328569A08955E9808955E9A20
:100D600008951F93CF93DF9300D000D01F92CDB78B
:100D7000DEB7162F0E9446206093780170937901A8
:100D800080937A0190937B0180910F0380FF20C0B4
:100D90008E7F8E3041F4112331F080E20E94922840
:100DA00080E10E94642880910F038E7F803181F45E
:100DB000112371F080E20E94922880E10F900F9041
:100DC0000F900F900F90DF91CF911F910C945428AA
:100DD0000F900F900F900F900F90DF91CF911F9178
:100DE000089580915E018F5F80935E01813510F0E0
:100DF0000C94D50B089508950895089585B78068DB
:100E000085BF85B7806885BF219A229A2A98089560
:100E100085B182FB882780F991E0892708952A9A75
:100E200008952A98089525B1342F3095232335B19C
:100E3000432B3FB7F894FC01680F791FE617F707BB
:100E400089F0819198E045B9000000C087FF25B97D
:100E5000880F000000C000C000C025B900C09A95EE
:100E600091F7ECCF3FBF089524B1242B24B99B0107
:100E7000220F331F620F731F0E94130787EC90E04D
:100E80000197F1F700C00000089548E00C94340782
:100E9000EF92FF920F931F93CF93DF9300D000D078
:100EA0001F92CDB7DEB7062F142F7901443008F416
:100EB00014E0BC0180E090E00E94392A22E133E88E
:100EC00048E050E40E94A42A0E940A2AE12FF0E0A0
:100ED000DB01BB27202F30E0A29FA001A39F500D74
:100EE000B29F500D1124452F5527E49FD001E59F57
:100EF000B00DF49FB00D112440E051E0421B530BA4
:100F00004E9F90014F9F300D5E9F300D11243C830A
:100F10003983232F2B0F2D832A831B1B1B83872FA2
:100F2000992763E070E00E945D2BFE01E80FF91F36
:100F30003281FE01E80FF91F2181FE01E80FF91F40
:100F40008381F7018183308322830F900F900F906C
:100F50000F900F90DF91CF911F910F91FF90EF9025
:100F600008958AE090E00C94932BAB01BC018AE0D9
:100F700090E00C94B12BEDEBF2E08CE98083AEEBCA
:100F8000B2E08C918078866180688C938FEF828349
:100F900083836091BD027091BE028091BF029091E7
:100FA000C0020C94B5078091BD0280FF06C064E1C9
:100FB00070E085EC92E00C94450780E090E0FC0145
:100FC000EB53FD4F11821082128203968C339105F0
:100FD000B1F7EDCF20E030E0F901EB53FD4F818315
:100FE000608342832D5F3F4F2C333105A9F70C946A
:100FF000D307EF92FF920F931F93CF93DF9300D00D
:101000001F92CDB7DEB70091BD021091BE022091B4
:10101000BF023091C0020093C1021093C20220931C
:10102000C3023093C4022091BD0220FF21C0042FCF
:10103000F62EE92E182F9E012F5F3F4F0E94480782
:101040008091C10210FB87F98093C10216958091AF
:10105000C2028078182BE0FA17F91093C202F092BE
:10106000C3020093C4024B8169818A810E94EA070E
:101070000F900F900F90DF91CF911F910F91FF90E4
:10108000EF9008950F931F93CF93DF93EC01062FFA
:10109000142F9091BD0290FF44C0892F8E7782302B
:1010A00021F4CE010E94F9071BC0892F86958F730A
:1010B0002EE3280F2F73243018F41091C00210C0B3
:1010C000865C8F73893060F4C92FCC1FCC27CC1F6E
:1010D000D091BE028D2F880FC82BD7FBDD27D0F90A
:1010E0008091BD02C0FB87F98093BD02C6958091B7
:1010F000BE028078C82BD0FBC7F9C093BE02009314
:10110000BF021093C0026091BD027091BE02809137
:10111000BF029091C002DF91CF911F910F910C946B
:10112000B507DF91CF911F910F910895EDEBF2E09C
:101130002081221F2227221F3091BE02432F440FFD
:10114000842F822B37FB992790F90A9668E671E085
:101150000E94712B438162810C9442082091BD0250
:10116000221F2227221F3091BE02432F440F842FBB
:10117000822B37FB992790F98A3091051CF4825A0B
:101180009E4F01C00A9768E671E00E94712B409162
:10119000C0026091BF020C9442086091BF02862F8A
:1011A00090E08F3E910514F46F5E01C06FEF809167
:1011B000BD02881F8827881F9091BE02292F220F09
:1011C00097FB992790F94091C002822B0C9442081A
:1011D0006091BF02862F90E0419714F0615101C0E9
:1011E00060E08091BD02881F8827881F9091BE0211
:1011F000292F220F97FB992790F94091C002822B4B
:101200000C9442084091C002842F90E08F3E9105DB
:1012100014F44F5E01C04FEF8091BD02881F8827F4
:10122000881F9091BE02292F220F97FB992790F9D2
:101230006091BF02822B0C9442084091C002842F1F
:1012400090E0419714F0415101C040E08091BD020F
:10125000881F8827881F9091BE02292F220F97FB95
:10126000992790F96091BF02822B0C9442089091CB
:10127000BD0290FF3BC09178811102C0926007C00F
:101280008A3110F0926303C08F73880F982B90936C
:10129000BD026091BD027091BE028091BF0290912B
:1012A000C0020E94B5078091BD02982F9E779230B0
:1012B00019F41092700109C0982F9695925C9F7353
:1012C000963118F491E090937001881F8827881F49
:1012D0009091BE02292F220F97FB992790F94091F8
:1012E000C0026091BF02822B0C9442080895809145
:1012F000BD0286958F738F5F8A3108F081E00C9470
:10130000370980919A02816080939A0281E08093EC
:1013100071010E942B23811104C00E940C230E94A2
:10132000BB070E94B1076093BD027093BE02809319
:10133000BF029093C0026F3F7F4F8F4F9F4F21F4AA
:101340000E94BB070E94D3078091BD028E7761F493
:101350000E94BB070E94B1076093BD027093BE025A
:101360008093BF029093C00281E0809370018091CE
:10137000BD0280FF04C086958F730C9437090E94CC
:10138000D3071092700108958091BD02982F909517
:1013900090FB80F98093BD026091BD027091BE0206
:1013A0008091BF029091C0020E94B5078091BD025A
:1013B00080FF04C086958F730C94370910927001DA
:1013C0002FEF80E792E0215080409040E1F700C08D
:1013D00000000C94D307CF93C82F80916E01909199
:1013E0006F010E945220EC2FF0E0E659FE4FE4918D
:1013F000F0E08E179F0718F10E943A2090936F013A
:1014000080936E01E0916D01F0E0E259FE4F44914E
:101410008091BD02881F8827881F9091BE02292FC6
:10142000220F97FB992790F96091BF02822B0E94AF
:10143000F90780916D0190E0019680936D01CF9145
:101440000895CF93C82F80916B0190916C010E94F9
:101450005220EC2FF0E0E959FE4FE491F0E08E17B6
:101460009F07E8F00E943A2090936C0180936B01F3
:101470004091C0026091BF028091690190916A0120
:101480000E94F9078091690190916A01019668E6CE
:1014900071E00E945D2B90936A0180936901CF9166
:1014A0000895CF92DF92FF920F931F93CF93DF9314
:1014B000F82E80916701909168010E945220EF2DD3
:1014C000E695F0E0E959FE4FE491F0E08E179F07B2
:1014D000E8F10E943A20909368018093670105EC3F
:1014E00012E0C0E0D0E088E6C82EDD24D3948091DD
:1014F0006501909166018C0F9D1FB6010E945D2BC6
:1015000098014091C0026091BF020E944807629614
:101510000D5F1F4FC83681E0D80749F70E94D307F7
:101520002091650130916601F0FE0AC0C90106965E
:10153000BE010E945D2B909366018093650106C0F9
:10154000215031093093660120936501DF91CF91DD
:101550001F910F91FF90DF90CF9008958F929F92EF
:10156000AF92BF92CF92DF92EF92FF920F931F93B1
:10157000CF93DF93C82F80FF03C0DD24DA9402C02D
:10158000DD24D39480916301909164010E945220E4
:10159000C695EC2FF0E0E75AFE4FE491F0E08E178D
:1015A0009F0708F467C00E943A20909364018093DB
:1015B000630195ECE92E92E0F92E07EC12E0C0E011
:1015C000D0E026E0822E912CF80131971082F701AD
:1015D0001082F801108286E0A82EB12CC12C8091D7
:1015E00062018C0D87FD8C5E082E000C990BC817CC
:1015F000D907E9F42091C0022A9DC0012B9D900DCE
:101600001124B4010E94712B462F8091BD02881FC6
:101610008827881F9091BE02592F550F97FB992755
:1016200090F997016091BF02852B0E944807CD0C6D
:10163000F1E0AF1AB10899F6219683E0E80EF11CAB
:101640000D5F1F4FC431D10509F0BECF0E94D307F3
:101650008091620191E0D91206C0811102C08DE033
:1016600007C0815005C090E00196BE010E94712B19
:1016700080936201DF91CF911F910F91FF90EF90C6
:10168000DF90CF90BF90AF909F908F9008950F9371
:101690001F93CF93DF93C82F8091600190916101D8
:1016A0000E945220EC2FF0E0E15BFE4FE491F0E06D
:1016B0008E179F0708F474C00E943A20909361012E
:1016C0008093600180E090E0FC01EB53FD4F1182BC
:1016D0001082128203968C339105B1F7C0E0D0E0FE
:1016E00004E110E0CE30D105C9F1CE014496B80135
:1016F0000E94712B40915F01042E000C550B9C0140
:10170000220F331F820F931FC417D507FCF040919F
:101710000201042E000C550B4C175D07BCF09C0118
:101720002B533D4F8091BD02881F8827881F9091C1
:10173000BE02592F550F97FB992790F94091C0028F
:101740006091BF02852B0E94480706C0FC01EB5345
:10175000FD4F1182108212822196C4CF0E94D307BE
:10176000C091010160915F016C0F60935F018091F6
:1017700002018C0F8093020118167CF4062E000CD7
:10178000770B880B990B0E943B2A25E535E545E44C
:1017900051E40E949F2A87FD03C0C195C0930101B7
:1017A000DF91CF911F910F9108958091700188234F
:1017B00009F440C08091BD0286958F739EE3980F17
:1017C0009F73943018F482500C94EB099AE3980FAD
:1017D0009F73933018F486500C94210A97E3980F66
:1017E0009F73963018F489500C94510A91E3980F26
:1017F0009F73963090F4282F30E080FF07C02E5062
:101800003109822F880F880F820F05C094E0299F2D
:10181000800D11248A540C94AE0A9AE2980F9F739B
:10182000933040F490E04697982F990F890F8E5F80
:101830000C94470B089580917201089508950895BE
:101840000F931F93CF93DF938A3E910509F474C0E1
:10185000C8F5863B910509F478C0C0F4833B910537
:1018600009F47EC040F4823B910509F081C000E09C
:1018700010E0D8E082C0843B910509F475C0853B37
:10188000910509F075C000E010E476C08D3C91052B
:1018900009F455C068F4873B910509F453C0883BAF
:1018A000910509F065C000E010E0D0E0C0E266C03C
:1018B000823E9105F1F1893E910509F059C000E0A1
:1018C00014E05AC0833222E0920789F1A8F48239E9
:1018D00021E0920709F440C030F48A38914009F0C1
:1018E00047C000E848C0843921E0920789F181327D
:1018F0009240F1F500E13FC0863222E0920799F074
:1019000048F4843222E09207A9F18532924081F5B1
:1019100002E031C0873222E0920739F08A329240E9
:1019200039F500E228C004E026C008E024C000E445
:1019300022C000E011E020C000E012E01DC000E085
:1019400018E01AC000E010E117C000E010E214C077
:1019500000E010E0D1E011C000E010E0D2E00DC0E6
:1019600000E010E0D0E109C000E010E0D0E205C0E6
:1019700000E001C001E010E0D0E0C0E088E00E949B
:10198000880280E00E94880281EA0E94880283E047
:101990000E948802802F0E948802812F0E94880264
:1019A0008D2F0E9488028C2FDF91CF911F910F9174
:1019B0000C948802CF93DF93EC018CE00E948802A4
:1019C00080E00E94880281EA0E94880281E00E94F1
:1019D000880288810E94880280E00E9488028A81B1
:1019E0000E9488028B810E9488028C810E9488025A
:1019F0008D810E9488028E810E9488028F81DF91F2
:101A0000CF910C9488020E944620609378017093D5
:101A1000790180937A0190937B01089580917C01F4
:101A200081111EC00E9477148350914059F00E948A
:101A3000B11980911801809377011092180183E009
:101A400091E01EC080917601811125C0809105032F
:101A5000843009F581E080937C01809376011BC07E
:101A60000E9477148D50914071F081E0809376014F
:101A70000E94B11980917701809318018DE091E067
:101A80000E94721408C080910503843021F01092E6
:101A90007C011092760180917301811116C08091B2
:101AA0007501811112C06091780170917901809166
:101AB0007A0190917B010E947C20613375478105FA
:101AC000910518F081E0809375010E940807882332
:101AD000C1F0809175018823A1F060917801709127
:101AE000790180917A0190917B010E947C2061387C
:101AF0007E4E8643910528F081E0809374010C941A
:101B00000F0708958331E9F0883181F0853009F5B8
:101B10000E94B1192FEF83ED90E321508040904057
:101B2000E1F700C000000E94CE2011C080917C012E
:101B3000882319F010927C01089581E080937C0144
:101B400008959091730181E089278093730181E06A
:101B5000089580E0089584B7877F84BF0FB6F89416
:101B6000A895809160008861809360001092600069
:101B70000FBE90E080E80FB6F894809361009093D8
:101B800061000FBE0E948F110E94EC118091E20053
:101B900084608093E20078948FEF909105038150E8
:101BA000943041F0EFE7FEE33197F1F700C0000019
:101BB0008111F3CF80910503843019F481E0809383
:101BC0007C010E94FE060E94030D0E94B4148091C5
:101BD0007501882391F00E94F0200E94272188231C
:101BE00061F0109275010E945A2980917401882336
:101BF00021F0109274010E941107809174018111EB
:101C0000E6CF0E94C0140E940E0DE1CF80919E018C
:101C100008950895CF93DF9300D01F92CDB7DEB71C
:101C20009C0180910503843019F593E099833B83EF
:101C30002A839093E9008FEF9091E800815095FD01
:101C400006C095ED9A95F1F700008111F5CF8091CE
:101C5000E80085FF0DC040E050E063E070E0CE0199
:101C600001960E94FA0F8091E8008E778093E80039
:101C70000F900F900F90DF91CF9108952091050361
:101C80002430F1F422E02093E9002FEF3091E800B6
:101C9000215035FD06C035ED3A95F1F700002111D0
:101CA000F5CF2091E80025FF0BC040E050E065E053
:101CB00070E00E94FA0F8091E8008E778093E80030
:101CC0000895CF93DF93EC0190910503943009F0D0
:101CD00046C0809117018823D9F08091180188238C
:101CE000B9F09093E9008FEF9091E800815095FD55
:101CF00006C09AE29A95F1F700C08111F5CF809164
:101D0000E80085FF2CC040E050E060E270E017C0C2
:101D100081E08093E9008FEF9091E800815095FD7C
:101D200006C095ED9A95F1F700008111F5CF8091ED
:101D3000E80085FF14C040E050E068E070E0CE01AC
:101D40000E94FA0F8091E8008E778093E80080E28D
:101D5000FE01AEE7B1E001900D928A95E1F7DF91C7
:101D6000CF91089580910403811109C00E948F11C1
:101D70000E94EC118091E20084608093E20008955B
:101D8000109204030895089542E061EC81E00E94FE
:101D9000091142E061EC82E00E94091142E061EC2D
:101DA00083E00E94091142E261EC84E00C94091185
:101DB00080910703833009F455C030F4813071F00D
:101DC000823009F48EC008958A3009F47AC08B30CD
:101DD00009F460C0893009F09CC020C080910603DE
:101DE000813A09F096C08091E800877F8093E800EF
:101DF00080910A0390910B03892B21F460E28EE716
:101E000091E003C060E080E090E070E00E94451047
:101E10008091E8008B778093E80008958091060315
:101E2000813209F076C080910A0390910B030097EC
:101E300019F0039709F06DC08091E800877F8093C7
:101E4000E8008091E80082FD05C0809105038111C2
:101E5000F8CF5FC08091F10080939E018091E800EF
:101E60008B7753C080910603813A09F052C080916C
:101E70000A0390910B03892B09F04BC08091E80075
:101E8000877F8093E8008091E80080FFFCCF8091FD
:101E9000170136C0809106038132D9F580910A037B
:101EA00090910B03892BA9F58091E800877F80939F
:101EB000E8000E943E1180910803809317010C9462
:101EC000B11980910603813221F58091E800877F66
:101ED0008093E8000E943E118091090380939F0146
:101EE000089580910603813AA1F48091E800877FEC
:101EF0008093E8008091E80080FFFCCF80919F01F3
:101F00008093F1008091E8008E778093E8000C9434
:101F10003E11089580919E0180937D0110929E0153
:101F200080E00E9486050E9467150C94B1190C94FC
:101F30008A0F0E943C2180917D0180939E0108952B
:101F40000C94990F292F332723303105C9F064F4FD
:101F50002130310581F02230310509F043C08DE692
:101F600090E02EE932E042C021323105F1F0223218
:101F7000310541F137C082E190E02BE033E036C01B
:101F800099278130910541F08230910541F0892BEC
:101F900049F5EAE9F2E005C0EEE8F2E002C0EEE65B
:101FA000F2E0849190E09F0121C06430D8F4E62FE4
:101FB000F0E0EE0FFF1FE25DFE4F2081318189E0EE
:101FC00090E014C0643070F470E0FB01EE0FFF1F6E
:101FD000EA5DFE4F20813181FB01EE5DFE4F808185
:101FE00090E004C080E090E020E030E0FA0131832E
:101FF00020830895CF92DF92EF92FF920F931F9369
:10200000CF93DF93EC018B016A010E945D11811176
:1020100033C0C114D10439F0F60180819181081BCD
:10202000190BC80FD91FE12CF12C0115110519F15D
:102030008091E80085FD16C08091E8008E7780933E
:10204000E800C114D10449F0F60180819181E80EC5
:10205000F91EF182E08285E00FC00E945D118823A5
:1020600021F30AC089918093F10001501109FFEF1B
:10207000EF1AFF0ADACF80E0DF91CF911F910F9125
:10208000FF90EF90DF90CF90089520910C03309156
:102090000D032617370748F06115710539F42091B3
:1020A000E8002E772093E80001C0B90140E06115F7
:1020B0007105A9F120910503222309F443C02530BD
:1020C00009F442C02091E80023FD40C02091E800BF
:1020D00022FD32C02091E80020FFE9CF4091F300BB
:1020E0002091F20030E0342BFC01CF016115710525
:1020F00059F02830310540F481918093F10061500E
:1021000071092F5F3F4FF1CF41E02830310509F0D1
:1021100040E02091E8002E772093E800C8CF4111DD
:10212000C9CF0AC080910503882361F0853061F032
:102130008091E80083FD0AC08091E80082FFF2CF21
:1021400080E0089582E0089583E0089581E0089595
:1021500020910C0330910D032617370748F06115C5
:10216000710539F42091E8002E772093E80001C032
:10217000B901FC0120E06115710591F18091050321
:10218000882309F440C0853009F43FC08091E800FD
:1021900083FD3DC08091E80082FD2FC08091E80062
:1021A00080FFE9CF2091F3008091F20090E0922B24
:1021B0006115710559F08830910540F42491209300
:1021C000F1003196615071090196F2CF21E0089734
:1021D00009F020E08091E8008E778093E800CBCF73
:1021E0002111CCCF0AC080910503882361F085308E
:1021F00061F08091E80083FD0AC08091E80082FFD1
:10220000F2CF80E0089582E0089583E0089581E0B0
:102210000895982F973058F59093E900981739F062
:102220007091EC002091ED005091F00003C0242F3C
:10223000762F50E021FF19C03091EB003E7F3093A4
:10224000EB003091ED003D7F3093ED003091EB00DD
:1022500031603093EB007093EC002093ED005093CD
:10226000F0002091EE0027FF07C09F5FD3CF8F7053
:102270008093E90081E0089580E00895809106034D
:1022800087FF11C08091E80082FD05C080910503A1
:102290008111F8CF11C08091E8008B770BC080913D
:1022A0000503882349F08091E80080FFF8CF8091F2
:1022B000E8008E778093E80008952091E400309143
:1022C000E50095E64091EC00842F817040FF22C02C
:1022D0008091E80080FD1CC080910503882391F067
:1022E000853091F08091EB0085FD10C04091E400B5
:1022F0005091E5004217530729F39A01915011F7C5
:1023000084E0089582E0089583E0089581E00895CF
:1023100080E008954091E80042FFDECF08950E94DA
:10232000FD110E940512E0EEF0E080818160808363
:10233000E8EDF0E080818F77808319BCA7EDB0E0F5
:102340008C918E7F8C9380818F7E8083109204038A
:1023500008950F931F93CF93DF930E94FD110E9466
:102360000512C8EDD0E088818F77888388818068E6
:10237000888388818F7D888319BC10920503109211
:102380000103109203031092020300EE10E0F80123
:1023900080818B7F808388818160888342E060E0D8
:1023A00080E00E940911E1EEF0E080818E7F808361
:1023B000E2EEF0E0808181608083808188608083AC
:1023C000F80180818E7F8083888180618883DF919E
:1023D000CF911F910F910895E8EDF0E080818F7EFD
:1023E0008083E7EDF0E080818160808384E082BFBC
:1023F00081E0809304030C94A911E8EDF0E0808162
:102400008E7F80831092E20008951092DA0010927D
:10241000E10008951F920F920FB60F9211242F938F
:102420003F934F935F936F937F938F939F93AF935C
:10243000BF93EF93FF938091E10082FF0BC08091E7
:10244000E20082FF07C08091E1008B7F8093E10072
:102450000E9471148091DA0080FF1FC08091D80023
:1024600080FF1BC08091DA008E7F8093DA0080911C
:10247000D90080FF0DC080E189BD82E189BD09B42A
:1024800000FEFDCF81E0809305030E94B20E05C0DF
:1024900019BC109205030E94C00E8091E10080FFDC
:1024A00019C08091E20080FF15C08091E2008E7F0C
:1024B0008093E2008091E20080618093E20080914D
:1024C000D80080628093D80019BC85E08093050312
:1024D0000E94970F8091E10084FF30C08091E2005C
:1024E00084FF2CC080E189BD82E189BD09B400FE72
:1024F000FDCF8091D8008F7D8093D8008091E1003E
:102500008F7E8093E1008091E2008F7E8093E200D5
:102510008091E20081608093E20080910103882332
:1025200011F084E007C08091E30087FD02C081E0E4
:1025300001C083E0809305030E94A00F8091E10019
:1025400083FF29C08091E20083FF25C08091E100D4
:10255000877F8093E10082E080930503109201035E
:102560008091E1008E7F8093E1008091E2008E7F78
:102570008093E2008091E20080618093E20042E07B
:1025800060E080E00E9409118091F00088608093F3
:10259000F0000E94C30EFF91EF91BF91AF919F9108
:1025A0008F917F916F915F914F913F912F910F90FC
:1025B0000FBE0F901F9018951F920F920FB60F929B
:1025C00011242F933F934F935F936F937F938F9338
:1025D0009F93AF93BF93CF93DF93EF93FF93C091FC
:1025E000E900CF708091EC00D82FD17080FDD0E849
:1025F0001092E9008091F000877F8093F00078943A
:102600000E9420131092E9008091F000886080936E
:10261000F000CD2BCF70C093E900FF91EF91DF91D7
:10262000CF91BF91AF919F918F917F916F915F916A
:102630004F913F912F910F900FBE0F901F901895C3
:102640001F93CF93DF93CDB7DEB7AA970FB6F89459
:10265000DEBF0FBECDBFE6E0F3E088E08E0F9091C5
:10266000F10091938E13FBCF0E94D80E8091E80069
:1026700083FF1FC18091060390910703492F50E00B
:102680004A30510508F015C1FA01EA59FF4F0C9480
:10269000852B803881F0823809F00BC180910A03C4
:1026A0008F708093E9008091EB0085FB882780F98B
:1026B0001092E90006C080910203909103039111EA
:1026C00082609091E800977F9093E8008093F100FA
:1026D0001092F100C8C0282F2D7F09F0EAC088238E
:1026E00019F0823061F0E5C080910803813009F073
:1026F000E0C0933009F080E0809303032BC0809109
:102700000803811127C080910A038F7009F4D1C09A
:102710008093E9002091EB0020FF1CC0933021F44E
:102720008091EB00806214C09091EB0090619093D7
:10273000EB0021E030E0A90102C0440F551F8A954B
:10274000E2F74093EA001092EA008091EB00886083
:102750008093EB001092E9008091E800877F86C0AB
:102760008111A7C0109108031F778091E300807842
:10277000812B8093E3008091E800877F8093E800BD
:102780000E943E118091E80080FFFCCF8091E30021
:1027900080688093E300111102C082E001C083E0F1
:1027A0008093050386C08058823008F082C08091F3
:1027B0000803909109038C3D53E0950779F583E078
:1027C0008A838AE289834FB7F894DE01139620E06A
:1027D0003EE051E2E32FF0E050935700E49120FFF8
:1027E00003C0E295EF703F5FEF708E2F90E0EA300C
:1027F00010F0C79601C0C0968D939D932F5F243132
:1028000049F74FBF8091E800877F8093E8006AE234
:1028100070E0CE0101960E94451014C0AE014F5FDA
:102820005F4F60910A030E94A20FBC01892B09F43B
:1028300040C09091E800977F9093E80089819A8149
:102840000E94A8108091E8008B778093E80031C047
:10285000803879F58091E800877F8093E800809147
:1028600001038093F1008091E8008E778093E80067
:102870000E943E111EC081111CC09091080392302D
:10288000C0F48091E800877F8093E8009093010373
:102890000E943E1180910103811106C08091E300E6
:1028A00087FD02C081E001C084E0809305030E949F
:1028B000C40E8091E80083FF0AC08091E800877F02
:1028C0008093E8008091EB0080628093EB00AA96F1
:1028D0000FB6F894DEBF0FBECDBFDF91CF911F9131
:1028E000089508959093A3018093A2010895809183
:1028F000A2019091A3010895E091A201F091A3019A
:10290000309721F00190F081E02D099480E0089546
:10291000E091A201F091A301309721F00280F381B0
:10292000E02D09940895E091A201F091A301309760
:1029300021F00480F581E02D099408952091A001F3
:102940003091A1018217930771F09093A1018093B8
:10295000A001E091A201F091A301309721F0008441
:10296000F185E02D099408950E9431200E94D10341
:102970000E94C6210E9407050E94ED270C945A2947
:102980008F929F92AF92BF92CF92DF92EF92FF927F
:102990000F931F93CF93DF9300D000D01F92CDB73A
:1029A000DEB70E94F90305EA11E0F12C8F2D0E9499
:1029B000FD044C01F801A080B180A826B926A1141D
:1029C000B10439F4F3940E5F1F4FF5E0FF12EECF20
:1029D00039C080919A0281FD0E940605E12CCC2429
:1029E000C394D12CC6018A219B21892B21F1E98234
:1029F000FA8221E0C60188219921892B09F420E07F
:102A00002B830E943A208160782F9D838C8349819B
:102A10005A816B818D810E946A1549815A816B812F
:102A20007C818D810E94B106F801808191818C2585
:102A30009D2591838083E394CC0CDD1CFFE0EF1295
:102A4000D1CFC0CF8FEF89838A831B820E943A2027
:102A50008160782F9D838C8349815A816B818D8120
:102A60000E946A150E94F1060E94D4241091A401CC
:102A70000E947C141817B9F00E947C148093A40162
:102A80000F900F900F900F900F90DF91CF911F91AB
:102A90000F91FF90EF90DF90CF90BF90AF909F90FD
:102AA0008F900C942E200F900F900F900F900F90FE
:102AB000DF91CF911F910F91FF90EF90DF90CF901A
:102AC000BF90AF909F908F9008950C9486050895C5
:102AD00008950895CF93DF93CDB7DEB72B970FB648
:102AE000F894DEBF0FBECDBF942F4F83252F58879C
:102AF00069877A878B874A855B85452B21F02F3F35
:102B000009F59F3FF9F4DE01119686E0FD0111926F
:102B10008A95E9F785E0FE01379601900D928A9536
:102B2000E1F749815A816B817C818D819E810E9470
:102B30007C1C2B960FB6F894DEBF0FBECDBFDF9185
:102B4000CF9108954F81588569857A858B850E943C
:102B5000B106D9CFCF93882309F452C0C82F8CEF88
:102B60008C0F813A20F080E58C0F8E3248F48C2F48
:102B70000E945127811144C08C2F0E94451F0CC018
:102B800080E28C0F883058F4C77081E001C0880F54
:102B9000CA95EAF70E94CE1FCF910C94082088E5D1
:102BA0008C0F873168F5C83A89F0C93A91F0CA3A72
:102BB00099F0CB3AA1F0CC3AA9F0CD3AB1F0CE3AA7
:102BC000B9F0CF3AC1F080E090E017C082EE90E01B
:102BD00014C089EE90E011C08AEE90E00EC085EB43
:102BE00090E00BC086EB90E008C083EB90E005C05E
:102BF00084EB90E002C087EB90E0CF910C949E14A0
:102C0000CF910895882309F19CEF980F913A20F015
:102C100090E5980F9E3218F40E94871F0DC090E235
:102C2000980F983058F4877091E001C0990F8A95F9
:102C3000EAF7892F0E94D41F0C940820885A873104
:102C400020F480E090E00C949E140895882321F0F5
:102C50000E94CE1F0C9408200895882321F00E9422
:102C6000D41F0C9408200895CF92DF92EF92FF9228
:102C70000F931F93CF93DF93CDB7DEB727970FB690
:102C8000F894DEBF0FBECDBF25E0FC01DE0111963A
:102C900001900D922A95E1F7FC014081518102815A
:102CA00063817481258122952F706115710509F466
:102CB0003BC35F3F19F44F3F09F436C36C01862FC5
:102CC0007D836C83602F782F8D812F830E94D81E87
:102CD000182F9E830E94D71E0E94C71D3E81E32F9E
:102CE000E295EF70F0E0E059FF4F2F810C94852BB7
:102CF000832F807F932F9F70F92E882319F0F294F1
:102D000090EFF922002349F0FF2009F44CC28F2DE7
:102D10000E94E11F0E94082046C2812F0E940216D5
:102D2000FF2009F401C38F2D0E94E71F27960FB6DD
:102D3000F894DEBF0FBECDBFDF91CF911F910F91F1
:102D4000FF90EF90DF90CF900C940820832F807F2E
:102D5000932F9F70F92E803219F0F29480EFF822B1
:102D6000112319F0113001F129C00023A9F08F2D92
:102D7000222349F1213039F527960FB6F894DEBFAA
:102D80000FBECDBFDF91CF911F910F91FF90EF90BC
:102D9000DF90CF900C94F11F222319F0213009F419
:102DA000C3C20E94F41F2CC00023E9F0233008F0B6
:102DB000BBC20E94CB1F8F2129F022C00023F1F05B
:102DC000211115C08F2D27960FB6F894DEBF0FBEC8
:102DD000CDBFDF91CF911F910F91FF90EF90DF90CA
:102DE000CF900C942616223008F09EC209C0F6013E
:102DF000858180FFD8C18F708583E4CF2111E7C121
:102E00008F2D55C1832F86958695837009F08CC2CE
:102E1000002321F0812F932F937002C080E090E077
:102E200027960FB6F894DEBF0FBECDBFDF91CF91CE
:102E30001F910F91FF90EF90DF90CF900C949E1414
:102E4000812F002381F00E94DC230E94C9241634C4
:102E500008F06AC2E12FF0E0E055FE4F81E0808388
:102E60008093AF0161C20E9444240E94C924163499
:102E700008F05AC2E12FF0E0E055FE4F10821092A8
:102E8000AF0152C2832F837009F078C001114CC288
:102E9000812F829586958770880F880F912F9F705C
:102EA000C92ED12CE12CF12C082E04C0CC0CDD1C39
:102EB000EE1CFF1C0A94D2F714FF12C04FE050E042
:102EC00060E070E004C0440F551F661F771F8A95AD
:102ED000D2F7CB01BA01609570958095909503C0AB
:102EE00060E070E0CB01232F269526952370422FBA
:102EF00050E042305105D1F04330510559F16C2971
:102F00007D298E299F294130510541F127960FB621
:102F1000F894DEBF0FBECDBFDF91CF911F910F910F
:102F2000FF90EF90DF90CF900C94EC1D6C297D29E1
:102F30008E299F2927960FB6F894DEBF0FBECDBF0E
:102F4000DF91CF911F910F91FF90EF90DF90CF9085
:102F50000C94061E0E94EC1DC701B60127960FB601
:102F6000F894DEBF0FBECDBFDF91CF911F910F91BF
:102F7000FF90EF90DF90CF900C94D21D002319F0BA
:102F8000832F817001C08695882309F4CDC1812FDC
:102F9000829586958770880F880F912F9F70C92E14
:102FA000D12CE12CF12C082E04C0CC0CDD1CEE1C25
:102FB000FF1C0A94D2F714FF12C04FE050E060E00B
:102FC00070E004C0440F551F661F771F8A95D2F723
:102FD000CB01BA01609570958095909503C060E033
:102FE00070E0CB01232F269526952370422F50E0C9
:102FF00042305105D1F04330510559F16C297D29FA
:103000008E299F294130510541F127960FB6F8943A
:10301000DEBF0FBECDBFDF91CF911F910F91FF900B
:10302000EF90DF90CF900C94B31E6C297D298E29F0
:103030009F2927960FB6F894DEBF0FBECDBFDF9154
:10304000CF911F910F91FF90EF90DF90CF900C9454
:10305000C51E0E94B31EC701B60127960FB6F8948D
:10306000DEBF0FBECDBFDF91CF911F910F91FF90BB
:10307000EF90DF90CF900C94A11E103F41F118F417
:10308000103E48F48BC0123F09F450C0D8F1133FF2
:1030900009F460C083C01F70832F8F71002321F05B
:1030A0000E943A1E812F8FCE0E945B1E812F279691
:1030B0000FB6F894DEBF0FBECDBFDF91CF911F9149
:1030C0000F91FF90EF90DF90CF900C942D1600237E
:1030D000A9F0223008F028C1832F8F7127960FB6F0
:1030E000F894DEBF0FBECDBFDF91CF911F910F913E
:1030F000FF90EF90DF90CF900C94801E233008F06B
:1031000013C1EACF0023A1F0832F8F7127960FB64A
:10311000F894DEBF0FBECDBFDF91CF911F910F910D
:10312000FF90EF90DF90CF900C943A1E002361F354
:10313000832F8F7127960FB6F894DEBF0FBECDBFD9
:10314000DF91CF911F910F91FF90EF90DF90CF9083
:103150000C945B1E002391F0832F8F7127960FB67E
:10316000F894DEBF0FBECDBFDF91CF911F910F91BD
:10317000FF90EF90DF90CF900C94251E27960FB60E
:10318000F894DEBF0FBECDBFDF91CF911F910F919D
:10319000FF90EF90DF90CF900C94201E0023A1F0C1
:1031A000222309F4B1CF812F27960FB6F894DEBF02
:1031B0000FBECDBFDF91CF911F910F91FF90EF9088
:1031C000DF90CF900C94AA15222309F4B1CF812F60
:1031D00027960FB6F894DEBF0FBECDBFDF91CF911B
:1031E0001F910F91FF90EF90DF90CF900C940216FB
:1031F000432F4F70612FC6010E94692127960FB699
:10320000F894DEBF0FBECDBFDF91CF911F910F911C
:10321000FF90EF90DF90CF900C94201D011184C09F
:10322000112351F0832F8F70843031F0932F907FD2
:10323000212F2F70392F322B932F9F70892F90E0E1
:1032400082309105E9F1ACF4009751F1019709F052
:103250006BC027960FB6F894DEBF0FBECDBFDF91CF
:10326000CF911F910F91FF90EF90DF90CF900C9432
:10327000862983309105A1F1049709F055C0812F6B
:1032800027960FB6F894DEBF0FBECDBFDF91CF916A
:103290001F910F91FF90EF90DF90CF900C94EB294E
:1032A00027960FB6F894DEBF0FBECDBFDF91CF914A
:1032B0001F910F91FF90EF90DF90CF900C946F29AA
:1032C00027960FB6F894DEBF0FBECDBFDF91CF912A
:1032D0001F910F91FF90EF90DF90CF900C94A92950
:1032E00027960FB6F894DEBF0FBECDBFDF91CF910A
:1032F0001F910F91FF90EF90DF90CF900C94C82911
:10330000432F4F70612FC60127960FB6F894DEBF8A
:103310000FBECDBFDF91CF911F910F91FF90EF9026
:10332000DF90CF900C94DC0227960FB6F894DEBFA6
:103330000FBECDBFDF91CF911F910F91FF90EF9006
:10334000DF90CF9008950E94EE1F0E94BD1F0E9443
:1033500008200E94B9250E94C92480E090E00C94C6
:103360009E140E94DE1F0C94A319CF93DF9300D00C
:1033700000D01F92CDB7DEB70E94D81E292F22950C
:103380002F7030E02C3031054CF42A303105C4F474
:10339000225031092230310540F023C02C30310554
:1033A000D1F02F303105B9F01CC0853A28F48430B3
:1033B000B0F4823028F413C090E2980F983078F07F
:1033C000883E30F4803E58F48450813A50F407C06F
:1033D000803F39F404C093FB882780F903C081E063
:1033E00001C080E00F900F900F900F900F90DF9131
:1033F000CF910895CF93DF9300D000D01F92CDB727
:10340000DEB70F900F900F900F900F90DF91CF913C
:103410000895CF93DF9300D000D000D0CDB7DEB7B2
:1034200026960FB6F894DEBF0FBECDBFDF91CF91C9
:1034300008951F93CF93DF93C091EC0116E0809124
:10344000ED01C81799F0D0E01C9FF0011D9FF00D11
:103450001124E251FE4F4081518162817381848148
:1034600095810E94091A2196C770E9CFDF91CF910B
:103470001F91089540911E0250911F0260912002F9
:103480007091210280912202909123020C94091ADA
:103490008091230282958F7009F054C080912002A0
:1034A000882309F44FC08091EC01A091ED01609157
:1034B0001E0270911F024091210250912202B6E03B
:1034C0008A1709F43FC090E041155105C1F17F3FD3
:1034D00011F46F3FA1F1B89FF001B99FF00D1124D5
:1034E000E251FE4F218172132AC02081621327C04E
:1034F0002281211124C0238134812417350710F43F
:1035000021503109241B350B243B3105C0F4209197
:1035100023022F7020612093230226E0289FF001D0
:10352000299FF00D1124ED50FE4F80818F70806136
:1035300080838EE192E00E9434160C94191A019651
:103540008770BECF0895BF92CF92DF92EF92FF9225
:103550000F931F93CF93DF93CDB7DEB761970FB66D
:10356000F894DEBF0FBECDBF7C0185E0F701DE0120
:103570001D9601900D928A95E1F7D7014C91119615
:103580005C9111971296DC90129713960D911C91F5
:10359000149730911E0260911F0280912102909138
:1035A0002202009709F477C16F3F19F43F3F09F4F5
:1035B00072C1B0902002BB2009F4C5C02091230243
:1035C0000817190728F0F801E81BF90BCF0104C010
:1035D00080959095800F911FCC24C394843B9105D6
:1035E00080F0C12C207F09F0CCC0702F198B088B84
:1035F0006D2D89890E94FA198EE192E00E9434169D
:10360000B6C0822F807F09F047C0651314C0341301
:1036100012C0D11010C02F702061209323020E948D
:103620003A1A8EE192E00E94341680912302D7016B
:1036300015968C932FC00115110519F15F3F11F4F8
:103640004F3FF9F0CD2CD1101CC08091EC0120919E
:10365000ED0136E0821709F45CC090E0389FF0017C
:10366000399FF00D1124E251FE4F6181561306C0BF
:103670006081461303C06281611103C001968770A7
:10368000E9CFCD2CDD2009F426C180912302816091
:1036900080932302C12C1FC1651308C0341306C0D8
:1036A000D11004C080912302D701C9C04D875E8725
:1036B000DF86702F198B088B6D2D89890E94B519B3
:1036C0008823E9F1DD20D9F120912302822F829510
:1036D0008F7090E0029774F080911E0290911F020B
:1036E00098878F8319861B870A872C87CE010796B8
:1036F0000E94341686E0F701AEE1B2E001900D922F
:103700008A95E1F70E94481A0E943A1ACC24C39481
:10371000E2C0702F198B088B60E089890E94D81E47
:10372000292F22952F7030E0223031050CF0C7C0D0
:103730009F7009F0C1C0805E883008F4CCC0C7011A
:103740000E943416E3CF0817190708F456C0F80191
:10375000E81BF90BCF01843B910508F453C0C12C41
:10376000702F198B088B6D2D89890E94FA19EEE153
:10377000F2E086E0DF011D928A95E9F70E943A1A8D
:10378000AAC0651314C0341312C0D11010C08091A8
:103790002302F7018583C7010E94341686E0EEE11B
:1037A000F2E0DF011D928A95E9F7CB2C94C04D879A
:1037B0005E87DF86702F198B088B6D2D89890E949B
:1037C000B519882309F4BBCFDD2009F4B8CF2091C7
:1037D0002302822F82958F7090E002970CF48ACF9B
:1037E00080911E0290911F029A8389831B821D8300
:1037F0000C832E83CE0101967BCF80959095800F10
:10380000911FA9CFCD2CDD2009F499CF65132EC0CF
:1038100034132CC02091230220FD1FC0822F8295DB
:103820008F70D9F0D70115962C9315978F3049F0EA
:103830008F5F982F9295907F822F8F70892B15968E
:103840008C93C7010E94341686E0F701AEE1B2E026
:1038500001900D928A95E1F791CF86E0F701AEE1F4
:10386000B2E001900D928A95E1F735C04D875E87F1
:10387000DF86702F198B088B6D2D89890E94B519F1
:10388000811138CF80912302816080932302C70188
:103890000E94341620C0DD2009F451CF4D875E8789
:1038A000DF86702F198B088B6D2D89890E94B519C1
:1038B000882309F444CF1ECF81113DCF0CC02430A2
:1038C00031050CF03CCF9F7009F435CFF70195819D
:1038D000907F09F030CF8C2D61960FB6F894DEBF43
:1038E0000FBECDBFDF91CF911F910F91FF90EF9051
:1038F000DF90CF90BF9008951F93CF93DF93CDB704
:10390000DEB72C970FB6F894DEBF0FBECDBF4F8346
:10391000588769877A878B879C87CE0107960E9494
:10392000A31A882369F08F8198852A853B85232BEC
:10393000F1F19F3F09F063C08F3F09F060C037C0CD
:1039400086E0FE013796DE01119601900D928A9570
:10395000E1F76F817885EA85FB85309741F17F3FFC
:1039600011F46F3F21F12091ED0130E0C901019682
:10397000877099274091EC0150E08417950709F46E
:1039800047C069837A83FD83EC8396E0929FD001E0
:10399000939FB00D1124A251BE4FFE0131960190AC
:1039A0000D929A95E1F78093ED010E94191A16E0A5
:1039B0008091EC019091ED018917C1F1189FC00130
:1039C000112482519E4F0E94A31A882379F1E0911D
:1039D000EC011E9FF0011124E251FE4F4081518104
:1039E00062817381848195810E94091A8091EC0122
:1039F00090E00196877099278093EC01D9CF4F8191
:103A0000588569857A858B859C850E94091ACFCF58
:103A10000E94B1191092ED011092EC01EEE1F2E07A
:103A200086E0DF011D928A95E9F7C1CF2C960FB68B
:103A3000F894DEBF0FBECDBFDF91CF911F910895E7
:103A4000DF92EF92FF920F931F93CF93DF93FC01CE
:103A5000892B09F48AC0E12CF12CDD24D394EF01E9
:103A600021968491853709F461C058F4843708F0B1
:103A70004EC0843008F06AC08130D1F0823071F1DC
:103A800074C0883709F45DC050F4863709F455C016
:103A9000873709F06AC08E2D0E94DB1F54C09CE757
:103AA000980F903708F061C08F770E94021650C0BF
:103AB0008F010E5F1F4FFE01849190E2980F9830A6
:103AC00050F48770FD2D01C0FF0F8A95EAF78F2F04
:103AD0000E94E11F14C00E94AA1513C08F010E5F3F
:103AE0001F4FFE01C49180E28C0F883060F4C770D4
:103AF0008D2D01C0880FCA95EAF70E94E71F0E942A
:103B00000820E80125C08C2F0E940216FACF9F01E1
:103B10002E5F3F4FFE01C491CC2369F08FE99FE0F7
:103B20000197F1F700C00000C150F6CF9F012E5F52
:103B30003F4FFE01F490E9010BC00E94CB1FE82E1D
:103B400007C00E94DE1F0E94082002C00E94AA1522
:103B50008F2D882341F0EFE9FFE03197F1F700C0A6
:103B600000008150F6CFFE017ACFDF91CF911F91F7
:103B70000F91FF90EF90DF90089560936F02709324
:103B8000700280937102909372020C94B1050895B3
:103B9000609373027093740280937502909376021F
:103BA0000C94F0050F931F9300917302109174020F
:103BB0002091750230917602602B712B822B932B12
:103BC00060937302709374028093750290937602EF
:103BD0001F910F910C94F0050F931F9300917302A6
:103BE0001091740220917502309176026023712346
:103BF00082239323609373027093740280937502FF
:103C0000909376021F910F910C94F0050F931F93E0
:103C10000091730210917402209175023091760226
:103C20006027712782279327609373027093740231
:103C300080937502909376021F910F910C94F0057A
:103C400060E070E0CB010C94BD1D0F931F9341E029
:103C500050E060E070E08A019B0104C0000F111F7A
:103C6000221F331F8A95D2F7C901B8011F910F9106
:103C70000C94BD1D0F931F9341E050E060E070E095
:103C800004C0440F551F661F771F8A95D2F7809195
:103C90006F0290917002A0917102B09172028A013C
:103CA0009B01082B192B2A2B3B2BC901B8011F9113
:103CB0000F910C94BD1D0F931F9341E050E060E005
:103CC00070E004C0440F551F661F771F8A95D2F716
:103CD000409550956095709580916F02909170021B
:103CE000A0917102B09172028A019B0108231923ED
:103CF0002A233B23C901B8011F910F910C94BD1DCC
:103D00000F931F9341E050E060E070E004C0440F67
:103D1000551F661F771F8A95D2F780916F02909189
:103D20007002A0917102B09172028A019B01082772
:103D300019272A273B27C901B8011F910F910C941D
:103D4000BD1D0F931F9300916F021091700220917F
:103D5000710230917202602B712B822B932B1F9179
:103D60000F910C94BD1D0F931F9300916F02109142
:103D700070022091710230917202602371238223BC
:103D800093231F910F910C94BD1D0F931F930091CE
:103D90006F021091700220917102309172026027BF
:103DA0007127822793271F910F910C94BD1D0895B1
:103DB0008F929F92AF92BF92DF92EF92FF920F93FA
:103DC0001F93CF93DF9300D000D01F92CDB7DEB703
:103DD0008A016623C9F18090730290907402A090CA
:103DE0007502B090760280916F0290917002A0915E
:103DF0007102B0917202882A992AAA2ABB2A8FE1FD
:103E0000E82EF12CD501C4010E2C04C0B695A7955F
:103E1000979587950A94D2F780FF07C0DE2CB801EA
:103E20008E2D0E94A602019729F481E0E81AF1087C
:103E300048F7D12C8FE0189FF0011124E00FF11DFD
:103E4000EC5DFD4FD08209C08FE0189FF001112476
:103E5000E40FF11DEC5DFD4FD08009831A83698169
:103E60007A818D2D0E94A6020F900F900F900F90D7
:103E70000F90DF91CF911F910F91FF90EF90DF9006
:103E8000BF90AF909F908F900895909117019923C4
:103E900021F090911801911109C0209119013091E0
:103EA0001A01F90132969FEF40E01FC0982F9695B6
:103EB000969596959F3150F5E0911901F0911A0170
:103EC000E90FF11D877021E030E0A90102C0440F25
:103ED000551F8A95E2F7CA019181892B8183089544
:103EE0009F3F39F04F5F4E3141F051915813F8CF59
:103EF0000DC05111F7CF942FF5CF9F3F39F0F90145
:103F0000E90FF11D97FDFA95828308950895909128
:103F10001701992321F090911801911109C0209166
:103F2000190130911A01F9013296205E3F4F1FC0EE
:103F3000982F9695969596959F31F0F4E0911901FA
:103F4000F0911A01E90FF11D877021E030E0A9011D
:103F500002C0440F551F8A95E2F7CA0180959181EE
:103F60008923818308953196E217F30729F0908120
:103F70009813F9CF1082F7CF089581E090E0E09197
:103F80001901F0911A01E80FF91F10820196803291
:103F90009105A9F708958091990208959091990249
:103FA000892B809399020895809590919902892395
:103FB000809399020895809399020895109299022E
:103FC000089590919802892B809398020895809586
:103FD00090919802892380939802089510929802F4
:103FE0000895809377020895109277020895809142
:103FF000190190911A01FC0131969C01205E3F4FFE
:1040000080E0919191118F5FE217F307D1F7089546
:10401000E0911901F0911A01809199028083E09159
:104020001901F0911A01908180919802892B808367
:1040300080917702882361F0E0911901F0911A01D3
:104040009081892B80830E94F71F81111092770243
:104050008091190190911A010C9488140C946515A3
:10406000089582E084BD93E095BD9AEF97BD80935B
:104070006E0008952FB7F89480919B0290919C0256
:10408000A0919D02B0919E022FBF08952FB7F89482
:1040900060919B0270919C0280919D0290919E0282
:1040A0002FBF0895CF92DF92EF92FF920F931F934D
:1040B0002FB7F89440919B0250919C0260919D0211
:1040C00070919E022FBF6A017B01EE24FF248C01B8
:1040D00020E030E0C016D106E206F30610F44150AD
:1040E00051099A01281B390BC9011F910F91FF90AB
:1040F000EF90DF90CF900895CF92DF92EF92FF92F2
:104100000F931F932FB7F894C0909B02D0909C02FE
:10411000E0909D02F0909E022FBF97018601061B42
:10412000170B280B390BC616D706E806F90618F048
:10413000C901B80106C0C901B801615071098109FE
:1041400091091F910F91FF90EF90DF90CF9008950C
:1041500078941F920F920FB60F9211248F939F9312
:10416000AF93BF9380919B0290919C02A0919D027E
:10417000B0919E020196A11DB11D80939B02909368
:104180009C02A0939D02B0939E02BF91AF919F911C
:104190008F910F900FBE0F901F9018950E948F1156
:1041A000F8942FEF87EA91E6215080409040E1F7A4
:1041B00000C0000087E090EBDC0180931003909337
:1041C0001103A0931203B09313039CE088E10FB690
:1041D000F894A895809360000FBE90936000FFCF85
:1041E00080910503843009F431C00FB6F894A89586
:1041F00080916000886180936000109260000FBE23
:1042000010929F0220E488E190E00FB6F894A89500
:10421000809360000FBE209360000E94172883B730
:10422000817F846083BF83B7816083BF78948895E2
:1042300083B78E7F83BF0FB6F894A89580916000F6
:10424000886180936000109260000FBE0895CF9344
:104250000E9468150E94F9030E946915C0E08C2F26
:104260000E94FD04892B29F4CF5FC530C1F780E09F
:1042700001C081E0CF9108950E94B1190C945A2990
:104280001F920F920FB60F9211248F939F93AF93AB
:10429000BF9380919F02811113C080919B029091E6
:1042A0009C02A0919D02B0919E024196A11DB11D5C
:1042B00080939B0290939C02A0939D02B0939E02D8
:1042C000BF91AF919F918F910F900FBE0F901F9054
:1042D000189580E090E00895AF92BF92CF92DF9260
:1042E000EF92FF920F931F93CF937C01C0E0CC24F9
:1042F000C394D12C8C2F0E94FD045C0100E010E0DF
:10430000C601002E02C0880F991F0A94E2F78A2185
:104310009B21892BB1F0602F7C2F80E00E94A602A8
:104320009C018E159F0559F0832F807E932F907CE2
:1043300011F0803A31F430E02E153F0511F481E0A0
:1043400009C00F5F1F4F0F301105D1F6CF5FC53089
:1043500089F680E0CF911F910F91FF90EF90DF9051
:10436000CF90BF90AF900895CF93DF93EC018CE294
:1043700090E00E946C21882329F0CE01DF91CF913B
:104380000C946C2180E0DF91CF910895CF930E942F
:104390002B23811102C00E940C23C5E6C15049F0B5
:1043A0000E94F9038FE39CE90197F1F700C0000038
:1043B000F5CF89E290E00E94B42181112BC18AE2FD
:1043C00090E00E94B42181110E940C2385E090E0CE
:1043D0000E94B42181110E94CE200E9430200E94B0
:1043E000362380939A0287E090E00E94B4218823CC
:1043F000C1F18BE190E00E94B421882351F08091BB
:104400009A0281FB222720F991E0922790FB81F903
:104410000FC08EE090E00E94B421882361F080916B
:104420009A0282FB222720F991E0922790FB82F9E1
:1044300080939A0216C080E190E00E94B42190918E
:104440009A02882341F093FB222720F981E08227FA
:1044500080FB93F904C0892F809580FB90F990939D
:104460009A0280919A020E943A230E9448238093E4
:104470000E0380EE90E00E94B421882341F08091E9
:104480000E03982F909590FB80F980930E0389E39B
:1044900090E00E94B421882359F080910E0381FBA3
:1044A000222720F991E0922790FB81F980930E0357
:1044B00082EE90E00E94B421882359F080910E038F
:1044C00082FB222720F991E0922790FB82F98093CA
:1044D0000E0386EE90E00E94B421882359F080916B
:1044E0000E0383FB222720F991E0922790FB83F9AA
:1044F00080930E0383EE90E00E94B421882359F04C
:1045000080910E0384FB222720F991E0922790FBF3
:1045100084F980930E0385E390E00E94B421882300
:1045200059F080910E0385FB222720F991E0922714
:1045300090FB85F980930E0381E390E00E94B42103
:10454000882359F080910E0386FB222720F991E001
:10455000922790FB86F980930E0381E190E00E9400
:10456000B421882359F080910E0387FB222720F97C
:1045700091E0922790FB87F980930E0380910E03C0
:104580000E944C2380910E0387FB882780F980933B
:10459000180187E290E00E94B421C82F8EE190E0DC
:1045A0000E94B4218111C2608FE190E00E94B42189
:1045B0008111C46080E290E00E94B4218111C86042
:1045C00081E290E00E94B4218111C06182E290E01A
:1045D0000E94B4218111C06283E290E00E94B42164
:1045E0008111C06484E290E00E94B421882311F01C
:1045F000C06802C0CC2329F08C2F0E9443236C2F6B
:1046000003C00E943F23682F70E080E090E0CF91CC
:104610000C94C81DCF9108956DEE7EEF80E090E080
:104620000E94CB2B60E082E090E00E94BD2B60E016
:1046300083E090E00E94BD2B60E084E090E00E9467
:10464000BD2B60E085E090E00E94BD2B60E086E03D
:1046500090E00C94BD2B80E090E00E94992B21E02B
:104660008D3E9E4F09F020E0822F089582E090E079
:104670000C948B2B682F82E090E00C94BD2B83E090
:1046800090E00C948B2B682F83E090E00C94BD2B72
:1046900084E090E00C948B2B682F84E090E00C94E5
:1046A000BD2B86E090E00C948B2B682F86E090E089
:1046B0000C94BD2B8091A40280FF0BC060911E0161
:1046C00085E0689FB001112475956795759567958C
:1046D0002BC081FF09C060911E0185E0689FB00179
:1046E00011247595679520C082FF07C060911E0157
:1046F00085E0689FB001112417C09091A50299230D
:10470000D1F060911D01961788F720911E0185E078
:10471000289F90011124929FA001939F500D112476
:1047200070E0CA010E94712B6038710540F4611578
:10473000710539F002C065E070E0862F08958FE7BB
:10474000089581E008958091A40280FF08C06091DF
:104750001C0170E0759567957595679521C081FF7F
:1047600006C060911C0170E07595679519C082FFC5
:1047700004C060911C0170E010C09091A5029923C3
:10478000C1F060911B019617A0F780911C01899FD1
:10479000C001112470E00E94712B6038710528F46B
:1047A0006115710521F0862F08958FE7089581E046
:1047B000089561E070E0F4CF803F21F40E945A2315
:1047C000819504C0813F29F40E945A238093A80256
:1047D0000895823F21F40E945A23819504C0833FAB
:1047E00029F40E945A238093A7020895893F19F45F
:1047F0000E94A32305C08A3F31F40E94A323819520
:104800008093A90208958B3F21F40E94A3238195F0
:1048100004C08C3F29F40E94A3238093AA02089528
:10482000843F21F48091A602816017C0853F21F466
:104830008091A602826011C0863F21F48091A60279
:1048400084600BC0873F21F48091A602886005C078
:10485000883F31F48091A60280618093A60208957A
:104860008D3F21F48091A40281600BC08E3F21F422
:104870008091A402826005C08F3F29F48091A40238
:1048800084608093A4020895803F39F48091A80247
:1048900087FF6CC01092A80269C0813F29F4809103
:1048A000A8021816BCF362C09091A702823F29F4B7
:1048B00097FF5CC01092A70259C0833F19F41916E4
:1048C000CCF354C0893F41F48091A90218160CF032
:1048D0004DC01092A9024AC08A3F29F48091A902D2
:1048E00087FF44C0F6CF8B3F39F48091AA0287FF3F
:1048F0003DC01092AA023AC08C3F29F48091AA02CE
:104900001816BCF333C0843F21F48091A6028E7F39
:1049100017C0853F21F48091A6028D7F11C0863F8C
:1049200021F48091A6028B7F0BC0873F21F48091F8
:10493000A602877F05C0883F31F48091A6028F7E52
:104940008093A60213C08D3F21F48091A4028E7F34
:104950000BC08E3F21F48091A4028D7F05C08F3F54
:1049600029F48091A4028B7F8093A4028091A702F6
:1049700081110EC08091A80281110AC08091A90204
:10498000811106C08091AA02811102C01092A50275
:10499000089586EA92E00E9493140E943A20909330
:1049A000A1028093A00208950F931F93CF93DF93EA
:1049B0008091A2029091A3020E9452200B97A8F12D
:1049C0008091AF01882389F104EB11E0C4E0F80184
:1049D00081918F01882351F08C2F0E94451F0E94E6
:1049E00008208C2F0E94871F0E940820CF5FC634AA
:1049F00071F78091B001882391F08091A6028160C7
:104A00008093A60286EA92E00E9493148091A60207
:104A10008E7F8093A60286EA92E00E9493140E9401
:104A20003A209093A3028093A2028091A0029091D9
:104A3000A1020E945220AC019091A502992321F07D
:104A400020911F0130E006C020912001FAE02F9F45
:104A5000900111244217530708F486C08091A702E1
:104A6000C091A802D091A9021091AA02811107C099
:104A7000C11176C0D11174C0111172C075C09F3FB1
:104A800019F09F5F9093A502181624F40E945A23F0
:104A90008093A7028091A70287FF05C00E945A2336
:104AA00081958093A7021C1624F40E945A238093B8
:104AB000A8028091A80287FF05C00E945A23819511
:104AC0008093A8026091A702662331F1C091A802E9
:104AD000CC2311F1062E000C770B880B990B0E944A
:104AE0003B2A23E333E343E35FE30E94A42A0E94CB
:104AF000032A6093A7026C2FCC0F770B880B990BBE
:104B00000E943B2A23E333E343E35FE30E94A42AAA
:104B10000E94032A6093A8021D1624F40E94A32376
:104B20008093A9028091A90287FF05C00E94A32358
:104B300081958093A902111624F40E94A3238093E7
:104B4000AA028091AA0287FF05C00E94A323819533
:104B50008093AA02DF91CF911F910F910C94C924E9
:104B60009F3F09F08ECF96CFDF91CF911F910F918C
:104B70000895E6EAF2E085E0DF011D928A95E9F703
:104B80001092A5021092A4020895833081F128F4B6
:104B9000813059F08230D1F00895853009F449C050
:104BA000B8F1863009F456C0089580912001262F6F
:104BB00030E0280F311D2F3F310524F4680F60933A
:104BC000200108958FEF80932001089580911F01A7
:104BD000262F30E0280F311D2F3F310524F4680FB8
:104BE00060931F0108958FEF80931F0108958091B6
:104BF0001E01262F30E0280F311D2F3F310524F4F0
:104C0000680F60931E0108958FEF80931E01089531
:104C100080911D01262F30E0280F311D2F3F3105D7
:104C200024F4680F60931D0108958FEF80931D0198
:104C3000089580911C01262F30E0280F311D2F3F51
:104C4000310524F4680F60931C0108958FEF809361
:104C50001C01089580911B01262F30E0280F311D83
:104C60002F3F310524F4680F60931B0108958FEFE7
:104C700080931B010895833011F128F4813049F0AD
:104C8000823091F00895853081F120F18630C1F1B4
:104C9000089580912001681720F4861B80932001DD
:104CA000089510922001089580911F01681720F443
:104CB000861B80931F01089510921F010895809113
:104CC0001E01681720F4861B80931E010895109220
:104CD0001E01089580911D01681720F4861B8093A2
:104CE0001D01089510921D01089580911C016817FF
:104CF00020F4861B80931C01089510921C010895D6
:104D000080911B01681720F4861B80931B01089576
:104D100010921B0108950F931F938B3109F475C0F6
:104D2000A0F58E3009F484C0C0F4873009F462C065
:104D300068F4863009F0AFC080919A02817F8E7F3F
:104D400080939A0281E08093AC02A6C0883009F477
:104D50004AC08B3009F49DC09EC0813109F472C0F5
:104D600068F4803109F097C080919A0283FB222772
:104D700020F991E0922790FB83F950C0863109F425
:104D800088C0893109F485C086C0853309F468C0BC
:104D900068F4873209F464C028F48E3108F47BC0CB
:104DA0008D5164C0893209F45BC075C0833438F416
:104DB0008A3308F05AC0883309F46BC06CC083345E
:104DC00009F44EC0883409F066C00E94B1190FEF93
:104DD00013ED20E3015010402040E1F700C0000037
:104DE0000E94CE2056C00E9436230E9448230E9473
:104DF00051234FC090919A02892F817090FF12C069
:104E0000917F9E7F90939A0247C080919A0281FB86
:104E1000222720F991E0922790FB81F980939A0252
:104E20009923B9F180919A02816080939A0231C0EE
:104E300080919A0282FB222720F991E0922790FB31
:104E400082F9ECCF0E94B1190E9477148D509140E5
:104E500001F59091180181E089278093180119C00C
:104E600061E070E080E090E010C0895341E050E0E4
:104E700060E070E08A019B0104C0000F111F221F37
:104E8000331F8A95D2F7C901B8010E94C81D0E943C
:104E9000B11981E001C080E01F910F91089580E079
:104EA0000895CF93C82F8091AC02813079F018F02B
:104EB0008230E9F188C0E0911901F0911A018081F6
:104EC000823269F0843409F080C009C0E091190190
:104ED000F0911A018081823211F0843461F48C2FB8
:104EE0000E94820D811104C08C2F0E948B261DC050
:104EF00081E090E01AC08C2F0E944F27811114C0CE
:104F0000C43179F048F4CB3079F0C03109F061C098
:104F100082E08093AC0208C0C93219F0C83321F096
:104F200058C01092AC0255C081E0817054C0C932A3
:104F300091F120F5C43179F1B0F4C73009F047C0E0
:104F40008EE18093200182E380931F018AE08093A9
:104F50001E0184E180931D0188E080931C0188E29A
:104F600080931B0134C0CE51C63088F5EC2FF0E0A1
:104F7000EA5CFE4F80818093AB0229C0CE34E9F019
:104F800020F4CB3421F56AE013C0C13579F0C23585
:104F9000F1F461E00DC08091AB02882319F010920A
:104FA000AB0215C081E08093AC0215C061E006C081
:104FB0008091AB020E94C5250AC06AE08091AB02D5
:104FC0000E943B2604C01092AC0280E004C081E045
:104FD00002C080E0AACFCF910895E1E8F0E080819F
:104FE000886080838081816080838FB7F89493E0AC
:104FF000909389009DE0909388008FBF0E94AB063C
:1050000081E08093BC0208958091BC02882371F0F6
:105010008091880090918900892B41F080916F00E8
:10502000826080936F0082E08093BC02089580913B
:10503000BC02882389F08091880090918900892B97
:1050400059F080916F008D7F80936F0081E0809395
:10505000BC0280E00C94AF0608958091BB02816091
:105060008093BB0208951092BB028091BC028823FA
:1050700019F080E00C94AF0608958093B90208956A
:10508000E82FF0E0E754FD4F2081422F50E08FEFF2
:1050900090E0861B9109841795071CF48FEF80839D
:1050A0000895620F60830895682F80E00C94402873
:1050B000E82FF0E0E754FD4F8081861710F410824E
:1050C0000895861B80830895682F80E00C945828EB
:1050D0008091B80281608093B80208951092B8025E
:1050E00008954091B70221E030E0662341F001C00D
:1050F000220F8A95EAF7242B2093B7020895B9016D
:1051000002C0660F771F8A95E2F7CB018095842352
:105110008093B7020895682F80E00C9471288093E3
:10512000B60208958093B50208958091B40281601B
:105130008093B40208951092B4021092B3020895BD
:105140008093B20208951F920F920FB60F9211240E
:105150002F933F934F935F936F937F938F939F937F
:10516000AF93BF93EF93FF938091AF028F5F8093D4
:10517000AF029091BB0290FF16C081110BC08091CD
:10518000BA02882319F080E00E94AD068091B9022E
:105190008093BA029091AF028091BA02981303C033
:1051A00080E00E94AF068091AF029091BA02811117
:1051B00002C097FD04C089136CC087FD6AC01092BD
:1051C00021019091B802992329F18091AE028F5F5D
:1051D0008093AE022091B6022817E0F41092AE023E
:1051E00090FF14C08091B502882321F081508093F4
:1051F000B5020CC08091B70261E080FF04C080E07E
:105200000E94582803C080E00E9440288AEB92E068
:105210000E94FC062091B4022223C9F18091AD02C4
:105220008F5F8093AD029091B202981780F5109233
:10523000AD0220FF28C08091B102E82FF0E0E250DB
:10524000FC4FE491E093B9029091B00290FF12C03C
:1052500081110EC09E7F9093B0028091B30280FFB7
:1052600012C02E7F2093B4028E7F8093B3020BC0B6
:10527000815007C08F3721F491609093B00203C032
:105280008F5F8093B1028AEB92E00E94FD060E943C
:10529000FB06FF91EF91BF91AF919F918F917F910D
:1052A0006F915F914F913F912F910F900FBE0F9093
:1052B0001F9018950E942B23811102C00E940C237D
:1052C0000E94512380930F03811102C081E005C029
:1052D00080FF02C0869501C080E00C945B0680913F
:1052E0000F03982F9695292F30E0283031054CF484
:1052F0009F5F990F8170892B816080930F030E94BB
:10530000552380910F0386950C945B0680910F03C3
:1053100080FF1EC0982F9695292F30E0223031054E
:1053200094F09158990F8170892B80930F038E7F91
:1053300091E009F490E080910F0390FB80F9809355
:105340000F030E94552380910F0386950C945B06F2
:10535000089580910F03982F9095917090FB80F99C
:1053600080930F03992339F0982F9E7F21F4817049
:10537000826080930F0380910F030E9455238091D8
:105380000F0380FF02C0869501C080E00C945B068D
:1053900090910F03892F86958F5F8F779170893059
:1053A00028F4880F892B80930F0302C090930F037A
:1053B00080910F038E7F91E009F490E080910F03BC
:1053C00090FB80F980930F030E94552380910F0377
:1053D00086950C945B06880F90910F039170892B32
:1053E00080930F038E7F91E009F490E080910F038A
:1053F00090FB80F980930F030E94552380910F0347
:1054000086950C945B060E940A2A6894B1110C944C
:10541000992A08950E947E2A88F09F5798F0B92F04
:105420009927B751B0F0E1F0660F771F881F991FD9
:105430001AF0BA95C9F714C0B13091F00E94982AB9
:10544000B1E008950C94982A672F782F8827B85FC9
:1054500039F0B93FCCF3869577956795B395D9F731
:105460003EF490958095709561957F4F8F4F9F4F3B
:105470000895E89409C097FB3EF490958095709547
:1054800061957F4F8F4F9F4F9923A9F0F92F96E990
:10549000BB279395F695879577956795B795F11105
:1054A000F8CFFAF4BB0F11F460FF1BC06F5F7F4FA2
:1054B0008F4F9F4F16C0882311F096E911C07723B4
:1054C00021F09EE8872F762F05C0662371F096E8BD
:1054D000862F70E060E02AF09A95660F771F881F8C
:1054E000DAF7880F9695879597F9089557FD9058A4
:1054F000440F551F59F05F3F71F04795880F97FB98
:10550000991F61F09F3F79F0879508951216130651
:105510001406551FF2CF4695F1DF08C01616170680
:105520001806991FF1CF86957105610508940895B5
:10553000E894BB2766277727CB0197F908950E9447
:10554000112B08F48FEF08950E94B72A0C944C2B6E
:105550000E943E2B38F00E94452B20F0952311F03D
:105560000C94352B0C943B2B11240C94992A0E94FB
:10557000762A70F3959FC1F3950F50E0551F629FF7
:10558000F001729FBB27F00DB11D639FAA27F00D9C
:10559000B11DAA1F649F6627B00DA11D661F829FC3
:1055A0002227B00DA11D621F739FB00DA11D621FA8
:1055B000839FA00D611D221F749F3327A00D611DC5
:1055C000231F849F600D211D822F762F6A2F1124A7
:1055D0009F5750409AF0F1F088234AF0EE0FFF1FDA
:1055E000BB1F661F771F881F91505040A9F79E3F31
:1055F000510580F00C94352B0C94992A5F3FE4F30D
:10560000983ED4F3869577956795B795F795E79586
:105610009F5FC1F7FE2B880F911D9695879597F98F
:105620000895990F0008550FAA0BE0E8FEEF161633
:105630001706E807F907C0F012161306E407F50786
:1056400098F0621B730B840B950B39F40A2661F0FA
:10565000232B242B252B21F408950A2609F4A1409D
:10566000A6958FEF811D811D089597F99F6780E8AA
:1056700070E060E008959FEF80EC089500240A94A4
:105680001616170618060906089500240A9412161D
:105690001306140605060895092E0394000C11F450
:1056A000882352F0BB0F40F4BF2B11F460FF04C0FD
:1056B0006F5F7F4F8F4F9F4F0895AA1BBB1B51E118
:1056C00007C0AA1FBB1FA617B70710F0A61BB70B72
:1056D000881F991F5A95A9F780959095BC01CD0117
:1056E000089597FB072E16F4009407D077FD09D094
:1056F0000E945D2B07FC05D03EF4909581959F4F4D
:105700000895709561957F4F0895EE0FFF1F0590E6
:10571000F491E02D0994F999FECF92BD81BDF89ADC
:10572000992780B50895A6E1B0E044E050E00C94DC
:10573000D22BA8E1B0E042E050E00C94D22B262F0F
:10574000F999FECF92BD81BDF89A019700B4021677
:1057500039F01FBA20BD0FB6F894FA9AF99A0FBE25
:1057600008950396272F0E94A02B0E949F2B252F80
:105770000E94A02B242F0C94A02B262FF999FECF4A
:105780001FBA92BD81BD20BD0FB6F894FA9AF99A5E
:105790000FBE019608950E94BD2B272F0C94BE2B9F
:1057A000DC01CB01FC01F999FECF06C0F2BDE1BDE1
:1057B000F89A319600B40D9241505040B8F70895D0
:0457C000F894FFCF8B
:1057C40005010C1B0CDA0C1E0C1F0C200C060E61C0
:1057D4000E3E0E090E0A0E010178022808140A3240
:1057E4001E01404D1B39BE03710356031D03B00255
:1057F400C902E202FB0201020304050607080900CC
:106800008800EA40E940E240040005000600070075
:10681000080009000A000B000C000D000E000F001C
:1068200010001100120013001400150016001700CC
:10683000180019001A001B001C001D001E001F007C
:10684000200021002200230024002500260027002C
:10685000280029002A002B002C002D002E002F00DC
:10686000300031003200330034003500360037008C
:10687000380039003A003B003C003D003E003F003C
:1068800040004100420043004400450046004700EC
:10689000480049004A004B004C004D004E004F009C
:1068A000500051005200530054005500560057004C
:1068B000670059005A005B005C005D005E005F00ED
:1068C000600061006200630064007600850058008B
:1068D000F450F550F650F750F850F950FA506F0058
:1068E0007000710072007300890087008A008B00BD
:1068F000E000E100E200E300F1A1E500E600E700CE
:106900000100010001000100010002F0010001008E
:106910000100010092410100010001004A004B000A
:10692000010001000100010001000100010001005F
:106930006F40010001000100704001003A003B007F
:106940003C003D003E003F0040004100420043004B
:10695000010035004C000100010044004500010029
:1069600001000100010050004F0029004D004E00C1
:1069700051000100010001000100010001000100BF
:1069800001000100010001000100010001000100FF
:106990000100010001000100010001000100E940C7
:1069A000E240EA4001000100010001000100010095
:1069B00001000100010001000100010001000100CF
:1069C00001000100010001000100010001000100BF
:1069D00001000100010001000100010001000100AF
:1069E0000100010001000100490001000100010057
:1069F000010001000100010001000100010001008F
:00000001FF
