:100000000C94FE000C941B010C941B010C941B011E
:100010000C941B010C941B010C941B010C941B01F0
:100020000C941B010C941B010C9499130C946E14EA
:100030000C946D0A0C941B010C941B010C941B0175
:100040000C941B010C9405050C941B010C941B01D2
:100050000C941B010C948D200C941B010C941B011F
:100060000C941B010C940C0A0C941B010C941B01A6
:100070000C941B010C941B010C941B010C941B0190
:100080000C941B010C941B010C941B010C941B0180
:100090000C941B010C941B010C941B010C941B0170
:1000A0000C941B010C941B010C941B0160076A0744
:1000B0006A077307730780078007940794074E0940
:1000C00057095709570957095909590959095C0925
:1000D0005C095C095C095C095C095F095F095F09EF
:1000E0005F095F095F09620962096209D714FA149E
:1000F000BA15FA14BA153F156215BA158415971575
:10010000CD17CD17E417E417CD17CD17E417E41773
:10011000D817D817E017E417E417E017691869181B
:10012000B718B7180F195819B718B7188119191B2C
:10013000AA19AA198B1AA01A191B061B0C50111BFD
:100140007829182C0B16792B1C800D071D041252D0
:1001500010067B1433380E098017135136197A1A9A
:10016000287D0F0A7E152A4F37056508FFD2B48017
:100170000000000001010102020304050506070951
:100180000A0B0C0E0F1112141517191B1D1F21231A
:1001900025282A2C2F313436393B3E414346494CE1
:1001A0004F5255585A5D6164676A6D707376797CF9
:1001B0007F8386898C8F9295989B9EA2A5A7AAADD6
:1001C000B0B3B6B9BCBEC1C4C6C9CBCED0D3D5D7E7
:1001D000DADCDEE0E2E4E6E8EAEBEDEEF0F1F3F49F
:1001E000F5F6F8F9FAFAFBFCFDFDFEFEFEFFFFFF57
:1001F00062620028008315087432000011241FBEBB
:10020000CFEFDAE0DEBFCDBF15E0A0E0B1E0E8E37C
:10021000FFE402C005900D92AA30B107D9F728E09B
:10022000AAE0B5E001C01D92A437B207E1F70E9431
:10023000780F0C949A270C9400000F931F93CF9380
:10024000DF938C01C62FD42F0E94E71FF801928103
:10025000C13029F010F1C43009F43EC048C09923E0
:10026000C9F0D1FF02C09AE001C090E0D0FD906AD1
:10027000982321F080FD02C085E307C09D2F947074
:10028000892311F08DE301C089E280930A058091F2
:100290000A051BC080910A0526C0D63040F52D2FD7
:1002A00030E0F9019923A1F0EE0FFF1FEC5CFE4F47
:1002B00085FF02C0808101C08181F901E55FFA4FAD
:1002C0008083F901E55FFA4F80810E941B170DC002
:1002D000E55FFA4F808107C0992321F0827239F4DB
:1002E0008CE2F3CF8CE20E9466170E942120F80175
:1002F0008281882309F487C0CA3029F1B8F4C2305A
:10030000D1F0C33009F07FC09091820581E0892748
:10031000809382059091CD0788E889278093CD0747
:10032000DF91CF911F910F910C944104CB3091F04C
:10033000CC30B9F068C085E090E0DF91CF911F919B
:100340000F910C94C10E8D2FDF91CF911F910F91C2
:100350000C9438078D2FDF91CF911F910F910C9442
:100360006E0F0E94D4158152914009F04CC00FB617
:10037000F894A89580916000886180936000109245
:1003800060000FBE87E10E94921780E40E949217DE
:1003900087E50E94991700E010E0F801F695E795CF
:1003A000F05A85919491980123703327232B39F4C7
:1003B0008130910521F40D5F1F4FC5E00CC000FD99
:1003C00002C020E001C022E002C0969587952A95E0
:1003D000E2F7C82FC3738C2F0E94921786EE90E02D
:1003E0000E94421B8C2F0E9499170F5F1F4F01150F
:1003F00020E1120790F20E943F0ADF91CF911F91F6
:100400000F910C94B017DF91CF911F910F91089528
:1004100080E090E0089580FF02C08D9A01C08D9821
:1004200081FF02C08E9A01C08E9882FF02C08F9A0F
:1004300008958F980895CF93C0E08C2F0E940B02EF
:1004400083B190E0809590958F739927892B29F43B
:10045000CF5FC83091F780E001C081E0CF9108956F
:1004600080917408909175088A3A9B4BB9F48091F9
:100470002001882399F0539A5B98559A5D98269AA3
:100480002E9A8FEF91E12AE7815090402040E1F7CA
:1004900000C000005D9A80E98093C90008958091B2
:1004A0007408909175088A3A9B4B31F41092750844
:1004B000109274080E943A0C0E94070784B1807C55
:1004C00084B985B18F6385B980B3806E80BB089590
:1004D0009F92AF92BF92CF92DF92EF92FF920F93D3
:1004E0001F93CF93DF9380911205882351F00E94D0
:1004F0001B02882309F492C01092120581E08093B8
:1005000011058091110581110EC00E947220209169
:100510007305309174058217930709F47FC0909397
:10052000740580937305C5E7D5E0B12C80E3A82E50
:1005300003E115E093E4C92E95E0D92EEE24E3946F
:10054000F12C3AE0932E8B2D0E940B0280E18A95CC
:10055000F1F760910401D601F80120E030E083B1A9
:10056000522F90E0022E02C0959587950A94E2F7EB
:1005700080FD02C080E801C080E04C914695482B88
:100580004D93C70101C0880F5A95EAF75081552352
:1005900031F07881782319F4515050830EC06417DC
:1005A00028F49881892B8883908207C0443028F4EE
:1005B0008095988189238883AA9431962F5F3F4F35
:1005C0002630310561F686E0C80ED11C0A5F1F4F48
:1005D000B394219688E0B812B6CFA11004C081E090
:1005E000809312051BC080910C0182FD0BC080918D
:1005F000730880FD07C08CE090E09093DE06809346
:10060000DD0604C01092DE061092DD068091110511
:10061000882321F0109211050E94680281E0DF9189
:10062000CF911F910F91FF90EF90DF90CF90BF90EF
:10063000AF909F900895E82FF0E0EB58FA4F80813B
:100640000895CF93C0E00E94EB16C81710F4CF5F57
:10065000FACFCF91089580911A018A3028F10E9433
:100660006802E3E4F5E080E090E02191222339F094
:100670008E3011F08B3111F49C5901C09F5F8F5F58
:10068000803399F780912001983C41F481110FC08B
:100690008AE190E00E94C10E81E00895811106C0B8
:1006A00081E0911104C002C00C941B0280E0089507
:1006B00080912B0184FD05C08FEB8093040180E0C5
:1006C00004C08BEF8093040186E00C941B18269ADB
:1006D0002E98E0E0F2E684918093840585919491D0
:1006E00090938505E0E0F3E6E491E09386059F3F73
:1006F00019F481E080938105EF3F19F481E0809344
:10070000800582E092E6FC014591559165917491D6
:1007100040937E05FC0145915591659174915093EC
:100720007D05FC0185919591A591B491A0937F05DC
:100730000895CF93C82F811102C02E9A0FC0823026
:1007400069F480910C0182FD09C0769840917F0583
:1007500060917D0580917E050E94C50781E090E053
:1007600001C0880FCA95EAF790918305892B809381
:100770008305CF910895811102C02E9806C0823062
:1007800021F490910C0192FF769A21E030E0A901CA
:1007900002C0440F551F8A95E2F7CA0180959091D7
:1007A00083058923809383050895EF92FF920F9329
:1007B0001F93CF93DF93D82F04E815E0C0E0E62E17
:1007C000F12CDD2331F0F80180818D1B883088F415
:1007D00001C08C2F970102C0359527958A95E2F7C5
:1007E00020FF04C08C2F0E94990303C08C2F0E940D
:1007F000BB03CF5F0F5F1F4FC33019F7DF91CF915E
:100800001F910F91FF90EF9008956091830580E014
:100810000C94D503CF92DF92FF920F931F93CF9347
:10082000DF93F82E04E815E0C0E0D0E0CC24C394B8
:10083000D12CF80181918F018F110DC0209183057A
:10084000C6010C2E01C0880F0A94EAF78227809314
:1008500083050E9405042196C330D10551F7DF912D
:10086000CF911F910F91FF90DF90CF900895682F47
:10087000669581E00C94D503682F669589E00C9409
:10088000D5036091820585E10C94D503682F80E142
:100890000E94D5030C944104F894E0ECF0E08081D0
:1008A00082688083E1ECF0E08081896080838FEF53
:1008B0008093CF0081E00E945D203F9A7894089554
:1008C000F8943F98E0ECF0E080818D778083E1EC54
:1008D000F0E08081867F80838FEF8093CF007894D3
:1008E00010928A050895CF9390918105992341F044
:1008F000809173088E7F8093730810922B082DC00F
:10090000C82F0E94B022C73090F4C430D0F4C13058
:1009100020F110922B0810928C050E944C04EC2FB1
:10092000F0E0E459FE4FE491E093060119C0C930AC
:10093000A0F40E944C0410922B0881E080938C0557
:100940000FC081E080932B0810928C050E944C040C
:1009500087E08C1B80938D0503C0CF910C946004BD
:10096000CF910895869580588093060108959091BF
:10097000CF0098138093CF000895FC0190917308E5
:1009800090FF18C082818823A9F0892F8E7F8E3036
:1009900039F480918B058A508A3050F48AE008C07F
:1009A000803141F480918B05865F863708F086E7B9
:1009B00080938B050895CF9380918C05882319F13E
:1009C000809189058F5F863018F4809389051BC05C
:1009D00010928905C0918B05EC2FF0E0E059FE4F95
:1009E00084910E94B204809173088E7F8E3021F42E
:1009F000CE3748F4CF5F05C0803129F4C23018F0FB
:100A0000C150C0938B05CF9108951F920F920FB6DE
:100A10000F9211242F933F934F935F936F937F9384
:100A20008F939F93AF93BF93CF93EF93FF93809157
:100A3000730880FF6AC080918A0591E08E3740F08C
:100A40002091DD063091DE062D30310508F490E06E
:100A500090FF30C0909188059F5F923018F490937A
:100A6000880553C0109288052091DD063091DE067E
:100A70002D30310520F0882329F0815001C08F5F8F
:100A800080938A05E0918A05F0E0E059FE4FE491F9
:100A90008091060120E031E0281B3109E29FC0016E
:100AA000E39F900D112497FF02C081509F4F892F23
:100AB000809529C080912B08882309F180918705B2
:100AC0008F5F8093870590918D059817C0F41092E1
:100AD0008705C0918B05EC2FF0E0E059FE4F849123
:100AE0000E94B204909105018C2F890F80938B0591
:100AF0008F3711F0811103C09195909305010E94E9
:100B0000DB04809106010E94B704FF91EF91CF9121
:100B1000BF91AF919F918F917F916F915F914F9115
:100B20003F912F910F900FBE0F901F90189528B1F5
:100B3000362F3095232338B1632B3FB7F894FC014F
:100B400089E18150E1F0919148E068B997FF28B9B7
:100B5000990F000000C028B9000000C000C000C00C
:100B600000C000C000C000C000C000C000C000C085
:100B700000C000C000C000C04A9539F7E2CF3FBFB7
:100B800008953E9A60E470E00C9497059D5F81158E
:100B900024E0920710F09350FACF0895EF92FF925D
:100BA0000F931F93CF93DF9300D000D01F92CDB748
:100BB000DEB7062F142F79010E94C605492F943005
:100BC000B8F5602F70E0869F9001879F300D11244B
:100BD000832F9927A12FB0E08A9FF0018B9FF00D02
:100BE0009A9FF00D112420E031E0261B370B2A9F3D
:100BF000C0012B9F900D3A9F900D11249C839983E7
:100C0000892F8F0F8D838A831F1B1B83842F90E076
:100C1000FE01E80FF91F3181FE01E80FF91F208165
:100C2000FE01E80FF91F8281F7018183308322835F
:100C30000F900F900F900F900F90DF91CF911F9119
:100C40000F91FF90EF9008958AE090E00C94C026F9
:100C5000AB01BC018AE090E00C94DE2660910B01B0
:100C600070910C0180910D0190910E010C94280659
:100C700088E1ECE2F8E0DF011D928A95E9F708953A
:100C800080911E01882319F0ECE2F8E030C08091D9
:100C90009C0591E08B3740F02091DD063091DE0617
:100CA0002D30310508F490E090FFEECF2091DD0665
:100CB0003091DE062D30310568F0843018F0845014
:100CC00080939C05E0919C05F0E0E059FE4FACE27A
:100CD000B8E002C08C5FF4CF8C919491899FC001E1
:100CE00011249D9328E0A434B207B1F7CDCF8081C1
:100CF00023E0829FC001112495958795959587954E
:100D0000819388E0E434F80791F78CE298E00C9442
:100D1000C10520910C0122FF15C024E438E00E9497
:100D2000CE05ECE2F8E08091440890914508A0914E
:100D3000460881939193A19388E0E434F80799F7EA
:100D40000C94400608950F931F93CF93DF93162FB3
:100D5000D42F0E94C605082FC92F80910C0182FF55
:100D600023C0887F883029F44D2F612F802F0E9467
:100D7000890600930B01C37080910C018C7FC82BF6
:100D8000C0930C0110930D01D0930E0160910B01E3
:100D900070910C0180910D0190910E01DF91CF9126
:100DA0001F910F910C942806DF91CF911F910F9105
:100DB000089590910C0192FD04C0769A10929C05C2
:100DC00011C087FD04C087311CF080E001C086E1BE
:100DD000880F880F880F90910C019770892B809352
:100DE0000C01769860910B0170910C0180910D01BE
:100DF00090910E010E94280690910C0140910E01E5
:100E000060910D0180910B0193700C94A3060E94D8
:100E1000D522811104C00E94B6220E942E060E9493
:100E2000240660930B0170930C0180930D01909345
:100E30000E0180910E01811103C08FE780930E0196
:100E40006E9A80910C018695869586950C94D906AC
:100E5000ECE0F1E0808182FB222720F991E09227EB
:100E600090FB82F980838695869586950C94D906A9
:100E7000CF92DF92EF92FF920F931F93CF93DF9366
:100E8000D82FE0900B0180910C018370F82EC09058
:100E90000D0140910E01042FD0FF02C0CFEF01C021
:100EA000C1E00E94E71F81FDC1958D2F90E0893040
:100EB000910508F04CC0FC01EA5AFF4F0C949623B0
:100EC000DF91CF911F910F91FF90EF90DF90CF9026
:100ED0000C94280780910C018695869586958C0F39
:100EE0000E94D90634C080910B0120910C01922FF1
:100EF00093707C0124E1C202E00CF11C112429C092
:100F000080910D0191E1C90260011124C80ED11C2C
:100F10002FEFC216D10409F01CF4D7FC27C019C06A
:100F2000CC24CA94D12C15C080910E0191E1C90244
:100F3000A00111248A01080F111D0F3F110509F0AE
:100F40001CF417FD16C005C00FEF10E002C0D3302F
:100F500098F0402F6C2DC701DF91CF911F910F9119
:100F6000FF90EF90DF90CF900C94A306C12CD12C72
:100F7000F0CF00E010E0EDCFDF91CF911F910F9106
:100F8000FF90EF90DF90CF900895ECE2F8E081833E
:100F900060834283339698E0E434F907C1F70C94F8
:100FA0004006FC0190911C078081803449F58181C5
:100FB0008B3B21F4CF0103960C94470C933019F42A
:100FC00082810C94D906943021F4438162810C947F
:100FD000C5079530A9F4883068F4A82FB0E0848163
:100FE0009381228111962C9311979C9312968C9346
:100FF0000C9440068F3F21F4828193810C94421B14
:101000000895CF93C82FE0919B05F0E0E059FE4F83
:10101000449190910C0160910D0180910B019370AE
:101020000E94890630910A0120919B053C9F200D6A
:10103000112420939B052C1738F08C2F90E0820F01
:10104000911D8F3791051CF0319530930A01CF9196
:101050000895CF93C82FEBE0F1E043816281809146
:10106000990590919A050E94890680919905909121
:101070009A0523E0C29F800D911D11240E94C60590
:1010800090939A0580939905CF910895EF92FF92DE
:101090001F93CF93DF93182F169580FD11958CE247
:1010A000E82E88E0F82EC0E0D0E08091970590917E
:1010B0009805970140910E0160910D018C0F9D1FC5
:1010C0000E94CE05E09623E0E20EF11CC03881E0DC
:1010D000D80759F70E94400680919705909198058E
:1010E00020E1129F8019910911240E94C605909356
:1010F000980580939705DF91CF911F91FF90EF9016
:101100000895FF920F931F93CF93DF9390919605CD
:101110009F5F282F2695291740F090939605DF9121
:10112000CF911F910F91FF900895C82F10929605AF
:101130000E943806C0FF02C0CFEF01C0C1E000E04E
:1011400010E0D0E0F09009012F2D2D0F27FF02C0F5
:10115000285F03C028300CF02850022E000C330BFF
:10116000C901880F991F280F391F245D374F8091BF
:101170000B0140910C01942F937040910E016091EE
:101180000D01800F911F0E94CE05DC0F0E5C1F4FDA
:10119000083C1105B9F6CF0DC9301CF010920901B9
:1011A00008C0C7FD03C0C093090103C088E0809355
:1011B0000901DF91CF911F910F91FF900C94400690
:1011C000909195059F5F891718F090939505089564
:1011D000109295050E94380690E020E08091080169
:1011E000820F883098F490E0FC01EE0FFF1F8E0F05
:1011F0009F1FFC01E45DF74F8091440890914508E2
:10120000A091460880839183A28391E02F5F2430D0
:1012100029F791110E9440069091070180910801E1
:10122000890F809308018D5F8B30B0F0919590937A
:101230000701809193059091940588960E94C605B8
:10124000909394058093930524E438E040910E0137
:1012500060910D010C94CE0508958091800588233E
:1012600031F0769A80910C018B7F80930C017699F6
:101270002CC090910C0192FF28C08091D80681115A
:1012800024C0892F869586958695E82FF0E0E73172
:10129000F105D8F4E15AFF4F0C94962340910E01CA
:1012A00060910D0180910B0193700C9489060C9450
:1012B000010884500C94290886500C9446088E50DE
:1012C0000C94810883510C94E00808958BB18F72BF
:1012D0008BB90E946004769A10929C0508958091C3
:1012E000D806811104C00E94E9220E9407070C94CD
:1012F0000504769918C080919105909192050E94FD
:101300007E20899780F00E947220909392058093AE
:10131000910580911E01882321F080912001811187
:1013200002C00C942D09089580918F05909190052D
:101330000E947E208739910508F453C00E947220D4
:101340009093900580938F0580918E058F5F809399
:101350008E059091D8069923D1F0843008F441C0CD
:10136000913011F080E001C083E080938E05809180
:10137000D90080FF08C00E946004769A95B180E48D
:10138000892785B908951092D8060C946F09809129
:101390001E01882331F1769880918E05813031F4D9
:1013A0002E980E9438060E9440060FC0833069F4D0
:1013B0002E9A8091DB06882319F060E840E002C095
:1013C00060E040E880E00E94C5079091DB068091D4
:1013D0008E05911102C0853010F48B3010F0109200
:1013E0008E05089590919D0580919E05891751F075
:1013F000E92FF0E0E156FA4F80819F5F90939D05C1
:1014000090E008958FEF9FEF08959091C80095FFA9
:10141000FCCF8093CE0008951F920F920FB60F92CB
:1014200011248F939F93EF93FF93E0919E0581E0AA
:101430008E0F90919D05891741F09091CE00F0E0BC
:10144000E156FA4F908380939E05FF91EF919F9113
:101450008F910F900FBE0F901F9018950E94B0179C
:1014600080911A01823050F48FE19EE40197F1F7E8
:1014700000C000000E9420130E943F0AFFCF9EE0A0
:1014800088E10FB6F894A895809360000FBE909302
:101490006000089580916A088430E1F081E08093D3
:1014A0009F0629E488E190E00FB6F894A895809310
:1014B00060000FBE209360000E94660983B7817FA1
:1014C000846083BF83B7816083BF7894889583B736
:1014D0008E7F83BF08950C946F091F920F920FB6F1
:1014E0000F9211248F939F93AF93BF9380919F0688
:1014F000813099F48091D2079091D307A091D407BD
:10150000B091D5078096A11DB11D8093D20790930D
:10151000D307A093D407B093D507BF91AF919F9104
:101520008F910F900FBE0F901F9018958091BB0662
:10153000089508950F931F93CF930E9472208C01FA
:10154000C0E0C8010E947E204E9708F50E94F20973
:101550008F3F2FEF9207C9F0AC0155274D30510551
:10156000A1F02C2F30E04A30510551F4C23030F058
:10157000F901E056F94F80818F3449F08FE590E012
:10158000F901EE55F94F8083CF5FC731D0F2EC2FD0
:10159000F0E0EE55F94F108282EA96E0CF911F916C
:1015A0000F910895CF93C9E10E94F209019611F0BD
:1015B000C150D0F7C093BF06CF9108950F931F93EA
:1015C000CF93DF935D991AC0092F182FCFEF809129
:1015D000BF06811109C0CC2349F00E94D20A88E2DB
:1015E0008A95F1F7C150F3CFCC2341F0C12FD02F12
:1015F0008991882319F00E94050AFACFDF91CF91D3
:101600001F910F9108959C012F5631092230310509
:1016100028F02A5731092230310560F42091BE06A6
:10162000211103C02FEF2093BE069093BD06809337
:10163000BC0602C01092BE062091C106211116C040
:101640009F938F9380E491E09F938F9387E498E03A
:101650009F938F930E9405240F900F900F900F90EF
:101660000F900F9087E498E00C94DE0A0895CF93D2
:10167000DF93EC018091C106811132C08C81282F4B
:10168000082E000C330B3F938F938B81282F082E4D
:10169000000C330B3F938F938A81282F082E000C68
:1016A000330B3F938F938981282F082E000C330B27
:1016B0003F938F9388E591E09F938F9387E498E021
:1016C0009F938F930E94052487E498E00E94DE0A8E
:1016D0008DB79EB70C960FB6F8949EBF0FBE8DBF08
:1016E0008091C10681111FC088819091BA06891727
:1016F000D1F08093BA061F928F9388E791E09F9371
:101700008F9385E598E09F938F930E9405240F9017
:101710000F900F900F900F900F9087E498E0DF915B
:10172000CF910C94DE0ADF91CF9108950E94DE0ADA
:101730000C949A0ACF93DF93EC0186E90E945D2016
:10174000CE01DF91CF910C94960B80912B0187FDF8
:101750000C94B01708958091C206882321F010924E
:10176000C2060C9421200895CF93DF932091C206E6
:1017700021115EC02091C10621115AC0EC0183E8FD
:1017800091E00E94DE0A8F811F928F938E811F92BB
:101790008F938D811F928F938C811F928F938B815A
:1017A0001F928F938A811F928F9388811F928F93AC
:1017B00087E991E09F938F9387E498E09F938F93BD
:1017C0000E94052487E498E00E94DE0A8DB79EB748
:1017D00042960FB6F8949EBF0FBE8DBF88818111CF
:1017E00011C08A8181110EC00E949A0AFC01808179
:1017F0008F3419F41092C00605C08091C0068F5F27
:101800008093C006F8E2FA95F1F78881811110C043
:101810008A81833531F0893331F0873449F482E1AC
:1018200003C080E101C081E1DF91CF910C940A04F3
:10183000DF91CF9108958091BE068823D1F0823048
:1018400020F081508093BE0608958091A00690916B
:10185000A1060E947E20899760F00E9472209093DA
:10186000A1068093A0068091BC069091BD060C94C1
:10187000030B08958EEB91E00C949A0B803319F4CE
:101880008FEC91E002C08EED91E00C949A0BCF9317
:10189000DF93EC018DEE91E00E94DE0ACE010E9402
:1018A000DE0A8EEB92E0DF91CF910C949A0B8CEFD5
:1018B00091E00C94470C86E092E00E94960BFC01AC
:1018C0008081089585E192E00C949A0B559A5D9879
:1018D0000E946920F89487E68093CC0088E9809381
:1018E000C90082E08093C800789485E292E00E946B
:1018F0009A0B85E292E00E94960BFC018081813474
:1019000021F48181843591F505C08F3479F5818189
:101910008B3461F50E943A0C85E292E00E949A0BAA
:1019200089E292E00E949A0B0E94570C8EED91E0A2
:101930000E949A0B80E392E00E949A0B0E94620C34
:1019400080E492E00E949A0B8DE592E00E949A0B4F
:1019500089E992E00E949A0B8DEA92E00E94960B30
:1019600010927508109274080E942E0AF8948CE068
:101970008093CC00789485E292E00C94960B909141
:101980006A0881E0943009F080E080931F01809123
:101990002B0187FF1CC00E94D4158F50914059F035
:1019A0008FE091E00E94CF15809182058D7F80931A
:1019B00082050E9441048091DC06811129C080913A
:1019C0001F01882329F180912B018F7707C0943064
:1019D00061F090912001992321F0806880932B0180
:1019E00008958CE080931A0108950E94D4158152C5
:1019F000914071F081E291E00E94CF1580918205C3
:101A00008260809382050E94410481E08093DC061D
:101A10000895CF93769903C0882309F497C0C82FFF
:101A200080EC92E00E94960BFC018081833308F4E5
:101A300058C0228190ED920F9A3008F052C02A517E
:101A400044E6849F200D112481819AE0899F200D16
:101A50001124223708F445C030E02F5C3E4F63E08C
:101A6000220F331F6A95E1F780911C0190911D01AF
:101A700083374EE0940709F4C901280F391FC901C3
:101A80009695879590931D0180931C0154E036959F
:101A900027955A95E1F74FEC420F4093DA064091B3
:101AA000D90040FF0CC041E04093D70680379041F9
:101AB00010F42B5301C026532093DA0602C0109273
:101AC000D7068091DA06823918F01092D80609C03C
:101AD0008A3710F481E003C08A3818F485E08093D7
:101AE000D806C13099F59091DA06EAE2F3E08AE58A
:101AF0002191921718F48A50D9F78CE22091D806D8
:101B00002111822F2091D706943D10F4820F01C03D
:101B100084E680931B011F928F938CEC92E09F933D
:101B20008F9387E498E09F938F930E94052487E426
:101B300098E00E94960B0F900F900F900F900F90CF
:101B40000F9087E498E0CF910C94960BCF91089575
:101B500081E00C94090DCF935D9911C10E94D20AC6
:101B60008091C006882389F08091DB06882369F084
:101B70000E94A50B8091C006803139F41092DB06DB
:101B80005D9A82E30E945D205D98C091D606CC23C9
:101B900009F441C00E945B0C8133E9F58EED92E0BF
:101BA0000E94960BFC0101900020E9F79F0125514E
:101BB00031092817390779F5C13081F422E02093E3
:101BC000D606C0931E011092DB0621E1FC01A3ECB6
:101BD000B6E001900D922A95E1F71DC041E150E079
:101BE00063EC76E00E94F823892B51F08091D606B1
:101BF0008F5F8093D606853070F01092D6060BC0AA
:101C000081EF92E00E94960B80911E018F30A8F721
:101C100082E08093D6068091E206811186C0809191
:101C2000DF069091E0060E947E20883E934008F4F3
:101C30007CC00E9472209093E0068093DF06809122
:101C4000DB06811105C08091D606811126C008C02F
:101C50008091D5068F5F8093D5068370A1F334C041
:101C60000E945B0C813321F481E08093DB0613C07A
:101C7000803399F41092DB068091E1068F5F8093A8
:101C8000E10690911F01911108C08A3530F05D9AEC
:101C900080E98093C9001092E10680911E0188239B
:101CA00099F08F5F80931E01853128F010921E01FC
:101CB0000E94050409C08091DB06882329F084E690
:101CC00080931E011092D5068091D4068F5F809379
:101CD000D406877021F48091D7060E94090D809167
:101CE0001F01811122C080911E0181111EC08091AF
:101CF00019018823D1F08091DD069091DE060196CE
:101D00009093DE068093DD06883223E2920740F04E
:101D100084E080931A015D9A80E98093C90005C030
:101D20000F9718F082E080931A018091D9068823DA
:101D300019F18C30B9F0823139F483E093E00E94DC
:101D4000DE0A8AEA92E014C08531A1F40E94620C96
:101D500080E30E943E0C81E30E943E0C8CE193E004
:101D60000E94960B83E093E00E94DE0A89EC92E0E9
:101D70000E94960B1092D906CF910C941B0CCF9118
:101D80000895CF93DF93C82F0E94E71FD82F0E949A
:101D9000B017C531B1F1B0F4CF3009F46AC030F4F6
:101DA000C53009F476C0CC3049F192C0C23131F16E
:101DB000C33109F08DC09091190181E0892780938A
:101DC000190154C0C931C9F128F4C63111F1C83123
:101DD00051F07EC0CA3139F1CC3B09F079C081E0C5
:101DE0008093D60678C080912001882309F472C0C0
:101DF00090912B01905890932B016DC0C093D90600
:101E000069C0D0FF65C0C093D90681E080931E01F0
:101E100062C080911E01811102C081E001C084E690
:101E200080931E0157C0D0FD02C061E001C06DEB80
:101E300080E290E00E94CC26FFCF80911B0160E001
:101E400090E00E94EF17D0FF0BC08DE290E00E945F
:101E5000421B60E080911C0190911D010E94EF17D0
:101E60008DE290E00E94421B8091DB060E941B18CD
:101E700031C080911F0181112DC05D9A80E980934E
:101E8000C9008AE080931A011092DB060E94E11ECD
:101E900021C08D2F837251F0DD7DD13031F48BE282
:101EA0009CEF9093010880930008FFCFDC3039F459
:101EB0008AEA9BEB9093750880937408FFCF82E3C6
:101EC0009FE00E94421B82E39FE10E94421B02C0EE
:101ED00080E001C081E0DF91CF9108958B3008F060
:101EE0008550E82FF0E0EF5DFC4F80810C94C10E2F
:101EF000CF93DF9390E080E80FB6F8948093610071
:101F0000909361000FBE0E9430020E947B13789470
:101F100080E290E00E94B8268D3B11F410922001DF
:101F200080912001882321F00E94660C0E94A80D58
:101F3000CFEF80916A08C150843029F084E00E947C
:101F40005D20C111F6CF0E9427160E943F0AC1E012
:101F5000D8E90E94BF0C80911A018A3048F4A895F4
:101F6000823020F40E9433160E9494090E94AB0D27
:101F700080911A01823040F4809120018111E9CFD3
:101F800080916A08843029F30E944A0A0E943F0A1D
:101F90000E942B038823E9F21092DE061092DD06E0
:101FA000809120018823A1F0C0931A015D9904C09B
:101FB00081E00E94090D0CC0C0931E015D988091C4
:101FC000C900803919F484E60E945D20D093C900CD
:101FD0000E946F098091DC06882309F4BACF8091B2
:101FE0006A08853009F0B5CF0E94FC11B2CF80910C
:101FF000F40608958FEF9091E800815095FD06C09A
:102000009AE69A95F1F700C08111F5CF8091E8002A
:1020100085FB882780F991E089270895CF93DF9386
:1020200000D01F92CDB7DEB720916A082430B9F4F2
:1020300023E029839B838A832093E9000E94FA0F7F
:1020400081110DC040E050E063E070E0CE010196E8
:102050000E9411128091E8008E778093E8000F9023
:102060000F900F90DF91CF910895CF93DF9300D021
:102070001F92CDB7DEB720916A082430C1F422E068
:1020800029839B838A8383E08093E9000E94FA0F6F
:1020900081110DC040E050E063E070E0CE01019698
:1020A0000E9411128091E8008E778093E8000F90D3
:1020B0000F900F90DF91CF910895CF93DF932091F0
:1020C0006A082430A1F4EC0182E08093E9000E94C8
:1020D000FA0F81110CC040E050E065E070E0CE01E5
:1020E0000E9411128091E8008E778093E800DF91C2
:1020F000CF910895CF93DF93EC0190916A089430CB
:10210000B9F580912B0181718131B9F49093E90087
:102110008FEF9091E800815095FD06C095E19A956A
:10212000F1F700008111F5CF8091E80085FF20C014
:1021300040E050E060E170E00BC081E08093E90096
:102140000E94FA0F811114C040E050E068E070E096
:10215000CE010E9411128091E8008E778093E800F2
:1021600080E1FE01A4EEB6E001900D928A95E1F7C0
:10217000DF91CF91089580916908811109C00E9473
:1021800020130E947B138091E20084608093E20020
:102190000895109269080895089542E061EC81E085
:1021A0000E94BA1242E061EC82E00E94BA1242E060
:1021B00061EC83E00E94BA1242E161EC84E00C948D
:1021C000BA1280916C08833009F455C030F4813024
:1021D00071F0823009F48EC008958A3009F47AC013
:1021E0008B3009F460C0893009F09CC020C0809118
:1021F0006B08813A09F096C08091E800877F809350
:10220000E80080916F0890917008892B21F460E1BB
:1022100084EE96E003C060E080E090E070E00E9411
:102220005C128091E8008B778093E800089580919C
:102230006B08813209F076C080916F089091700828
:10224000009719F0039709F06DC08091E800877F2F
:102250008093E8008091E80082FD05C080916A08C3
:102260008111F8CF5FC08091F1008093F4068091D6
:10227000E8008B7753C080916B08813A09F052C017
:1022800080916F0890917008892B09F04BC0809164
:10229000E800877F8093E8008091E80080FFFCCF12
:1022A00080912B0136C080916B088132D9F58091E5
:1022B0006F0890917008892BA9F58091E800877FBD
:1022C0008093E8000E94CE1280916D0880932B01CC
:1022D0000C94B01780916B08813221F58091E80051
:1022E000877F8093E8000E94CE1280916E088093D1
:1022F000F506089580916B08813AA1F48091E80079
:10230000877F8093E8008091E80080FFFCCF809178
:10231000F5068093F1008091E8008E778093E800C5
:102320000C94CE1208958091F4068093E3061092E7
:10233000F40680E00E9446040E94ED160C94B0174B
:102340000C9493110E946B0A8091E3068093F4062B
:1023500008950C94A211292F332723303105C1F0A1
:1023600058F42130310579F022303105E9F58DE658
:1023700090E02CE833E03CC021323105C1F022323C
:10238000310511F131C082E190E029EF33E030C036
:1023900099278330910540F5FC01EE0FFF1FE65BA6
:1023A000FC4F20813181FC01E95BFC4F1AC0643095
:1023B000D8F4E62FF0E0EE0FFF1FE15CFC4F208128
:1023C000318189E090E014C0643070F470E0FB016A
:1023D000EE0FFF1FE95CFC4F20813181FB01ED5CBA
:1023E000FC4F808190E004C080E090E020E030E08D
:1023F000FA0131832083089519BC82E089BD09B4B4
:1024000000FEFDCF8091D8008F7D8093D800809111
:10241000E00082608093E0008091E00081FDFCCFCD
:102420000895CF92DF92EF92FF920F931F93CF9375
:10243000DF93EC018B017A010E94ED12811133C010
:10244000E114F10439F0F70180819181081B190B27
:10245000C80FD91FC12CD12C0115110519F180917C
:10246000E80085FD16C08091E8008E778093E80033
:10247000E114F10449F0F70180819181C80ED91E61
:10248000D182C08285E00FC00E94ED12882321F323
:102490000AC089918093F10001501109FFEFCF1A12
:1024A000DF0ADACF80E0DF91CF911F910F91FF908B
:1024B000EF90DF90CF9008952091710830917208CD
:1024C0002617370748F06115710539F42091E800A7
:1024D0002E772093E80001C0B901FC0120E06115CE
:1024E000710579F180916A088823F1F18530F1F165
:1024F0008091E80083FD3CC08091E80082FD2EC001
:102500008091E80080FFEBCF2091F3008091F200F2
:1025100090E0922B6115710551F08830910538F4E7
:1025200021912093F100615071090196F3CF21E0D0
:10253000089709F020E08091E8008E778093E8000A
:10254000CECF2111CFCF0AC080916A08882361F0D5
:10255000853061F08091E80083FD0AC08091E80039
:1025600082FFF2CF80E0089582E0089583E008952D
:1025700081E008958F708093E900EBEEF0E08081B8
:1025800081608083EDEEF0E010826093EC00408388
:102590008091EE00881F8827881F089580916B081E
:1025A00087FF11C08091E80082FD05C080916A0814
:1025B0008111F8CF11C08091E8008B770BC080911A
:1025C0006A08882349F08091E80080FFF8CF809165
:1025D000E8008E778093E80008952091E400309120
:1025E000E50095E64091EC00842F817040FF23C008
:1025F0008091E80080FD1DC080916A08882399F0D1
:10260000853099F08091EB0085FD11C04091E40088
:102610005091E5002417350729F3915011F09A01E4
:10262000E1CF84E0089582E0089583E0089581E099
:10263000089580E008954091E80042FFDDCF0895BD
:102640000E948C130E949413E0EEF0E08081816080
:102650008083E8EDF0E080818F77808319BCA7ED5F
:10266000B0E08C918E7F8C9380818F7E80831092DE
:10267000690808950F931F93CF93DF930E948C13E3
:102680000E949413C8EDD0E088818F778883888179
:102690008068888388818F7D888319BC10926A083E
:1026A000109267081092680800EE10E0F80180812F
:1026B0008B7F808388818160888342E060E080E056
:1026C0000E94BA12E1EEF0E080818E7F8083E2EE1C
:1026D000F0E0808181608083808188608083F80160
:1026E00080818E7F8083888180618883DF91CF9114
:1026F0001F910F910895E8EDF0E080818F7E808337
:10270000E7EDF0E080818160808384E082BF81E03A
:10271000809369080C943A13E8EDF0E080818E7F95
:1027200080831092E20008951092DA001092E10086
:1027300008951F920F920FB60F9211242F933F937B
:102740004F935F936F937F938F939F93AF93BF93B9
:10275000EF93FF938091E10082FF0BC08091E20034
:1027600082FF07C08091E1008B7F8093E1000E948F
:10277000CE158091DA0080FF1DC08091D80080FFC7
:1027800019C08091DA008E7F8093DA008091D900A1
:1027900019BC80FF0BC082E089BD09B400FEFDCFEB
:1027A00081E080936A080E94BB1004C010926A08FE
:1027B0000E94C9108091E10080FF19C08091E20061
:1027C00080FF15C08091E2008E7F8093E2008091AF
:1027D000E20080618093E2008091D8008062809363
:1027E000D80019BC85E080936A080E94A0118091EE
:1027F000E10084FF35C08091E20084FF31C0809108
:102800001F01823010F40E942E0A19BC82E089BD9B
:1028100009B400FEFDCF8091D8008F7D8093D80051
:102820008091E1008F7E8093E1008091E2008F7EB5
:102830008093E2008091E20081608093E2008091C9
:102840006708882311F084E007C08091E30087FDCA
:1028500002C081E001C083E080936A080E94A91150
:102860008091E10083FF29C08091E20083FF25C0B1
:102870008091E100877F8093E10082E080936A0885
:10288000109267088091E1008E7F8093E100809133
:10289000E2008E7F8093E2008091E200806180936D
:1028A000E20042E060E080E00E94BA128091F00015
:1028B00088608093F0000E94CC10FF91EF91BF914F
:1028C000AF919F918F917F916F915F914F913F91C8
:1028D0002F910F900FBE0F901F9018951F920F927F
:1028E0000FB60F9211242F933F934F935F936F93E3
:1028F0007F938F939F93AF93BF93CF93DF93EF9388
:10290000FF93C091E900CF708091EC00D82FD17077
:1029100080FDD0E81092E9008091F000877F8093DD
:10292000F00078940E94B2141092E9008091F000B7
:1029300088608093F000CD2BCF70C093E900FF91A9
:10294000EF91DF91CF91BF91AF919F918F917F9147
:102950006F915F914F913F912F910F900FBE0F900C
:102960001F9018951F93CF93DF9300D0CDB7DEB79C
:10297000EBE6F8E083E798E02091F10021938E17D1
:102980009F07D1F70E94E1108091E80083FFF2C019
:1029900080916B0890916C08492F50E04A305105A6
:1029A00008F0E8C0FA01EA58FF4F0C9496238038EB
:1029B00081F0823809F0DEC080916F088F708093BB
:1029C000E9008091EB0085FB882780F91092E900EF
:1029D00007C080916808882311F082E001C080E080
:1029E0009091E800977F9093E8008093F100109217
:1029F000F10095C0282F2D7F09F0BCC0882319F065
:102A0000823061F0B7C080916D08813009F0B2C0AA
:102A1000933009F080E0809368082BC080916D08A6
:102A2000811127C080916F088F7009F4A3C0809333
:102A3000E9002091EB0020FF1CC0933021F480912D
:102A4000EB00806214C09091EB0090619093EB00DA
:102A500021E030E0A90102C0440F551F8A95E2F73A
:102A60004093EA001092EA008091EB008860809326
:102A7000EB001092E9008091E800877F53C081113C
:102A800079C010916D081F778091E3008078812BC9
:102A90008093E3008091E800877F8093E8000E94A4
:102AA000CE128091E80080FFFCCF8091E300806827
:102AB0008093E300111102C082E001C083E08093A3
:102AC0006A0858C08058823008F054C0AE014F5F89
:102AD0005F4F60916F0880916D0890916E080E9421
:102AE000AB11BC01892B09F445C09091E800977F98
:102AF0009093E80089819A810E945C128091E8009D
:102B00008B778093E80036C08038A1F58091E8008B
:102B1000877F8093E800809167088093F10080911F
:102B2000E8008E778093E8000E94CE1223C08111C6
:102B300021C080916D0890916E0899270297D4F476
:102B40008091E800877F8093E80080916D088093F2
:102B500067080E94CE1280916708811106C080919B
:102B6000E30087FD02C081E001C084E080936A0831
:102B70000E94CD108091E80083FF0AC08091E80098
:102B8000877F8093E8008091EB0080628093EB0068
:102B90000F900F90DF91CF911F910895089590931A
:102BA000FB068093FA0608958091FA069091FB0641
:102BB0000895E091FA06F091FB06309721F001901C
:102BC000F081E02D099480E00895E091FA06F091FB
:102BD000FB06309721F00280F381E02D09940895DF
:102BE000E091FA06F091FB06309721F00480F58120
:102BF000E02D099408952091F8063091F9062817E0
:102C0000390771F09093F9068093F806E091FA067F
:102C1000F091FB06309721F00680F781E02D0994B2
:102C200008952091F6063091F7062817390771F0BC
:102C30009093F7068093F606E091FA06F091FB0672
:102C4000309721F00084F185E02D099408950E94C9
:102C500069200E944F020E9467030E949E220C94EA
:102C6000E92281E00895AF92BF92CF92DF92EF9276
:102C7000FF920F931F93CF93DF9300D000D01F924A
:102C8000CDB7DEB70E9468020E943116A82E84E1FB
:102C9000E82E87E0F82E10E0812F0E941B03B82E4B
:102CA000F701C080C82641F18091D10781FD0E94C3
:102CB000210300E0DD24D3948C2D8D21B9F0AA20CE
:102CC000A9F009831A8391E08B2D8D2109F490E0FE
:102CD0009B830E94722081609D838C83CE0101962C
:102CE0000E94EE16CE0101960E94BD040F5FDD0C1E
:102CF000063011F7F701B0821F5FFFEFEF1AFF0AEE
:102D0000183051F680E090E00E94EE160E9479099A
:102D10000E94962180911C07882389F080911207D8
:102D2000909113070E947E208C34910540F0109200
:102D300011078DEF96E00E94D10710921C070E94A8
:102D4000D9159091FC068917A1F10E94D91580939D
:102D5000FC0684FF2CC0E0911C07F0E0E350F94F23
:102D60009081990F990F8370892B80830E94722024
:102D70009093130780931207809111078F5F8093C0
:102D800011078430B0F08091FD06803441F48091C9
:102D90001C07823020F487E490E00E94421B1092CE
:102DA000110780911C078F5F80931C0702C00E944F
:102DB0005B200F900F900F900F900F90DF91CF91AD
:102DC0001F910F91FF90EF90DF90CF90BF90AF9049
:102DD00008950C94460488E008950895CF93DF93F6
:102DE00000D000D000D0CDB7DEB7FC01892B39F47C
:102DF0000E947220816060E05FEF4FEF05C040816C
:102E00005181628183819481FE01319626E0DF0148
:102E10001D922A95E9F7782F9D838C838D819E8161
:102E20000E94A31D26960FB6F894DEBF0FBECDBF3D
:102E3000DF91CF910895CF93882309F445C0803B5B
:102E400029F480EF91E0CF910C94511EC82F8CEFA4
:102E50008C0F813A20F080E58C0F8E3280F48C2F1D
:102E60000E945E22811130C060E08C2F0E94961F6C
:102E70000E94212061E08C2F0E94961F0CC080E2EE
:102E80008C0F883058F4C77081E001C0880FCA9554
:102E9000EAF70E94EA1FCF910C94212088E58C0F5D
:102EA000833050F4C83A19F080E48C0F01C082EEF0
:102EB00090E0CF910C941116C03F30F08C2F0E94FF
:102EC000D620CF910C948B21CF910895882349F17E
:102ED0009CEF980F913A20F090E5980F9E3220F4E5
:102EE00060E00E94961F0DC090E2980F983058F451
:102EF000877091E001C0990F8A95EAF7892F0E94A7
:102F0000F01F0C94212098E5980F933020F480E076
:102F100090E00C941116803F20F00E9424210C9424
:102F20008B210895882321F00E94EA1F0C94212010
:102F30000895882321F00E94F01F0C942120089509
:102F40000E9407200E9421200E9452220E948B2171
:102F500080E090E00E94FB1580E090E00C94111658
:102F60000E94F71F0E94DD1F0C94A017CF93DF93E0
:102F700000D000D01F92CDB7DEB70E942A1FE92FE4
:102F8000E295EF704E2F50E0FA013297EE30F105E6
:102F9000D8F4E058FF4F0C949623853A28F48430F7
:102FA000A8F4823028F412C090E2980F983070F0A4
:102FB000843050F0853A50F0805D813238F004C0A2
:102FC00093FB882780F903C080E001C081E00F9067
:102FD0000F900F900F900F90DF91CF9108951F9356
:102FE000CF93DF93162F9F938F9387E095E09F9366
:102FF0008F938DE197E09F938F930E940524CDE1FD
:10300000D7E00F900F900F900F900F900F90899135
:10301000882369F0803309F48AE31111855C90E01C
:1030200043970E94421B87E0C232D80781F7DF91A5
:10303000CF911F91089560E090E00C94EF17CF922C
:10304000DF92EF92FF920F931F93CF93DF9300D005
:1030500000D01F92CDB7DEB76C0185E0F601DE012E
:10306000119601900D928A95E1F7F6012381348142
:1030700089819A812115310531F09F3F31F491E02A
:103080008F3F19F403C091E001C090E090FDD1C2E0
:10309000F6010281F580F2944FE0F42222303105EE
:1030A00061F0722F3D832C8349815A81602F8D817D
:1030B0000E942A1FE82E192F02C0E9801A81212FB1
:1030C00022952F70822F90E0FC01E257FF4F0C9465
:1030D0009623812F807F1F70882311F01295107F17
:1030E000002321F10E94E71F81239091CE07892BB5
:1030F0008093CE07112351F0EE2019F081E08093E8
:10310000CC07812F0E94FA1F0E9421208E2D0F9044
:103110000F900F900F900F90DF91CF911F910F9113
:10312000FF90EF90DF90CF900C941B179091CE07FB
:10313000812F809589238093CE071092CC078E2D06
:103140000E946617112309F474C2812F0E94002087
:103150000F900F900F900F900F90DF91CF911F91D4
:103160000F91FF90EF90DF90CF900C9421201F7073
:1031700020FF02C01295107FEE2021F0F1E0EF1643
:1031800009F12BC00023A9F0FF2059F121E0812F84
:10319000F21228C00F900F900F900F900F90DF91B8
:1031A000CF911F910F91FF90EF90DF90CF900C94F3
:1031B0000A20FF2021F081E0F81609F43AC20E94AB
:1031C0000D202BC00023E9F093E09F1508F431C2D5
:1031D0000E94E71F812329F020C00023F1F0F110A5
:1031E00015C0812F0F900F900F900F900F90DF91CF
:1031F000CF911F910F91FF90EF90DF90CF900C94A3
:103200009217E2E0EF1508F414C207C022FD40C196
:10321000F601858180FDE5CF3BC1812FCDC0812F97
:1032200086958695837019F08130C1F002C2002323
:1032300021F08E2D912F937002C080E090E00F90CE
:103240000F900F900F900F90DF91CF911F910F91E2
:10325000FF90EF90DF90CF900C9411160023B9F0FF
:103260008E2D912F93708115E3E09E0794F085EFEA
:1032700091E00E94511E8E2D82958F700E941B1826
:103280008E2D8F700E941B1883EF91E04AC180E061
:1032900090E00F900F900F900F900F90DF91CF91D3
:1032A0001F910F91FF90EF90DF90CF900C94FB1542
:1032B0008E2D002389F00E94D6200E948B21F5E4F8
:1032C000FE1508F4B6C1EE2DF0E0E452F84F81E0AF
:1032D00080838093DB07ADC10E9424210E948B2153
:1032E00025E42E1508F4A5C12E2D30E0F901E45295
:1032F000F84F1082EE2011F0C901FDC084EF90E577
:10330000FAC0011196C18E2D8F70E294E69427E0E9
:10331000E22211F420E001C024E001C0880F2A95C8
:10332000EAF7212F237011F460E005C01C7061E002
:10333000183009F481C00F900F900F900F900F90EC
:10334000DF91CF911F910F91FF90EF90DF90CF9081
:103350000C94CC1E80EFE81609F446C08E1520F0C0
:1033600090EDE91630F48AC0E1EFEE1609F473C06F
:1033700085C01F7169817A81812F0E94BE20FF2044
:1033800039F0F601258120FD03C08130910519F542
:10339000FFEDFE1520F0E29490EFE92203C02E2D00
:1033A0002F70E22E812F002321F00E94011F8E2D0D
:1033B00019CF0E94121F8E2D0F900F900F900F901B
:1033C0000F90DF91CF911F910F91FF90EF90DF90C1
:1033D000CF900C94991701112CC10E94421BF60149
:1033E00085818F70858325C10023A9F0F2E0FF1548
:1033F00008F41FC1812F8F710F900F900F900F90C5
:103400000F90DF91CF911F910F91FF90EF90DF9080
:10341000CF900C94011F23E02F1508F40AC11F71EF
:10342000812F0E94121F83E0F81203C161E081E046
:1034300001C0880F1A95EAF70F900F900F900F9028
:103440000F90DF91CF911F910F91FF90EF90DF9040
:10345000CF900C94221F0111CDCF812F8F710F902F
:103460000F900F900F900F90DF91CF911F910F91C0
:10347000FF90EF90DF90CF900C94121F002379F112
:10348000FF20F9F013FF04C0F601858180FD19C00B
:103490008E2D0E941B17F9E3EF1203C082E30E94F6
:1034A0005D20EA81898126E0E29FF0011124E80F86
:1034B000F11DEE0FFF1FE65AF84FF12CF182E0826A
:1034C000B8C0012F0770802F0E94011F14FFB1C0E8
:1034D00069817A81802F0E94BE2061E00DC0012F9A
:1034E0000770802F0E94121F14FFA3C069817A8188
:1034F000802F0E94BE2060E00F900F900F900F90E1
:103500000F90DF91CF911F910F91FF90EF90DF907F
:10351000CF900C94271B412F4F706E2DC6010E9437
:1035200008020F900F900F900F900F90DF91CF91A6
:103530001F910F91FF90EF90DF90CF900C94511E50
:10354000011177C0EE2041F0812F8F70843021F07F
:10355000107F8E2D8F70182B1F701230C9F1A0F4C0
:10356000112339F1113009F064C00F900F900F90C2
:103570000F900F90DF91CF911F910F91FF90EF90DF
:10358000DF90CF900C941923133089F1143009F097
:1035900050C08E2D0F900F900F900F900F90DF91D5
:1035A000CF911F910F91FF90EF90DF90CF900C94EF
:1035B0007E230F900F900F900F900F90DF91CF917F
:1035C0001F910F91FF90EF90DF90CF900C94FE220F
:1035D0000F900F900F900F900F90DF91CF911F9150
:1035E0000F91FF90EF90DF90CF900C943C230F90C1
:1035F0000F900F900F900F90DF91CF911F910F912F
:10360000FF90EF90DF90CF900C945B23412F4F7091
:103610006E2DC6010F900F900F900F900F90DF91BD
:10362000CF911F910F91FF90EF90DF90CF900C946E
:103630001D010F900F900F900F900F90DF91CF9181
:103640001F910F91FF90EF90DF90CF900895CF934F
:10365000DF9300D000D000D0CDB7DEB789839A8346
:103660006B8382E090E09D838C83CE0101960E9463
:103670001F1826960FB6F894DEBF0FBECDBFDF91A0
:10368000CF910895CF93DF93EC0161E00E94271B57
:1036900060E0CE01DF91CF910C94271BCF93DF9395
:1036A00000D000D01F92CDB7DEB70F900F900F90D3
:1036B0000F900F90DF91CF910895CF93DF9300D0BB
:1036C00000D000D0CDB7DEB726960FB6F894DEBF97
:1036D0000FBECDBFDF91CF9108951F93CF93DF939E
:1036E000C091220716E080912307C81799F0D0E017
:1036F0001C9FF0011D9FF00D1124EC5DF84F4081DF
:10370000518162817381848195810E945D1B219624
:10371000C770E9CFDF91CF911F9108954091540771
:10372000509155076091560770915707809158073F
:10373000909159070C945D1B0F931F93CF93DF93C8
:103740008091590782958F7009F05DC0809156076E
:10375000882309F458C080912207109123076091B3
:10376000540770915507C0915707D091580791E0C1
:103770006F3F09F090E0292F06E0811709F443C05C
:10378000209721F07F3F21F030E003C031E001C0FD
:10379000322F90E030FD34C0089FF001099FF00DFA
:1037A0001124DF01AC5DB84F11963C91119737138E
:1037B00027C03C91361324C012963C9112973111C8
:1037C0001FC013964D915C9114974C1B5D0B483CA8
:1037D0005105B0F4809159078F708061809359072B
:1037E000E75DF84F80818F708061808384E597E08A
:1037F0000E941F18DF91CF911F910F910C946D1BA8
:1038000001968770BACFDF91CF911F910F910895E4
:10381000BF92CF92DF92EF92FF920F931F93CF93BD
:10382000DF9300D000D01F92CDB7DEB78C0185E0CA
:10383000F801DE01119601900D928A95E1F7D80109
:103840004C9111965C9111971296FC9012971396D9
:103850008D919C91149730915407E0915507609198
:103860005707709158076115710531F0EF3F31F43A
:1038700021E03F3F19F403C021E001C020E0B22F56
:10388000B170BB2E20FD19C124E5C22E27E0D22E37
:10389000E0905607DC01A61BB70BEE2009F484C0AC
:1038A00020915907A83CB10508F08BC0622F607FBA
:1038B00009F053C05E1313C0431311C0EF2CF11075
:1038C0000EC02F702061209359070E948E1BC601E5
:1038D0000E941F1880915907F801858324C1009721
:1038E00031F05F3F31F421E04F3F19F403C021E094
:1038F00001C020E020FD03C021E02F2502C020E010
:1039000030E0F22FF170EF2E20FF1DC02091220732
:103910006091230776E0261709F4E0C030E0729F3B
:10392000F001739FF00D1124EC5DF84FA1815A1343
:1039300006C0A0814A1303C0E281FE1204C02F5FBB
:103940003F4F2770E8CFEF2CFF2009F4ECC08091A7
:10395000590781608093590749C05E130AC0431319
:1039600008C0F11006C0F80125836EC05E1709F487
:103970003FC049835A83FB82782F9D838C836F2DB0
:103980008D810E94B6178823B1F0FF20A1F086E058
:10399000F801A4E5B7E001900D928A95E1F70E9445
:1039A0009C1B0E948E1B0AC0A83CB10508F076C083
:1039B000EF2CF1102CC0C8010E941F18EE24E394D4
:1039C000B2C0622F607F91F6782F9D838C836F2D1C
:1039D0008D810E944E1B84E597E00E941F1886E0AF
:1039E000D6011D928A95E9F70E948E1BE12C9BC09F
:1039F0004313BFCFF110BDCFF8012583C8010E944A
:103A00001F1886E0D6011D928A95E9F78CC05E13D7
:103A100030C043132EC02091590720FD21C0822FB2
:103A200082958F70482F50E041155105C9F0F8017B
:103A300025834F30510541F08F5F982F9295907FED
:103A4000822F8F70892B8583C8010E941F1886E002
:103A5000F801A4E5B7E001900D928A95E1F72AC03C
:103A600086E0F801A4E5B7E001900D928A95E1F7B0
:103A70005AC049835A83FB82782F9D838C836F2D94
:103A80008D810E94B617811182CF80915907816084
:103A900080935907C8010E941F1845C0782F9D8345
:103AA0008C836F2D8D810E944E1B86E0D6011D9266
:103AB0008A95E9F70E948E1B36C0FF2009F47BCF60
:103AC00049835A83FB82782F9D838C836F2D8D8150
:103AD0000E94B617882309F46ECF59CF782F9D83A3
:103AE0008C836F2D8D810E942A1F292F22952F7084
:103AF000243038F4223040F49F7069F081110BC0FB
:103B000011C02650223050F49F7029F0D80115962C
:103B10009C91907F39F0805E883020F0C8010E942F
:103B20001F18BE2CEB2C8E2D0F900F900F900F9026
:103B30000F90DF91CF911F910F91FF90EF90DF9049
:103B4000CF90BF9008951F93CF93DF93CDB7DEB78B
:103B50002C970FB6F894DEBF0FBECDBF4F835887AA
:103B600069877A878B879C87CE0107960E94081CFD
:103B70008823D1F09F8188852A853B85232B31F0CE
:103B80008F3F31F481E09F3F19F403C081E001C011
:103B900080E080FD47C04F81588569857A858B8597
:103BA0009C850E945D1B3EC086E0FE013796DE01CB
:103BB000119601900D928A95E1F7FF81E8856A855B
:103BC0007B856115710531F0EF3F31F481E0FF3FF6
:103BD00019F403C081E001C080E080FD23C0209182
:103BE000230730E0C9010196877099274091220789
:103BF00050E084179507F1F1F983EA837D836C83A4
:103C000096E0929FD001939FB00D1124AC5DB84F08
:103C1000FE01319601900D929A95E1F7809323076A
:103C20000E946D1B16E0809122079091230789174F
:103C300071F1189FC00111248C5D984F0E94081CDF
:103C4000882329F1E09122071E9FF0011124EC5DE9
:103C5000F84F4081518162817381848195810E94F6
:103C60005D1B8091220790E00196877099278093D1
:103C70002207D9CF0E94B017109223071092220773
:103C8000E4E5F7E086E0DF011D928A95E9F72C96DE
:103C90000FB6F894DEBF0FBECDBFDF91CF911F915D
:103CA0000895CF92DF92EF92FF921F93CF93DF930D
:103CB0007C010E94AB0BE114F10409F465C0E7013B
:103CC0002196F7011491193709F43EC0B8F414375E
:103CD00040F4143008F053C08FEF810F8230F8F0B9
:103CE00053C0143709F050C0F2E0EF0EF11CFE0192
:103CF00084910E945D20E7017E01E1CF133828F412
:103D0000113868F4103801F13FC01338B9F0143F8E
:103D100008F03AC01F77812F90E0926032C0FE0118
:103D200085919491612F6170E701133018F4229608
:103D3000992701C023960E94271BDECFFE018591A3
:103D40009491E70123961DC0FE01C590D490E70130
:103D5000239684E00E949217103849F461E081E0D4
:103D600090E00E94EF17F0EACF1AF6E8DF0A61E070
:103D7000C6010E94EF1784E00E949917BDCF812FE2
:103D800090E00E94421BB8CFDF91CF911F91FF902E
:103D9000EF90DF90CF900895E62FF0E0E45DFE4FC6
:103DA0008083611105C080912C010E943C0407C0F2
:103DB00090912D0180912E01892B0E9437040C9443
:103DC000A01762E080E00C94CC1E21E030E0A90155
:103DD00002C0440F551F8A95E2F7CA0190912E0147
:103DE00062E0892B0C94CC1E21E030E001C0220F50
:103DF0008A95EAF7209580912E0162E082230C9447
:103E0000CC1E90912F01981306C09091BA079F5F26
:103E10009093BA0705C091E09093BA0780932F0161
:103E20000C94E51E90912F0198130AC09091BA0747
:103E300091509093BA07911103C093E690932F018C
:103E40000C94F41EE62FF0E0E45DFE4F908189278C
:103E50000C94CC1ECF92DF92EF92FF920F931F93A0
:103E6000CF93DF9300D000D01F92CDB7DEB78A0189
:103E7000662309F441C0C0902C0180912D01C82A0D
:103E800080912E01C82A80912F01883028F037E0D8
:103E9000E32EF12CD12C08C0BA010E94BE2001975C
:103EA000B1F380912F0116C0C6010E2C02C095956A
:103EB00087950A94E2F780FD06C021E0E21AF10836
:103EC00099F780E007C0B8018E2D0E94BE200197AF
:103ED000A1F38E2D09831A8369817A810E94BE2005
:103EE00026E0129FF0011124E00FF11DEE0FFF1FDD
:103EF000E65AF84F9183808386E0189FF0011124E1
:103F0000E00FF11DEE0FFF1FE65AF84F80819181FF
:103F10000F900F900F900F900F90DF91CF911F9106
:103F20000F91FF90EF90DF90CF90089590912B012B
:103F300091799131F1F4382F3695369536953F3099
:103F4000D8F5E0913001F0913101282F277081E000
:103F500090E001C0880F2A95EAF7E30FF11D662370
:103F600019F09181892B03C08095918189238183E8
:103F70000895E0913001F0913101DF01129690E057
:103F80002D91821308C0292F30E0662351F0E20FF3
:103F9000F31F828308952223B1F39F5F9D3081F741
:103FA00008952E5F3F4FE20FF31F9D3021F0818176
:103FB00081939F5FFACF10820895E0913001F091D4
:103FC000310180E1DF011D928A95E9F70895809122
:103FD000D00708959091D007892B8093D00708953A
:103FE00080959091D00789238093D00708951092EF
:103FF000D00708959091CF07892B8093CF0708951C
:1040000080959091CF0789238093CF0708951092D0
:10401000CF0708958093BB0708951092BB070895BA
:104020008091300190913101FC0131969C01205F1B
:104030003F4F80E0919191118F5FE217F307D1F725
:104040000895E0913001F09131018091D007808393
:10405000E0913001F091310190818091CF07892B5F
:104060008083E0913001F09131018091CE078095FD
:10407000908189238083E0913001F091310180911A
:10408000CD0780959081892380838091BB07882309
:1040900061F0E0913001F09131019081892B8083B2
:1040A0000E94102081111092BB07809130019091E5
:1040B00031010C94E5150C94E916882341F0EFE9E1
:1040C000FFE03197F1F700C000008150F6CFA895CE
:1040D000089582E084BD93E095BD9DE797BD8093F0
:1040E0006E0008952FB7F8948091D2079091D3076E
:1040F000A091D407B091D5072FBF08959C014FB769
:10410000F8948091D2079091D307A091D407B091F1
:10411000D5074FBF821B930B089578941F920F927F
:104120000FB60F9211248F939F93AF93BF938091FB
:10413000D2079091D307A091D407B091D5070196EB
:10414000A11DB11D8093D2079093D307A093D407EC
:10415000B093D507BF91AF919F918F910F900FBEF4
:104160000F901F901895E82FF0E086E0989FE00DE3
:10417000F11D1124E45CFE4F84910895CF93C82F64
:10418000CB010E94B320803819F480E090E00CC08D
:10419000EC2FF0E0FE2FEE27E050F04AE80FF11D83
:1041A000E80FF11D85919491CF910895803F08F417
:1041B0004AC0803F11F49FEF03C0813F21F491E09A
:1041C000909327083BC0823F11F49FEF03C0833FC9
:1041D00021F491E09093260831C0893F70F421E0EA
:1041E00030E09CE0980F01C0220F9A95EAF7909179
:1041F0002508292B2093250821C0893F11F491E03F
:1042000003C08A3F21F49FEF9093280817C08B3F8B
:1042100011F49FEF03C08C3F21F491E090932908A3
:104220000DC021E030E093E0980F01C0220F9A9575
:10423000EAF790912208292B20932208895F843085
:1042400010F4109223080895803F08F463C0803F63
:1042500039F48091270887FF5DC0109227080895E0
:10426000813F29F4809127081816BCF30895823FF6
:1042700039F48091260887FF4DC0109226080895D2
:10428000833F29F4809126081816BCF30895893FCE
:1042900088F4845F21E030E0A90102C0440F551F7B
:1042A0008A95E2F7CA018095909125088923809329
:1042B00025080895893F39F480912808181654F587
:1042C0001092280808958A3F29F48091280887FFD2
:1042D00021C0F6CF8B3F39F48091290887FF1AC09F
:1042E0001092290808958C3F29F480912908181606
:1042F000BCF308958D5F21E030E0A90102C0440FB6
:10430000551F8A95E2F7CA0180959091220889236A
:1043100080932208089585E298E00E94F0150E949B
:1043200072209093D8078093D70708950F931F9317
:10433000CF93DF938091DB078823D9F18091D90750
:104340009091DA070E947E202091330130E02817F7
:10435000390778F50E94E8238F70825E80933301DD
:104360000CED17E0C0E0D0E090E0F80181918F0102
:10437000882369F0CC2319F08C2F9D2F02C084EF85
:1043800090E56091320170E00E94271B91E0219638
:10439000C634D10551F72091320181E08227809304
:1043A00032019093DB070E9472209093DA0780938A
:1043B000D9078091D7079091D8070E947E20AC0141
:1043C00090912408923019F028E230E002C025E0F4
:1043D00030E04217530708F460C0D0912808C0911C
:1043E00029082091260880912708822B8D2B8C2B61
:1043F00019F41092240851C0923020F49F5F9093DA
:1044000024084BC0809123088F5F809323088F700E
:1044100021F010922808109229080E948B21D09335
:104420002808C09329088091D6078F5F8093D6070C
:104430008D3098F180912B0187FD02C080E001C092
:1044400085E08093D60790912208292F220F220F12
:10445000290FE5E2F8E03CEE44E181818823C1F0D8
:10446000992349F0181614F08FEF01C081E0829F64
:10447000802D11240AC018162CF48F5F85312CF082
:10448000418306C081508C3E14F0818301C031838A
:10449000319688E0E932F80701F7DF91CF911F915B
:1044A0000F910895E5E2F8E085E0DF011D928A951D
:1044B000E9F710922208089580E00895CF93909133
:1044C000CC07911137C0C82F80912A08882319F092
:1044D000813051F02CC0E0913001F09131018081A8
:1044E0008252823040F508C0E0913001F0913101F4
:1044F000808182528230B0F48C2F0E94C10E8111D3
:104500000CC0C13161F40E9458030E94B017909111
:104510002B0180E1892780932B0191E001C090E07D
:10452000917009C08C2F0E945C2291E004C010920F
:104530002A0801C090E0892FCF910895E1E8F0E0CA
:104540008081886080838081816080838FB7F894C8
:104550009AE79093890092E1909388008FBF089525
:10456000EFE6F0E080818260808308956DEE7EEF5B
:1045700080E090E00E94EA2660E082E090E00E9405
:10458000CC2660E083E090E00E94CC2660E084E0EE
:1045900090E00E94CC2660E085E090E00E94CC266E
:1045A00060E086E090E00C94CC2680E090E00E94F1
:1045B000C62621E08D3E9E4F09F020E0822F08950F
:1045C00086E090E00C94B826682F86E090E00C948A
:1045D000CC260E94D522811102C00E94B6220E94E0
:1045E000E02280937308811102C081E005C080FF42
:1045F00002C0869501C080E00C947304809173081A
:10460000982F9695292F30E08170283031054CF491
:104610009F5F990F892B8160809373080E94E42229
:1046200003C08061809373088091730886950C9411
:1046300073048091730880FF1EC0982F9695292FD0
:1046400030E02230310594F09158990F8170892B18
:10465000809373088E7F91E009F490E08091730855
:1046600090FB80F9809373080E94E4228091730884
:1046700086950C947304089580917308982F9095F3
:10468000917090FB80F980937308992339F0982FEB
:104690009E7F21F4817082608093730880917308FB
:1046A0000E94E4228091730880FF02C0869501C0B9
:1046B00080E00C94730490917308892F86958F5F26
:1046C0008F779170893028F4880F892B8093730835
:1046D00002C090937308809173088E7F91E009F473
:1046E00090E08091730890FB80F9809373080E949A
:1046F000E4228091730886950C947304880F90913E
:1047000073089170892B809373088E7F91E009F470
:1047100090E08091730890FB80F9809373080E9469
:10472000E4228091730886950C947304EE0FFF1FAA
:104730000590F491E02D09948F929F92AF92BF92D1
:10474000CF92DF92EF92FF92CF93DF93EC016881DB
:1047500079818A819B81611571058105910521F41B
:1047600064E279ED8BE597E02DE133EF41E050E035
:104770000E94002749015A019B01AC01A7EAB1E45C
:104780000E941F276B017C01ACEEB4EFA5019401E0
:104790000E942D27DC01CB018C0D9D1DAE1DBF1D80
:1047A000B7FF03C00197A109B04888839983AA8302
:1047B000BB839F77DF91CF91FF90EF90DF90CF90F9
:1047C000BF90AF909F908F9008950E949C23089572
:1047D00080E091E00E949C230895A0E0B0E08093E7
:1047E000000190930101A0930201B0930301089589
:1047F000FB01DC0104C08D910190801921F441502E
:104800005040C8F7881B990B0895AEE0B0E0EBE08C
:10481000F4E20C9440270D891E8986E08C831A836C
:1048200009838FEF9FE79E838D83AE01475E5F4FC5
:104830006F89788DCE0101960E942724EF81F8853B
:10484000E00FF11F10822E96E4E00C945C27ABE0A1
:10485000B0E0EDE2F4E20C9432276C017B018A01B6
:10486000FC0117821682838181FFCCC1CE010196A3
:104870003C01F6019381F70193FD859193FF8191AE
:104880007F01882309F4BAC1853239F493FD8591FB
:1048900093FF81917F01853229F4B60190E00E9457
:1048A0001E26E7CF912C212C312CFFE1F315D8F0F7
:1048B0008B3279F038F4803279F08332A1F4232DF1
:1048C00020611DC08D3261F0803369F4232D216099
:1048D00016C0832D8260382EE32DE4603E2E2AC060
:1048E000F32DF8601DC037FC2DC020ED280F2A30B5
:1048F00040F08E32B9F436FC81C1232D2064322E73
:1049000019C036FE06C08AE0989E200D1124922E12
:1049100011C0EAE02E9E200D1124222EF32DF0620C
:104920003F2E08C08C3621F4832D8068382E02C0BB
:10493000883641F4F70193FD859193FF81917F01C2
:104940008111B3CF982F9F7D9554933028F40C5F3D
:104950001F4F9FE399830DC0833631F0833771F089
:10496000833509F059C021C0F801808189830E5F29
:104970001F4F88248394912C530113C02801F2E027
:104980004F0E511CF801A080B18036FE03C0692D86
:1049900070E002C06FEF7FEFC5010E9413264C014B
:1049A0008201F32DFF773F2E16C0280122E0420E30
:1049B000511CF801A080B18036FE03C0692D70E063
:1049C00002C06FEF7FEFC5010E9408264C01F32D56
:1049D000F0683F2E820133FC1BC0822D90E08816C8
:1049E0009906B0F4B60180E290E00E941E262A9457
:1049F000F4CFF50137FC859137FE81915F01B60157
:104A000090E00E941E2621102A9421E0821A91082B
:104A10008114910471F7E8C0843611F0893641F5AC
:104A2000F80137FE07C060817181828193810C5F3C
:104A30001F4F08C060817181072E000C880B990BF5
:104A40000E5F1F4FF32DFF763F2E97FF09C0909505
:104A50008095709561957F4F8F4F9F4FF0683F2EE7
:104A60002AE030E0A3010E945A26882E861845C00D
:104A7000853731F4232D2F7EB22E2AE030E025C079
:104A8000932D997FB92E8F36C1F018F4883579F0BF
:104A9000B5C0803719F0883721F0B0C0E92FE06148
:104AA000BE2EB4FE0DC0FB2DF460BF2E09C034FE37
:104AB0000AC0292F2660B22E06C028E030E005C0CB
:104AC00020E130E002C020E132E0F801B7FE07C08B
:104AD00060817181828193810C5F1F4F06C060816C
:104AE000718180E090E00E5F1F4FA3010E945A2663
:104AF000882E8618FB2DFF773F2E36FE0DC0232D06
:104B00002E7FA22E891458F434FE0BC032FC09C04B
:104B1000832D8E7EA82E05C0B82CA32C03C0B82CE4
:104B200001C0B92CA4FE0FC0FE01E80DF11D80816B
:104B3000803321F49A2D997EA92E09C0A2FE06C0C9
:104B4000B394B39404C08A2D867809F0B394A3FC7F
:104B500011C0A0FE06C0B21488F4280C922C9B1839
:104B60000EC0B21460F4B60180E290E00E941E26EE
:104B7000B394F7CFB21418F42B1802C0982C212C40
:104B8000A4FE10C0B60180E390E00E941E26A2FEA3
:104B900017C0A1FC03C088E790E002C088E590E060
:104BA000B6010CC08A2D867859F0A1FE02C08BE2B6
:104BB00001C080E2A7FC8DE2B60190E00E941E26B3
:104BC000891438F4B60180E390E00E941E269A947E
:104BD000F7CF8A94F301E80DF11D8081B60190E0D2
:104BE0000E941E268110F5CF222009F442CEB60184
:104BF00080E290E00E941E262A94F6CFF60186817C
:104C0000978102C08FEF9FEF2B96E2E10C944E2725
:104C1000FC010590615070400110D8F78095909587
:104C20008E0F9F1F0895FC0161507040019001108C
:104C3000D8F7809590958E0F9F1F08950F931F931F
:104C4000CF93DF93FB01238121FD03C08FEF9FEF03
:104C50002CC022FF16C0468157812481358142171E
:104C6000530744F4A081B1819D012F5F3F4F3183F1
:104C700020838C93268137812F5F3F4F3783268394
:104C800014C08B01EC01FB010084F185E02D099536
:104C9000892BE1F6D80116968D919C911797019674
:104CA00017969C938E931697CE01DF91CF911F910B
:104CB0000F910895FA01AA27283051F1203181F18E
:104CC000E8946F936E7F6E5F7F4F8F4F9F4FAF4F14
:104CD000B1E03ED0B4E03CD0670F781F891F9A1F27
:104CE000A11D680F791F8A1F911DA11D6A0F711DDB
:104CF000811D911DA11D20D009F468943F912AE0E7
:104D0000269F11243019305D3193DEF6CF010895CE
:104D1000462F4770405D4193B3E00FD0C9F7F6CFFF
:104D2000462F4F70405D4A3318F0495D31FD4052C7
:104D3000419302D0A9F7EACFB4E0A695979587955D
:104D400077956795BA95C9F700976105710508953C
:104D50009B01AC010A2E06945795479537952795E8
:104D6000BA95C9F7620F731F841F951FA01D089580
:104D7000F999FECF92BD81BDF89A992780B5089523
:104D8000A6E1B0E044E050E00C94F226A8E1B0E0E7
:104D900042E050E00C94F226262FF999FECF92BD06
:104DA00081BDF89A019700B4021639F01FBA20BDF0
:104DB0000FB6F894FA9AF99A0FBE08950396272F22
:104DC0000E94CD260E94CC26252F0E94CD26242F7E
:104DD0000C94CD260196272F0E94CD260C94CC262C
:104DE000DC01CB01FC01F999FECF06C0F2BDE1BDAB
:104DF000F89A319600B40D9241505040B8F708959A
:104E0000052E97FB1EF400940E94172757FD07D02C
:104E10000E94692707FC03D04EF40C941727509585
:104E20004095309521953F4F4F4F5F4F0895909596
:104E30008095709561957F4F8F4F9F4F08950E9489
:104E40008B27A59F900DB49F900DA49F800D911D61
:104E500011240895B7FF0C941F270E941F27821B5F
:104E6000930B08952F923F924F925F926F927F9291
:104E70008F929F92AF92BF92CF92DF92EF92FF926A
:104E80000F931F93CF93DF93CDB7DEB7CA1BDB0B16
:104E90000FB6F894DEBF0FBECDBF09942A883988BB
:104EA00048885F846E847D848C849B84AA84B984C2
:104EB000C884DF80EE80FD800C811B81AA81B981CE
:104EC000CE0FD11D0FB6F894DEBF0FBECDBFED01E2
:104ED0000895A1E21A2EAA1BBB1BFD010DC0AA1F3B
:104EE000BB1FEE1FFF1FA217B307E407F50720F053
:104EF000A21BB30BE40BF50B661F771F881F991FCE
:104F00001A9469F760957095809590959B01AC0116
:104F1000BD01CF010895A29FB001B39FC001A39F1F
:104F2000700D811D1124911DB29F700D811D1124E2
:084F3000911D0895F894FFCFD4
:104F380001000000BF01FF0107FC018046FFFF964A
:104F48000AB40B370B990A030B01010C730E010409
:104F580001F70F7A105D1035100E10110101006372
:104F6800BC07011E2935342838373852330F312A07
:104F780041542B424C45484944434F4E54524F4CA0
:104F88004B45593D25640A0041542B424C4548493C
:104F9800444D4F5553454D4F56453D25642C25648A
:104FA8002C25642C25640A00425554544F4E3D2547
:104FB800640A0041542B424C454B4559424F4152DB
:104FC80044434F44453D00253032582D30302D257F
:104FD8003032582D253032582D253032582D253075
:104FE80032582D253032582D253032580A00415478
:104FF8002B464143544F525952455345540A004198
:10500800542B424C45484944454E3D300A004154D2
:105018002B424C45484944454E3D310A0041542BEA
:105028004741504445564E414D453D005944504D29
:105038003430424C450041542B4741504745544376
:105048004F4E4E0A0041542B47415044454C424F65
:105058004E44530A0041540A004154453D300A0069
:1050680041542B47415053544152544144560A002D
:1050780041542B47415454414444534552564943A3
:10508800453D555549443D363135390A0041542B83
:1050980047415454414444434841523D555549447D
:1050A8003D3078324131392C50524F504552544995
:1050B80045533D31362C4D494E5F4C454E3D312CC4
:1050C80056414C55453D390A0041542B424C4550F8
:1050D8004F5745524C4556454C3D340A0041542BD8
:1050E80042415544524154453D37363830300A0024
:1050F80041542B48574144433D360A0041542B47FD
:10510800415454434841523D312C25640A004154CE
:105118002B424C4547455450454552414444520A58
:105128000041542B474150444953434F4E4E454349
:10513800540A0041542B4741505345544144564466
:105148004154413D30322D30312D300041545A0AFE
:10515800001813120C15BC190F1ACBBFB6AAA39DC1
:1051680097918A404D3639C7047A0444040B049E4B
:1051780003B703D003E903040A2A88037C03500316
:105188002A035900440050004D003400300042000A
:105198004C004500200028005500530042005F00E5
:1051A80044004F0036004100290000000A0359005E
:1051B80044004B00420000000403090409026D008A
:1051C800040100A0FA0904000001030101000921FB
:1051D80011010001224000070581030800010904AC
:1051E80001000103010200092111010001224D0003
:1051F80007058203080001090402000103000000FA
:105208000921110100012236000705830308000A5D
:105218000904030001030000000921110100012213
:105228003900070584031000011201100100000075
:10523800084459481801000102000105010906A1A6
:1052480001050719E029E715002501950875018171
:105258000205081901290595057501910295017541
:10526800039101050719002977150025019578751F
:10527800018102C005010980A101850216010026ED
:10528800B7001A01002AB700751095018100C00502
:105298000C0901A1018503160100269C021A0100D0
:1052A8002A9C02751095018100C005010902A1011F
:1052B8000901A10005091901290515002501950510
:1052C80075018102950175038101050109300931D4
:1052D8001581257F95027508810609381581257F76
:1052E800950175088106050C0A38021581257F95F8
:1052F8000175088106C0C005010906A10105071945
:10530800E029E715002501950875018102950175C9
:10531800088101050819012905950575019102956E
:1053280001750391010507190029FF150026FF00E3
:0A533800950675088100C025640089
:106000006400EA44E944E244040005000600070095
:10601000080009000A000B000C000D000E000F0024
:1060200010001100120013001400150016001700D4
:10603000180019001A001B001C001D001E001F0084
:106040002000210022002300240025002600270034
:1060500000F101F700F52BA22C002D002E002F00DF
:106060003000310032003300340035003600370094
:10607000380039003A003B003C003D003E003F0044
:1060800040004100420043004400450046004700F4
:10609000480049004A004B004C004D004E004F00A4
:1060A000E6005100500053005400550056005700C0
:1060B000580059005A005B005C005D005E005F0004
:1060C00060006100620063006400E2008500670018
:1060D000F450F550F650F750F850F950FA506F0060
:1060E0007000710072007300890087008A008B00C5
:1060F000E000E100E300E000E40052322CA1E70000
:106100000000010001000100010000D001D00100E9
:106110002000010092412F00250030002D002E00AC
:1061200033000100260027001E002100010022008C
:10613000240002D01F000100230001000100010023
:106140000100010001000100010001000100010047
:1061500001000100640001000100010001000100D4
:106160000100010001002E000100010001000100FA
:106170000100010001000100010001000100010017
:106180000100010001000100010001000100010007
:106190000100010001000100010001000100E940CF
:1061A0000100EA40E240010001000100010001009D
:1061B00001000100010001000100010001000100D7
:1061C00001000100010001000100010001000100C7
:1061D00001000100010001000100010001000100B7
:1061E00001000100010001000100010001000100A7
:1061F0000100010001000100010001000100010097
:1062000011000100010001004C0002F0010001C07A
:1062100000C03E0001003A00010001002D002E00E8
:10622000330001000100010001003B004E000100AD
:106230006F4001004B0001007040010001000100AF
:106240000100010001000100010001000100010046
:1062500034003900010001000100010001000100CB
:1062600001000100010001000100010001003100F6
:1062700038000100010001000100010001000100DF
:106280000100010001000100010001000100010006
:1062900001000100010001000100010001000100F6
:1062A00001000100010001000100010001000100E6
:1062B00001000100010001000100010001000100D6
:1062C00001000100010001000100010001000100C6
:1062D00001000100010001000100010001000100B6
:1062E00001000100010001000100010001000100A6
:1062F00001000100010004F00100010001000100A3
:1063000001000100010001000100010001000AF686
:106310000AF20AF801005C0061005D005E005600B0
:106320005A0059005500540001000AF00AF4010017
:1063300060000100010001005F0010F00100010099
:106340000100010001000100010001000100010045
:1063500001000100010001006200010001000100D4
:106360000100010001000100010001005B00570075
:106370000100010001000100010001000100010015
:106380000100010001000100010001000100010005
:1063900001000100010001000100010001000100F5
:1063A000630001005800010001000100010001002C
:1063B00001000100010001000100010001000100D5
:1063C00001000100010001000100010001000100C5
:1063D00001000100010001000100010001000100B5
:1063E00001000100010001000100010001000100A5
:106700000000010001000100010001000100010082
:106710000100010001000100010001000100010071
:106720000100010001000100010001000100010061
:106730000100010001000100010001000100010051
:106740000100010001000100010001000100010041
:106750000100010001000100010001000100010031
:106760000100010001000100010001000100010021
:106770000100010001000100010001000100010011
:106780000100010001000100010001000100010001
:1067900001000100010001000100010001000100F1
:1067A00001000100010001000100010001000100E1
:1067B00001000100010001000100010001000100D1
:1067C00001000100010001000100010001000100C1
:1067D00001000100010001000100010001000100B1
:1067E00001000100010001000100010001000100A1
:1067F0000100010001000100010001000100010091
:00000001FF
